:100000000C9447020C9484200C94B1200C946F0241
:100010000C946F020C946F020C946F020C946F029C
:100020000C946F020C946F020C946F020C946F028C
:100030000C946F020C946F020C946F020C946F027C
:100040000C9443120C946F020C94F1130C943F1413
:100050000C946F020C946F020C946F020C946F025C
:100060000C946F020C946F022A2A2A2A2A205255D5
:100070004E4E494E473A20746573745F6E6F6465E7
:100080002E696E6F002A2A2A2A2A20534554555079
:100090003A20746573745F6E6F64652E696E6F00CD
:1000A000206E6F7420666F756E6420696E20636FBA
:1000B0006E6669675F7265616400436F6E6669674B
:1000C0003A206D6F64756C652000206E6F74206639
:1000D0006F756E6420696E20636F6E6669675F7707
:1000E0007269746500436F6E6669673A206D6F646C
:1000F000756C6520002020435243206D6174636855
:1001000065732100202043524320646F6573206E85
:100110006F74206D61746368210020627974657367
:1001200000206D617829002076732E2000746820ED
:100130006D6F64756C6520697320746F6F206C61DE
:10014000726765202800434F4E4649473A2074683D
:10015000652073697A65206F662074686520636F17
:100160006E66696720666F72207468652000206380
:100170006F6E666967732000436F6E6669673A2029
:10018000002074696D650020657468002072663116
:100190003200206C6364002073657269616C0043F7
:1001A0006F6E666967204C6F673A00202031396BAB
:1001B0006270730020206C6F7720545820706F7726
:1001C00065720020757569643D3078002067726F34
:1001D00075705F69643D00436F6E666967204E65A8
:1001E000743A206E6F64655F69643D00436F6E66AC
:1001F00069673A20004E65743A20757064617469CD
:100200006E67206E6F64655F696420746F20004EB6
:1002100065743A2073656E64696E6720616E6E6FF7
:10022000756E63656D656E740054696D6520696EE9
:10023000697469616C697A6564004F57543A204764
:100240006F6F64206461746120666F7220004F5785
:10025000543A20426164206461746120666F7220A8
:10026000004F57543A2042616420435243202020DB
:10027000666F722000436F6E666967204F77546522
:100280006D703A20726573746F7265642061646486
:1002900072732066726F6D20454550524F4D00209D
:1002A0006D61783A00732C206D696E4D6178436FF3
:1002B000756E743A002073656E736F72732C206DC7
:1002C000696E4D617854696D65723A004F77546577
:1002D0006D702068617320002073656E736F727398
:1002E000004F57543A2072656164792077697468C9
:1002F00020004F57543A204D697373696E6720731D
:10030000656E736F72733A004F57543A204E65779B
:100310002073656E736F72733A20202020004F5750
:10032000542066726F6D20454550524F4D3A000083
:10033000000000240027002A0000000000250028FB
:10034000002B000000000023002600290004040404
:10035000040404040402020202020203030303036E
:10036000030102040810204080010204081020014B
:10037000020408102000000007000201000003042E
:10038000060000000000000000005EBCE2613FDDEE
:1003900083C29C7E20A3FD1F419DC3217FFCA24000
:1003A0001E5F01E3BD3E6082DC237D9FC1421CFED7
:1003B000A0E1BF5D0380DE3C62BEE0025CDF8163E2
:1003C0003D7C22C09E1D43A1FF4618FAA427799BBD
:1003D000C584DA3866E5BB5907DB856739BAE406B8
:1003E000581947A5FB7826C49A653BD987045AB8A3
:1003F000E6A7F91B45C6987A24F8A6441A99C7259A
:100400007B3A6486D85B05E7B98CD2306EEDB35188
:100410000F4E10F2AC2F7193CD114FADF3702ECC67
:1004200092D38D6F31B2EC0E50AFF1134DCE90726E
:100430002C6D33D18F0C52B0EE326C8ED0530DEF49
:10044000B1F0AE4C1291CF2D73CA947628ABF5174C
:10045000490856B4EA6937D58B5709EBB536688A2F
:10046000D495CB2977F4AA4816E9B7550B88D6342A
:100470006A2B7597C94A14F6A8742AC896154BA911
:10048000F7B6E80A54D7896B35006903AB15112418
:100490001FBECFEFD8E0DEBFCDBF11E0A0E0B1E0DE
:1004A000E8E4F7E402C005900D92AE3EB107D9F73B
:1004B00014E0AEEEB1E001C01D92A433B107E1F744
:1004C00014E0CEE8D4E004C02297FE010E94672326
:1004D000CA38D107C9F70E9401160C94A2230C94C4
:1004E0000000EF92FF920F93DF93CF93CDB7DEB76B
:1004F00060970FB6F894DEBF0FBECDBFA82F0023C4
:1005000009F461C07E010894E11CF11C88E0F70148
:1005100011928A95E9F729833A834B835C836D8333
:100520007E83AF83988780E2801BE82FFF27E7FD5B
:10053000F0954D815E816F817885181684F01D8657
:100540001E861F86188A882799278E1B9F0B04C03A
:1005500076956795579547958A95D2F728C0202FAD
:10056000332727FD3095DB01CA01022E04C0B69562
:10057000A795979587950A94D2F78D879E87AF8721
:10058000B88B04C0440F551F661F771FEA95D2F73A
:1005900089819A81AB81BC8104C0B695A795979556
:1005A00087952A95D2F7482B592B6A2B7B2B4987A5
:1005B0005A876B877C8729853A854B855C856D8555
:1005C0007E85AF8598898A2F60960FB6F894DEBF36
:1005D0000FBECDBFCF91DF910F91FF90EF900895A7
:1005E0000F931F93CF93DF93689F8001699F100D36
:1005F000789F100D1124C8010E94C71FEC010097BD
:1006000029F060E070E0A8010E941503CE01DF919F
:10061000CF911F910F910895FB01DC0102C0019061
:100620000D9241505040D8F70895DC0101C06D9300
:1006300041505040E0F70895A0E0B0E0E2E2F3E07E
:100640000C9475237C01EB018A01690109C0CE017C
:100650002196F6010995F70181937F010150104021
:1006600001151105A1F7CDB7DEB7E8E00C94912391
:10067000A0E0B0E0EEE3F3E00C947523EC017B0125
:100680008A01690109C0CE012196F70161917F01BC
:10069000F60109950150104001151105A1F7CDB7DC
:1006A000DEB7E8E00C949123DF92EF92FF920F9374
:1006B0001F93D72E7A018C01FA010995C801019682
:1006C0006D2DF70109951F910F91FF90EF90DF902D
:1006D00008958EEE91E064ED41E00E940F088CE8F1
:1006E00092E00E94A10A81E992E00E9435061092F0
:1006F000DF021092E20283EE92E064E042E00E94A8
:10070000F71180918F0190919001009719F480E08A
:1007100090E001C004969093940180939301089512
:100720000F931F938EEE91E00E941F0A882329F0F9
:1007300080E090E060E00E94520483EE92E06AE084
:100740000E94CD0D80EE92E06AE57EE10E943F1BA3
:10075000882309F44EC080918F019091900160E050
:1007600071E00E94F81700918F011091900183EEC3
:1007700092E060E00E94DD0AAB01BC01C80122E00A
:1007800030E00E94DF1880918F019091900167E026
:1007900071E00E94F81700918F011091900183EE93
:1007A00092E060E00E94FC0ABC01C8014AE050E00F
:1007B0000E94281780918F01909190016BE071E069
:1007C0000E94F81700918F011091900183EE92E042
:1007D00060E00E942B0BBC01C8014AE050E00E947F
:1007E000281780918F01909190016EE071E00E9436
:1007F000E2180E949A1F823081F08DED92E060E64F
:100800007AEE0E943F1B882341F080918F019091E6
:10081000900160E171E00E94E2181F910F9108952C
:100820000F931F9303EA13E0C80140E051EE60E02C
:1008300070E00E947A14C80165E870E00E94851695
:1008400081E991E00E94EB0460918F017091900129
:1008500083EE92E00E94610F8DED92E068EE73E00E
:100860000E94231B80918F019091900168E670E0B7
:100870000E9485161F910F9108959C01F999FECF52
:1008800032BD21BDF89A80B508959C01F999FECF3B
:100890001FBA32BD21BD60BD0FB6F894FA9AF99A1D
:1008A0000FBE0895CF93DF93EC01462F009721F4FC
:1008B0004091D003C1EDD3E04423F9F03881209179
:1008C0000D03E0910B03F0910C0390E014C0A19193
:1008D000B19112968C911297831761F4ED91FC916E
:1008E0001197219641500280F381E02DCD01BE0188
:1008F000099503C09F5F921750F3DF91CF91089540
:100900001F93182F50910D03A0910B03B0910C036E
:1009100020E230E090E047C0ED91FD91828143817B
:10092000811709F03DC0C90150E025E434E00E9480
:10093000380340910E0350910F03FA01329720E0E3
:1009400030E06FEF7FEF21C0F999FECF205E3F4F7F
:1009500032BD21BDF89A80B56827862F82958627FB
:10096000082E869586958025082E86958025877089
:10097000062E672F869507948795702D6827069415
:100980008795702568272F5130402E173F0708F4B0
:10099000DBCFCA014E9645E454E00E94540319C0CF
:1009A000240F311D9F5F951708F4B6CF83EA93E0BB
:1009B00065EE70E00E943A1683EA93E0612F4AE008
:1009C00050E00E94561783EA93E06AEC70E00E94C0
:1009D00085161F9108958F929F92AF92BF92DF92DA
:1009E000EF92FF920F931F93DF93CF93CDB7DEB7B4
:1009F000C054D0400FB6F894DEBF0FBECDBF5C012F
:100A000020E0322F3F5FE22FF0E0EE0FFF1FEA0DF4
:100A1000FB1D80819181892B11F0232FF2CF209330
:100A20000D03B0920C03A0920B0383EA93E068E7F6
:100A300071E00E943A1683EA93E060910D034AE068
:100A400050E00E94561783EA93E06EE671E00E9440
:100A50003A1610920F0310920E03EE244EC00E2D84
:100A600010E0F801EE0FFF1FEA0DFB1D0190F08171
:100A7000E02DF38080E48F15A8F583EA93E00E94CF
:100A8000651683EA93E066E471E00E943A160F5F10
:100A90001F4F83EA93E0B8014AE050E00E94C61776
:100AA00083EA93E06DE271E00E943A1683EA93E0F4
:100AB0006F2D4AE050E00E94561783EA93E067E208
:100AC00071E00E943A1683EA93E060E470E04AE045
:100AD00050E00E94C61783EA93E061E271E00E9451
:100AE00085160AC080910E0390910F038F0D911D02
:100AF00090930F0380930E03E39480910D03E81607
:100B000008F4ADCF60910E0370910F036E5F7F4FBD
:100B100070930F0360930E0383EA93E04AE050E082
:100B20000E94281783EA93E06AE171E00E9485162B
:100B300060910E0370910F0320E030E04FEF5FEF04
:100B400021C0F999FECF205E3F4F32BD21BDF89AFA
:100B500080B54827842F82958427082E8695869510
:100B60008025082E869580258770042E452F869532
:100B700007948795502D4827069487955025482738
:100B80002F5130402617370708F4DBCF452B01F1F2
:100B900083EA93E064E071E00E94851610E013C0E0
:100BA000E12FF0E0EE0FFF1FEA0DFB1DA081B181E8
:100BB000ED91FC9111970190F081E02DCD0160E065
:100BC00070E009951F5F80910D03181748F337C037
:100BD00083EA93E065EF70E00E94851690E2E92ECB
:100BE000F12CDD244E010894811C911C24C00D2D94
:100BF00010E0000F111F0A0D1B1DD801ED91FC9193
:100C00004381C401B70150E02DE334E00E941C038E
:100C1000F801A081B181ED91FC9111970190F081D3
:100C2000E02DCD01B4010995D801ED91FC918381AE
:100C3000E80EF11CD39480910D03D816C0F2C05C6D
:100C4000DF4F0FB6F894DEBF0FBECDBFCF91DF915F
:100C50001F910F91FF90EF90DF90BF90AF909F900A
:100C60008F900895089508950895FC0113821282CB
:100C700089EA91E0918380830E9695838483E55B76
:100C8000FF4F1082EB54F04082E0868381E087833F
:100C900080E081608087089504970E94500608953F
:100CA000CF93DF93EC01FB01BC01685F7F4F30976E
:100CB00019F08081888706C080E08560888782E09F
:100CC0000E94800483EA93E06FE971E00E943A1683
:100CD000888580FF06C083EA93E067E971E00E949F
:100CE0003A16888581FF06C083EA93E062E971E0E5
:100CF0000E943A16888582FF06C083EA93E06CE87A
:100D000071E00E943A16888583FF06C083EA93E06B
:100D100067E871E00E943A16888584FF06C083EA7E
:100D200093E061E871E00E943A1683EA93E00E9442
:100D30006516DF91CF9108950F931F93CF93DF93A3
:100D4000EC018C01055B1F4FD8018C91FE01E80F6F
:100D5000F11D1186888580FF16C0BE01675F7F4F39
:100D600083EA93E00E94F817F8018081882359F004
:100D7000FE01E80FF11D80858A3029F483EA93E0B3
:100D80006DE00E945D16888582FF22C0809111036C
:100D90008130F1F08EEE91E00E9425070097C1F0BE
:100DA000FC0182E081938E01055B1F4FD8014C91BD
:100DB0009E01275F3F4FCF01B90150E00E940C0315
:100DC000F80160816F5F8EEE91E041E00E94020ABF
:100DD000888583FF0EC0E881F981BE01675F7F4F80
:100DE000DE01A55BBF4F0480F581E02DCE014C9163
:100DF0000995C55BDF4F1882DF91CF911F910F914D
:100E000008951F93CF93DF93EC01162FC55BDF4F3F
:100E10008881CB54D040813418F0CE010E949C06CA
:100E2000DE01A55BBF4F8C91FE01E80FF11D11871C
:100E30008F5F8C931A3019F4CE010E949C0681E0DA
:100E400090E0DF91CF911F910895FC0180911003F4
:100E50008823A1F0809111038E3181F0E457FF4F78
:100E60009081EC58F040923048F484E4989F9001CF
:100E700011242A5F3F4F2E0F3F1F02C020E030E0B9
:100E8000C9010895EF92FF920F931F938C01609315
:100E9000110383EA93E067ED71E00E943A1683EA5A
:100EA00093E0609111034AE050E00E94561783EAF4
:100EB00093E06CEC71E00E943A168AE9E82EF12C7E
:100EC000E00EF11E83EA93E0F70160814AE050E012
:100ED0000E94561783EA93E063EC71E00E943A1691
:100EE0000C561F4FF8016081718183EA93E040E165
:100EF00050E00E9439178091110363E0F7014081AF
:100F00000E94661F095F1F4FF8018081882371F0DE
:100F100083EA93E064EB71E00E94851687E598E927
:100F20000E94911B82EB94E90E94911B83EA93E05B
:100F30006BEA71E00E94851681E196EC0E94911B9C
:100F400081EC94E90E94911B80E298E90E94911B38
:100F500083E00E941E1285E060E00E945D131F91F5
:100F60000F91FF90EF9008950F931F93DF93CF930E
:100F700000D000D0CDB7DEB78C01FB01443009F0C2
:100F800045C00C561F4F20813181D8018D919C9115
:100F90000459104028173907C9F58381882319F0AF
:100FA000813031F403C01092100302C0809310030B
:100FB000928180911103891749F1828180931103F5
:100FC00083EA93E065EF71E00E943A1683EA93E0CA
:100FD000609111034AE050E00E946817C8016091D7
:100FE00011030E94420780911103898380911003AD
:100FF0008A830C561F4FF801808191819C838B83DB
:1010000081E0BE016F5F7F4F0E9480040F900F90C0
:101010000F900F90CF91DF911F910F910895CF9373
:10102000DF93EC018FEB91E099838883C656DF4F05
:1010300069934883CB59D0400E948B12FE01EA5637
:10104000FF4F6083718382839383611571058105EE
:10105000910541F481E090E0A0E0B0E080839183CD
:10106000A283B38381E08A8384E08B83DF91CF9175
:1010700008950F931F93DF93CF9300D00F92CDB7B6
:10108000DEB78C010E94AA1C882309F448C0FE0127
:10109000319683E0DF011D928A95E9F781E089832B
:1010A0000C561F4FD8018D919C91045910409B8381
:1010B0008A8380911103BF0143E00E94AA1E0E940F
:1010C0008B129B01AC01809111038E3129F060E2FB
:1010D0007EE480E090E004C064EF71E080E090E0A6
:1010E000DC01CB01820F931FA41FB51FF801EA5644
:1010F000FF4F80839183A283B3830097A105B1053D
:1011000041F481E090E0A0E0B0E080839183A2838D
:10111000B38383EA93E06FE072E00E9485160F903C
:101120000F900F90CF91DF911F910F910895CF9263
:10113000DF92EF92FF920F931F93DF93CF93CDB780
:10114000DEB77C01CDB6DEB6FB018B016115710502
:1011500009F180818E31F1F083EA93E06CEE71E069
:101160000E943A1683EA93E0F80160814AE050E079
:101170000E94561783EA93E06DE171E00E94F81730
:10118000F801618183EA93E070E04AE050E00E9458
:10119000D91719C000D000D00DB71EB70F5F1F4F71
:1011A0008EE1EDB7FEB78183F80111820E9499129A
:1011B0002AEA35E526273727F8013383228381E0A1
:1011C000B8010E948004F80160816093110381815D
:1011D0008093100384E990E0E80EF91E82819381E8
:1011E000F701918380838CE69FEFE80EF91EC7011B
:1011F0000E944207C7010E9439080FB6F894DEBE6C
:101200000FBECDBECF91DF911F910F91FF90EF9058
:10121000DF90CF9008951F93CF93DF93EC01C457D5
:10122000DF4F8881CC58D0408823E1F11C81C3571F
:10123000DF4F8881CD58D04090E007970CF01F7D9C
:10124000BE016A5F7F4F812F4D810E94AA1E15FD4E
:101250001BC0C457DF4F8881CC58D040823050F03B
:10126000DE011496FE01E85BFF4F84E401900D92CD
:101270008150E1F7FE01E457FF4F80818150808368
:10128000C357DF4F18820EC0FE01E357FF4F808126
:101290008F5F80830E948B12C257DF4F68837983F0
:1012A0008A839B83DF91CF911F910895EF92FF92E4
:1012B0000F931F93CF93DF93EC0126E9E22EF12CDD
:1012C000E80EF91EF70180819181A281B381009718
:1012D000A105B10509F448C00E948B12F7012081D5
:1012E0003181428153816217730784079507E0F1CA
:1012F000809111038130C1F1CE010E94390844C0B0
:101300000E94AA1C8823C9F18E010D561F4FF701B8
:101310008081B80141E00E94AA1EF7011082F80105
:10132000108232C0C357DF4F8881CD58D040882308
:1013300099F00E948B12C257DF4F288139814A8170
:101340005B81CE58D0402C593F4F4F4F5F4F6217B3
:10135000730784079507C0F00E94AA1C8823A1F098
:10136000CE010E940B0910C092E9E92EF12CEC0E7F
:10137000FD1EF7018081882319F6C457DF4F88814D
:10138000CC58D040882371F6DF91CF911F910F91F7
:10139000FF90EF900895CF93DF93EC01DC01A45709
:1013A000BF4F2C91223058F530E084E490E0289F24
:1013B000F001299FF00D389FF00D1124EC0FFD1F57
:1013C00065838C9190E0FC0164E0EE0FFF1F6A954D
:1013D000E1F7E80FF91F3196EE0FFF1FEE0FFF1F29
:1013E000EC0FFD1F40838C918F5F8C93813039F41B
:1013F0000E94AA1C882319F0CE010E940B09DF91DC
:10140000CF9108959C01411140E280911103482B36
:10141000C9010E94CB0908950F931F938C0185E0A9
:101420000E94211203561F4F8C529140959587952B
:1014300095958795F80180831F910F910895CF931B
:10144000DF93EC010E94AD1B882309F473C08091E7
:10145000CC039091CD03892B09F068C08091CF0314
:1014600087FD1DC0CE010E940C0A8091CF0385FF2D
:1014700013C09091CF039F7180911103981711F4BD
:10148000892F02C0892F8064CE56DF4F8068888301
:101490002B9688812A9788838091D1034FC08091B1
:1014A000CF0385FD47C0CE010E940C0A2091CF03D7
:1014B00030E02F7130708091110390E028173907C8
:1014C000C9F5C457DF4F8881CC58D040882391F1AB
:1014D000C357DF4F8881CD58D040882359F1809180
:1014E000D003813011F080E002C08091D103C45656
:1014F000DF4F888360978881CC58D040823050F08D
:10150000DE011496FE01E85BFF4F84E401900D922A
:101510008150E1F7FE01E457FF4F808181508083C5
:10152000C357DF4F1882CD58D04004C08091CC0300
:101530009091CD03CE010E94560980E0DF91CF91BA
:101540000895FC0187EC91E091838083148283E00D
:10155000828381E083830895FC01DB0161157105BD
:1015600019F08C91848305C0349683E0BF010E94FA
:10157000800483EA93E06FE171E00E94E21808952D
:101580001F93CF93DF93EB01443098F00E949A1F92
:10159000182F688179818A819B810E949D1F112368
:1015A00041F480918F019091900169E272E00E9474
:1015B0008516DF91CF911F910895FC0182896817EC
:1015C00028F070E060E090EC8FE70FC0862F90E08D
:1015D000880F991F880F991F038CF48DE02DE80F59
:1015E000F91F7081618192818381272F362F492FC6
:1015F000582FB901CA010895FC018289681718F0B3
:1016000020E030E826C086E0689FC001112404A0D5
:10161000F5A1E02DE80FF91F9081818198170CF456
:10162000892F928198170CF4892F938198170CF4C5
:10163000892F9481282F98170CF4292F9581822FB8
:1016400092170CF4892F282F332727FD3095285A1D
:101650003F4FC9010895FC018289681718F020E006
:1016600030E826C086E0689FC001112406A0F7A1DB
:10167000E02DE80FF91F9081818189170CF4892FE3
:10168000928189170CF4892F938189170CF4892F83
:101690009481282F89170CF4292F9581822F2917DF
:1016A0000CF4892F282F332727FD3095285A3F4FD8
:1016B000C90108950895EF92FF920F931F938C0133
:1016C00054E0E52EF12CE80EF91EC7010E940C1A19
:1016D000C7010E94E619C70164E441E00E94A6190F
:1016E00082E0F801838B1F910F91FF90EF90089596
:1016F000CF92DF92EF920F931F93DF93CF93CDB7EB
:10170000DEB728970FB6F894DEBF0FBECDBF0983B2
:101710001A832B833C834D835E836F8378878C0190
:101720000C5F1F4FC8010E940C1A6E010894C11C67
:10173000D11CC801B6010E94EB19C8016EE440E05B
:101740000E94A619C80160E040E00E94A619C801E5
:1017500060E040E00E94A619E294EE0C60EEE62202
:10176000EA94C8016E2D40E00E94A619C8010E94AB
:101770000C1AC801B6010E94EB19C80168E441E0E7
:101780000E94A6196AE070E080E090E00E94BF121B
:10179000C8010E94F51828960FB6F894DEBF0FBE58
:1017A000CDBFCF91DF911F910F91EF90DF90CF9040
:1017B0000895DC01AB016115710539F15896ED9181
:1017C000FC91599780819181892B9281892B9381FA
:1017D000892B9481892B9581892B9681892B9781DF
:1017E000892B99F452962C9130E073E0220F331F2D
:1017F0007A95E1F7CF01BA01A9010E940C0383EAAF
:1018000093E065E772E00E9485160895CF92DF921B
:10181000EF92FF920F931F93DF93CF93CDB7DEB775
:1018200028970FB6F894DEBF0FBECDBF6B01E982DB
:10183000FA820B831C832D833E834F835887CB0111
:1018400062E371E00E94F8178E010F5F1F4FF4E012
:10185000EF2EF12CEC0EFD1EF801608170E0E4E04B
:1018600075956795EA95E1F7C60140E150E00E9461
:10187000C617F80161918F0170E06F707070C6013A
:1018800040E150E00E94C6170E151F0529F7289663
:101890000FB6F894DEBF0FBECDBFCF91DF911F9181
:1018A0000F91FF90EF90DF90CF9008958F929F92CD
:1018B000AF92BF92CF92DF92EF92FF920F931F935E
:1018C000DF93CF93CDB7DEB76C970FB6F894DEBF3A
:1018D0000FBECDBF4C010D8B1E8B2F8B388F498FC8
:1018E0005A8F6B8F7C8F14E0E12EF12CE80EF91EDD
:1018F000C7010E940C1AC701BE016B5E7F4F0E9498
:10190000EB19C7016EEB40E00E94A6198E01075F3C
:101910001F4F6801B2E1AB2EB12CAC0EBD1EC7014A
:101920000E945519F80181938F01EA15FB05B9F75B
:10193000C60168E00E94101999898917E1F083EACD
:1019400093E061E672E00E943A16ED88FE880F8906
:10195000188D298D3A8D4B8D5C8DC40163EA73E03F
:101960000E94060C83EA93E065E371E00E94F81799
:10197000F601E08028C08985882319F48A858823A8
:1019800031F08E858F3F19F48889803179F183EAAF
:1019900093E06EE472E00E943A16ED88FE880F89AB
:1019A000188D298D3A8D4B8D5C8DC40163EA73E0EF
:1019B0000E94060C83EA93E065E371E00E94F81749
:1019C000FE013996E984F1800281138124813581F9
:1019D00046815781C40163EA73E00E94060C83EAE2
:1019E00093E00E94651640E050E84CC083EA93E023
:1019F0006AE372E00E943A16ED88FE880F89188D1E
:101A0000298D3A8D4B8D5C8DC40163EA73E00E9491
:101A1000060C83EA93E065E371E00E94F817FE018B
:101A20003996E984F18002811381248135814681D0
:101A30005781C40163EA73E00E94060C83EA93E0D5
:101A40000E9465169A8580E0298530E0282B392B85
:101A5000DE011196E3EDF1E088E001900D928150F6
:101A6000E1F7ED85F0E0E076F070A4E0F695E7951B
:101A7000AA95E1F7EC0FFD1F4181528140955095E9
:101A800042235323CA016C960FB6F894DEBF0FBEF3
:101A9000CDBFCF91DF911F910F91FF90EF90DF901D
:101AA000CF90BF90AF909F908F9008958F929F920C
:101AB000AF92BF92CF92DF92EF92FF920F931F935C
:101AC000CF93DF93EC01D22EC32EB42EA52E962EEB
:101AD000872E0E94560C9C0180E82030380779F54B
:101AE000CE012D2D3C2D4B2D5A2D692D782D0E9488
:101AF000560C9C0180E82030380709F5CE012D2DC9
:101B00003C2D4B2D5A2D692D782D0E94560C9C0191
:101B100080E82030380799F4CE012D2D3C2D4B2D37
:101B20005A2D692D782D0E94560C9C0180E820309A
:101B3000380729F4E0E070E080EC6FE71BC0B901E2
:101B4000882777FD8095982F0E94E22120E030E0E1
:101B500040E85DE30E94962226E636E646EE5FE325
:101B60000E94962220E030E040E052E40E94DF2014
:101B7000E62F692F2E2F372F482F562FB901CA0174
:101B8000DF91CF911F910F91FF90EF90DF90CF9059
:101B9000BF90AF909F908F9008952F923F924F9259
:101BA0005F926F927F928F929F92AF92BF92CF92ED
:101BB000DF92EF92FF920F931F93CF93DF934C012D
:101BC000762E4F9660E67AEE0E943F1B882309F43A
:101BD00045C0D40192968D919C91939701969396CE
:101BE0009C938E939297803F9105C0F193961C929F
:101BF0001E92929760E070E040E050E026C0E9015C
:101C0000D4019496ED91FC919597E40FF51F9E01F8
:101C100021503040DF01AC0FBD1FE20FF31F808168
:101C20008C93D4019696ED91FC919797E40FF51F54
:101C3000CE0FDF1FE20FF31F80818883211531054E
:101C4000F1F66F5F7F4F4A5F5F4FF401828990E04A
:101C5000681779071CF4C5E0D0E0D2CF0E948B1240
:101C60005B016C01D40153968C91813021F082305C
:101C700009F013C128C07720D9F0F401848995892F
:101C8000A689B78986017501E81AF90A0A0B1B0BA8
:101C9000672D70E080E090E028EE33E040E050E017
:101CA0000E94FD226E157F058007910708F0F5C0A0
:101CB000D4015496AD92BD92CD92DC925797C40157
:101CC0000E945B0BEAC0F40184899589A689B789D3
:101CD000A81AB90ACA0ADB0AFDEBAF16B104C1049F
:101CE000D10408F4DAC0BB2471E0272E312C0F2E6A
:101CF000F0E04F2EF0E05F2EF0EC6F2EFFE77F2E2E
:101D0000F02DC3C0CB2CDD24C60163E0880F991FE2
:101D10006A95E1F7D4015896ED91FC915997E80F37
:101D2000F91F0081118122813381448155816681AF
:101D30007781802F812B822B832B842B852B862BE5
:101D4000872B09F4A1C0C4010E94560D7B018C01B0
:101D5000E1010B2C02C0CC0FDD1F0A94E2F7A801B1
:101D600097010E94F922F401258D368D8823D9F040
:101D7000CE0182239323892B81F0CC0CDD1CCC0C6B
:101D8000DD1CD4015B96ED91FC915C97EC0DFD1D83
:101D9000408251826282738277C02C2B3D2BF401EA
:101DA000368F258F71C0CE018095909528233923D9
:101DB000D4015E963C932E935D97C601880F991FC0
:101DC000880F991F5B96ED91FC915C97E80FF91FC6
:101DD000E082F18202831383C801B70120E030E082
:101DE00040E050E00E94922288234CF0C801B701E5
:101DF00020E030E040E05FE30E94DF2008C0C8013F
:101E0000B70120E030E040E05FE30E94DE200E9466
:101E1000AF21162F1855E601CC0FDD1FCC0DDD1DAF
:101E2000CC0FDD1FD4019496ED91FC919597EC0FAA
:101E3000FD1F8581803859F4212F332727FD3095E8
:101E4000CF01B90146E050E00E94150304C0808133
:101E500018170CF41083D4019696ED91FC91979786
:101E6000EC0FFD1F8581803859F4212F332727FD82
:101E70003095CF01B90146E050E00E94150304C03F
:101E8000808181170CF41083B394F4018289B81611
:101E900008F438CF81E0838B01C080E0DF91CF91DF
:101EA0001F910F91FF90EF90DF90CF90BF90AF9078
:101EB0009F908F907F906F905F904F903F902F906A
:101EC00008952F923F924F925F926F927F928F92DE
:101ED0009F92AF92BF92CF92DF92EF92FF920F93B9
:101EE0001F93DF93CF93CDB7DEB764970FB6F89407
:101EF000DEBF0FBECDBF3C012B01CB016EE173E015
:101F00000E943A16DD2420C0C2016EE471E00E94F6
:101F1000F8178D2D90E013E0880F991F1A95E1F7BF
:101F2000D3015896ED91FC915997E80FF91FE08085
:101F3000F180028113812481358146815781C3015B
:101F4000B2010E94060CD394F3018289D816E0F204
:101F5000C2010E94651693012C5F3F4F3D872C877D
:101F6000C9010E9403191B861A862224332419866C
:101F7000E3C0CE01019667E00E94101919813A81F1
:101F80003E879B819F87AC81A88BBD81B98BEE81F9
:101F9000EA8BFF81FB8B28852C8B882E9924AA2421
:101FA000BB24CC24DD247601212F492F5A2F6B2FFF
:101FB0007E2F8F2F9C8908E30E947102821609F000
:101FC000BBC0931609F0B8C0A41609F0B5C0B51689
:101FD00009F0B2C0C61609F0AFC0D71609F0ACC000
:101FE000E81609F0A9C0F91609F0A6C0D301529667
:101FF0000C91DD2420E030E04BC0D3015896ED91E8
:10200000FC915997E20FF31F8081918142815381A6
:1020100064817581A681E781285F3F4F1817B9F564
:10202000BE85B917A1F5FF85F41789F5888985174D
:1020300071F59989961759F5BA89B71741F5FB8952
:10204000FA1729F58C898E1711F5C20160E571E048
:102050000E94F817E980FA800B811C812D813E8156
:102060004F815885C301B2010E94060CC2010E9433
:10207000651681E090E002C0880F991FDA94E2F7BC
:10208000AA85BB85A82BB92BBB87AA8752C0D3943E
:10209000D01608F4B2CFDD2420E030E047C0D301F1
:1020A0005896ED91FC915997E20FF31F285F3F4F2F
:1020B00080819181892B9281892B9381892B9481B5
:1020C000892B9581892B9681892B9781892B69F59D
:1020D0001083BE85B1832F85228338893383898914
:1020E00084839A899583AB89A683BC89B783C2010F
:1020F0006DE571E00E94F817E980FA800B811C8180
:102100002D813E814F815885C301B2010E94060C8A
:10211000C2010E94651681E090E002C0880F991FFD
:10212000DA94E2F7282A392A04C0D394D01608F4A6
:10213000B6CFE985EF5FE9878C859D85BE016F5F2E
:102140007F4F0E94571A882309F013CF8C859D85F5
:102150000E940319FF2420C08F2D90E0B3E0880F68
:10216000991FBA95E1F7D3015896ED91FC915997D3
:10217000E80FF91F0081118122813381448155814B
:1021800066817781023211F0083229F4C301AAE096
:10219000EA2E0E94780BF394F3018289F816E0F29C
:1021A00021143104B9F1C20168E073E00E943A16CB
:1021B000DD2429C0C1010D2C02C0969587950A9493
:1021C000E2F780FF1FC0C2016EE471E00E94F817C1
:1021D0008D2D90E0F3E0880F991FFA95E1F7D30178
:1021E0005896ED91FC915997E80FF91FE080F18026
:1021F000028113812481358146815781C301B20157
:102200000E94060CD394F3018289D81698F2C20179
:102210000E946516CA84DB84C228D328C094D09457
:1022200081E090E0D30152960C9002C0880F991F74
:102230000A94E2F70197C822D922C114D104B9F156
:10224000C20162EF72E00E943A16BB2429C0C601A7
:102250000B2C02C0969587950A94E2F780FF1FC069
:10226000C2016EE471E00E94F8178B2D90E0E3E06C
:10227000880F991FEA95E1F7D3015896ED91FC91EB
:102280005997E80FF91FE080F180028113812481C2
:10229000358146815781C301B2010E94060CB39477
:1022A000F3018289B81698F2C2010E946516C20134
:1022B00061EE72E00E943A16C201D30152966C910F
:1022C0004AE050E00E945617C20168ED72E00E9499
:1022D0008516F301608D718D84E00E9480040E9458
:1022E0008B12D30154966D937D938D939C93579746
:1022F000C3010E945B0B898564960FB6F894DEBF1C
:102300000FBECDBFCF91DF911F910F91FF90EF9046
:10231000DF90CF90BF90AF909F908F907F906F9005
:102320005F904F903F902F9008951F93CF93DF932E
:10233000EC01413108F040E14A8B1B8A1E8E1D8E54
:10234000842F90E064E070E00E94F0028B8F9C8FFD
:102350008A8990E066E070E00E94F0028CA39DA361
:102360002A8916E0219F9001112460E870E0A901FC
:102370000E9415038A8990E066E070E00E94F002F6
:102380008EA39FA32A89219F9001112460E870E009
:10239000A9010E94150384E08A838A8990E023E0E2
:1023A000880F991F2A95E1F78B8383EA93E068E60B
:1023B00071E00E94F81783EA93E06A894AE050E0EE
:1023C0000E94561783EA93E064E771E00E94F817D1
:1023D00083EA93E06B814AE050E00E94561783EA5B
:1023E00093E00E946516DF91CF911F910895EF92BF
:1023F000FF920F931F938C01F62EE42E8FEC91E049
:10240000F80191838083C80104960E94ED1AF801B7
:1024100011A2C8016F2D4E2D0E949511F8018289DD
:1024200090E068E070E00E94F002F801808F918FE8
:10243000128E1F910F91FF90EF90089580939B0152
:102440000895982F8E3008F09E50977080919B01D0
:102450008295880F880F807C892B80937C008091E7
:102460007A00806480937A0080917A0086FDFCCFA8
:102470002091780040917900942F80E030E0282B63
:10248000392BC90108951F920F920FB60F92112494
:102490002F933F938F939F93AF93BF938091160396
:1024A00090911703A0911803B091190330911A036A
:1024B0000196A11DB11D232F2D5F2D3720F02D5723
:1024C0000196A11DB11D20931A03809316039093CA
:1024D0001703A0931803B0931903809112039091EE
:1024E0001303A0911403B09115030196A11DB11D12
:1024F0008093120390931303A0931403B0931503D6
:10250000BF91AF919F918F913F912F910F900FBEEF
:102510000F901F9018958FB7F89420911603309163
:10252000170340911803509119038FBFB901CA01D5
:1025300008959FB7F89420911203309113034091AE
:1025400014035091150386B5A89B06C08F3F21F058
:102550002F5F3F4F4F4F5F4F9FBF542F432F322F5F
:102560002227280F311D411D511D82E0220F331FEC
:10257000441F551F8A95D1F7B901CA0108959B01DF
:10258000AC017FB7F8948091120390911303A0914E
:102590001403B091150366B5A89B05C06F3F19F0F1
:1025A0000196A11DB11D7FBFBA2FA92F982F882793
:1025B000860F911DA11DB11D62E0880F991FAA1FF2
:1025C000BB1F6A95D1F7BC012DC0FFB7F89480916D
:1025D000120390911303A0911403B0911503E6B573
:1025E000A89B05C0EF3F19F00196A11DB11DFFBFCB
:1025F000BA2FA92F982F88278E0F911DA11DB11DCD
:10260000E2E0880F991FAA1FBB1FEA95D1F7861B2E
:10261000970B885E9340C8F22150304040405040B4
:1026200068517C4F211531054105510571F608951A
:10263000019739F0880F991F880F991F029701970A
:10264000F1F70895789484B5826084BD84B5816083
:1026500084BD85B5826085BD85B5816085BDEEE6AA
:10266000F0E0808181608083E1E8F0E01082808189
:1026700082608083808181608083E0E8F0E08081F7
:1026800081608083E1EBF0E0808184608083E0EB17
:10269000F0E0808181608083EAE7F0E080818460FF
:1026A000808380818260808380818160808380815B
:1026B000806880831092C1000895CF93DF93482FE4
:1026C00050E0CA018F599C4FFC013491435B5C4F31
:1026D000FA018491882369F190E0880F991FFC0129
:1026E000E15DFC4FA591B491FC01E75CFC4FC59105
:1026F000D491662351F42FB7F8948C91932F909531
:1027000089238C93888189230BC0623061F42FB7B1
:10271000F8948C91932F909589238C938881832BA7
:1027200088832FBF06C09FB7F8948C91832B8C931E
:102730009FBFDF91CF910895482F50E0CA018B5879
:102740009C4FFC012491CA018F599C4FFC0194912C
:10275000435B5C4FFA013491332309F440C02223D8
:1027600051F1233071F0243028F42130A1F02230CF
:1027700011F514C02630B1F02730C1F02430D9F45F
:1027800004C0809180008F7703C0809180008F7D8E
:102790008093800010C084B58F7702C084B58F7D90
:1027A00084BD09C08091B0008F7703C08091B000D4
:1027B0008F7D8093B000E32FF0E0EE0FFF1FE75C0A
:1027C000FC4FA591B4912FB7F894662321F48C9116
:1027D0009095892302C08C91892B8C932FBF0895EB
:1027E00008951F920F920FB60F9211242F933F93CB
:1027F0004F938F939F93EF93FF938091C00082FD3F
:102800001DC04091C60020915B0330915C032F5F97
:102810003F4F2F73307080915D0390915E032817B6
:10282000390771F0E0915B03F0915C03E55EFC4FCA
:10283000408330935C0320935B0302C08091C60009
:10284000FF91EF919F918F914F913F912F910F9019
:102850000FBE0F901F901895E091AF03F091B00359
:10286000E05CFF4F8191919120813181821B930B1C
:102870008F739070892B11F00E94F01308951F92AE
:102880000F920FB60F9211242F933F938F939F9324
:10289000EF93FF9320919F033091A0038091A103B8
:1028A0009091A2032817390731F48091C1008F7DE0
:1028B0008093C10014C0E091A103F091A203E15AFA
:1028C000FC4F20818091A1039091A20301968F7308
:1028D00090709093A2038093A1032093C600FF9170
:1028E000EF919F918F913F912F910F900FBE0F907D
:1028F0001F901895AF92BF92DF92EF92FF920F93C5
:102900001F93CF93DF93EC017A018B01DD244030DC
:1029100081EE580780E0680780E0780711F0DD2439
:10292000D39491E0A92EB12CEC89FD89DD2069F0CA
:10293000C50108A002C0880F991F0A94E2F780839E
:1029400060E079E08DE390E005C0108260E874E813
:102950008EE190E0A80197010E944323215030406E
:1029600040405040569547953795279580E1203057
:10297000380720F0DD2011F0DD24D6CFE889F98971
:102980003083EA89FB89208319A2EE89FF8940817F
:1029900021E030E0C9010C8C02C0880F991F0A9415
:1029A000E2F7482B4083EE89FF894081C9010D8CF5
:1029B00002C0880F991F0A94E2F7482B4083EE89E2
:1029C000FF894081C9010E8C02C0880F991F0A94AB
:1029D000E2F7482B4083EE89FF8980810F8C02C08B
:1029E000220F331F0A94E2F7209528232083DF91DA
:1029F000CF911F910F91FF90EF90DF90BF90AF901C
:102A00000895DC011C96ED91FC911D97E05CFF4F51
:102A10002191319180819181281B390B2F73307066
:102A2000C9010895DC011C96ED91FC911D97E05CB5
:102A3000FF4F20813181E054F040DF01AE5BBF4F9A
:102A40008D919C9111972817390719F42FEF3FEFBB
:102A500007C08D919C91E80FF91F8081282F30E0ED
:102A6000C9010895DC011C96ED91FC911D97E05C75
:102A7000FF4F20813181E054F040DF01AE5BBF4F5A
:102A80008D919C9111972817390719F42FEF3FEF7B
:102A900010C08D919C911197E80FF91F20818D91A5
:102AA0009C91119701968F73907011969C938E93C1
:102AB00030E0C9010895DC0191968C9191978823AB
:102AC00039F05496ED91FC915597808186FFF9CFAE
:102AD00091961C920895CF93DF93EC01EE85FF85CC
:102AE000E05CFF4F20813181E054F0402F5F3F4F89
:102AF0002F733070DF01AE5BBF4F8D919C911197AA
:102B000028173907D1F3E05CFF4F80819181E054B1
:102B1000F040E80FF91F6083EE85FF85E05CFF4F12
:102B200031832083EE89FF89208181E090E00F8C42
:102B300002C0880F991F0A94E2F7282B208381E0B6
:102B400089A3EC89FD8980818064808381E090E0A5
:102B5000DF91CF9108951092A6031092A50388EEFD
:102B600093E0A0E0B0E08093A7039093A803A09324
:102B7000A903B093AA038FED91E09093A4038093EF
:102B8000A3038BE193E09093B0038093AF038FE5B1
:102B900093E09093B2038093B10385EC90E090931F
:102BA000B4038093B30384EC90E09093B6038093D6
:102BB000B50380EC90E09093B8038093B70381EC69
:102BC00090E09093BA038093B90382EC90E09093E5
:102BD000BC038093BB0386EC90E09093BE0380938C
:102BE000BD0384E08093BF0383E08093C00387E04C
:102BF0008093C10385E08093C20381E08093C30387
:102C00000895CF93DF930E9422130E941004CCE218
:102C1000D4E10E9490032097E1F30E942C14F9CF95
:102C2000CF92DF92EF92FF920F931F93CF93DF9398
:102C30007C016B018A01C0E0D0E00FC0D6016D912C
:102C40006D01D701ED91FC910190F081E02DC7015C
:102C50000995C80FD91F015010400115110571F7D2
:102C6000CE01DF91CF911F910F91FF90EF90DF90F8
:102C7000CF900895EF92FF920F931F93CF93DF931E
:102C80007C018B01C0E0D0E0F8010F5F1F4F649121
:102C9000662359F0D701ED91FC910190F081E02D70
:102CA000C7010995C80FD91FEFCFCE01DF91CF9192
:102CB0001F910F91FF90EF900895DC01ED91FC9131
:102CC0000190F081E02D09950895EF92FF920F9306
:102CD0001F938C01DC01ED91FC910190F081E02DBE
:102CE0006DE009957C01D801ED91FC910190F08196
:102CF000E02DC8016AE009959C012E0D3F1DC90118
:102D00001F910F91FF90EF900895EF92FF920F9314
:102D10001F937C010E943A168C01C7010E94651620
:102D20009C01200F311FC9011F910F91FF90EF905F
:102D30000895CF93DF93EC016115710519F420E03C
:102D400030E00FC0DB010D900020E9F71197A61BC2
:102D5000B70BE881F9810280F381E02DAD0109957F
:102D60009C01C901DF91CF9108954F925F927F92AC
:102D70008F929F92AF92BF92CF92DF92EF92FF928B
:102D80000F931F93DF93CF93CDB7DEB7A1970FB605
:102D9000F894DEBF0FBECDBF2C01742ECB012230C4
:102DA00008F42AE019A231E2C32ED12CCC0EDD1E8C
:102DB000822E9924AA24BB24672D752FA501940186
:102DC0000E94432379018A01C801B701A50194013A
:102DD0000E94FD22472D461B0894C108D1084A30A5
:102DE00010F4405D01C0495CF6014083E114F10438
:102DF0000105110521F07E2C5F2DC801DDCFC20138
:102E0000B6010E949916A1960FB6F894DEBF0FBEC8
:102E1000CDBFCF91DF911F910F91FF90EF90DF9089
:102E2000CF90BF90AF909F908F907F905F904F908A
:102E30000895DC012115310541F4ED91FC910190DB
:102E4000F081E02D642F099508950E94B51608952C
:102E5000EF92FF920F931F939A017B0100E010E025
:102E6000B801A7010E9419171F910F91FF90EF90D1
:102E70000895CF92DF92EF92FF920F931F936C0110
:102E80007B019A0100E010E0B801A7010E94191728
:102E90008C01C6010E946516080F191FC8011F91F9
:102EA0000F91FF90EF90DF90CF900895EF92FF92F7
:102EB0000F931F939A01E62EFF2400E010E0B80163
:102EC000A7010E9419171F910F91FF90EF9008958D
:102ED000CF92DF92EF92FF920F931F936C01E62E39
:102EE0009A01FF2400E010E0B801A7010E94191721
:102EF0008C01C6010E946516080F191FC8011F9199
:102F00000F91FF90EF90DF90CF900895CF92DF92D6
:102F1000EF92FF920F931F93CF93DF93EC016A011F
:102F20007B012115310541F4E881F9810190F0819F
:102F3000E02D642F09951FC02A303105D1F477FFA9
:102F400017C0E881F9810190F081E02D6DE20995CB
:102F50008C0144275527BA014C195D096E097F0978
:102F6000CE012AE00E94B5169801280F391F04C02F
:102F70002AE00E94B5169C01C901DF91CF911F91F3
:102F80000F91FF90EF90DF90CF900895EF92FF9216
:102F90000F931F937B019A010027F7FC0095102FD8
:102FA000B801A7010E9486171F910F91FF90EF9023
:102FB0000895CF92DF92EF92FF920F931F936C01CF
:102FC0007B019A010027F7FC0095102FB801A7019B
:102FD0000E9486178C01C6010E946516080F191FF2
:102FE000C8011F910F91FF90EF90DF90CF9008954F
:102FF0000E94991608957F928F929F92AF92BF92EE
:10300000CF92DF92EF92FF920F931F93CF93DF93B4
:103010004C017A018B01722ECB01BA01A8019701F4
:103020000E94F922882321F0C40161E871E021C0E7
:10303000C0E0D0E057016801E894D7F8C601B501B7
:103040002FEF3FEF4FE75FE70E94F922882351F40B
:10305000C601B5012FEF3FEF4FE75FE70E94432125
:10306000181614F0C1E0D0E0219739F0C40165E8EA
:1030700071E00E949916EC0193C0C801B7012FEFCF
:103080003FEF4FE75FE40E949222181654F0C80108
:10309000B7012FEF3FEF4FE75FEC0E9443218823FA
:1030A00024F4C40169E871E0E4CFC801B70120E06D
:1030B00030E040E050E00E94432187FD03C0C0E0C3
:1030C000D0E00EC0D401ED91FC910190F081E02D93
:1030D000C4016DE20995EC0117FB109517F91095E5
:1030E00020E030E040E05FE3DD240BC0CA01B9011D
:1030F00020E030E040E251E40E9447219B01AC0116
:10310000D394D71498F3C801B7010E94DF205B0164
:103110006C010E94B4217B018C01C401B801A7019C
:103120002AE030E00E941917C80FD91F772039F024
:10313000C4016DE871E00E949916C80FD91FC8013B
:10314000B7010E94E0219B01AC01C601B5010E94BC
:10315000DE2024C020E030E040E251E40E949622CC
:103160007B018C010E94AF215B016C01CC24B7FC78
:10317000C094DC2CC401B601A5012AE030E00E9415
:103180008617C80FD91FC601B5010E94E2219B0115
:10319000AC01C801B7010E94DE207A947720D1F6F5
:1031A000CE01DF91CF911F910F91FF90EF90DF90B3
:1031B000CF90BF90AF909F908F907F9008950E9486
:1031C000FB170895EF92FF920F931F937C010E94CB
:1031D00099168C01C7010E946516080F191FC801B6
:1031E0001F910F91FF90EF900895FC01F894A18139
:1031F000B28111969C9111978081809598231196A8
:103200009C9378940895FC0113861586148687E0B4
:1032100090E012863197009711F00197FACF089548
:10322000DC0180E00BC0E82FF0E08D9190E0E82712
:10323000F927E757FC4FE49161508E2F662399F7E9
:103240000895DF92EF92FF920F931F93FC01E080AD
:1032500001811281F894F8018281DE2CD0948D21B5
:10326000828381818E29818383E090E00E941813FC
:10327000F80181818D2181838AE090E00E941813FA
:10328000F8010081789485E390E00E94181380E0B3
:1032900010E0FF240E211F21012B09F081E01F9176
:1032A0000F91FF90EF90DF900895EF92FF920F93B0
:1032B0001F93CF93DF937C0101E010E0C0E0D0E0EA
:1032C000C7010E9421198111102B000F2196C830CF
:1032D000D105B1F7812FDF91CF911F910F91FF9011
:1032E000EF9008951F93CF93DF93FC011081C1816C
:1032F000D281912F909560FF12C0F8948A81892322
:103300008A838981812B89838AE090E00E94181347
:103310008A81812B8A83789487E390E011C0F894A6
:103320008A8189238A838981812B898381E490E042
:103330000E9418138A81812B8A83789485E090E01B
:103340000E941813DF91CF911F910895CF92DF92C1
:10335000EF92FF920F931F93CF93DF938C01E42E94
:10336000FF24F394C0E0D0E0C62EDD2460E08F2D72
:1033700090E08C219D21892B09F061E0C8010E9419
:103380007219FF0C2196C830D10581F7EE20A9F4FF
:10339000F894D8011196ED91FC91129791818C913E
:1033A0008095982391831196ED91FC9112979281CB
:1033B0008C918095982392837894DF91CF911F917F
:1033C0000F91FF90EF90DF90CF9008956CEC40E06C
:1033D0000E94A6190895EF92FF920F931F93CF9327
:1033E000DF938C017B0165E540E00E94A619C0E0F7
:1033F000D0E0F701EC0FFD1FC801608140E00E94A2
:10340000A6192196C830D105A1F7DF91CF911F9160
:103410000F91FF90EF900895DF92EF92FF920F933C
:103420001F93CF93DF93FC010081C181D281F89477
:103430008981D02ED0948D21898378941DE7E02E48
:10344000FF24115059F182E090E00E941813888106
:1034500090E08E219F21892BA1F3F8948A818D2100
:103460008A838981802B8983789484EF91E00E94FC
:103470001813F89489818D21898380E590E00E945A
:103480001813888110E090E0E822F922EF2809F46F
:1034900011E0789484EA91E00E941813812FDF9163
:1034A000CF911F910F91FF90EF90DF900895AF9211
:1034B000BF92DF92EF92FF920F931F93CF93DF9310
:1034C000EC015B018D85882309F061C0CE010E946B
:1034D0000C1A882329F41B861D861C8690E06BC07D
:1034E000CE0160EF40E00E94A619FF24F39401E0B2
:1034F000DD24EE24CE010E942119182FCE010E9456
:103500002119113019F48130E1F439C0181709F587
:103510008B85081770F460E0FE01EE0DF11D8381CC
:1035200090E02F2D30E082239323181619064CF0DB
:1035300003C060E0081729F0093008F04CC00C8780
:103540004AC0FE01EE0DF11D83818F29838361E066
:1035500009C0612FFE01EE0DF11D9F2D9095838115
:1035600089238383CE010E9472190F5FFF0C19F427
:10357000E394FF24F39487E08E1508F0BBCF013469
:1035800030F0DB86DD2011F581E08D871FC01B86C2
:103590001D861C8690E0DE0120E030E0F501E20FA0
:1035A000F31F13968C91139780832F5F3F4F1196D3
:1035B0002830310599F7892FDF91CF911F910F9115
:1035C000FF90EF90DF90BF90AF9008958B8188239C
:1035D000F1F291E0E0CFD02EBDCFFF920F931F9379
:1035E0008C01F62E862F60E00E945D138F2D90E0F7
:1035F000FC01EF59FC4FE491D801EC93835B9C4FA5
:10360000FC016491E62FF0E0EE0FFF1FED5BFC4F35
:103610008591949112969C938E9311971B961C9270
:103620001B971D961C921D971C961C92F80187E013
:1036300090E012863197009711F00197FACF1F9111
:103640000F91FF9008950F931F93CF93DF938C01F9
:10365000EB0180E06115710509F081E0F8018283DA
:10366000882341F00E948B122197C60FD71FF801C3
:10367000D183C083DF91CF911F910F910895EF9275
:10368000FF920F931F93CF93DF93EC017B018A810D
:10369000882311F400E00FC0088119810E948B1269
:1036A000C801861B970B2AEE8136920710F400E0C2
:1036B00006C0082F0195CE01B7010E94231B802F61
:1036C000DF91CF911F910F91FF90EF900895782F88
:1036D000E89865B121E030E040E050E000909C01C6
:1036E00004C0220F331F441F551F0A94D2F7322FF4
:1036F000822F8095862385B99EBD0DB407FEFDCF30
:103700004EB57EBD0DB407FEFDCF2EB5942F80E0E3
:1037100045B1342B35B9E89A30E0282B392BC90153
:1037200008950E94671B08958091C5039091C60378
:103730008F709093C6038093C5038091C5039091C9
:10374000C60388609093C6038093C5038091C50328
:103750009091C6030E94671B089580911C048730D6
:1037600009F059C090912004992399F080911F0489
:10377000891728F480911F04873408F44CC084E032
:1037800080931C0481E090E09093CD038093CC0360
:103790009AC08091D00320911F0490E0049630E0FD
:1037A0008217930724F080911F048734A0F184E0EE
:1037B00080931C048091D003833430F081E090E04A
:1037C0009093CD038093CC038091CF0386FF12C0EA
:1037D00080911B04282F30E0C9018F7190704F97A2
:1037E00049F08091CF0390E0822793278F719070EA
:1037F000892B89F48091CC039091CD03892B09F01A
:1038000056C0E0911904F0911A04309709F44FC0A2
:1038100080E0099558C080911C04843011F080E04C
:1038200008951092D0038091D00380931F048FEFEE
:103830009FEF9093CD038093CC0320911D0422230E
:10384000D9F08227282F22952827022E2695269503
:103850002025022E269520252770082E892F2695B3
:1038600007942795902D82270694279590258227E7
:103870009093CD038093CC0387E080931C0481E078
:103880008093CA0383EA94E90E94671B8091C50371
:103890009091C603886D9093C6038093C503809171
:1038A000C5039091C6030E94671B80E008958FEFC7
:1038B0009FEFAFEFBFEF8093150490931604A09392
:1038C0001704B093180481E008950F931F93082FF5
:1038D00010E0C801966C0E94671B98012F7730702A
:1038E0002F5F3F4F442737FD4095542F6BEF72E415
:1038F00085E090E00E944323CA01B901000F012F27
:10390000001F110B980143E0220F331F4A95E1F786
:10391000201B310B2F5F3F4F442737FD4095542F1D
:103920000E94432393E056954795379527959A959E
:10393000D1F72D573C4F4F4F5F4FCA01B90124E8D3
:1039400033E040E050E00E9443232093CB031F91DB
:103950000F91089580911C04843069F080911C04BB
:10396000873059F480911F04882339F40E94941BF6
:1039700084E080931C0481E0089580E00895982FEE
:1039800086FD05C0907E80911B048F71980F9093E7
:10399000CF03E0911904F0911A04309711F081E0FF
:1039A00009958FEF9FEF9093CD038093CC03809187
:1039B000CC039091CD0320911D048227282F2295BE
:1039C0002827022E269526952025022E269520258D
:1039D0002770082E892F269507942795902D8227EA
:1039E00006942795902582279093CD038093CC034E
:1039F00088E080931C048091C5039091C60388637E
:103A00009093C6038093C5038091C5039091C6032C
:103A10000E94671B0895DF92EF92FF920F931F930E
:103A20007B018C01DD2405C0D39416950795F7948E
:103A3000E7948FEFE816F1040105110509F0A0F7EE
:103A40008091C5039091C60381FF0FC08091C5038B
:103A50009091C6038D7F9093C6038093C503809198
:103A6000C5039091C6030E94671BE114F104010590
:103A70001105B9F0C701906E3D2D20E0822B932BEC
:103A80000E94671B8091C5039091C603826090934A
:103A9000C6038093C5038091C5039091C6030E941D
:103AA000671B1F910F91FF90EF90DF900895E898AA
:103AB00085B121E030E040E050E000909C0104C07E
:103AC000220F331F441F551F0A94D2F7322F922F13
:103AD0009095982395B91EBC0DB407FEFDCF6EB529
:103AE0001EBC0DB407FEFDCF2EB5962F80E0622FD1
:103AF00070E0682B792B77FF0FC080911C04873012
:103B000059F48CB581608CBD1EBC0DB407FEFDCF91
:103B10002EB58CB58E7F8CBD85B1382B35B9E89A22
:103B20007093C8036093C7038091C7039091C80343
:103B300097FFECC080911C04873009F082C080910F
:103B40001F04882371F490911D04992351F08091F2
:103B50001F04E82FF0E0E253FC4F90838F5F8093C7
:103B60001F0480911F04E82FF0E0E253FC4F2083F4
:103B70008F5F80931F048091CC039091CD038227A7
:103B8000282F22952827022E269526952025022EBD
:103B9000269520252770082E892F2695079427958E
:103BA000902D822706942795902582279093CD0308
:103BB0008093CC032091CA03233040F580911F04E9
:103BC00090E06091CB03029770E00E943023892B34
:103BD000E9F48091C7039091C803E22FF0E090FFD1
:103BE00004C0E551FE4F808104C0E551FE4F808145
:103BF00082958F708093CA03833040F490E0880FE1
:103C0000991F0196806A94690E94671B9091200415
:103C1000992329F080911F04891780F40AC08091AC
:103C2000D00320911F0490E0049630E082179307A0
:103C30002CF080911F04873408F468C00E94941B04
:103C400065C080911C0487FF2EC0E091D003809155
:103C50001C048F5F80931C048150ED5FE80FF0E03F
:103C6000E253FC4FE0818091CC039091CD038E27ED
:103C7000282F22952827022E269526952025022ECC
:103C8000269520252770082E892F2695079427959D
:103C9000902D822706942795902582279093CD0317
:103CA0008093CC032EC080911C048F5F80931C04F2
:103CB0008150833019F184302CF4882399F08130BD
:103CC000F9F416C08B3019F08C30D1F402C0EDE25B
:103CD00018C0E0911D049091D0038EEF891B809352
:103CE0001C040FC08091CC039091CD03E82F09C034
:103CF0008091CC039091CD03E92F03C00E94941BC7
:103D0000EAEA8E2F90E0986B0E94671B8091C703B0
:103D10009091C80396FF03C086E080931C048091B5
:103D2000C7039091C80394FF09C060E070E080E091
:103D300090E00E940B1D81E08093C9038091C7032E
:103D40009091C80395FF05C00E94941B84E0809366
:103D50001C0408951F93182F4093D00321ED33E0E6
:103D6000C90150E00E940C03812F0E94BF1C1F91CB
:103D7000089580911B0490E08F719070892B41F021
:103D800080E067E57DE140E050E00E944E2008952C
:103D900080E00E94712008951F9380931B0440933C
:103DA0001D0460931E040E94B91E10922004E8981E
:103DB00085E092E89093C6038093C5038091C50384
:103DC0009091C6030E94671B80911E0490E074E0EE
:103DD000880F991F7A95E1F7876C90680E94671B9E
:103DE00080E496EA0E94671B86E00E94651C82EAD6
:103DF00094E90E94671B8CEA92EC0E94671B109169
:103E00001D04112341F083E89AEC0E94671B812F67
:103E100090E09E6C06C08BE89AEC0E94671B8DE2D6
:103E20009EEC0E94671B83E894EC0E94671B80E570
:103E300098E90E94671B87E79CEC0E94671B80E063
:103E400090EE0E94671B80E098EC0E94671B89E45B
:103E500090EC0E94671B84E080931C04E89A1F91F9
:103E6000089525B181E090E0A0E0B0E000909C01D1
:103E700004C0880F991FAA1FBB1F0A94D2F7282BD2
:103E800025B924B1822B84B98AE061E00E949C1399
:103E90008AE061E00E945D138BE061E00E945D13A7
:103EA0008CE060E00E945D138DE061E00E945D1394
:103EB00080E58CBD8DB581608DBD82E060E00E94A3
:103EC0005D1382E061E00E949C130895FF920F93BE
:103ED0001F93182F062FF42E80931B0440931D046C
:103EE00060931E040E94311F0E94B91E82E89AEC62
:103EF0000E94671B80E09EEF0E94671B85E0809315
:103F00001C0483B7817F06C083B7816083BF889517
:103F100083B78E7F83BF80911C048530A9F3812FE6
:103F2000602F4F2D0E94CC1E80911B041F910F917A
:103F3000FF9008958091290408956093210470935F
:103F40002204809323049093240420919D013091B6
:103F50009E0140919F015091A001260F371F481FDD
:103F6000591F20932504309326044093270450932F
:103F7000280482E0809329040E948B1260932A0413
:103F800070932B0480932C0490932D0408950F9329
:103F90001F93CF93DF93BC018230910510F462E050
:103FA00070E0E0913204F0913304A0E0B0E040E032
:103FB00050E024C08081918186179707D0F0861742
:103FC000970771F482819381109729F013969C933F
:103FD0008E9312972CC0909333048093320427C0A1
:103FE0004115510519F08417950718F4EF018D015B
:103FF000AC01DF01828193819C01F9013097D1F6F8
:1040000041155105F9F0CA01861B970B84309105C3
:1040100080F48A819B810115110521F0F8019383B9
:10402000828304C09093330480933204FE0132965D
:104030002FC0FE01E80FF91F6193719302979983D6
:10404000888326C08DB79EB7885790402091A101E4
:104050003091A20128173907C8F4AC01421B530B59
:104060004617570798F0CB0102964817590770F08A
:10407000820F931F9093A2018093A1019093A401BA
:104080008093A301F9016193719302C0E0E0F0E035
:10409000CF01DF91CF911F910F910895823000F5EC
:1040A000E82FF0E0EE0FFF1FE25DFB4F71836083AE
:1040B000882319F08130A1F408C0809169008C7FB9
:1040C000842B80936900E89A089580916900440FD9
:1040D000551F440F551F837F842B80936900E99AF5
:1040E0000895823080F4882319F0813021F402C0D1
:1040F000E89801C0E998E82FF0E0EE0FFF1FE25DBD
:10410000FB4F1182108208951F920F920FB60F92EB
:1041100011242F933F934F935F936F937F938F93CC
:104120009F93AF93BF93EF93FF9380912E04909151
:104130002F04892B29F0E0912E04F0912F0409958A
:10414000FF91EF91BF91AF919F918F917F916F916F
:104150005F914F913F912F910F900FBE0F901F9045
:1041600018951F920F920FB60F9211242F933F9321
:104170004F935F936F937F938F939F93AF93BF936F
:10418000EF93FF938091300490913104892B29F0B3
:10419000E0913004F09131040995FF91EF91BF91C6
:1041A000AF919F918F917F916F915F914F913F91CF
:1041B0002F910F900FBE0F901F9018955058BB274E
:1041C000AA270ED075C166D130F06BD120F031F442
:1041D0009F3F11F41EF45BC10EF4E095E7FB51C163
:1041E000E92F77D180F3BA17620773078407950721
:1041F00018F071F49EF58FC10EF4E0950B2EBA2FD6
:10420000A02D0B01B90190010C01CA01A0011124DC
:10421000FF27591B99F0593F50F4503E68F11A1688
:10422000F040A22F232F342F4427585FF3CF469519
:1042300037952795A795F0405395C9F77EF41F163B
:10424000BA0B620B730B840BBAF09150A1F0FF0F05
:10425000BB1F661F771F881FC2F70EC0BA0F621FF1
:10426000731F841F48F4879577956795B795F795E1
:104270009E3F08F0B3CF9395880F08F09927EE0F73
:10428000979587950895D9D008F481E008950CD0CA
:104290000FC107D140F0FED030F021F45F3F19F09C
:1042A000F0C0511139C1F3C014D198F39923C9F367
:1042B0005523B1F3951B550BBB27AA27621773072C
:1042C000840738F09F5F5F4F220F331F441FAA1FE0
:1042D000A9F333D00E2E3AF0E0E830D091505040A0
:1042E000E695001CCAF729D0FE2F27D0660F771F4E
:1042F000881FBB1F261737074807AB07B0E809F030
:10430000BB0B802DBF01FF2793585F4F2AF09E3FC4
:10431000510568F0B6C000C15F3FECF3983EDCF396
:10432000869577956795B795F7959F5FC9F7880F3D
:10433000911D9695879597F90895E1E0660F771F8F
:10434000881FBB1F621773078407BA0720F0621B20
:10435000730B840BBA0BEE1F88F7E095089504D019
:104360006894B111D9C00895BCD088F09F5790F0DF
:10437000B92F9927B751A0F0D1F0660F771F881F8A
:10438000991F1AF0BA95C9F712C0B13081F0C3D0A5
:10439000B1E00895C0C0672F782F8827B85F39F043
:1043A000B93FCCF3869577956795B395D9F73EF4E9
:1043B00090958095709561957F4F8F4F9F4F089591
:1043C000E89409C097FB3EF49095809570956195AF
:1043D0007F4F8F4F9F4F9923A9F0F92F96E9BB2765
:1043E0009395F695879577956795B795F111F8CFE1
:1043F000FAF4BB0F11F460FF1BC06F5F7F4F8F4F4C
:104400009F4F16C0882311F096E911C0772321F041
:104410009EE8872F762F05C0662371F096E8862FD9
:1044200070E060E02AF09A95660F771F881FDAF730
:10443000880F9695879597F90895990F0008550F5D
:10444000AA0BE0E8FEEF16161706E807F907C0F01A
:1044500012161306E407F50798F0621B730B840B22
:10446000950B39F40A2661F0232B242B252B21F4FC
:1044700008950A2609F4A140A6958FEF811D811D9C
:10448000089597F99F6780E870E060E008959FEFD6
:1044900080EC089500240A941616170618060906DB
:1044A000089500240A9412161306140605060895AA
:1044B000092E0394000C11F4882352F0BB0F40F432
:1044C000BF2B11F460FF04C06F5F7F4F8F4F9F4F72
:1044D000089557FD9058440F551F59F05F3F71F0F4
:1044E0004795880F97FB991F61F09F3F79F087955B
:1044F0000895121613061406551FF2CF4695F1DFE4
:1045000008C0161617061806991FF1CF8695710573
:10451000610508940895E894BB2766277727CB01A7
:1045200097F908958ADF08F48FEF08950BD0C0CF74
:10453000B1DF28F0B6DF18F0952309F0A2CFA7CF9E
:104540001124EACFC6DFA0F3959FD1F3950F50E079
:10455000551F629FF001729FBB27F00DB11D639F35
:10456000AA27F00DB11DAA1F649F6627B00DA11DDB
:10457000661F829F2227B00DA11D621F739FB00D81
:10458000A11D621F839FA00D611D221F749F3327F1
:10459000A00D611D231F849F600D211D822F762F8A
:1045A0006A2F11249F5750408AF0E1F088234AF087
:1045B000EE0FFF1FBB1F661F771F881F91505040D3
:1045C000A9F79E3F510570F05CCFA6CF5F3FECF39B
:1045D000983EDCF3869577956795B795F795E795BF
:1045E0009F5FC1F7FE2B880F911D9695879597F9D0
:1045F000089523DF880B990B0895629FD001739F64
:10460000F001829FE00DF11D649FE00DF11D929F6E
:10461000F00D839FF00D749FF00D659FF00D9927AD
:10462000729FB00DE11DF91F639FB00DE11DF91FD1
:10463000BD01CF0111240895AA1BBB1B51E107C086
:10464000AA1FBB1FA617B70710F0A61BB70B881F22
:10465000991F5A95A9F780959095BC01CD010895B1
:1046600097FB092E07260AD077FD04D0E5DF06D098
:1046700000201AF4709561957F4F0895F6F7909594
:1046800081959F4F0895A1E21A2EAA1BBB1BFD0125
:104690000DC0AA1FBB1FEE1FFF1FA217B307E40721
:1046A000F50720F0A21BB30BE40BF50B661F771F79
:1046B000881F991F1A9469F7609570958095909559
:1046C0009B01AC01BD01CF010895EE0FFF1F0590C6
:1046D000F491E02D09942F923F924F925F926F9246
:1046E0007F928F929F92AF92BF92CF92DF92EF9282
:1046F000FF920F931F93CF93DF93CDB7DEB7CA1B03
:10470000DB0B0FB6F894DEBF0FBECDBF09942A882D
:10471000398848885F846E847D848C849B84AA84D5
:10472000B984C884DF80EE80FD800C811B81AA8162
:10473000B981CE0FD11D0FB6F894DEBF0FBECDBF2D
:08474000ED010895F894FFCF8C
:1047480054656D703A200046205B002E2E005D00F7
:1047580054696D65206E6F74207365740020004E77
:10476800657454696D6520636F6E666967757265F7
:1047780064003078002D3E00202023003A200020DD
:104788006E6F773A0046206D696E3A002C00200063
:104798004F57543A20666F756E642023004F575464
:1047A8003A206E65772023004F57543A20636F757F
:1047B8006E743D0020636F6E66696753697A653D64
:1047C800006E616E00696E66006F7666002E00915D
:1047D80002EE0100008C02E302000001022C01003D
:1047E800003404640000000000010710163206506F
:1047F800063406FCFF00004C063306000000009754
:1048080008B40700000000AC0AC00A00000000D984
:104818000B5A0B0700030001000000000000006BAA
:0E4828001510160115321512155B15340256C7
:00000001FF
