:100000000C9447010C94FA130C9427140C946F0170
:100010000C946F010C946F010C94A0020C946F016E
:100020000C946F010C946F010C946F010C946F0190
:100030000C946F010C946F010C946F010C946F0180
:100040000C944D090C946F010C94FB0A0C94490B11
:100050000C946F010C946F010C946F010C946F0160
:100060000C946F010C946F012A2A2A2A2A205255D7
:100070004E4E494E473A20676174656C65645F6E09
:100080006F64652E696E6F002A2A2A2A2A2053453A
:100090005455503A20676174656C65645F6E6F6497
:1000A000652E696E6F00206E6F7420666F756E64CA
:1000B00020696E20636F6E6669675F7265616400B8
:1000C000436F6E6669673A206D6F64756C652000DA
:1000D000206E6F7420666F756E6420696E20636F8A
:1000E0006E6669675F777269746500436F6E6669F3
:1000F000673A206D6F64756C652000202043524381
:10010000206D617463686573210020204352432091
:10011000646F6573206E6F74206D61746368210075
:1001200020627974657300206D61782900207673F0
:100130002E20007468206D6F64756C6520697320D3
:10014000746F6F206C61726765202800434F4E46C4
:1001500049473A207468652073697A65206F662084
:1001600074686520636F6E66696720666F722074BD
:100170006865200020636F6E666967732000436FB7
:100180006E6669673A20002074696D6500206574A9
:100190006800207266313200206C63640020736551
:1001A0007269616C00436F6E666967204C6F673AD5
:1001B00000202031396B6270730020206C6F772033
:1001C000545820706F7765720020757569643D30F2
:1001D00078002067726F75705F69643D00436F6ED1
:1001E000666967204E65743A206E6F64655F696466
:1001F0003D00436F6E6669673A20004E65743A2091
:100200007570646174696E67206E6F64655F6964A0
:1002100020746F20004E65743A2073656E64696EB9
:100220006720616E6E6F756E63656D656E7400003C
:10023000000000240027002A0000000000250028FC
:10024000002B000000000023002600290004040405
:10025000040404040402020202020203030303036F
:10026000030102040810204080010204081020014C
:10027000020408102000000007000201000003042F
:1002800006000000000000000000C701B50C1124AA
:100290001FBECFEFD8E0DEBFCDBF11E0A0E0B1E0E0
:1002A000E6EFF9E202C005900D92A034B107D9F74C
:1002B00013E0A0E4B1E001C01D92A834B107E1F75A
:1002C00012E0CEE8D2E004C02297FE010E94BE14E4
:1002D000CA38D107C9F70E940B0D0C94F9140C947D
:1002E0000000FB01DC0102C001900D924150504022
:1002F000D8F70895A0E0B0E0E0E8F1E00C94CC1469
:100300007C01EB018A01690109C0CE012196F60149
:100310000995F70181937F010150104001151105E6
:10032000A1F7CDB7DEB7E8E00C94E814A0E0B0E0A8
:10033000ECE9F1E00C94CC14EC017B018A01690139
:1003400009C0CE012196F70161917F01F60109955F
:100350000150104001151105A1F7CDB7DEB7E8E057
:100360000C94E814DF92EF92FF920F931F93D72E15
:100370007A018C01FA010995C80101966D2DF701EA
:1003800009951F910F91FF90EF90DF90089580E401
:1003900091E064ED41E00E9496068EED91E00E94AE
:1003A000BC0410922C0280910401909105010097E9
:1003B00019F480E090E001C00496909309018093C5
:1003C000080108950F931F9305EC12E0C80140E067
:1003D00051EE60E070E00E94840BC80168E870E0B4
:1003E0000E948F0D86E091E00E94720384E061E03C
:1003F0000E94670A84E061E00E94A60A64EF71E04F
:1004000080E090E00E94C90984E060E00E94A60AB2
:100410008EE061E00E94670A8EE060E00E94A60A1A
:100420008AE292E064E270E00E941E0F8091040173
:100430009091050168E670E00E948F0D1F910F9169
:1004400008950F931F93082FF89410E011C084E0D3
:1004500061E00E94A60A89E090E00E94220A84E0FE
:1004600060E00E94A60A8AE090E00E94220A1F5FD4
:10047000101768F378941F910F910895CF93DF932D
:100480008AE292E00E943A0F892B69F48AE292E0B4
:1004900064E270E00E94510F882309F443C08AE0AF
:1004A0000E9421023FC080E491E00E94A6088823B8
:1004B00029F080E090E060E00E94D9020E94BC1028
:1004C000882389F380E00E941D1161E070E080E0E4
:1004D00090E00E94301183B7817F83BF83B7816032
:1004E00083BFC0E0D0E014C08EE061E00E94A60AA5
:1004F00088952196CB30D10539F485EC92E060E007
:1005000071E00E94050F08C08EE060E00E94A60A1C
:100510000E94CF12882341F383B78E7F83BF8FEF72
:100520000E941D1180E491E00E94A608882329F012
:1005300080E090E060E00E94D902DF91CF910895C1
:100540001F920F920FB60F9211242F933F934F9348
:100550005F936F937F938F939F93AF93BF93EF932B
:10056000FF930E94180FFF91EF91BF91AF919F9160
:100570008F917F916F915F914F913F912F910F904C
:100580000FBE0F901F9018959C01F999FECF32BDB8
:1005900021BDF89A80B508959C01F999FECF1FBA44
:1005A00032BD21BD60BD0FB6F894FA9AF99A0FBE1C
:1005B0000895CF93DF93EC01462F009721F44091EB
:1005C000F302C4EFD2E04423F9F0388120912F02E6
:1005D000E0912D02F0912E0290E014C0A191B19112
:1005E00012968C911297831761F4ED91FC911197FB
:1005F000219641500280F381E02DCD01BE01099585
:1006000003C09F5F921750F3DF91CF9108951F931E
:10061000182F50912F02A0912D02B0912E0220E2AE
:1006200030E090E047C0ED91FD91828143818117D8
:1006300009F03DC0C90150E02CEC32E00E94960167
:100640004091300250913102FA01329720E030E0BF
:100650006FEF7FEF21C0F999FECF205E3F4F32BD93
:1006600021BDF89A80B56827862F82958627082EA7
:10067000869586958025082E869580258770062E7E
:10068000672F869507948795702D68270694879520
:10069000702568272F5130402E173F0708F4DBCF15
:1006A000CA014E964CEC52E00E94B20119C0240FD0
:1006B000311D9F5F951708F4B6CF85EC92E06BEE85
:1006C00070E00E94440D85EC92E0612F4AE050E01A
:1006D0000E94600E85EC92E060ED70E00E948F0D4C
:1006E0001F9108958F929F92AF92BF92DF92EF92E7
:1006F000FF920F931F93DF93CF93CDB7DEB7C05414
:10070000D0400FB6F894DEBF0FBECDBF5C0120E035
:10071000322F3F5FE22FF0E0EE0FFF1FEA0DFB1DCF
:1007200080819181892B11F0232FF2CF20932F020A
:10073000B0922E02A0922D0285EC92E06EE771E05D
:100740000E94440D85EC92E060912F024AE050E057
:100750000E94600E85EC92E064E771E00E94440D17
:100760001092310210923002EE244EC00E2D10E095
:10077000F801EE0FFF1FEA0DFB1D0190F081E02D47
:10078000F38080E48F15A8F585EC92E00E946F0D50
:1007900085EC92E06CE471E00E94440D0F5F1F4F06
:1007A00085EC92E0B8014AE050E00E94D00E85EC62
:1007B00092E063E371E00E94440D85EC92E06F2DBE
:1007C0004AE050E00E94600E85EC92E06DE271E03C
:1007D0000E94440D85EC92E060E470E04AE050E055
:1007E0000E94D00E85EC92E067E271E00E948F0DCE
:1007F0000AC080913002909131028F0D911D90932B
:10080000310280933002E39480912F02E81608F4BD
:10081000ADCF60913002709131026E5F7F4F709367
:1008200031026093300285EC92E04AE050E00E9491
:10083000320E85EC92E060E271E00E948F0D6091D3
:1008400030027091310220E030E04FEF5FEF21C0C5
:10085000F999FECF205E3F4F32BD21BDF89A80B599
:100860004827842F82958427082E86958695802593
:10087000082E869580258770042E452F869507942F
:100880008795502D482706948795502548272F5146
:1008900030402617370708F4DBCF452B01F185ECF4
:1008A00092E06AE071E00E948F0D10E013C0E12F2A
:1008B000F0E0EE0FFF1FEA0DFB1DA081B181ED916D
:1008C000FC9111970190F081E02DCD0160E070E086
:1008D00009951F5F80912F02181748F337C085ECE8
:1008E00092E06BEF70E00E948F0D90E2E92EF12C08
:1008F000DD244E010894811C911C24C00D2D10E0B4
:10090000000F111F0A0D1B1DD801ED91FC914381B1
:10091000C401B70150E024EC32E00E947A01F801F2
:10092000A081B181ED91FC9111970190F081E02DB2
:10093000CD01B4010995D801ED91FC918381E80EB8
:10094000F11CD39480912F02D816C0F2C05CDF4F07
:100950000FB6F894DEBF0FBECDBFCF91DF911F91D0
:100960000F91FF90EF90DF90BF90AF909F908F908E
:100970000895089508950895FC011382128282E17A
:1009800091E0918380830E9695838483E55BFF4F8E
:100990001082EB54F04082E0868381E0878380E020
:1009A00081608087089504970E94D7040895CF93AB
:1009B000DF93EC01FB01BC01685F7F4F309719F0BA
:1009C0008081888706C080E08560888782E00E94F9
:1009D000070385EC92E065EA71E00E94440D88858A
:1009E00080FF06C085EC92E06DE971E00E94440D45
:1009F000888581FF06C085EC92E068E971E00E947D
:100A0000440D888582FF06C085EC92E062E971E0C2
:100A10000E94440D888583FF06C085EC92E06DE856
:100A200071E00E94440D888584FF06C085EC92E049
:100A300067E871E00E94440D85EC92E00E946F0D22
:100A4000DF91CF9108950F931F93CF93DF93EC0124
:100A50008C01055B1F4FD8018C91FE01E80FF11D41
:100A60001186888580FF16C0BE01675F7F4F85ECC9
:100A700092E00E94020FF8018081882359F0FE0164
:100A8000E80FF11D80858A3029F485EC92E06DE055
:100A90000E94670D888582FF22C0809133028130D9
:100AA000F1F080E491E00E94AC050097C1F0FC01F8
:100AB00082E081938E01055B1F4FD8014C919E010E
:100AC000275F3F4FCF01B90150E00E947101F8014B
:100AD00060816F5F80E491E041E00E948908888531
:100AE00083FF0EC0E881F981BE01675F7F4FDE01A1
:100AF000A55BBF4F0480F581E02DCE014C91099597
:100B0000C55BDF4F1882DF91CF911F910F91089540
:100B10001F93CF93DF93EC01162FC55BDF4F8881C6
:100B2000CB54D040813418F0CE010E942305DE0161
:100B3000A55BBF4F8C91FE01E80FF11D11878F5F00
:100B40008C931A3019F4CE010E94230581E090E0C5
:100B5000DF91CF911F910895FC018091320288238B
:100B6000A1F0809133028E3181F0E457FF4F9081E4
:100B7000EC58F040923048F484E4989F900111249E
:100B80002A5F3F4F2E0F3F1F02C020E030E0C90117
:100B90000895EF92FF920F931F938C01609333029D
:100BA00085EC92E06DED71E00E94440D85EC92E0E1
:100BB000609133024AE050E00E94600E85EC92E0C2
:100BC00062ED71E00E94440D8AE9E82EF12CE00EFE
:100BD000F11E85EC92E0F70160814AE050E00E944E
:100BE000600E85EC92E069EC71E00E94440D0C56B9
:100BF0001F4FF8016081718185EC92E040E150E087
:100C00000E94430E8091330263E0F70140810E940D
:100C10009013095F1F4FF8018081882371F085ECE4
:100C200092E06AEB71E00E948F0D87E598E90E94DF
:100C3000A30F82EB94E90E94A30F85EC92E061EB95
:100C400071E00E948F0D81E196EC0E94A30F81EC70
:100C500094E90E94A30F80E298E90E94A30F83E029
:100C60000E94280985E060E00E94670A1F910F91A9
:100C7000FF90EF9008950F931F93DF93CF9300D0D1
:100C800000D0CDB7DEB78C01FB01443009F045C080
:100C90000C561F4F20813181D8018D919C910459B0
:100CA000104028173907C9F58381882319F081304E
:100CB00031F403C01092320202C08093320292815A
:100CC00080913302891749F182818093330285EC48
:100CD00092E06BEF71E00E94440D85EC92E0609130
:100CE00033024AE050E00E94720EC8016091330264
:100CF0000E94C905809133028983809132028A83E0
:100D00000C561F4FF801808191819C838B8381E079
:100D1000BE016F5F7F4F0E9407030F900F900F90EF
:100D20000F90CF91DF911F910F910895CF93DF9393
:100D3000EC0188E291E099838883C656DF4F69937E
:100D40004883CB59D0400E949509FE01EA56FF4FD7
:100D50006083718382839383611571058105910599
:100D600041F481E090E0A0E0B0E080839183A28331
:100D7000B38381E08A8384E08B83DF91CF910895F0
:100D80000F931F93DF93CF9300D00F92CDB7DEB7B1
:100D90008C010E94BC10882309F448C0FE013196E2
:100DA00083E0DF011D928A95E9F781E089830C5683
:100DB0001F4FD8018D919C91045910409B838A83C9
:100DC00080913302BF0143E00E94D4120E94950932
:100DD0009B01AC01809133028E3129F060E27EE408
:100DE00080E090E004C064EF71E080E090E0DC011E
:100DF000CB01820F931FA41FB51FF801EA56FF4FC6
:100E000080839183A283B3830097A105B10541F448
:100E100081E090E0A0E0B0E080839183A283B3837F
:100E200085EC92E065E172E00E948F0D0F900F90CB
:100E30000F90CF91DF911F910F910895CF92DF9284
:100E4000EF92FF920F931F93DF93CF93CDB7DEB74F
:100E50007C01CDB6DEB6FB018B016115710509F190
:100E600080818E31F1F085EC92E062EF71E00E94BA
:100E7000440D85EC92E0F80160814AE050E00E9468
:100E8000600E85EC92E062E071E00E94020FF801D2
:100E9000618185EC92E070E04AE050E00E94E30E50
:100EA00019C000D000D00DB71EB70F5F1F4F8EE1E5
:100EB000EDB7FEB78183F80111820E94A3092AEAE7
:100EC00035E526273727F8013383228381E0B801EF
:100ED0000E940703F801608160933302818180934F
:100EE000320284E990E0E80EF91E82819381F701D5
:100EF000918380838CE69FEFE80EF91EC7010E9464
:100F0000C905C7010E94C0060FB6F894DEBE0FBE29
:100F1000CDBECF91DF911F910F91FF90EF90DF90A9
:100F2000CF9008951F93CF93DF93EC01C457DF4F09
:100F30008881CC58D0408823E1F11C81C357DF4F12
:100F40008881CD58D04090E007970CF01F7DBE01FE
:100F50006A5F7F4F812F4D810E94D41215FD1BC007
:100F6000C457DF4F8881CC58D040823050F0DE012A
:100F70001496FE01E85BFF4F84E401900D928150CE
:100F8000E1F7FE01E457FF4F808181508083C35712
:100F9000DF4F18820EC0FE01E357FF4F80818F5F45
:100FA00080830E949509C257DF4F688379838A83C3
:100FB0009B83DF91CF911F910895EF92FF920F9342
:100FC0001F93CF93DF93EC0126E9E22EF12CE80E7C
:100FD000F91EF70180819181A281B3810097A1055B
:100FE000B10509F448C00E949509F70120813181BB
:100FF000428153816217730784079507E0F180915E
:1010000033028130C1F1CE010E94C00644C00E946B
:10101000BC108823C9F18E010D561F4FF701808146
:10102000B80141E00E94D412F7011082F801108249
:1010300032C0C357DF4F8881CD58D040882399F004
:101040000E949509C257DF4F288139814A815B810F
:10105000CE58D0402C593F4F4F4F5F4F6217730708
:1010600084079507C0F00E94BC108823A1F0CE0130
:101070000E94920710C092E9E92EF12CEC0EFD1EA1
:10108000F7018081882319F6C457DF4F8881CC5837
:10109000D040882371F6DF91CF911F910F91FF907F
:1010A000EF900895CF93DF93EC01DC01A457BF4F7D
:1010B0002C91223058F530E084E490E0289FF00134
:1010C000299FF00D389FF00D1124EC0FFD1F658353
:1010D0008C9190E0FC0164E0EE0FFF1F6A95E1F750
:1010E000E80FF91F3196EE0FFF1FEE0FFF1FEC0FF9
:1010F000FD1F40838C918F5F8C93813039F40E9467
:10110000BC10882319F0CE010E949207DF91CF9185
:1011100008959C01411140E280913302482BC9019E
:101120000E94520808950F931F938C0185E00E943E
:101130002B0903561F4F8C52914095958795959595
:101140008795F80180831F910F910895CF93DF93C6
:10115000EC010E94BF0F882309F473C08091EF0255
:101160009091F002892B09F068C08091F20287FD0E
:101170001DC0CE010E9493088091F20285FF13C02A
:101180009091F2029F7180913302981711F4892F88
:1011900002C0892F8064CE56DF4F806888832B96EB
:1011A00088812A9788838091F4024FC08091F2024F
:1011B00085FD47C0CE010E9493082091F20230E0E5
:1011C0002F7130708091330290E028173907C9F5EC
:1011D000C457DF4F8881CC58D040882391F1C35742
:1011E000DF4F8881CD58D040882359F18091F30298
:1011F000813011F080E002C08091F402C456DF4FCC
:10120000888360978881CC58D040823050F0DE01CE
:101210001496FE01E85BFF4F84E401900D9281502B
:10122000E1F7FE01E457FF4F808181508083C3576F
:10123000DF4F1882CD58D04004C08091EF029091CA
:10124000F002CE010E94DD0780E0DF91CF9108958A
:1012500080930C010895982F8E3008F09E5097705F
:1012600080910C018295880F880F807C892B809358
:101270007C0080917A00806480937A0080917A006B
:1012800086FDFCCF2091780040917900942F80E07A
:1012900030E0282B392BC90108951F920F920FB609
:1012A0000F9211242F933F938F939F93AF93BF93EC
:1012B0008091380290913902A0913A02B0913B029C
:1012C00030913C020196A11DB11D232F2D5F2D37BA
:1012D00020F02D570196A11DB11D20933C02809353
:1012E000380290933902A0933A02B0933B02809166
:1012F000340290913502A0913602B09137020196E6
:10130000A11DB11D8093340290933502A093360243
:10131000B0933702BF91AF919F918F913F912F91E1
:101320000F900FBE0F901F9018958FB7F8942091D3
:1013300038023091390240913A0250913B028FBFFE
:10134000B901CA0108959FB7F894209134023091F1
:101350003502409136025091370286B5A89B06C0EF
:101360008F3F21F02F5F3F4F4F4F5F4F9FBF542F55
:10137000432F322F2227280F311D411D511D82E09E
:10138000220F331F441F551F8A95D1F7B901CA0197
:1013900008959B01AC017FB7F8948091340290913D
:1013A0003502A0913602B091370266B5A89B05C000
:1013B0006F3F19F00196A11DB11D7FBFBA2FA92F54
:1013C000982F8827860F911DA11DB11D62E0880FFF
:1013D000991FAA1FBB1F6A95D1F7BC012DC0FFB78B
:1013E000F8948091340290913502A0913602B09128
:1013F0003702E6B5A89B05C0EF3F19F00196A11D85
:10140000B11DFFBFBA2FA92F982F88278E0F911DCE
:10141000A11DB11DE2E0880F991FAA1FBB1FEA950D
:10142000D1F7861B970B885E9340C8F2215030405D
:101430004040504068517C4F211531054105510510
:1014400071F60895019739F0880F991F880F991F39
:1014500002970197F1F70895789484B5826084BD6E
:1014600084B5816084BD85B5826085BD85B58160A8
:1014700085BDEEE6F0E0808181608083E1E8F0E008
:101480001082808182608083808181608083E0E837
:10149000F0E0808181608083E1EBF0E08081846016
:1014A0008083E0EBF0E0808181608083EAE7F0E018
:1014B000808184608083808182608083808181607C
:1014C00080838081806880831092C1000895CF93CB
:1014D000DF93482F50E0CA018F599D4FFC01349192
:1014E000435B5D4FFA018491882369F190E0880F96
:1014F000991FFC01E15DFD4FA591B491FC01E75CF2
:10150000FD4FC591D491662351F42FB7F8948C9177
:10151000932F909589238C93888189230BC0623007
:1015200061F42FB7F8948C91932F909589238C9325
:101530008881832B88832FBF06C09FB7F8948C9136
:10154000832B8C939FBFDF91CF910895482F50E05C
:10155000CA018B589D4FFC012491CA018F599D4FA0
:10156000FC019491435B5D4FFA013491332309F4FC
:1015700040C0222351F1233071F0243028F421306F
:10158000A1F0223011F514C02630B1F02730C1F09F
:101590002430D9F404C0809180008F7703C08091FB
:1015A00080008F7D8093800010C084B58F7702C04B
:1015B00084B58F7D84BD09C08091B0008F7703C052
:1015C0008091B0008F7D8093B000E32FF0E0EE0FAC
:1015D000FF1FE75CFD4FA591B4912FB7F8946623E8
:1015E00021F48C919095892302C08C91892B8C9346
:1015F0002FBF089508951F920F920FB60F921124D6
:101600002F933F934F938F939F93EF93FF938091EB
:10161000C00082FD1DC04091C60020917D02309126
:101620007E022F5F3F4F2F73307080917F02909129
:1016300080022817390771F0E0917D02F0917E0257
:10164000E35CFD4F408330937E0220937D0202C015
:101650008091C600FF91EF919F918F914F913F91A3
:101660002F910F900FBE0F901F901895E091D1020F
:10167000F091D202E05CFF4F819191912081318104
:10168000821B930B8F739070892B11F00E94FA0AC2
:1016900008951F920F920FB60F9211242F933F932C
:1016A0008F939F93EF93FF932091C1023091C202D9
:1016B0008091C3029091C4022817390731F48091B8
:1016C000C1008F7D8093C10014C0E091C302F091EE
:1016D000C402EF57FD4F20818091C3029091C40254
:1016E00001968F7390709093C4028093C3022093ED
:1016F000C600FF91EF919F918F913F912F910F9095
:101700000FBE0F901F901895AF92BF92DF92EF928D
:10171000FF920F931F93CF93DF93EC017A018B011C
:10172000DD24403081EE580780E0680780E07807CC
:1017300011F0DD24D39491E0A92EB12CEC89FD8920
:10174000DD2069F0C50108A002C0880F991F0A9426
:10175000E2F7808360E079E08DE390E005C01082DD
:1017600060E874E88EE190E0A80197010E949A1465
:101770002150304040405040569547953795279529
:1017800080E12030380720F0DD2011F0DD24D6CFB5
:10179000E889F9893083EA89FB89208319A2EE89D7
:1017A000FF89408121E030E0C9010C8C02C0880F24
:1017B000991F0A94E2F7482B4083EE89FF89408104
:1017C000C9010D8C02C0880F991F0A94E2F7482BBB
:1017D0004083EE89FF894081C9010E8C02C0880FC9
:1017E000991F0A94E2F7482B4083EE89FF89808194
:1017F0000F8C02C0220F331F0A94E2F72095282392
:101800002083DF91CF911F910F91FF90EF90DF9098
:10181000BF90AF900895DC011C96ED91FC911D974F
:10182000E05CFF4F2191319180819181281B390B20
:101830002F733070C9010895DC011C96ED91FC9165
:101840001D97E05CFF4F20813181E054F040DF01C3
:10185000AE5BBF4F8D919C9111972817390719F4F2
:101860002FEF3FEF07C08D919C91E80FF91F80810A
:10187000282F30E0C9010895DC011C96ED91FC9100
:101880001D97E05CFF4F20813181E054F040DF0183
:10189000AE5BBF4F8D919C9111972817390719F4B2
:1018A0002FEF3FEF10C08D919C911197E80FF91F1A
:1018B00020818D919C91119701968F739070119654
:1018C0009C938E9330E0C9010895DC0191968C9130
:1018D0009197882339F05496ED91FC91559780812A
:1018E00086FFF9CF91961C920895CF93DF93EC0178
:1018F000EE85FF85E05CFF4F20813181E054F040B0
:101900002F5F3F4F2F733070DF01AE5BBF4F8D9164
:101910009C91119728173907D1F3E05CFF4F808124
:101920009181E054F040E80FF91F6083EE85FF8558
:10193000E05CFF4F31832083EE89FF89208181E0C5
:1019400090E00F8C02C0880F991F0A94E2F7282BB1
:10195000208381E089A3EC89FD8980818064808374
:1019600081E090E0DF91CF9108951092C80210922B
:10197000C70288EE93E0A0E0B0E08093C9029093A4
:10198000CA02A093CB02B093CC0280E391E0909383
:10199000C6028093C5028DE392E09093D2028093B9
:1019A000D10281E892E09093D4028093D30285EC37
:1019B00090E09093D6028093D50284EC90E09093CF
:1019C000D8028093D70280EC90E09093DA02809363
:1019D000D90281EC90E09093DC028093DB0282ECF0
:1019E00090E09093DE028093DD0286EC90E090938D
:1019F000E0028093DF0284E08093E10283E0809341
:101A0000E20287E08093E30285E08093E40281E0D4
:101A10008093E5020895CF93DF930E942C0A0E94E1
:101A2000E201C6E3DBE00E943E022097E1F30E9460
:101A3000360BF9CFCF92DF92EF92FF920F931F9365
:101A4000CF93DF937C016B018A01C0E0D0E00FC02F
:101A5000D6016D916D01D701ED91FC910190F0815E
:101A6000E02DC7010995C80FD91F0150104001157D
:101A7000110571F7CE01DF91CF911F910F91FF906A
:101A8000EF90DF90CF900895EF92FF920F931F9306
:101A9000CF93DF937C018B01C0E0D0E0F8010F5FB2
:101AA0001F4F6491662359F0D701ED91FC9101908D
:101AB000F081E02DC7010995C80FD91FEFCFCE01E6
:101AC000DF91CF911F910F91FF90EF900895DC016E
:101AD000ED91FC910190F081E02D09950895EF9230
:101AE000FF920F931F938C01DC01ED91FC9101900B
:101AF000F081E02D6DE009957C01D801ED91FC911C
:101B00000190F081E02DC8016AE009959C012E0D3D
:101B10003F1DC9011F910F91FF90EF900895EF9223
:101B2000FF920F931F937C010E94440D8C01C7010B
:101B30000E946F0D9C01200F311FC9011F910F9151
:101B4000FF90EF900895CF93DF93EC01611571053D
:101B500019F420E030E00FC0DB010D900020E9F720
:101B60001197A61BB70BE881F9810280F381E02D64
:101B7000AD0109959C01C901DF91CF9108954F9264
:101B80005F927F928F929F92AF92BF92CF92DF929D
:101B9000EF92FF920F931F93DF93CF93CDB7DEB7F2
:101BA000A1970FB6F894DEBF0FBECDBF2C01742EE7
:101BB000CB01223008F42AE019A231E2C32ED12C45
:101BC000CC0EDD1E822E9924AA24BB24672D752FEE
:101BD000A50194010E949A1479018A01C801B701F4
:101BE000A50194010E945414472D461B0894C10876
:101BF000D1084A3010F4405D01C0495CF6014083D1
:101C0000E114F1040105110521F07E2C5F2DC801BE
:101C1000DDCFC201B6010E94A30DA1960FB6F894C4
:101C2000DEBF0FBECDBFCF91DF911F910F91FF900F
:101C3000EF90DF90CF90BF90AF909F908F907F906C
:101C40005F904F900895DC012115310541F4ED912D
:101C5000FC910190F081E02D642F099508950E9478
:101C6000BF0D0895EF92FF920F931F939A017B018E
:101C700000E010E0B801A7010E94230E1F910F9110
:101C8000FF90EF900895CF92DF92EF92FF920F9323
:101C90001F936C017B019A0100E010E0B801A701DD
:101CA0000E94230E8C01C6010E946F0D080F191FA0
:101CB000C8011F910F91FF90EF90DF90CF90089592
:101CC000EF92FF920F931F939A01E62EFF2400E0FC
:101CD00010E0B801A7010E94230E1F910F91FF9001
:101CE000EF900895CF92DF92EF92FF920F931F93A0
:101CF0006C01E62E9A01FF2400E010E0B801A70174
:101D00000E94230E8C01C6010E946F0D080F191F3F
:101D1000C8011F910F91FF90EF90DF90CF90089531
:101D2000CF92DF92EF92FF920F931F93CF93DF93A7
:101D3000EC016A017B012115310541F4E881F9814B
:101D40000190F081E02D642F09951FC02A303105E4
:101D5000D1F477FF17C0E881F9810190F081E02D7F
:101D60006DE209958C0144275527BA014C195D098C
:101D70006E097F09CE012AE00E94BF0D9801280F4D
:101D8000391F04C02AE00E94BF0D9C01C901DF91E8
:101D9000CF911F910F91FF90EF90DF90CF9008951A
:101DA000EF92FF920F931F937B019A010027F7FC9C
:101DB0000095102FB801A7010E94900E1F910F915E
:101DC000FF90EF900895CF92DF92EF92FF920F93E2
:101DD0001F936C017B019A010027F7FC0095102FDF
:101DE000B801A7010E94900E8C01C6010E946F0DE0
:101DF000080F191FC8011F910F91FF90EF90DF90FE
:101E0000CF9008950E94A30D0895EF92FF920F9333
:101E10001F937C010E94A30D8C01C7010E946F0DCE
:101E2000080F191FC8011F910F91FF90EF9008959F
:101E30008091E7028F5F8093E70208950F931F93CD
:101E4000CF93DF938C01EB0180E06115710509F000
:101E500081E0F8018283882341F00E94950921974F
:101E6000C60FD71FF801D183C083DF91CF911F9197
:101E70000F9108950F931F93FC018281882359F0DD
:101E8000008111810E9495099801261B370B8AEE6B
:101E90002136380710F020E030E0C9011F910F9182
:101EA0000895EF92FF920F931F93CF93DF93EC016E
:101EB0007B018A81882311F400E00FC00881198119
:101EC0000E949509C801861B970B2AEE813692075E
:101ED00010F400E006C0082F0195CE01B7010E9462
:101EE0001E0F802FDF91CF911F910F91FF90EF90E8
:101EF0000895782FE89865B121E030E040E050E0A7
:101F000000900D0104C0220F331F441F551F0A9477
:101F1000D2F7322F822F8095862385B99EBD0DB4CE
:101F200007FEFDCF4EB57EBD0DB407FEFDCF2EB52D
:101F3000942F80E045B1342B35B9E89A30E0282B56
:101F4000392BC90108950E94790F08958091E80204
:101F50009091E9028F709093E9028093E80280915A
:101F6000E8029091E90288609093E9028093E80288
:101F70008091E8029091E9020E94790F0895809182
:101F80003F03873009F059C090914303992399F09A
:101F900080914203891728F480914203873408F422
:101FA0004CC084E080933F0381E090E09093F00286
:101FB0008093EF029AC08091F3022091420390E057
:101FC000049630E08217930724F08091420387340F
:101FD000A0F184E080933F038091F302833430F0DA
:101FE00081E090E09093F0028093EF028091F20202
:101FF00086FF12C080913E03282F30E0C9018F7107
:1020000090704F9749F08091F20290E082279327D9
:102010008F719070892B89F48091EF029091F0027A
:10202000892B09F056C0E0913C03F0913D033097B5
:1020300009F44FC080E0099558C080913F03843077
:1020400011F080E008951092F3028091F3028093E2
:1020500042038FEF9FEF9093F0028093EF02209165
:1020600040032223D9F08227282F22952827022EE9
:10207000269526952025022E269520252770082EA8
:10208000892F269507942795902D822706942795CA
:10209000902582279093F0028093EF0287E080934F
:1020A0003F0381E08093ED0283EA94E90E94790F77
:1020B0008091E8029091E902886D9093E902809303
:1020C000E8028091E8029091E9020E94790F80E095
:1020D00008958FEF9FEFAFEFBFEF8093380390939A
:1020E0003903A0933A03B0933B0381E008950F9323
:1020F0001F93082F10E0C801966C0E94790F980179
:102100002F7730702F5F3F4F442737FD4095542F76
:102110006BEF72E485E090E00E949A14CA01B90165
:10212000000F012F001F110B980143E0220F331FF6
:102130004A95E1F7201B310B2F5F3F4F442737FDB6
:102140004095542F0E949A1493E0569547953795E1
:1021500027959A95D1F72D573C4F4F4F5F4FCA01A6
:10216000B90124E833E040E050E00E949A14209343
:10217000EE021F910F91089580913F03843069F022
:1021800080913F03873059F480914203882339F4CA
:102190000E94A60F84E080933F0381E0089580E0D1
:1021A0000895982F86FD05C0907E80913E038F7123
:1021B000980F9093F202E0913C03F0913D03309729
:1021C00011F081E009958FEF9FEF9093F0028093DB
:1021D000EF028091EF029091F0022091400382275C
:1021E000282F22952827022E269526952025022E77
:1021F000269520252770082E892F26950794279548
:10220000902D822706942795902582279093F0029F
:102210008093EF0288E080933F038091E8029091E1
:10222000E90288639093E9028093E8028091E802D2
:102230009091E9020E94790F08958091E8029091AF
:10224000E90287709093E9028093E8028091E802A6
:102250009091E9020E94790F84E080933F030895F2
:10226000DF92EF92FF920F931F937B018C01DD248D
:1022700005C0D39416950795F794E7948FEFE81669
:10228000F1040105110509F0A0F78091E802909191
:10229000E90281FF0FC08091E8029091E9028D7FF1
:1022A0009093E9028093E8028091E8029091E9021C
:1022B0000E94790FE114F10401051105B9F0C7017D
:1022C000906E3D2D20E0822B932B0E94790F809100
:1022D000E8029091E90282609093E9028093E8021B
:1022E0008091E8029091E9020E94790F1F910F916D
:1022F000FF90EF90DF900895E89885B121E030E0FD
:1023000040E050E000900D0104C0220F331F441F35
:10231000551F0A94D2F7322F922F9095982395B992
:102320001EBC0DB407FEFDCF6EB51EBC0DB407FE7E
:10233000FDCF2EB5962F80E0622F70E0682B792BB1
:1023400077FF0FC080913F03873059F48CB58160CF
:102350008CBD1EBC0DB407FEFDCF2EB58CB58E7F97
:102360008CBD85B1382B35B9E89A7093EB02609338
:10237000EA028091EA029091EB0297FFECC0809113
:102380003F03873009F082C080914203882371F4B3
:1023900090914003992351F080914203E82FF0E09F
:1023A000EF50FD4F90838F5F8093420380914203F3
:1023B000E82FF0E0EF50FD4F20838F5F80934203C2
:1023C0008091EF029091F0028227282F22952827F2
:1023D000022E269526952025022E2695202527704B
:1023E000082E892F269507942795902D82270694ED
:1023F0002795902582279093F0028093EF022091F9
:10240000ED02233040F58091420390E06091EE02AE
:10241000029770E00E948714892BE9F48091EA0208
:102420009091EB02E22FF0E090FF04C0E45CFE4FDD
:10243000808104C0E45CFE4F808182958F70809320
:10244000ED02833040F490E0880F991F0196806A76
:1024500094690E94790F90914303992329F0809108
:102460004203891780F40AC08091F302209142034D
:1024700090E0049630E0821793072CF0809142039D
:10248000873408F468C00E94A60F65C080913F039E
:1024900087FF2EC0E091F30280913F038F5F80930E
:1024A0003F038150ED5FE80FF0E0EF50FD4FE0811A
:1024B0008091EF029091F0028E27282F22952827F5
:1024C000022E269526952025022E2695202527705A
:1024D000082E892F269507942795902D82270694FC
:1024E0002795902582279093F0028093EF022EC0CB
:1024F00080913F038F5F80933F038150833019F1B8
:1025000084302CF4882399F08130F9F416C08B3094
:1025100019F08C30D1F402C0EDE218C0E091400314
:102520009091F3028EEF891B80933F030FC080913F
:10253000EF029091F002E82F09C08091EF02909194
:10254000F002E92F03C00E94A60FEAEA8E2F90E066
:10255000986B0E94790F8091EA029091EB0296FFAE
:1025600003C086E080933F038091EA029091EB02E2
:1025700094FF09C060E070E080E090E00E943011BC
:1025800081E08093EC028091EA029091EB0295FF4A
:1025900005C00E94A60F84E080933F0308958091B8
:1025A000EC021092EC0208951F93182F4093F3024F
:1025B00024EF32E0C90150E00E947101812F0E9496
:1025C000D1101F91089580913E0390E08F7190701B
:1025D000892B41F080E06CE771E140E050E00E941F
:1025E000C413089580E00E94E71308951F93809319
:1025F0003E0340934003609341030E94E312109214
:102600004303E89885E092E89093E9028093E8021A
:102610008091E8029091E9020E94790F8091410334
:1026200090E074E0880F991F7A95E1F7876C9068C5
:102630000E94790F80E496EA0E94790F86E00E945A
:10264000771082EA94E90E94790F8CEA92EC0E945A
:10265000790F10914003112341F083E89AEC0E9416
:10266000790F812F90E09E6C06C08BE89AEC0E9457
:10267000790F8DE29EEC0E94790F83E894EC0E9422
:10268000790F80E598E90E94790F87E79CEC0E941A
:10269000790F80E090EE0E94790F80E098EC0E9424
:1026A000790F89E490EC0E94790F84E080933F03D6
:1026B000E89A1F91089525B181E090E0A0E0B0E094
:1026C00000900D0104C0880F991FAA1FBB1F0A9418
:1026D000D2F7282B25B924B1822B84B98AE061E096
:1026E0000E94A60A8AE061E00E94670A8BE061E02E
:1026F0000E94670A8CE060E00E94670A8DE061E05A
:102700000E94670A80E58CBD8DB581608DBD82E039
:1027100060E00E94670A82E061E00E94A60A0895D4
:10272000FF920F931F93182F062FF42E80933E03D2
:1027300040934003609341030E945B130E94E312A5
:1027400082E89AEC0E94790F80E09EEF0E94790F58
:1027500085E080933F0383B7817F06C083B78160A4
:1027600083BF889583B78E7F83BF80913F03853079
:10277000A9F3812F602F4F2D0E94F61280913E0306
:102780001F910F91FF900895823000F5E82FF0E03F
:10279000EE0FFF1FEC5BFC4F71836083882319F001
:1027A0008130A1F408C0809169008C7F842B8093D4
:1027B0006900E89A089580916900440F551F440FFD
:1027C000551F837F842B80936900E99A0895823096
:1027D00080F4882319F0813021F402C0E89801C008
:1027E000E998E82FF0E0EE0FFF1FEC5BFC4F118241
:1027F000108208951F920F920FB60F9211242F93FB
:102800003F934F935F936F937F938F939F93AF9378
:10281000BF93EF93FF938091440390914503892BDD
:1028200029F0E0914403F09145030995FF91EF9160
:10283000BF91AF919F918F917F916F915F914F91D8
:102840003F912F910F900FBE0F901F9018951F92E0
:102850000F920FB60F9211242F933F934F935F93D4
:102860006F937F938F939F93AF93BF93EF93FF9358
:102870008091460390914703892B29F0E09146030C
:10288000F09147030995FF91EF91BF91AF919F910F
:102890008F917F916F915F914F913F912F910F9009
:1028A0000FBE0F901F901895629FD001739FF0018B
:1028B000829FE00DF11D649FE00DF11D929FF00DD0
:1028C000839FF00D749FF00D659FF00D9927729F07
:1028D000B00DE11DF91F639FB00DE11DF91FBD0192
:1028E000CF0111240895AA1BBB1B51E107C0AA1FE9
:1028F000BB1FA617B70710F0A61BB70B881F991FA1
:102900005A95A9F780959095BC01CD01089597FB44
:10291000092E07260AD077FD04D0E5DF06D0002077
:102920001AF4709561957F4F0895F6F7909581950B
:102930009F4F0895A1E21A2EAA1BBB1BFD010DC0DB
:10294000AA1FBB1FEE1FFF1FA217B307E407F5075F
:1029500020F0A21BB30BE40BF50B661F771F881F3B
:10296000991F1A9469F760957095809590959B01D1
:10297000AC01BD01CF010895EE0FFF1F0590F4914A
:10298000E02D09942F923F924F925F926F927F9227
:102990008F929F92AF92BF92CF92DF92EF92FF926F
:1029A0000F931F93CF93DF93CDB7DEB7CA1BDB0B1B
:1029B0000FB6F894DEBF0FBECDBF09942A883988C0
:1029C00048885F846E847D848C849B84AA84B984C7
:1029D000C884DF80EE80FD800C811B81AA81B981D3
:1029E000CE0FD11D0FB6F894DEBF0FBECDBFED01E7
:0629F0000895F894FFCFEA
:1029F6003F002000DE01400100000000010200004F
:102A0600000088051A0DB904D704BB04FCFF0000BA
:102A1600D304BA04000000001E073B0600000000B5
:102A2600750C1A0D0B0C3C0C1C0C650C3402560074
:00000001FF
