:100000000C94C9010C9441220C946E220C94F101C1
:100010000C94F1010C94F1010C94F1010C94F10198
:100020000C94F1010C94F1010C94F1010C94F10188
:100030000C94F1010C94F1010C94F1010C94F10178
:100040000C94590D0C94F1010C94FD0E0C944B0F73
:100050000C94F1010C94F1010C94F1010C94F10158
:100060000C94F1010C94F10149503A20002A2A2AFB
:100070002A2A2052554E4E494E473A206574685FF1
:100080006E6F64652E696E6F004661696C656420F1
:10009000746F206163636573732045746865726E65
:1000A000657420636F6E74726F6C6C6572002A2ABF
:1000B0002A2A2A2053455455503A206574685F6EA9
:1000C0006F64652E696E6F004554483A206C656E0A
:1000D000677468206D69736D6174636820756470FE
:1000E0003A00206E6F7420666F756E6420696E2012
:1000F000636F6E6669675F7265616400436F6E6609
:1001000069673A206D6F64756C652000206E6F74AE
:1001100020666F756E6420696E20636F6E66696716
:100120005F777269746500436F6E6669673A206D28
:100130006F64756C6520002020435243206D61740C
:10014000636865732100202043524320646F657308
:10015000206E6F74206D6174636821002062797471
:10016000657300206D617829002076732E2000745D
:1001700068206D6F64756C6520697320746F6F20E3
:100180006C61726765202800434F4E4649473A200C
:100190007468652073697A65206F662074686520CD
:1001A000636F6E66696720666F72207468652000F1
:1001B00020636F6E666967732000436F6E666967C0
:1001C0003A20002074696D65002065746800207213
:1001D00066313200206C6364002073657269616C63
:1001E00000436F6E666967204C6F673A00202031CC
:1001F000396B6270730020206C6F77205458207028
:100200006F7765720020757569643D3078002067EE
:10021000726F75705F69643D00436F6E6669672039
:100220004E65743A206E6F64655F69643D00436F8C
:100230006E6669673A20004E65743A207570646195
:1002400074696E67206E6F64655F696420746F20E7
:10025000004E65743A2073656E64696E6720616E46
:100260006E6F756E63656D656E740000000000242E
:100270000027002A0000000000250028002B0000B5
:1002800000000023002600290004040404040404E0
:100290000402020202020203030303030301020435
:1002A00008102040800102040810200102040810F8
:1002B0002000000007000201000003040600000007
:1002C00000000000000001080006040001450000D5
:1002D000820000400020504F5354202446204854B0
:1002E00054502F312E300D0A486F73743A20244633
:1002F0000D0A244624534163636570743A202A2F03
:100300002A0D0A436F6E74656E742D4C656E6774AA
:10031000683A2024440D0A436F6E74656E742D5440
:100320007970653A206170706C69636174696F6E91
:100330002F782D7777772D666F726D2D75726C65BE
:100340006E636F6465640D0A0D0A245300474554BB
:10035000202446245320485454502F312E300D0A67
:10036000486F73743A2024460D0A24460D0A0D0A7C
:10037000004163636570743A20746578742F687403
:100380006D6C00E30004FA0001000000010091021E
:10039000B71011241FBECFEFD8E0DEBFCDBF11E0F4
:1003A000A0E0B1E0ECE0FBE402C005900D92AE3EAF
:1003B000B107D9F716E0AEEEB1E001C01D92AA3B3D
:1003C000B107E1F713E0C2E9D3E004C02297FE01D0
:1003D0000E944925CE38D107C9F70E940D110C940F
:1003E00084250C940000FB01DC0102C005900D92F5
:1003F00041505040D8F70895FB01DC0104C08D91B5
:100400000190801921F441505040C8F7881B990B86
:100410000895FB01DC0102C001900D924150504053
:10042000D8F70895A0E0B0E0E8E1F2E00C94572599
:100430007C01EB018A01690109C0CE012196F60118
:100440000995F70181937F010150104001151105B5
:10045000A1F7CDB7DEB7E8E00C947325A0E0B0E0DB
:10046000E4E3F2E00C945725EC017B018A01690179
:1004700009C0CE012196F70161917F01F60109952E
:100480000150104001151105A1F7CDB7DEB7E8E026
:100490000C947325DF92EF92FF920F931F93D72E48
:1004A0007A018C01FA010995C80101966D2DF701B9
:1004B00009951F910F91FF90EF90DF900895282FDD
:1004C000442321F080911302841749F5809114028E
:1004D000882329F580911502883309F5809111024E
:1004E0008B37E9F4E22FF92F8091400283838091CA
:1004F0004102828380914202818380914302808302
:10050000FB01809144028383809145028283809124
:100510004602818380914702808381E0089580E0D4
:10052000089582EE93E064ED40E00E94760A109216
:10053000CE041092D1041092D4041092D70482E019
:100540008093D80480E894E00E949C0882E991E0BE
:1005500090938104809380040E96909385048093F9
:1005600084040895EF92FF920F931F93F62EE72EC7
:10057000042F8FE097E260E571E04FE057E20E94C0
:10058000961684ED809318028091F70480931902E7
:1005900000931A0282E080931B022CE132E0C90131
:1005A0006F2D7E2D402F50E00E94090210E0C801FF
:1005B00004960E940E188091D9049091DA04A091BB
:1005C000DB04B091DC040196A11DB11D8093D90418
:1005D0009093DA04A093DB04B093DC041F910F9195
:1005E000FF90EF9008950F931F93DF93CF93CDB7B4
:1005F000DEB728970FB6F894DEBF0FBECDBF89E8EF
:1006000095E040E051EE60E070E00E94860F89E8DE
:1006100095E06EEA70E00E9491118091D8048823E1
:1006200011F483E101C0835F61E00E94690E809153
:10063000D804882311F483E101C0835F60E00E9445
:10064000A80E8091D804882311F482E101C08D5F47
:1006500061E00E94690E8091D804882311F482E140
:1006600001C08D5F60E00E94A80E8FE591E00E94BE
:1006700052078091F704813029F082EE93E061E027
:100680000E94A90981E08093F60489E895E060E082
:1006900071E00E94041300E010E0F801EB59FE4FF6
:1006A00089E895E0608140E150E00E9462120530E7
:1006B00029F089E895E06AE30E9469110F5F1F4FF6
:1006C0000630110551F789E895E00E9471110CC0C0
:1006D00089E895E069E870E00E94911168EE73E0A6
:1006E00080E090E00E94D50D84EF91E065E671E036
:1006F00048E00E94A515882359F320EC298398EA45
:100700009A831B8280E48C832D839E831F8283E0E7
:100710008887AE014B5F5F4FCE010196BA010E9400
:1007200082158CEC94E06CE474E00E94CB1B8FEC9F
:1007300094E068EE73E00E94CB1B89E895E06DE6DB
:1007400070E00E9491118091D804882311F483E114
:1007500001C0835F60E00E94690E28960FB6F8948E
:10076000DEBF0FBECDBFCF91DF911F910F910895D6
:100770000F931F93CF93DF93009115028091130283
:100780008F3009F07EC080911202873209F079C063
:1007900080911402882309F074C0102F1850133070
:1007A00008F46FC0163408F06CC0212F30E080913F
:1007B0001A02C82FD0E0CE0103962817390761F13D
:1007C00080914E0190914F0168EC70E00E944611BB
:1007D00080914E0190914F01612F4AE050E00E94BC
:1007E000621280914E0190914F0166E071E00E948B
:1007F000041380914E0190914F0160911A024AE0DA
:1008000050E00E94621280914E0190914F0168E089
:1008100071E00E94071333C080911902813439F4CA
:100820000B508BE192E0602F0E94B90628C082EE47
:1008300093E00E948C09009711F12BE132E0B9019D
:100840004C2F50E00E9409020B5082EE93E0602F83
:10085000409119020E945E0C8091ED049091EE048B
:10086000A091EF04B091F0040196A11DB11D8093F9
:10087000ED049093EE04A093EF04B093F00481E0B4
:1008800001C080E0DF91CF911F910F910895BF9239
:10089000CF92DF92EF92FF920F931F93DF93CF934C
:1008A00000D000D00F92CDB7DEB70E94B0138823DE
:1008B00009F426C20E946716882309F021C28CEC35
:1008C00094E068E873E10E94CB1B882309F423C2FB
:1008D00084E591E06BE70E943D181DC289E895E030
:1008E0006BE071E00E9404130E94B013882319F496
:1008F00065E171E002C06AE171E089E895E00E947B
:10090000041389E895E06DE171E00E9404130E94F0
:100910006716882319F462E271E002C065E271E0B3
:1009200089E895E00E94041389E895E00E9471111E
:10093000F0C188E591E066E04FE057E220E531E064
:100940000FE017E20E94F31A8091D9049091DA0423
:10095000A091DB04B091DC040196A11DB11D809330
:10096000D9049093DA04A093DB04B093DC0488E606
:1009700090E067ED75E00E94841BBB24B39482EE87
:1009800093E00E94B20C882309F447C08091DD04F3
:100990009091DE04A091DF04B091E0040196A11DC6
:1009A000B11D8093DD049093DE04A093DF04B09327
:1009B000E0048091370686FD20C0609138066D5FA7
:1009C00086E396E04FE057E220E531E00FE017E2E2
:1009D0000E94F31A8091D9049091DA04A091DB046B
:1009E000B091DC040196A11DB11D8093D9049093B0
:1009F000DA04A093DB04B093DC0485ED94E064E6B4
:100A000070E00E94AF1B8091D804882311F483E129
:100A100001C0835F61E00E94690E0E94EF138C01A8
:100A20000E948E180B3211050CF42EC18091FA0130
:100A3000883009F029C18091FB01882309F024C185
:100A400080910502813109F01FC18091E1049091EC
:100A5000E204A091E304B091E4040196A11DB11D4C
:100A60008093E1049093E204A093E304B093E40440
:100A700080911102833409F407C10E94B8038823CE
:100A8000D9F082ED94E064E670E00E94AF1B8091A3
:100A9000D804882311F482E101C08D5F61E00E94D7
:100AA000690E8091D804882311F482E101C08D5F22
:100AB00061E00E94A80EE8C085EE94E069EE74E063
:100AC0004BE70E945F02882309F4DEC06091E504D1
:100AD0007091E6048091E7049091E80460587E47A5
:100AE0008A4A93486093E5047093E6048093E70490
:100AF0009093E8040E9475210E94361D882369F1B5
:100B0000FE01319685E0DF011D928A95E9F783E0C9
:100B100089838091E5049091E604A091E704B09167
:100B2000E8048A839B83AC83BD8381E0BF0145E0F9
:100B30000E94361F8091ED049091EE04A091EF0485
:100B4000B091F0040196A11DB11D8093ED04909326
:100B5000EE04A093EF04B093F0040E949F216B0178
:100B60007C0100914E0110914F010E945721BC0160
:100B7000C8014AE050E00E94D21280914E0190914B
:100B80004F016FE20E94691100914E0110914F01D7
:100B9000C701B6010E945D21BC01C8014AE050E0D6
:100BA0000E94D21280914E0190914F016FE20E94FB
:100BB000691100914E0110914F01C701B6010E94C9
:100BC0004E21BC01C8014AE050E00E94D21280913F
:100BD0004E0190914F0160E20E94691100914E0117
:100BE00010914F01C701B6010E946F21BC01C801DD
:100BF0004AE050E00E94D21280914E0190914F0144
:100C00006AE30E94691100914E0110914F01C701E2
:100C1000B6010E946921BC01C8014AE050E00E946F
:100C2000D21280914E0190914F016AE30E946911A6
:100C300000914E0110914F01C701B6010E9463213E
:100C4000BC01C8014AE050E00E94D21280914E01DE
:100C500090914F016AE271E00E9404134091E50413
:100C60005091E6046091E7047091E80480914E0190
:100C700090914F012AE030E00E94251280914E01B0
:100C800090914F010E94711185ED94E060E070E059
:100C90000E94CB1B882351F08091D804882311F443
:100CA00083E101C0835F60E00E94690EBB2099F080
:100CB00082ED94E060E070E00E94CB1B8823A9F1F4
:100CC0008091D804882311F482E101C08D5F60E037
:100CD0000E94690E2AC08091D804882311F482E111
:100CE00001C08D5F61E00E94690E8091D804882365
:100CF00011F482E101C08D5F60E00E94A80E15C072
:100D00008CEC94E068EE73E00E94CB1B882309F022
:100D1000E5CDBB2434CE8FEC94E06CEF79EE0E94ED
:100D2000CB1B882309F005CE28CE0F900F900F9093
:100D30000F900F90CF91DF911F910F91FF90EF9047
:100D4000DF90CF90BF9008959C01F999FECF32BDFE
:100D500021BDF89A80B508959C01F999FECF1FBA7C
:100D600032BD21BD60BD0FB6F894FA9AF99A0FBE54
:100D70000895CF93DF93EC01462F009721F4409123
:100D80003806C9E3D6E04423F9F038812091F30412
:100D9000E091F104F091F20490E014C0A191B191BE
:100DA00012968C911297831761F4ED91FC91119733
:100DB000219641500280F381E02DCD01BE010995BD
:100DC00003C09F5F921750F3DF91CF9108951F9357
:100DD000182F5091F304A091F104B091F20420E295
:100DE00030E090E047C0ED91FD9182814381811711
:100DF00009F03DC0C90150E02CEA36E00E942E0205
:100E00004091F4045091F504FA01329720E030E06B
:100E10006FEF7FEF21C0F999FECF205E3F4F32BDCB
:100E200021BDF89A80B56827862F82958627082EDF
:100E3000869586958025082E869580258770062EB6
:100E4000672F869507948795702D68270694879558
:100E5000702568272F5130402E173F0708F4DBCF4D
:100E6000CA014E964CEA56E00E944A0219C0240F6D
:100E7000311D9F5F951708F4B6CF89E895E067E2CA
:100E800071E00E94461189E895E0612F4AE050E048
:100E90000E94621289E895E06CE071E00E94911175
:100EA0001F9108958F929F92AF92BF92DF92EF921F
:100EB000FF920F931F93DF93CF93CDB7DEB7C0544C
:100EC000D0400FB6F894DEBF0FBECDBF5C0120E06E
:100ED000322F3F5FE22FF0E0EE0FFF1FEA0DFB1D08
:100EE00080819181892B11F0232FF2CF2093F3047D
:100EF000B092F204A092F10489E895E06AEB71E007
:100F00000E94461189E895E06091F3044AE050E0C0
:100F10000E94621289E895E060EB71E00E94461140
:100F20001092F5041092F404EE244EC00E2D10E041
:100F3000F801EE0FFF1FEA0DFB1D0190F081E02D7F
:100F4000F38080E48F15A8F589E895E00E9471117F
:100F500089E895E068E871E00E9446110F5F1F4F35
:100F600089E895E0B8014AE050E00E94D21289E891
:100F700095E06FE671E00E94461189E895E06F2DDB
:100F80004AE050E00E94621289E895E069E671E06B
:100F90000E94461189E895E060E470E04AE050E084
:100FA0000E94D21289E895E063E671E00E949111F7
:100FB0000AC08091F4049091F5048F0D911D9093D7
:100FC000F5048093F404E3948091F304E81608F4A4
:100FD000ADCF6091F4047091F5046E5F7F4F709314
:100FE000F5046093F40489E895E04AE050E00E943B
:100FF000341289E895E06CE571E00E9491116091EE
:10100000F4047091F50420E030E04FEF5FEF21C071
:10101000F999FECF205E3F4F32BD21BDF89A80B5D1
:101020004827842F82958427082E869586958025CB
:10103000082E869580258770042E452F8695079467
:101040008795502D482706948795502548272F517E
:1010500030402617370708F4DBCF452B01F189E82C
:1010600095E066E471E00E94911110E013C0E12F59
:10107000F0E0EE0FFF1FEA0DFB1DA081B181ED91A5
:10108000FC9111970190F081E02DCD0160E070E0BE
:1010900009951F5F8091F304181748F337C089E85A
:1010A00095E067E371E00E94911190E2E92EF12C46
:1010B000DD244E010894811C911C24C00D2D10E0EC
:1010C000000F111F0A0D1B1DD801ED91FC914381EA
:1010D000C401B70150E024EA36E00E941202F80190
:1010E000A081B181ED91FC9111970190F081E02DEB
:1010F000CD01B4010995D801ED91FC918381E80EF1
:10110000F11CD3948091F304D816C0F2C05CDF4F79
:101110000FB6F894DEBF0FBECDBFCF91DF911F9108
:101120000F91FF90EF90DF90BF90AF909F908F90C6
:101130000895089508950895FC011382128288EAA3
:1011400091E0918380830E9695838483E55BFF4FC6
:101150001082EB54F04082E0868381E0878380E058
:1011600081608087089504970E94B7080895CF93FF
:10117000DF93EC01FB01BC01685F7F4F309719F0F2
:101180008081888706C080E08560888782E00E9431
:10119000E70689E895E061EE71E00E9446118885D6
:1011A00080FF06C089E895E069ED71E00E94461174
:1011B000888581FF06C089E895E064ED71E00E94B2
:1011C0004611888582FF06C089E895E06EEC71E0E3
:1011D0000E944611888583FF06C089E895E069EC86
:1011E00071E00E944611888584FF06C089E895E079
:1011F00063EC71E00E94461189E895E00E9471114C
:10120000DF91CF9108950F931F93CF93DF93EC015C
:101210008C01055B1F4FD8018C91FE01E80FF11D79
:101220001186888580FF16C0BE01675F7F4F89E801
:1012300095E00E940413F8018081882359F0FE0193
:10124000E80FF11D80858A3029F489E895E06DE08A
:101250000E946911888582FF22C08091F704813045
:10126000F1F082EE93E00E948C090097C1F0FC013E
:1012700082E081938E01055B1F4FD8014C919E0146
:10128000275F3F4FCF01B90150E00E940902F801EA
:1012900060816F5F82EE93E041E00E94950C88854B
:1012A00083FF0EC0E881F981BE01675F7F4FDE01D9
:1012B000A55BBF4F0480F581E02DCE014C910995CF
:1012C000C55BDF4F1882DF91CF911F910F91089579
:1012D0001F93CF93DF93EC01162FC55BDF4F8881FF
:1012E000CB54D040813418F0CE010E940309DE01B6
:1012F000A55BBF4F8C91FE01E80FF11D11878F5F39
:101300008C931A3019F4CE010E94030981E090E019
:10131000DF91CF911F910895FC018091F6048823FD
:10132000A1F08091F7048E3181F0E457FF4F908156
:10133000EC58F040923048F484E4989F90011124D6
:101340002A5F3F4F2E0F3F1F02C020E030E0C9014F
:101350000895EF92FF920F931F938C016093F7040F
:1013600089E895E069E172E00E94461189E895E01C
:101370006091F7044AE050E00E94621289E895E02B
:101380006EE072E00E9446118AE9E82EF12CE00E30
:10139000F11E89E895E0F70160814AE050E00E9483
:1013A000621289E895E065E072E00E9446110C56F1
:1013B0001F4FF8016081718189E895E040E150E0BC
:1013C0000E9445128091F70463E0F70140810E947A
:1013D000F21F095F1F4FF8018081882371F089E8AF
:1013E00095E066EF71E00E94911187E598E90E940F
:1013F0001D1C82EB94E90E941D1C89E895E06DEEAE
:1014000071E00E94911181E196EC0E941D1C81EC1B
:1014100094E90E941D1C80E298E90E941D1C83E053
:101420000E94340D85E060E00E94690E1F910F91CB
:10143000FF90EF9008950F931F93DF93CF9300D009
:1014400000D0CDB7DEB78C01FB01443009F045C0B8
:101450000C561F4F20813181D8018D919C910459E8
:10146000104028173907C9F58381882319F0813086
:1014700031F403C01092F60402C08093F604928106
:101480008091F704891749F182818093F70489E8F4
:1014900095E067E372E00E94461189E895E060916B
:1014A000F7044AE050E00E947412C8016091F7040A
:1014B0000E94A9098091F70489838091F6048A83A8
:1014C0000C561F4FF801808191819C838B8381E0B2
:1014D000BE016F5F7F4F0E94E7060F900F900F9045
:1014E0000F90CF91DF911F910F910895CF93DF93CC
:1014F000EC018EEB91E099838883C656DF4F6993A8
:101500004883CB59D0400E94A10DFE01EA56FF4FFF
:1015100060837183828393836115710581059105D1
:1015200041F481E090E0A0E0B0E080839183A28369
:10153000B38381E08A8384E08B83DF91CF91089528
:101540000F931F93DF93CF9300D00F92CDB7DEB7E9
:101550008C010E94361D882309F448C0FE01319693
:1015600083E0DF011D928A95E9F781E089830C56BB
:101570001F4FD8018D919C91045910409B838A8301
:101580008091F704BF0143E00E94361F0E94A10D25
:101590009B01AC018091F7048E3129F060E27EE47A
:1015A00080E090E004C064EF71E080E090E0DC0156
:1015B000CB01820F931FA41FB51FF801EA56FF4FFE
:1015C00080839183A283B3830097A105B10541F481
:1015D00081E090E0A0E0B0E080839183A283B383B8
:1015E00089E895E061E572E00E9491110F900F90FB
:1015F0000F90CF91DF911F910F910895CF92DF92BD
:10160000EF92FF920F931F93DF93CF93CDB7DEB787
:101610007C01CDB6DEB6FB018B016115710509F1C8
:1016200080818E31F1F089E895E06EE272E00E94EF
:10163000461189E895E0F80160814AE050E00E9497
:10164000621289E895E06EE271E00E940413F801ED
:10165000618189E895E070E04AE050E00E94E5127F
:1016600019C000D000D00DB71EB70F5F1F4F8EE11D
:10167000EDB7FEB78183F80111820E94AF0D2AEA0F
:1016800035E526273727F8013383228381E0B80127
:101690000E94E706F80160816093F70481818093DE
:1016A000F60484E990E0E80EF91E82819381F70147
:1016B000918380838CE69FEFE80EF91EC7010E949C
:1016C000A909C7010E94A00A0FB6F894DEBE0FBE9A
:1016D000CDBECF91DF911F910F91FF90EF90DF90E2
:1016E000CF9008951F93CF93DF93EC01C457DF4F42
:1016F0008881CC58D0408823E1F11C81C357DF4F4B
:101700008881CD58D04090E007970CF01F7DBE0136
:101710006A5F7F4F812F4D810E94361F15FD1BC0D0
:10172000C457DF4F8881CC58D040823050F0DE0162
:101730001496FE01E85BFF4F84E401900D92815006
:10174000E1F7FE01E457FF4F808181508083C3574A
:10175000DF4F18820EC0FE01E357FF4F80818F5F7D
:1017600080830E94A10DC257DF4F688379838A83EB
:101770009B83DF91CF911F910895EF92FF920F937A
:101780001F93CF93DF93EC0126E9E22EF12CE80EB4
:10179000F91EF70180819181A281B3810097A10593
:1017A000B10509F472C00E94A10DF70120813181B9
:1017B00042815381621773078407950708F465C057
:1017C0008091F704813009F460C0CE010E94A00A24
:1017D0006EC00E94361D882309F461C08E010D562B
:1017E0001F4FF7018081B80141E00E94361FF701C9
:1017F0001082F80110825BC0C357DF4F8881CD583B
:10180000D040882331F40E94361D882309F44FC04C
:1018100038C00E94A10DC257DF4F288139814A810B
:101820005B81CE58D0402C593F4F4F4F5F4F6217CE
:10183000730784079507D8F10E94361D8823B9F1F4
:1018400089E895E060E371E00E94041389E895E07F
:101850006C8140E150E00E94621289E895E06DE3FE
:1018600071E00E94041389E895E06E8140E150E048
:101870000E946212BE01695F7F4F89E895E00E9475
:101880000713CE010E94720B12C092E9E92EF12CCF
:10189000EC0EFD1EF7018081882309F09ACFC45712
:1018A000DF4F8881CC58D040882309F0A5CFDF9145
:1018B000CF911F910F91FF90EF900895CF93DF93F9
:1018C000EC01DC01A457BF4F2C91223058F530E0D9
:1018D00084E490E0289FF001299FF00D389FF00DDF
:1018E0001124EC0FFD1F65838C9190E0FC0164E0F6
:1018F000EE0FFF1F6A95E1F7E80FF91F3196EE0F23
:10190000FF1FEE0FFF1FEC0FFD1F40838C918F5FB9
:101910008C93813039F40E94361D882319F0CE0152
:101920000E94720BDF91CF9108959C01411140E21A
:101930008091F704482BC9010E945E0C08950F9313
:101940001F938C0185E00E94370D03561F4F8C5268
:1019500091409595879595958795F80180831F917E
:101960000F910895CF93DF93EC010E94391C8823D7
:1019700009F473C08091340690913506892B09F0E3
:1019800068C08091370687FD1DC0CE010E949F0C64
:101990008091370685FF13C0909137069F71809123
:1019A000F704981711F4892F02C0892F8064CE564E
:1019B000DF4F806888832B9688812A97888380915F
:1019C00039064FC08091370685FD47C0CE010E9481
:1019D0009F0C2091370630E02F7130708091F70412
:1019E00090E028173907C9F5C457DF4F8881CC58D4
:1019F000D040882391F1C357DF4F8881CD58D04024
:101A0000882359F180913806813011F080E002C0BE
:101A100080913906C456DF4F888360978881CC58FF
:101A2000D040823050F0DE011496FE01E85BFF4F9B
:101A300084E401900D928150E1F7FE01E457FF4FDD
:101A4000808181508083C357DF4F1882CD58D040AA
:101A500004C08091340690913506CE010E94BD0BE2
:101A600080E0DF91CF91089580936B010895982FC6
:101A70008E3008F09E50977080916B018295880F90
:101A8000880F807C892B80937C0080917A00806411
:101A900080937A0080917A0086FDFCCF20917800B7
:101AA00040917900942F80E030E0282B392BC90138
:101AB00008951F920F920FB60F9211242F933F9308
:101AC0008F939F93AF93BF938091FC049091FD04FB
:101AD000A091FE04B091FF04309100050196A11D74
:101AE000B11D232F2D5F2D3720F02D570196A11DFD
:101AF000B11D209300058093FC049093FD04A093F6
:101B0000FE04B093FF048091F8049091F904A09131
:101B1000FA04B091FB040196A11DB11D8093F80455
:101B20009093F904A093FA04B093FB04BF91AF9192
:101B30009F918F913F912F910F900FBE0F901F900B
:101B400018958FB7F8942091FC043091FD044091D2
:101B5000FE045091FF048FBFB901CA0108959FB7D9
:101B6000F8942091F8043091F9044091FA045091CE
:101B7000FB0486B5A89B06C08F3F21F02F5F3F4F27
:101B80004F4F5F4F9FBF542F432F322F2227280FD5
:101B9000311D411D511D82E0220F331F441F551F6F
:101BA0008A95D1F7B901CA0108959B01AC017FB7AD
:101BB000F8948091F8049091F904A091FA04B091FE
:101BC000FB0466B5A89B05C06F3F19F00196A11DE7
:101BD000B11D7FBFBA2FA92F982F8827860F911D7F
:101BE000A11DB11D62E0880F991FAA1FBB1F6A9536
:101BF000D1F7BC012DC0FFB7F8948091F804909103
:101C0000F904A091FA04B091FB04E6B5A89B05C0C5
:101C1000EF3F19F00196A11DB11DFFBFBA2FA92FEB
:101C2000982F88278E0F911DA11DB11DE2E0880F0E
:101C3000991FAA1FBB1FEA95D1F7861B970B885ED9
:101C40009340C8F2215030404040504068517C4F92
:101C5000211531054105510571F60895789484B533
:101C6000826084BD84B5816084BD85B5826085BD98
:101C700085B5816085BDEEE6F0E08081816080837E
:101C8000E1E8F0E010828081826080838081816061
:101C90008083E0E8F0E0808181608083E1EBF0E028
:101CA000808184608083E0EBF0E0808181608083CC
:101CB000EAE7F0E0808184608083808182608083B5
:101CC0008081816080838081806880831092C100E0
:101CD0000895CF93DF93482F50E0CA0183569D4F5C
:101CE000FC01349147575D4FFA018491882369F1D3
:101CF00090E0880F991FFC01E559FD4FA591B49123
:101D0000FC01EB58FD4FC591D491662351F42FB7D8
:101D1000F8948C91932F909589238C9388818923B3
:101D20000BC0623061F42FB7F8948C91932F90958B
:101D300089238C938881832B88832FBF06C09FB70C
:101D4000F8948C91832B8C939FBFDF91CF91089552
:101D5000482F50E0CA018F549D4FFC012491CA01C5
:101D600083569D4FFC01949147575D4FFA01349182
:101D7000332309F440C0222351F1233071F0243081
:101D800028F42130A1F0223011F514C02630B1F032
:101D90002730C1F02430D9F404C0809180008F77BF
:101DA00003C0809180008F7D8093800010C084B537
:101DB0008F7702C084B58F7D84BD09C08091B0004B
:101DC0008F7703C08091B0008F7D8093B000E32FA8
:101DD000F0E0EE0FFF1FEB58FD4FA591B4912FB728
:101DE000F894662321F48C919095892302C08C91FC
:101DF000892B8C932FBF089508951F920F920FB6D1
:101E00000F9211242F933F934F938F939F93EF93B0
:101E1000FF938091C00082FD1DC04091C6002091BB
:101E20004105309142052F5F3F4F2F7330708091F5
:101E30004305909144052817390771F0E091410559
:101E4000F0914205EF5FFA4F4083309342052093B3
:101E5000410502C08091C600FF91EF919F918F9143
:101E60004F913F912F910F900FBE0F901F9018959B
:101E7000E0919505F0919605E05CFF4F819191917D
:101E800020813181821B930B8F739070892B11F00D
:101E90000E94FC0E08951F920F920FB60F9211240C
:101EA0002F933F938F939F93EF93FF9320918505FB
:101EB000309186058091870590918805281739070C
:101EC00031F48091C1008F7D8093C10014C0E091F6
:101ED0008705F0918805EB5BFA4F2081809187059B
:101EE0009091880501968F739070909388058093E8
:101EF00087052093C600FF91EF919F918F913F91AD
:101F00002F910F900FBE0F901F901895AF92BF9218
:101F1000DF92EF92FF920F931F93CF93DF93EC0129
:101F20007A018B01DD24403081EE580780E068079C
:101F300080E0780711F0DD24D39491E0A92EB12C34
:101F4000EC89FD89DD2069F0C50108A002C0880F79
:101F5000991F0A94E2F7808360E079E08DE390E0D6
:101F600005C0108260E874E88EE190E0A801970156
:101F70000E942525215030404040504056954795BD
:101F80003795279580E12030380720F0DD2011F0CB
:101F9000DD24D6CFE889F9893083EA89FB8920835B
:101FA00019A2EE89FF89408121E030E0C9010C8C43
:101FB00002C0880F991F0A94E2F7482B4083EE89EC
:101FC000FF894081C9010D8C02C0880F991F0A94B6
:101FD000E2F7482B4083EE89FF894081C9010E8CCE
:101FE00002C0880F991F0A94E2F7482B4083EE89BC
:101FF000FF8980810F8C02C0220F331F0A94E2F701
:10200000209528232083DF91CF911F910F91FF907E
:10201000EF90DF90BF90AF900895DC011C96ED919A
:10202000FC911D97E05CFF4F21913191808191815E
:10203000281B390B2F733070C9010895DC011C96E1
:10204000ED91FC911D97E05CFF4F20813181E054C0
:10205000F040DF01AE5BBF4F8D919C911197281727
:10206000390719F42FEF3FEF07C08D919C91E80FCE
:10207000F91F8081282F30E0C9010895DC011C96EA
:10208000ED91FC911D97E05CFF4F20813181E05480
:10209000F040DF01AE5BBF4F8D919C9111972817E7
:1020A000390719F42FEF3FEF10C08D919C911197D4
:1020B000E80FF91F20818D919C91119701968F73E4
:1020C000907011969C938E9330E0C9010895DC01C5
:1020D00091968C919197882339F05496ED91FC91CB
:1020E0005597808186FFF9CF91961C920895CF93E2
:1020F000DF93EC01EE85FF85E05CFF4F20813181AD
:10210000E054F0402F5F3F4F2F733070DF01AE5B24
:10211000BF4F8D919C91119728173907D1F3E05C3F
:10212000FF4F80819181E054F040E80FF91F6083F8
:10213000EE85FF85E05CFF4F31832083EE89FF89C8
:10214000208181E090E00F8C02C0880F991F0A94D3
:10215000E2F7282B208381E089A3EC89FD89808127
:102160008064808381E090E0DF91CF9108951092A8
:102170008C0510928B0588EE93E0A0E0B0E0809390
:102180008D0590938E05A0938F05B093900586ECF6
:1021900091E090938A058093890581E095E0909382
:1021A00096058093950585E495E090939805809336
:1021B000970585EC90E090939A058093990584ECBF
:1021C00090E090939C0580939B0580EC90E0909329
:1021D0009E0580939D0581EC90E09093A0058093EF
:1021E0009F0582EC90E09093A2058093A10586EC78
:1021F00090E09093A4058093A30584E08093A505C7
:1022000083E08093A60587E08093A70585E080930F
:10221000A80581E08093A9050895CF93DF930E94DC
:102220002E0E0E94F302C8E3DFE00E9447042097CD
:10223000E1F30E94380FF9CFCF92DF92EF92FF9235
:102240000F931F93CF93DF937C016B018A01C0E052
:10225000D0E00FC0D6016D916D01D701ED91FC91D9
:102260000190F081E02DC7010995C80FD91F0150D9
:1022700010400115110571F7CE01DF91CF911F912B
:102280000F91FF90EF90DF90CF900895EF92FF9223
:102290000F931F93CF93DF937C018B01C0E0D0E0BD
:1022A000F8010F5F1F4F6491662359F0D701ED913C
:1022B000FC910190F081E02DC7010995C80FD91F4D
:1022C000EFCFCE01DF91CF911F910F91FF90EF9053
:1022D0000895DC01ED91FC910190F081E02D0995CC
:1022E0000895EF92FF920F931F938C01DC01ED9103
:1022F000FC910190F081E02D6DE009957C01D80101
:10230000ED91FC910190F081E02DC8016AE0099502
:102310009C012E0D3F1DC9011F910F91FF90EF9061
:102320000895EF92FF920F931F937C010E94461134
:102330008C01C7010E9471119C01200F311FC9013E
:102340001F910F91FF90EF900895CF93DF93EC01D1
:102350006115710519F420E030E00FC0DB010D902C
:102360000020E9F71197A61BB70BE881F9810280DD
:10237000F381E02DAD0109959C01C901DF91CF9159
:1023800008954F925F927F928F929F92AF92BF92E9
:10239000CF92DF92EF92FF920F931F93DF93CF9331
:1023A000CDB7DEB7A1970FB6F894DEBF0FBECDBF95
:1023B0002C01742ECB01223008F42AE019A231E25C
:1023C000C32ED12CCC0EDD1E822E9924AA24BB2430
:1023D000672D752FA50194010E94252579018A0199
:1023E000C801B701A50194010E94DF24472D461BB7
:1023F0000894C108D1084A3010F4405D01C0495C1E
:10240000F6014083E114F1040105110521F07E2C51
:102410005F2DC801DDCFC201B6010E94A511A196B2
:102420000FB6F894DEBF0FBECDBFCF91DF911F91E5
:102430000F91FF90EF90DF90CF90BF90AF909F9063
:102440008F907F905F904F900895DC0121153105AA
:1024500041F4ED91FC910190F081E02D642F0995FC
:1024600008950E94C1110895EF92FF920F931F9358
:102470009A017B0100E010E0B801A7010E9425123B
:102480001F910F91FF90EF900895CF92DF92EF92FE
:10249000FF920F931F936C017B019A0100E010E003
:1024A000B801A7010E9425128C01C6010E9471117A
:1024B000080F191FC8011F910F91FF90EF90DF9037
:1024C000CF900895EF92FF920F931F939A01E62EFB
:1024D000FF2400E010E0B801A7010E9425121F911F
:1024E0000F91FF90EF900895CF92DF92EF92FF92BD
:1024F0000F931F936C01E62E9A01FF2400E010E079
:10250000B801A7010E9425128C01C6010E94711119
:10251000080F191FC8011F910F91FF90EF90DF90D6
:10252000CF900895CF92DF92EF92FF920F931F9377
:10253000CF93DF93EC016A017B012115310541F452
:10254000E881F9810190F081E02D642F09951FC089
:102550002A303105D1F477FF17C0E881F981019065
:10256000F081E02D6DE209958C0144275527BA01D1
:102570004C195D096E097F09CE012AE00E94C11144
:102580009801280F391F04C02AE00E94C1119C0144
:10259000C901DF91CF911F910F91FF90EF90DF90D4
:1025A000CF900895EF92FF920F931F937B019A01B2
:1025B0000027F7FC0095102FB801A7010E94921286
:1025C0001F910F91FF90EF900895CF92DF92EF92BD
:1025D000FF920F931F936C017B019A010027F7FC78
:1025E0000095102FB801A7010E9492128C01C6011C
:1025F0000E947111080F191FC8011F910F91FF90C0
:10260000EF90DF90CF9008950E94A5110895EF926A
:10261000FF920F931F937C010E94A5118C01C701AB
:102620000E947111080F191FC8011F910F91FF908F
:10263000EF9008958091AD0561E00E94A80E789416
:102640000895FF920F931F93082F162FF42EF894DE
:102650008091AD0560E00E94A80E1F71102B1EBD79
:102660000DB407FEFDCFFEBC0DB407FEFDCF0E94EA
:102670001A131F910F91FF9008951F93182F282F61
:1026800030E0207630708091AE0590E02817390751
:1026900099F080EA6FE143E00E942113412F4076D8
:1026A0004093AE0550E085E0559547958A95E1F752
:1026B00080E86FE10E9421131F9108950F931F93EB
:1026C000182F062F0E943D1380E4612F402F0E9497
:1026D00021131F910F9108950F931F93182F072F08
:1026E0000E945E13812F8F5F602F0E945E131F91E7
:1026F0000F91089588E360EB0E945E13089588E3CC
:1027000061EB0E945E1308950F931F93182F062FFD
:10271000F8948091AD0560E00E94A80E802F8F7123
:10272000812B8EBD0DB407FEFDCF1EBC0DB407FE80
:10273000FDCF07FF04C01EBC0DB407FEFDCF1EB5C4
:102740000E941A13812F1F910F9108951F93182F24
:102750000E943D1380E0612F0E9484131F91089511
:1027600084ED61E10E945E1382ED61E00E945E13E0
:102770008AEE0E94A61380FDFBCF82ED60E00E94EE
:102780005E1389ED0E94A61390E096958795969525
:102790008795817008950F931F93CF93DF93EC017A
:1027A0008B01F8948091AD0560E00E94A80E8AE349
:1027B0008EBD0DB407FEFDCF09C01EBC0DB407FED3
:1027C000FDCF8EB5F80181938F0121972097A9F74E
:1027D0000E941A13DF91CF911F910F9108950F93CB
:1027E0001F93DF93CF9300D000D000D0CDB7DEB7DA
:1027F00089E30E94A613882319F400E010E048C082
:102800006091AF057091B00580E00E946C1386E086
:1028100090E0BE016F5F7F4F0E94CB1389819A8148
:102820009093B0058093AF052B813C81E091AB057F
:10283000F091AC058D8187FD03C000E010E00EC073
:10284000245030408F01015010402017310708F408
:102850008901C8016EEE71E00E94CB13F801E251CC
:10286000FE4F10826091AF057091B0058CE0613031
:10287000780724F08CE06FEF7BE003C0615070407C
:102880008CE00E946C1380E86EE140E40E9421130A
:10289000C80126960FB6F894DEBF0FBECDBFCF910C
:1028A000DF911F910F9108950F931F93CF93DF93A3
:1028B0008C01EB01F8948091AD0560E00E94A80EB8
:1028C0008AE78EBD0DB407FEFDCF08C088818EBD9E
:1028D0000DB407FEFDCF21960150104001151105E2
:1028E000A9F70E941A13DF91CF911F910F910895BC
:1028F0008AE061E00E94690E8AE061E00E94A80E11
:102900008BE061E00E94690E8DE061E00E94690E3B
:102910008CE060E00E94690E8BE061E00E94A80EEE
:102920008BE060E00E94A80E8DE060E00E94A80E9F
:1029300080E58CBD8DB581608DBD08951F93CF93CB
:10294000DF93EB01142F9093AC058093AB050CB48F
:1029500006FC02C00E9478141093AD05812F61E03F
:102960000E94690E0E941A138FEF60E04FEF0E94E1
:10297000211362E070E080E090E00E94D50D80E0DD
:102980006DE10E9484138823D1F31092B005109258
:10299000AF0588E060E070E00E946C138CE060E0BE
:1029A00070E00E946C138AE06FEF7BE00E946C1372
:1029B00084E060E07CE00E946C1386E06FEF71E1E0
:1029C0000E946C130E947F1388E26FE370E30E9401
:1029D0006C1380E369EF77EF0E946C1380EC6DE07D
:1029E0000E945E1381EC60E00E945E1380E862EC5E
:1029F00042E30E94211386EC62E17CE00E946C13AA
:102A000084EC62E10E945E138AEC6CED75E00E943A
:102A10006C1384EE68810E945E1385EE69810E94CA
:102A20005E1382EE6A810E945E1383EE6B810E94C8
:102A30005E1380EE6C810E945E1381EE6D810E94B8
:102A40005E1384ED60E10E945E1386ED60E071E04C
:102A50000E946C138AEE0E94A61380FDFBCF8FE1CB
:102A60000E943D1380E86BE140EC0E94211380E856
:102A70006FE144E00E94211382E70E94A613863092
:102A800008F08F5FDF91CF911F910895CF93DF936F
:102A9000EC0115C08CE10E94A61381FF10C089E8EB
:102AA00095E061E471E00E94071380E86FE140E87F
:102AB0000E94211380EA6FE140E80E94211380E028
:102AC0006FE10E94841383FDE5CF82E060E07CE04B
:102AD0000E946C13BE016050744F86E00E946C131C
:102AE0008AE760E040E00E942113CE016EEE71E0C3
:102AF0000E94541480E86FE148E00E942113DF91A6
:102B0000CF9108950F931F93CF93DF939C01EB0117
:102B10008A011092EF05009729F087ED95E0B90141
:102B20000E94A31B209719F0CE010E94FC160115EC
:102B3000110529F087EE95E0B8010E94A31B81E002
:102B4000DF91CF911F910F910895AF92BF92CF92D5
:102B5000DF92FF920F931F93CF93DF938C01EB01D2
:102B6000F42E1092EF0538E341E050E060E070E0B1
:102B700018C0832F90E0FC01B3E0F595E795BA9576
:102B8000E1F7EF54FA4F877090705A016B0104C05F
:102B9000AA0CBB1CCC1CDD1C8A95D2F720812A29EB
:102BA0002083315031F781ED95E0BE010E949B1BDF
:102BB000C80161ED75E04F2D0E949E14DF91CF9109
:102BC0001F910F91FF90DF90CF90BF90AF9008952D
:102BD000DF92EF92FF920F931F93CF93DF93D82E44
:102BE000862FBA01213041F4675F7F4F9B0140E09F
:102BF00050E0695070400EC0223029F020E030E0F3
:102C000040E050E007C0625070409B0140E050E05F
:102C10006E5F7F4FE82EFF248EEE91E0E80EF91EE6
:102C20008B01E7010FC0F881E0E0898190E08E2BF5
:102C30009F2BA0E0B0E0280F391F4A1F5B1F229690
:102C4000025010400230110570F7CB018E7FD70182
:102C5000A80FB91F6817790779F08C9190E0A0E070
:102C6000B0E0BA2FA92F982F882702C040E050E08B
:102C7000280F391F4A1F5B1FCA01AA27BB270097CD
:102C8000A105B10599F7C90180959095ED2DF0E06A
:102C9000E251FE4F90838183DF91CF911F910F917D
:102CA000FF90EF90DF9008951092060210920702B5
:102CB00080E480930202109203028093040288E170
:102CC0006EE044E150E020E00E94E8150895809114
:102CD000F10586958095817008950F931F93BC012F
:102CE0000EEE11E0C8010E949B1BC801069661ED23
:102CF00075E00E949B1B1F910F910895EF92FF9228
:102D00000F931F937B010E946D160CE012E0C80127
:102D1000B7010E94A31BC801049767ED75E00E94EC
:102D2000A31B1F910F91FF90EF900895EF92FF92D8
:102D30000F931F93CF93DF937C01EB018A018CEFFC
:102D400095E00E947E168881807F803E49F08881D0
:102D50009981AA81BB818F5F9F4FAF4FBF4F31F4E5
:102D60008EEE91E062ED71E00E949B1B88E0809303
:102D7000FA011092FB018CEF91E06DEC72E049E0FA
:102D800050E00E94F3011092FE0181E18093050260
:102D90001093120200931302F0921002E0921102BB
:102DA000109214021092160210921702DF91CF9126
:102DB0001F910F91FF90EF900895EF92FF920F9364
:102DC0001F9304EF11E0C8010E946D1674E1E72E15
:102DD000F12CE00EF11EC8014896B7010E94A31B1A
:102DE000C70167ED75E00E94A31B0E9454161F9156
:102DF0000F91FF90EF900895BC0181E08093F10561
:102E00008FED95E00E94A31B08950F931F938C01F3
:102E100088969093FE018093FF010E9454161092B1
:102E2000200210922102045E1F4F82E36AE1A80192
:102E300022E00E94E815C8014A960E9446151F919B
:102E40000F910895CF93DF939C01862F806180932B
:102E50001D02643029F02115310511F421E030E024
:102E600090911202809110028093120290931002AE
:102E7000909113028091110280931302909311029A
:102E8000C7E1D2E08881A901480F511D2C814C83F4
:102E90002883252F3327219752E0C331D50791F797
:102EA0001D861E8680E589871092FE0188E2809348
:102EB000FF010E94DD1684E08B871C8682E36AE1B5
:102EC0004CE150E022E00E94E81586E390E00E9489
:102ED0004615DF91CF910895E82FA091FE01B091A2
:102EE000FF01F0911C024091120250E0292F30E0C6
:102EF0004217530709F08EC0809113028E1709F014
:102F000089C080911D02E82F81FF4EC01092FE0102
:102F10008CE28093FF010E94DD1682E180931D0206
:102F200090911202809110028093120290931002ED
:102F300090911302809111028093130290931102D9
:102F4000E7E1F2E021E030E08081A901480F511D66
:102F500044831082252F3327319752E0E331F50760
:102F600099F71586168611821282809171018383EA
:102F700014828D5F8093710182E0818B84E0828B6B
:102F800095E0938B148A80E68187938788E784870E
:102F900082E36AE140E250E022E00E94E8158AE321
:102FA00090E00E94461536C084FF34C04F2F50E099
:102FB00084E0559547958A95E1F79A2F80E02B2F6D
:102FC00030E0282B392BCA01880F991F880F991FD1
:102FD000281B390B2451304037FF02C020E030E07D
:102FE0003093030620930206232B69F09A01220FE7
:102FF000331F220F331F2E5D3F4F68507040621702
:10300000730740F009C0E0FF05C080E090E060E099
:103010000E94221720E030E0C90108950F931F930A
:10302000DF93CF930F92CDB7DEB78C01045E1F4FB5
:103030001093FE010C511040802F845E8093FF019D
:1030400089830E945416085F1F4F109314028981D0
:10305000845180931502085F1F4F88E26AE1A8013E
:1030600021E00E94E815C8014A960E9446150F907B
:10307000CF91DF911F910F910895FF920F931F93AE
:103080009C01F62E8CEF95E0B9010E947E160AEFA6
:1030900011E088E08093FA011092FB01C8010296CA
:1030A0006DEC72E049E050E00E94F3018CE4809303
:1030B000FF0181E1809305020E94541610921202D2
:1030C0008BE7809313028AE080931002F092110242
:1030D0001092140288E38093150210921602109247
:1030E0001702025E1F4F80E3F80111928A95E9F7FB
:1030F000C80163E873E04AE050E00E94F30188E20F
:103100006AE140E450E021E00E94E8158AE590E0A1
:103110000E9446151F910F91FF900895DF92EF9244
:10312000FF920F931F93CF93DF93EC018091EF05F4
:10313000882319F0CE010E948823209709F0C3C08C
:103140008091F1058570F1F180916E0190916F0190
:10315000892BC1F50E94B0138823A1F182ED91E083
:103160000E946D1688E08093FA01A6E0FA2EF09294
:10317000FB018CEF91E065EC72E048E050E00E94CA
:10318000F3010EE012E0D8011D92FA94E9F7C801AC
:103190000A9761ED75E00E949B1BC80106966FEDD2
:1031A00075E00E94A31BC801049767ED75E00E94BB
:1031B000A31B8091F10588608093F1058AE290E07D
:1031C0000E9446150E94B013882349F080916E0139
:1031D00090916F01019690936F0180936E018091A1
:1031E000F205813009F0EFC18091F10581FFEBC15B
:1031F00002E00093F205809170018F5F809370016F
:103200008F711091F3051295110F107E182BE0901D
:10321000F405D090F5058CEF95E06BEE75E00E941B
:103220007E16F8E0FF2EF092FA011092FB018CEF6F
:1032300091E06DEC72E049E050E00E94F3018CE215
:103240008093FF0186E0809305020E945416E0926D
:103250001202D09213028BE080931002109311029D
:10326000E4E1F2E0DF011D92FA94E9F78091710147
:10327000809316028D5F8093710180E680931C021B
:1032800000931D0283E080931E0210921F02109291
:103290002002109221021092220210922302009327
:1032A000240284E0809325020093260286E2809324
:1032B000270282E36AE140E250E022E00E94E81542
:1032C0008AE390E09BC0C932D10508F47CC110911B
:1032D000FA01183009F082C18091FB01863009F0B3
:1032E0007DC184E192E067ED75E044E050E00E942A
:1032F000FC01009709F072C180910302813029F529
:1033000084EF91E00E946D161092020282E0809399
:1033100003028EE092E064E072E00E949B1B84E076
:1033200092E061ED75E00E949B1B84E192E06AE00F
:1033300072E00E94A31B8AE092E067ED75E00E94B4
:10334000A31B8AE290E00E9446158091F10583FF5D
:103350003AC110910302123009F035C18AE092E0BF
:103360006FED75E044E050E00E94FC01009709F029
:103370002AC18CEF95E064E072E00E949B1B1093E1
:10338000F10521C1183009F01EC18091FB0188238D
:1033900009F019C18091FC01853409F014C18CE059
:1033A00092E067ED75E044E050E00E94FC01009778
:1033B00009F009C180910502813019F58091100250
:1033C0008830F9F4E091F605F091F705309719F09F
:1033D00088E092E009950E94DD161092100280911B
:1033E0001202883F28F0809113028F5F80931302AE
:1033F00080911202885F80931202CE010E944615CE
:10340000E2C00E94171B882351F080910502813190
:1034100031F4CE010E941C1B882309F0D4C0C633AE
:10342000D10528F480910502863009F0CCC0809146
:1034300012028B3009F0BEC088E092E06BEE75E0BE
:1034400044E050E00E94FC01009709F0BCC080916C
:103450001D02382F82FF13C0E091F805F091F905A5
:10346000309759F08091130282958695877063E0BA
:1034700040E050E020E030E0099585E090C0909178
:10348000FE0180E02091FF01022F10E0082B192B94
:1034900080911C02482F50E0E4E055954795EA954D
:1034A000E1F7CA01880F991F880F991F081B190B94
:1034B0000451104017FF02C000E010E08091F205B7
:1034C000823079F531FF21C034FF1FC080E090E0E9
:1034D00060E00E94221788E180931D02E091FA05C6
:1034E000F091FB05309719F420E030E007C080919F
:1034F000110282958695877009959C0183E08093DF
:10350000F205C9010E9405175EC081E08093F205B3
:1035100034FF03C080E090E002C0C801019664E07F
:1035200046C0833081F50115110579F1E091F80568
:10353000F091F905309749F1440F551F440F551F7D
:10354000CE0108974E5D5F4F8417950708F4AC01D4
:10355000C801840F951FC817D90710F0980103C040
:103560009E01241B350B80911302829586958770EE
:1035700060E009958091F005882319F0C80168E0A2
:1035800016C0C80108C08530F1F030FF0BC0833091
:10359000D1F0C801019669E00E94221786E080936D
:1035A000F20511C00115110571F0C80160E00E941B
:1035B000221709C080916C0190916D01BE010E949B
:1035C0006C179C0102C020E030E0C901DF91CF916F
:1035D0001F910F91FF90EF90DF900895CA32D105AF
:1035E00008F0D0CEF0CFDF92EF92FF920F931F93AF
:1035F000E82ED92EF62ECA01A801B9010E9496160E
:103600001F2D1D3D08F01CED28E132E0C9016E2D93
:103610007D2D412F50E00E940902812F90E00E94F1
:103620000E181F910F91FF90EF90DF9008958091F9
:103630002C06811181E00895CF92DF92EF92FF92E4
:103640000F931F93CF93DF93C4E0D6E030E0CC24F8
:10365000DD2429C02A814B818091120290E0042F41
:1036600010E080179107D9F4909113029217B9F4E2
:103670008C818823A1F02091150230E02850304041
:10368000F0901402EE242E0D3F1DE881F981892F60
:10369000942F68E072E048E152E0099531E0089427
:1036A000C11CD11C259680912C0690E0C816D90625
:1036B0008CF2832FDF91CF911F910F91FF90EF90AC
:1036C000DF90CF9008950F931F93CF93DF938C01DA
:1036D000C0E0D0E0F801EC0FFD1F89E895E06081C3
:1036E0004AE050E00E946212C33029F089E895E078
:1036F0006EE20E9469112196C430D10559F7DF911D
:10370000CF911F910F910895EF92FF920F931F9306
:103710009C017B0109E815E0C801B9010E9446112E
:10372000C7010E94631BC8010E9471111F910F9174
:10373000FF90EF900895DC01FB0186E001900D926F
:103740008150E1F708959C01FB0180819181A28164
:10375000B381F90180839183A283B38308950F938A
:103760001F93CF93DF938C01EB0180E0611571050E
:1037700009F081E0F8018283882341F00E94A10DC5
:103780002197C60FD71FF801D183C083DF91CF9156
:103790001F910F910895EF92FF920F931F93CF9374
:1037A000DF93EC017B018A81882311F400E00FC0D4
:1037B000088119810E94A10DC801861B970B2AEE72
:1037C0008136920710F400E006C0082F0195CE0163
:1037D000B7010E94AF1B802FDF91CF911F910F91F6
:1037E000FF90EF900895782FE89865B121E030E0E0
:1037F00040E050E00090720104C0220F331F441FCC
:10380000551F0A94D2F7322F822F8095862385B9CF
:103810009EBD0DB407FEFDCF4EB57EBD0DB407FEB7
:10382000FDCF2EB5942F80E045B1342B35B9E89A01
:1038300030E0282B392BC90108950E94F31B08950D
:1038400080912D0690912E068F7090932E06809376
:103850002D0680912D0690912E06886090932E065D
:1038600080932D0680912D0690912E060E94F31BC9
:10387000089580918406873009F059C09091880698
:10388000992399F080918706891728F480918706FB
:10389000873408F44CC084E08093840681E090E093
:1038A00090933506809334069AC080913806209113
:1038B000870690E0049630E08217930724F0809109
:1038C00087068734A0F184E08093840680913806CF
:1038D000833430F081E090E0909335068093340695
:1038E0008091370686FF12C080918306282F30E032
:1038F000C9018F7190704F9749F08091370690E021
:10390000822793278F719070892B89F480913406D8
:1039100090913506892B09F056C0E0918106F0910F
:103920008206309709F44FC080E0099558C0809115
:103930008406843011F080E008951092380680915A
:103940003806809387068FEF9FEF9093350680931C
:103950003406209185062223D9F08227282F22952C
:103960002827022E269526952025022E26952025ED
:103970002770082E892F269507942795902D82274A
:1039800006942795902582279093350680933406D8
:1039900087E08093840681E08093320683EA94E98D
:1039A0000E94F31B80912D0690912E06886D9093B6
:1039B0002E0680932D0680912D0690912E060E9452
:1039C000F31B80E008958FEF9FEFAFEFBFEF809381
:1039D0007D0690937E06A0937F06B093800681E0DB
:1039E00008950F931F93082F10E0C801966C0E9452
:1039F000F31B98012F7730702F5F3F4F442737FD1F
:103A00004095542F6BEF72E485E090E00E942525ED
:103A1000CA01B901000F012F001F110B980143E0EB
:103A2000220F331F4A95E1F7201B310B2F5F3F4FC9
:103A3000442737FD4095542F0E94252593E0569545
:103A40004795379527959A95D1F72D573C4F4F4F6E
:103A50005F4FCA01B90124E833E040E050E00E9422
:103A60002525209333061F910F9108958091840698
:103A7000843069F080918406873059F480918706FC
:103A8000882339F40E94201C84E08093840681E01E
:103A9000089580E00895982F86FD05C0907E80915E
:103AA00083068F71980F90933706E0918106F0910D
:103AB0008206309711F081E009958FEF9FEF909388
:103AC0003506809334068091340690913506209116
:103AD00085068227282F22952827022E26952695AF
:103AE0002025022E269520252770082E892F269521
:103AF00007942795902D8227069427959025822755
:103B0000909335068093340688E0809384068091F4
:103B10002D0690912E06886390932E0680932D0695
:103B200080912D0690912E060E94F31B0895DF923E
:103B3000EF92FF920F931F937B018C01DD2405C050
:103B4000D39416950795F794E7948FEFE816F10450
:103B50000105110509F0A0F780912D0690912E0620
:103B600081FF0FC080912D0690912E068D7F90933E
:103B70002E0680932D0680912D0690912E060E9490
:103B8000F31BE114F10401051105B9F0C701906EB2
:103B90003D2D20E0822B932B0E94F31B80912D065C
:103BA00090912E06826090932E0680932D06809130
:103BB0002D0690912E060E94F31B1F910F91FF90EE
:103BC000EF90DF900895E89885B121E030E040E083
:103BD00050E00090720104C0220F331F441F551F94
:103BE0000A94D2F7322F922F9095982395B91EBC44
:103BF0000DB407FEFDCF6EB51EBC0DB407FEFDCFA4
:103C00002EB5962F80E0622F70E0682B792B77FF1E
:103C10000FC080918406873059F48CB581608CBDCB
:103C20001EBC0DB407FEFDCF2EB58CB58E7F8CBDAE
:103C300085B1382B35B9E89A7093300660932F061A
:103C400080912F069091300697FFECC080918406FA
:103C5000873009F082C080918706882371F49091A3
:103C60008506992351F080918706E82FF0E0EA5C01
:103C7000F94F90838F5F8093870680918706E82FA6
:103C8000F0E0EA5CF94F20838F5F80938706809194
:103C90003406909135068227282F22952827022E58
:103CA000269526952025022E269520252770082E5C
:103CB000892F269507942795902D8227069427957E
:103CC0009025822790933506809334062091320602
:103CD000233040F58091870690E06091330602978B
:103CE00070E00E941225892BE9F480912F069091B3
:103CF0003006E22FF0E090FF04C0E852FE4F8081D2
:103D000004C0E852FE4F808182958F708093320606
:103D1000833040F490E0880F991F0196806A94697F
:103D20000E94F31B90918806992329F080918706C1
:103D3000891780F40AC0809138062091870690E0A8
:103D4000049630E0821793072CF080918706873421
:103D500008F468C00E94201C65C08091840687FF1B
:103D60002EC0E0913806809184068F5F8093840690
:103D70008150ED5FE80FF0E0EA5CF94FE08180915F
:103D80003406909135068E27282F22952827022E5B
:103D9000269526952025022E269520252770082E6B
:103DA000892F269507942795902D8227069427958D
:103DB0009025822790933506809334062EC08091FB
:103DC00084068F5F809384068150833019F184309C
:103DD0002CF4882399F08130F9F416C08B3019F057
:103DE0008C30D1F402C0EDE218C0E09185069091CC
:103DF00038068EEF891B809384060FC080913406AD
:103E000090913506E82F09C08091340690913506CF
:103E1000E92F03C00E94201CEAEA8E2F90E0986BE5
:103E20000E94F31B80912F069091300696FF03C0ED
:103E300086E08093840680912F069091300694FF4F
:103E400009C060E070E080E090E00E94971D81E092
:103E50008093310680912F069091300695FF05C022
:103E60000E94201C84E08093840608951F93182FDD
:103E70004093380629E336E0C90150E00E94090268
:103E8000812F0E944B1D1F9108958091830690E021
:103E90008F719070892B41F080E063EE7DE140E00E
:103EA00050E00E940B22089580E00E942E22089587
:103EB0001F938093830640938506609386060E9435
:103EC000451F10928806E89885E092E890932E06A8
:103ED00080932D0680912D0690912E060E94F31B53
:103EE0008091860690E074E0880F991F7A95E1F73B
:103EF000876C90680E94F31B80E496EA0E94F31B93
:103F000086E00E94F11C82EA94E90E94F31B8CEA8D
:103F100092EC0E94F31B10918506112341F083E877
:103F20009AEC0E94F31B812F90E09E6C06C08BE8F8
:103F30009AEC0E94F31B8DE29EEC0E94F31B83E837
:103F400094EC0E94F31B80E598E90E94F31B87E73D
:103F50009CEC0E94F31B80E090EE0E94F31B80E03B
:103F600098EC0E94F31B89E490EC0E94F31B84E020
:103F700080938406E89A1F91089525B181E090E02E
:103F8000A0E0B0E00090720104C0880F991FAA1F42
:103F9000BB1F0A94D2F7282B25B924B1822B84B9F0
:103FA0008AE061E00E94A80E8AE061E00E94690E4A
:103FB0008BE061E00E94690E8CE060E00E94690E77
:103FC0008DE061E00E94690E80E58CBD8DB5816059
:103FD0008DBD82E060E00E94690E82E061E00E9497
:103FE000A80E0895FF920F931F93182F062FF42EFB
:103FF0008093830640938506609386060E94BD1FCA
:104000000E94451F82E89AEC0E94F31B80E09EEF1D
:104010000E94F31B85E08093840683B7817F06C0EE
:1040200083B7816083BF889583B78E7F83BF80917C
:1040300084068530A9F3812F602F4F2D0E94581FD1
:10404000809183061F910F91FF9008958F929F9208
:10405000AF92BF92CF92DF92EF92FF920F931F9396
:10406000CF93DF937B018C01EA012CE330E040E049
:1040700050E00E9425256883C801B7012CE330E099
:1040800040E050E00E942525122F032FF42EE52E4C
:10409000622F732F842F952F2CE330E040E050E007
:1040A0000E9425256983612F702F8F2D9E2D2CE373
:1040B00030E040E050E00E942525122F032FF42E1F
:1040C000E52E622F732F842F952F28E130E040E0FA
:1040D00050E00E9425256A83612F702F8F2D9E2D21
:1040E00028E130E040E050E00E94252579018A0176
:1040F000C801B7016C5F7F4F8F4F9F4F27E030E0C3
:1041000040E050E00E9425256F5F6B8320E0AA24E9
:10411000BB24650101C02F5F822E9924F401EE5467
:10412000F84FCF0183709070892B99F4CF0164E62A
:1041300070E00E941225892B39F4CF0160E971E00B
:104140000E941225892B29F48EE691E0A0E0B0E0D0
:1041500004C08DE691E0A0E0B0E0A80EB91ECA1E32
:10416000DB1EC501A0E0B0E0E816F9060A071B0750
:1041700090F62E83F401EE54F84F83E0882E912CB4
:104180008E229F228114910499F4CF0164E670E09D
:104190000E941225892B39F4CF0160E971E00E9459
:1041A0001225892B29F48EE691E0A0E0B0E004C04E
:1041B0008DE691E0A0E0B0E0A81AB90ACA0ADB0ACD
:1041C000980187010A191B092C093D09CF0164E6F2
:1041D00070E00E9412257C01CF0160E971E00E942D
:1041E0001225AC01EBEDF1E060E0613051F4811497
:1041F000910449F4E114F10441F44115510529F009
:1042000002C0808103C08CE101C08DE190E0A0E09C
:10421000B0E0081719072A073B0740F0081B190BE5
:104220002A0B3B0B6F5F31966C30F9F66F5F6D8335
:10423000802F8F5F8C83DF91CF911F910F91FF9023
:10424000EF90DF90CF90BF90AF909F908F900895A8
:10425000EF92FF920F931F937B018C0180919F0639
:104260009091A006A091A106B091A206E816F906C9
:104270000A071B0771F0C801B70144E956E00E9424
:104280002620E0929F06F092A0060093A1061093CC
:10429000A2061F910F91FF90EF9008950E94282190
:1042A00020919A0630E02E54384FC90108950E949B
:1042B00028218091990690E008950E9428218091FC
:1042C000980690E008950E9428218091940690E03D
:1042D00008950E9428218091950690E008950E94FB
:1042E00028218091960690E0089560938B06709344
:1042F0008C0680938D0690938E06209173013091E9
:1043000074014091750150917601260F371F481FA7
:10431000591F20938F063093900640939106509337
:10432000920682E0809393060E94A10D60939B0603
:1043300070939C0680939D0690939E060895EF923D
:10434000FF920F931F931CC02F5F3F4F4F4F5F4F44
:1043500020938B0630938C0640938D0650938E06E7
:1043600088EE93E0A0E0B0E0E80EF91E0A1F1B1FE4
:10437000E0929B06F0929C0600939D0610939E0689
:104380000E94A10DE0909B06F0909C0600919D0676
:1043900010919E066E197F09800B910B20918B0660
:1043A00030918C0640918D0650918E06685E734068
:1043B0008040904048F680918F0690919006A091A1
:1043C0009106B0919206281739074A075B07B0F0AB
:1043D000E0918906F0918A06309781F00995611580
:1043E00071058105910519F00E94752107C090E0C3
:1043F00080919306811191E09093930660918B06D2
:1044000070918C0680918D0690918E061F910F9170
:10441000FF90EF900895823000F5E82FF0E0EE0F66
:10442000FF1FED55F94F71836083882319F08130A8
:10443000A1F408C0809169008C7F842B809369006F
:10444000E89A089580916900440F551F440F551F45
:10445000837F842B80936900E99A0895823080F4E9
:10446000882319F0813021F402C0E89801C0E9984E
:10447000E82FF0E0EE0FFF1FED55F94F118210828B
:1044800008951F920F920FB60F9211242F933F930E
:104490004F935F936F937F938F939F93AF93BF934C
:1044A000EF93FF938091A3069091A406892B29F0A6
:1044B000E091A306F091A4060995FF91EF91BF91B9
:1044C000AF919F918F917F916F915F914F913F91AC
:1044D0002F910F900FBE0F901F9018951F920F9263
:1044E0000FB60F9211242F933F934F935F936F93C7
:1044F0007F938F939F93AF93BF93EF93FF9380919D
:10450000A5069091A606892B29F0E091A506F091C9
:10451000A6060995FF91EF91BF91AF919F918F9161
:104520007F916F915F914F913F912F910F900FBEAF
:104530000F901F901895DF93CF9300D000D000D03C
:10454000CDB7DEB7DE011196E7EEF1E086E001902F
:104550000D928150E1F786E191E0EEEEF1E0DF01AE
:104560009C011D9221503040E1F78091A7068330D5
:1045700019F463EE75E003C0BE016F5F7F4F84E402
:1045800090E043E450E00E9496168091A7068330A5
:1045900039F08EEE91E0BE016F5F7F4F0E949B1B52
:1045A00081E0809318028093190286E080931A02BA
:1045B0008091B4069091B506A091B606B091B70669
:1045C00080931C0290931D02A0931E02B0931F02C1
:1045D0008091A706833039F488E192E00C9667ED6C
:1045E00075E00E94A31B84E392E061ED75E00E94F8
:1045F0009B1BA4E0B3E0E8E8F1E002C081918D9359
:1046000031E0EE38F307D1F79091A706992311F026
:1046100083E001C081E080930A038DE380930B0364
:1046200087E080930C0381E080930D03AEE0B3E05C
:10463000E1EDF5E002C081918D9385E0E73DF8075B
:10464000D1F78CE0809314038AE080931503A6E1F0
:10465000B3E0E7E7F1E002C081918D9321E0E1381A
:10466000F207D1F720E233E03093B9062093B80681
:10467000913069F582E38093200384E080932103E5
:10468000D9011296E7EDF5E002C081918D9335E0F6
:10469000EB3DF307D1F786E38093260384E0809314
:1046A000270388E293E09093B9068093B806DC0173
:1046B000E3EEF5E002C081918D9385E0E73EF807D7
:1046C000D1F78CE293E09093B9068093B8062091DD
:1046D000B8063091B906D901E2E8F1E002C0819153
:1046E0008D9381E0E838F807D1F7C90106969093D9
:1046F000B9068093B806885192400E940E182696FB
:104700000FB6F894DEBF0FBECDBFCF91DF910895F5
:10471000EF92FF920F931F93CF93DF93EC01809161
:10472000A706823009F4E0C0833030F4882351F1C9
:10473000813009F03DC14AC0833021F0843009F056
:1047400037C1D2C00E94A10D2091AC063091AD06B8
:104750004091AE065091AF06E090A806F090A906F1
:104760000091AA061091AB062E0D3F1D401F511F50
:10477000621773078407950708F41AC10E949B22E9
:1047800084E017C00E94A10D6093B4067093B50633
:104790008093B6069093B7061092D7051092D8056D
:1047A0001092D9051092DA050E949B220E947F1375
:1047B00081E08093A7060E94A10D6093B0067093DC
:1047C000B1068093B2069093B306F2C0C634D10509
:1047D00008F4B2C080911102833409F0ADC0809119
:1047E0001802823009F0A8C020911C0230911D02ED
:1047F00040911E0250911F028091B4069091B5061F
:10480000A091B606B091B706281739074A075B078B
:1048100009F092C080910803853309F08DC0809122
:104820000A03823009F088C0A6C0DF011196E1803A
:10483000ED01219680818630A9F0873030F48130F7
:1048400059F0833009F045C00AC08633E9F18A3354
:1048500061F08333F1F509C08BED95E037C08FED42
:1048600095E034C087EE95E031C011966C9170E010
:1048700080E090E0982F872F762F66272981620F9E
:10488000711D811D911D982F872F762F66272A81F4
:10489000620F711D811D911D982F872F762F66271E
:1048A0002B81620F711D811D911D28EE33E040E0C8
:1048B00050E00E94DF246093AC067093AD068093B5
:1048C000AE069093AF0605C083EE95E0BE010E9450
:1048D000A31BFE01EE0DF11DE017F10708F4A5CFB3
:1048E0000E949B2282E065CFC634D10528F18091D9
:1048F0001102833409F5809118028230E9F4209185
:104900001C0230911D0240911E0250911F028091A5
:10491000B4069091B506A091B606B091B7062817D7
:1049200039074A075B0741F480910803853321F476
:1049300080910A03853059F10E94A10D2091B006A3
:104940003091B1064091B2065091B306205F384DC8
:104950004F4F5F4F261737074807590748F028C0C1
:104960008FED95E00E94FC1683E08093A70620C09F
:104970001092A7061DC087ED95E068E272E00E94E4
:10498000A31BE8E0F3E08E0102511E4F4ECF0E94C0
:104990007A130E94A10D6093A8067093A9068093D4
:1049A000AA069093AB068091DF058823E9F2D8CF61
:1049B000DF91CF911F910F91FF90EF900895629F2B
:1049C000D001739FF001829FE00DF11D649FE00D07
:1049D000F11D929FF00D839FF00D749FF00D659F68
:1049E000F00D9927729FB00DE11DF91F639FB00D67
:1049F000E11DF91FBD01CF0111240895AA1BBB1BA6
:104A000051E107C0AA1FBB1FA617B70710F0A61BCE
:104A1000B70B881F991F5A95A9F780959095BC01EF
:104A2000CD01089597FB092E07260AD077FD04D003
:104A3000E5DF06D000201AF4709561957F4F089548
:104A4000F6F7909581959F4F0895A1E21A2EAA1B23
:104A5000BB1BFD010DC0AA1FBB1FEE1FFF1FA2172E
:104A6000B307E407F50720F0A21BB30BE40BF50B2B
:104A7000661F771F881F991F1A9469F760957095B4
:104A8000809590959B01AC01BD01CF010895EE0F7B
:104A9000FF1F0590F491E02D09942F923F924F92C1
:104AA0005F926F927F928F929F92AF92BF92CF92BE
:104AB000DF92EF92FF920F931F93CF93DF93CDB7C7
:104AC000DEB7CA1BDB0B0FB6F894DEBF0FBECDBF3F
:104AD00009942A88398848885F846E847D848C8410
:104AE0009B84AA84B984C884DF80EE80FD800C8119
:104AF0001B81AA81B981CE0FD11D0FB6F894DEBFFC
:0C4B00000FBECDBFED010895F894FFCF6B
:104B0C004D41433A200020002B3300455448206C83
:104B1C00696E6B3A00444F574E0055500020475772
:104B2C003A004F4B005741495400203D20002000D3
:104B3C005265786D697420746F203078002030785D
:104B4C0000457468205458206572726F720080049E
:104B5C00C0A80003C0A80003D40103010DF000E2BB
:104B6C0003840400007469692D3032015000F6FF93
:104B7C00010A022C01000041726475696E6F2D30C0
:104B8C0030003703010306FF6382536335010000D5
:104B9C00000068091C11B202B7089B08FCFF00005A
:104BAC00B3089A080000000068091C119908B7089E
:104BBC009B08FCFF0000B3089A0800000000FE0AE6
:104BCC001B0A0000000077101C110D103E101E1067
:104BDC006710FFFFFFFFFFFF3402561F1C1F1E1F35
:0E4BEC001E1F1F1E1F1E1FFFFFFFFFFFFF00EB
:00000001FF
