:100000000C9402020C949D230C94CA230C942A0293
:100010000C942A020C942A020C942A020C942A02B0
:100020000C942A020C942A020C942A020C942A02A0
:100030000C942A020C942A020C942A020C942A0290
:100040000C94E10C0C942A020C945F0E0C94AD0EEF
:100050000C942A020C942A020C942A020C942A0270
:100060000C942A020C942A0243616E6E6F74207302
:10007000656E642074696D652075706461746500D7
:1000800053656E742074696D652075706461746564
:1000900000206372633D30780020616E6E6F756E74
:1000A00063652069643D30780020746F206D676D52
:1000B0006E742073657276657200206C656E3D000B
:1000C000206D6F64756C653D00524631322052439D
:1000D00056207061636B65743A206864723D3078B5
:1000E00000495020616464723A20004950206164E4
:1000F00064723A2000495020616464723A20002AF8
:100100002A2A2A2A2052554E4E494E473A206574D3
:10011000685F6E6F64652E696E6F004661696C651D
:100120006420746F20616363657373204574686530
:10013000726E657420636F6E74726F6C6C657200A2
:100140002A2A2A2A2A2053455455503A2065746891
:100150005F6E6F64652E696E6F004554483A206C7F
:10016000656E677468206D69736D617463682000E3
:10017000206E6F7420666F756E6420696E20636FE9
:100180006E6669675F7265616400436F6E6669677A
:100190003A206D6F64756C652000206E6F74206668
:1001A0006F756E6420696E20636F6E6669675F7736
:1001B0007269746500436F6E6669673A206D6F649B
:1001C000756C6520002020435243206D6174636884
:1001D00065732100202043524320646F6573206EB5
:1001E0006F74206D61746368210020627974657397
:1001F00000206D617829002076732E20007468201D
:100200006D6F64756C6520697320746F6F206C610D
:10021000726765202800434F4E4649473A2074686C
:10022000652073697A65206F662074686520636F46
:100230006E66696720666F722074686520002063AF
:100240006F6E666967732000436F6E6669673A2058
:10025000002074696D650020657468002072663145
:100260003200206C6364002073657269616C004326
:100270006F6E666967204C6F673A00202072656474
:100280007563696E6720747820706F77657220617E
:100290006E64207278206761696E002067726F75E6
:1002A000705F69643D00436F6E666967204E6574D8
:1002B0003A206E6F64655F69643D00436F6E6669E6
:1002C000673A20004E65743A2073656E64696E6704
:1002D00020616E6E6F756E63656D656E74000000F3
:1002E0000000240027002A0000000000250028004C
:1002F0002B00000000002300260029000404040451
:1003000004040404020202020202030303030303BF
:10031000010204081020408001020408102001029C
:10032000040810200000000700020100000304067A
:1003300000000000000000000001080006040001A9
:10034000450000820000400020504F5354202446B6
:1003500020485454502F312E300D0A486F73743A90
:100360002024460D0A244624534163636570743A81
:10037000202A2F2A0D0A436F6E74656E742D4C650A
:100380006E6774683A2024440D0A436F6E74656E7C
:10039000742D547970653A206170706C6963617472
:1003A000696F6E2F782D7777772D666F726D2D754B
:1003B000726C656E636F6465640D0A0D0A245300E8
:1003C000474554202446245320485454502F312E5E
:1003D000300D0A486F73743A2024460D0A24460DE6
:1003E0000A0D0A004163636570743A20746578747D
:1003F0002F68746D6C00E30004FA00010000000136
:10040000CA02191011241FBECFEFD8E0DEBFCDBF46
:1004100011E0A0E0B1E0ECE3F9E402C005900D9238
:10042000AA3BB107D9F716E0AAEBB1E001C01D92D3
:10043000AE3BB107E1F714E0C4E0D4E004C022977A
:10044000FE010E946124C030D107C9F70E946F10DD
:100450000C949C240C940000FB01DC0102C005906C
:100460000D9241505040D8F70895FB01DC0104C0C3
:100470008D910190801921F441505040C8F7881B9C
:10048000990B0895FB01DC0102C001900D924150CF
:100490005040D8F70895A0E0B0E0E1E5F2E00C9418
:1004A0006F247C01EB018A01690109C0CE0121960C
:1004B000F6010995F70181937F0101501040011564
:1004C0001105A1F7CDB7DEB7E8E00C948B24A0E0CE
:1004D000B0E0EDE6F2E00C946F24EC017B018A01C0
:1004E000690109C0CE012196F70161917F01F601F2
:1004F00009950150104001151105A1F7CDB7DEB7E0
:10050000E8E00C948B24DF92EF92FF920F931F93FD
:10051000D72E7A018C01FA010995C80101966D2D3B
:10052000F70109951F910F91FF90EF90DF900895CB
:10053000282F442321F08091DF01841749F5809111
:10054000E001882329F58091E101883309F5809144
:10055000DD018B37E9F4E22FF92F80910C028383C0
:1005600080910D02828380910E02818380910F021F
:100570008083FB018091100283838091110282832A
:1005800080911202818380911302808381E008951B
:1005900080E008958EEA93E064ED40E00E94D70980
:1005A0001092D8041092DB0482E08093DC048EE881
:1005B00094E00E94C3088FE591E090938F048093AC
:1005C0008E040E9690939304809392040895EF9274
:1005D000FF920F931F93F62EE72E042F8FE097E2E2
:1005E0006EE171E04FE057E20E94FA1781E08093DC
:1005F000E4010E94FB226093E5017093E601809381
:10060000E7019093E80129EE31E0C9016F2D7E2DBD
:10061000402F50E00E94420210E0C80105960E945F
:1006200072198091DD049091DE04A091DF04B091F5
:10063000E0040196A11DB11D8093DD049093DE04BA
:10064000A093DF04B093E0041F910F91FF90EF900F
:100650000895CF93DF938DE895E040E051EE60E0A0
:1006600070E00E94E80E8DE895E060E471E00E9481
:10067000F3108091DC04882311F483E101C0835FCF
:1006800061E00E94CB0D8091DC04882311F483E1AA
:1006900001C0835F60E00E940A0E8091DC04882321
:1006A00011F482E101C08D5F61E00E94CB0D809169
:1006B000DC04882311F482E101C08D5F60E00E94B8
:1006C0000A0E8DE291E00E9479078091FB0481304F
:1006D00029F08EEA93E061E00E94F3098DE895E04D
:1006E00060E071E00E946612C0E0D0E0FE01ED5CC7
:1006F000FE4F8DE895E0608140E150E00E94C4111A
:10070000C53029F08DE895E06AE30E94CB10219670
:10071000C630D10559F78DE895E00E94D3100CC082
:100720008DE895E06BE171E00E94F31068EE73E0F4
:1007300080E090E00E94370D84EF91E063E371E088
:1007400048E00E940F17882359F386ED94E068EE85
:1007500073E00E942B1D8DE895E06FEF70E00E9422
:10076000F3108091DC04882311F483E101C0835FDE
:1007700060E00E94CB0DDF91CF9108951F931091FF
:10078000E1018091DF018F3009F065C08091DE01C9
:10079000873209F060C08091E001882309F05BC0D6
:1007A000133008F458C0163408F055C08091E601A3
:1007B000181721F180911C0190911D016AE571E0EB
:1007C0000E94A81080911C0190911D01612F4AE0A8
:1007D00050E00E94C41180911C0190911D0166E0BF
:1007E00071E00E94661280911C0190911D01609140
:1007F000E6014AE050E00E94D6112DC08EEA93E057
:100800000E94C209009729F1212F30E02350304087
:1008100047EE51E0BA01A9010E94420213508EEA4C
:1008200093E0612F4091E5010E94A40B8091F104B7
:100830009091F204A091F304B091F4040196A11DEB
:10084000B11D8093F1049093F204A093F304B0934C
:10085000F40481E001C080E01F910895CF92DF92FF
:10086000EF92FF920F931F93DF93CF9300D000D0AE
:100870000F92CDB7DEB70E944315882369F086ED4D
:1008800094E068E873E10E942B1D882329F082E23E
:1008900091E06BE70E94A1198091EE05882369F130
:1008A00089ED94E068E471E70E942B1D8823B9F17B
:1008B00080E090E00E94561386E291E067E04FE00E
:1008C00057E22EE131E00FE017E20E94531C8091C5
:1008D000DD049091DE04A091DF04B091E004019664
:1008E000A11DB11D8093DD049093DE04A093DF046D
:1008F000B093E00485EF90E00EC089ED94E064EFE2
:1009000071E00E942B1D882351F080E090E00E944E
:1009100056138BEE90E06EEE75E00E94E41C809121
:10092000EE05882319F464EF71E002C068E471E712
:1009300089ED94E00E942B1D882351F080E090E027
:100940000E94561381EE90E06EEE75E00E94E41C6A
:100950008EEA93E00E94E30B882309F4A7C08091FC
:100960001C0190911D0169EC70E00E94A81060913B
:100970004E0680911C0190911D0140E150E00E94C3
:10098000C41180911C0190911D0160EC70E00E94E7
:10099000A8106091500680911C0190911D014AE0C1
:1009A00050E00E94C41180911C0190911D016AEBDE
:1009B00070E00E94A81060914F0680911C019091F8
:1009C0001D014AE050E00E94C4118091E104909121
:1009D000E204A091E304B091E4040196A11DB11DCD
:1009E0008093E1049093E204A093E304B093E404C1
:1009F00080914E068F7D813449F480911C01909145
:100A00001D0169EA70E00E94F3102CC080914E062F
:100A100020911C0130911D018E3109F044C0C901A3
:100A200069E970E00E94A8106091500680911C0155
:100A300090911D014AE050E00E94C41180911C0178
:100A400090911D0161E970E00E94A810609151062B
:100A50007091520680911C0190911D014AE050E076
:100A60000E94A71160914F066D5F8DE496E04FE004
:100A700057E22EE131E00FE017E20E94531C809113
:100A8000DD049091DE04A091DF04B091E0040196B2
:100A9000A11DB11D8093DD049093DE04A093DF04BB
:100AA000B093E00403C0C9010E94D3100E948215D4
:100AB0008C010E94F2190B3211050CF451C1809186
:100AC000C601883009F04CC18091C701882309F024
:100AD00047C18091D101813109F042C18091E50483
:100AE0009091E604A091E704B091E8040196A11D5D
:100AF000B11D8093E5049093E604A093E704B093BE
:100B0000E8048091DD01833421F4C8010E9456136A
:100B100027C10E94BE03882309F022C189EE94E018
:100B20006DEE74E04BE70E949802882309F418C127
:100B30006091E9047091EA048091EB049091EC04D7
:100B400060587E478A4A93486093E9047093EA04A8
:100B50008093EB049093EC040E94D1228091DC04FA
:100B6000882311F483E101C0835F61E00E94CB0D13
:100B70000E94961E8823A1F1FE01319685E0DF01D7
:100B80001D928A95E9F782E089838091E90490912A
:100B9000EA04A091EB04B091EC048A839B83AC83BC
:100BA000BD8381E0BF0145E00E9492208091F10465
:100BB0009091F204A091F304B091F4040196A11D68
:100BC000B11D8093F1049093F204A093F304B093C9
:100BD000F40480911C0190911D0160E870E006C052
:100BE00080911C0190911D0168E670E00E94F31055
:100BF0000E94FB226B017C0180911C0190911D01E0
:100C000068E071E00E9466124091E9045091EA04A4
:100C10006091EB047091EC0480911C0190911D0196
:100C20002AE030E00E94871180911C0190911D0103
:100C30006EE20E94CB104091ED045091EE04609161
:100C4000EF047091F00480911C0190911D012AE045
:100C500030E00E94871180911C0190911D0166E196
:100C600071E00E94661200911C0110911D01C701E4
:100C7000B6010E94B322BC01C8014AE050E00E94C4
:100C8000341280911C0190911D016FE20E94CB10E3
:100C900000911C0110911D01C701B6010E94B922EB
:100CA000BC01C8014AE050E00E94341280911C014E
:100CB00090911D016FE20E94CB1000911C011091D8
:100CC0001D01C701B6010E94AA22BC01C8014AE069
:100CD00050E00E94341280911C0190911D0160E24D
:100CE0000E94CB1000911C0110911D01C701B6019B
:100CF0000E94CB22BC01C8014AE050E00E9434129D
:100D000080911C0190911D016AE30E94CB1000911B
:100D10001C0110911D01C701B6010E94C522BC0132
:100D2000C8014AE050E00E94341280911C01909169
:100D30001D016AE30E94CB1000911C0110911D015E
:100D4000C701B6010E94BF22BC01C8014AE050E0C1
:100D50000E94341280911C0190911D010E94D310B9
:100D60006091E1048091DC04882311F483E101C0E7
:100D7000835F61700E940A0E8091EE059091DC0401
:100D80008823B1F0992311F482E102C0892F8D5F8D
:100D900061E00E940A0E6091E5048091DC048823E2
:100DA00011F482E101C08D5F61700E94CB0D13C010
:100DB000992311F482E102C0892F8D5F61E00E94C6
:100DC000CB0D8091DC04882311F482E101C08D5F9A
:100DD00060E00E940A0E0F900F900F900F900F90FE
:100DE000CF91DF911F910F91FF90EF90DF90CF9007
:100DF00008959C01F999FECF32BD21BDF89A80B5C6
:100E000008959C01F999FECF1FBA32BD21BD60BD86
:100E10000FB6F894FA9AF99A0FBE08951F93182FF7
:100E20005091F704A091F504B091F60420E230E06F
:100E300090E047C0ED91FD9182814381811709F0D7
:100E40003DC0C90150E021E037E00E9467024091B7
:100E5000F8045091F904FA01329720E030E06FEF86
:100E60007FEF21C0F999FECF205E3F4F32BD21BDFB
:100E7000F89A80B56827862F82958627082E869552
:100E800086958025082E869580258770062E672FEB
:100E9000869507948795702D682706948795702509
:100EA00068272F5130402E173F0708F4DBCFCA01C7
:100EB0004E9641E057E00E94830219C0240F311D75
:100EC0009F5F951708F4B6CF8DE895E065EB71E06C
:100ED0000E94A8108DE895E0612F4AE050E00E9442
:100EE000C4118DE895E06AE971E00E94F3101F914A
:100EF00008958F929F92AF92BF92DF92EF92FF92EE
:100F00000F931F93DF93CF93CDB7DEB7C054D0407C
:100F10000FB6F894DEBF0FBECDBF5C0120E0322FCC
:100F20003F5FE22FF0E0EE0FFF1FEA0DFB1D808117
:100F30009181892B11F0232FF2CF2093F704B092E7
:100F4000F604A092F5048DE895E068E472E00E9452
:100F5000A8108DE895E06091F7044AE050E00E9407
:100F6000C4118DE895E06EE372E00E94A810109223
:100F7000F9041092F804EE244EC00E2D10E0F80192
:100F8000EE0FFF1FEA0DFB1D0190F081E02DF380B5
:100F900080E48F15A8F58DE895E00E94D3108DE8C8
:100FA00095E066E172E00E94A8100F5F1F4F8DE888
:100FB00095E0B8014AE050E00E9434128DE895E0D7
:100FC0006DEF71E00E94A8108DE895E06F2D4AE06A
:100FD00050E00E94C4118DE895E067EF71E00E9437
:100FE000A8108DE895E060E470E04AE050E00E94CF
:100FF00034128DE895E061EF71E00E94F3100AC0B1
:101000008091F8049091F9048F0D911D9093F9044B
:101010008093F804E3948091F704E81608F4ADCFC8
:101020006091F8047091F9046E5F7F4F7093F9043A
:101030006093F8048DE895E04AE050E00E94961134
:101040008DE895E06AEE71E00E94F3106091F8047B
:101050007091F90420E030E04FEF5FEF21C0F99983
:10106000FECF205E3F4F32BD21BDF89A80B54827A4
:10107000842F82958427082E869586958025082EB4
:10108000869580258770042E452F86950794879531
:10109000502D482706948795502548272F513040DA
:1010A0002617370708F4DBCF452B01F18DE895E0D3
:1010B00064ED71E00E94F31010E013C0E12FF0E046
:1010C000EE0FFF1FEA0DFB1DA081B181ED91FC9198
:1010D00011970190F081E02DCD0160E070E009955D
:1010E0001F5F8091F704181748F337C08DE895E02B
:1010F00065EC71E00E94F31090E2E92EF12CDD2402
:101100004E010894811C911C24C00D2D10E0000F8D
:10111000111F0A0D1B1DD801ED91FC914381C401E3
:10112000B70150E029EF36E00E944B02F801A081A0
:10113000B181ED91FC9111970190F081E02DCD01ED
:10114000B4010995D801ED91FC918381E80EF11C61
:10115000D3948091F704D816C0F2C05CDF4F0FB66D
:10116000F894DEBF0FBECDBFCF91DF911F910F91DD
:10117000FF90EF90DF90BF90AF909F908F90089579
:10118000089508950895FC011382128285E791E085
:10119000918380830E9695838483E95BFF4F108251
:1011A000E754F04081E08683878380E08160808718
:1011B000089504970E94DD080895CF93DF93EC0112
:1011C000FB01BC01685F7F4F309719F080818887F1
:1011D00006C080E08160888781E00E940E078DE86C
:1011E00095E06FE672E00E94A810888580FF06C037
:1011F0008DE895E067E672E00E94A810888581FF7F
:1012000006C08DE895E062E672E00E94A81088852D
:1012100082FF06C08DE895E06CE572E00E94A810A0
:10122000888583FF06C08DE895E067E572E00E943F
:10123000A810888584FF06C08DE895E061E572E01E
:101240000E94A8108DE895E00E94D310DF91CF9105
:101250000895EF92FF920F931F93CF93DF937C013A
:10126000EC01C95BDF4F8881F701E80FF11D1186A2
:10127000D70118968C9180FF15C0B701675F7F4F2B
:101280008DE895E00E9466128881882359F0F70165
:10129000E80FF11D80858A3029F48DE895E06DE036
:1012A0000E94CB10F701808582FF27C08EEA93E071
:1012B0000E94C209EC01009701F181E088830E943D
:1012C000FB2269837A838B839C83BE016B5F7F4F94
:1012D0008701095B1F4FD8014C919701275F3F4F52
:1012E000CB01B90150E00E944202F80160816B5FBE
:1012F0008EEA93E041E00E94DB0BD70118968C91B7
:10130000189783FF0EC0ED91FC911197B701675FAD
:101310007F4FA95BBF4F0480F581E02DC7014C9141
:101320000995E7E4F0E0EE0EFF1ED7011C92DF9175
:10133000CF911F910F91FF90EF9008951F93CF933E
:10134000DF93EC01162FC95BDF4F8881C754D04073
:101350008D3318F0CE010E942909DE01A95BBF4F31
:101360008C91FE01E80FF11D11878F5F8C931A306D
:1013700019F4CE010E94290981E090E0DF91CF911C
:101380001F910895FC01E053FF4F9081E05DF04014
:10139000933018F020E030E008C084E4989F90017A
:1013A00011242A5F3F4F2E0F3F1FC9010895FC01F2
:1013B0008BE891E091838083E252FF4F61934083F9
:1013C000389780E8808333968FEF9FEFAFEFBFEFC2
:1013D00080839183A283B383EA5DF040128282E02E
:1013E000838308950895EF92FF920F931F938C01CA
:1013F0006093FB048DE895E066EA72E00E94A81015
:101400008DE895E06091FB044AE050E00E94C41131
:101410008DE895E06BE972E00E94A8108EEDE82E51
:10142000F12CE00EF11E8DE895E0F70160814AE0B5
:1014300050E00E94D6118091FB0463E0F7014081E7
:101440000E944E2101521F4FF8018081882371F0C4
:101450008DE895E06BE772E00E94F31087E598E96C
:101460000E947D1D82EB94E90E947D1D1F910F91CA
:10147000FF90EF900895AF92BF92CF92DF92EF92DC
:10148000FF920F931F93DF93CF9300D00F92CDB7AE
:10149000DEB77C018091FB04F701E952FF4F8130F8
:1014A00071F480830E94290D2AED30E0E20EF31ED4
:1014B000D7016D937D938D939C93139763C0808127
:1014C00087FF17C081EA8083E8EDF0E0EE0EFF1E93
:1014D00085E59AEAD7018D939D937D010E94290DA0
:1014E000F701608371838283938326E23FEFE20EEC
:1014F000F31E0E94961E882309F444C0FE01319613
:1015000083E0DF011D928A95E9F7870109521F4F99
:10151000D8018C91898328ED30E0E20EF31ED701CB
:101520008D919C9128E23FEFE20EF31E9B838A830C
:101530008EE1BF0143E00E9492200E94290D5B01D1
:101540006C01D8018C9187FD05C020E23EE440E0AB
:1015500050E004C024EF31E040E050E0EAEDF0E07C
:10156000EE0EFF1E2A0D3B1D4C1D5D1DD7012D9358
:101570003D934D935C9313978DE895E064EC72E096
:101580000E94F3100F900F900F90CF91DF911F9159
:101590000F91FF90EF90DF90CF90BF90AF900895A4
:1015A000CF92DF92EF92FF920F931F93DF93CF932F
:1015B000CDB7DEB77C01CDB6DEB6FB018B01611580
:1015C000710569F180818E3151F18DE895E06BEB09
:1015D00072E00E94A8108DE895E0F80160814AE071
:1015E00050E00E94C4118DE895E06AE171E00E942C
:1015F0006612F80161818DE895E070E04AE050E004
:101600000E94471287ED90E0E80EF91EF8018081F4
:10161000F701808389E29FEFE80EF91E0FC000D02A
:101620000DB71EB70F5F1F4F8EE1EDB7FEB7818379
:10163000F801118280E0B8010E940E07F801608174
:101640006093FB0481818093FA04C7010E94F3092F
:10165000C7010E943B0A0FB6F894DEBE0FBECDBE96
:10166000CF91DF911F910F91FF90EF90DF90CF907E
:1016700008951F93CF93DF93EC01862F6091FB04B5
:10168000861711F4682F01C06064162F10680E943D
:10169000961E882339F0812F60E070E040E00E94C0
:1016A000922003C0CA52DF4F1883DF91CF911F9160
:1016B00008951F93CF93DF93EC01C053DF4F8881D0
:1016C000C05DD0408823E1F11C81CF52DF4F88817B
:1016D000C15DD04090E007970CF01F7DBE016A5FAE
:1016E0007F4F812F4D810E94922015FD1BC0C0535A
:1016F000DF4F8881C05DD040823050F0DE0114960B
:10170000FE01E85BFF4F88E801900D928150E1F700
:10171000FE01E053FF4F808181508083CF52DF4F25
:1017200018820EC0FE01EF52FF4F80818F5F8083D1
:101730000E94290DCE52DF4F688379838A839B8371
:10174000DF91CF911F910895CF93DF93EC01DC01DE
:10175000A053BF4F2C91233058F530E084E490E043
:10176000289FF001299FF00D389FF00D1124EC0FF8
:10177000FD1F65838C9190E0FC0154E0EE0FFF1F8C
:101780005A95E1F7E80FF91F3196EE0FFF1FEE0FA4
:10179000FF1FEC0FFD1F40838C918F5F8C93813076
:1017A00039F40E94961E882319F0CE010E94590B2D
:1017B000DF91CF910895442311F441E401C041E643
:1017C0000E94A40B08950F931F93CF93DF93EC0116
:1017D0000E94991D882309F493C080914B06909133
:1017E0004C06892B09F088C080914E0687FD4FC0BA
:1017F00080914E0685FF06C060914E066F71CE0146
:101800000E94390B8091FB04813009F4C8C080919B
:101810004E068F718E3109F0C2C0FE01E952FF4FB2
:10182000908197FF6DC080915006891709F068C0BC
:1018300020915106C852DF4F48815981C85DD04080
:1018400030E0852F99272817390709F059C0809172
:10185000520690E050708417950709F051C08091AE
:101860005406808380915506882319F0813031F425
:1018700003C01092FA0402C08093FA04C652DF4FEC
:10188000188219821A821B82CA5DD04039C08091A9
:101890004E0685FD35C020914E0630E02F71307028
:1018A0008091FB0490E02817390751F5C053DF4FB2
:1018B0009881C05DD040992319F1CF52DF4F8881C4
:1018C000C15DD0408823E1F0923050F0DE011496E3
:1018D000FE01E85BFF4F88E801900D928150E1F72F
:1018E000FE01E053FF4F808181508083CF52DF4F54
:1018F0001882C15DD04004C080914B0690914C0687
:10190000C952DF4F8881C75DD04087FF4BC00E941E
:10191000290DC652DF4F288139814A815B81CA5D1A
:10192000D0406217730784079507E0F1CE010E944B
:101930003B0A2FC00E94961E8823D9F1F8018081AE
:1019400060E070E040E00E949220F801108221C027
:10195000CF52DF4F8881C15DD040882399F00E942B
:10196000290DCE52DF4F288139814A815B81C25DCA
:10197000D0402C593F4F4F4F5F4F6217730784077A
:10198000950738F00E94961E882319F0CE010E9418
:10199000590B80E0DF91CF911F910F9108958091B5
:1019A0005006F8CF8E010A521F4FF801808188231C
:1019B00009F6C053DF4F8881C05DD040882349F3CA
:1019C000C7CF1F920F920FB60F9211242F933F9300
:1019D0008F939F93AF93BF938091000590910105E2
:1019E000A0910205B0910305309104050196A11D57
:1019F000B11D232F2D5F2D3720F02D570196A11DEE
:101A0000B11D209304058093000590930105A093D8
:101A10000205B09303058091FC049091FD04A09110
:101A2000FE04B091FF040196A11DB11D8093FC043A
:101A30009093FD04A093FE04B093FF04BF91AF9177
:101A40009F918F913F912F910F900FBE0F901F90FC
:101A500018958FB7F89420910005309101054091B9
:101A60000205509103058FBFB901CA0108959B017A
:101A7000AC017FB7F8948091FC049091FD04A09193
:101A8000FE04B091FF0466B5A89B05C06F3F19F036
:101A90000196A11DB11D7FBFBA2FA92F982F8827AE
:101AA000860F911DA11DB11D62E0880F991FAA1F0D
:101AB000BB1F6A95D1F7BC012DC0FFB7F894809188
:101AC000FC049091FD04A091FE04B091FF04E6B5E2
:101AD000A89B05C0EF3F19F00196A11DB11DFFBFE6
:101AE000BA2FA92F982F88278E0F911DA11DB11DE8
:101AF000E2E0880F991FAA1FBB1FEA95D1F7861B4A
:101B0000970B885E9340C8F22150304040405040CF
:101B100068517C4F211531054105510571F6089535
:101B2000789484B5826084BD84B5816084BD85B5B8
:101B3000826085BD85B5816085BDEEE6F0E080817F
:101B400081608083E1E8F0E01082808182608083A0
:101B5000808181608083E0E8F0E080818160808323
:101B6000E1EBF0E0808184608083E0EBF0E0808155
:101B700081608083EAE7F0E08081846080838081F7
:101B8000826080838081816080838081806880839F
:101B90001092C1000895CF93DF93482F50E0CA01FF
:101BA000805F9C4FFC01349144505D4FFA01849159
:101BB000882369F190E0880F991FFC01E252FD4FE4
:101BC000A591B491FC01E851FD4FC591D4916623D4
:101BD00051F42FB7F8948C91932F909589238C937F
:101BE000888189230BC0623061F42FB7F8948C91FF
:101BF000932F909589238C938881832B88832FBF83
:101C000006C09FB7F8948C91832B8C939FBFDF9174
:101C1000CF910895482F50E0CA018C5D9C4FFC0184
:101C20002491CA01805F9C4FFC01949144505D4F08
:101C3000FA013491332309F440C0222351F12330B7
:101C400071F0243028F42130A1F0223011F514C0B5
:101C50002630B1F02730C1F02430D9F404C080918F
:101C600080008F7703C0809180008F7D80938000FB
:101C700010C084B58F7702C084B58F7D84BD09C044
:101C80008091B0008F7703C08091B0008F7D8093EA
:101C9000B000E32FF0E0EE0FFF1FE851FD4FA591DC
:101CA000B4912FB7F894662321F48C9190958923F1
:101CB00002C08C91892B8C932FBF089508951F9299
:101CC0000F920FB60F9211242F933F934F938F9340
:101CD0009F93EF93FF938091C00082FD1DC04091C0
:101CE000C60020914505309146052F5F3F4F2F7369
:101CF000307080914705909148052817390771F099
:101D0000E0914505F0914605EB5FFA4F4083309333
:101D100046052093450502C08091C600FF91EF91D2
:101D20009F918F914F913F912F910F900FBE0F90E8
:101D30001F901895E0919905F0919A05E05CFF4F8E
:101D40008191919120813181821B930B8F739070CF
:101D5000892B11F00E945E0E08951F920F920FB60C
:101D60000F9211242F933F938F939F93EF93FF93A1
:101D70002091890530918A0580918B0590918C0581
:101D80002817390731F48091C1008F7D8093C100FD
:101D900014C0E0918B05F0918C05E75BFA4F208130
:101DA00080918B0590918C0501968F739070909324
:101DB0008C0580938B052093C600FF91EF919F9136
:101DC0008F913F912F910F900FBE0F901F901895FC
:101DD000AF92BF92DF92EF92FF920F931F93CF9338
:101DE000DF93EC017A018B01DD24403081EE58074E
:101DF00080E0680780E0780711F0DD24D39491E05B
:101E0000A92EB12CEC89FD89DD2069F0C50108A05F
:101E100002C0880F991F0A94E2F7808360E079E09E
:101E20008DE390E005C0108260E874E88EE190E0F8
:101E3000A80197010E943D2421503040404050406D
:101E4000569547953795279580E12030380720F043
:101E5000DD2011F0DD24D6CFE889F9893083EA89C5
:101E6000FB89208319A2EE89FF89408121E030E0BF
:101E7000C9010C8C02C0880F991F0A94E2F7482B05
:101E80004083EE89FF894081C9010D8C02C0880F13
:101E9000991F0A94E2F7482B4083EE89FF8940811D
:101EA000C9010E8C02C0880F991F0A94E2F7482BD3
:101EB0004083EE89FF8980810F8C02C0220F331F7F
:101EC0000A94E2F7209528232083DF91CF911F9178
:101ED0000F91FF90EF90DF90BF90AF900895DC01DD
:101EE0001C96ED91FC911D97E05CFF4F2191319183
:101EF00080819181281B390B2F733070C90108959F
:101F0000DC011C96ED91FC911D97E05CFF4F208158
:101F10003181E054F040DF01AE5BBF4F8D919C9169
:101F200011972817390719F42FEF3FEF07C08D914C
:101F30009C91E80FF91F8081282F30E0C901089596
:101F4000DC011C96ED91FC911D97E05CFF4F208118
:101F50003181E054F040DF01AE5BBF4F8D919C9129
:101F600011972817390719F42FEF3FEF10C08D9103
:101F70009C911197E80FF91F20818D919C911197E9
:101F800001968F73907011969C938E9330E0C901E7
:101F90000895DC0191968C919197882339F054969D
:101FA000ED91FC915597808186FFF9CF91961C9217
:101FB0000895CF93DF93EC01EE85FF85E05CFF4F42
:101FC00020813181E054F0402F5F3F4F2F733070FC
:101FD000DF01AE5BBF4F8D919C9111972817390798
:101FE000D1F3E05CFF4F80819181E054F040E80F35
:101FF000F91F6083EE85FF85E05CFF4F318320830E
:10200000EE89FF89208181E090E00F8C02C0880F6B
:10201000991F0A94E2F7282B208381E089A3EC8999
:10202000FD8980818064808381E090E0DF91CF91A1
:1020300008951092900510928F0588EE93E0A0E02D
:10204000B0E08093910590939205A0939305B0938F
:10205000940583E991E090938E0580938D0585E04A
:1020600095E090939A058093990589E495E0909383
:102070009C0580939B0585EC90E090939E05809352
:102080009D0584EC90E09093A00580939F0580ECE3
:1020900090E09093A2058093A10581EC90E090934D
:1020A000A4058093A30582EC90E09093A60580930D
:1020B000A50586EC90E09093A8058093A70584E0A1
:1020C0008093A90583E08093AA0587E08093AB0500
:1020D00085E08093AC0581E08093AD050895CF93B2
:1020E000DF930E94900D0E942903CAE9DEE00E945E
:1020F0002E042097E1F30E949A0EF9CFCF92DF923F
:10210000EF92FF920F931F93CF93DF937C016B01AC
:102110008A01C0E0D0E00FC0D6016D916D01D701FA
:10212000ED91FC910190F081E02DC7010995C80F58
:10213000D91F015010400115110571F7CE01DF9133
:10214000CF911F910F91FF90EF90DF90CF90089566
:10215000EF92FF920F931F93CF93DF937C018B013C
:10216000C0E0D0E0F8010F5F1F4F6491662359F083
:10217000D701ED91FC910190F081E02DC701099507
:10218000C80FD91FEFCFCE01DF91CF911F910F91D3
:10219000FF90EF900895DC01ED91FC910190F081AA
:1021A000E02D09950895EF92FF920F931F938C01F4
:1021B000DC01ED91FC910190F081E02D6DE009953D
:1021C0007C01D801ED91FC910190F081E02DC801D6
:1021D0006AE009959C012E0D3F1DC9011F910F91C9
:1021E000FF90EF900895EF92FF920F931F937C0161
:1021F0000E94A8108C01C7010E94D3109C01200FDF
:10220000311FC9011F910F91FF90EF900895CF9357
:10221000DF93EC016115710519F420E030E00FC087
:10222000DB010D900020E9F71197A61BB70BE881A1
:10223000F9810280F381E02DAD0109959C01C9016E
:10224000DF91CF9108954F925F927F928F929F92EC
:10225000AF92BF92CF92DF92EF92FF920F931F93B4
:10226000DF93CF93CDB7DEB7A1970FB6F894DEBF5B
:102270000FBECDBF2C01742ECB01223008F42AE012
:1022800019A231E2C32ED12CCC0EDD1E822E992450
:10229000AA24BB24672D752FA50194010E943D241B
:1022A00079018A01C801B701A50194010E94F723B1
:1022B000472D461B0894C108D1084A3010F4405DF0
:1022C00001C0495CF6014083E114F10401051105E8
:1022D00021F07E2C5F2DC801DDCFC201B6010E9426
:1022E0000711A1960FB6F894DEBF0FBECDBFCF91F8
:1022F000DF911F910F91FF90EF90DF90CF90BF90F3
:10230000AF909F908F907F905F904F900895DC01E9
:102310002115310541F4ED91FC910190F081E02D02
:10232000642F099508950E9423110895EF92FF925A
:102330000F931F939A017B0100E010E0B801A70101
:102340000E9487111F910F91FF90EF900895CF92F7
:10235000DF92EF92FF920F931F936C017B019A0122
:1023600000E010E0B801A7010E9487118C01C601AE
:102370000E94D310080F191FC8011F910F91FF90E1
:10238000EF90DF90CF900895EF92FF920F931F93FD
:102390009A01E62EFF2400E010E0B801A7010E9498
:1023A00087111F910F91FF90EF900895CF92DF92C8
:1023B000EF92FF920F931F936C01E62E9A01FF2478
:1023C00000E010E0B801A7010E9487118C01C6014E
:1023D0000E94D310080F191FC8011F910F91FF9081
:1023E000EF90DF90CF900895CF92DF92EF92FF921F
:1023F0000F931F93CF93DF93EC016A017B012115AB
:10240000310541F4E881F9810190F081E02D642FDC
:1024100009951FC02A303105D1F477FF17C0E88134
:10242000F9810190F081E02D6DE209958C0144273E
:102430005527BA014C195D096E097F09CE012AE0C2
:102440000E9423119801280F391F04C02AE00E941E
:1024500023119C01C901DF91CF911F910F91FF9032
:10246000EF90DF90CF900895EF92FF920F931F931C
:102470007B019A010027F7FC0095102FB801A701F6
:102480000E94F4111F910F91FF90EF900895CF9249
:10249000DF92EF92FF920F931F936C017B019A01E1
:1024A0000027F7FC0095102FB801A7010E94F41136
:1024B0008C01C6010E94D310080F191FC8011F917B
:1024C0000F91FF90EF90DF90CF9008950E94071139
:1024D0000895DF93CF9300D000D000D0CDB7DEB702
:1024E000DE011196EFE9F1E086E001900D92815056
:1024F000E1F786E191E0EAEBF1E0DF019C011D925A
:1025000021503040E1F78091AF05833019F46AEF34
:1025100075E003C0BE016F5F7F4F84E490E043E449
:1025200050E00E94FA178091AF05833039F08AEBB2
:1025300091E0BE016F5F7F4F0E94FB1C81E08093A2
:10254000E4018093E50186E08093E6018091BC057B
:102550009091BD05A091BE05B091BF058093E801A3
:102560009093E901A093EA01B093EB018091AF054C
:10257000833039F484EE91E00C966EEE75E00E94A3
:10258000031D80E092E068EE75E00E94FB1CA0ED68
:10259000B2E0EAE4F1E002C081918D9331E0E035F0
:1025A000F307D1F79091AF05992311F083E001C0B3
:1025B00081E08093D6028DE38093D70287E08093F9
:1025C000D80281E08093D902AAEDB2E0E8EEF5E00E
:1025D00002C081918D9385E0EE3EF807D1F78CE043
:1025E0008093E0028AE08093E102A2EEB2E0E9E3A8
:1025F000F1E002C081918D9321E0E334F207D1F73D
:102600002CEE32E03093C1052093C005913069F57E
:1026100082E38093EC0284E08093ED02D90112966C
:10262000EEEEF5E002C081918D9335E0E23FF307D5
:10263000D1F786E38093F20284E08093F30284EF83
:1026400092E09093C1058093C005DC01EAEFF5E0CC
:1026500002C081918D9385E0EE3FF807D1F788EFB6
:1026600092E09093C1058093C0052091C005309100
:10267000C105D901E4E4F1E002C081918D9381E0CC
:10268000EA34F807D1F7C90106969093C105809303
:10269000C005845E91400E94721926960FB6F89488
:1026A000DEBF0FBECDBFCF91DF910895EF92FF92B5
:1026B0000F931F93CF93DF93EC018091AF0582308E
:1026C00009F4E0C0833030F4882351F1813009F0FF
:1026D0003DC14AC0833021F0843009F037C1D2C0F7
:1026E0000E94290D2091B4053091B5054091B605A1
:1026F0005091B705E090B005F090B1050091B2059A
:102700001091B3052E0D3F1D401F511F6217730717
:102710008407950708F41AC10E94691284E017C063
:102720000E94290D6093BC057093BD058093BE0582
:102730009093BF051092EE051092EF051092F005F0
:102740001092F1050E9469120E94121581E0809397
:10275000AF050E94290D6093B8057093B905809369
:10276000BA059093BB05F2C0C634D10508F4B2C0D7
:102770008091DD01833409F0ADC08091E4018230A5
:1027800009F0A8C02091E8013091E9014091EA01E7
:102790005091EB018091BC059091BD05A091BE05C3
:1027A000B091BF05281739074A075B0709F092C0A7
:1027B0008091D402853309F08DC08091D602823099
:1027C00009F088C0A6C0DF011196E180ED012196D5
:1027D00080818630A9F0873030F4813059F0833021
:1027E00009F045C00AC08633E9F18A3361F08333CA
:1027F000F1F509C082EF95E037C086EF95E034C06F
:102800008EEF95E031C011966C9170E080E090E021
:10281000982F872F762F66272981620F711D811DC2
:10282000911D982F872F762F66272A81620F711DA1
:10283000811D911D982F872F762F66272B81620F80
:10284000711D811D911D28EE33E040E050E00E9493
:10285000F7236093B4057093B5058093B605909304
:10286000B70505C08AEF95E0BE010E94031DFE0179
:10287000EE0DF11DE017F10708F4A5CF0E946912D3
:1028800082E065CFC634D10528F18091DD01833423
:1028900009F58091E4018230E9F42091E80130915A
:1028A000E9014091EA015091EB018091BC059091C2
:1028B000BD05A091BE05B091BF05281739074A078D
:1028C0005B0741F48091D402853321F48091D602D4
:1028D000853059F10E94290D2091B8053091B90534
:1028E0004091BA055091BB05205F384D4F4F5F4F67
:1028F000261737074807590748F028C086EF95E0A4
:102900000E94601883E08093AF0520C01092AF054D
:102910001DC08EEE95E064EF71E00E94031DE4EDB2
:10292000F2E08E0106541E4F4ECF0E940D150E94FC
:10293000290D6093B0057093B1058093B205909313
:10294000B3058091F6058823E9F2D8CFDF91CF91C6
:102950001F910F91FF90EF9008958091C40561E061
:102960000E940A0E78940895FF920F931F93082FE8
:10297000162FF42EF8948091C40560E00E940A0E90
:102980001F71102B1EBD0DB407FEFDCFFEBC0DB494
:1029900007FEFDCF0E94AD141F910F91FF90089587
:1029A0001F93182F282F30E0207630708091C505B6
:1029B00090E02817390799F080EA6FE143E00E9420
:1029C000B414412F40764093C50550E085E05595FD
:1029D00047958A95E1F780E86FE10E94B4141F9152
:1029E00008950F931F93182F062F0E94D01480E490
:1029F000612F402F0E94B4141F910F9108950F93DF
:102A00001F93182F072F0E94F114812F8F5F602FC3
:102A10000E94F1141F910F91089588E360EB0E94CA
:102A2000F114089588E361EB0E94F11408950F9367
:102A30001F93182F062FF8948091C40560E00E9420
:102A40000A0E802F8F71812B8EBD0DB407FEFDCF36
:102A50001EBC0DB407FEFDCF07FF04C01EBC0DB4A5
:102A600007FEFDCF1EB50E94AD14812F1F910F915F
:102A700008951F93182F0E94D01480E0612F0E94A8
:102A800017151F91089584ED61E10E94F11482ED04
:102A900061E00E94F1148AEE0E94391580FDFBCF9F
:102AA00082ED60E00E94F11489ED0E94391590E0FA
:102AB0009695879596958795817008950F931F93A6
:102AC000CF93DF93EC018B01F8948091C40560E013
:102AD0000E940A0E8AE38EBD0DB407FEFDCF09C029
:102AE0001EBC0DB407FEFDCF8EB5F80181938F019A
:102AF00021972097A9F70E94AD14DF91CF911F91E4
:102B00000F9108950F931F93DF93CF9300D000D0C0
:102B100000D0CDB7DEB789E30E943915882319F4B8
:102B200000E010E048C06091C6057091C70580E0E4
:102B30000E94FF1486E090E0BE016F5F7F4F0E940D
:102B40005E1589819A819093C7058093C6052B8174
:102B50003C81E091C205F091C3058D8187FD03C0E2
:102B600000E010E00EC0245030408F0101501040B2
:102B70002017310708F48901C8016AEB71E00E944F
:102B80005E15F801E654FE4F10826091C605709103
:102B9000C7058CE06130780724F08CE06FEF7BE0B4
:102BA00003C0615070408CE00E94FF1480E86EE129
:102BB00040E40E94B414C80126960FB6F894DEBF14
:102BC0000FBECDBFCF91DF911F910F9108950F934D
:102BD0001F93CF93DF938C01EB01F8948091C40590
:102BE00060E00E940A0E8AE78EBD0DB407FEFDCF9D
:102BF00008C088818EBD0DB407FEFDCF219601501F
:102C0000104001151105A9F70E94AD14DF91CF9175
:102C10001F910F910895CF93DF93EC010FC08CE1CA
:102C20000E94391581FF0AC080E86FE140E80E94E8
:102C3000B41480EA6FE140E80E94B41480E06FE1D0
:102C40000E94171583FDEBCF82E060E07CE00E94DC
:102C5000FF14BE016050744F86E00E94FF148AE7A3
:102C600060E040E00E94B414CE016AEB71E00E9483
:102C7000E71580E86FE148E00E94B414DF91CF913E
:102C800008958AE061E00E94CB0D8AE061E00E9435
:102C90000A0E8BE061E00E94CB0D8DE061E00E94A6
:102CA000CB0D8CE060E00E94CB0D8BE061E00E94D8
:102CB0000A0E8BE060E00E940A0E8DE060E00E9448
:102CC0000A0E80E58CBD8DB581608DBD08951F9382
:102CD000CF93DF93EB01142F9093C3058093C2052C
:102CE0000CB406FC02C00E9441161093C405812F4B
:102CF00061E00E94CB0D0E94AD148FEF60E04FEFBA
:102D00000E94B41462E070E080E090E00E94370D11
:102D100080E06DE10E9417158823D1F31092C7055A
:102D20001092C60588E060E070E00E94FF148CE01D
:102D300060E070E00E94FF148AE06FEF7BE00E9489
:102D4000FF1484E060E07CE00E94FF1486E06FEFF7
:102D500071E10E94FF140E94121588E26FE370E394
:102D60000E94FF1480E369EF77EF0E94FF1480EC6C
:102D70006DE00E94F11481EC60E00E94F11480E8A3
:102D800062EC42E30E94B41486EC62E17CE00E94B3
:102D9000FF1484EC62E10E94F1148AEC6CED75E0A2
:102DA0000E94FF1484EE68810E94F11485EE69810F
:102DB0000E94F11482EE6A810E94F11483EE6B810D
:102DC0000E94F11480EE6C810E94F11481EE6D81FD
:102DD0000E94F11484ED60E10E94F11486ED60E040
:102DE00071E00E94FF148AEE0E94391580FDFBCF2E
:102DF0008FE10E94D01480E86BE140EC0E94B41493
:102E000080E86FE144E00E94B41482E70E94391523
:102E1000863008F08F5FDF91CF911F910895AF92B8
:102E2000BF92CF92DF92FF920F931F93CF93DF93C6
:102E30008C01EB01F42E1092060638E341E050E0DD
:102E400060E070E018C0832F90E0FC01B3E0F595DE
:102E5000E795BA95E1F7E853FA4F877090705A01F9
:102E60006B0104C0AA0CBB1CCC1CDD1C8A95D2F7DC
:102E700020812A292083315031F788EE95E0BE0168
:102E80000E94FB1CC80168EE75E04F2D0E9467167A
:102E9000DF91CF911F910F91FF90DF90CF90BF9066
:102EA000AF900895DF92EF92FF920F931F93CF930D
:102EB000DF93D82E862FBA01213041F4675F7F4F10
:102EC0009B0140E050E0695070400EC0223029F074
:102ED00020E030E040E050E007C0625070409B01CD
:102EE00040E050E06E5F7F4FE82EFF248AEB91E0D8
:102EF000E80EF91E8B01E7010FC0F881E0E089813F
:102F000090E08E2B9F2BA0E0B0E0280F391F4A1FC6
:102F10005B1F2296025010400230110570F7CB0162
:102F20008E7FD701A80FB91F6817790779F08C91A8
:102F300090E0A0E0B0E0BA2FA92F982F882702C018
:102F400040E050E0280F391F4A1F5B1FCA01AA2723
:102F5000BB270097A105B10599F7C9018095909508
:102F6000ED2DF0E0E654FE4F90838183DF91CF9109
:102F70001F910F91FF90EF90DF9008951092D20172
:102F80001092D30180E48093CE011092CF01809300
:102F9000D00188E16EE044E150E020E00E94521749
:102FA00008950F931F93BC010AEB11E0C8010E9422
:102FB000FB1CC801069668EE75E00E94FB1C1F9181
:102FC0000F910895EF92FF920F931F937B010E9440
:102FD000D11708ED11E0C801B7010E94031DC80117
:102FE00004976EEE75E00E94031D1F910F91FF90F4
:102FF000EF900895EF92FF920F931F93CF93DF937B
:103000007C01EB018A0183E196E00E94E21788814E
:10301000807F803E49F088819981AA81BB818F5F42
:103020009F4FAF4FBF4F31F48AEB91E065EA71E0FB
:103030000E94FB1C88E08093C6011092C70188ECB7
:1030400091E060E473E049E050E00E942C021092AD
:10305000CA0181E18093D1011093DE010093DF0169
:10306000F092DC01E092DD011092E0011092E201A9
:103070001092E301DF91CF911F910F91FF90EF909C
:103080000895EF92FF920F931F9300EC11E0C80197
:103090000E94D11774E1E72EF12CE00EF11EC80159
:1030A0004896B7010E94031DC7016EEE75E00E94AD
:1030B000031D0E94BE171F910F91FF90EF9008957E
:1030C000BC0181E08093080686EF95E00E94031D15
:1030D00008950F931F938C0188969093CA01809353
:1030E000CB010E94BE171092EC011092ED01045E1C
:1030F0001F4F82E36AE1A80122E00E945217C80133
:103100004A960E940B161F910F910895CF93DF935B
:103110009C01862F80618093E901643029F021159C
:10312000310511F421E030E09091DE018091DC0165
:103130008093DE019093DC019091DF018091DD01AD
:103140008093DF019093DD01C3EED1E08881A90176
:10315000480F511D2C814C832883252F332721971D
:1031600051E0CF3DD50791F71D861E8680E5898702
:103170001092CA0188E28093CB010E94411884E03A
:103180008B871C8682E36AE14CE150E022E00E94DA
:10319000521786E390E00E940B16DF91CF910895BD
:1031A000E82FA091CA01B091CB01F091E8014091C4
:1031B000DE0150E0292F30E04217530709F08EC09E
:1031C0008091DF018E1709F089C08091E901E82F15
:1031D00081FF4EC01092CA018CE28093CB010E9405
:1031E000411882E18093E9019091DE018091DC0138
:1031F0008093DE019093DC019091DF018091DD01ED
:103200008093DF019093DD01E3EEF1E021E030E017
:103210008081A901480F511D44831082252F332737
:10322000319751E0EF3DF50799F715861686118223
:10323000128280915501838314828D5F80935501A2
:1032400082E0818B84E0828B95E0938B148A80E608
:103250008187938788E7848782E36AE140E250E0D0
:1032600022E00E9452178AE390E00E940B1636C0BB
:1032700084FF34C04F2F50E084E0559547958A95E0
:10328000E1F79A2F80E02B2F30E0282B392BCA0151
:10329000880F991F880F991F281B390B2451304024
:1032A00037FF02C020E030E030931A062093190661
:1032B000232B69F09A01220F331F220F331F2E5D3B
:1032C0003F4F685070406217730740F009C0E0FF3D
:1032D00005C080E090E060E00E94861820E030E0C9
:1032E000C90108950F931F93DF93CF930F92CDB72A
:1032F000DEB78C01045E1F4F1093CA010C511040C1
:10330000802F845E8093CB0189830E94BE17085F63
:103310001F4F1093E001898184518093E101085F80
:103320001F4F88E26AE1A80121E00E945217C801FC
:103330004A960E940B160F90CF91DF911F910F912B
:103340000895FF920F931F939C01F62E83E196E060
:10335000B9010E94E21706EC11E088E08093C601F3
:103360001092C701C801029660E473E049E050E0A2
:103370000E942C028CE48093CB0181E18093D101E7
:103380000E94BE171092DE018BE78093DF018AE076
:103390008093DC01F092DD011092E00188E38093DC
:1033A000E1011092E2011092E301025E1F4F80E3FF
:1033B000F80111928A95E9F7C80166EF73E04AE0D7
:1033C00050E00E942C0288E26AE140E450E021E0F3
:1033D0000E9452178AE590E00E940B161F910F91F0
:1033E000FF900895DF92EF92FF920F931F93CF9378
:1033F000DF93EC0180910606882319F0CE010E942C
:103400005613209709F0BFC0809108068570F1F12E
:103410008091520190915301892BC1F50E9443156F
:103420008823A1F185EA91E00E94D11788E080937A
:10343000C601A6E0FA2EF092C70188EC91E068E39D
:1034400073E048E050E00E942C020AED11E0D80140
:103450001D92FA94E9F7C8010A9768EE75E00E9498
:10346000FB1CC801069666EF75E00E94031DC801AB
:1034700004976EEE75E00E94031D80910806886037
:10348000809308068AE290E00E940B168091520118
:103490009091530101969093530180935201809132
:1034A0000906813009F0EFC18091080681FFEBC168
:1034B00002E000930906809154018F5F80935401CC
:1034C0008F7110910A061295110F107E182BE09043
:1034D0000B06D0900C0683E196E062E076E00E9455
:1034E000E217F8E0FF2EF092C6011092C70188ECB7
:1034F00091E060E473E049E050E00E942C028CE22D
:103500008093CB0186E08093D1010E94BE17E092A8
:10351000DE01D092DF018BE08093DC011093DD01AE
:10352000E0EEF1E0DF011D92FA94E9F78091550198
:103530008093E2018D5F8093550180E68093E801DE
:103540000093E90183E08093EA011092EB0110926D
:10355000EC011092ED011092EE011092EF01009338
:10356000F00184E08093F1010093F20186E2809300
:10357000F30182E36AE140E250E022E00E94521748
:103580008AE390E09BC0C932D10508F47CC1109158
:10359000C601183009F082C18091C701863009F058
:1035A0007DC180EE91E06EEE75E044E050E00E9457
:1035B0003502009709F072C18091CF01813029F561
:1035C00080EC91E00E94D1171092CE0182E08093AE
:1035D000CF018AED91E060ED71E00E94FB1C80ED6F
:1035E00091E068EE75E00E94FB1C80EE91E066EDD4
:1035F00071E00E94031D86ED91E06EEE75E00E9481
:10360000031D8AE290E00E940B168091080683FF5A
:103610003AC11091CF01123009F035C186ED91E029
:1036200066EF75E044E050E00E943502009709F033
:103630002AC183E196E060ED71E00E94FB1C1093CB
:10364000080621C1183009F01EC18091C7018823E6
:1036500009F019C18091C801853409F014C188EDC1
:1036600091E06EEE75E044E050E00E943502009774
:1036700009F009C18091D101813019F58091DC01F7
:103680008830F9F4E0910D06F0910E06309719F0AC
:1036900084ED91E009950E9441181092DC0180911F
:1036A000DE01883F28F08091DF018F5F8093DF018A
:1036B0008091DE01885F8093DE01CE010E940B16AF
:1036C000E2C00E94771C882351F08091D1018131A2
:1036D00031F4CE010E947C1C882309F0D4C0C6338B
:1036E000D10528F48091D101863009F0CCC08091B9
:1036F000DE018B3009F0BEC084ED91E062E076E03F
:1037000044E050E00E943502009709F0BCC080916F
:10371000E901382F82FF13C0E0910F06F0911006E7
:10372000309759F08091DF0182958695877063E02C
:1037300040E050E020E030E0099585E090C09091B5
:10374000CA0180E02091CB01022F10E0082B192B39
:103750008091E801482F50E0E4E055954795EA95BF
:10376000E1F7CA01880F991F880F991F081B190BD1
:103770000451104017FF02C000E010E080910906DC
:10378000823079F531FF21C034FF1FC080E090E026
:1037900060E00E94861888E18093E901E0911106BB
:1037A000F0911206309719F420E030E007C08091C4
:1037B000DD0182958695877009959C0183E0809351
:1037C0000906C9010E9469185EC081E0809309065C
:1037D00034FF03C080E090E002C0C801019664E0BD
:1037E00046C0833081F50115110579F1E0910F068E
:1037F000F0911006309749F1440F551F440F551FA3
:10380000CE0108974E5D5F4F8417950708F4AC0111
:10381000C801840F951FC817D90710F0980103C07D
:103820009E01241B350B8091DF0182958695877060
:1038300060E0099580910706882319F0C80168E0C7
:1038400016C0C80108C08530F1F030FF0BC08330CE
:10385000D1F0C801019669E00E94861886E0809345
:10386000090611C00115110571F0C80160E00E9440
:10387000861809C08091500190915101BE010E94AB
:10388000D0189C0102C020E030E0C901DF91CF9147
:103890001F910F91FF90EF90DF900895CA32D105EC
:1038A00008F0D0CEF0CFDF92EF92FF920F931F93EC
:1038B000E82ED92EF62ECA01A801B9010E94FA17E6
:1038C0001F2D1D3D08F01CED24EE31E0C9016E2DC9
:1038D0007D2D412F50E00E944202812F90E00E94F6
:1038E00072191F910F91FF90EF90DF9008958091D2
:1038F0004306811181E00895CF92DF92EF92FF920B
:103900000F931F93CF93DF93CBE1D6E030E0CC242D
:10391000DD2429C02A814B818091DE0190E0042FB3
:1039200010E080179107D9F49091DF019217B9F454
:103930008C818823A1F02091E10130E028503040B3
:10394000F090E001EE242E0D3F1DE881F981892FD2
:10395000942F64ED71E044EE51E0099531E0089454
:10396000C11CD11C25968091430690E0C816D9064B
:103970008CF2832FDF91CF911F910F91FF90EF90E9
:10398000DF90CF9008950F931F93CF93DF938C0117
:10399000C0E0D0E0F801EC0FFD1F8DE895E06081FC
:1039A0004AE050E00E94C411C33029F08DE895E050
:1039B0006EE20E94CB102196C430D10559F7DF91F9
:1039C000CF911F910F910895EF92FF920F931F9344
:1039D0009C017B010DE815E0C801B9010E94A81007
:1039E000C7010E94C31CC8010E94D3101F910F91F0
:1039F000FF90EF900895DC01FB0186E001900D92AD
:103A00008150E1F708959C01FB0180819181A281A1
:103A1000B381F90180839183A283B38308950F93C7
:103A20001F93CF93DF938C01EB0180E0611571054B
:103A300009F081E0F8018283882341F00E94290D7A
:103A40002197C60FD71FF801D183C083DF91CF9193
:103A50001F910F910895EF92FF920F931F93CF93B1
:103A6000DF93EC017B018A81882311F400E00FC011
:103A7000088119810E94290DC801861B970B2AEE27
:103A80008136920710F400E006C0082F0195CE01A0
:103A9000B7010E940F1D802FDF91CF911F910F91D1
:103AA000FF90EF900895782FE89865B121E030E01D
:103AB00040E050E00090560104C0220F331F441F25
:103AC000551F0A94D2F7322F822F8095862385B90D
:103AD0009EBD0DB407FEFDCF4EB57EBD0DB407FEF5
:103AE000FDCF2EB5942F80E045B1342B35B9E89A3F
:103AF00030E0282B392BC90108950E94531D0895E9
:103B000080914406909145068F709093450680936E
:103B1000440680914406909145068860909345063E
:103B20008093440680914406909145060E94531D5F
:103B3000089580919B06873009F059C090919F06A7
:103B4000992399F080919E06891728F480919E060A
:103B5000873408F44CC084E080939B0681E090E0B9
:103B600090934C0680934B069AC080914F0620910B
:103B70009E0690E0049630E08217930724F080912F
:103B80009E068734A0F184E080939B0680914F06C7
:103B9000833430F081E090E090934C0680934B06A4
:103BA00080914E0686FF12C080919A06282F30E041
:103BB000C9018F7190704F9749F080914E0690E047
:103BC000822793278F719070892B89F480914B06FF
:103BD00090914C06892B09F056C0E0919806F0911F
:103BE0009906309709F44FC080E0099558C080913C
:103BF0009B06843011F080E0089510924F0680916A
:103C00004F0680939E068FEF9FEF90934C06809314
:103C10004B0620919C062223D9F08227282F22953B
:103C20002827022E269526952025022E269520252A
:103C30002770082E892F269507942795902D822787
:103C4000069427959025822790934C0680934B06E7
:103C500087E080939B0681E08093490683EA94E99C
:103C60000E94531D8091440690914506886D909363
:103C700045068093440680914406909145060E9433
:103C8000531D80E008958FEF9FEFAFEFBFEF80935C
:103C9000940690939506A0939606B093970681E0BC
:103CA00008950F931F93082F10E0C801966C0E948F
:103CB000531D98012F7730702F5F3F4F442737FDFA
:103CC0004095542F6BEF72E485E090E00E943D2414
:103CD000CA01B901000F012F001F110B980143E029
:103CE000220F331F4A95E1F7201B310B2F5F3F4F07
:103CF000442737FD4095542F0E943D2493E056956C
:103D00004795379527959A95D1F72D573C4F4F4FAB
:103D10005F4FCA01B90124E833E040E050E00E945F
:103D20003D2420934A061F910F91089580919B0690
:103D3000873059F480919E06882339F40E94801DB3
:103D400084E080939B0681E0089580E00895982F99
:103D500086FD05C0907E80919A068F71980F909392
:103D60004E06E0919806F0919906309711F081E0A7
:103D700009958FEF9FEF90934C0680934B068091AF
:103D80004B0690914C0620919C068227282F229565
:103D90002827022E269526952025022E26952025B9
:103DA0002770082E892F269507942795902D822716
:103DB000069427959025822790934C0680934B0676
:103DC00088E080939B068091440690914506886325
:103DD0009093450680934406809144069091450651
:103DE0000E94531D0895DF92EF92FF920F931F934D
:103DF0007B018C01DD2405C0D39416950795F794BB
:103E0000E7948FEFE816F1040105110509F0A0F71A
:103E1000809144069091450681FF0FC08091440631
:103E2000909145068D7F909345068093440680913E
:103E30004406909145060E94531DE114F1040105CA
:103E40001105B9F0C701906E3D2D20E0822B932B18
:103E50000E94531D80914406909145068260909384
:103E600045068093440680914406909145060E9441
:103E7000531D1F910F91FF90EF90DF900895E898E8
:103E800085B121E030E040E050E00090560104C0F0
:103E9000220F331F441F551F0A94D2F7322F922F3F
:103EA0009095982395B91EBC0DB407FEFDCF6EB555
:103EB0001EBC0DB407FEFDCF2EB5962F80E0622FFD
:103EC00070E0682B792B77FF0FC080919B068730BD
:103ED00059F48CB581608CBD1EBC0DB407FEFDCFBE
:103EE0002EB58CB58E7F8CBD85B1382B35B9E89A4F
:103EF0007093470660934606809146069091470668
:103F000097FFECC080919B06873009F082C08091BA
:103F10009E06882371F490919C06992351F080911C
:103F20009E06E82FF0E0E35BF94F90838F5F80936C
:103F30009E0680919E06E82FF0E0E35BF94F208318
:103F40008F5F80939E0680914B0690914C0682274E
:103F5000282F22952827022E269526952025022EE9
:103F6000269520252770082E892F269507942795BA
:103F7000902D8227069427959025822790934C06B2
:103F800080934B0620914906233040F580919E0690
:103F900090E060914A06029770E00E942A24892BE3
:103FA000E9F48091460690914706E22FF0E090FFF9
:103FB00004C0E555FE4F808104C0E555FE4F808169
:103FC00082958F7080934906833040F490E0880F8B
:103FD000991F0196806A94690E94531D90919F06D3
:103FE000992329F080919E06891780F40AC0809158
:103FF0004F0620919E0690E0049630E082179307CA
:104000002CF080919E06873408F468C00E94801DC1
:1040100065C080919B0687FF2EC0E0914F0680917E
:104020009B068F5F80939B068150ED5FE80FF0E069
:10403000E35BF94FE08180914B0690914C068E270F
:10404000282F22952827022E269526952025022EF8
:10405000269520252770082E892F269507942795C9
:10406000902D8227069427959025822790934C06C1
:1040700080934B062EC080919B068F5F80939B069A
:104080008150833019F184302CF4882399F08130E9
:10409000F9F416C08B3019F08C30D1F402C0EDE287
:1040A00018C0E0919C0690914F068EEF891B80937B
:1040B0009B060FC080914B0690914C06E82F09C0DB
:1040C00080914B0690914C06E92F03C00E94801D01
:1040D000EAEA8E2F90E0986B0E94531D809146066D
:1040E0009091470696FF03C086E080939B068091DF
:1040F00046069091470694FF09C060E070E080E0BA
:1041000090E00E94F31E81E080934806809146066D
:104110009091470695FF05C00E94801D84E0809322
:104120009B0608951F93182F40934F0620E536E015
:10413000C90150E00E944202812F0E94A71E1F91D8
:10414000089580919A0690E08F719070892B41F0CC
:1041500080E06FE37FE140E050E00E946723089534
:1041600080E00E948A2308951F9380939A064093CB
:104170009C0660939D060E94A12010929F06E898DD
:1041800085E092E89093450680934406809144062A
:10419000909145060E94531D80919D0690E074E029
:1041A000880F991F7A95E1F7876C90680E94531DDC
:1041B00080E496EA0E94531D86E00E94511E82EA26
:1041C00094E90E94531D8CEA92EC0E94531D1091B9
:1041D0009C06112341F083E89AEC0E94531D812F25
:1041E00090E09E6C06C08BE89AEC0E94531D8DE215
:1041F0009EEC0E94531D83E894EC0E94531D80E5C1
:1042000098E90E94531D87E79CEC0E94531D80E0B3
:1042100090EE0E94531D80E098EC0E94531D89E4AB
:1042200090EC0E94531D84E080939B06E89A1F91B6
:10423000089525B181E090E0A0E0B0E00090560143
:1042400004C0880F991FAA1FBB1F0A94D2F7282BFE
:1042500025B924B1822B84B98AE061E00E940A0E5C
:104260008AE061E00E94CB0D8BE061E00E94CB0D03
:104270008CE060E00E94CB0D8DE061E00E94CB0DF0
:1042800080E58CBD8DB581608DBD82E060E00E94CF
:10429000CB0D82E061E00E940A0E0895FF920F9319
:1042A0001F93182F062FF42E80939A0640939C0696
:1042B00060939D060E9419210E94A12082E89AEC39
:1042C0000E94531D80E09EEF0E94531D85E0809365
:1042D0009B0683B7817F06C083B7816083BF8895C3
:1042E00083B78E7F83BF80919B068530A9F3812F92
:1042F000602F4F2D0E94B42080919A061F910F913C
:10430000FF9008958F929F92AF92BF92CF92DF92CB
:10431000EF92FF920F931F93CF93DF937B018C015A
:10432000EA012CE330E040E050E00E943D24688345
:10433000C801B7012CE330E040E050E00E943D248A
:10434000122F032FF42EE52E622F732F842F952F1B
:104350002CE330E040E050E00E943D246983612F6F
:10436000702F8F2D9E2D2CE330E040E050E00E9416
:104370003D24122F032FF42EE52E622F732F842F4E
:10438000952F28E130E040E050E00E943D246A8310
:10439000612F702F8F2D9E2D28E130E040E050E0FE
:1043A0000E943D2479018A01C801B7016C5F7F4FEB
:1043B0008F4F9F4F27E030E040E050E00E943D24C7
:1043C0006F5F6B8320E0AA24BB24650101C02F5FCF
:1043D000822E9924F401EE54F84FCF01837090702F
:1043E000892B99F4CF0164E670E00E942A24892B7E
:1043F00039F4CF0160E971E00E942A24892B29F465
:104400008EE691E0A0E0B0E004C08DE691E0A0E08F
:10441000B0E0A80EB91ECA1EDB1EC501A0E0B0E0C8
:10442000E816F9060A071B0790F62E83F401EE54EE
:10443000F84F83E0882E912C8E229F2281149104C4
:1044400099F4CF0164E670E00E942A24892B39F4A4
:10445000CF0160E971E00E942A24892B29F48EE6BD
:1044600091E0A0E0B0E004C08DE691E0A0E0B0E013
:10447000A81AB90ACA0ADB0A980187010A191B0996
:104480002C093D09CF0164E670E00E942A247C01DA
:10449000CF0160E971E00E942A24AC01EEEAF1E06C
:1044A00060E0613051F48114910449F4E114F104A5
:1044B00041F44115510529F002C0808103C08CE10F
:1044C00001C08DE190E0A0E0B0E0081719072A07CD
:1044D0003B0740F0081B190B2A0B3B0B6F5F319613
:1044E0006C30F9F66F5F6D83802F8F5F8C83DF9167
:1044F000CF911F910F91FF90EF90DF90CF90BF90E1
:10450000AF909F908F900895EF92FF920F931F931B
:104510007B018C018091B6069091B706A091B806F8
:10452000B091B906E816F9060A071B0771F0C80131
:10453000B7014BEA56E00E948221E092B606F09263
:10454000B7060093B8061093B9061F910F91FF901C
:10455000EF9008950E9484222091B10630E02E54FD
:10456000384FC90108950E9484228091B00690E0DE
:1045700008950E9484228091AF0690E008950E94E1
:1045800084228091AB0690E008950E94842280915D
:10459000AC0690E008950E9484228091AD0690E0E0
:1045A00008956093A2067093A3068093A406909347
:1045B000A506209157013091580140915901509121
:1045C0005A01260F371F481F591F2093A606309304
:1045D000A7064093A8065093A90682E08093AA06F6
:1045E0000E94290D6093B2067093B3068093B406BF
:1045F0009093B5060895EF92FF920F931F931CC0FE
:104600002F5F3F4F4F4F5F4F2093A2063093A3067B
:104610004093A4065093A50688EE93E0A0E0B0E096
:10462000E80EF91E0A1F1B1FE092B206F092B306B5
:104630000093B4061093B5060E94290DE090B206CF
:10464000F090B3060091B4061091B5066E197F097B
:10465000800B910B2091A2063091A3064091A406F5
:104660005091A506685E73408040904048F6809166
:10467000A6069091A706A091A806B091A9062817B2
:1046800039074A075B07B0F0E091A006F091A10658
:10469000309781F00995611571058105910519F033
:1046A0000E94D12207C090E08091AA06811191E07A
:1046B0009093AA066091A2067091A3068091A40629
:1046C0009091A5061F910F91FF90EF900895823071
:1046D00000F5E82FF0E0EE0FFF1FE654F94F71836D
:1046E0006083882319F08130A1F408C080916900AB
:1046F0008C7F842B80936900E89A089580916900EB
:10470000440F551F440F551F837F842B80936900EE
:10471000E99A0895823080F4882319F0813021F4D9
:1047200002C0E89801C0E998E82FF0E0EE0FFF1F03
:10473000E654F94F1182108208951F920F920FB61E
:104740000F9211242F933F934F935F936F937F9317
:104750008F939F93AF93BF93EF93FF938091BA068C
:104760009091BB06892B29F0E091BA06F091BB0627
:104770000995FF91EF91BF91AF919F918F917F919B
:104780006F915F914F913F912F910F900FBE0F90BE
:104790001F9018951F920F920FB60F9211242F930E
:1047A0003F934F935F936F937F938F939F93AF93B9
:1047B000BF93EF93FF938091BC069091BD06892B28
:1047C00029F0E091BC06F091BD060995FF91EF91AB
:1047D000BF91AF919F918F917F916F915F914F9119
:1047E0003F912F910F900FBE0F901F901895629FD1
:1047F000D001739FF001829FE00DF11D649FE00DD9
:10480000F11D929FF00D839FF00D749FF00D659F39
:10481000F00D9927729FB00DE11DF91F639FB00D38
:10482000E11DF91FBD01CF0111240895AA1BBB1B77
:1048300051E107C0AA1FBB1FA617B70710F0A61BA0
:10484000B70B881F991F5A95A9F780959095BC01C1
:10485000CD01089597FB092E07260AD077FD04D0D5
:10486000E5DF06D000201AF4709561957F4F08951A
:10487000F6F7909581959F4F0895A1E21A2EAA1BF5
:10488000BB1BFD010DC0AA1FBB1FEE1FFF1FA21700
:10489000B307E407F50720F0A21BB30BE40BF50BFD
:1048A000661F771F881F991F1A9469F76095709586
:1048B000809590959B01AC01BD01CF010895EE0F4D
:1048C000FF1F0590F491E02D09942F923F924F9293
:1048D0005F926F927F928F929F92AF92BF92CF9290
:1048E000DF92EF92FF920F931F93CF93DF93CDB799
:1048F000DEB7CA1BDB0B0FB6F894DEBF0FBECDBF11
:1049000009942A88398848885F846E847D848C84E1
:104910009B84AA84B984C884DF80EE80FD800C81EA
:104920001B81AA81B981CE0FD11D0FB6F894DEBFCD
:0C4930000FBECDBFED010895F894FFCF3D
:10493C004D41433A200020005468652074696D6530
:10494C002069733A2000203D200020008E04C0A86E
:10495C000003C0A80003FF48656C6C6F00AE0392A7
:10496C000400007469692D303241726475696E6F90
:10497C002D3030003703010306FF6382536335018A
:10498C0050000100010A022C010000000000009EF2
:10499C00097E10E702DD08C208FCFF0000D908C13F
:1049AC0008000000009E097E10C008DD08C208FC4B
:1049BC00FF0000D908C10800000000D00AF209006D
:1049CC00000000D90F7E106F0FA00F800FC90FFFD2
:1049DC00FFFFFFFFFFFFFFFFFFFFFF3402561F1C0F
:0A49EC001F1E1F1E1F1F1E1F1E1F8F
:00000001FF
