:100000000C94C6000C94D11A0C94FE1A0C94EE00B9
:100010000C94EE000C94EE000C94EE000C94EE00A8
:100020000C94EE000C94EE000C94EE000C94EE0098
:100030000C94EE000C94EE000C94EE000C94EE0088
:100040000C944C050C94EE000C9437060C94850629
:100050000C94EE000C94EE000C94EE000C94EE0068
:100060000C94EE000C94EE00000108000604000160
:10007000450000820000400020504F535420244689
:1000800020485454502F312E300D0A486F73743A63
:100090002024460D0A244624534163636570743A54
:1000A000202A2F2A0D0A436F6E74656E742D4C65DD
:1000B0006E6774683A2024440D0A436F6E74656E4F
:1000C000742D547970653A206170706C6963617445
:1000D000696F6E2F782D7777772D666F726D2D751E
:1000E000726C656E636F6465640D0A0D0A245300BB
:1000F000474554202446245320485454502F312E31
:10010000300D0A486F73743A2024460D0A41636328
:100110006570743A20746578742F68746D6C0D0A7C
:100120000D0A00E30004FA000100000001000000D5
:1001300000240027002A0000000000250028002BD2
:100140000000000000230026002900040404040429
:100150000404040202020202020303030303030174
:10016000020408102040800102040810200102044B
:100170000810200000000700020100000304060030
:1001800000000000000000004801F10711241FBE1C
:10019000CFEFD8E0DEBFCDBF12E0A0E0B1E0E4E7F2
:1001A000F8E302C005900D92A435B107D9F716E027
:1001B000A4E5B2E001C01D92A13BB107E1F711E057
:1001C000CCE8D1E004C02297FE010E94341CC8385C
:1001D000D107C9F70E9447080C94381C0C94000002
:1001E000FB01DC0102C005900D9241505040D8F750
:1001F0000895FB01DC0104C08D910190801921F468
:1002000041505040C8F7881B990B0895FB01DC0151
:1002100002C001900D9241505040D8F70895FB0163
:10022000DC0101900D920020E1F70895282F44236E
:1002300021F080917902841749F580917A02882310
:1002400029F580917B02883309F5809177028B37FD
:10025000E9F4E22FF92F8091A60283838091A7020F
:1002600082838091A80281838091A9028083FB010F
:100270008091AA0283838091AB0282838091AC0239
:1002800081838091AD02808381E0089580E00895AC
:1002900010927C0484E080937D041092800410927C
:1002A0008104109282041092830408958AEA95E0F2
:1002B00040E051EE60E070E00E94C0068AEA95E0FE
:1002C00060E071E00E949F098DE794E063E00E9486
:1002D00035148DE794E062E00E94581486E292E0C3
:1002E0006CEF71E048E00E948D0E882331F48AEAB9
:1002F00095E06DE171E00E949F098AEA95E062E471
:1003000071E00E949F090E94F60B882329F48AEA73
:1003100095E062E571E0EFCF8EE591E06BE076E08D
:100320000E94E21381E061E00E9432058DE794E0D3
:1003300062E00E9435148AE794E068EE73E00E9460
:10034000961408958F929F92AF92BF92CF92DF92B0
:10035000EF92FF920F931F93B82E7A018B016901E0
:100360008FE097E262E072E04FE057E20E94780F80
:100370003EE7832E32E0932E80E480937E028B2D25
:100380006AE00E94DD1B805D80937F028B2D0E94BE
:10039000DD1B905D9093800220E2A22EA09281024C
:1003A000C801B7010E94DE1968EE73E00E94FD1BD0
:1003B000CB016AE070E00E94FD1B805D80938202A9
:1003C000C801B7010E94DE1964E670E00E94FD1BBF
:1003D000CB016AE070E00E94FD1B805D8093830288
:1003E000C801B7010E94DE196AE070E00E94FD1B9F
:1003F000CB016AE070E00E94FD1B805D8093840267
:10040000C801B7010E94DE196AE070E00E94FD1B7E
:10041000805D809385029FE2B92EB0928602C8016A
:10042000B7010E94E7196AE070E00E94FD1B605D61
:1004300060938702C801B7010E94E7196AE070E083
:100440000E94FD1B805D80938802B0928902C801E2
:10045000B7010E94ED196AE070E00E94FD1B605D2B
:1004600060938A02C801B7010E94ED196AE070E04A
:100470000E94FD1B805D80938B02A0928C02C801BC
:10048000B7010E94FF196AE070E00E94FD1B605DE9
:1004900060938D02C801B7010E94FF196AE070E005
:1004A0000E94FD1B805D80938E028AE3B82EB0927D
:1004B0008F02C801B7010E94F9196AE070E00E943A
:1004C000FD1B605D60939002C801B7010E94F9199D
:1004D0006AE070E00E94FD1B805D80939102B09203
:1004E0009202C801B7010E94F3196AE070E00E940D
:1004F000FD1B605D60939302C801B7010E94F31970
:100500006AE070E00E94FD1B805D80939402A092DF
:100510009502C4014896B6010E940F01F4010190B2
:100520000020E9F7CF018F5792400E94F0108AEA2D
:1005300095E0B4010E949C09F60101900020E9F7C2
:100540003197EC19FD09CE0EDF1E0894C108D108C1
:10055000F60180818A3029F48AEA95E06DE00E94F4
:1005600080081F910F91FF90EF90DF90CF90BF9088
:10057000AF909F908F900895CF92DF92EF92FF926D
:100580000F931F93DF93CF93CDB7DEB7C754D040FF
:100590000FB6F894DEBF0FBECDBF8AE794E068E8DF
:1005A00073E10E949614882351F088EF91E06BE785
:1005B0000E941F118DE794E061E00E9435140E94B3
:1005C0009C046C01009709F473C0DC018C918130AC
:1005D00009F46EC0823001F5F0904306BBEFFB0ECC
:1005E0008E010A5F1F4F96012B5F3F4FC801B90173
:1005F0004F2D50E00E940601F801EF0DF11D108211
:1006000080914206F60141815281638174818F712C
:1006100098010E94A2014CC08AEA95E066E671E06A
:100620000E949C09609142068AEA95E040E150E010
:100630000E9437098AEA95E06FE771E00E949C0901
:10064000609143068AEA95E04AE050E00E9437094B
:100650008AEA95E065E871E00E949C09EE24FF2497
:1006600087010C5B194FD8016C918AEA95E04AE04A
:1006700050E00E9437098AEA95E06AE871E00E943A
:100680009C09F80160818AEA95E00E9480088AEA64
:1006900095E06CE871E00E949C090894E11CF11C53
:1006A000FAE0EF16F104E1F68AEA95E00E94880884
:1006B0000E94000D8C010E947011101611060CF0A2
:1006C000E5C084E894E068E874E04BE70E94160116
:1006D000882309F4DBC060918404709185048091C3
:1006E00086049091870460587E478A4A93486093B5
:1006F00084047093850480938604909387040E94F9
:10070000051A8DE794E061E00E9458140E94EA15F2
:10071000409184045091850460918604709187040F
:100720008823F1F0FE01319685E0DF011D928A9564
:10073000E9F781E089834A835B836C837D83BF0112
:1007400045E00E94E2174091840450918504609135
:10075000860470918704809106022EE831E004C07F
:100760008091060220EA31E00E94A2010E942F1A25
:100770007B018C018AEA95E069EB71E00E949C099B
:10078000409184045091850460918604709187049F
:100790008AEA95E02AE030E00E9428098AEA95E09A
:1007A0006EE20E9480084091880450918904609113
:1007B0008A0470918B048AEA95E02AE030E00E9476
:1007C00028098AEA95E067EC71E00E949C09C8015B
:1007D000B7010E94E719BC018AEA95E04AE050E0BF
:1007E0000E9489098AEA95E06FE20E948008C801A8
:1007F000B7010E94ED19BC018AEA95E04AE050E099
:100800000E9489098AEA95E06FE20E948008C80187
:10081000B7010E94DE19BC018AEA95E04AE050E087
:100820000E9489098AEA95E060E20E948008C80176
:10083000B7010E94FF19BC018AEA95E04AE050E046
:100840000E9489098AEA95E06AE30E948008C8014B
:10085000B7010E94F919BC018AEA95E04AE050E02C
:100860000E9489098AEA95E06AE30E948008C8012B
:10087000B7010E94F319BC018AEA95E04AE050E012
:100880000E9489098AEA95E00E948808C95BDF4FC7
:100890000FB6F894DEBF0FBECDBFCF91DF911F9191
:1008A0000F91FF90EF90DF90CF90089580918C048E
:1008B000882309F440C080918E04813029F0809112
:1008C0008D0490E00797FCF0809106026EE874E0DA
:1008D000409112050E94E21790918C04923068F0CA
:1008E000AEE8B4E0E0EDF4E082E401900D928150D6
:1008F000E1F78091130580931205915090938C0439
:1009000010928D0408958091060280626EE874E072
:10091000409112050E94E21780918D048F5F8093B1
:100920008D040E94940560931505709316058093BD
:1009300017059093180508951F930E9404158823A6
:1009400009F457C080913F0690914006892B09F029
:1009500050C08091420687FD21C08091420685FFEC
:100960001AC0909142069F7180910602981711F467
:10097000892F02C0892F8064182F10680E94EA1501
:10098000882339F0812F60E070E040E00E94E21798
:1009900002C01093140524E436E05CC08091420646
:1009A00085FD27C02091420630E02F713070809184
:1009B000060290E028173907E1F490918C049923FE
:1009C000C1F080918D048823A1F0923068F0AEE8E8
:1009D000B4E0E0EDF4E082E401900D928150E1F7A3
:1009E0008091130580931205915090938C0410927E
:1009F0008D0480911405882381F10E94EA158823D3
:100A000061F18091140560E070E040E00E94E2171F
:100A1000109214051DC080918D04882399F00E94C6
:100A200094052091150530911605409117055091B8
:100A300018052C593F4F4F4F5F4F621773078407BC
:100A4000950730F00E94EA15882311F00E945604A1
:100A500020E030E0C9011F91089580918C04882323
:100A6000D1F6F6CF1F93162F8093060263E044ED74
:100A70000E942618112371F08AEA95E065ED71E075
:100A80000E949F0987E598E90E94E61482EB94E9A9
:100A90000E94E6141F9108951F920F920FB60F92B5
:100AA00011242F933F938F939F93AF93BF93809184
:100AB0001D0590911E05A0911F05B0912005309154
:100AC00021050196A11DB11D232F2D5F2D3720F08B
:100AD0002D570196A11DB11D2093210580931D0561
:100AE00090931E05A0931F05B093200580911905D2
:100AF00090911A05A0911B05B0911C050196A11DAE
:100B0000B11D8093190590931A05A0931B05B0930E
:100B10001C05BF91AF919F918F913F912F910F90A5
:100B20000FBE0F901F9018958FB7F89420911D0558
:100B300030911E0540911F05509120058FBFB901CE
:100B4000CA0108959B01AC017FB7F8948091190503
:100B500090911A05A0911B05B0911C0566B5A89B44
:100B600005C06F3F19F00196A11DB11D7FBFBA2FBF
:100B7000A92F982F8827860F911DA11DB11D62E016
:100B8000880F991FAA1FBB1F6A95D1F7BC012DC002
:100B9000FFB7F8948091190590911A05A0911B0553
:100BA000B0911C05E6B5A89B05C0EF3F19F0019672
:100BB000A11DB11DFFBFBA2FA92F982F88278E0F17
:100BC000911DA11DB11DE2E0880F991FAA1FBB1F37
:100BD000EA95D1F7861B970B885E9340C8F22150A7
:100BE00030404040504068517C4F2115310541054F
:100BF000510571F60895789484B5826084BD84B5FA
:100C0000816084BD85B5826085BD85B5816085BD07
:100C1000EEE6F0E0808181608083E1E8F0E0108220
:100C2000808182608083808181608083E0E8F0E061
:100C3000808181608083E1EBF0E08081846080834B
:100C4000E0EBF0E0808181608083EAE7F0E0808182
:100C500084608083808182608083808181608083E2
:100C60008081806880831092C100089508951F924A
:100C70000F920FB60F9211242F933F934F938F93A0
:100C80009F93EF93FF938091C00082FD1DC0409120
:100C9000C60020916205309163052F5F3F4F2F738F
:100CA000307080916405909165052817390771F0BF
:100CB000E0916205F0916305EE5DFA4F4083309359
:100CC00063052093620502C08091C600FF91EF91F9
:100CD0009F918F914F913F912F910F900FBE0F9049
:100CE0001F901895E091B605F091B705E05CFF4FB5
:100CF0008191919120813181821B930B8F73907030
:100D0000892B11F00E94360608951F920F920FB69C
:100D10000F9211242F933F938F939F93EF93FF9301
:100D20002091A6053091A7058091A8059091A9056D
:100D30002817390731F48091C1008F7D8093C1005D
:100D400014C0E091A805F091A905EA59FA4F208155
:100D50008091A8059091A90501968F73907090934A
:100D6000A9058093A8052093C600FF91EF919F915C
:100D70008F913F912F910F900FBE0F901F9018955C
:100D8000AF92BF92DF92EF92FF920F931F93CF9398
:100D9000DF93EC017A018B01DD24403081EE5807AE
:100DA00080E0680780E0780711F0DD24D39491E0BB
:100DB000A92EB12CEC89FD89DD2069F0C50108A0C0
:100DC00002C0880F991F0A94E2F7808360E079E0FF
:100DD0008DE390E005C0108260E874E88EE190E059
:100DE000A80197010E94101C215030404040504003
:100DF000569547953795279580E12030380720F0A4
:100E0000DD2011F0DD24D6CFE889F9893083EA8925
:100E1000FB89208319A2EE89FF89408121E030E01F
:100E2000C9010C8C02C0880F991F0A94E2F7482B65
:100E30004083EE89FF894081C9010D8C02C0880F73
:100E4000991F0A94E2F7482B4083EE89FF8940817D
:100E5000C9010E8C02C0880F991F0A94E2F7482B33
:100E60004083EE89FF8980810F8C02C0220F331FDF
:100E70000A94E2F7209528232083DF91CF911F91D8
:100E80000F91FF90EF90DF90BF90AF900895DC013D
:100E90001C96ED91FC911D97E05CFF4F21913191E3
:100EA00080819181281B390B2F733070C9010895FF
:100EB000DC011C96ED91FC911D97E05CFF4F2081B9
:100EC0003181E054F040DF01AE5BBF4F8D919C91CA
:100ED00011972817390719F42FEF3FEF07C08D91AD
:100EE0009C91E80FF91F8081282F30E0C9010895F7
:100EF000DC011C96ED91FC911D97E05CFF4F208179
:100F00003181E054F040DF01AE5BBF4F8D919C9189
:100F100011972817390719F42FEF3FEF10C08D9163
:100F20009C911197E80FF91F20818D919C91119749
:100F300001968F73907011969C938E9330E0C90147
:100F40000895DC0191968C919197882339F05496FD
:100F5000ED91FC915597808186FFF9CF91961C9277
:100F60000895CF93DF93EC01EE85FF85E05CFF4FA2
:100F700020813181E054F0402F5F3F4F2F7330705C
:100F8000DF01AE5BBF4F8D919C91119728173907F8
:100F9000D1F3E05CFF4F80819181E054F040E80F95
:100FA000F91F6083EE85FF85E05CFF4F318320836E
:100FB000EE89FF89208181E090E00F8C02C0880FCC
:100FC000991F0A94E2F7282B208381E089A3EC89FA
:100FD000FD8980818064808381E090E0DF91CF9102
:100FE00008951092AD051092AC0588EE93E0A0E054
:100FF000B0E08093AE059093AF05A093B005B09399
:10100000B1058DE292E09093AB058093AA0582E250
:1010100095E09093B7058093B60586E695E09093AA
:10102000B9058093B80585EC90E09093BB0580935B
:10103000BA0584EC90E09093BD058093BC0580ECEC
:1010400090E09093BF058093BE0581EC90E0909373
:10105000C1058093C00582EC90E09093C305809316
:10106000C20586EC90E09093C5058093C40584E0AA
:101070008093C60583E08093C70587E08093C80509
:1010800085E08093C90581E08093CA050895CF93D8
:10109000DF930E94FB050E945601C2E7D6E00E9442
:1010A000BC022097E1F30E947206F9CFCF92DF9243
:1010B000EF92FF920F931F93CF93DF937C016B010D
:1010C0008A01C0E0D0E00FC0D6016D916D01D7015B
:1010D000ED91FC910190F081E02DC7010995C80FB9
:1010E000D91F015010400115110571F7CE01DF9194
:1010F000CF911F910F91FF90EF90DF90CF900895C7
:10110000DC01ED91FC910190F081E02D09950895AD
:10111000EF92FF920F931F938C01DC01ED91FC91F4
:101120000190F081E02D6DE009957C01D801ED91F1
:10113000FC910190F081E02DC8016AE009959C01C5
:101140002E0D3F1DC9011F910F91FF90EF90089543
:10115000CF93DF93EC016115710519F420E030E0C5
:101160000FC0DB010D900020E9F71197A61BB70B0C
:10117000E881F9810280F381E02DAD0109959C01A0
:10118000C901DF91CF9108954F925F927F928F9224
:101190009F92AF92BF92CF92DF92EF92FF920F9306
:1011A0001F93DF93CF93CDB7DEB7A1970FB6F89417
:1011B000DEBF0FBECDBF2C01742ECB01223008F450
:1011C0002AE019A231E2C32ED12CCC0EDD1E822ED4
:1011D0009924AA24BB24672D752FA50194010E9490
:1011E000101C79018A01C801B701A50194010E9470
:1011F000BE1B472D461B0894C108D1084A3010F485
:10120000405D01C0495CF6014083E114F104010531
:10121000110521F07E2C5F2DC801DDCFC201B60182
:101220000E94A808A1960FB6F894DEBF0FBECDBFEE
:10123000CF91DF911F910F91FF90EF90DF90CF90B2
:10124000BF90AF909F908F907F905F904F90089548
:10125000DC012115310541F4ED91FC910190F08103
:10126000E02D642F099508950E94C4080895EF9217
:10127000FF920F931F939A01E62EFF2400E010E0E7
:10128000B801A7010E9428091F910F91FF90EF90CC
:101290000895CF92DF92EF92FF920F931F93CF9317
:1012A000DF93EC016A017B012115310541F4E881EE
:1012B000F9810190F081E02D642F09951FC02A303B
:1012C0003105D1F477FF17C0E881F9810190F081F1
:1012D000E02D6DE209958C0144275527BA014C1980
:1012E0005D096E097F09CE012AE00E94C4089801B9
:1012F000280F391F04C02AE00E94C4089C01C901BC
:10130000DF91CF911F910F91FF90EF90DF90CF90E1
:101310000895EF92FF920F931F937B019A0100278C
:10132000F7FC0095102FB801A7010E9449091F91F1
:101330000F91FF90EF9008950E94A8080895EF92F2
:10134000FF920F931F937C010E94A8088C01C70194
:101350000E948808080F191FC8011F910F91FF9064
:10136000EF900895DF93CF9300D000D000D0CDB799
:10137000DEB7DE011196E9E3F2E086E001900D921E
:101380008150E1F786E191E0E4E5F2E0DF019C01C4
:101390001D9221503040E1F78091CC05833019F443
:1013A00067E176E003C0BE016F5F7F4F84E490E0A9
:1013B00043E450E00E94780F8091CC05833039F0EF
:1013C00084E592E0BE016F5F7F4F0E94F91381E0D8
:1013D00080937E0280937F0286E0809380028091DA
:1013E000D9059091DA05A091DB05B091DC058093D9
:1013F000820290938302A0938402B093850280912D
:10140000CC05833039F48EE792E00C966BE076E001
:101410000E9401148AE992E065E076E00E94F913E7
:10142000AAE6B3E0E8E1F2E002C081918D9332E0F8
:10143000EE31F307D1F79091CC05992311F083E0B9
:1014400001C081E0809370038DE38093710387E096
:101450008093720381E080937303A4E7B3E0E5E037
:10146000F6E002C081918D9386E0EB30F807D1F76A
:101470008CE080937A038AE080937B03ACE7B3E04F
:10148000E7E0F2E002C081918D9322E0E131F207C2
:10149000D1F726E833E03093DE052093DD05913067
:1014A00069F582E38093860384E080938703D90102
:1014B0001296EBE0F6E002C081918D9336E0EF30BA
:1014C000F307D1F786E380938C0384E080938D0348
:1014D0008EE893E09093DE058093DD05DC01E7E183
:1014E000F6E002C081918D9386E0EB31F807D1F7E9
:1014F00082E993E09093DE058093DD052091DD0580
:101500003091DE05D901E2E1F2E002C081918D93D4
:1015100082E0E831F807D1F7C90106969093DE051D
:101520008093DD058E5792400E94F01026960FB6EC
:10153000F894DEBF0FBECDBFCF91DF910895EF923B
:10154000FF920F931F93CF93DF93EC018091CC0513
:10155000823009F4E0C0833030F4882351F18130C7
:1015600009F03DC14AC0833021F0843009F037C111
:10157000D2C00E9494052091D1053091D2054091AE
:10158000D3055091D405E090CD05F090CE050091A3
:10159000CF051091D0052E0D3F1D401F511F621722
:1015A00073078407950708F41AC10E94B20984E002
:1015B00017C00E9494056093D9057093DA05809353
:1015C000DB059093DC0510920B0610920C0610922E
:1015D0000D0610920E060E94B2090E94900C81E046
:1015E0008093CC050E9494056093D5057093D60531
:1015F0008093D7059093D805F2C0C634D10508F47E
:10160000B2C080917702833409F0ADC080917E0230
:10161000823009F0A8C0209182023091830240916B
:101620008402509185028091D9059091DA05A091AC
:10163000DB05B091DC05281739074A075B0709F07D
:1016400092C080916E03853309F08DC08091700344
:10165000823009F088C0A6C0DF011196E180ED015B
:10166000219680818630A9F0873030F4813059F09E
:10167000833009F045C00AC08633E9F18A3361F04E
:101680008333F1F509C08FE096E037C083E196E03F
:1016900034C08BE196E031C011966C9170E080E02F
:1016A00090E0982F872F762F66272981620F711D72
:1016B000811D911D982F872F762F66272A81620F13
:1016C000711D811D911D982F872F762F66272B81E5
:1016D000620F711D811D911D28EE33E040E050E046
:1016E0000E94BE1B6093D1057093D2058093D305F1
:1016F0009093D40505C087E196E0BE010E940114D5
:10170000FE01EE0DF11DE017F10708F4A5CF0E94D0
:10171000B20982E065CFC634D10528F18091770205
:10172000833409F580917E028230E9F420918202AF
:101730003091830240918402509185028091D905B5
:101740009091DA05A091DB05B091DC0528173907E7
:101750004A075B0741F480916E03853321F4809141
:101760007003853059F10E9494052091D505309180
:10177000D6054091D7055091D805205F384D4F4F81
:101780005F4F261737074807590748F028C083E1FD
:1017900096E00E94DE0F83E08093CC0520C010927B
:1017A000CC051DC08BE096E06EE872E00E9401144B
:1017B000EEE6F3E08E010C5A1D4F4ECF0E948B0CCB
:1017C0000E9494056093CD057093CE058093CF055C
:1017D0009093D005809113068823E9F2D8CFDF914A
:1017E000CF911F910F91FF90EF900895CF93DF93CA
:1017F00081E08093230690910A06892F82958F704D
:10180000805D80930F029F70905D90931002109204
:10181000CC050E949405EB0104C00E94000D0E94BB
:101820009F0A8091CC05833061F00E9494056C1B67
:101830007D0B60567A4E28F40E94C10C882389F3F0
:10184000ECCF90E08091CC05833009F491E0892FB2
:10185000DF91CF9108958091E10561E00E946A1BBC
:1018600078940895FF920F931F93082F162FF42E4C
:10187000F8948091E10560E00E946A1B1F71102BB3
:101880001EBD0DB407FEFDCFFEBC0DB407FEFDCF9F
:101890000E942B0C1F910F91FF9008951F93182FFA
:1018A000282F30E0207630708091E20590E02817F4
:1018B000390799F080EA6FE143E00E94320C412F32
:1018C00040764093E20550E085E0559547958A952E
:1018D000E1F780E86FE10E94320C1F9108950F93A9
:1018E0001F93182F062F0E944E0C80E4612F402F6B
:1018F0000E94320C1F910F9108950F931F93182F80
:10190000072F0E946F0C812F8F5F602F0E946F0C3A
:101910001F910F91089588E360EB0E946F0C08956A
:1019200088E361EB0E946F0C08950F931F93182FAB
:10193000062FF8948091E10560E00E946A1B802FD9
:101940008F71812B8EBD0DB407FEFDCF1EBC0DB473
:1019500007FEFDCF07FF04C01EBC0DB407FEFDCF80
:101960001EB50E942B0C812F1F910F9108951F937C
:10197000182F0E944E0C80E0612F0E94950C1F9141
:10198000089584ED61E10E946F0C82ED61E00E9498
:101990006F0C8AEE0E94B70C80FDFBCF82ED60E0F9
:1019A0000E946F0C89ED0E94B70C90E09695879588
:1019B00096958795817008950F931F93CF93DF932A
:1019C000EC018B01F8948091E10560E00E946A1BB4
:1019D0008AE38EBD0DB407FEFDCF09C01EBC0DB459
:1019E00007FEFDCF8EB5F80181938F0121972097D7
:1019F000A9F70E942B0CDF91CF911F910F910895B1
:101A00000F931F93DF93CF9300D000D000D0CDB7BA
:101A1000DEB789E30E94B70C882319F400E010E0D8
:101A200048C06091E3057091E40580E00E947D0C60
:101A300086E090E0BE016F5F7F4F0E94DC0C8981E1
:101A40009A819093E4058093E3052B813C81E0919A
:101A5000DF05F091E0058D8187FD03C000E010E017
:101A60000EC0245030408F01015010402017310724
:101A700008F48901C80164E572E00E94DC0CF801F9
:101A8000EC5AFD4F10826091E3057091E4058CE003
:101A90006130780724F08CE06FEF7BE003C0615089
:101AA00070408CE00E947D0C80E86EE140E40E9472
:101AB000320CC80126960FB6F894DEBF0FBECDBF1C
:101AC000CF91DF911F910F9108950F931F93CF93A3
:101AD000DF938C01EB01F8948091E10560E00E94B6
:101AE0006A1B8AE78EBD0DB407FEFDCF08C0888152
:101AF0008EBD0DB407FEFDCF21960150104001159B
:101B00001105A9F70E942B0CDF91CF911F910F9126
:101B10000895CF93DF93EC010FC08CE10E94B70CC6
:101B200081FF0AC080E86FE140E80E94320C80EA41
:101B30006FE140E80E94320C80E06FE10E94950C5A
:101B400083FDEBCF82E060E07CE00E947D0CBE0173
:101B50006050744F86E00E947D0C8AE760E040E0B0
:101B60000E94320CCE0164E572E00E94650D80E8AF
:101B70006FE148E00E94320CDF91CF9108958AE036
:101B800061E00E942B1B8AE061E00E946A1B8BE0EF
:101B900061E00E942B1B8DE061E00E942B1B8CE01A
:101BA00060E00E942B1B8BE061E00E946A1B8BE0CF
:101BB00060E00E946A1B8DE060E00E946A1B80E585
:101BC0008CBD8DB581608DBD08951F93CF93DF933C
:101BD000EB01142F9093E0058093DF050CB406FC15
:101BE00002C00E94BF0D1093E105812F61E00E94A9
:101BF0002B1B0E942B0C8FEF60E04FEF0E94320CEA
:101C000062E070E080E090E00E94A20580E06DE17B
:101C10000E94950C8823D1F31092E4051092E305FD
:101C200088E060E070E00E947D0C8CE060E070E095
:101C30000E947D0C8AE06FEF7BE00E947D0C84E0C7
:101C400060E07CE00E947D0C86E06FEF71E10E9415
:101C50007D0C0E94900C88E26FE370E30E947D0C83
:101C600080E369EF77EF0E947D0C80EC6DE00E94CD
:101C70006F0C81EC60E00E946F0C80E862EC42E344
:101C80000E94320C86EC62E17CE00E947D0C84ECC8
:101C900062E10E946F0C8AEC6CED75E00E947D0C95
:101CA00084EE68810E946F0C85EE69810E946F0C42
:101CB00082EE6A810E946F0C83EE6B810E946F0C32
:101CC00080EE6C810E946F0C81EE6D810E946F0C22
:101CD00084ED60E10E946F0C86ED60E071E00E948F
:101CE0007D0C8AEE0E94B70C80FDFBCF8FE10E9435
:101CF0004E0C80E86BE140EC0E94320C80E86FE112
:101D000044E00E94320C82E70E94B70C863008F053
:101D10008F5FDF91CF911F910895AF92BF92CF92C5
:101D2000DF92FF920F931F93CF93DF938C01EB0110
:101D3000F42E1092230638E341E050E060E070E0BA
:101D400018C0832F90E0FC01B3E0F595E795BA95B4
:101D5000E1F7EB51FA4F877090705A016B0104C0A4
:101D6000AA0CBB1CCC1CDD1C8A95D2F720812A2929
:101D70002083315031F785E096E0BE010E94F913CF
:101D8000C80165E076E04F2D0E94E50DDF91CF910F
:101D90001F910F91FF90DF90CF90BF90AF9008956B
:101DA000DF92EF92FF920F931F93CF93DF93D82E82
:101DB000862FBA01213041F4675F7F4F9B0140E0DD
:101DC00050E0695070400EC0223029F020E030E031
:101DD00040E050E007C0625070409B0140E050E09E
:101DE0006E5F7F4FE82EFF2484E592E0E80EF91E37
:101DF0008B01E7010FC0F881E0E0898190E08E2B34
:101E00009F2BA0E0B0E0280F391F4A1F5B1F2296CE
:101E1000025010400230110570F7CB018E7FD701C0
:101E2000A80FB91F6817790779F08C9190E0A0E0AE
:101E3000B0E0BA2FA92F982F882702C040E050E0C9
:101E4000280F391F4A1F5B1FCA01AA27BB2700970B
:101E5000A105B10599F7C90180959095ED2DF0E0A8
:101E6000EC5AFD4F90838183DF91CF911F910F91A9
:101E7000FF90EF90DF90089510926C0210926D0227
:101E800080E4809368021092690280936A0288E17C
:101E90006EE044E150E020E00E94D00E08950F93E0
:101EA0001F93BC0104E512E0C8010E94F913C801A8
:101EB000069665E076E00E94F9131F910F91089550
:101EC000EF92FF920F931F937B010E944F0F02E747
:101ED00012E0C801B7010E940114C80104976BE029
:101EE00076E00E9401141F910F91FF90EF900895EA
:101EF000EF92FF920F931F93CF93DF937C01EB013F
:101F00008A0180E396E00E94600F8881807F803E96
:101F100049F088819981AA81BB818F5F9F4FAF4F24
:101F2000BF4F31F484E592E06FE372E00E94F91351
:101F300088E0809360021092610282E692E060E79E
:101F400070E049E050E00E94F0001092640281E1EC
:101F500080936B021093780200937902F0927602DC
:101F6000E092770210927A0210927C0210927D0227
:101F7000DF91CF911F910F91FF90EF900895EF9215
:101F8000FF920F931F930AE512E0C8010E944F0FC2
:101F900074E1E72EF12CE00EF11EC8014896B7015E
:101FA0000E940114C7016BE076E00E9401140E94B8
:101FB0003C0F1F910F91FF90EF900895BC0181E0BD
:101FC0008093250683E196E00E94011408950F9303
:101FD0001F938C01889690936402809365020E94FF
:101FE0003C0F1092860210928702045E1F4F82E31C
:101FF0006AE1A80122E00E94D00EC8014A960E9420
:10200000890D1F910F910895CF93DF939C01862F27
:10201000806180938302643029F02115310511F429
:1020200021E030E0909178028091760280937802EE
:102030009093760290917902809177028093790251
:1020400090937702CDE7D2E08881A901480F511D16
:102050002C814C832883252F3327219752E0C937C1
:10206000D50791F71D861E8680E589871092640248
:1020700088E2809365020E94BF0F84E08B871C86F4
:1020800082E36AE14CE150E022E00E94D00E86E358
:1020900090E00E94890DDF91CF910895E82FA091E3
:1020A0006402B0916502F09182024091780250E0A2
:1020B000292F30E04217530709F08EC08091790232
:1020C0008E1709F089C080918302E82F81FF4EC0EE
:1020D000109264028CE2809365020E94BF0F82E13D
:1020E00080938302909178028091760280937802A7
:1020F0009093760290917902809177028093790291
:1021000090937702EDE7F2E021E030E08081A901D1
:10211000480F511D44831082252F3327319752E0F9
:10212000E937F50799F71586168611821282809194
:102130002302838314828D5F8093230282E0818B4C
:1021400084E0828B95E0938B148A80E68187938765
:1021500088E7848782E36AE140E250E022E00E945F
:10216000D00E8AE390E00E94890D36C084FF34C00F
:102170004F2F50E084E0559547958A95E1F79A2FC7
:1021800080E02B2F30E0282B392BCA01880F991FB4
:10219000880F991F281B390B2451304037FF02C08C
:1021A00020E030E03093370620933606232B69F089
:1021B0009A01220F331F220F331F2E5D3F4F6850AD
:1021C00070406217730740F009C0E0FF05C080E06F
:1021D00090E060E00E94041020E030E0C901089522
:1021E0000F931F93DF93CF930F92CDB7DEB78C0180
:1021F000045E1F4F109364020C511040802F845EC8
:102200008093650289830E943C0F085F1F4F1093E3
:102210007A028981845180937B02085F1F4F88E294
:102220006AE1A80121E00E94D00EC8014A960E94EE
:10223000890D0F90CF91DF911F910F910895FF921B
:102240000F931F939C01F62E80E396E0B9010E9444
:10225000600F00E612E088E0809360021092610255
:10226000C801029660E770E049E050E00E94F0008B
:102270008CE48093650281E180936B020E943C0FA5
:10228000109278028BE7809379028AE0809376023D
:10229000F092770210927A0288E380937B02109288
:1022A0007C0210927D02025E1F4F80E3F8011192C2
:1022B0008A95E9F7C80163E271E04AE050E00E94C4
:1022C000F00088E26AE140E450E021E00E94D00E94
:1022D0008AE590E00E94890D1F910F91FF9008956B
:1022E000DF92EF92FF920F931F93CF93DF93EC0156
:1022F00080912306882319F0CE010E949F0A20971F
:1023000009F0BFC0809125068570F1F1809120020F
:1023100090912102892BC1F50E94C10C8823A1F163
:102320008FE392E00E944F0F88E080936002A6E066
:10233000FA2EF092610282E692E068E670E048E0F0
:1023400050E00E94F00004E712E0D8011D92FA94D8
:10235000E9F7C8010A9765E076E00E94F913C80121
:10236000069663E176E00E940114C80104976BE0D1
:1023700076E00E94011480912506886080932506EE
:102380008AE290E00E94890D8091200290912102C2
:10239000019690932102809320028091260681303D
:1023A00009F0DFC18091250681FFDBC102E00093C7
:1023B0002606809122028F5F809322028F711091F6
:1023C00027061295110F107E182BE0902806D0904A
:1023D000290680E396E06FE176E00E94600FF8E066
:1023E000FF2EF09260021092610282E692E060E7B6
:1023F00070E049E050E00E94F0008CE280936502BA
:1024000086E080936B020E943C0FE0927802D092AB
:1024100079028BE08093760210937702EAE7F2E08C
:10242000DF011D92FA94E9F78091230280937C02E8
:102430008D5F8093230280E6809382020093830263
:1024400083E080938402109285021092860210929B
:102450008702109288021092890200938A0284E017
:1024600080938B0200938C0286E280938D0282E33C
:102470006AE140E250E022E00E94D00E8AE390E060
:102480009BC0C932D10508F46CC1109160021830AC
:1024900009F072C180916102863009F06DC18AE74E
:1024A00092E06BE076E044E050E00E94F900009793
:1024B00009F062C180916902813029F58AE592E0D4
:1024C0000E944F0F1092680282E08093690284E7B5
:1024D00092E06AE672E00E94F9138AE692E065E013
:1024E00076E00E94F9138AE792E060E772E00E94CA
:1024F000011480E792E06BE076E00E9401148AE22A
:1025000090E00E94890D8091250683FF2AC11091D9
:102510006902123009F025C180E792E063E176E0BC
:1025200044E050E00E94F900009709F01AC180E3EE
:1025300096E06AE672E00E94F9131093250611C135
:10254000183009F00EC180916102882309F009C199
:1025500080916202853409F004C182E792E06BE069
:1025600076E044E050E00E94F900009709F0F9C0DD
:1025700090916B02913019F5809176028830F9F4D0
:10258000E0912A06F0912B06309719F08EE692E042
:1025900009950E94BF0F1092760280917802883FC1
:1025A00028F0809179028F5F809379028091780280
:1025B000885F80937802CE010E94890DD2C0C63315
:1025C000D10518F4963009F0CCC0809178028B3098
:1025D00009F0BEC08EE692E06FE176E044E050E0A4
:1025E0000E94F900009709F0BCC080918302382F47
:1025F00082FF13C0E0912C06F0912D06309759F020
:102600008091790282958695877063E040E050E082
:1026100020E030E0099585E090C09091640280E070
:1026200020916502022F10E0082B192B8091820265
:10263000482F50E0E4E055954795EA95E1F7CA0147
:10264000880F991F880F991F081B190B0451104000
:1026500017FF02C000E010E080912606823079F575
:1026600031FF21C034FF1FC080E090E060E00E9495
:10267000041088E180938302E0912E06F0912F06EA
:10268000309719F420E030E007C0809177028295FE
:102690008695877009959C0183E080932606C90181
:1026A0000E94E70F5EC081E08093260634FF03C0DE
:1026B00080E090E002C0C801019664E046C083302B
:1026C00081F50115110579F1E0912C06F0912D06A7
:1026D000309749F1440F551F440F551FCE010897FD
:1026E0004E5D5F4F8417950708F4AC01C801840F55
:1026F000951FC817D90710F0980103C09E01241B2D
:10270000350B8091790282958695877060E00995F6
:1027100080912406882319F0C80168E016C0C8011A
:1027200008C08530F1F030FF0BC08330D1F0C80114
:10273000019669E00E94041086E08093260611C08D
:102740000115110571F0C80160E00E94041009C074
:1027500080911E0290911F02BE010E944E109C01AA
:1027600002C020E030E0C901DF91CF911F910F91AD
:10277000FF90EF90DF900895CA32D10508F0E0CEC7
:10278000F0CF0F931F93CF93DF938C01C0E0D0E085
:10279000F801EC0FFD1F8AEA95E060814AE050E005
:1027A0000E943709C33029F08AEA95E06EE20E9460
:1027B00080082196C430D10559F7DF91CF911F9140
:1027C0000F910895EF92FF920F931F939C017B014D
:1027D0000AEA15E0C801B9010E949C09C7010E94DC
:1027E000C113C8010E9488081F910F91FF90EF90BC
:1027F0000895DC01FB0186E001900D928150E1F724
:1028000008959C01FB0180819181A281B381F9012E
:1028100080839183A283B3830895FC018081882300
:1028200011F482E101C08D5F0E942B1B0895FC0111
:102830008081882311F483E101C0835F0E942B1BF8
:102840000895FC018081882311F482E101C08D5F2D
:102850000E946A1B0895FC018081882311F483E1A2
:1028600001C0835F0E946A1B08950F931F93CF934B
:10287000DF93EC01162F062F60FF07C060E00E9477
:102880000D14CE0161E00E94211401FF08C0CE01A9
:1028900060E00E941714CE0161E00E942B14109595
:1028A0008C8181238C83DF91CF911F910F910895AB
:1028B0000F931F93CF93DF93EC01062F162F60FF2A
:1028C00007C060E00E942114CE0161E00E940D1457
:1028D00011FF08C0CE0160E00E942B14CE0161E020
:1028E0000E9417148C81802B8C83DF91CF911F91D4
:1028F0000F9108950F931F93CF93DF938C01EB01FA
:1029000080E06115710509F081E0F8018283882378
:1029100041F00E9494052197C60FD71FF801D1837B
:10292000C083DF91CF911F910F910895EF92FF9295
:102930000F931F93CF93DF93EC017B018A81882350
:1029400011F400E00FC0088119810E949405C801AC
:10295000861B970B2AEE8136920710F400E006C022
:10296000082F0195CE01B7010E947A14802FDF91C4
:10297000CF911F910F91FF90EF900895782F65B13F
:1029800021E030E040E050E00090240204C0220F3B
:10299000331F441F551F0A94D2F7322F822F809580
:1029A000862385B99EBD0DB407FEFDCF4EB57EBD15
:1029B0000DB407FEFDCF2EB5942F80E045B1342B2A
:1029C00035B930E0282B392BC9010895E8980E94C9
:1029D000BE14E89A089580913806909139068F7058
:1029E0009093390680933806809138069091390685
:1029F00088609093390680933806809138069091CC
:102A000039060E94BE14089580918F06873009F020
:102A100042C0809143062091920690E0049630E0F7
:102A20008217930724F0809192068734A0F184E006
:102A300080938F0680914306833430F081E090E0EC
:102A40009093400680933F068091420686FF12C015
:102A500080918E06282F30E0C9018F7190704F97BA
:102A600049F08091420690E0822793278F71907001
:102A7000892B89F480913F0690914006892B09F0BB
:102A800056C0E0918C06F0918D06309709F44FC046
:102A900080E0099558C080918F06843011F080E065
:102AA00008951092430680914306809392068FEF1B
:102AB0009FEF9093400680933F062091900622233B
:102AC000D9F08227282F22952827022E2695269591
:102AD0002025022E269520252770082E892F269541
:102AE00007942795902D8227069427959025822775
:102AF0009093400680933F0687E080938F0681E0A5
:102B000080933D0683EA94E90E94BE1480913806C2
:102B100090913906886D909339068093380680919C
:102B20003806909139060E94BE1480E008958FEF18
:102B30009FEFAFEFBFEF8093880690938906A09335
:102B40008A06B0938B0681E008950F931F93082F98
:102B500010E0C801966C0E94BE1498012F77307067
:102B60002F5F3F4F442737FD4095542F6BEF72E4A2
:102B700085E090E00E94101CCA01B901000F012FEE
:102B8000001F110B980143E0220F331F4A95E1F714
:102B9000201B310B2F5F3F4F442737FD4095542FAB
:102BA0000E94101C93E056954795379527959A9566
:102BB000D1F72D573C4F4F4F5F4FCA01B90124E861
:102BC00033E040E050E00E94101C20933E061F912D
:102BD0000F91089580918F06873091F4809192062D
:102BE000882371F41EBC0DB407FEFDCF0EB400FCAB
:102BF00007C00E94EB1484E080938F0681E0089563
:102C000080E00895982F86FD05C0907E80918E0605
:102C10008F71980F90934206E0918C06F0918D068B
:102C2000309711F081E009958FEF9FEF9093400668
:102C300080933F0680913F06909140062091900638
:102C40008227282F22952827022E26952695202593
:102C5000022E269520252770082E892F2695079469
:102C60002795902D8227069427959025822790936B
:102C7000400680933F0688E080938F068091380657
:102C80009091390688639093390680933806809135
:102C90003806909139060E94BE140895DF92EF9293
:102CA000FF920F931F937B018C01DD2405C0D39409
:102CB00016950795F794E7948FEFE816F104010550
:102CC000110509F0A0F7809138069091390681FF2F
:102CD0000FC080913806909139068D7F9093390608
:102CE0008093380680913806909139060E94BE1470
:102CF000E114F10401051105B9F0C701906E3D2DF5
:102D000020E0822B932B0E94BE1480913806909174
:102D10003906826090933906809338068091380690
:102D2000909139060E94BE141F910F91FF90EF9071
:102D3000DF90089585B121E030E040E050E0009060
:102D4000240204C0220F331F441F551F0A94D2F7D8
:102D5000322F922F9095982395B91EBC0DB407FE83
:102D6000FDCF6EB51EBC0DB407FEFDCF2EB5962F60
:102D700080E0622F70E0682B792B77FF0FC0809185
:102D80008F06873059F48CB581608CBD1EBC0DB4A4
:102D900007FEFDCF2EB58CB58E7F8CBD85B1382B4F
:102DA00035B970933B0660933A0680913A0690914C
:102DB0003B0697FFE3C080918F06873009F079C00A
:102DC00080919206882371F490919006992351F096
:102DD00080919206E82FF0E0EF5BF94F90838F5FD0
:102DE0008093920680919206E82FF0E0EF5BF94F16
:102DF00020838F5F8093920680913F0690914006DA
:102E00008227282F22952827022E269526952025D1
:102E1000022E269520252770082E892F26950794A7
:102E20002795902D822706942795902582279093A9
:102E3000400680933F0620913D06233040F5809167
:102E4000920690E060913E06029770E00E94FD1BA2
:102E5000892BE9F480913A0690913B06E22FF0E04D
:102E600090FF04C0EB5BFD4F808104C0EB5BFD4F26
:102E7000808182958F7080933D06833040F490E08E
:102E8000880F991F0196806A94690E94BE148091F0
:102E900043062091920690E0049630E08217930753
:102EA0002CF080919206873408F468C00E94EB14DD
:102EB00065C080918F0687FF2EC0E0914306809108
:102EC0008F068F5F80938F068150ED5FE80FF0E0F3
:102ED000EF5BF94FE08180913F06909140068E278D
:102EE000282F22952827022E269526952025022E6A
:102EF000269520252770082E892F2695079427953B
:102F0000902D82270694279590258227909340063E
:102F100080933F062EC080918F068F5F80938F062F
:102F20008150833019F184302CF4882399F081305A
:102F3000F9F416C08B3019F08C30D1F402C0EDE2F8
:102F400018C0E0919006909143068EEF891B809304
:102F50008F060FC080913F0690914006E82F09C070
:102F600080913F0690914006E92F03C00E94EB1428
:102F7000EAEA8E2F90E0986B0E94BE1480913A0688
:102F800090913B0696FF03C086E080938F06809168
:102F90003A0690913B0694FF09C060E070E080E043
:102FA00090E00E944E1681E080933C0680913A06A4
:102FB00090913B0695FF05C00E94EB1484E080933E
:102FC0008F0608951F93182F4093430624E436E09C
:102FD000C90150E00E940601812F0E9402161F9134
:102FE000089525B181E090E0A0E0B0E000902402D7
:102FF00004C0880F991FAA1FBB1F0A94D2F7282B61
:1030000025B924B1822B84B98AE061E00E946A1B51
:103010008AE061E00E942B1B8BE061E00E942B1B89
:103020008CE060E00E942B1B8DE061E00E942B1B76
:1030300080E58CBD8DB581608DBD82E060E00E9431
:103040002B1B82E061E00E946A1B08951F9380930E
:103050008E0640939006609391060E94F11780912E
:103060008E0690E08F719070892B41F080E06AE9C4
:1030700076E140E050E00E949B1A03C080E00E948D
:10308000BE1A82E89AEC0E94BE1480E09EEF0E9475
:10309000BE1485E080938F0683B7817F06C083B717
:1030A000816083BF889583B78E7F83BF80918F06B1
:1030B0008530A9F3F89485E092E8909339068093DF
:1030C000380680913806909139060E94BE1480918E
:1030D000910690E074E0880F991F7A95E1F7876C6C
:1030E00090680E94BE1480E496EA0E94BE1486E0B6
:1030F0000E94A51582EA94E90E94BE148CEA92EC23
:103100000E94BE1410919006112341F083E89AECBE
:103110000E94BE14812F90E09E6C06C08BE89AEC52
:103120000E94BE148DE29EEC0E94BE1483E894ECD3
:103130000E94BE1480E598E90E94BE1487E79CECCB
:103140000E94BE1480E090EE0E94BE1480E098ECD5
:103150000E94BE1489E490EC0E94BE1484E0809327
:103160008F06789480918E061F9108958F929F927A
:10317000AF92BF92CF92DF92EF92FF920F931F9385
:10318000CF93DF937B018C01EA012CE330E040E038
:1031900050E00E94101C6883C801B7012CE330E0A6
:1031A00040E050E00E94101C122F032FF42EE52E59
:1031B000622F732F842F952F2CE330E040E050E0F6
:1031C0000E94101C6983612F702F8F2D9E2D2CE380
:1031D00030E040E050E00E94101C122F032FF42E2C
:1031E000E52E622F732F842F952F28E130E040E0E9
:1031F00050E00E94101C6A83612F702F8F2D9E2D2E
:1032000028E130E040E050E00E94101C79018A0182
:10321000C801B7016C5F7F4F8F4F9F4F27E030E0B1
:1032200040E050E00E94101C6F5F6B8320E0AA24F6
:10323000BB24650101C02F5F822E9924F401EE5456
:10324000F84FCF0183709070892B99F4CF0164E619
:1032500070E00E94FD1B892B39F4CF0160E971E019
:103260000E94FD1B892B29F48EE691E0A0E0B0E0DE
:1032700004C08DE691E0A0E0B0E0A80EB91ECA1E21
:10328000DB1EC501A0E0B0E0E816F9060A071B073F
:1032900090F62E83F401EE54F84F83E0882E912CA3
:1032A0008E229F228114910499F4CF0164E670E08C
:1032B0000E94FD1B892B39F4CF0160E971E00E9467
:1032C000FD1B892B29F48EE691E0A0E0B0E004C05C
:1032D0008DE691E0A0E0B0E0A81AB90ACA0ADB0ABC
:1032E000980187010A191B092C093D09CF0164E6E1
:1032F00070E00E94FD1B7C01CF0160E971E00E943B
:10330000FD1BAC01E8E4F2E060E0613051F48114AF
:10331000910449F4E114F10441F44115510529F0F7
:1033200002C0808103C08CE101C08DE190E0A0E08B
:10333000B0E0081719072A073B0740F0081B190BD4
:103340002A0B3B0B6F5F31966C30F9F66F5F6D8324
:10335000802F8F5F8C83DF91CF911F910F91FF9012
:10336000EF90DF90CF90BF90AF909F908F90089597
:10337000EF92FF920F931F937B018C018091A9061E
:103380009091AA06A091AB06B091AC06E816F9069A
:103390000A071B0771F0C801B7014EE956E00E9409
:1033A000B618E092A906F092AA060093AB06109315
:1033B000AC061F910F91FF90EF9008950E94B819ED
:1033C0002091A40630E02E54384FC90108950E9480
:1033D000B8198091A30690E008950E94B8198091D1
:1033E000A20690E008950E94B81980919E0690E090
:1033F00008950E94B81980919F0690E008950E9458
:10340000B8198091A00690E0089560939506709396
:103410009606809397069093980620912502309106
:1034200026024091270250912802260F371F481F7D
:10343000591F2093990630939A0640939B06509308
:103440009C0682E080939D060E9494056093A506E9
:103450007093A6068093A7069093A8060895EF920E
:10346000FF920F931F931CC02F5F3F4F4F4F5F4F33
:1034700020939506309396064093970650939806AE
:1034800088EE93E0A0E0B0E0E80EF91E0A1F1B1FD3
:10349000E092A506F092A6060093A7061093A80650
:1034A0000E949405E090A506F090A6060091A7065C
:1034B0001091A8066E197F09800B910B209195063B
:1034C000309196064091970650919806685E734039
:1034D0008040904048F68091990690919A06A0917C
:1034E0009B06B0919C06281739074A075B07B0F086
:1034F000E0919306F0919406309781F0099561155B
:1035000071058105910519F00E94051A07C090E028
:1035100080919D06811191E090939D0660919506A2
:103520007091960680919706909198061F910F9141
:10353000FF90EF900895823000F5E82FF0E0EE0F55
:10354000FF1FE355F94F71836083882319F08130A1
:10355000A1F408C0809169008C7F842B809369005E
:10356000E89A089580916900440F551F440F551F34
:10357000837F842B80936900E99A0895823080F4D8
:10358000882319F0813021F402C0E89801C0E9983D
:10359000E82FF0E0EE0FFF1FE355F94F1182108284
:1035A00008951F920F920FB60F9211242F933F93FD
:1035B0004F935F936F937F938F939F93AF93BF933B
:1035C000EF93FF938091AD069091AE06892B29F081
:1035D000E091AD06F091AE060995FF91EF91BF9194
:1035E000AF919F918F917F916F915F914F913F919B
:1035F0002F910F900FBE0F901F9018951F920F9252
:103600000FB60F9211242F933F934F935F936F93B5
:103610007F938F939F93AF93BF93EF93FF9380918B
:10362000AF069091B006892B29F0E091AF06F0919A
:10363000B0060995FF91EF91BF91AF919F918F9146
:103640007F916F915F914F913F912F910F900FBE9E
:103650000F901F901895CF93DF93482F50E0CA0129
:10366000815A9E4FFC013491455B5E4FFA01849173
:10367000882369F190E0880F991FFC01E35DFE4FFC
:10368000A591B491FC01E95CFE4FC591D4916623EC
:1036900051F42FB7F8948C91932F909589238C93A4
:1036A000888189230BC0623061F42FB7F8948C9124
:1036B000932F909589238C938881832B88832FBFA8
:1036C00006C09FB7F8948C91832B8C939FBFDF919A
:1036D000CF910895482F50E0CA018D589E4FFC01AC
:1036E0002491CA01815A9E4FFC019491455B5E4F23
:1036F000FA013491332309F440C0222351F12330DD
:1037000071F0243028F42130A1F0223011F514C0DA
:103710002630B1F02730C1F02430D9F404C08091B4
:1037200080008F7703C0809180008F7D8093800020
:1037300010C084B58F7702C084B58F7D84BD09C069
:103740008091B0008F7703C08091B0008F7D80930F
:10375000B000E32FF0E0EE0FFF1FE95CFE4FA591F4
:10376000B4912FB7F894662321F48C919095892316
:1037700002C08C91892B8C932FBF0895629FD0013A
:10378000739FF001829FE00DF11D649FE00DF11D1C
:10379000929FF00D839FF00D749FF00D659FF00DCB
:1037A0009927729FB00DE11DF91F639FB00DE11DB8
:1037B000F91FBD01CF0111240895991B79E004C0C0
:1037C000991F961708F0961B881F7A95C9F7809560
:1037D0000895AA1BBB1B51E107C0AA1FBB1FA61758
:1037E000B70710F0A61BB70B881F991F5A95A9F7AA
:1037F00080959095BC01CD01089597FB092E072671
:103800000AD077FD04D0E5DF06D000201AF47095C9
:1038100061957F4F0895F6F7909581959F4F089594
:10382000A1E21A2EAA1BBB1BFD010DC0AA1FBB1FC4
:10383000EE1FFF1FA217B307E407F50720F0A21B36
:10384000B30BE40BF50B661F771F881F991F1A94A3
:1038500069F760957095809590959B01AC01BD01CD
:10386000CF010895EE0FFF1F0590F491E02D09940C
:04387000F894FFCFFA
:103874000A2A2A2A2A2A2052554E4E494E473A20CD
:103884006574685F6E6F64652E696E6F004661696A
:103894006C656420746F2061636365737320457481
:1038A4006865726E657420636F6E74726F6C6C659C
:1038B400720053657474696E6720757020444843C0
:1038C400500044484350206661696C6564004D793A
:1038D4002049503A2000556E6B6E6F776E207061F0
:1038E400636B65742074797065206864723D002090
:1038F4006C656E3D00202D2D20002F0020005365A7
:103904006E742074696D65207570646174650A0055
:1039140043616E6E6F742073656E642074696D65A7
:10392400207570646174650A005468652074696D5B
:10393400652069733A2000203D2000436F6E736F49
:103944006C653A20004E65743A207265647563694B
:103954006E6720747820706F77657220616E6420C2
:103964007278206761696E00C0A800037469692DCC
:103974003032C0A80003FF41726475696E6F2D3048
:1039840030003703010306FF63825363350150009F
:103994000100010A022C01000000000000B10756DA
:1039A40008470778075807A107FFFFFFFFFFFFFF3E
:1039B400FFFFFFFFFF3402561F1C1F1E1F1E1F1F89
:0439C4001E1F1E1F85
:00000001FF
