:100000000C94C9010C941B220C9448220C94F1010D
:100010000C94F1010C94F1010C94F1010C94F10198
:100020000C94F1010C94F1010C94F1010C94F10188
:100030000C94F1010C94F1010C94F1010C94F10178
:100040000C94330D0C94F1010C94D70E0C94250FE5
:100050000C94F1010C94F1010C94F1010C94F10158
:100060000C94F1010C94F10149503A20002A2A2AFB
:100070002A2A2052554E4E494E473A206574685FF1
:100080006E6F64652E696E6F004661696C656420F1
:10009000746F206163636573732045746865726E65
:1000A000657420636F6E74726F6C6C6572002A2ABF
:1000B0002A2A2A2053455455503A206574685F6EA9
:1000C0006F64652E696E6F004554483A206C656E0A
:1000D000677468206D69736D6174636820756470FE
:1000E0003A00206E6F7420666F756E6420696E2012
:1000F000636F6E6669675F7265616400436F6E6609
:1001000069673A206D6F64756C652000206E6F74AE
:1001100020666F756E6420696E20636F6E66696716
:100120005F777269746500436F6E6669673A206D28
:100130006F64756C6520002020435243206D61740C
:10014000636865732100202043524320646F657308
:10015000206E6F74206D6174636821002062797471
:10016000657300206D617829002076732E2000745D
:1001700068206D6F64756C6520697320746F6F20E3
:100180006C61726765202800434F4E4649473A200C
:100190007468652073697A65206F662074686520CD
:1001A000636F6E66696720666F72207468652000F1
:1001B00020636F6E666967732000436F6E666967C0
:1001C0003A20002074696D65002065746800207213
:1001D00066313200206C6364002073657269616C63
:1001E00000436F6E666967204C6F673A00202031CC
:1001F000396B6270730020206C6F77205458207028
:100200006F7765720020757569643D3078002067EE
:10021000726F75705F69643D00436F6E6669672039
:100220004E65743A206E6F64655F69643D00436F8C
:100230006E6669673A20004E65743A207570646195
:1002400074696E67206E6F64655F696420746F20E7
:10025000004E65743A2073656E64696E6720616E46
:100260006E6F756E63656D656E740000000000242E
:100270000027002A0000000000250028002B0000B5
:1002800000000023002600290004040404040404E0
:100290000402020202020203030303030301020435
:1002A00008102040800102040810200102040810F8
:1002B0002000000007000201000003040600000007
:1002C00000000000000001080006040001450000D5
:1002D000820000400020504F5354202446204854B0
:1002E00054502F312E300D0A486F73743A20244633
:1002F0000D0A244624534163636570743A202A2F03
:100300002A0D0A436F6E74656E742D4C656E6774AA
:10031000683A2024440D0A436F6E74656E742D5440
:100320007970653A206170706C69636174696F6E91
:100330002F782D7777772D666F726D2D75726C65BE
:100340006E636F6465640D0A0D0A245300474554BB
:10035000202446245320485454502F312E300D0A67
:10036000486F73743A2024460D0A24460D0A0D0A7C
:10037000004163636570743A20746578742F687403
:100380006D6C00E30004FA0001000000010091021E
:10039000911011241FBECFEFD8E0DEBFCDBF11E01A
:1003A000A0E0B1E0E0ECFAE402C005900D92A03FBD
:1003B000B107D9F716E0A0EFB1E001C01D92AC3B48
:1003C000B107E1F713E0C2E9D3E004C02297FE01D0
:1003D0000E942325CE38D107C9F70E94E7100C945C
:1003E0005E250C940000FB01DC0102C005900D921B
:1003F00041505040D8F70895FB01DC0104C08D91B5
:100400000190801921F441505040C8F7881B990B86
:100410000895FB01DC0102C001900D924150504053
:10042000D8F70895A0E0B0E0E8E1F2E00C943125BF
:100430007C01EB018A01690109C0CE012196F60118
:100440000995F70181937F010150104001151105B5
:10045000A1F7CDB7DEB7E8E00C944D25A0E0B0E001
:10046000E4E3F2E00C943125EC017B018A0169019F
:1004700009C0CE012196F70161917F01F60109952E
:100480000150104001151105A1F7CDB7DEB7E8E026
:100490000C944D25DF92EF92FF920F931F93D72E6E
:1004A0007A018C01FA010995C80101966D2DF701B9
:1004B00009951F910F91FF90EF90DF900895282FDD
:1004C000442321F080911502841749F5809116028A
:1004D000882329F580911702883309F5809113024A
:1004E0008B37E9F4E22FF92F8091420283838091C8
:1004F00043028283809144028183809145028083FC
:10050000FB01809146028383809147028283809120
:100510004802818380914902808381E0089580E0D0
:10052000089584EE93E064ED40E00E947C0A10920E
:10053000D0041092D3041092D6041092D90482E011
:100540008093DA0482E894E00E94A20885E991E0B1
:1005500090938304809382040E96909387048093F3
:1005600086040895EF92FF920F931F93F62EE72EC5
:10057000042F8FE097E263E571E04FE057E20E94BD
:10058000701684ED80931A028091F90480931B0207
:1005900000931C0282E080931D022EE132E0C9012B
:1005A0006F2D7E2D402F50E00E94090210E0C801FF
:1005B00004960E94E8178091DB049091DC04A091DE
:1005C000DD04B091DE040196A11DB11D8093DB0412
:1005D0009093DC04A093DD04B093DE041F910F918F
:1005E000FF90EF9008950F931F93DF93CF93CDB7B4
:1005F000DEB728970FB6F894DEBF0FBECDBF8BE8ED
:1006000095E040E051EE60E070E00E94600F8BE802
:1006100095E06EEA70E00E946B118091DA04882305
:1006200011F483E101C0835F61E00E94430E809179
:10063000DA04882311F483E101C0835F60E00E9443
:10064000820E8091DA04882311F482E101C08D5F6B
:1006500061E00E94430E8091DA04882311F482E164
:1006600001C08D5F60E00E94820E82E691E00E94F0
:1006700058078091F904813029F084EE93E061E01D
:100680000E94AF0981E08093F8048BE895E060E078
:1006900071E00E94DE1200E010E0F801E859FE4F20
:1006A0008BE895E0608140E150E00E943C1205300B
:1006B00029F08BE895E06AE30E9443110F5F1F4F1A
:1006C0000630110551F78BE895E00E944B110CC0E4
:1006D0008BE895E069E870E00E946B1168EE73E0CA
:1006E00080E090E00E94AF0D84EF91E068E671E059
:1006F00048E00E947F15882359F320EC298398EA6B
:100700009A831B8280E48C832D839E831F8283E0E7
:100710008887AE014B5F5F4FCE010196BA010E9400
:100720005C158EEC94E06CE474E00E94A51B81EDF6
:1007300094E068EE73E00E94A51B8BE895E06DE6FF
:1007400070E00E946B118091DA04882311F483E138
:1007500001C0835F60E00E94430E28960FB6F894B4
:10076000DEBF0FBECDBFCF91DF911F910F910895D6
:100770000F931F93CF93DF9300911702809115027F
:100780008F3009F07EC080911402873209F079C061
:1007900080911602882309F074C0102F185013306E
:1007A00008F46FC0163408F06CC0212F30E080913F
:1007B0001C02C82FD0E0CE0103962817390761F13B
:1007C000809151019091520168EC70E00E942011DB
:1007D0008091510190915201612F4AE050E00E94B6
:1007E0003C12809151019091520166E071E00E94AB
:1007F000DE12809151019091520160911C024AE0F9
:1008000050E00E943C12809151019091520168E0A9
:1008100071E00E94E11233C080911B02813439F4EF
:100820000B508DE192E0602F0E94BF0628C084EE3D
:1008300093E00E949209009711F12DE132E0B90195
:100840004C2F50E00E9409020B5084EE93E0602F81
:1008500040911B020E94380C8091EF049091F004AB
:10086000A091F104B091F2040196A11DB11D8093F5
:10087000EF049093F004A093F104B093F20481E0AC
:1008800001C080E0DF91CF911F910F910895BF9239
:10089000CF92DF92EF92FF920F931F93DF93CF934C
:1008A00000D000D00F92CDB7DEB70E948A13882304
:1008B00009F42CC20E944116882309F027C28EEC4D
:1008C00094E068E873E10E94A51B882309F429C21B
:1008D00087E591E06BE70E9417188BE895E06BE0E5
:1008E00071E00E94E1121DC28BE895E06FE171E0BA
:1008F0000E94DE120E948A13882319F469E271E0D3
:1009000002C06EE271E08BE895E00E94DE128BE897
:1009100095E061E371E00E94DE120E944116882397
:1009200019F466E371E002C069E371E08BE895E0D9
:100930000E94DE128BE895E00E944B11F0C18BE51E
:1009400091E066E04FE057E223E531E00FE017E287
:100950000E94CD1A8091DB049091DC04A091DD040B
:10096000B091DE040196A11DB11D8093DB0490932C
:10097000DC04A093DD04B093DE0488E690E069ED2A
:1009800075E00E945E1BBB24B39484EE93E00E944A
:100990008C0C882309F447C08091DF049091E00417
:1009A000A091E104B091E2040196A11DB11D8093D4
:1009B000DF049093E004A093E104B093E2048091FB
:1009C000390686FD20C060913A066D5F88E396E0A7
:1009D0004FE057E223E531E00FE017E20E94CD1A25
:1009E0008091DB049091DC04A091DD04B091DE04E1
:1009F0000196A11DB11D8093DB049093DC04A093AC
:100A0000DD04B093DE0487ED94E064E670E00E94BC
:100A1000891B8091DA04882311F483E101C0835F8C
:100A200061E00E94430E0E94C9138C010E94681865
:100A30000B3211050CF42EC18091FC01883009F0B5
:100A400029C18091FD01882309F024C1809107020A
:100A5000813109F01FC18091E3049091E404A091D9
:100A6000E504B091E6040196A11DB11D8093E30455
:100A70009093E404A093E504B093E60480911302FC
:100A8000833409F407C10E94B8038823D9F084EDA8
:100A900094E064E670E00E94891B8091DA04882368
:100AA00011F482E101C08D5F61E00E94430E8091EC
:100AB000DA04882311F482E101C08D5F61E00E94B5
:100AC000820EE8C087EE94E06BEE74E04BE70E9484
:100AD0005F02882309F4DEC06091E7047091E804A6
:100AE0008091E9049091EA0460587E478A4A9348CD
:100AF0006093E7047093E8048093E9049093EA0418
:100B00000E944F210E94101D882369F1FE01319639
:100B100085E0DF011D928A95E9F783E08983809162
:100B2000E7049091E804A091E904B091EA048A8373
:100B30009B83AC83BD8381E0BF0145E00E94101F11
:100B40008091EF049091F004A091F104B091F2042F
:100B50000196A11DB11D8093EF049093F004A09322
:100B6000F104B093F2040E9479216B017C010091A1
:100B70005101109152010E943121BC01C8014AE08B
:100B800050E00E94AC1280915101909152016FE2AD
:100B90000E9443110091510110915201C701B60109
:100BA0000E943721BC01C8014AE050E00E94AC120B
:100BB00080915101909152016FE20E944311009186
:100BC000510110915201C701B6010E942821BC01B8
:100BD000C8014AE050E00E94AC128091510190910E
:100BE000520160E20E9443110091510110915201A3
:100BF000C701B6010E944921BC01C8014AE050E08A
:100C00000E94AC1280915101909152016AE30E94BE
:100C100043110091510110915201C701B6010E9488
:100C20004321BC01C8014AE050E00E94AC1280910F
:100C30005101909152016AE30E94431100915101C8
:100C400010915201C701B6010E943D21BC01C801AB
:100C50004AE050E00E94AC12809151019091520103
:100C60006EE371E00E94DE124091E7045091E804C7
:100C70006091E9047091EA048091510190915201D0
:100C80002AE030E00E94FF118091510190915201C1
:100C90000E944B1187ED94E060E070E00E94A51B7C
:100CA000882351F08091DA04882311F483E101C094
:100CB000835F60E00E94430EBB2099F084ED94E0D6
:100CC00060E070E00E94A51B8823A9F18091DA04FE
:100CD000882311F482E101C08D5F60E00E94430E21
:100CE0002AC08091DA04882311F482E101C08D5F6B
:100CF00061E00E94430E8091DA04882311F482E1BE
:100D000001C08D5F60E00E94820E15C08EEC94E001
:100D100068EE73E00E94A51B882309F0E5CDBB2493
:100D200034CE81ED94E06CEF79EE0E94A51B882310
:100D300009F005CE28CE0F900F900F900F900F90D6
:100D4000CF91DF911F910F91FF90EF90DF90CF90A7
:100D5000BF9008959C01F999FECF32BD21BDF89A4C
:100D600080B508959C01F999FECF1FBA32BD21BD0F
:100D700060BD0FB6F894FA9AF99A0FBE0895CF9312
:100D8000DF93EC01462F009721F440913A06CBE324
:100D9000D6E04423F9F038812091F504E091F30482
:100DA000F091F40490E014C0A191B19112968C914D
:100DB0001297831761F4ED91FC91119721964150A0
:100DC0000280F381E02DCD01BE01099503C09F5F34
:100DD000921750F3DF91CF9108951F93182F5091E0
:100DE000F504A091F304B091F40420E230E090E027
:100DF00047C0ED91FD9182814381811709F03DC08B
:100E0000C90150E022EB36E00E942E024091F60428
:100E10005091F704FA01329720E030E06FEF7FEF56
:100E200021C0F999FECF205E3F4F32BD21BDF89A17
:100E300080B56827862F82958627082E8695869509
:100E40008025082E869580258770062E672F86952B
:100E500007948795702D68270694879570256827D5
:100E60002F5130402E173F0708F4DBCFCA014E96B2
:100E700042EB56E00E944A0219C0240F311D9F5FC9
:100E8000951708F4B6CF8BE895E067E271E00E9411
:100E900020118BE895E0612F4AE050E00E943C125F
:100EA0008BE895E06CE071E00E946B111F91089552
:100EB0008F929F92AF92BF92DF92EF92FF920F9329
:100EC0001F93DF93CF93CDB7DEB7C054D0400FB69A
:100ED000F894DEBF0FBECDBF5C0120E0322F3F5F34
:100EE000E22FF0E0EE0FFF1FEA0DFB1D80819181E4
:100EF000892B11F0232FF2CF2093F504B092F40444
:100F0000A092F3048BE895E06AEB71E00E94201157
:100F10008BE895E06091F5044AE050E00E943C12B5
:100F20008BE895E060EB71E00E9420111092F704CD
:100F30001092F604EE244EC00E2D10E0F801EE0FD4
:100F4000FF1FEA0DFB1D0190F081E02DF38080E48E
:100F50008F15A8F58BE895E00E944B118BE895E082
:100F600068E871E00E9420110F5F1F4F8BE895E049
:100F7000B8014AE050E00E94AC128BE895E06FE6C1
:100F800071E00E9420118BE895E06F2D4AE050E05F
:100F90000E943C128BE895E069E671E00E94201106
:100FA0008BE895E060E470E04AE050E00E94AC120B
:100FB0008BE895E063E671E00E946B110AC08091B6
:100FC000F6049091F7048F0D911D9093F704809390
:100FD000F604E3948091F504E81608F4ADCF60912F
:100FE000F6047091F7046E5F7F4F7093F70460937F
:100FF000F6048BE895E04AE050E00E940E128BE880
:1010000095E06CE571E00E946B116091F6047091BF
:10101000F70420E030E04FEF5FEF21C0F999FECFF9
:10102000205E3F4F32BD21BDF89A80B54827842FFE
:1010300082958427082E869586958025082E86958C
:1010400080258770042E452F869507948795502D0F
:10105000482706948795502548272F51304026175A
:10106000370708F4DBCF452B01F18BE895E066E408
:1010700071E00E946B1110E013C0E12FF0E0EE0F61
:10108000FF1FEA0DFB1DA081B181ED91FC9111972D
:101090000190F081E02DCD0160E070E009951F5FC7
:1010A0008091F504181748F337C08BE895E067E3A3
:1010B00071E00E946B1190E2E92EF12CDD244E01CB
:1010C0000894811C911C24C00D2D10E0000F111FED
:1010D0000A0D1B1DD801ED91FC914381C401B7019C
:1010E00050E02AEA36E00E941202F801A081B181A4
:1010F000ED91FC9111970190F081E02DCD01B401AB
:101100000995D801ED91FC918381E80EF11CD394EF
:101110008091F504D816C0F2C05CDF4F0FB6F8948A
:10112000DEBF0FBECDBFCF91DF911F910F91FF901A
:10113000EF90DF90BF90AF909F908F9008950895AB
:1011400008950895FC01138212828BEA91E0918345
:1011500080830E9695838483E55BFF4F1082EB546A
:10116000F04082E0868381E0878380E08160808731
:10117000089504970E94BD080895CF93DF93EC0172
:10118000FB01BC01685F7F4F309719F08081888731
:1011900006C080E08560888782E00E94ED068BE8CB
:1011A00095E061EE71E00E942011888580FF06C005
:1011B0008BE895E069ED71E00E942011888581FF40
:1011C00006C08BE895E064ED71E00E9420118885EF
:1011D00082FF06C08BE895E06EEC71E00E94201162
:1011E000888583FF06C08BE895E069EC71E00E947A
:1011F0002011888584FF06C08BE895E063EC71E0E0
:101200000E9420118BE895E00E944B11DF91CF9155
:1012100008950F931F93CF93DF93EC018C01055B2F
:101220001F4FD8018C91FE01E80FF11D11868885B2
:1012300080FF16C0BE01675F7F4F8BE895E00E947C
:10124000DE12F8018081882359F0FE01E80FF11DBC
:1012500080858A3029F48BE895E06DE00E94431187
:10126000888582FF22C08091F9048130F1F084EEFC
:1012700093E00E9492090097C1F0FC0182E0819303
:101280008E01055B1F4FD8014C919E01275F3F4F98
:10129000CF01B90150E00E940902F80160816F5F3F
:1012A00084EE93E041E00E946F0C888583FF0EC0BE
:1012B000E881F981BE01675F7F4FDE01A55BBF4F0B
:1012C0000480F581E02DCE014C910995C55BDF4F7F
:1012D0001882DF91CF911F910F9108951F93CF93A3
:1012E000DF93EC01162FC55BDF4F8881CB54D040D4
:1012F000813418F0CE010E940909DE01A55BBF4FC1
:101300008C91FE01E80FF11D11878F5F8C931A30CD
:1013100019F4CE010E94090981E090E0DF91CF919C
:101320001F910895FC018091F8048823A1F0809119
:10133000F9048E3181F0E457FF4F9081EC58F04072
:10134000923048F484E4989F900111242A5F3F4F23
:101350002E0F3F1F02C020E030E0C9010895EF9238
:10136000FF920F931F938C016093F9048BE895E033
:1013700069E172E00E9420118BE895E06091F90428
:101380004AE050E00E943C128BE895E06EE072E08B
:101390000E9420118AE9E82EF12CE00EF11E8BE864
:1013A00095E0F70160814AE050E00E943C128BE832
:1013B00095E065E072E00E9420110C561F4FF80185
:1013C000608171818BE895E040E150E00E941F123E
:1013D0008091F90463E0F70140810E94CC1F095F0E
:1013E0001F4FF8018081882371F08BE895E066EF4C
:1013F00071E00E946B1187E598E90E94F71B82EB70
:1014000094E90E94F71B8BE895E06DEE71E00E9475
:101410006B1181E196EC0E94F71B81EC94E90E942C
:10142000F71B80E298E90E94F71B83E00E940E0DF3
:1014300085E060E00E94430E1F910F91FF90EF90B6
:1014400008950F931F93DF93CF9300D000D0CDB7B3
:10145000DEB78C01FB01443009F045C00C561F4F2C
:1014600020813181D8018D919C9104591040281719
:101470003907C9F58381882319F0813031F403C01D
:101480001092F80402C08093F80492818091F904CC
:10149000891749F182818093F9048BE895E067E32D
:1014A00072E00E9420118BE895E06091F9044AE017
:1014B00050E00E944E12C8016091F9040E94AF09E9
:1014C0008091F90489838091F8048A830C561F4F18
:1014D000F801808191819C838B8381E0BE016F5FE5
:1014E0007F4F0E94ED060F900F900F900F90CF91BD
:1014F000DF911F910F910895CF93DF93EC0181EC61
:1015000091E099838883C656DF4F69934883CB590E
:10151000D0400E947B0DFE01EA56FF4F608371832D
:1015200082839383611571058105910541F481E002
:1015300090E0A0E0B0E080839183A283B38381E058
:101540008A8384E08B83DF91CF9108950F931F935B
:10155000DF93CF9300D00F92CDB7DEB78C010E94FE
:10156000101D882309F448C0FE01319683E0DF0195
:101570001D928A95E9F781E089830C561F4FD801A7
:101580008D919C91045910409B838A838091F9042A
:10159000BF0143E00E94101F0E947B0D9B01AC0124
:1015A0008091F9048E3129F060E27EE480E090E0E1
:1015B00004C064EF71E080E090E0DC01CB01820FB9
:1015C000931FA41FB51FF801EA56FF4F8083918334
:1015D000A283B3830097A105B10541F481E090E0B7
:1015E000A0E0B0E080839183A283B3838BE895E091
:1015F00061E572E00E946B110F900F900F90CF91F8
:10160000DF911F910F910895CF92DF92EF92FF9299
:101610000F931F93DF93CF93CDB7DEB77C01CDB689
:10162000DEB6FB018B016115710509F180818E31F8
:10163000F1F08BE895E06EE272E00E9420118BE8F9
:1016400095E0F80160814AE050E00E943C128BE88E
:1016500095E062E471E00E94DE12F80161818BE89E
:1016600095E070E04AE050E00E94BF1219C000D03F
:1016700000D00DB71EB70F5F1F4F8EE1EDB7FEB75D
:101680008183F80111820E94890D2AEA35E5262717
:101690003727F8013383228381E0B8010E94ED06E9
:1016A000F80160816093F90481818093F80484E9F2
:1016B00090E0E80EF91E82819381F7019183808387
:1016C0008CE69FEFE80EF91EC7010E94AF09C70123
:1016D0000E94A60A0FB6F894DEBE0FBECDBECF9113
:1016E000DF911F910F91FF90EF90DF90CF900895C1
:1016F0001F93CF93DF93EC01C457DF4F8881CC5801
:10170000D0408823E1F11C81C357DF4F8881CD5839
:10171000D04090E007970CF01F7DBE016A5F7F4FBD
:10172000812F4D810E94101F15FD1BC0C457DF4F34
:101730008881CC58D040823050F0DE011496FE01F2
:10174000E85BFF4F84E401900D928150E1F7FE01C8
:10175000E457FF4F808181508083C357DF4F188249
:101760000EC0FE01E357FF4F80818F5F80830E9490
:101770007B0DC257DF4F688379838A839B83DF9118
:10178000CF911F910895EF92FF920F931F93CF93E4
:10179000DF93EC0126E9E22EF12CE80EF91EF701A9
:1017A00080819181A281B3810097A105B10509F4DF
:1017B00048C00E947B0DF701208131814281538115
:1017C0006217730784079507E0F18091F90481306F
:1017D000C1F1CE010E94A60A44C00E94101D8823B8
:1017E000C9F18E010D561F4FF7018081B80141E00C
:1017F0000E94101FF7011082F801108232C0C357F7
:10180000DF4F8881CD58D040882399F00E947B0D0E
:10181000C257DF4F288139814A815B81CE58D04041
:101820002C593F4F4F4F5F4F62177307840795073F
:10183000C0F00E94101D8823A1F0CE010E94780BF9
:1018400010C092E9E92EF12CEC0EFD1EF70180810B
:10185000882319F6C457DF4F8881CC58D04088239D
:1018600071F6DF91CF911F910F91FF90EF90089546
:10187000CF93DF93EC01DC01A457BF4F2C912230B2
:1018800058F530E084E490E0289FF001299FF00DA6
:10189000389FF00D1124EC0FFD1F65838C9190E0B3
:1018A000FC0164E0EE0FFF1F6A95E1F7E80FF91FF6
:1018B0003196EE0FFF1FEE0FFF1FEC0FFD1F408351
:1018C0008C918F5F8C93813039F40E94101D882396
:1018D00019F0CE010E94780BDF91CF9108959C0101
:1018E000411140E28091F904482BC9010E94380C53
:1018F00008950F931F938C0185E00E94110D0356EC
:101900001F4F8C5291409595879595958795F80135
:1019100080831F910F910895CF93DF93EC010E9474
:10192000131C882309F473C0809136069091370602
:10193000892B09F068C08091390687FD1DC0CE0152
:101940000E94790C8091390685FF13C09091390669
:101950009F718091F904981711F4892F02C0892F83
:101960008064CE56DF4F806888832B9688812A97C3
:10197000888380913B064FC08091390685FD47C022
:10198000CE010E94790C2091390630E02F71307021
:101990008091F90490E028173907C9F5C457DF4F43
:1019A0008881CC58D040882391F1C357DF4F88817C
:1019B000CD58D040882359F180913A06813011F0FA
:1019C00080E002C080913B06C456DF4F8883609759
:1019D0008881CC58D040823050F0DE011496FE0150
:1019E000E85BFF4F84E401900D928150E1F7FE0126
:1019F000E457FF4F808181508083C357DF4F1882A7
:101A0000CD58D04004C08091360690913706CE0163
:101A10000E94C30B80E0DF91CF91089580936E0107
:101A20000895982F8E3008F09E50977080916E0127
:101A30008295880F880F807C892B80937C00809111
:101A40007A00806480937A0080917A0086FDFCCFD2
:101A50002091780040917900942F80E030E0282B8D
:101A6000392BC90108951F920F920FB60F921124BE
:101A70002F933F938F939F93AF93BF938091FE04D7
:101A80009091FF04A0910005B091010530910205ED
:101A90000196A11DB11D232F2D5F2D3720F02D574D
:101AA0000196A11DB11D209302058093FE04909321
:101AB000FF04A0930005B09301058091FA04909172
:101AC000FB04A091FC04B091FD040196A11DB11D81
:101AD0008093FA049093FB04A093FC04B093FD045C
:101AE000BF91AF919F918F913F912F910F900FBE1A
:101AF0000F901F9018958FB7F8942091FE043091A5
:101B0000FF0440910005509101058FBFB901CA0142
:101B100008959FB7F8942091FA043091FB04409106
:101B2000FC045091FD0486B5A89B06C08F3F21F0B0
:101B30002F5F3F4F4F4F5F4F9FBF542F432F322F89
:101B40002227280F311D411D511D82E0220F331F16
:101B5000441F551F8A95D1F7B901CA0108959B0109
:101B6000AC017FB7F8948091FA049091FB04A091A6
:101B7000FC04B091FD0466B5A89B05C06F3F19F049
:101B80000196A11DB11D7FBFBA2FA92F982F8827BD
:101B9000860F911DA11DB11D62E0880F991FAA1F1C
:101BA000BB1F6A95D1F7BC012DC0FFB7F894809197
:101BB000FA049091FB04A091FC04B091FD04E6B5F9
:101BC000A89B05C0EF3F19F00196A11DB11DFFBFF5
:101BD000BA2FA92F982F88278E0F911DA11DB11DF7
:101BE000E2E0880F991FAA1FBB1FEA95D1F7861B59
:101BF000970B885E9340C8F22150304040405040DF
:101C000068517C4F211531054105510571F6089544
:101C1000789484B5826084BD84B5816084BD85B5C7
:101C2000826085BD85B5816085BDEEE6F0E080818E
:101C300081608083E1E8F0E01082808182608083AF
:101C4000808181608083E0E8F0E080818160808332
:101C5000E1EBF0E0808184608083E0EBF0E0808164
:101C600081608083EAE7F0E0808184608083808106
:101C700082608083808181608083808180688083AE
:101C80001092C1000895CF93DF93482F50E0CA010E
:101C900083569D4FFC01349147575D4FFA01849163
:101CA000882369F190E0880F991FFC01E559FD4FE9
:101CB000A591B491FC01EB58FD4FC591D4916623D9
:101CC00051F42FB7F8948C91932F909589238C938E
:101CD000888189230BC0623061F42FB7F8948C910E
:101CE000932F909589238C938881832B88832FBF92
:101CF00006C09FB7F8948C91832B8C939FBFDF9184
:101D0000CF910895482F50E0CA018F549D4FFC0198
:101D10002491CA0183569D4FFC01949147575D4F12
:101D2000FA013491332309F440C0222351F12330C6
:101D300071F0243028F42130A1F0223011F514C0C4
:101D40002630B1F02730C1F02430D9F404C080919E
:101D500080008F7703C0809180008F7D809380000A
:101D600010C084B58F7702C084B58F7D84BD09C053
:101D70008091B0008F7703C08091B0008F7D8093F9
:101D8000B000E32FF0E0EE0FFF1FEB58FD4FA591E1
:101D9000B4912FB7F894662321F48C919095892300
:101DA00002C08C91892B8C932FBF089508951F92A8
:101DB0000F920FB60F9211242F933F934F938F934F
:101DC0009F93EF93FF938091C00082FD1DC04091CF
:101DD000C60020914305309144052F5F3F4F2F737C
:101DE000307080914505909146052817390771F0AC
:101DF000E0914305F0914405ED5FFA4F4083309345
:101E000044052093430502C08091C600FF91EF91E5
:101E10009F918F914F913F912F910F900FBE0F90F7
:101E20001F901895E0919705F0919805E05CFF4FA1
:101E30008191919120813181821B930B8F739070DE
:101E4000892B11F00E94D60E08951F920F920FB6A3
:101E50000F9211242F933F938F939F93EF93FF93B0
:101E600020918705309188058091890590918A0598
:101E70002817390731F48091C1008F7D8093C1000C
:101E800014C0E0918905F0918A05E95BFA4F208141
:101E90008091890590918A0501968F739070909337
:101EA0008A05809389052093C600FF91EF919F9149
:101EB0008F913F912F910F900FBE0F901F9018950B
:101EC000AF92BF92DF92EF92FF920F931F93CF9347
:101ED000DF93EC017A018B01DD24403081EE58075D
:101EE00080E0680780E0780711F0DD24D39491E06A
:101EF000A92EB12CEC89FD89DD2069F0C50108A06F
:101F000002C0880F991F0A94E2F7808360E079E0AD
:101F10008DE390E005C0108260E874E88EE190E007
:101F2000A80197010E94FF242150304040405040BA
:101F3000569547953795279580E12030380720F052
:101F4000DD2011F0DD24D6CFE889F9893083EA89D4
:101F5000FB89208319A2EE89FF89408121E030E0CE
:101F6000C9010C8C02C0880F991F0A94E2F7482B14
:101F70004083EE89FF894081C9010D8C02C0880F22
:101F8000991F0A94E2F7482B4083EE89FF8940812C
:101F9000C9010E8C02C0880F991F0A94E2F7482BE2
:101FA0004083EE89FF8980810F8C02C0220F331F8E
:101FB0000A94E2F7209528232083DF91CF911F9187
:101FC0000F91FF90EF90DF90BF90AF900895DC01EC
:101FD0001C96ED91FC911D97E05CFF4F2191319192
:101FE00080819181281B390B2F733070C9010895AE
:101FF000DC011C96ED91FC911D97E05CFF4F208168
:102000003181E054F040DF01AE5BBF4F8D919C9178
:1020100011972817390719F42FEF3FEF07C08D915B
:102020009C91E80FF91F8081282F30E0C9010895A5
:10203000DC011C96ED91FC911D97E05CFF4F208127
:102040003181E054F040DF01AE5BBF4F8D919C9138
:1020500011972817390719F42FEF3FEF10C08D9112
:102060009C911197E80FF91F20818D919C911197F8
:1020700001968F73907011969C938E9330E0C901F6
:102080000895DC0191968C919197882339F05496AC
:10209000ED91FC915597808186FFF9CF91961C9226
:1020A0000895CF93DF93EC01EE85FF85E05CFF4F51
:1020B00020813181E054F0402F5F3F4F2F7330700B
:1020C000DF01AE5BBF4F8D919C91119728173907A7
:1020D000D1F3E05CFF4F80819181E054F040E80F44
:1020E000F91F6083EE85FF85E05CFF4F318320831D
:1020F000EE89FF89208181E090E00F8C02C0880F7B
:10210000991F0A94E2F7282B208381E089A3EC89A8
:10211000FD8980818064808381E090E0DF91CF91B0
:10212000089510928E0510928D0588EE93E0A0E040
:10213000B0E080938F0590939005A0939105B093A4
:10214000920589EC91E090938C0580938B0583E058
:1021500095E0909398058093970587E495E0909398
:102160009A058093990585EC90E090939C05809367
:102170009B0584EC90E090939E0580939D0580ECF8
:1021800090E09093A00580939F0581EC90E0909360
:10219000A2058093A10582EC90E09093A405809322
:1021A000A30586EC90E09093A6058093A50584E0B6
:1021B0008093A70583E08093A80587E08093A90515
:1021C00085E08093AA0581E08093AB050895CF93C5
:1021D000DF930E94080E0E94F302C2E1DFE00E943A
:1021E00047042097E1F30E94120FF9CFCF92DF92BC
:1021F000EF92FF920F931F93CF93DF937C016B01BC
:102200008A01C0E0D0E00FC0D6016D916D01D70109
:10221000ED91FC910190F081E02DC7010995C80F67
:10222000D91F015010400115110571F7CE01DF9142
:10223000CF911F910F91FF90EF90DF90CF90089575
:10224000EF92FF920F931F93CF93DF937C018B014B
:10225000C0E0D0E0F8010F5F1F4F6491662359F092
:10226000D701ED91FC910190F081E02DC701099516
:10227000C80FD91FEFCFCE01DF91CF911F910F91E2
:10228000FF90EF900895DC01ED91FC910190F081B9
:10229000E02D09950895EF92FF920F931F938C0103
:1022A000DC01ED91FC910190F081E02D6DE009954C
:1022B0007C01D801ED91FC910190F081E02DC801E5
:1022C0006AE009959C012E0D3F1DC9011F910F91D8
:1022D000FF90EF900895EF92FF920F931F937C0170
:1022E0000E9420118C01C7010E944B119C01200FFC
:1022F000311FC9011F910F91FF90EF900895CF9367
:10230000DF93EC016115710519F420E030E00FC096
:10231000DB010D900020E9F71197A61BB70BE881B0
:10232000F9810280F381E02DAD0109959C01C9017D
:10233000DF91CF9108954F925F927F928F929F92FB
:10234000AF92BF92CF92DF92EF92FF920F931F93C3
:10235000DF93CF93CDB7DEB7A1970FB6F894DEBF6A
:102360000FBECDBF2C01742ECB01223008F42AE021
:1023700019A231E2C32ED12CCC0EDD1E822E99245F
:10238000AA24BB24672D752FA50194010E94FF2468
:1023900079018A01C801B701A50194010E94B924FD
:1023A000472D461B0894C108D1084A3010F4405DFF
:1023B00001C0495CF6014083E114F10401051105F7
:1023C00021F07E2C5F2DC801DDCFC201B6010E9435
:1023D0007F11A1960FB6F894DEBF0FBECDBFCF918F
:1023E000DF911F910F91FF90EF90DF90CF90BF9002
:1023F000AF909F908F907F905F904F900895DC01F9
:102400002115310541F4ED91FC910190F081E02D11
:10241000642F099508950E949B110895EF92FF92F1
:102420000F931F939A017B0100E010E0B801A70110
:102430000E94FF111F910F91FF90EF900895CF928E
:10244000DF92EF92FF920F931F936C017B019A0131
:1024500000E010E0B801A7010E94FF118C01C60145
:102460000E944B11080F191FC8011F910F91FF9077
:10247000EF90DF90CF900895EF92FF920F931F930C
:102480009A01E62EFF2400E010E0B801A7010E94A7
:10249000FF111F910F91FF90EF900895CF92DF925F
:1024A000EF92FF920F931F936C01E62E9A01FF2487
:1024B00000E010E0B801A7010E94FF118C01C601E5
:1024C0000E944B11080F191FC8011F910F91FF9017
:1024D000EF90DF90CF900895CF92DF92EF92FF922E
:1024E0000F931F93CF93DF93EC016A017B012115BA
:1024F000310541F4E881F9810190F081E02D642FEC
:1025000009951FC02A303105D1F477FF17C0E88143
:10251000F9810190F081E02D6DE209958C0144274D
:102520005527BA014C195D096E097F09CE012AE0D1
:102530000E949B119801280F391F04C02AE00E94B5
:102540009B119C01C901DF91CF911F910F91FF90C9
:10255000EF90DF90CF900895EF92FF920F931F932B
:102560007B019A010027F7FC0095102FB801A70105
:102570000E946C121F910F91FF90EF900895CF92DF
:10258000DF92EF92FF920F931F936C017B019A01F0
:102590000027F7FC0095102FB801A7010E946C12CC
:1025A0008C01C6010E944B11080F191FC8011F9111
:1025B0000F91FF90EF90DF90CF9008950E947F11D0
:1025C0000895EF92FF920F931F937C010E947F1159
:1025D0008C01C7010E944B11080F191FC8011F91E0
:1025E0000F91FF90EF9008958091AF0561E00E94F8
:1025F000820E78940895FF920F931F93082F162F41
:10260000F42EF8948091AF0560E00E94820E1F7155
:10261000102B1EBD0DB407FEFDCFFEBC0DB407FE92
:10262000FDCF0E94F4121F910F91FF9008951F9308
:10263000182F282F30E0207630708091B00590E080
:102640002817390799F080EA6FE143E00E94FB12F6
:10265000412F40764093B00550E085E05595479571
:102660008A95E1F780E86FE10E94FB121F910895BF
:102670000F931F93182F062F0E94171380E4612FCA
:10268000402F0E94FB121F910F9108950F931F93EB
:10269000182F072F0E943813812F8F5F602F0E9401
:1026A00038131F910F91089588E360EB0E9438134F
:1026B000089588E361EB0E94381308950F931F93E8
:1026C000182F062FF8948091AF0560E00E94820ECB
:1026D000802F8F71812B8EBD0DB407FEFDCF1EBCE8
:1026E0000DB407FEFDCF07FF04C01EBC0DB407FEEE
:1026F000FDCF1EB50E94F412812F1F910F910895F6
:102700001F93182F0E94171380E0612F0E945E1301
:102710001F91089584ED61E10E94381382ED61E01C
:102720000E9438138AEE0E94801380FDFBCF82ED59
:1027300060E00E94381389ED0E94801390E0969526
:10274000879596958795817008950F931F93CF93E2
:10275000DF93EC018B01F8948091AF0560E00E945B
:10276000820E8AE38EBD0DB407FEFDCF09C01EBCEC
:102770000DB407FEFDCF8EB5F80181938F0121972F
:102780002097A9F70E94F412DF91CF911F910F912A
:1027900008950F931F93DF93CF9300D000D000D004
:1027A000CDB7DEB789E30E948013882319F400E0D7
:1027B00010E048C06091B1057091B20580E00E94C0
:1027C000461386E090E0BE016F5F7F4F0E94A51325
:1027D00089819A819093B2058093B1052B813C81C8
:1027E000E091AD05F091AE058D8187FD03C000E05D
:1027F00010E00EC0245030408F01015010402017CF
:10280000310708F48901C80160EF71E00E94A51347
:10281000F801E051FE4F10826091B1057091B20550
:102820008CE06130780724F08CE06FEF7BE003C030
:10283000615070408CE00E94461380E86EE140E4F5
:102840000E94FB12C80126960FB6F894DEBF0FBE99
:10285000CDBFCF91DF911F910F9108950F931F93DB
:10286000CF93DF938C01EB01F8948091AF0560E08A
:102870000E94820E8AE78EBD0DB407FEFDCF08C010
:1028800088818EBD0DB407FEFDCF2196015010400A
:1028900001151105A9F70E94F412DF91CF911F9144
:1028A0000F9108958AE061E00E94430E8AE061E0A2
:1028B0000E94820E8BE061E00E94430E8DE061E099
:1028C0000E94430E8CE060E00E94430E8BE061E0CA
:1028D0000E94820E8BE060E00E94820E8DE060E03C
:1028E0000E94820E80E58CBD8DB581608DBD0895FE
:1028F0001F93CF93DF93EB01142F9093AE0580933A
:10290000AD050CB406FC02C00E9452141093AF0532
:10291000812F61E00E94430E0E94F4128FEF60E06D
:102920004FEF0E94FB1262E070E080E090E00E94B6
:10293000AF0D80E06DE10E945E138823D1F3109209
:10294000B2051092B10588E060E070E00E94461385
:102950008CE060E070E00E9446138AE06FEF7BE05D
:102960000E94461384E060E07CE00E94461386E00B
:102970006FEF71E10E9446130E94591388E26FE3E2
:1029800070E30E94461380E369EF77EF0E944613DD
:1029900080EC6DE00E94381381EC60E00E943813F7
:1029A00080E862EC42E30E94FB1286EC62E17CE08C
:1029B0000E94461384EC62E10E9438138AEC6CEDAD
:1029C00075E00E94461384EE68810E94381385EEFC
:1029D00069810E94381382EE6A810E94381383EE67
:1029E0006B810E94381380EE6C810E94381381EE57
:1029F0006D810E94381384ED60E10E94381386EDEA
:102A000060E071E00E9446138AEE0E94801380FD10
:102A1000FBCF8FE10E94171380E86BE140EC0E942E
:102A2000FB1280E86FE144E00E94FB1282E70E9403
:102A30008013863008F08F5FDF91CF911F9108954A
:102A4000CF93DF93EC0115C08CE10E94801381FFCE
:102A500010C08BE895E064E471E00E94E11280E828
:102A60006FE140E80E94FB1280EA6FE140E80E94BB
:102A7000FB1280E06FE10E945E1383FDE5CF82E0F0
:102A800060E07CE00E944613BE016050744F86E017
:102A90000E9446138AE760E040E00E94FB12CE01EC
:102AA00060EF71E00E942E1480E86FE148E00E9420
:102AB000FB12DF91CF9108950F931F93CF93DF9374
:102AC0009C01EB018A011092F105009729F089ED34
:102AD00095E0B9010E947D1B209719F0CE010E945C
:102AE000D6160115110529F089EE95E0B8010E946E
:102AF0007D1B81E0DF91CF911F910F910895AF92DF
:102B0000BF92CF92DF92FF920F931F93CF93DF93E9
:102B10008C01EB01F42E1092F10538E341E050E016
:102B200060E070E018C0832F90E0FC01B3E0F59501
:102B3000E795BA95E1F7ED54FA4F877090705A0116
:102B40006B0104C0AA0CBB1CCC1CDD1C8A95D2F7FF
:102B500020812A292083315031F783ED95E0BE0191
:102B60000E94751BC80163ED75E04F2D0E9478141B
:102B7000DF91CF911F910F91FF90DF90CF90BF9089
:102B8000AF900895DF92EF92FF920F931F93CF9330
:102B9000DF93D82E862FBA01213041F4675F7F4F33
:102BA0009B0140E050E0695070400EC0223029F097
:102BB00020E030E040E050E007C0625070409B01F0
:102BC00040E050E06E5F7F4FE82EFF2480EF91E001
:102BD000E80EF91E8B01E7010FC0F881E0E0898162
:102BE00090E08E2B9F2BA0E0B0E0280F391F4A1FEA
:102BF0005B1F2296025010400230110570F7CB0186
:102C00008E7FD701A80FB91F6817790779F08C91CB
:102C100090E0A0E0B0E0BA2FA92F982F882702C03B
:102C200040E050E0280F391F4A1F5B1FCA01AA2746
:102C3000BB270097A105B10599F7C901809590952B
:102C4000ED2DF0E0E051FE4F90838183DF91CF9135
:102C50001F910F91FF90EF90DF900895109208025E
:102C60001092090280E4809304021092050280937E
:102C7000060288E16EE044E150E020E00E94C215C7
:102C800008958091F30586958095817008950F933E
:102C90001F93BC0100EF11E0C8010E94751BC80121
:102CA000069663ED75E00E94751B1F910F910895C4
:102CB000EF92FF920F931F937B010E9447160EE045
:102CC00012E0C801B7010E947D1BC801049769ED9D
:102CD00075E00E947D1B1F910F91FF90EF9008956A
:102CE000EF92FF920F931F93CF93DF937C01EB0141
:102CF0008A018EEF95E00E9458168881807F803E81
:102D000049F088819981AA81BB818F5F9F4FAF4F26
:102D1000BF4F31F480EF91E065ED71E00E94751BCB
:102D200088E08093FC011092FD018EEF91E06DEC44
:102D300072E049E050E00E94F3011092000281E14C
:102D4000809307021093140200931502F09212026E
:102D5000E0921302109216021092180210921902B9
:102D6000DF91CF911F910F91FF90EF900895EF9217
:102D7000FF920F931F9306EF11E0C8010E944716C0
:102D800074E1E72EF12CE00EF11EC8014896B70160
:102D90000E947D1BC70169ED75E00E947D1B0E94AA
:102DA0002E161F910F91FF90EF900895BC0181E0C6
:102DB0008093F30581EE95E00E947D1B08950F93AB
:102DC0001F938C01889690930002809301020E94C9
:102DD0002E161092220210922302045E1F4F82E3ED
:102DE0006AE1A80122E00E94C215C8014A960E9429
:102DF00020151F910F910895CF93DF939C01862F8B
:102E0000806180931F02643029F02115310511F48F
:102E100021E030E09091140280911202809314021C
:102E200090931202909115028091130280931502E3
:102E300090931302C9E1D2E08881A901480F511D86
:102E40002C814C832883252F3327219752E0C531CD
:102E5000D50791F71D861E8680E5898710920002AE
:102E600088E2809301020E94B71684E08B871C865B
:102E700082E36AE14CE150E022E00E94C21586E361
:102E800090E00E942015DF91CF910895E82FA09146
:102E90000002B0910102F0911E024091140250E034
:102EA000292F30E04217530709F08EC08091150298
:102EB0008E1709F089C080911F02E82F81FF4EC054
:102EC000109200028CE2809301020E94B71682E108
:102ED00080931F0290911402809112028093140239
:102EE0009093120290911502809113028093150223
:102EF00090931302E9E1F2E021E030E08081A90142
:102F0000480F511D44831082252F3327319752E0FB
:102F1000E531F50799F715861686118212828091A0
:102F20007401838314828D5F8093740182E0818BAE
:102F300084E0828B95E0938B148A80E68187938767
:102F400088E7848782E36AE140E250E022E00E9461
:102F5000C2158AE390E00E94201536C084FF34C079
:102F60004F2F50E084E0559547958A95E1F79A2FC9
:102F700080E02B2F30E0282B392BCA01880F991FB6
:102F8000880F991F281B390B2451304037FF02C08E
:102F900020E030E03093050620930406232B69F0EF
:102FA0009A01220F331F220F331F2E5D3F4F6850AF
:102FB00070406217730740F009C0E0FF05C080E071
:102FC00090E060E00E94FC1620E030E0C901089526
:102FD0000F931F93DF93CF930F92CDB7DEB78C0182
:102FE000045E1F4F109300020C511040802F845E2E
:102FF0008093010289830E942E16085F1F4F109351
:1030000016028981845180931702085F1F4F88E25E
:103010006AE1A80121E00E94C215C8014A960E94F7
:1030200020150F90CF91DF911F910F910895FF927E
:103030000F931F939C01F62E8EEF95E0B9010E942D
:1030400058160CEF11E088E08093FC011092FD010E
:10305000C80102966DEC72E049E050E00E94F30175
:103060008CE48093010281E1809307020E942E1676
:10307000109214028BE7809315028AE0809312026B
:10308000F09213021092160288E3809317021092B6
:10309000180210921902025E1F4F80E3F80111928C
:1030A0008A95E9F7C80163E873E04AE050E00E94BE
:1030B000F30188E26AE140E450E021E00E94C21599
:1030C0008AE590E00E9420151F910F91FF900895CE
:1030D000DF92EF92FF920F931F93CF93DF93EC0158
:1030E0008091F105882319F0CE010E946223209778
:1030F00009F0C3C08091F3058570F1F180917101F1
:1031000090917201892BC1F50E948A138823A1F145
:1031100085ED91E00E94471688E08093FC01A6E0CF
:10312000FA2EF092FD018EEF91E065EC72E048E03E
:1031300050E00E94F30100E112E0D8011D92FA94E0
:10314000E9F7C8010A9763ED75E00E94751BC80195
:10315000069661EE75E00E947D1BC801049769ED3B
:1031600075E00E947D1B8091F30588608093F305D4
:103170008AE290E00E9420150E948A13882349F079
:1031800080917101909172010196909372018093E8
:1031900071018091F405813009F0EFC18091F30550
:1031A00081FFEBC102E00093F405809173018F5F12
:1031B000809373018F711091F5051295110F107E98
:1031C000182BE090F605D090F7058EEF95E06DEEA8
:1031D00075E00E945816F8E0FF2EF092FC01109264
:1031E000FD018EEF91E06DEC72E049E050E00E944D
:1031F000F3018CE28093010286E0809307020E9433
:103200002E16E0921402D09215028BE080931202E7
:1032100010931302E6E1F2E0DF011D92FA94E9F760
:1032200080917401809318028D5F8093740180E611
:1032300080931E0200931F0283E08093200210926D
:103240002102109222021092230210922402109264
:1032500025020093260284E080932702009328022F
:1032600086E28093290282E36AE140E250E022E0B4
:103270000E94C2158AE390E09BC0C932D10508F4D0
:103280007CC11091FC01183009F082C18091FD01D0
:10329000863009F07DC186E192E069ED75E044E099
:1032A00050E00E94FC01009709F072C18091050274
:1032B000813029F586EF91E00E94471610920402B2
:1032C00082E08093050280E192E066E072E00E9475
:1032D000751B86E092E063ED75E00E94751B86E148
:1032E00092E06CE072E00E947D1B8CE092E069ED60
:1032F00075E00E947D1B8AE290E00E94201580917B
:10330000F30583FF3AC110910502123009F035C16F
:103310008CE092E061EE75E044E050E00E94FC0138
:10332000009709F02AC18EEF95E066E072E00E94F6
:10333000751B1093F30521C1183009F01EC180914F
:10334000FD01882309F019C18091FE01853409F03F
:1033500014C18EE092E069ED75E044E050E00E9417
:10336000FC01009709F009C180910702813019F52D
:10337000809112028830F9F4E091F805F091F90596
:10338000309719F08AE092E009950E94B7161092E2
:10339000120280911402883F28F0809115028F5FFD
:1033A0008093150280911402885F80931402CE01ED
:1033B0000E942015E2C00E94F11A882351F08091EA
:1033C0000702813131F4CE010E94F61A882309F0F8
:1033D000D4C0C633D10528F480910702863009F0A5
:1033E000CCC0809114028B3009F0BEC08AE092E01C
:1033F0006DEE75E044E050E00E94FC01009709F09A
:10340000BCC080911F02382F82FF13C0E091FA05E3
:10341000F091FB05309759F08091150282958695C1
:10342000877063E040E050E020E030E0099585E0FF
:1034300090C09091000280E020910102022F10E0E4
:10344000082B192B80911E02482F50E0E4E055957F
:103450004795EA95E1F7CA01880F991F880F991FD0
:10346000081B190B0451104017FF02C000E010E0C8
:103470008091F405823079F531FF21C034FF1FC0FF
:1034800080E090E060E00E94FC1688E180931F02DB
:10349000E091FC05F091FD05309719F420E030E053
:1034A00007C08091130282958695877009959C01CB
:1034B00083E08093F405C9010E94DF165EC081E0BD
:1034C0008093F40534FF03C080E090E002C0C8019F
:1034D000019664E046C0833081F50115110579F14C
:1034E000E091FA05F091FB05309749F1440F551F23
:1034F000440F551FCE0108974E5D5F4F8417950707
:1035000008F4AC01C801840F951FC817D90710F043
:10351000980103C09E01241B350B809115028295F2
:103520008695877060E009958091F205882319F0EF
:10353000C80168E016C0C80108C08530F1F030FF4E
:103540000BC08330D1F0C801019669E00E94FC16DF
:1035500086E08093F40511C00115110571F0C801D2
:1035600060E00E94FC1609C080916F01909170018B
:10357000BE010E9446179C0102C020E030E0C90154
:10358000DF91CF911F910F91FF90EF90DF90089501
:10359000CA32D10508F0D0CEF0CFDF92EF92FF9281
:1035A0000F931F93E82ED92EF62ECA01A801B90158
:1035B0000E9470161F2D1D3D08F01CED2AE132E01F
:1035C000C9016E2D7D2D412F50E00E940902812FEF
:1035D00090E00E94E8171F910F91FF90EF90DF900D
:1035E000089580912E06811181E00895CF92DF9297
:1035F000EF92FF920F931F93CF93DF93C6E0D6E035
:1036000030E0CC24DD2429C02A814B818091140232
:1036100090E0042F10E080179107D9F490911502E3
:103620009217B9F48C818823A1F02091170230E021
:1036300028503040F0901602EE242E0D3F1DE881F8
:10364000F981892F942F6AE072E04AE152E00995EE
:1036500031E00894C11CD11C259680912E0690E083
:10366000C816D9068CF2832FDF91CF911F910F914D
:10367000FF90EF90DF90CF9008950F931F93CF931B
:10368000DF938C01C0E0D0E0F801EC0FFD1F8BE868
:1036900095E060814AE050E00E943C12C33029F07E
:1036A0008BE895E06EE20E9443112196C430D1056B
:1036B00059F7DF91CF911F910F910895EF92FF92EB
:1036C0000F931F939C017B010BE815E0C801B90122
:1036D0000E942011C7010E943D1BC8010E944B118E
:1036E0001F910F91FF90EF900895DC01FB0186E0A0
:1036F00001900D928150E1F708959C01FB018081BA
:103700009181A281B381F90180839183A283B383E4
:1037100008950F931F93CF93DF938C01EB0180E00B
:103720006115710509F081E0F8018283882341F079
:103730000E947B0D2197C60FD71FF801D183C0834C
:10374000DF91CF911F910F910895EF92FF920F9308
:103750001F93CF93DF93EC017B018A81882311F4BF
:1037600000E00FC0088119810E947B0DC801861BF3
:10377000970B2AEE8136920710F400E006C0082F5E
:103780000195CE01B7010E94891B802FDF91CF9157
:103790001F910F91FF90EF900895782FE89865B1F1
:1037A00021E030E040E050E00090750104C0220FBD
:1037B000331F441F551F0A94D2F7322F822F809552
:1037C000862385B99EBD0DB407FEFDCF4EB57EBDE7
:1037D0000DB407FEFDCF2EB5942F80E045B1342BFC
:1037E00035B9E89A30E0282B392BC90108950E9499
:1037F000CD1B089580912F06909130068F70909385
:10380000300680932F0680912F06909130068860B5
:103810009093300680932F0680912F06909130066A
:103820000E94CD1B089580918606873009F059C00B
:1038300090918A06992399F080918906891728F436
:1038400080918906873408F44CC084E08093860612
:1038500081E090E090933706809336069AC080917D
:103860003A062091890690E0049630E0821793078B
:1038700024F0809189068734A0F184E08093860645
:1038800080913A06833430F081E090E090933706DF
:10389000809336068091390686FF12C08091850696
:1038A000282F30E0C9018F7190704F9749F08091B7
:1038B000390690E0822793278F719070892B89F4C5
:1038C0008091360690913706892B09F056C0E09119
:1038D0008306F0918406309709F44FC080E0099583
:1038E00058C080918606843011F080E008951092CF
:1038F0003A0680913A06809389068FEF9FEF909366
:10390000370680933606209187062223D9F0822736
:10391000282F22952827022E269526952025022E2F
:10392000269520252770082E892F26950794279500
:10393000902D82270694279590258227909337060D
:103940008093360687E08093860681E08093340674
:1039500083EA94E90E94CD1B80912F069091300656
:10396000886D9093300680932F0680912F0690915A
:1039700030060E94CD1B80E008958FEF9FEFAFEFE0
:10398000BFEF80937F0690938006A0938106B0934B
:10399000820681E008950F931F93082F10E0C8015D
:1039A000966C0E94CD1B98012F7730702F5F3F4F90
:1039B000442737FD4095542F6BEF72E485E090E08B
:1039C0000E94FF24CA01B901000F012F001F110B33
:1039D000980143E0220F331F4A95E1F7201B310B7A
:1039E0002F5F3F4F442737FD4095542F0E94FF24FF
:1039F00093E056954795379527959A95D1F72D578A
:103A00003C4F4F4F5F4FCA01B90124E833E040E01B
:103A100050E00E94FF24209335061F910F910895D6
:103A200080918606843069F080918606873059F44B
:103A300080918906882339F40E94FA1B84E08093E0
:103A4000860681E0089580E00895982F86FD05C0E0
:103A5000907E809185068F71980F90933906E09142
:103A60008306F0918406309711F081E009958FEF7D
:103A70009FEF90933706809336068091360690919B
:103A80003706209187068227282F22952827022E85
:103A9000269526952025022E269520252770082E6E
:103AA000892F269507942795902D82270694279590
:103AB00090258227909337068093360688E080937E
:103AC000860680912F069091300688639093300689
:103AD00080932F0680912F06909130060E94CD1B77
:103AE0000895DF92EF92FF920F931F937B018C0159
:103AF000DD2405C0D39416950795F794E7948FEFCE
:103B0000E816F1040105110509F0A0F780912F06D0
:103B10009091300681FF0FC080912F069091300662
:103B20008D7F9093300680932F0680912F06909181
:103B300030060E94CD1BE114F10401051105B9F016
:103B4000C701906E3D2D20E0822B932B0E94CD1B50
:103B500080912F069091300682609093300680937A
:103B60002F0680912F06909130060E94CD1B1F9149
:103B70000F91FF90EF90DF900895E89885B121E0D4
:103B800030E040E050E00090750104C0220F331F88
:103B9000441F551F0A94D2F7322F922F90959823E5
:103BA00095B91EBC0DB407FEFDCF6EB51EBC0DB49D
:103BB00007FEFDCF2EB5962F80E0622F70E0682BB8
:103BC000792B77FF0FC080918606873059F48CB52A
:103BD00081608CBD1EBC0DB407FEFDCF2EB58CB52B
:103BE0008E7F8CBD85B1382B35B9E89A709332063B
:103BF00060933106809131069091320697FFECC0B8
:103C000080918606873009F082C0809189068823DA
:103C100071F490918706992351F080918906E82FDD
:103C2000F0E0E85CF94F90838F5F80938906809184
:103C30008906E82FF0E0E85CF94F20838F5F8093DE
:103C4000890680913606909137068227282F229583
:103C50002827022E269526952025022E26952025FA
:103C60002770082E892F269507942795902D822757
:103C700006942795902582279093370680933606E1
:103C800020913406233040F58091890690E06091C0
:103C90003506029770E00E94EC24892BE9F48091AC
:103CA000310690913206E22FF0E090FF04C0E55219
:103CB000FE4F808104C0E552FE4F808182958F7057
:103CC00080933406833040F490E0880F991F01966A
:103CD000806A94690E94CD1B90918A06992329F0ED
:103CE00080918906891780F40AC080913A06209154
:103CF000890690E0049630E0821793072CF08091BB
:103D00008906873408F468C00E94FA1B65C0809158
:103D1000860687FF2EC0E0913A06809186068F5F67
:103D2000809386068150ED5FE80FF0E0E85CF94F84
:103D3000E08180913606909137068E27282F2295B4
:103D40002827022E269526952025022E2695202509
:103D50002770082E892F269507942795902D822766
:103D600006942795902582279093370680933606F0
:103D70002EC0809186068F5F8093860681508330A7
:103D800019F184302CF4882399F08130F9F416C0AD
:103D90008B3019F08C30D1F402C0EDE218C0E09104
:103DA000870690913A068EEF891B809386060FC096
:103DB0008091360690913706E82F09C0809136062B
:103DC00090913706E92F03C00E94FA1BEAEA8E2F72
:103DD00090E0986B0E94CD1B809131069091320645
:103DE00096FF03C086E0809386068091310690910D
:103DF000320694FF09C060E070E080E090E00E942D
:103E0000711D81E0809333068091310690913206D6
:103E100095FF05C00E94FA1B84E0809386060895F2
:103E20001F93182F40933A062BE336E0C90150E068
:103E30000E940902812F0E94251D1F9108958091E3
:103E4000850690E08F719070892B41F080E06DEBDA
:103E50007DE140E050E00E94E521089580E00E946D
:103E6000082208951F9380938506409387066093E8
:103E700088060E941F1F10928A06E89885E092E843
:103E80009093300680932F0680912F0690913006F4
:103E90000E94CD1B8091880690E074E0880F991FE6
:103EA0007A95E1F7876C90680E94CD1B80E496EAD2
:103EB0000E94CD1B86E00E94CB1C82EA94E90E94FE
:103EC000CD1B8CEA92EC0E94CD1B1091870611232A
:103ED00041F083E89AEC0E94CD1B812F90E09E6C0C
:103EE00006C08BE89AEC0E94CD1B8DE29EEC0E94EE
:103EF000CD1B83E894EC0E94CD1B80E598E90E94DD
:103F0000CD1B87E79CEC0E94CD1B80E090EE0E94C9
:103F1000CD1B80E098EC0E94CD1B89E490EC0E94C0
:103F2000CD1B84E080938606E89A1F91089525B101
:103F300081E090E0A0E0B0E00090750104C0880F3F
:103F4000991FAA1FBB1F0A94D2F7282B25B924B1A9
:103F5000822B84B98AE061E00E94820E8AE061E0EF
:103F60000E94430E8BE061E00E94430E8CE060E013
:103F70000E94430E8DE061E00E94430E80E58CBDFF
:103F80008DB581608DBD82E060E00E94430E82E0CD
:103F900061E00E94820E0895FF920F931F93182FE5
:103FA000062FF42E8093850640938706609388063B
:103FB0000E94971F0E941F1F82E89AEC0E94CD1B4F
:103FC00080E09EEF0E94CD1B85E08093860683B73C
:103FD000817F06C083B7816083BF889583B78E7F5A
:103FE00083BF809186068530A9F3812F602F4F2DE6
:103FF0000E94321F809185061F910F91FF900895B6
:104000008F929F92AF92BF92CF92DF92EF92FF92E8
:104010000F931F93CF93DF937B018C01EA012CE375
:1040200030E040E050E00E94FF246883C801B701FF
:104030002CE330E040E050E00E94FF24122F032FD9
:10404000F42EE52E622F732F842F952F2CE330E072
:1040500040E050E00E94FF246983612F702F8F2D74
:104060009E2D2CE330E040E050E00E94FF24122F10
:10407000032FF42EE52E622F732F842F952F28E126
:1040800030E040E050E00E94FF246A83612F702FEF
:104090008F2D9E2D28E130E040E050E00E94FF246B
:1040A00079018A01C801B7016C5F7F4F8F4F9F4F25
:1040B00027E030E040E050E00E94FF246F5F6B8318
:1040C00020E0AA24BB24650101C02F5F822E992421
:1040D000F401EE54F84FCF0183709070892B99F45E
:1040E000CF0164E670E00E94EC24892B39F4CF0103
:1040F00060E971E00E94EC24892B29F48EE691E0BE
:10410000A0E0B0E004C08DE691E0A0E0B0E0A80E31
:10411000B91ECA1EDB1EC501A0E0B0E0E816F90614
:104120000A071B0790F62E83F401EE54F84F83E044
:10413000882E912C8E229F228114910499F4CF0114
:1041400064E670E00E94EC24892B39F4CF0160E929
:1041500071E00E94EC24892B29F48EE691E0A0E026
:10416000B0E004C08DE691E0A0E0B0E0A81AB90A82
:10417000CA0ADB0A980187010A191B092C093D09A3
:10418000CF0164E670E00E94EC247C01CF0160E97D
:1041900071E00E94EC24AC01EEEDF1E060E06130F2
:1041A00051F48114910449F4E114F10441F44115EE
:1041B000510529F002C0808103C08CE101C08DE16E
:1041C00090E0A0E0B0E0081719072A073B0740F08D
:1041D000081B190B2A0B3B0B6F5F31966C30F9F6FD
:1041E0006F5F6D83802F8F5F8C83DF91CF911F91E5
:1041F0000F91FF90EF90DF90CF90BF90AF909F9086
:104200008F900895EF92FF920F931F937B018C0183
:104210008091A1069091A206A091A306B091A40658
:10422000E816F9060A071B0771F0C801B70146E94D
:1042300056E00E940020E092A106F092A2060093B0
:10424000A3061093A4061F910F91FF90EF9008957D
:104250000E94022120919C0630E02E54384FC90163
:1042600008950E94022180919B0690E008950E948B
:10427000022180919A0690E008950E940221809187
:10428000960690E008950E9402218091970690E0A2
:1042900008950E9402218091980690E0089560930D
:1042A0008D0670938E0680938F06909390062091D2
:1042B0007601309177014091780150917901260F74
:1042C000371F481F591F2093910630939206409341
:1042D00093065093940682E0809395060E947B0D8E
:1042E00060939D0670939E0680939F069093A00610
:1042F0000895EF92FF920F931F931CC02F5F3F4FC3
:104300004F4F5F4F20938D0630938E0640938F065C
:104310005093900688EE93E0A0E0B0E0E80EF91E1E
:104320000A1F1B1FE0929D06F0929E0600939F06B7
:104330001093A0060E947B0DE0909D06F0909E06D3
:1043400000919F061091A0066E197F09800B910BBA
:1043500020918D0630918E0640918F0650919006E7
:10436000685E73408040904048F68091910690913D
:104370009206A0919306B0919406281739074A0730
:104380005B07B0F0E0918B06F0918C06309781F0DE
:104390000995611571058105910519F00E944F215C
:1043A00007C090E080919506811191E09093950669
:1043B00060918D0670918E0680918F069091900687
:1043C0001F910F91FF90EF900895823000F5E82F34
:1043D000F0E0EE0FFF1FEB55F94F718360838823E8
:1043E00019F08130A1F408C0809169008C7F842B82
:1043F00080936900E89A089580916900440F551FE1
:10440000440F551F837F842B80936900E99A089598
:10441000823080F4882319F0813021F402C0E898BA
:1044200001C0E998E82FF0E0EE0FFF1FEB55F94FC0
:104430001182108208951F920F920FB60F921124CD
:104440002F933F934F935F936F937F938F939F939C
:10445000AF93BF93EF93FF938091A5069091A6062B
:10446000892B29F0E091A506F091A6060995FF9108
:10447000EF91BF91AF919F918F917F916F915F91DC
:104480004F913F912F910F900FBE0F901F90189555
:104490001F920F920FB60F9211242F933F934F93B9
:1044A0005F936F937F938F939F93AF93BF93EF939C
:1044B000FF938091A7069091A806892B29F0E0919F
:1044C000A706F091A8060995FF91EF91BF91AF91D2
:1044D0009F918F917F916F915F914F913F912F911C
:1044E0000F900FBE0F901F901895DF93CF9300D0C1
:1044F00000D000D0CDB7DEB7DE011196EAEEF1E0D4
:1045000086E001900D928150E1F786E191E0E0EFC5
:10451000F1E0DF019C011D9221503040E1F78091D4
:10452000A906833019F465EE75E003C0BE016F5F24
:104530007F4F84E490E043E450E00E947016809145
:10454000A906833039F080EF91E0BE016F5F7F4FA5
:104550000E94751B81E080931A0280931B0286E003
:1045600080931C028091B6069091B706A091B80680
:10457000B091B90680931E0290931F02A09320026F
:10458000B09321028091A906833039F48AE192E048
:104590000C9669ED75E00E947D1B86E392E063ED69
:1045A00075E00E94751BA6E0B3E0EBE8F1E002C005
:1045B00081918D9331E0E139F307D1F79091A9060C
:1045C000992311F083E001C081E080930C038DE317
:1045D00080930D0387E080930E0381E080930F03A7
:1045E000A0E1B3E0E3EDF5E002C081918D9385E0B9
:1045F000E93DF807D1F78CE0809316038AE08093B9
:104600001703A8E1B3E0EAE7F1E002C081918D93DE
:1046100021E0E438F207D1F722E233E03093BB0621
:104620002093BA06913069F582E38093220384E0F7
:1046300080932303D9011296E9EDF5E002C0819140
:104640008D9335E0ED3DF307D1F786E380932803A2
:1046500084E0809329038AE293E09093BB068093E1
:10466000BA06DC01E5EEF5E002C081918D9385E0AC
:10467000E93EF807D1F78EE293E09093BB06809372
:10468000BA062091BA063091BB06D901E5E8F1E0FF
:1046900002C081918D9381E0EB38F807D1F7C90111
:1046A00006969093BB068093BA068A5192400E9468
:1046B000E81726960FB6F894DEBF0FBECDBFCF9198
:1046C000DF910895EF92FF920F931F93CF93DF93A3
:1046D000EC018091A906823009F4E0C0833030F407
:1046E000882351F1813009F03DC14AC0833021F067
:1046F000843009F037C1D2C00E947B0D2091AE06F4
:104700003091AF064091B0065091B106E090AA06F4
:10471000F090AB060091AC061091AD062E0D3F1D3A
:10472000401F511F621773078407950708F41AC1C9
:104730000E94752284E017C00E947B0D6093B6062C
:104740007093B7068093B8069093B9061092D90576
:104750001092DA051092DB051092DC050E9475229A
:104760000E94591381E08093A9060E947B0D6093FB
:10477000B2067093B3068093B4069093B506F2C068
:10478000C634D10508F4B2C080911302833409F015
:10479000ADC080911A02823009F0A8C020911E029B
:1047A00030911F0240912002509121028091B60663
:1047B0009091B706A091B806B091B90628173907AD
:1047C0004A075B0709F092C080910A03853309F01C
:1047D0008DC080910C03823009F088C0A6C0DF0133
:1047E0001196E180ED01219680818630A9F0873015
:1047F00030F4813059F0833009F045C00AC0863367
:10480000E9F18A3361F08333F1F509C08DED95E06C
:1048100037C081EE95E034C089EE95E031C0119645
:104820006C9170E080E090E0982F872F762F6627BC
:104830002981620F711D811D911D982F872F762F61
:1048400066272A81620F711D811D911D982F872F68
:10485000762F66272B81620F711D811D911D28EE19
:1048600033E040E050E00E94B9246093AE067093BC
:10487000AF068093B0069093B10605C085EE95E033
:10488000BE010E947D1BFE01EE0DF11DE017F10738
:1048900008F4A5CF0E94752282E065CFC634D10509
:1048A00028F180911302833409F580911A02823035
:1048B000E9F420911E0230911F0240912002509194
:1048C00021028091B6069091B706A091B806B091EA
:1048D000B906281739074A075B0741F480910A0394
:1048E000853321F480910C03853059F10E947B0DB2
:1048F0002091B2063091B3064091B4065091B506AE
:10490000205F384D4F4F5F4F26173707480759072D
:1049100048F028C081EE95E00E94D61683E080938F
:10492000A90620C01092A9061DC089ED95E06AE293
:1049300072E00E947D1BEAE0F3E08E0100511E4F01
:104940004ECF0E9454130E947B0D6093AA06709371
:10495000AB068093AC069093AD068091E105882369
:10496000E9F2D8CFDF91CF911F910F91FF90EF9097
:104970000895629FD001739FF001829FE00DF11DA9
:10498000649FE00DF11D929FF00D839FF00D749FC9
:10499000F00D659FF00D9927729FB00DE11DF91F75
:1049A000639FB00DE11DF91FBD01CF0111240895D2
:1049B000AA1BBB1B51E107C0AA1FBB1FA617B70745
:1049C00010F0A61BB70B881F991F5A95A9F7809561
:1049D0009095BC01CD01089597FB092E07260AD0BA
:1049E00077FD04D0E5DF06D000201AF470956195BC
:1049F0007F4F0895F6F7909581959F4F0895A1E216
:104A00001A2EAA1BBB1BFD010DC0AA1FBB1FEE1F48
:104A1000FF1FA217B307E407F50720F0A21BB30B93
:104A2000E40BF50B661F771F881F991F1A9469F70F
:104A300060957095809590959B01AC01BD01CF016B
:104A40000895EE0FFF1F0590F491E02D09942F9229
:104A50003F924F925F926F927F928F929F92AF920E
:104A6000BF92CF92DF92EF92FF920F931F93CF935B
:104A7000DF93CDB7DEB7CA1BDB0B0FB6F894DEBFF2
:104A80000FBECDBF09942A88398848885F846E8418
:104A90007D848C849B84AA84B984C884DF80EE8062
:104AA000FD800C811B81AA81B981CE0FD11D0FB66B
:104AB000F894DEBF0FBECDBFED010895F894FFCF8F
:104AC0004D41433A200020002B330053656E64694A
:104AD0006E67204E54502072657175657374004581
:104AE0005448206C696E6B3A00444F574E00555045
:104AF000002047573A004F4B005741495400203D92
:104B000020002000457468205458206572726F722E
:104B1000008204C0A80003C0A80003D40103010D53
:104B2000F000E403860400007469692D30320150FE
:104B300000F6FF010A022C01000041726475696EE3
:104B40006F2D3030003703010306FF638253633556
:104B500001000000006E09F610B202BD08A108FCB9
:104B6000FF0000B908A008000000006E09F6109FC1
:104B700008BD08A108FCFF0000B908A0080000005B
:104B800000040B210A000000005110F610E70F1876
:104B900010F80F4110FFFFFFFFFFFF3402561F1CEC
:104BA0001F1E1F1E1F1F1E1F1E1FFFFFFFFFFFFFD9
:00000001FF
