:100000000C942F010C94F7170C9424180C9457019E
:100010000C9457010C9457010C9457010C94570100
:100020000C9457010C9457010C9457010C945701F0
:100030000C9457010C9457010C9457010C945701E0
:100040000C94A0050C9457010C941E070C946C079B
:100050000C9457010C9457010C9457010C945701C0
:100060000C9457010C945701206C656E3D0052466C
:10007000313220524356207061636B65743A2068B8
:1000800064723D30780049503A20002A2A2A2A2AF0
:100090002052554E4E494E473A206574685F72664D
:1000A00031325F67772E696E6F004661696C6564F7
:1000B00020746F2061636365737320457468657293
:1000C0006E657420636F6E74726F6C6C6572005233
:1000D0004631323A206C6F7720545820706F776524
:1000E00072002A2A2A2A2A2053455455503A20655C
:1000F00074685F726631325F67772E696E6F0020B9
:100100006C656E3D00455448202052435620706176
:10011000636B65743A206864723D307800455448DA
:100120003A206C656E677468206D69736D617463E5
:1001300068207564703A0000000000240027002A3F
:100140000000000000250028002B00000000002314
:10015000002600290004040404040404040202022A
:1001600002020203030303030301020408102040F8
:100170008001020408102001020408102000000081
:100180000700020100000304060000000000000058
:100190000000010800060400014500008200004044
:1001A0000020504F535420244620485454502F319F
:1001B0002E300D0A486F73743A2024460D0A2446E7
:1001C00024534163636570743A202A2F2A0D0A4331
:1001D0006F6E74656E742D4C656E6774683A20247A
:1001E000440D0A436F6E74656E742D547970653AD0
:1001F000206170706C69636174696F6E2F782D7700
:1002000077772D666F726D2D75726C656E636F6496
:1002100065640D0A0D0A24530047455420244624E2
:100220005320485454502F312E300D0A486F7374A8
:100230003A2024460D0A24460D0A0D0A0041636344
:100240006570743A20746578742F68746D6C00E37F
:100250000004FA000100000001007801D808112410
:100260001FBECFEFD8E0DEBFCDBF11E0A0E0B1E010
:10027000EAE0F6E302C005900D92AE3BB107D9F774
:1002800016E0AEEBB1E001C01D92AA33B107E1F771
:1002900012E0CEE5D2E004C02297FE010E94FF1AD0
:1002A000CA35D107C9F70E942E090C94031B0C9480
:1002B0000000FB01DC0102C005900D92415050404E
:1002C000D8F70895FB01DC0104C08D9101908019DD
:1002D00021F441505040C8F7881B990B0895FB0149
:1002E000DC0102C001900D9241505040D8F70895B2
:1002F00010923E041092410410924404109247045C
:1003000084E08093480483E0809349041092B5030D
:100310001092B40389E991E09093B3038093B20300
:100320000895EF92FF920F931F93F62EE72E042F5E
:100330008FE097E268E671E04FE057E20E946A0EB4
:1003400084ED8093E8018FE18093E9010093EA0155
:100350002BEE31E0C9016F2D7E2D402F50E00E9421
:100360006F0110E0C80103960E94E20F80914A04D9
:1003700090914B04A0914C04B0914D040196A11DA5
:10038000B11D80934A0490934B04A0934C04B09306
:100390004D041F910F91FF90EF900895EF92FF92FF
:1003A0000F931F93CF93DF93EC018C0107571F4FDF
:1003B000D8018C91FE01E80FF11D148284E0E82E33
:1003C000F12CEC0EFD1E83E295E0B7010E94D80AE5
:1003D000F8010081002359F0FE01E00FF11D838137
:1003E0008A3029F483E295E06DE00E948A09E88171
:1003F000F9818E0107571F4F0480F581E02DCE0152
:10040000B701D8014C910995F8011082DF91CF9185
:100410001F910F91FF90EF9008959C01DC01A75769
:10042000BF4F8C91F901E80FF11D64838F5F8C93AE
:10043000843810F46A3019F4C9010E94CE0181E0B9
:1004400090E00895FC018081882311F482E101C0CD
:100450008D5F0E94C906089585E00E947E058C523A
:1004600091409695879596958795089587E598E9A3
:100470000E94A01382EB94E90E94A0130895CF93E9
:10048000DF9383E295E040E051EE60E070E00E948F
:10049000A70783E295E062EE70E00E94B2098091C6
:1004A0004904882311F483E101C0835F61E00E9465
:1004B0008A0680914904882311F483E101C0835F97
:1004C00061E00E94C90680914904882311F482E109
:1004D00001C08D5F61E00E948A0689E494E061E0DA
:1004E0000E94220280914804882311F482E101C015
:1004F0008D5F61E00E948A0688E494E061E00E94DA
:10050000220264EF71E080E090E00E94F6058FE146
:1005100063E044ED0E948D1783E295E06FEC70E09C
:100520000E94B2090E94360283E295E060E071E029
:100530000E94D80AC0E0D0E0FE01E459FE4F83E2F9
:1005400095E0608140E150E00E94550AC53029F0F5
:1005500083E295E06AE30E948A092196C630D105BC
:1005600059F783E295E00E9492090CC083E295E07E
:100570006AEA70E00E94B20968EE73E080E090E001
:100580000E94F60584EF91E06CE671E048E00E947D
:10059000790D882359F382E791E068E671E0AB01B9
:1005A0000E94560D8CE394E06CE474E00E944E13BC
:1005B0008FE394E068EE73E00E944E1383E295E0CF
:1005C0006BE870E00E94B20980914904882311F41D
:1005D00083E101C0835F60E00E94C90689E494E082
:1005E00060E00E942202DF91CF9108951F93CF9384
:1005F000DF934091E5018091E3018F3009F067C0FE
:100600008091E201873209F062C08091E401882381
:1006100009F05DC0142F1850133008F458C0163478
:1006200008F055C0212F30E08091EA01C82FD0E0BA
:10063000CE0103962817390711F182EB93E06DE1A3
:1006400071E00E94670982EB93E0612F4AE050E07D
:100650000E94550A82EB93E066E071E00E94D80A9E
:1006600082EB93E06091EA014AE050E00E94550A73
:1006700082EB93E068E071E00E94DB0A26C01091F3
:10068000E9014B50812F6BEE71E00E94C81682EB9E
:1006900093E065E071E00E94670982EB93E0612FCF
:1006A00040E150E00E94550A82EB93E06FEF70E06A
:1006B0000E94670982EB93E0BE014AE050E00E948D
:1006C000C50A82EB93E00E94920981E001C080E0BC
:1006D000DF91CF911F910895FF920F931F930E9476
:1006E000840B882309F4F5C10E943B0E882309F08E
:1006F000F0C1FAC183E295E06BE071E00E94D80A94
:100700000E94840B882319F465E171E002C06AE15C
:1007100071E083E295E00E94D80A83E295E06DE102
:1007200071E00E94D80A0E943B0E882319F462E20D
:1007300071E002C065E271E083E295E00E94D80AB0
:1007400083E295E00E949209CDC18FE097E268E6CE
:1007500071E04FE057E20E946A0E80912A01909169
:100760002B01A0912C01B0912D018093E801909371
:10077000E901A093EA01B093EB0180914E048093CC
:10078000EF011092F001809152048093F101809169
:100790004A048093F201A0EFB1E0E6E5F4E08EE1D7
:1007A00001900D928150E1F7AEE0B2E0E4E7F4E0B1
:1007B0008EE101900D928150E1F78EE1E6E5F4E0E3
:1007C000DF01982F1D929A95E9F7E4E7F4E0DF0145
:1007D0001D928A95E9F781E48093EA0184E490E030
:1007E0000E94E20F80914A0490914B04A0914C0426
:1007F000B0914D040196A11DB11D80934A049093C0
:100800004B04A0934C04B0934D0486E890E061E75C
:1008100075E00E94071383E295E06FE271E00E94A9
:10082000D80A40914E0450914F0460915004709149
:10083000510483E295E02AE030E00E94460A83E218
:1008400095E06AE371E00E94D80A83E295E040E017
:1008500050E060E070E02AE030E00E94460A83E267
:1008600095E060E471E00E94D80A409152045091F2
:100870005304609154047091550483E295E02AE09A
:1008800030E00E94460A83E295E06AE371E00E944C
:10089000D80A40914A0450914B0460914C047091E5
:1008A0004D0483E295E02AE030E00E94460A83E2AC
:1008B00095E00E949209FF24F3940E94BC138823C0
:1008C00009F4A3C080914E0490914F04A09150046C
:1008D000B09151040196A11DB11D80934E049093D7
:1008E0004F04A0935004B09351041091D1051F718F
:1008F0008091D10586FD07C00E942C02E12FF0E017
:10090000EA5AFB4F80838091D105807E803859F46C
:100910008091D205813039F48091D305E12FF0E048
:10092000EE58FB4F808383E295E06BE471E00E9418
:10093000D80A6091D10570E06F71707083E295E024
:100940004AE050E00E94C50A83E295E064E571E068
:100950000E94D80AE12FF0E0EA5AFB4F83E295E0CB
:1009600060814AE050E00E94670A82EB93E06EE605
:1009700070E00E9467096091D10582EB93E040E14D
:1009800050E00E94550A82EB93E068E670E00E9416
:1009900067096091D20582EB93E04AE050E00E9443
:1009A000550A82EB93E00E9492096091D2056D5F37
:1009B00080ED95E04FE057E228E631E00FE017E2E6
:1009C0000E94761280914A0490914B04A0914C04AD
:1009D000B0914D040196A11DB11D80934A049093DE
:1009E0004B04A0934C04B0934D0485E494E064E67A
:1009F00070E00E94321380914904882311F483E14E
:100A000001C0835F61E00E94C9060E94C30B8C0194
:100A10000E9411100B32110594F18091CA018830A7
:100A200071F58091CB01882351F58091D5018131F9
:100A300031F58091520490915304A0915404B091E7
:100A400055040196A11DB11D809352049093530447
:100A5000A0935404B09355048091E101833479F05C
:100A60000E94F602882359F082E494E064E670E084
:100A70000E94321389E494E061E00E94220285E43E
:100A800094E060E070E00E944E13882351F0809162
:100A90004904882311F483E101C0835F60E00E9470
:100AA000C90682E494E060E070E00E944E1388235F
:100AB00029F089E494E060E00E94220281E0F826B7
:100AC00088E494E06F2D0E9422021F910F91FF9005
:100AD00008958CE394E060EA7FE00E944E1388233F
:100AE00009F008CEFF24E9CE8FE394E064E273E1DD
:100AF0000E944E13882309F028CEDDCE982F8E3029
:100B000008F09E509770809176018295880F880F2B
:100B1000807C892B80937C0080917A008064809314
:100B20007A0080917A0086FDFCCF20917800409178
:100B30007900942F80E030E0282B392BC9010895EB
:100B40001F920F920FB60F9211242F933F938F9302
:100B50009F93AF93BF938091960490919704A09137
:100B60009804B091990430919A040196A11DB11D89
:100B7000232F2D5F2D3720F02D570196A11DB11D7C
:100B800020939A048093960490939704A0939804DA
:100B9000B09399048091920490919304A09194044D
:100BA000B09195040196A11DB11D8093920490937C
:100BB0009304A0939404B0939504BF91AF919F9137
:100BC0008F913F912F910F900FBE0F901F9018950E
:100BD0008FB7F8942091960430919704409198042F
:100BE000509199048FBFB901CA0108959B01AC01CE
:100BF0007FB7F8948091920490919304A09194040B
:100C0000B091950466B5A89B05C06F3F19F0019699
:100C1000A11DB11D7FBFBA2FA92F982F8827860F3E
:100C2000911DA11DB11D62E0880F991FAA1FBB1F56
:100C30006A95D1F7BC012DC0FFB7F894809192045A
:100C400090919304A0919404B0919504E6B5A89B6B
:100C500005C0EF3F19F00196A11DB11DFFBFBA2FCE
:100C6000A92F982F88278E0F911DA11DB11DE2E09D
:100C7000880F991FAA1FBB1FEA95D1F7861B970BF8
:100C8000885E9340C8F22150304040405040685147
:100C90007C4F211531054105510571F60895789471
:100CA00084B5826084BD84B5816084BD85B5826071
:100CB00085BD85B5816085BDEEE6F0E0808181600F
:100CC0008083E1E8F0E0108280818260808380810F
:100CD00081608083E0E8F0E0808181608083E1EBE7
:100CE000F0E0808184608083E0EBF0E080818160CF
:100CF0008083EAE7F0E08081846080838081826085
:100D0000808380818160808380818068808310926D
:100D1000C1000895CF93DF93482F50E0CA0187594F
:100D20009E4FFC0134914B5A5E4FFA018491882307
:100D300069F190E0880F991FFC01E95CFE4FA591D5
:100D4000B491FC01EF5BFE4FC591D491662351F441
:100D50002FB7F8948C91932F909589238C93888149
:100D600089230BC0623061F42FB7F8948C91932FD4
:100D7000909589238C938881832B88832FBF06C00D
:100D80009FB7F8948C91832B8C939FBFDF91CF9169
:100D90000895482F50E0CA0183589E4FFC012491CA
:100DA000CA0187599E4FFC0194914B5A5E4FFA013C
:100DB0003491332309F440C0222351F1233071F0E0
:100DC000243028F42130A1F0223011F514C026304F
:100DD000B1F02730C1F02430D9F404C080918000F4
:100DE0008F7703C0809180008F7D8093800010C03A
:100DF00084B58F7702C084B58F7D84BD09C0809192
:100E0000B0008F7703C08091B0008F7D8093B000D9
:100E1000E32FF0E0EE0FFF1FEF5BFE4FA591B491C3
:100E20002FB7F894662321F48C919095892302C002
:100E30008C91892B8C932FBF089508951F920F9248
:100E40000FB60F9211242F933F934F938F939F933D
:100E5000EF93FF938091C00082FD1DC04091C600BA
:100E60002091DB043091DC042F5F3F4F2F733070F3
:100E70008091DD049091DE042817390771F0E0912C
:100E8000DB04F091DC04E556FB4F40833093DC0437
:100E90002093DB0402C08091C600FF91EF919F91E7
:100EA0008F914F913F912F910F900FBE0F901F90F8
:100EB0001895E0912F05F0913005E05CFF4F81918E
:100EC000919120813181821B930B8F739070892BBC
:100ED00011F00E941D0708951F920F920FB60F92F6
:100EE00011242F933F938F939F93EF93FF93209120
:100EF0001F0530912005809121059091220528172A
:100F0000390731F48091C1008F7D8093C10014C0F6
:100F1000E0912105F0912205E152FB4F2081809163
:100F200021059091220501968F7390709093220570
:100F3000809321052093C600FF91EF919F918F919F
:100F40003F912F910F900FBE0F901F901895AF9269
:100F5000BF92DF92EF92FF920F931F93CF93DF9395
:100F6000EC017A018B01DD24403081EE580780E0EE
:100F7000680780E0780711F0DD24D39491E0A92E72
:100F8000B12CEC89FD89DD2069F0C50108A002C003
:100F9000880F991F0A94E2F7808360E079E08DE37F
:100FA00090E005C0108260E874E88EE190E0A8014E
:100FB00097010E94DB1A2150304040405040569526
:100FC00047953795279580E12030380720F0DD20C0
:100FD00011F0DD24D6CFE889F9893083EA89FB89CD
:100FE000208319A2EE89FF89408121E030E0C90108
:100FF0000C8C02C0880F991F0A94E2F7482B40839B
:10100000EE89FF894081C9010D8C02C0880F991FAC
:101010000A94E2F7482B4083EE89FF894081C90199
:101020000E8C02C0880F991F0A94E2F7482B408368
:10103000EE89FF8980810F8C02C0220F331F0A9432
:10104000E2F7209528232083DF91CF911F910F9104
:10105000FF90EF90DF90BF90AF900895DC011C9659
:10106000ED91FC911D97E05CFF4F219131918081C2
:101070009181281B390B2F733070C9010895DC0151
:101080001C96ED91FC911D97E05CFF4F2081318112
:10109000E054F040DF01AE5BBF4F8D919C91119702
:1010A0002817390719F42FEF3FEF07C08D919C9156
:1010B000E80FF91F8081282F30E0C9010895DC0175
:1010C0001C96ED91FC911D97E05CFF4F20813181D2
:1010D000E054F040DF01AE5BBF4F8D919C911197C2
:1010E0002817390719F42FEF3FEF10C08D919C910D
:1010F0001197E80FF91F20818D919C91119701960E
:101100008F73907011969C938E9330E0C90108956F
:10111000DC0191968C919197882339F05496ED914A
:10112000FC915597808186FFF9CF91961C92089586
:10113000CF93DF93EC01EE85FF85E05CFF4F2081CC
:101140003181E054F0402F5F3F4F2F733070DF014B
:10115000AE5BBF4F8D919C91119728173907D1F342
:10116000E05CFF4F80819181E054F040E80FF91F6F
:101170006083EE85FF85E05CFF4F31832083EE893D
:10118000FF89208181E090E00F8C02C0880F991FB9
:101190000A94E2F7282B208381E089A3EC89FD895A
:1011A00080818064808381E090E0DF91CF91089519
:1011B000109226051092250588EE93E0A0E0B0E09D
:1011C0008093270590932805A0932905B0932A05BD
:1011D00083EA91E090932405809323058BE994E0C2
:1011E0009093300580932F058FED94E09093320516
:1011F0008093310585EC90E090933405809333051E
:1012000084EC90E0909336058093350580EC90E077
:10121000909338058093370581EC90E090933A05E0
:101220008093390582EC90E090933C0580933B05D8
:1012300086EC90E090933E0580933D0584E080939A
:101240003F0583E08093400587E08093410585E07A
:101250008093420581E0809343050895CF93DF9307
:101260000E944F060E943F02C9E5D7E00E946C032E
:101270002097E1F30E945907F9CFCF92DF92EF92C6
:10128000FF920F931F93CF93DF937C016B018A0131
:10129000C0E0D0E00FC0D6016D916D01D701ED9196
:1012A000FC910190F081E02DC7010995C80FD91F6D
:1012B000015010400115110571F7CE01DF91CF915A
:1012C0001F910F91FF90EF90DF90CF900895EF92D4
:1012D000FF920F931F93CF93DF937C018B01C0E0AC
:1012E000D0E0F8010F5F1F4F6491662359F0D701DA
:1012F000ED91FC910190F081E02DC7010995C80F97
:10130000D91FEFCFCE01DF91CF911F910F91FF90A9
:10131000EF900895DC01ED91FC910190F081E02DBA
:1013200009950895EF92FF920F931F938C01DC01B2
:10133000ED91FC910190F081E02D6DE009957C012B
:10134000D801ED91FC910190F081E02DC8016AE097
:1013500009959C012E0D3F1DC9011F910F91FF9012
:10136000EF900895EF92FF920F931F937C010E94DC
:1013700067098C01C7010E9492099C01200F311F4F
:10138000C9011F910F91FF90EF900895CF93DF93C4
:10139000EC016115710519F420E030E00FC0DB01AC
:1013A0000D900020E9F71197A61BB70BE881F98192
:1013B0000280F381E02DAD0109959C01C901DF9107
:1013C000CF9108954F925F927F928F929F92AF92AA
:1013D000BF92CF92DF92EF92FF920F931F93DF9312
:1013E000CF93CDB7DEB7A1970FB6F894DEBF0FBE8F
:1013F000CDBF2C01742ECB01223008F42AE019A2B3
:1014000031E2C32ED12CCC0EDD1E822E9924AA24CB
:10141000BB24672D752FA50194010E94DB1A790169
:101420008A01C801B701A50194010E94951A472DB0
:10143000461B0894C108D1084A3010F4405D01C031
:10144000495CF6014083E114F1040105110521F026
:101450007E2C5F2DC801DDCFC201B6010E94C609F6
:10146000A1960FB6F894DEBF0FBECDBFCF91DF912E
:101470001F910F91FF90EF90DF90CF90BF90AF90B2
:101480009F908F907F905F904F900895DC01211581
:10149000310541F4ED91FC910190F081E02D642F34
:1014A000099508950E94E2090895EF92FF920F9323
:1014B0001F939A01E62EFF2400E010E0B801A70177
:1014C0000E94460A1F910F91FF90EF900895CF92CE
:1014D000DF92EF92FF920F931F936C01E62E9A0119
:1014E000FF2400E010E0B801A7010E94460A8C0129
:1014F000C6010E949209080F191FC8011F910F9180
:10150000FF90EF90DF90CF900895CF92DF92EF920F
:10151000FF920F931F93CF93DF93EC016A017B013E
:101520002115310541F4E881F9810190F081E02D28
:10153000642F09951FC02A303105D1F477FF17C0F9
:10154000E881F9810190F081E02D6DE209958C012F
:1015500044275527BA014C195D096E097F09CE0150
:101560002AE00E94E2099801280F391F04C02AE0EE
:101570000E94E2099C01C901DF91CF911F910F9157
:10158000FF90EF90DF90CF900895EF92FF920F932E
:101590001F937B019A010027F7FC0095102FB801DB
:1015A000A7010E94850A1F910F91FF90EF90089567
:1015B0000E94C6090895EF92FF920F931F937C013A
:1015C0000E94C6098C01C7010E949209080F191FC9
:1015D000C8011F910F91FF90EF90089580914705EA
:1015E00061E00E94C90678940895FF920F931F93BB
:1015F000082F162FF42EF8948091470560E00E9482
:10160000C9061F71102B1EBD0DB407FEFDCFFEBC19
:101610000DB407FEFDCF0E94EE0A1F910F91FF90BF
:1016200008951F93182F282F30E020763070809176
:10163000480590E02817390799F080EA6FE143E008
:101640000E94F50A412F40764093480550E085E01E
:10165000559547958A95E1F780E86FE10E94F50A74
:101660001F9108950F931F93182F062F0E94110B9F
:1016700080E4612F402F0E94F50A1F910F91089579
:101680000F931F93182F072F0E94320B812F8F5F0C
:10169000602F0E94320B1F910F91089588E360EB39
:1016A0000E94320B089588E361EB0E94320B08958B
:1016B0000F931F93182F062FF8948091470560E031
:1016C0000E94C906802F8F71812B8EBD0DB407FE3D
:1016D000FDCF1EBC0DB407FEFDCF07FF04C01EBC2E
:1016E0000DB407FEFDCF1EB50E94EE0A812F1F919B
:1016F0000F9108951F93182F0E94110B80E0612F06
:101700000E94580B1F91089584ED61E10E94320BF5
:1017100082ED61E00E94320B8AEE0E947A0B80FD1E
:10172000FBCF82ED60E00E94320B89ED0E947A0BC4
:1017300090E09695879596958795817008950F937B
:101740001F93CF93DF93EC018B01F89480914705B1
:1017500060E00E94C9068AE38EBD0DB407FEFDCF8E
:1017600009C01EBC0DB407FEFDCF8EB5F8018193F4
:101770008F0121972097A9F70E94EE0ADF91CF9160
:101780001F910F9108950F931F93DF93CF9300D074
:1017900000D000D0CDB7DEB789E30E947A0B882352
:1017A00019F400E010E048C06091490570914A05C5
:1017B00080E00E94400B86E090E0BE016F5F7F4FAB
:1017C0000E949F0B89819A8190934A0580934905D5
:1017D0002B813C81E0914505F09146058D8187FD87
:1017E00003C000E010E00EC0245030408F010150D3
:1017F00010402017310708F48901C8016EEB71E031
:101800000E949F0BF801E254FE4F1082609149053F
:1018100070914A058CE06130780724F08CE06FEF1E
:101820007BE003C0615070408CE00E94400B80E878
:101830006EE140E40E94F50AC80126960FB6F894BE
:10184000DEBF0FBECDBFCF91DF911F910F910895E5
:101850000F931F93CF93DF938C01EB01F89480914A
:10186000470560E00E94C9068AE78EBD0DB407FEF9
:10187000FDCF08C088818EBD0DB407FEFDCF219637
:101880000150104001151105A9F70E94EE0ADF91E1
:10189000CF911F910F9108958AE061E00E948A061E
:1018A0008AE061E00E94C9068BE061E00E948A063E
:1018B0008DE061E00E948A068CE060E00E948A066A
:1018C0008BE061E00E94C9068BE060E00E94C906DF
:1018D0008DE060E00E94C90680E58CBD8DB5816019
:1018E0008DBD08951F93CF93DF93EB01142F909339
:1018F0004605809345050CB406FC02C00E944C0CC2
:1019000010934705812F61E00E948A060E94EE0A2B
:101910008FEF60E04FEF0E94F50A62E070E080E038
:1019200090E00E94F60580E06DE10E94580B88234C
:10193000D1F310924A051092490588E060E070E00A
:101940000E94400B8CE060E070E00E94400B8AE057
:101950006FEF7BE00E94400B84E060E07CE00E943F
:10196000400B86E06FEF71E10E94400B0E94530B29
:1019700088E26FE370E30E94400B80E369EF77EF4A
:101980000E94400B80EC6DE00E94320B81EC60E025
:101990000E94320B80E862EC42E30E94F50A86EC7A
:1019A00062E17CE00E94400B84EC62E10E94320B19
:1019B0008AEC6CED75E00E94400B84EE68810E9419
:1019C000320B85EE69810E94320B82EE6A810E94A1
:1019D000320B83EE6B810E94320B80EE6C810E9491
:1019E000320B81EE6D810E94320B84ED60E10E942A
:1019F000320B86ED60E071E00E94400B8AEE0E949F
:101A00007A0B80FDFBCF8FE10E94110B80E86BE128
:101A100040EC0E94F50A80E86FE144E00E94F50A7C
:101A200082E70E947A0B863008F08F5FDF91CF91BA
:101A30001F910895CF93DF93EC0115C08CE10E94B4
:101A40007A0B81FF10C083E295E06BE571E00E94A4
:101A5000DB0A80E86FE140E80E94F50A80EA6FE166
:101A600040E80E94F50A80E06FE10E94580B83FD78
:101A7000E5CF82E060E07CE00E94400BBE01605058
:101A8000744F86E00E94400B8AE760E040E00E94CD
:101A9000F50ACE016EEB71E00E94280C80E86FE140
:101AA00048E00E94F50ADF91CF9108950F931F93AC
:101AB000CF93DF939C01EB018A0110928905009777
:101AC00029F081E795E0B9010E942613209719F0CB
:101AD000CE010E94D00E0115110529F081E895E094
:101AE000B8010E94261381E0DF91CF911F910F91E1
:101AF0000895AF92BF92CF92DF92FF920F931F9300
:101B0000CF93DF938C01EB01F42E1092890538E31B
:101B100041E050E060E070E018C0832F90E0FC01ED
:101B2000B3E0F595E795BA95E1F7E55BFA4F877075
:101B300090705A016B0104C0AA0CBB1CCC1CDD1CAC
:101B40008A95D2F720812A292083315031F78BE6FC
:101B500095E0BE010E941E13C8016BE675E04F2D93
:101B60000E94720CDF91CF911F910F91FF90DF9037
:101B7000CF90BF90AF900895DF92EF92FF920F93B6
:101B80001F93CF93DF93D82E862FBA01213041F4D3
:101B9000675F7F4F9B0140E050E0695070400EC08E
:101BA000223029F020E030E040E050E007C06250F1
:101BB00070409B0140E050E06E5F7F4FE82EFF24B5
:101BC0008EEB91E0E80EF91E8B01E7010FC0F88162
:101BD000E0E0898190E08E2B9F2BA0E0B0E0280F01
:101BE000391F4A1F5B1F2296025010400230110518
:101BF00070F7CB018E7FD701A80FB91F681779073F
:101C000079F08C9190E0A0E0B0E0BA2FA92F982F46
:101C1000882702C040E050E0280F391F4A1F5B1F91
:101C2000CA01AA27BB270097A105B10599F7C901E9
:101C300080959095ED2DF0E0E254FE4F90838183E6
:101C4000DF91CF911F910F91FF90EF90DF9008955A
:101C50001092D6011092D70180E48093D2011092A5
:101C6000D3018093D40188E16EE044E150E020E0AC
:101C70000E94BC0D089580918B058695809581709A
:101C800008950F931F93BC010EEB11E0C8010E9451
:101C90001E13C80106966BE675E00E941E131F9185
:101CA0000F910895EF92FF920F931F937B010E9473
:101CB000410E0CED11E0C801B7010E942613C801C6
:101CC000049761E775E00E9426131F910F91FF9022
:101CD000EF900895EF92FF920F931F93CF93DF93AE
:101CE0007C01EB018A0186E995E00E94520E888111
:101CF000807F803E49F088819981AA81BB818F5F76
:101D00009F4FAF4FBF4F31F48EEB91E06FEA71E020
:101D10000E941E1388E08093CA011092CB018CECC4
:101D200091E069E971E049E050E00E9459011092A8
:101D3000CE0181E18093D5011093E2010093E3018C
:101D4000F092E001E092E1011092E4011092E601CC
:101D50001092E701DF91CF911F910F91FF90EF90CB
:101D60000895EF92FF920F931F9304EC11E0C801C6
:101D70000E94410E74E1E72EF12CE00EF11EC80125
:101D80004896B7010E942613C70161E775E00E94DB
:101D900026130E94280E1F910F91FF90EF90089537
:101DA000BC0181E080938B0589E795E00E942613B2
:101DB00008950F931F938C0188969093CE01809382
:101DC000CF010E94280E1092F0011092F101045EE2
:101DD0001F4F82E36AE1A80122E00E94BC0DC80106
:101DE0004A960E941A0D1F910F910895CF93DF9389
:101DF0009C01862F80618093ED01643029F02115CC
:101E0000310511F421E030E09091E2018091E00190
:101E10008093E2019093E0019091E3018091E101D0
:101E20008093E3019093E101C7EED1E08881A9019D
:101E3000480F511D2C814C832883252F3327219750
:101E400051E0C33ED50791F71D861E8680E5898740
:101E50001092CE0188E28093CF010E94B10E84E0FF
:101E60008B871C8682E36AE14CE150E022E00E940D
:101E7000BC0D86E390E00E941A0DDF91CF9108958A
:101E8000E82FA091CE01B091CF01F091EC014091EB
:101E9000E20150E0292F30E04217530709F08EC0CD
:101EA0008091E3018E1709F089C08091ED01E82F40
:101EB00081FF4EC01092CE018CE28093CF010E9430
:101EC000B10E82E18093ED019091E2018091E001F9
:101ED0008093E2019093E0019091E3018091E10110
:101EE0008093E3019093E101E7EEF1E021E030E03F
:101EF0008081A901480F511D44831082252F33276B
:101F0000319751E0E33EF50799F715861686118261
:101F1000128280917C01838314828D5F80937C0187
:101F200082E0818B84E0828B95E0938B148A80E63B
:101F30008187938788E7848782E36AE140E250E003
:101F400022E00E94BC0D8AE390E00E941A0D36C088
:101F500084FF34C04F2F50E084E0559547958A9513
:101F6000E1F79A2F80E02B2F30E0282B392BCA0184
:101F7000880F991F880F991F281B390B2451304057
:101F800037FF02C020E030E030939D0520939C0590
:101F9000232B69F09A01220F331F220F331F2E5D6E
:101FA0003F4F685070406217730740F009C0E0FF70
:101FB00005C080E090E060E00E94F60E20E030E096
:101FC000C90108950F931F93DF93CF930F92CDB75D
:101FD000DEB78C01045E1F4F1093CE010C511040F0
:101FE000802F845E8093CF0189830E94280E085F32
:101FF0001F4F1093E401898184518093E501085FAC
:102000001F4F88E26AE1A80121E00E94BC0DC801CF
:102010004A960E941A0D0F90CF91DF911F910F9158
:102020000895DF92EF92FF920F931F93CF93DF9368
:10203000EC0180918905882319F0CE010E943E1998
:10204000209709F0C3C080918B058570F1F18091D4
:10205000790190917A01892BC1F50E94840B882324
:10206000A1F18FEA91E00E94410E88E08093CA01BD
:10207000A6E0FA2EF092CB018CEC91E061E971E0E0
:1020800048E050E00E9459010EED11E0D8011D9288
:10209000FA94E9F7C8010A976BE675E00E941E13EF
:1020A000C801069669E775E00E942613C8010497E7
:1020B00061E775E00E94261380918B05886080930C
:1020C0008B058AE290E00E941A0D0E94840B8823FF
:1020D00049F08091790190917A01019690937A016B
:1020E0008093790180918C05813009F0EFC1809156
:1020F0008B0581FFEBC102E000938C0580917B0191
:102100008F5F80937B018F7110918D051295110F58
:10211000107E182BE0908E05D0908F0586E995E013
:1021200065E875E00E94520EF8E0FF2EF092CA01B9
:102130001092CB018CEC91E069E971E049E050E04C
:102140000E9459018CE28093CF0186E08093D501F3
:102150000E94280EE092E201D092E3018BE080938E
:10216000E0011093E101E4EEF1E0DF011D92FA9449
:10217000E9F780917C018093E6018D5F80937C017B
:1021800080E68093EC010093ED0183E08093EE0103
:102190001092EF011092F0011092F1011092F201F1
:1021A0001092F3010093F40184E08093F501009311
:1021B000F60186E28093F70182E36AE140E250E0B3
:1021C00022E00E94BC0D8AE390E09BC0C932D10599
:1021D00008F47CC11091CA01183009F082C18091C5
:1021E000CB01863009F07DC184EE91E061E775E0B6
:1021F00044E050E00E946201009709F072C18091B2
:10220000D301813029F584EC91E00E94410E1092B7
:10221000D20182E08093D3018EED91E064ED71E014
:102220000E941E1384ED91E06BE675E00E941E1380
:1022300084EE91E06AED71E00E9426138AED91E050
:1022400061E775E00E9426138AE290E00E941A0D71
:1022500080918B0583FF3AC11091D301123009F0B0
:1022600035C18AED91E069E775E044E050E00E94F5
:102270006201009709F02AC186E995E064ED71E0FA
:102280000E941E1310938B0521C1183009F01EC146
:102290008091CB01882309F019C18091CC0185344C
:1022A00009F014C18CED91E061E775E044E050E085
:1022B0000E946201009709F009C18091D501813027
:1022C00019F58091E0018830F9F4E0919005F091E2
:1022D0009105309719F088ED91E009950E94B10EB3
:1022E0001092E0018091E201883F28F08091E301A3
:1022F0008F5F8093E3018091E201885F8093E20128
:10230000CE010E941A0DE2C00E949A12882351F059
:102310008091D501813131F4CE010E949F12882332
:1023200009F0D4C0C633D10528F48091D501863098
:1023300009F0CCC08091E2018B3009F0BEC088ED7D
:1023400091E065E875E044E050E00E94620100978A
:1023500009F0BCC08091ED01382F82FF13C0E091DD
:102360009205F0919305309759F08091E3018295A1
:102370008695877063E040E050E020E030E009950A
:1023800085E090C09091CE0180E02091CF01022F96
:1023900010E0082B192B8091EC01482F50E0E4E06D
:1023A00055954795EA95E1F7CA01880F991F880F5F
:1023B000991F081B190B0451104017FF02C000E0C1
:1023C00010E080918C05823079F531FF21C034FF17
:1023D0001FC080E090E060E00E94F60E88E18093EC
:1023E000ED01E0919405F0919505309719F420E006
:1023F00030E007C08091E10182958695877009954C
:102400009C0183E080938C05C9010E94D90E5EC0B7
:1024100081E080938C0534FF03C080E090E002C02F
:10242000C801019664E046C0833081F501151105AD
:1024300079F1E0919205F0919305309749F1440FBD
:10244000551F440F551FCE0108974E5D5F4F8417EF
:10245000950708F4AC01C801840F951FC817D90768
:1024600010F0980103C09E01241B350B8091E301FD
:1024700082958695877060E0099580918A0588230A
:1024800019F0C80168E016C0C80108C08530F1F035
:1024900030FF0BC08330D1F0C801019669E00E9483
:1024A000F60E86E080938C0511C00115110571F0C0
:1024B000C80160E00E94F60E09C0809177019091FA
:1024C0007801BE010E94400F9C0102C020E030E074
:1024D000C901DF91CF911F910F91FF90EF90DF9095
:1024E0000895CA32D10508F0D0CEF0CFDF92EF9236
:1024F000FF920F931F93E82ED92EF62ECA01A80142
:10250000B9010E946A0E1F2D1D3D08F01CED28EE3A
:1025100031E0C9016E2D7D2D412F50E00E946F01E9
:10252000812F90E00E94E20F1F910F91FF90EF909A
:10253000DF9008958091C605811181E00895CF92C2
:10254000DF92EF92FF920F931F93CF93DF93CEE929
:10255000D5E030E0CC24DD2429C02A814B81809154
:10256000E20190E0042F10E080179107D9F49091D8
:10257000E3019217B9F48C818823A1F02091E50141
:1025800030E028503040F090E401EE242E0D3F1D45
:10259000E881F981892F942F68ED71E048EE51E0D0
:1025A000099531E00894C11CD11C25968091C6057F
:1025B00090E0C816D9068CF2832FDF91CF911F913E
:1025C0000F91FF90EF90DF90CF9008950F931F939E
:1025D000CF93DF938C01C0E0D0E0F801EC0FFD1F3A
:1025E00083E295E060814AE050E00E94550AC330E2
:1025F00029F083E295E06EE20E948A092196C430B8
:10260000D10559F7DF91CF911F910F910895EF9266
:10261000FF920F931F939C017B0103E215E0C80119
:10262000B9010E946709C7010E94E612C8010E9411
:1026300092091F910F91FF90EF900895DC01FB012B
:1026400086E001900D928150E1F708959C01FB0115
:1026500080819181A281B381F90180839183A283DA
:10266000B38308950F931F93CF93DF938C01EB01F6
:1026700080E06115710509F081E0F801828388230B
:1026800041F00E94E8052197C60FD71FF801D183BA
:10269000C083DF91CF911F910F910895EF92FF9228
:1026A0000F931F93CF93DF93EC017B018A818823E3
:1026B00011F400E00FC0088119810E94E805C801EB
:1026C000861B970B2AEE8136920710F400E006C0B5
:1026D000082F0195CE01B7010E943213802FDF91A0
:1026E000CF911F910F91FF90EF900895782FE89868
:1026F00065B121E030E040E050E000907D0104C091
:10270000220F331F441F551F0A94D2F7322F822FF6
:102710008095862385B99EBD0DB407FEFDCF4EB5CD
:102720007EBD0DB407FEFDCF2EB5942F80E045B1E0
:10273000342B35B9E89A30E0282B392BC90108959C
:102740000E94761308958091C7059091C8058F70F7
:102750009093C8058093C7058091C7059091C805DF
:1027600088609093C8058093C7058091C7059091B4
:10277000C8050E947613089580911E06873009F0DF
:1027800059C090912206992399F0809121068917CA
:1027900028F480912106873408F44CC084E08093AB
:1027A0001E0681E090E09093CF058093CE059AC0FD
:1027B0008091D2052091210690E0049630E08217A6
:1027C000930724F0809121068734A0F184E0809360
:1027D0001E068091D205833430F081E090E0909322
:1027E000CF058093CE058091D10586FF12C08091E0
:1027F0001D06282F30E0C9018F7190704F9749F066
:102800008091D10590E0822793278F719070892B5A
:1028100089F48091CE059091CF05892B09F056C09F
:10282000E0911B06F0911C06309709F44FC080E040
:10283000099558C080911E06843011F080E00895FB
:102840001092D2058091D205809321068FEF9FEFE1
:102850009093CF058093CE0520911F062223D9F0B7
:102860008227282F22952827022E26952695202577
:10287000022E269520252770082E892F269507944D
:102880002795902D8227069427959025822790934F
:10289000CF058093CE0587E080931E0681E080936C
:1028A000CC0583EA94E90E9476138091C705909144
:1028B000C805886D9093C8058093C7058091C705AA
:1028C0009091C8050E94761380E008958FEF9FEFE6
:1028D000AFEFBFEF8093170690931806A0931906E9
:1028E000B0931A0681E008950F931F93082F10E00C
:1028F000C801966C0E94761398012F7730702F5F75
:102900003F4F442737FD4095542F6BEF72E485E02D
:1029100090E00E94DB1ACA01B901000F012F001FCD
:10292000110B980143E0220F331F4A95E1F7201B5A
:10293000310B2F5F3F4F442737FD4095542F0E94A6
:10294000DB1A93E056954795379527959A95D1F7D9
:102950002D573C4F4F4F5F4FCA01B90124E833E078
:1029600040E050E00E94DB1A2093CD051F910F91AB
:10297000089580911E06843069F080911E0687308C
:1029800059F480912106882339F40E94A31384E02E
:1029900080931E0681E0089580E00895982F86FDBB
:1029A00005C0907E80911D068F71980F9093D10580
:1029B000E0911B06F0911C06309711F081E009951B
:1029C0008FEF9FEF9093CF058093CE058091CE053A
:1029D0009091CF0520911F068227282F2295282726
:1029E000022E269526952025022E26952025277035
:1029F000082E892F269507942795902D82270694D7
:102A00002795902582279093CF058093CE0588E067
:102A100080931E068091C7059091C80588639093A6
:102A2000C8058093C7058091C7059091C8050E948D
:102A300076130895DF92EF92FF920F931F937B011D
:102A40008C01DD2405C0D39416950795F794E7947F
:102A50008FEFE816F1040105110509F0A0F7809148
:102A6000C7059091C80581FF0FC08091C70590915F
:102A7000C8058D7F9093C8058093C7058091C705D1
:102A80009091C8050E947613E114F1040105110527
:102A9000B9F0C701906E3D2D20E0822B932B0E9450
:102AA00076138091C7059091C80582609093C80500
:102AB0008093C7058091C7059091C8050E94761341
:102AC0001F910F91FF90EF90DF900895E89885B1E6
:102AD00021E030E040E050E000907D0104C0220F92
:102AE000331F441F551F0A94D2F7322F922F90950F
:102AF000982395B91EBC0DB407FEFDCF6EB51EBC64
:102B00000DB407FEFDCF2EB5962F80E0622F70E04A
:102B1000682B792B77FF0FC080911E06873059F400
:102B20008CB581608CBD1EBC0DB407FEFDCF2EB5EB
:102B30008CB58E7F8CBD85B1382B35B9E89A7093F2
:102B4000CA056093C9058091C9059091CA0597FF90
:102B5000ECC080911E06873009F082C0809121066A
:102B6000882371F490911F06992351F080912106DA
:102B7000E82FF0E0E053FA4F90838F5F80932106B7
:102B800080912106E82FF0E0E053FA4F20838F5F19
:102B9000809321068091CE059091CF058227282F22
:102BA00022952827022E269526952025022E269549
:102BB00020252770082E892F269507942795902D7C
:102BC000822706942795902582279093CF0580939E
:102BD000CE052091CC05233040F58091210690E070
:102BE0006091CD05029770E00E94C81A892BE9F424
:102BF0008091C9059091CA05E22FF0E090FF04C0D2
:102C0000EB54FE4F808104C0EB54FE4F80818295CF
:102C10008F708093CC05833040F490E0880F991F2B
:102C20000196806A94690E947613909122069923F6
:102C300029F080912106891780F40AC08091D2057D
:102C40002091210690E0049630E0821793072CF043
:102C500080912106873408F468C00E94A31365C0E0
:102C600080911E0687FF2EC0E091D20580911E063E
:102C70008F5F80931E068150ED5FE80FF0E0E05318
:102C8000FA4FE0818091CE059091CF058E27282FB5
:102C900022952827022E269526952025022E269558
:102CA00020252770082E892F269507942795902D8B
:102CB000822706942795902582279093CF058093AD
:102CC000CE052EC080911E068F5F80931E06815018
:102CD000833019F184302CF4882399F08130F9F491
:102CE00016C08B3019F08C30D1F402C0EDE218C060
:102CF000E0911F069091D2058EEF891B80931E06EE
:102D00000FC08091CE059091CF05E82F09C080912A
:102D1000CE059091CF05E92F03C00E94A313EAEAE4
:102D20008E2F90E0986B0E9476138091C905909148
:102D3000CA0596FF03C086E080931E068091C905F0
:102D40009091CA0594FF09C060E070E080E090E0D7
:102D50000E941A1581E08093CB058091C90590915E
:102D6000CA0595FF05C00E94A31384E080931E0648
:102D700008951F93182F4093D20523ED35E0C90124
:102D800050E00E946F01812F0E94CE141F91089580
:102D90000F931F93CF93DF93182FEB01042F02C0E3
:102DA0000E94BC130E94B9148823D1F3812FBE0165
:102DB000402F0E94B916DF91CF911F910F91089576
:102DC00080911D0690E08F719070892B41F080E01A
:102DD00066E675E140E050E00E94C117089580E08A
:102DE0000E94E41708951F9380931D0640931F06C9
:102DF000609320060E94E01610922206E89885E073
:102E000092E89093C8058093C7058091C70590917B
:102E1000C8050E9476138091200690E074E0880F28
:102E2000991F7A95E1F7876C90680E94761380E489
:102E300096EA0E94761386E00E94741482EA94E96E
:102E40000E9476138CEA92EC0E94761310911F0672
:102E5000112341F083E89AEC0E947613812F90E0D1
:102E60009E6C06C08BE89AEC0E9476138DE29EEC75
:102E70000E94761383E894EC0E94761380E598E92B
:102E80000E94761387E79CEC0E94761380E090EE18
:102E90000E94761380E098EC0E94761389E490EC0F
:102EA0000E94761384E080931E06E89A1F9108958D
:102EB00025B181E090E0A0E0B0E000907D0104C089
:102EC000880F991FAA1FBB1F0A94D2F7282B25B978
:102ED00024B1822B84B98AE061E00E94C9068AE0AD
:102EE00061E00E948A068BE061E00E948A068CE025
:102EF00060E00E948A068DE061E00E948A0680E51B
:102F00008CBD8DB581608DBD82E060E00E948A0637
:102F100082E061E00E94C9060895FF920F931F931B
:102F2000182F062FF42E80931D0640931F066093E2
:102F300020060E9458170E94E01682E89AEC0E9430
:102F4000761380E09EEF0E94761385E080931E0644
:102F500083B7817F06C083B7816083BF889583B7BD
:102F60008E7F83BF80911E068530A9F3812F602F4D
:102F70004F2D0E94F31680911D061F910F91FF9017
:102F80000895823000F5E82FF0E0EE0FFF1FED5DB1
:102F9000F94F71836083882319F08130A1F408C050
:102FA000809169008C7F842B80936900E89A089552
:102FB00080916900440F551F440F551F837F842B58
:102FC00080936900E99A0895823080F4882319F08B
:102FD000813021F402C0E89801C0E998E82FF0E0C0
:102FE000EE0FFF1FED5DF94F1182108208951F92C1
:102FF0000F920FB60F9211242F933F934F935F932D
:103000006F937F938F939F93AF93BF93EF93FF93B0
:103010008091230690912406892B29F0E0912306C4
:10302000F09124060995FF91EF91BF91AF919F9187
:103030008F917F916F915F914F913F912F910F9061
:103040000FBE0F901F9018951F920F920FB60F9200
:1030500011242F933F934F935F936F937F938F939D
:103060009F93AF93BF93EF93FF9380912506909129
:103070002606892B29F0E0912506F0912606099570
:10308000FF91EF91BF91AF919F918F917F916F9140
:103090005F914F913F912F910F900FBE0F901F9016
:1030A0001895DF93CF9300D000D000D0CDB7DEB716
:1030B000DE011196E8EBF1E086E001900D9281507F
:1030C000E1F786E191E0EEEBF1E0DF019C011D927A
:1030D00021503040E1F780912706833019F46DE7E5
:1030E00075E003C0BE016F5F7F4F84E490E043E46E
:1030F00050E00E946A0E80912706833039F08EEBF3
:1031000091E0BE016F5F7F4F0E941E1381E08093AC
:10311000E8018093E90186E08093EA01809134061A
:1031200090913506A0913606B09137068093EC0158
:103130009093ED01A093EE01B093EF0180912706EB
:10314000833039F488EE91E00C9661E775E00E94D7
:10315000261384E092E06BE675E00E941E13A4ED56
:10316000B2E0EFE8F1E002C081918D9331E0E53902
:10317000F307D1F790912706992311F083E001C05E
:1031800081E08093DA028DE38093DB0287E0809315
:10319000DC0281E08093DD02AEEDB2E0EBE6F5E02B
:1031A00002C081918D9385E0E137F807D1F78CE07B
:1031B0008093E4028AE08093E502A6EEB2E0EEE7B7
:1031C000F1E002C081918D9321E0E838F207D1F758
:1031D00020EF32E03093390620933806913069F5BC
:1031E00082E38093F00284E08093F102D901129689
:1031F000E1E7F5E002C081918D9335E0E537F30713
:10320000D1F786E38093F60284E08093F70288EF9B
:1032100092E09093390680933806DC01EDE7F5E003
:1032200002C081918D9385E0E138F807D1F78CEFEA
:1032300092E09093390680933806209138063091B9
:103240003906D901E9E8F1E002C081918D9381E06E
:10325000EF38F807D1F7C9010696909339068093A5
:103260003806885E91400E94E20F26960FB6F894C9
:10327000DEBF0FBECDBFCF91DF910895EF92FF92D9
:103280000F931F93CF93DF93EC0180912706823039
:1032900009F4E0C0833030F4882351F1813009F023
:1032A0003DC14AC0833021F0843009F037C1D2C01B
:1032B0000E94E80520912C0630912D0640912E06A3
:1032C00050912F06E0902806F090290600912A06DA
:1032D00010912B062E0D3F1D401F511F62177307C3
:1032E0008407950708F41AC10E94511884E017C09A
:1032F0000E94E80560933406709335068093360685
:103300009093370610927105109272051092730512
:10331000109274050E9451180E94530B81E0809313
:1033200027060E94E805609330067093310680936B
:10333000320690933306F2C0C634D10508F4B2C009
:103340008091E101833409F0ADC08091E8018230C1
:1033500009F0A8C02091EC013091ED014091EE01FF
:103360005091EF018091340690913506A091360678
:10337000B0913706281739074A075B0709F092C052
:103380008091D802853309F08DC08091DA028230B5
:1033900009F088C0A6C0DF011196E180ED012196F9
:1033A00080818630A9F0873030F4813059F0833045
:1033B00009F045C00AC08633E9F18A3361F08333EE
:1033C000F1F509C085E795E037C089E795E034C09D
:1033D00081E895E031C011966C9170E080E090E05A
:1033E000982F872F762F66272981620F711D811DE7
:1033F000911D982F872F762F66272A81620F711DC6
:10340000811D911D982F872F762F66272B81620FA4
:10341000711D811D911D28EE33E040E050E00E94B7
:10342000951A60932C0670932D0680932E06909328
:103430002F0605C08DE795E0BE010E942613FE0110
:10344000EE0DF11DE017F10708F4A5CF0E94511809
:1034500082E065CFC634D10528F18091E101833443
:1034600009F58091E8018230E9F42091EC01309176
:10347000ED014091EE015091EF0180913406909161
:103480003506A0913606B0913706281739074A0746
:103490005B0741F48091D802853321F48091DA02F0
:1034A000853059F10E94E8052091300630913106AF
:1034B0004091320650913306205F384D4F4F5F4F99
:1034C000261737074807590748F028C089E795E0CD
:1034D0000E94D00E83E08093270620C0109227061A
:1034E0001DC081E795E068EF71E00E942613E8EDCA
:1034F000F2E08E0102541E4F4ECF0E944E0B0E94EE
:10350000E805609328067093290680932A06909315
:103510002B06809179058823E9F2D8CFDF91CF91EE
:103520001F910F91FF90EF900895629FD001739FBC
:10353000F001829FE00DF11D649FE00DF11D929F4F
:10354000F00D839FF00D749FF00D659FF00D99278E
:10355000729FB00DE11DF91F639FB00DE11DF91FB2
:10356000BD01CF0111240895AA1BBB1B51E107C067
:10357000AA1FBB1FA617B70710F0A61BB70B881F03
:10358000991F5A95A9F780959095BC01CD01089592
:1035900097FB092E07260AD077FD04D0E5DF06D079
:1035A00000201AF4709561957F4F0895F6F7909575
:1035B00081959F4F0895A1E21A2EAA1BBB1BFD0106
:1035C0000DC0AA1FBB1FEE1FFF1FA217B307E40702
:1035D000F50720F0A21BB30BE40BF50B661F771F5A
:1035E000881F991F1A9469F760957095809590953A
:1035F0009B01AC01BD01CF010895EE0FFF1F0590A7
:0A360000F491E02D0994F894FFCF37
:10360A004D41433A200020002B3300455448206C9A
:10361A00696E6B3A00444F574E0055500020475789
:10362A003A004F4B005741495400D4010000005260
:10363A004631323A207263763D0020736E643D0053
:10364A00204554483A207263763D0052435620681A
:10365A0064723D0020727373693D0045746820549A
:10366A0058206572726F7200C0A800037469692DD0
:10367A003032C0A80018015000F6FF010A02417258
:10368A006475696E6F2D3030003703010306FF63DE
:10369A008253633501000000000D023D09910100CB
:1036AA0000000098083D092E085F083F088808FFB7
:0E36BA00FFFFFFFFFF340256FFFFFFFFFFFF81
:00000001FF
