:100000000C941E010C945D0D0C948A0D0C94460109
:100010000C9498020C943E020C9446010C944601F8
:100020000C9446010C9446010C9446010C94460134
:100030000C9446010C9446010C9446010C94460124
:100040000C9413070C9446010C940A090C9458095B
:100050000C9446010C9446010C9446010C94460104
:100060000C9446010C9446012A2A2A2A2A20525529
:100070004E4E494E473A20636F756E7465725F6EDF
:100080006F64652E696E6F002A2A2A2A2A2053453A
:100090005455503A20636F756E7465725F6E6F646D
:1000A000652E696E6F00206E6F7420666F756E64CA
:1000B00020696E20636F6E6669675F7265616400B8
:1000C000436F6E6669673A206D6F64756C652000DA
:1000D000206E6F7420666F756E6420696E20636F8A
:1000E0006E6669675F777269746500436F6E6669F3
:1000F000673A206D6F64756C652000202043524381
:10010000206D617463686573210020204352432091
:10011000646F6573206E6F74206D61746368210075
:1001200020627974657300206D61782900207673F0
:100130002E200020697320746F6F206C61726765D8
:10014000202800434F4E4649473A20746865206393
:100150006F6E66696720666F72206D6F64756C657F
:1001600020230020636F6E666967732000436F6E03
:100170006669673A200020214E4F4E45212000201D
:1001800074696D6500206574680020726631320004
:10019000206C6364002073657269616C00436F6E4C
:1001A000666967204C6F673A00436F6E6669672027
:1001B0004E65743A2052463132422064697361625E
:1001C0006C656400436F6E6669673A200054696D20
:1001D0006520696E697469616C697A656400000004
:1001E0000000240027002A0000000000250028004D
:1001F0002B00000000002300260029000404040452
:1002000004040404020202020202030303030303C0
:10021000010204081020408001020408102001029D
:10022000040810200000000700020100000304067B
:100230000000000000000000A201C40A11241FBE3B
:10024000CFEFD8E0DEBFCDBF11E0A0E0B1E0EEE639
:10025000FCE102C005900D92AA37B107D9F713E06F
:10026000AAE7B1E001C01D92AC38B107E1F712E096
:10027000CCE3D2E004C02297FE010E94FA0DC833FD
:10028000D107C9F70E941A0B0C94350E0C9400008C
:10029000A0E0B0E0EEE4F1E00C94080E7C01EB018C
:1002A0008A01690109C0CE012196F6010995F7017D
:1002B00081937F010150104001151105A1F7CDB7C1
:1002C000DEB7E8E00C94240EA0E0B0E0EAE6F1E04E
:1002D0000C94080EEC017B018A01690109C0CE0172
:1002E0002196F70161917F01F601099501501040B7
:1002F00001151105A1F7CDB7DEB7E8E00C94240E87
:10030000DF92EF92FF920F931F93D72E7A018C0109
:10031000FA010995C80101966D2DF70109951F9104
:100320000F91FF90EF90DF9008959C01F999FECF17
:100330001FBA32BD21BD60BD0FB6F894FA9AF99A82
:100340000FBE08958AE791E064ED41E00E94AD069A
:1003500088E192E00E94D7068DE192E00E945C0560
:1003600010926C0210926F028091350190913601CB
:10037000009719F480E090E001C0049690933A0150
:100380008093390108950F931F938AE791E00E94AB
:100390003006882329F080E090E060E00E946B0343
:1003A0008DE692E060E17EE00E94080D882309F46A
:1003B0004EC0809135019091360160E071E00E945D
:1003C000D60C8091350190913601609170024AE01F
:1003D00050E00E94520C809135019091360166E008
:1003E00071E00E94D60C00913501109136018FE02A
:1003F0000E94B608BC01C8014AE050E00E94A40C6B
:1004000080913501909136016CE071E00E94D60C2C
:100410008091350190913601609171024AE050E07F
:100420000E94520C809135019091360166E071E096
:100430000E94D60C009135011091360183E00E9494
:10044000B608BC01C8014AE050E00E94B70C0E9407
:10045000300D823081F08AE692E060E67AEE0E940A
:10046000080D882341F0809135019091360163E1B8
:1004700071E00E94D90C1F910F9108951F920F9265
:100480000FB60F921124EF92FF920F931F932F93A9
:100490003F934F935F936F937F938F939F93AF930C
:1004A000BF93EF93FF9383E00E94B608682F85E027
:1004B0000E9462080E945B077B018C01809176029A
:1004C00090917702A0917802B0917902A8019701EA
:1004D000281B390B4A0B5B0B2A30310541055105AE
:1004E00090F083E00E94B608882329F4809171027D
:1004F0008F5F80937102E0927602F0927702009310
:10050000780210937902FF91EF91BF91AF919F9183
:100510008F917F916F915F914F913F912F911F919B
:100520000F91FF90EF900F900FBE0F901F901895B6
:100530001F920F920FB60F921124EF92FF920F931A
:100540001F932F933F934F935F936F937F938F935B
:100550009F93AF93BF93EF93FF930E945B077B0141
:100560008C018091720290917302A0917402B091FB
:100570007502A8019701281B390B4A0B5B0B2A3027
:1005800031054105510590F08FE00E94B60888239F
:1005900029F4809170028F5F80937002E092720262
:1005A000F09273020093740210937502FF91EF9121
:1005B000BF91AF919F918F917F916F915F914F917B
:1005C0003F912F911F910F91FF90EF900F900FBED1
:1005D0000F901F90189583E060E00E94230883E04D
:1005E00061E00E9462088FE060E00E9423088FE0D3
:1005F00061E00E94620885E061E00E94230885E0D6
:1006000061E00E946208F89486E08093680082E0CE
:1006100080936C0088E080936D00789408950F9328
:100620001F9302E113E0C80140E051EE60E070E08A
:100630000E949309C80168E870E00E949E0B80E266
:1006400090E06DE070EF45E951E00E94800187E3A2
:1006500091E00E9404040E94EB0268EC70E080E0EC
:1006600090E00E948F0785E060E00E94620868ECDD
:1006700070E080E090E00E948F0785E061E00E94DA
:10068000620868EC70E080E090E00E948F0785E0EF
:1006900060E00E946208809135019091360168E621
:1006A00070E00E949E0B1F910F9108959C01F99993
:1006B000FECF32BD21BDF89A80B508959C01F9990D
:1006C000FECF1FBA32BD21BD60BD0FB6F894FA9AB5
:1006D000F99A0FBE0895CF93DF93EC01462F009750
:1006E00021F440913603C7E3D3E04423F9F0388185
:1006F00020917C02E0917A02F0917B0290E014C09C
:10070000A191B19112968C911297831761F4ED919A
:10071000FC911197219641500280F381E02DCD018B
:10072000BE01099503C09F5F921750F3DF91CF91EF
:1007300008951F93182F50917C02A0917A02B091D6
:100740007B0220E230E090E047C0ED91FD91828194
:100750004381811709F03DC0C90150E02EE533E027
:100760000E94640140917D0250917E02FA0132970D
:1007700020E030E06FEF7FEF21C0F999FECF205EDF
:100780003F4F32BD21BDF89A80B56827862F8295EC
:100790008627082E869586958025082E86958025A5
:1007A0008770062E672F869507948795702D68278A
:1007B00006948795702568272F5130402E173F07E4
:1007C00008F4DBCFCA014E964EE553E00E9480014B
:1007D00019C0240F311D9F5F951708F4B6CF82E131
:1007E00093E06BEE70E00E94530B82E193E0612F87
:1007F0004AE050E00E94520C82E193E060ED70E02C
:100800000E949E0B1F9108958F929F92AF92BF926C
:10081000DF92EF92FF920F931F93DF93CF93CDB7A9
:10082000DEB7C054D0400FB6F894DEBF0FBECDBFC8
:100830005C0120E0322F3F5FE22FF0E0EE0FFF1F60
:10084000EA0DFB1D80819181892B11F0232FF2CFBE
:1008500020937C02B0927B02A0927A0282E193E024
:100860006DE671E00E94530B82E193E060917C029F
:100870004AE050E00E94520C82E193E063E671E0AE
:100880000E94530B10927E0210927D02EE244EC005
:100890000E2D10E0F801EE0FFF1FEA0DFB1D019079
:1008A000F081E02DF38080E48F15A8F582E193E0DC
:1008B0000E947E0B82E193E063E471E00E94530B9F
:1008C0000F5F1F4F82E193E0B8014AE050E00E94C1
:1008D000A40C82E193E063E371E00E94530B82E198
:1008E00093E06F2D4AE050E00E94520C82E193E0C9
:1008F0006DE271E00E94530B82E193E060E470E0EE
:100900004AE050E00E94A40C82E193E067E271E0CB
:100910000E949E0B0AC080917D0290917E028F0DF5
:10092000911D90937E0280937D02E39480917C02DE
:10093000E81608F4ADCF60917D0270917E026E5F83
:100940007F4F70937E0260937D0282E193E04AE0E4
:1009500050E00E94410C82E193E060E271E00E946D
:100960009E0B60917D0270917E0220E030E04FEF9F
:100970005FEF21C0F999FECF205E3F4F32BD21BD10
:10098000F89A80B54827842F82958427082E86956B
:1009900086958025082E869580258770042E452F04
:1009A000869507948795502D48270694879550255E
:1009B00048272F5130402617370708F4DBCF452B47
:1009C00001F182E193E06AE071E00E949E0B10E089
:1009D00013C0E12FF0E0EE0FFF1FEA0DFB1DA08119
:1009E000B181ED91FC9111970190F081E02DCD0145
:1009F00060E070E009951F5F80917C02181748F352
:100A000037C082E193E06BEF70E00E949E0B90E2B2
:100A1000E92EF12CDD244E010894811C911C24C088
:100A20000D2D10E0000F111F0A0D1B1DD801ED91B7
:100A3000FC914381C401B70150E026E533E00E94F8
:100A40004801F801A081B181ED91FC9111970190CD
:100A5000F081E02DCD01B4010995D801ED91FC9113
:100A60008381E80EF11CD39480917C02D816C0F2E9
:100A7000C05CDF4F0FB6F894DEBF0FBECDBFCF9185
:100A8000DF911F910F91FF90EF90DF90BF90AF909B
:100A90009F908F900895089508950895FC01E45B58
:100AA000FF4F1082EC54F04082E0868381E0878320
:100AB00080E08160808708950F931F938C01FC0173
:100AC0001382128287E491E0918380830E9695834E
:100AD0008483C8010E944E05F80181858160817E72
:100AE00081871F910F91089504970E9478050895BA
:100AF000CF93DF93EC01FB01BC01685F7F4F309720
:100B000019F08081888705C08985888782E00E94E6
:100B1000990382E193E06DE971E00E94530B8885AF
:100B200080FF06C082E193E065E971E00E94530B0B
:100B3000888581FF06C082E193E060E971E00E9450
:100B4000530B888582FF06C082E193E06AE871E07A
:100B50000E94530B888583FF06C082E193E065E81D
:100B600071E00E94530B888584FF06C082E193E008
:100B70006FE771E00E94530B8885882331F482E18E
:100B800093E066E771E00E94530B82E193E00E94DC
:100B90007E0BDF91CF9108950F931F93CF93DF9337
:100BA000EC018C01045B1F4FF8018081FE01E80F0E
:100BB000F11D1286888580FF16C0BE01665F7F4FDB
:100BC00082E193E00E94D60CF8018081882359F0DD
:100BD000FE01E80FF11D81858A3029F482E193E05E
:100BE0006DE00E94760B888583FF0EC0E881F98155
:100BF000BE01665F7F4FDE01A45BBF4F0480F581BD
:100C0000E02DCE014C910995C45BDF4F1882DF9136
:100C1000CF911F910F9108951F93CF93DF93EC0114
:100C2000162FC45BDF4F8881CC54D040813418F03C
:100C3000CE010E94CC05DE01A45BBF4F8C91FE016A
:100C4000E80FF11D12878F5F8C931A3019F4CE01D3
:100C50000E94CC0581E090E0DF91CF911F91089533
:100C600080E0089508956093800282E193E069EA4C
:100C700071E00E949E0B0895CF92DF92EF92FF9257
:100C80000F931F93DF93CF93CDB7DEB77C01CDB623
:100C9000DEB6FB018B016115710509F180818E3192
:100CA000F1F082E193E064EC71E00E94530B82E189
:100CB00093E0F80160814AE050E00E94520C82E12A
:100CC00093E060E271E00E94D60CF801618182E15C
:100CD00093E070E04AE050E00E94B70C19C000D0E9
:100CE00000D00DB71EB70F5F1F4F8EE1EDB7FEB7F7
:100CF0008183F80111820E9469072AEA35E52627D7
:100D00003727F8013383228381E0B8010E949903D9
:100D1000F801608160938002818180937F0284E981
:100D200090E0E80EF91E82819381F7019183808320
:100D30008CE69FEFE80EF91EC7010E9433060FB63E
:100D4000F894DEBE0FBECDBECF91DF911F910F9103
:100D5000FF90EF90DF90CF900895CF93DF93EC0159
:100D60008DE591E099838883C656DF4F6993488368
:100D7000CB59D0400E945B07FE01EA56FF4F6083CB
:100D8000718382839383611571058105910541F417
:100D900081E090E0A0E0B0E080839183A283B38300
:100DA00081E08A8384E08B83DF91CF910895FC01F9
:100DB00085E691E091838083148283E0828381E0E1
:100DC00083830895FC01DB016115710519F08C9195
:100DD000848305C0349683E0BF010E94990382E1B9
:100DE00093E062E271E00E94D90C08951F93CF93C3
:100DF000DF93EB01443098F00E94300D182F68818A
:100E000079818A819B810E94330D112341F4809165
:100E10003501909136016DEC71E00E949E0BDF91DF
:100E2000CF911F9108951F920F920FB60F92112428
:100E30002F933F938F939F93AF93BF93809185029E
:100E400090918602A0918702B09188023091890228
:100E50000196A11DB11D232F2D5F2D3720F02D5799
:100E60000196A11DB11D2093890280938502909364
:100E70008602A0938702B0938802809181029091AC
:100E80008202A0918302B09184020196A11DB11D3E
:100E90008093810290938202A0938302B093840294
:100EA000BF91AF919F918F913F912F910F900FBE66
:100EB0000F901F9018958FB7F8942091850230916C
:100EC000860240918702509188028FBFB901CA0102
:100ED00008959FB7F8942091810230918202409149
:100EE00083025091840286B5A89B06C08F3F21F0F3
:100EF0002F5F3F4F4F4F5F4F9FBF542F432F322FD6
:100F00002227280F311D411D511D82E0220F331F62
:100F1000441F551F8A95D1F7B901CA0108959B0155
:100F2000AC017FB7F8948091810290918202A091E8
:100F30008302B091840266B5A89B05C06F3F19F08B
:100F40000196A11DB11D7FBFBA2FA92F982F882709
:100F5000860F911DA11DB11D62E0880F991FAA1F68
:100F6000BB1F6A95D1F7BC012DC0FFB7F8948091E3
:100F7000810290918202A0918302B0918402E6B531
:100F8000A89B05C0EF3F19F00196A11DB11DFFBF41
:100F9000BA2FA92F982F88278E0F911DA11DB11D43
:100FA000E2E0880F991FAA1FBB1FEA95D1F7861BA5
:100FB000970B885E9340C8F221503040404050402B
:100FC00068517C4F211531054105510571F6089591
:100FD000789484B5826084BD84B5816084BD85B514
:100FE000826085BD85B5816085BDEEE6F0E08081DB
:100FF00081608083E1E8F0E01082808182608083FC
:10100000808181608083E0E8F0E08081816080837E
:10101000E1EBF0E0808184608083E0EBF0E08081B0
:1010200081608083EAE7F0E0808184608083808152
:1010300082608083808181608083808180688083FA
:101040001092C1000895CF93DF93482F50E0CA015A
:10105000805F9D4FFC01349144505E4FFA018491B2
:10106000882369F190E0880F991FFC01E252FE4F3E
:10107000A591B491FC01E851FE4FC591D49166232E
:1010800051F42FB7F8948C91932F909589238C93DA
:10109000888189230BC0623061F42FB7F8948C915A
:1010A000932F909589238C938881832B88832FBFDE
:1010B00006C09FB7F8948C91832B8C939FBFDF91D0
:1010C000CF910895482F50E0CA018C5D9D4FFC01DF
:1010D0002491CA01805F9D4FFC01949144505E4F62
:1010E000FA013491332309F440C0222351F1233013
:1010F00071F0243028F42130A1F0223011F514C011
:101100002630B1F02730C1F02430D9F404C08091EA
:1011100080008F7703C0809180008F7D8093800056
:1011200010C084B58F7702C084B58F7D84BD09C09F
:101130008091B0008F7703C08091B0008F7D809345
:10114000B000E32FF0E0EE0FFF1FE851FE4FA59136
:10115000B4912FB7F894662321F48C91909589234C
:1011600002C08C91892B8C932FBF0895682F70E05B
:10117000CB018C5D9D4FFC012491CB01805F9D4F85
:10118000FC01449164507E4FFB019491992319F422
:1011900020E030E03CC0222351F1233071F02430B4
:1011A00028F42130A1F0223011F514C02630B1F01E
:1011B0002730C1F02430D9F404C0809180008F77AB
:1011C00003C0809180008F7D8093800010C084B523
:1011D0008F7702C084B58F7D84BD09C08091B00037
:1011E0008F7703C08091B0008F7D8093B000892FEE
:1011F00090E0880F991F8E509E4FFC01A591B491ED
:101200008C9120E030E0842311F021E030E0C9012E
:10121000089508951F920F920FB60F9211242F93E5
:101220003F934F938F939F93EF93FF938091C000D1
:1012300082FD1DC04091C6002091CA023091CB02B0
:101240002F5F3F4F2F7330708091CC029091CD0271
:101250002817390771F0E091CA02F091CB02E657E6
:10126000FD4F40833093CB022093CA0202C080918D
:10127000C600FF91EF919F918F914F913F912F91D8
:101280000F900FBE0F901F901895E0911E03F091E4
:101290001F03E05CFF4F8191919120813181821B7E
:1012A000930B8F739070892B11F00E940909089598
:1012B0001F920F920FB60F9211242F933F938F938B
:1012C0009F93EF93FF9320910E0330910F03809132
:1012D0001003909111032817390731F48091C10050
:1012E0008F7D8093C10014C0E0911003F091110331
:1012F000E253FD4F208180911003909111030196DC
:101300008F73907090931103809310032093C60005
:10131000FF91EF919F918F913F912F910F900FBE71
:101320000F901F901895AF92BF92DF92EF92FF92AD
:101330000F931F93CF93DF93EC017A018B01DD2490
:10134000403081EE580780E0680780E0780711F0B0
:10135000DD24D39491E0A92EB12CEC89FD89DD2008
:1013600069F0C50108A002C0880F991F0A94E2F72E
:10137000808360E079E08DE390E005C0108260E852
:1013800074E88EE190E0A80197010E94D60D2150EB
:10139000304040405040569547953795279580E11D
:1013A0002030380720F0DD2011F0DD24D6CFE88989
:1013B000F9893083EA89FB89208319A2EE89FF89A4
:1013C000408121E030E0C9010C8C02C0880F991FD8
:1013D0000A94E2F7482B4083EE89FF894081C901D6
:1013E0000D8C02C0880F991F0A94E2F7482B4083A6
:1013F000EE89FF894081C9010E8C02C0880F991FB8
:101400000A94E2F7482B4083EE89FF8980810F8C94
:1014100002C0220F331F0A94E2F72095282320836D
:10142000DF91CF911F910F91FF90EF90DF90BF90D0
:10143000AF900895DC011C96ED91FC911D97E05C46
:10144000FF4F2191319180819181281B390B2F739E
:101450003070C9010895DC011C96ED91FC911D9737
:10146000E05CFF4F20813181E054F040DF01AE5B52
:10147000BF4F8D919C9111972817390719F42FEFC1
:101480003FEF07C08D919C91E80FF91F8081282FB5
:1014900030E0C9010895DC011C96ED91FC911D9787
:1014A000E05CFF4F20813181E054F040DF01AE5B12
:1014B000BF4F8D919C9111972817390719F42FEF81
:1014C0003FEF10C08D919C911197E80FF91F20817B
:1014D0008D919C91119701968F73907011969C93AA
:1014E0008E9330E0C9010895DC0191968C9191971B
:1014F000882339F05496ED91FC915597808186FFB1
:10150000F9CF91961C920895CF93DF93EC01EE856D
:10151000FF85E05CFF4F20813181E054F0402F5F78
:101520003F4F2F733070DF01AE5BBF4F8D919C91A9
:10153000119728173907D1F3E05CFF4F8081918123
:10154000E054F040E80FF91F6083EE85FF85E05C12
:10155000FF4F31832083EE89FF89208181E090E075
:101560000F8C02C0880F991F0A94E2F7282B208362
:1015700081E089A3EC89FD8980818064808381E09A
:1015800090E0DF91CF91089510921503109214030B
:1015900088EE93E0A0E0B0E08093160390931703E9
:1015A000A0931803B09319038DE691E09093130371
:1015B000809312038AE892E090931F0380931E03A6
:1015C0008EEC92E0909321038093200385EC90E0D1
:1015D000909323038093220384EC90E0909325035F
:1015E0008093240380EC90E090932703809326035C
:1015F00081EC90E0909329038093280382EC90E0A3
:1016000090932B0380932A0386EC90E090932D0314
:1016100080932C0384E080932E0383E080932F0338
:1016200087E08093300385E08093310381E08093ED
:1016300032030895CF93DF930E94E8070E940F03BF
:10164000C5E4D9E00E94C3012097E1F30E94450957
:10165000F9CFCF92DF92EF92FF920F931F93CF9328
:10166000DF937C016B018A01C0E0D0E00FC0D6019E
:101670006D916D01D701ED91FC910190F081E02D0C
:10168000C7010995C80FD91F015010400115110558
:1016900071F7CE01DF91CF911F910F91FF90EF90E5
:1016A000DF90CF900895EF92FF920F931F93CF9307
:1016B000DF937C018B01C0E0D0E0F8010F5F1F4F8A
:1016C0006491662359F0D701ED91FC910190F0816E
:1016D000E02DC7010995C80FD91FEFCFCE01DF91CB
:1016E000CF911F910F91FF90EF900895DC01ED9144
:1016F000FC910190F081E02D09950895EF92FF9201
:101700000F931F938C01DC01ED91FC910190F0810E
:10171000E02D6DE009957C01D801ED91FC910190DF
:10172000F081E02DC8016AE009959C012E0D3F1D56
:10173000C9011F910F91FF90EF900895EF92FF92D2
:101740000F931F937C010E94530B8C01C7010E94D1
:101750007E0B9C01200F311FC9011F910F91FF903B
:10176000EF900895CF93DF93EC016115710519F4A3
:1017700020E030E00FC0DB010D900020E9F7119769
:10178000A61BB70BE881F9810280F381E02DAD0142
:1017900009959C01C901DF91CF9108954F925F9205
:1017A0007F928F929F92AF92BF92CF92DF92EF92F1
:1017B000FF920F931F93DF93CF93CDB7DEB7A1971F
:1017C0000FB6F894DEBF0FBECDBF2C01742ECB0137
:1017D000223008F42AE019A231E2C32ED12CCC0E1B
:1017E000DD1E822E9924AA24BB24672D752FA50106
:1017F00094010E94D60D79018A01C801B701A501A3
:1018000094010E94B70D472D461B0894C108D108CA
:101810004A3010F4405D01C0495CF6014083E11498
:10182000F1040105110521F07E2C5F2DC801DDCFEB
:10183000C201B6010E94B20BA1960FB6F894DEBFAA
:101840000FBECDBFCF91DF911F910F91FF90EF9011
:10185000DF90CF90BF90AF909F908F907F905F90E0
:101860004F900895DC012115310541F4ED91FC9173
:101870000190F081E02D642F099508950E94CE0B10
:101880000895EF92FF920F931F939A017B0100E05E
:1018900010E0B801A7010E94320C1F910F91FF9038
:1018A000EF900895EF92FF920F931F939A01E62E07
:1018B000FF2400E010E0B801A7010E94320C1F9144
:1018C0000F91FF90EF900895CF92DF92EF92FF92E9
:1018D0000F931F93CF93DF93EC016A017B012115D6
:1018E000310541F4E881F9810190F081E02D642F08
:1018F00009951FC02A303105D1F477FF17C0E88160
:10190000F9810190F081E02D6DE209958C01442769
:101910005527BA014C195D096E097F09CE012AE0ED
:101920000E94CE0B9801280F391F04C02AE00E94A4
:10193000CE0B9C01C901DF91CF911F910F91FF90B8
:10194000EF90DF90CF900895EF92FF920F931F9347
:101950007B019A010027F7FC0095102FB801A70121
:101960000E94640C1F910F91FF90EF900895CF9209
:10197000DF92EF92FF920F931F936C017B019A010C
:101980000027F7FC0095102FB801A7010E94640CF6
:101990008C01C6010E947E0B080F191FC8011F9100
:1019A0000F91FF90EF90DF90CF9008950E94B20BBF
:1019B0000895EF92FF920F931F937C010E94B20B48
:1019C0008C01C7010E947E0B080F191FC8011F91CF
:1019D0000F91FF90EF9008950F931F93CF93DF9394
:1019E0008C01EB0180E06115710509F081E0F801DF
:1019F0008283882341F00E945B072197C60FD71F7F
:101A0000F801D183C083DF91CF911F910F91089589
:101A1000EF92FF920F931F93CF93DF93EC017B0123
:101A20008A81882311F400E00FC0088119810E9487
:101A30005B07C801861B970B2AEE8136920710F4CC
:101A400000E006C0082F0195CE01B7010E94EC0C02
:101A5000802FDF91CF911F910F91FF90EF9008950C
:101A600080918303089560937B0370937C0380933C
:101A70007D0390937E0320913F013091400140917E
:101A8000410150914201260F371F481F591F2093D3
:101A90007F0330938003409381035093820382E05D
:101AA000809383030E945B07609384037093850394
:101AB000809386039093870308951F920F920FB629
:101AC0000F9211242F933F934F935F936F937F93C4
:101AD0008F939F93AF93BF93EF93FF93809188036E
:101AE00090918903892B29F0E0918803F091890373
:101AF0000995FF91EF91BF91AF919F918F917F9148
:101B00006F915F914F913F912F910F900FBE0F906A
:101B10001F9018951F920F920FB60F9211242F93BA
:101B20003F934F935F936F937F938F939F93AF9365
:101B3000BF93EF93FF9380918A0390918B03892B3E
:101B400029F0E0918A03F0918B030995FF91EF91C1
:101B5000BF91AF919F918F917F916F915F914F91C5
:101B60003F912F910F900FBE0F901F901895629F7D
:101B7000D001739FF001829FE00DF11D649FE00D85
:101B8000F11D929FF00D839FF00D749FF00D659FE6
:101B9000F00D9927729FB00DE11DF91F639FB00DE5
:101BA000E11DF91FBD01CF0111240895A1E21A2EF4
:101BB000AA1BBB1BFD010DC0AA1FBB1FEE1FFF1FF1
:101BC000A217B307E407F50720F0A21BB30BE40B41
:101BD000F50B661F771F881F991F1A9469F7609588
:101BE0007095809590959B01AC01BD01CF01089542
:101BF000EE0FFF1F0590F491E02D09942F923F9274
:101C00004F925F926F927F928F929F92AF92BF920C
:101C1000CF92DF92EF92FF920F931F93CF93DF93B8
:101C2000CDB7DEB7CA1BDB0B0FB6F894DEBF0FBE15
:101C3000CDBF09942A88398848885F846E847D8462
:101C40008C849B84AA84B984C884DF80EE80FD8064
:101C50000C811B81AA81B981CE0FD11D0FB6F894DA
:0E1C6000DEBF0FBECDBFED010895F894FFCF9B
:101C6E00637472313A002070696E3A0020637472A8
:101C7E00323A0054696D65206E6F7420736574007E
:101C8E0020004E657454696D6520636F6E666967DA
:101C9E0075726564001D027A010000180200002CA6
:101CAE00010000000000000C06290B4B0578054DC5
:101CBE0005FCFF000074054C05000000003C0632D8
:101CCE000600000000E206F60600000000840A2965
:0A1CDE000B1A0A4B0A2B0A740A00C5
:00000001FF
