:100000000C94E3000C94421B0C946F1B0C940B019A
:100010000C940B010C940B010C940B010C940B0130
:100020000C940B010C940B010C940B010C940B0120
:100030000C940B010C940B010C940B010C940B0110
:100040000C947F0E0C940B010C94740F0C94C20F43
:100050000C940B010C940B010C940B010C940B01F0
:100060000C940B010C940B01005EBCE2613FDD833C
:10007000C29C7E20A3FD1F419DC3217FFCA2401E88
:100080005F01E3BD3E6082DC237D9FC1421CFEA078
:10009000E1BF5D0380DE3C62BEE0025CDF81633D68
:1000A0007C22C09E1D43A1FF4618FAA427799BC558
:1000B00084DA3866E5BB5907DB856739BAE4065848
:1000C0001947A5FB7826C49A653BD987045AB8E638
:1000D000A7F91B45C6987A24F8A6441A99C7257B28
:1000E0003A6486D85B05E7B98CD2306EEDB3510F18
:1000F0004E10F2AC2F7193CD114FADF3702ECC9208
:10010000D38D6F31B2EC0E50AFF1134DCE90722CF7
:100110006D33D18F0C52B0EE326C8ED0530DEFB1E7
:10012000F0AE4C1291CF2D73CA947628ABF51749D7
:100130000856B4EA6937D58B5709EBB536688AD4C7
:1001400095CB2977F4AA4816E9B7550B88D6346AB7
:100150002B7597C94A14F6A8742AC896154BA9F7A7
:10016000B6E80A54D7896B35000000002400270048
:100170002A0000000000250028002B0000000000DD
:1001800023002600290004040404040404040202D9
:100190000202020203030303030301020408102006
:1001A0004080010204081020010204081020000011
:1001B0000007000201000003040600000000000028
:1001C0000000D6022E1111241FBECFEFD8E0DEBFF3
:1001D000CDBF13E0A0E0B1E0EAEEFDE302C0059080
:1001E0000D92A430B107D9F715E0A4E0B3E001C047
:1001F0001D92A538B107E1F711E0C6ECD1E004C0CB
:100200002297FE010E94B81EC23CD107C9F70E9486
:1002100084110C94F31E0C940000EF92FF920F9344
:10022000DF93CF93CDB7DEB760970FB6F894DEBFFC
:100230000FBECDBFA82F002309F461C07E01089432
:10024000E11CF11C88E0F70111928A95E9F72983F6
:100250003A834B835C836D837E83AF83988780E290
:10026000801BE82FFF27E7FDF0954D815E816F81B0
:100270007885181684F01D861E861F86188A8827A2
:1002800099278E1B9F0B04C07695679557954795C8
:100290008A95D2F728C0202F332727FD3095DB0120
:1002A000CA01022E04C0B695A795979587950A9422
:1002B000D2F78D879E87AF87B88B04C0440F551F38
:1002C000661F771FEA95D2F789819A81AB81BC813D
:1002D00004C0B695A795979587952A95D2F7482B90
:1002E000592B6A2B7B2B49875A876B877C872985FB
:1002F0003A854B855C856D857E85AF8598898A2F8B
:1003000060960FB6F894DEBF0FBECDBFCF91DF91E0
:100310000F91FF90EF9008950F931F93CF93DF936A
:10032000689F8001699F100D789F100D1124C801EE
:100330000E94A801EC01009729F060E070E0A8019C
:100340000E94B302CE01DF91CF911F910F910895CA
:10035000CF93DF93BC018230910510F462E070E02E
:10036000A0918305B0918405ED01E0E0F0E040E06C
:1003700050E021C0888199818617970769F48A81A6
:100380009B81309719F09383828304C090938405F6
:1003900080938305FE0134C06817790738F441154E
:1003A000510519F08417950708F4AC01FE018A8104
:1003B0009B819C01E9012097E9F641155105A9F1BE
:1003C000CA01861B970B049708F4BA01E0E0F0E03D
:1003D0002AC08D919C91119784179507F9F46417A1
:1003E000750781F412968D919C911397309719F0AF
:1003F0009383828304C09093840580938305FD01D9
:1004000032964CC0CA01861B970BFD01E80FF91FFD
:100410006193719302978D939C9340C0FD018281FB
:1004200093819C01D9011097A1F68091810590914B
:100430008205892B41F480919602909197029093C6
:10044000820580938105409198025091990241154F
:10045000510541F44DB75EB7809194029091950299
:10046000481B590B2091810530918205CA01821BDE
:10047000930B8617970780F0AB014E5F5F4F841791
:10048000950750F0420F531F50938205409381050A
:10049000F9016193719302C0E0E0F0E0CF01DF91D8
:1004A000CF910895CF93DF93009709F450C0EC01EA
:1004B00022971B821A82A0918305B0918405109720
:1004C00009F140E050E0AC17BD0708F1BB83AA83F7
:1004D000FE0121913191E20FF31FAE17BF0779F4AE
:1004E0008D919C911197280F391F2E5F3F4F3983B3
:1004F000288312968D919C9113979B838A83411533
:10050000510571F4D0938405C093830520C01296E1
:100510008D919C911397AD01009711F0DC01D3CF21
:10052000FA01D383C28321913191E20FF31FCE17D9
:10053000DF0769F488819981280F391F2E5F3F4FAB
:10054000FA01318320838A819B8193838283DF91A7
:10055000CF910895FB01DC0102C001900D92415042
:100560005040D8F70895DC0101C06D9341505040D0
:10057000E0F70895A0E0B0E0E0ECF2E00C94C61ED5
:100580007C01EB018A01690109C0CE012196F601C7
:100590000995F70181937F01015010400115110564
:1005A000A1F7CDB7DEB7E8E00C94E21E84E093E05B
:1005B00064ED41E00E94C60582EE93E00E9441088E
:1005C00085EE93E00E94F70410922C0410922F0401
:1005D0001092320483E394E064E042E00E94590EFA
:1005E000089584E093E00E944E07882311F00E9452
:1005F0005C0383E394E064E10E940C0B80E394E0ED
:1006000060E177E20E945316882361F081EF94E065
:1006100060E071E00E94F61383E394E065EE73E01E
:100620000E94450A0E94731A823071F08AE294E0B7
:1006300060E67AEE0E945316882331F085EE93E04F
:1006400061E171E00E94F6130895EF92FF920F931B
:100650001F9301EF14E0C80140E051EE60E070E04C
:100660000E94FD0F8EE1E82E81E0F82EC801B7014F
:100670000E94F6138AE992E00E949E0305EE13E0C1
:10068000C801B7010E94F61383E394E0B8010E9409
:100690006E0C8AE294E068EE73E00E9437161F91B8
:1006A0000F91FF90EF9008959C01F999FECF32BD14
:1006B00021BDF89A80B508950F931F93CF93DF93D0
:1006C00080911E058823A9F100911F0510E02DC01F
:1006D000C12FD0E0CC0FDD1FE0915904F0915A04F6
:1006E000EC0FFD1FA081B181ED91FC91119701905C
:1006F000F081E02DCD0109958017B1F4E091590406
:10070000F0915A04EC0FFD1FA081B18140911E05AC
:10071000ED91FC91119741500680F781E02DCD01BC
:1007200060E275E0099505C01F5F80915B041817B2
:1007300078F2DF91CF911F910F910895AF92BF9200
:10074000CF92DF92EF92FF920F931F93DF93CF939D
:10075000CDB7DEB7C054D0400FB6F894DEBF0FBEA1
:10076000CDBF6C0120E0322F3F5FE22FF0E0EE0FB3
:10077000FF1FEC0DFD1D80819181892B11F0232F2E
:10078000F2CF20935B04D0925A04C092590481EFB7
:1007900094E06DE371E00E940C1381EF94E06091AE
:1007A0005B044AE050E00E94891281EF94E066E425
:1007B00071E00E94F61310925D0410925C04EE2426
:1007C00051C00E2D10E0F801EE0FFF1FEC0DFD1DC6
:1007D000A081B181ED91FC9111970280F381E02D10
:1007E000CD010995F82E80E48F1588F581EF94E00E
:1007F0006FE471E00E940C130F5F1F4F81EF94E0D4
:10080000B8014AE050E00E94F91281EF94E067E7F6
:1008100071E00E940C1381EF94E06F2D4AE050E0EC
:100820000E94891281EF94E060E971E00E940C134C
:1008300081EF94E060E470E04AE050E00E94F91239
:1008400081EF94E066E971E00E94F6130AC080919E
:100850005C0490915D048F0D911D90935D048093D5
:100860005C04E39480915B04E81608F4AACF8091BD
:100870005C0490915D04029690935D0480935C0407
:1008800081EF94E06CE971E00E940C1360915C04CC
:1008900070915D0481EF94E04AE050E00E946C1298
:1008A00060915C0470915D044FEF5FEF20E030E0F9
:1008B00021C0F999FECF205E3F4F32BD21BDF89A8D
:1008C00080B54827842F82958427082E86958695A3
:1008D0008025082E869580258770042E452F8695C5
:1008E00007948795502D48270694879550254827CB
:1008F0002F5130402617370708F4DBCF452B01F185
:1009000081EF94E065EA71E00E94F61310E013C0F5
:10091000E12FF0E0EE0FFF1FEC0DFD1DA081B18176
:10092000ED91FC9111970480F581E02DCD0160E0FF
:1009300070E009951F5F80915B04181748F337C07A
:1009400081EF94E06BEB71E00E94F613FF245E01EF
:100950000894A11CB11C27C00F2D10E0000F111F1F
:100960000C0D1D1DF801A081B181ED91FC91119735
:100970000280F381E02DCD010995482FC50160E289
:1009800070E050E024E533E00E94BA02F801A08153
:10099000B181ED91FC9111970480F581E02DCD019D
:1009A000B5010995F39480915B04F816A8F2C05C38
:1009B000DF4F0FB6F894DEBF0FBECDBFCF91DF91F2
:1009C0001F910F91FF90EF90DF90CF90BF90AF906D
:1009D000089504970E94ED04089581E00895049716
:1009E0000E94F304089581E0089508950895FC019C
:1009F000138212828DEA92E09183808340969583E0
:100A00008483EC5BFF4F1082E454F04080E081600F
:100A10008683089504970E940E050895CF93DF936F
:100A2000FC01EB016115710581F08881868381EFFE
:100A300094E06AEC71E00E940C1381EF94E068810D
:100A400040E150E00E949B1209C080E081608683F3
:100A500081EF94E069ED71E00E94F613DF91CF9190
:100A60000895EF92FF920F931F93CF93DF937C0132
:100A700024E430E0E20EF31EF70180812CEB3FEF1F
:100A8000E20EF31EF701E80FF11D1782F7018681D0
:100A900080FF07C0B701695F7F4F81EF94E00E943C
:100AA0000C13F701868182FF27C084E093E00E9447
:100AB000AD05EC01009701F181E088830E94A01A46
:100AC00069837A838B839C83BE016B5F7F4F870131
:100AD0000C5B1F4FF80140819701295F3F4FCB010D
:100AE000B90150E00E94AA02F80160816B5F84E0C6
:100AF00093E041E00E940E0724E430E0E20EF31E92
:100B0000F7011082DF91CF911F910F91FF90EF902D
:100B100008951F93CF93DF93EC01162FCC5BDF4F2B
:100B20008881C454D0408D3318F0CE010E94310525
:100B3000DE01AC5BBF4F8C91FE01E80FF11D178306
:100B40008F5F8C931A3019F4CE010E94310581E039
:100B500090E0DF91CF911F910895FC01E253FF4F88
:100B60009081EE5CF040933018F020E030E00CC053
:100B700081E1989F900111242F5F3F4F220F331F77
:100B8000220F331F2E0F3F1FC9010895FC0189EC6E
:100B900092E091838083E452FF4F619340833897C2
:100BA00080E8808333968FEF9FEFAFEFBFEF8083B6
:100BB0009183A283B383089580E0089582E008952D
:100BC0000895AF92BF92CF92DF92EF92FF920F9370
:100BD0001F93DF93CF9300D00F92CDB7DEB77C0188
:100BE000FC01EB52FF4F808187FF17C081EA8083B1
:100BF00026ED30E0E20EF31E85E59AEAD7018D93EB
:100C00009D937D010E94C70EF701608371838283EB
:100C1000938328E23FEFE20EF31E0E94A71788237A
:100C2000F1F1FE01319683E0DF011D928A95E9F72B
:100C300087010B521F4FD8018C91898326ED30E03C
:100C4000E20EF31ED7018D919C912AE23FEFE20E56
:100C5000F31E9B838A838EE1BF0143E00E949F19AC
:100C60000E94C70E5B016C01D8018C9187FD05C005
:100C700020E23EE440E050E004C024EF31E040E0F8
:100C800050E0E8EDF0E0EE0EFF1E2A0D3B1D4C1D7E
:100C90005D1DD7012D933D934D935C9313970F905A
:100CA0000F900F90CF91DF911F910F91FF90EF90D8
:100CB000DF90CF90BF90AF900895CF93DF93EC017A
:100CC000FB016115710539F0CB52DF4F80818883BC
:100CD000C55DD04003C08EE1808311828081809306
:100CE0005F04818180935E0481EF94E064EF71E0A2
:100CF0000E940C1381EF94E060915F044AE050E0A1
:100D00000E949B12C452DF4F80915F0463E04991BF
:100D10000E94E3198881CD5DD040882371F081EF76
:100D200094E069E072E00E94F61387E598E90E947A
:100D3000A31682EB94E90E94A316CE010E94E1055E
:100D4000DF91CF9108951F93CF93DF93EC01862F0E
:100D500060915F04861711F4682F01C06064162F3C
:100D600010680E94A717882339F0812F60E070E097
:100D700040E00E949F1903C0CC52DF4F1883DF91DF
:100D8000CF911F9108951F93CF93DF93EC01C2532E
:100D9000DF4F8881CE5CD0408823E1F11A81C153B6
:100DA000DF4F8881CF5CD04090E007970CF01F7D2B
:100DB000BE016C5F7F4F812F4B810E949F1915FDF3
:100DC0001BC0C253DF4F8881CE5CD040823050F0D0
:100DD000DE011296FE01EA5BFF4F88E801900D925A
:100DE0008150E1F7FE01E253FF4F80818150808303
:100DF000C153DF4F18820EC0FE01E153FF4F8081C7
:100E00008F5F80830E94C70EC053DF4F6883798352
:100E10008A839B83DF91CF911F910895CF93DF93B6
:100E2000EC01DC01A253BF4F2C912330A0F530E040
:100E300084E490E0289FF001299FF00D389FF00D89
:100E40001124EC0FFD1F63832C91442311F431E432
:100E500001C031E6822F90E0FC0165E0EE0FFF1F3C
:100E60006A95E1F7880F991FE80FF91F3196EE0F89
:100E7000FF1FEC0FFD1F3083FE01E253FF4F808107
:100E80008F5F8083813039F40E94A717882319F07F
:100E9000CE010E94C306DF91CF9108950F931F9357
:100EA000CF93DF93EC010E94C116882309F48BC015
:100EB00080911A0590911B05892B09F084C08091BF
:100EC0001D0587FD4CC080911D0585FF06C0609102
:100ED0001D056F71CE010E94A30680911D058F71C3
:100EE0008E31D1F5FE01EB52FF4F908197FF6BC021
:100EF00080911F05891709F066C020912005CA520C
:100F0000DF4F48815981C65DD04030E0852F992759
:100F10002817390709F057C08091210590E05070DB
:100F20008417950709F04FC0809123058083809135
:100F30002405882319F0813031F403C010925E0437
:100F400002C080935E04C852DF4F188219821A8251
:100F50001B82C85DD04037C080911F057EC0809144
:100F60001D0585FD30C020911D0530E02F713070CA
:100F700080915F0490E02817390729F5C253DF4FAD
:100F80009881CE5CD0409923F1F0C153DF4F888126
:100F9000CF5CD0408823B9F0923050F0DE01129639
:100FA000FE01EA5BFF4F88E801900D928150E1F766
:100FB000FE01E253FF4F808181508083C153DF4F98
:100FC0001882CF5CD040CB52DF4F8881C55DD040C6
:100FD00087FF48C00E94C70EC852DF4F2881398161
:100FE0004A815B81C85DD04062177307840795070B
:100FF000C8F1CE010E94E1052FC00E94A7178823E7
:10100000C1F1F801808160E070E040E00E949F192A
:10101000F801108221C0C153DF4F8881CF5CD040DE
:10102000882399F00E94C70EC053DF4F2881398171
:101030004A815B81C05DD0402C593F4F4F4F5F4F7D
:10104000621773078407950738F00E94A717882353
:1010500019F0CE010E94C30680E0DF91CF911F916D
:101060000F9108958E010C521F4FF8018081882343
:1010700021F6C253DF4F8881CE5CD040882361F3D4
:10108000CACFFC0185ED92E091838083128208959E
:1010900082E0089581E00895FB012081FC01228314
:1010A00008951F93CF93DF93EB01443088F00E94A3
:1010B000731A182F688179818A819B810E94761A20
:1010C000112331F485EE93E069E272E00E94F61399
:1010D000DF91CF911F91089583E00895FC018089ED
:1010E000880F880F880F089508950895AF92BF92D2
:1010F000CF92DF92EF92FF920F931F93DF93CF93E4
:10110000CDB7DEB76C970FB6F894DEBF0FBECDBF7C
:101110000D8B1E8B2F8B388F498F5A8F6B8F7C8F47
:10112000E2E0EE2EF12CE80EF91EC7010E94201518
:10113000C701BE016B5E7F4F0E94FF14C7016EEBBB
:1011400040E00E94BA148E01075F1F4FC801B02E05
:10115000A92E72E1C72ED12CCC0EDD1EC7010E9434
:101160006914F80181938F01EC15FD05B9F78B2DFA
:101170009A2D68E00E9424149989891769F52985B8
:10118000222319F48A85882339F18E858F3F21F532
:101190008889803109F59A8580E0422F50E0482BFC
:1011A000592BDE011196E9EEF2E088E001900D92F4
:1011B0008150E1F7ED85F0E0E076F07064E0F695BF
:1011C000E7956A95E1F7EC0FFD1F218132812095AB
:1011D00030952423352302C020E030E8C9016C9605
:1011E0000FB6F894DEBF0FBECDBFCF91DF911F9138
:1011F0000F91FF90EF90DF90CF90BF90AF90089548
:101200008F929F92AF92BF92CF92DF92EF92FF9216
:101210000F931F93CF93DF93EC01D22EC32EB42EE6
:10122000A52E962E872E0E9476089C0180E82030FD
:10123000380779F5CE012D2D3C2D4B2D5A2D692DDA
:10124000782D0E9476089C0180E82030380709F547
:10125000CE012D2D3C2D4B2D5A2D692D782D0E9420
:1012600076089C0180E82030380799F4CE012D2DB6
:101270003C2D4B2D5A2D692D782D0E9476089C010E
:1012800080E82030380729F4E0E070E080EC6FE778
:101290001BC0B901882777FD8095982F0E94331DC8
:1012A00020E030E040E85DE30E94E71D26E636E6F8
:1012B00046EE5FE30E94E71D20E030E040E052E4AC
:1012C0000E94301CE62F692F2E2F372F482F562FC4
:1012D000B901CA01DF91CF911F910F91FF90EF905B
:1012E000DF90CF90BF90AF909F908F900895EF9236
:1012F000FF920F931F938C01F2E0EF2EF12CE80E7A
:10130000F91EC7010E942015C7010E94FA14C701E7
:1013100064E441E00E94BA1482E0F801818B1F91DD
:101320000F91FF90EF900895CF92DF92EF920F937D
:101330001F93DF93CF93CDB7DEB728970FB6F894FE
:10134000DEBF0FBECDBF09831A832B833C834D8341
:101350005E836F8378878C010E5F1F4FC8010E94E8
:1013600020156E010894C11CD11CC801B6010E9451
:10137000FF14C8016EE440E00E94BA14C80160E0A6
:1013800040E00E94BA14C80160E040E00E94BA1434
:10139000E294EE0CA0EEEA22EA94C8016E2D40E041
:1013A0000E94BA14C8010E942015C801B6010E940B
:1013B000FF14C80168E441E00E94BA146AE070E0DA
:1013C00080E090E00E94D50EC8010E940914289682
:1013D0000FB6F894DEBF0FBECDBFCF91DF911F9146
:1013E0000F91EF90DF90CF900895CF92DF92EF9220
:1013F000FF920F931F93DF93CF93CDB7DEB728975C
:101400000FB6F894DEBF0FBECDBF6B01E982FA8242
:101410000B831C832D833E834F835887CB016AE364
:1014200072E00E940C138E010F5F1F4F89E0E82EBF
:10143000F12CEC0EFD1EF801608170E0B4E07595B2
:101440006795BA95E1F7C60140E150E00E94F912B4
:10145000F80161918F0170E06F707070C60140E11A
:1014600050E00E94F9120E151F0529F728960FB6B5
:10147000F894DEBF0FBECDBFCF91DF911F910F91CA
:10148000FF90EF90DF90CF9008959F92AF92BF9220
:10149000CF92DF92EF92FF920F931F93CF93DF9340
:1014A0005C01EB01CB016DE372E00E940C13CE01F5
:1014B000D50150966C914AE050E00E948912CE010D
:1014C00069E472E00E94F613992495C0CE0162E5AA
:1014D00072E00E940C13CE01692D4AE050E00E9498
:1014E0008912CE0164E572E00E940C13C92CDD2440
:1014F000C60163E0880F991F6A95E1F7D5015696FA
:10150000ED91FC915797E80FF91FE080F18002817F
:1015100013812481358146815781C501BE010E9416
:10152000F509C601880F991F880F991FD501599693
:10153000ED91FC915A97E80FF91F4081518162812A
:101540007381CE0122E030E00E94F313CE0167E503
:1015500072E00E940C137601EE0CFF1CEC0CFD1CDB
:10156000EE0CFF1C00E010E0D5019296ED91FC918D
:101570009397EE0DFF1DE00FF11F6081772767FD48
:101580007095685A7F4FCE014AE050E00E94F912F0
:10159000CE016EE572E00E940C130F5F1F4F063004
:1015A000110511F7CE0160E672E00E940C1300E015
:1015B00010E0D5019496ED91FC919597EE0DFF1DED
:1015C000E00FF11F6081772767FD7095685A7F4FA4
:1015D000CE014AE050E00E94F912CE016EE572E0C1
:1015E0000E940C130F5F1F4F0630110511F7CE013B
:1015F0000E94BD119394F5018089981608F466CF76
:10160000DF91CF911F910F91FF90EF90DF90CF90DE
:10161000BF90AF909F9008952F923F924F925F920C
:101620006F927F928F929F92AF92BF92CF92DF92F2
:10163000EF92FF920F931F93CF93DF934C01762E7F
:101640004D9660E67AEE0E945316882309F445C051
:10165000D40190968D919C919197019691969C932F
:101660008E939097803F9105C1F591961C921E92A2
:10167000909760E070E040E050E026C0E901D401BE
:101680009296ED91FC919397E40FF51F9E012150E6
:101690003040DF01AC0FBD1FE20FF31F80818C9340
:1016A000D4019496ED91FC919597E40FF51FCE0F20
:1016B000DF1FE20FF31F8081888321153105F1F6CA
:1016C0006F5F7F4F4A5F5F4FF401808990E068173A
:1016D00079071CF4C5E0D0E0D2CF0E94C70E5B01B1
:1016E0006C01D40151968C91813021F0823009F047
:1016F000E1C028C07720D9F0F40182899389A489B8
:10170000B58986017501E81AF90A0A0B1B0B672DCA
:1017100070E080E090E028EE33E040E050E00E948E
:101720004E1E6E157F058007910708F0C3C0D401D7
:101730005296AD92BD92CD92DC925597C4010E9413
:101740007709B8C0F40182899389A489B589A81A58
:10175000B90ACA0ADB0AFDEBAF16B104C104D10411
:1017600008F4A8C0BB24A1E02A2E312C0F2EF0E0F3
:101770004F2EF0E05F2EF0EC6F2EFFE77F2EF02D66
:1017800091C0CB2CDD24C601F3E0880F991FFA9598
:10179000E1F7D4015696ED91FC915797E80FF91FA8
:1017A0000081118122813381448155816681778155
:1017B000C4010E9400097B018C01E1010B2C02C0D5
:1017C000CC0FDD1F0A94E2F7A80197010E944A1E80
:1017D000F401238D348D8823D9F0CE018223932305
:1017E000892B81F0CC0CDD1CCC0CDD1CD40159966E
:1017F000ED91FC915A97EC0DFD1D40825182628261
:1018000073824FC02C2B3D2BF401348F238F49C0A2
:10181000CE018095909528233923D4015C963C9382
:101820002E935B97C601880F991F880F991F5996B1
:10183000ED91FC915A97E80FF91FE082F182028343
:101840001383C801B70120E030E040EB52E40E946E
:101850002F1C20E030E040E05FE30E94301C0E943B
:10186000001DAB01BC01942F9601220F331F2C0DDC
:101870003D1D220F331FD4019296ED91FC91939759
:10188000E20FF31F808198170CF44083D4019496E3
:10189000ED91FC919597E20FF31F808189170CF46D
:1018A0009083B394F4018089B81608F46ACF81E07C
:1018B000818B01C080E0DF91CF911F910F91FF904C
:1018C000EF90DF90CF90BF90AF909F908F907F90E0
:1018D0006F905F904F903F902F9008952F923F927E
:1018E0004F925F926F927F928F929F92AF92BF9230
:1018F000CF92DF92EF92FF920F931F93DF93CF93DC
:10190000CDB7DEB764970FB6F894DEBF0FBECDBF7C
:101910003C011B019C012E5F3F4F3D872C87C90175
:101920000E941714442455241B861A861986B9C0B0
:10193000CE01019667E00E94241419813A813E8706
:101940009B819F87AC81A88BBD81B98BEE81EA8B8F
:10195000FF81FB8B28852C8B882E9924AA24BB24FD
:10196000CC24DD247601212F492F5A2F6B2F7E2F77
:101970008F2F9C8908E30E940D01821609F091C007
:10198000931609F08EC0A41609F08BC0B51609F0A5
:1019900088C0C61609F085C0D71609F082C0E816BF
:1019A00009F07FC0F91609F07CC0D30150960C9164
:1019B00090E020E030E033C0D3015696ED91FC91E9
:1019C0005797E20FF31F80814181528163817481B7
:1019D000A581B681E781285F3F4F1817F9F4FE858E
:1019E000F417E1F48F858517C9F4F889F617B1F477
:1019F0008989871799F4FA89FA1781F48B898B17EB
:101A000069F4AC89AE1751F4E1E0F0E002C0EE0FEA
:101A1000FF1F9A95E2F74E2A5F2A40C09F5F9017FA
:101A200058F240E020E030E037C0D3015696ED9107
:101A3000FC915797E20FF31F285F3F4F8081918100
:101A4000892B9281892B9381892B9481892B958174
:101A5000892B9681892B9781892BE9F41083BE8588
:101A6000B1832F85228338893383898984839A8936
:101A70009583AB89A683BC89B78381E090E002C0DF
:101A8000880F991F4A95E2F7EA85FB85E82BF92B29
:101A9000FB87EA8703C04F5F401738F2F985FF5F85
:101AA000F9878C859D85BE016F5F7F4F0E946B1506
:101AB000882309F03DCF8C859D850E941714FF2453
:101AC00020C08F2D90E0F3E0880F991FFA95E1F781
:101AD000D3015696ED91FC915797E80FF91F0081BD
:101AE000118122813381448155816681778102325F
:101AF00011F0083229F4C301EAE0EE2E0E949409A5
:101B0000F394F3018089F816E0F22A853B85232BB4
:101B1000C1F1C10166E672E00E940C13DD242AC007
:101B20008A859B850D2C02C0969587950A94E2F7CD
:101B300080FF1FC0C10163E772E00E940C138D2D6E
:101B400090E013E0880F991F1A95E1F7D30156969C
:101B5000ED91FC915797E80FF91FE080F180028129
:101B600013812481358146815781C301B1010E94CF
:101B7000F509D394F3018089D81690F2C1010E942F
:101B8000BD112A853B85422A532A4094509481E016
:101B900090E0D30150960C9002C0880F991F0A94D0
:101BA000E2F70197482259224528C1F1C10165E7B2
:101BB00072E00E940C13DD242AC08A859B850D2CBF
:101BC00002C0969587950A94E2F780FF1FC0C10175
:101BD00063E772E00E940C138D2D90E0B3E0880F54
:101BE000991FBA95E1F7D3015696ED91FC9157975D
:101BF000E80FF91FE080F180028113812481358193
:101C000046815781C301B1010E94F509D394F301C4
:101C10008089D81690F2C1010E94BD110E94C70EA2
:101C2000D30152966D937D938D939C935597C301E9
:101C30000E947709898564960FB6F894DEBF0FBEBF
:101C4000CDBFCF91DF911F910F91FF90EF90DF906B
:101C5000CF90BF90AF909F908F907F906F905F904C
:101C60004F903F902F900895CF93DF93EC01413137
:101C700008F040E1488B198A1C8E1B8E842F90E05F
:101C800064E070E00E948C01898F9A8F888990E0CF
:101C900066E070E00E948C018AA39BA3888990E093
:101CA00066E070E00E948C018CA39DA3DF91CF9130
:101CB0000895EF92FF920F931F938C01F62EE42E5E
:101CC000FC0181EE92E081939193CF010E94011675
:101CD000F801178EC8016F2D4E2D0E94340EF801A9
:101CE000808990E068E070E00E948C01F801868BAA
:101CF000978B108E1F910F91FF90EF9008951F9278
:101D00000F920FB60F9211242F933F938F939F93AF
:101D1000AF93BF938091640490916504A091660491
:101D2000B0916704309168040196A11DB11D232F65
:101D30002D5F2D3720F02D570196A11DB11D209349
:101D400068048093640490936504A0936604B09340
:101D500067048091600490916104A0916204B09145
:101D600063040196A11DB11D8093600490936104EA
:101D7000A0936204B0936304BF91AF919F918F9140
:101D80003F912F910F900FBE0F901F9018958FB716
:101D9000F894209164043091650440916604509158
:101DA00067048FBFB901CA0108959B01AC017FB7D9
:101DB000F8948091600490916104A0916204B091C4
:101DC000630466B5A89B05C06F3F19F00196A11D7D
:101DD000B11D7FBFBA2FA92F982F8827860F911D7D
:101DE000A11DB11D62E0880F991FAA1FBB1F6A9534
:101DF000D1F7BC012DC0FFB7F89480916004909199
:101E00006104A0916204B0916304E6B5A89B05C08B
:101E1000EF3F19F00196A11DB11DFFBFBA2FA92FE9
:101E2000982F88278E0F911DA11DB11DE2E0880F0C
:101E3000991FAA1FBB1FEA95D1F7861B970B885ED7
:101E40009340C8F2215030404040504068517C4F90
:101E5000211531054105510571F60895019739F0B5
:101E6000880F991F880F991F02970197F1F708951E
:101E7000789484B5826084BD84B5816084BD85B565
:101E8000826085BD85B5816085BDEEE6F0E080812C
:101E900081608083E1E8F0E010828081826080834D
:101EA000808181608083E0E8F0E0808181608083D0
:101EB000E1EBF0E0808184608083E0EBF0E0808102
:101EC00081608083EAE7F0E08081846080838081A4
:101ED000826080838081816080838081806880834C
:101EE0001092C100089508951F920F920FB60F929D
:101EF00011242F933F934F938F939F93EF93FF93CF
:101F00008091C00082FD1DC04091C6002091A904AF
:101F10003091AA042F5F3F4F2F7330708091AB0434
:101F20009091AC042817390771F0E091A904F09161
:101F3000AA04E759FB4F40833093AA042093A904D5
:101F400002C08091C600FF91EF919F918F914F91B8
:101F50003F912F910F900FBE0F901F901895E09119
:101F6000FD04F091FE04E05CFF4F8191919120818E
:101F70003181821B930B8F739070892B11F00E941B
:101F8000730F08951F920F920FB60F9211242F9383
:101F90003F938F939F93EF93FF932091ED043091A4
:101FA000EE048091EF049091F0042817390731F482
:101FB0008091C1008F7D8093C10014C0E091EF0437
:101FC000F091F004E355FB4F20818091EF04909154
:101FD000F00401968F7390709093F0048093EF0457
:101FE0002093C600FF91EF919F918F913F912F9188
:101FF0000F900FBE0F901F901895AF92BF92DF9277
:10200000EF92FF920F931F93CF93DF93EC017A012E
:102010008B01DD24403081EE580780E0680780E0C6
:10202000780711F0DD24D39491E0A92EB12CEC892E
:10203000FD89DD2069F0C50108A002C0880F991F45
:102040000A94E2F7808360E079E08DE390E005C0D8
:10205000108260E874E88EE190E0A80197010E9488
:10206000941E21503040404050405695479537953A
:10207000279580E12030380720F0DD2011F0DD24A5
:10208000D6CFE889F9893083EA89FB89208319A2B0
:10209000EE89FF89408121E030E0C9010C8C02C04B
:1020A000880F991F0A94E2F7482B4083EE89FF8935
:1020B0004081C9010D8C02C0880F991F0A94E2F774
:1020C000482B4083EE89FF894081C9010E8C02C0F4
:1020D000880F991F0A94E2F7482B4083EE89FF8905
:1020E00080810F8C02C0220F331F0A94E2F72095E3
:1020F00028232083DF91CF911F910F91FF90EF90C4
:10210000DF90BF90AF900895DC011C96ED91FC919B
:102110001D97E05CFF4F2191319180819181281BB7
:10212000390B2F733070C9010895DC011C96ED91B5
:10213000FC911D97E05CFF4F20813181E054F0401D
:10214000DF01AE5BBF4F8D919C9111972817390726
:1021500019F42FEF3FEF07C08D919C91E80FF91F05
:102160008081282F30E0C9010895DC011C96ED9193
:10217000FC911D97E05CFF4F20813181E054F040DD
:10218000DF01AE5BBF4F8D919C91119728173907E6
:1021900019F42FEF3FEF10C08D919C911197E80F2C
:1021A000F91F20818D919C91119701968F739070EA
:1021B00011969C938E9330E0C9010895DC019196AD
:1021C0008C919197882339F05496ED91FC91559715
:1021D000808186FFF9CF91961C920895CF93DF936B
:1021E000EC01EE85FF85E05CFF4F20813181E054FA
:1021F000F0402F5F3F4F2F733070DF01AE5BBF4F5A
:102200008D919C91119728173907D1F3E05CFF4F0E
:1022100080819181E054F040E80FF91F6083EE85E2
:10222000FF85E05CFF4F31832083EE89FF892081A9
:1022300081E090E00F8C02C0880F991F0A94E2F7AA
:10224000282B208381E089A3EC89FD89808180642B
:10225000808381E090E0DF91CF9108951092F404A3
:102260001092F30488EE93E0A0E0B0E08093F504D0
:102270009093F604A093F704B093F80485EF92E0EE
:102280009093F2048093F10489E694E09093FE0425
:102290008093FD048DEA94E0909300058093FF0401
:1022A00085EC90E0909302058093010584EC90E02A
:1022B000909304058093030580EC90E090930605CD
:1022C0008093050581EC90E09093080580930705C5
:1022D00082EC90E090930A058093090586EC90E0EB
:1022E00090930C0580930B0584E080930D0583E0AB
:1022F00080930E0587E080930F0585E0809310059D
:1023000081E0809311050895CF93DF930E94380FE9
:102310000E942503CFEADFE00E94F1022097E1F35B
:102320000E94AF0FF9CFCF92DF92EF92FF920F93FF
:102330001F93CF93DF937C016B018A01C0E0D0E053
:102340000FC0D6016D916D01D701ED91FC91019007
:10235000F081E02DC7010995C80FD91F0150104029
:102360000115110571F7CE01DF91CF911F910F91EA
:10237000FF90EF90DF90CF900895EF92FF920F9330
:102380001F938C01DC01ED91FC910190F081E02D17
:102390006DE009957C01D801ED91FC910190F081EF
:1023A000E02DC8016AE009959C012E0D3F1DC90171
:1023B0001F910F91FF90EF900895CF93DF93EC0161
:1023C0006115710519F420E030E00FC0DB010D90BC
:1023D0000020E9F71197A61BB70BE881F98102806D
:1023E000F381E02DAD0109959C01C901DF91CF91E9
:1023F00008954F925F927F928F929F92AF92BF9279
:10240000CF92DF92EF92FF920F931F93DF93CF93C0
:10241000CDB7DEB7A1970FB6F894DEBF0FBECDBF24
:102420002C01742ECB01223008F42AE019A231E2EB
:10243000C32ED12CCC0EDD1E822E9924AA24BB24BF
:10244000672D752FA50194010E94941E79018A01C0
:10245000C801B701A50194010E944E1E472D461BDD
:102460000894C108D1084A3010F4405D01C0495CAD
:10247000F6014083E114F1040105110521F07E2CE1
:102480005F2DC801DDCFC201B6010E94DD11A1960A
:102490000FB6F894DEBF0FBECDBFCF91DF911F9175
:1024A0000F91FF90EF90DF90CF90BF90AF909F90F3
:1024B0008F907F905F904F900895DC01211531053A
:1024C00041F4ED91FC910190F081E02D642F09958C
:1024D00008950E94F9110895CF92DF92EF92FF9232
:1024E0000F931F936C017B019A0100E010E0B8018B
:1024F000A7010E945D128C01C6010E94BD11080F48
:10250000191FC8011F910F91FF90EF90DF90CF909E
:102510000895EF92FF920F931F939A01E62EFF24E6
:1025200000E010E0B801A7010E945D121F910F9119
:10253000FF90EF900895CF92DF92EF92FF920F936A
:102540001F936C01E62E9A01FF2400E010E0B80111
:10255000A7010E945D128C01C6010E94BD11080FE7
:10256000191FC8011F910F91FF90EF90DF90CF903E
:102570000895CF92DF92EF92FF920F931F93CF9324
:10258000DF93EC016A017B012115310541F4E881FB
:10259000F9810190F081E02D642F09951FC02A3048
:1025A0003105D1F477FF17C0E881F9810190F081FE
:1025B000E02D6DE209958C0144275527BA014C198D
:1025C0005D096E097F09CE012AE00E94F911980188
:1025D000280F391F04C02AE00E94F9119C01C9018B
:1025E000DF91CF911F910F91FF90EF90DF90CF90EF
:1025F0000895EF92FF920F931F937B019A0100279A
:10260000F7FC0095102FB801A7010E94B9121F9185
:102610000F91FF90EF9008950E94DD1108957F9231
:102620008F929F92AF92BF92CF92DF92EF92FF92E2
:102630000F931F93CF93DF934C017A018B01722E7E
:10264000CB01BA01A80197010E944A1E882321F0FC
:10265000C40166E872E021C0C0E0D0E05701680123
:10266000E894D7F8C601B5012FEF3FEF4FE75FE7DA
:102670000E944A1E882351F4C601B5012FEF3FEF97
:102680004FE75FE70E94941C181614F0C1E0D0E0F9
:10269000219739F0C4016AE872E00E94DD11EC0173
:1026A00093C0C801B7012FEF3FEF4FE75FE40E94EF
:1026B000E31D181654F0C801B7012FEF3FEF4FE7A5
:1026C0005FEC0E94941C882324F4C4016EE872E03D
:1026D000E4CFC801B70120E030E040E050E00E94C4
:1026E000941C87FD03C0C0E0D0E00EC0D401ED9182
:1026F000FC910190F081E02DC4016DE20995EC019F
:1027000017FB109517F9109520E030E040E05FE3EB
:10271000DD240BC0CA01B90120E030E040E251E401
:102720000E94981C9B01AC01D394D71498F3C80164
:10273000B7010E94301C5B016C010E94051D7B01EA
:102740008C01C401B801A7012AE030E00E945D12AB
:10275000C80FD91F772039F0C40162E972E00E94E6
:10276000DD11C80FD91FC801B7010E94311D9B019F
:10277000AC01C601B5010E942F1C24C020E030E04E
:1027800040E251E40E94E71D7B018C010E94001D84
:102790005B016C01CC24B7FCC094DC2CC401B601F5
:1027A000A5012AE030E00E94B912C80FD91FC60166
:1027B000B5010E94331D9B01AC01C801B7010E9405
:1027C0002F1C7A947720D1F6CE01DF91CF911F9103
:1027D0000F91FF90EF90DF90CF90BF90AF909F90C0
:1027E0008F907F9008950E940F130895EF92FF92AB
:1027F0000F931F937C010E94DD118C01C7010E9481
:10280000BD11080F191FC8011F910F91FF90EF9084
:102810000895FC01F894A181B28111969C911197C1
:1028200080818095982311969C9378940895FC015B
:1028300013861586148687E090E0128631970097FC
:1028400011F00197FACF0895DC0180E00BC0E82F6A
:10285000F0E08D9190E0E827F927E859FF4FE491E7
:1028600061508E2F662399F70895DF92EF92FF92C1
:102870000F931F93FC01E08001811281F894F8010D
:102880008281DE2CD0948D21828381818E29818367
:1028900083E090E00E942E0FF80181818D218183D9
:1028A0008AE090E00E942E0FF8010081789485E381
:1028B00090E00E942E0F80E010E0FF240E211F21E7
:1028C000012B09F081E01F910F91FF90EF90DF90B5
:1028D0000895EF92FF920F931F93CF93DF937C01A4
:1028E00001E010E0C0E0D0E0C7010E943514811182
:1028F000102B000F2196C830D105B1F7812FDF9141
:10290000CF911F910F91FF90EF9008951F93CF9358
:10291000DF93FC011081C181D281912F909560FFDE
:1029200012C0F8948A8189238A838981812B8983C3
:102930008AE090E00E942E0F8A81812B8A8378940E
:1029400087E390E011C0F8948A8189238A83898182
:10295000812B898381E490E00E942E0F8A81812B54
:102960008A83789485E090E00E942E0FDF91CF91CA
:102970001F910895CF92DF92EF92FF920F931F93D2
:10298000CF93DF938C01E42EFF24F394C0E0D0E0DA
:10299000C62EDD2460E08F2D90E08C219D21892BB7
:1029A00009F061E0C8010E948614FF0C2196C8302E
:1029B000D10581F7EE20A9F4F894D8011196ED9194
:1029C000FC91129791818C91809598239183119617
:1029D000ED91FC91129792818C918095982392832E
:1029E0007894DF91CF911F910F91FF90EF90DF903E
:1029F000CF9008956CEC40E00E94BA140895EF92D5
:102A0000FF920F931F93CF93DF938C017B0165E5BA
:102A100040E00E94BA14C0E0D0E0F701EC0FFD1FC7
:102A2000C801608140E00E94BA142196C830D105E7
:102A3000A1F7DF91CF911F910F91FF90EF90089533
:102A4000DF92EF92FF920F931F93CF93DF93FC01DE
:102A50000081C181D281F8948981D02ED0948D21BA
:102A6000898378941DE7E02EFF24115059F182E00C
:102A700090E00E942E0F888190E08E219F21892B6B
:102A8000A1F3F8948A818D218A838981802B89839F
:102A9000789484EF91E00E942E0FF89489818D2123
:102AA000898380E590E00E942E0F888110E090E0FD
:102AB000E822F922EF2809F411E0789484EA91E001
:102AC0000E942E0F812FDF91CF911F910F91FF90C8
:102AD000EF90DF900895AF92BF92DF92EF92FF9256
:102AE0000F931F93CF93DF93EC015B018D858823B8
:102AF00009F061C0CE010E942015882329F41B86AD
:102B00001D861C8690E06BC0CE0160EF40E00E9405
:102B1000BA1401E0DD24EE24FF24F394CE010E94D8
:102B20003514182FCE010E943514113019F481305C
:102B3000E1F439C0181709F58B85081770F460E0C7
:102B4000FE01EE0DF11D838190E02F2D30E08223F8
:102B50009323181619064CF003C060E0081729F0FB
:102B6000093008F04CC00C874AC0FE01EE0DF11D83
:102B700083818F29838361E009C0612FFE01EE0DFF
:102B8000F11D9F2D9095838189238383CE010E941F
:102B900086140F5FFF0C19F4E394FF24F39487E08D
:102BA0008E1508F0BBCF013430F0DB86DD2011F547
:102BB00081E08D871FC01B861D861C8690E0DE018C
:102BC00020E030E0F501E20FF31F13968C9113978C
:102BD00080832F5F3F4F11962830310599F7892F59
:102BE000DF91CF911F910F91FF90EF90DF90BF90F9
:102BF000AF9008958B818823F1F291E0E0CFD02E41
:102C0000BDCFFF920F931F938C01F62E862F60E0AD
:102C10000E949C1B8F2D90E0FC01E656FE4FE49134
:102C2000D801EC938A579E4FFC016491E62FF0E0A7
:102C3000EE0FFF1FE458FE4F8591949112969C93DE
:102C40008E9311971B961C921B971D961C921D9795
:102C50001C961C92F80187E090E01286319700974D
:102C600011F00197FACF1F910F91FF9008950F93E4
:102C70001F93CF93DF938C01EB0180E06115710509
:102C800009F081E0F8018283882341F00E94C70E99
:102C90002197C60FD71FF801D183C083DF91CF9151
:102CA0001F910F910895EF92FF920F931F93CF936F
:102CB000DF93EC017B018A81882311F400E00FC0CF
:102CC000088119810E94C70EC801861B970B2AEE46
:102CD0008136920710F400E006C0082F0195CE015E
:102CE000B7010E943716802FDF91CF911F910F916E
:102CF000FF90EF900895782F65B121E030E040E03B
:102D000050E00090A40204C0220F331F441F551F3F
:102D10000A94D2F7322F822F8095862385B99EBDE3
:102D20000DB407FEFDCF4EB57EBD0DB407FEFDCF41
:102D30002EB5942F80E045B1342B35B930E0282BE7
:102D4000392BC9010895E8980E947B16E89A0895E6
:102D500080911305909114058F70909314058093C2
:102D600013058091130590911405886090931405C4
:102D70008093130580911305909114050E947B1692
:102D8000089580916A05873009F042C080911E0540
:102D900020916D0590E0049630E08217930724F0AF
:102DA00080916D058734A0F184E080936A0580915D
:102DB0001E05833430F081E090E090931B058093F2
:102DC0001A0580911D0586FF12C080916905282F84
:102DD00030E0C9018F7190704F9749F080911D05C7
:102DE00090E0822793278F719070892B89F48091CE
:102DF0001A0590911B05892B09F056C0E0916705D3
:102E0000F0916805309709F44FC080E0099558C0EB
:102E100080916A05843011F080E0089510921E05BB
:102E200080911E0580936D058FEF9FEF90931B059A
:102E300080931A0520916B052223D9F08227282F31
:102E400022952827022E269526952025022E2695A6
:102E500020252770082E892F269507942795902DD9
:102E60008227069427959025822790931B058093AF
:102E70001A0587E080936A0581E08093180583EA4C
:102E800094E90E947B168091130590911405886D3A
:102E90009093140580931305809113059091140568
:102EA0000E947B1680E008958FEF9FEFAFEFBFEF9A
:102EB0008093630590936405A0936505B0936605C0
:102EC00081E008950F931F93082F10E0C801966CBE
:102ED0000E947B1698012F7730702F5F3F4F442759
:102EE00037FD4095542F6BEF72E485E090E00E942F
:102EF000941ECA01B901000F012F001F110B980188
:102F000043E0220F331F4A95E1F7201B310B2F5F5F
:102F10003F4F442737FD4095542F0E94941E93E065
:102F200056954795379527959A95D1F72D573C4F4C
:102F30004F4F5F4FCA01B90124E833E040E050E051
:102F40000E94941E209319051F910F91089580915E
:102F50006A05873091F480916D05882371F41EBC59
:102F60000DB407FEFDCF0EB400FC07C00E94A816EA
:102F700084E080936A0581E0089580E00895982FA9
:102F800086FD05C0907E809169058F71980F9093A2
:102F90001D05E0916705F0916805309711F081E01B
:102FA00009958FEF9FEF90931B0580931A058091F1
:102FB0001A0590911B0520916B058227282F2295D9
:102FC0002827022E269526952025022E2695202597
:102FD0002770082E892F269507942795902D8227F4
:102FE000069427959025822790931B0580931A05B8
:102FF00088E080936A058091130590911405886399
:1030000090931405809313058091130590911405F6
:103010000E947B160895DF92EF92FF920F931F9309
:103020007B018C01DD2405C0D39416950795F79498
:10303000E7948FEFE816F1040105110509F0A0F7F8
:10304000809113059091140581FF0FC080911305A5
:10305000909114058D7F90931405809313058091B2
:103060001305909114050E947B16E114F1040105EB
:103070001105B9F0C701906E3D2D20E0822B932BF6
:103080000E947B16809113059091140582609093A5
:1030900014058093130580911305909114050E94E7
:1030A0007B161F910F91FF90EF90DF90089585B1EF
:1030B00021E030E040E050E00090A40204C0220F84
:1030C000331F441F551F0A94D2F7322F922F909529
:1030D000982395B91EBC0DB407FEFDCF6EB51EBC7E
:1030E0000DB407FEFDCF2EB5962F80E0622F70E065
:1030F000682B792B77FF0FC080916A05873059F4D0
:103100008CB581608CBD1EBC0DB407FEFDCF2EB505
:103110008CB58E7F8CBD85B1382B35B97093160573
:1031200060931505809115059091160597FFE3C0F2
:1031300080916A05873009F079C080916D058823F8
:1031400071F490916B05992351F080916D05E82FF2
:10315000F0E0E45EFA4F90838F5F80936D0580917D
:103160006D05E82FF0E0E45EFA4F20838F5F8093D7
:103170006D0580911A0590911B058227282F2295B5
:103180002827022E269526952025022E26952025D5
:103190002770082E892F269507942795902D822732
:1031A000069427959025822790931B0580931A05F6
:1031B00020911805233040F580916D0590E06091D5
:1031C0001905029770E00E94811E892BE9F4809115
:1031D000150590911605E22FF0E090FF04C0EF5F17
:1031E000FC4F808104C0EF5FFC4F808182958F701F
:1031F00080931805833040F490E0880F991F019662
:10320000806A94690E947B1680911E0520916D054D
:1032100090E0049630E0821793072CF080916D05C2
:10322000873408F468C00E94A81665C080916A05BA
:1032300087FF2EC0E0911E0580916A058F5F809305
:103240006A058150ED5FE80FF0E0E45EFA4FE0813F
:1032500080911A0590911B058E27282F22952827EB
:10326000022E269526952025022E269520252770AC
:10327000082E892F269507942795902D822706944E
:1032800027959025822790931B0580931A052EC0C1
:1032900080916A058F5F80936A058150833019F1B0
:1032A00084302CF4882399F08130F9F416C08B30E7
:1032B00019F08C30D1F402C0EDE218C0E0916B053A
:1032C00090911E058EEF891B80936A050FC0809137
:1032D0001A0590911B05E82F09C080911A0590915D
:1032E0001B05E92F03C00E94A816EAEA8E2F90E082
:1032F000986B0E947B16809115059091160596FF9C
:1033000003C086E080936A058091150590911605AB
:1033100094FF09C060E070E080E090E00E940B182C
:1033200081E080931705809115059091160595FF12
:1033300005C00E94A81684E080936A0508951F9333
:10334000182F40931E052FE135E0C90150E00E947F
:10335000AA02812F0E94BF171F91089525B181E015
:1033600090E0A0E0B0E00090A40204C0880F991F94
:10337000AA1FBB1F0A94D2F7282B25B924B1822B90
:1033800084B98AE061E00E94DB1B8AE061E00E9470
:103390009C1B8BE061E00E949C1B8CE060E00E9423
:1033A0009C1B8DE061E00E949C1B80E58CBD8DB56F
:1033B00081608DBD82E060E00E949C1B82E061E044
:1033C0000E94DB1B08951F938093690540936B0552
:1033D00060936C050E94AE198091690590E08F7131
:1033E0009070892B41F080E067E578E140E050E0A3
:1033F0000E940C1B03C080E00E942F1B82E89AEC05
:103400000E947B1680E09EEF0E947B1685E08093F1
:103410006A0583B7817F06C083B7816083BF8895C3
:1034200083B78E7F83BF80916A058530A9F3F894B6
:1034300085E092E89093140580931305809113051D
:10344000909114050E947B1680916C0590E074E0C9
:10345000880F991F7A95E1F7876C90680E947B1618
:1034600080E496EA0E947B1686E00E94621782EA58
:1034700094E90E947B168CEA92EC0E947B161091D4
:103480006B05112341F083E89AEC0E947B16812F93
:1034900090E09E6C06C08BE89AEC0E947B168DE251
:1034A0009EEC0E947B1683E894EC0E947B1680E5DC
:1034B00098E90E947B1687E79CEC0E947B1680E0CF
:1034C00090EE0E947B1680E098EC0E947B1689E4C7
:1034D00090EC0E947B1684E080936A05789480913A
:1034E00069051F910895809178050895609370058E
:1034F0007093710580937205909373052091A502D6
:103500003091A6024091A7025091A802260F371FC2
:10351000481F591F20937405309375054093760515
:103520005093770582E0809378050E94C70E6093E0
:10353000790570937A0580937B0590937C050895B7
:10354000EF92FF920F931F931CC02F5F3F4F4F4F7F
:103550005F4F20937005309371054093720550932F
:10356000730588EE93E0A0E0B0E0E80EF91E0A1FB4
:103570001B1FE0927905F0927A0500937B0510936A
:103580007C050E94C70EE0907905F0907A050091C5
:103590007B0510917C056E197F09800B910B2091A2
:1035A0007005309171054091720550917305685E08
:1035B00073408040904048F6809174059091750565
:1035C000A0917605B0917705281739074A075B0760
:1035D000B0F0E0916E05F0916F05309781F009959C
:1035E000611571058105910519F00E94761A07C0D1
:1035F00090E080917805811191E090937805609139
:1036000070057091710580917205909173051F91FD
:103610000F91FF90EF900895823000F5E82FF0E0D1
:10362000EE0FFF1FE358FA4F71836083882319F070
:103630008130A1F408C0809169008C7F842B809335
:103640006900E89A089580916900440F551F440F5E
:10365000551F837F842B80936900E99A08958230F7
:1036600080F4882319F0813021F402C0E89801C069
:10367000E998E82FF0E0EE0FFF1FE358FA4F1182B0
:10368000108208951F920F920FB60F9211242F935C
:103690003F934F935F936F937F938F939F93AF93DA
:1036A000BF93EF93FF9380917D0590917E05892BC9
:1036B00029F0E0917D05F0917E050995FF91EF914C
:1036C000BF91AF919F918F917F916F915F914F913A
:1036D0003F912F910F900FBE0F901F9018951F9242
:1036E0000F920FB60F9211242F933F934F935F9336
:1036F0006F937F938F939F93AF93BF93EF93FF93BA
:1037000080917F0590918005892B29F0E0917F05BC
:10371000F09180050995FF91EF91BF91AF919F9135
:103720008F917F916F915F914F913F912F910F906A
:103730000FBE0F901F901895CF93DF93482F50E046
:10374000CA0186569E4FFC0134914A575E4FFA01DA
:103750008491882369F190E0880F991FFC01E85952
:10376000FE4FA591B491FC01EE58FE4FC591D49146
:10377000662351F42FB7F8948C91932F9095892359
:103780008C93888189230BC0623061F42FB7F89441
:103790008C91932F909589238C938881832B888398
:1037A0002FBF06C09FB7F8948C91832B8C939FBF3B
:1037B000DF91CF910895482F50E0CA0182559E4F66
:1037C000FC012491CA0186569E4FFC0194914A57F0
:1037D0005E4FFA013491332309F440C0222351F1A2
:1037E000233071F0243028F42130A1F0223011F57B
:1037F00014C02630B1F02730C1F02430D9F404C011
:10380000809180008F7703C0809180008F7D8093AE
:10381000800010C084B58F7702C084B58F7D84BDD1
:1038200009C08091B0008F7703C08091B0008F7D78
:103830008093B000E32FF0E0EE0FFF1FEE58FE4F35
:10384000A591B4912FB7F894662321F48C919095AB
:10385000892302C08C91892B8C932FBF08955058D7
:10386000BB27AA270ED075C166D130F06BD120F0EE
:1038700031F49F3F11F41EF45BC10EF4E095E7FBB9
:1038800051C1E92F77D180F3BA1762077307840714
:10389000950718F071F49EF58FC10EF4E0950B2E8C
:1038A000BA2FA02D0B01B90190010C01CA01A00192
:1038B0001124FF27591B99F0593F50F4503E68F1ED
:1038C0001A16F040A22F232F342F4427585FF3CF2E
:1038D000469537952795A795F0405395C9F77EF4FF
:1038E0001F16BA0B620B730B840BBAF09150A1F048
:1038F000FF0FBB1F661F771F881FC2F70EC0BA0FCE
:10390000621F731F841F48F4879577956795B79555
:10391000F7959E3F08F0B3CF9395880F08F099274D
:10392000EE0F979587950895D9D008F481E0089512
:103930000CD00FC107D140F0FED030F021F45F3F32
:1039400019F0F0C0511139C1F3C014D198F3992383
:10395000C9F35523B1F3951B550BBB27AA27621753
:103960007307840738F09F5F5F4F220F331F441F98
:10397000AA1FA9F333D00E2E3AF0E0E830D09150D0
:103980005040E695001CCAF729D0FE2F27D0660FBD
:10399000771F881FBB1F261737074807AB07B0E8FC
:1039A00009F0BB0B802DBF01FF2793585F4F2AF012
:1039B0009E3F510568F0B6C000C15F3FECF3983EF2
:1039C000DCF3869577956795B795F7959F5FC9F76F
:1039D000880F911D9695879597F90895E1E0660FF8
:1039E000771F881FBB1F621773078407BA0720F071
:1039F000621B730B840BBA0BEE1F88F7E0950895DA
:103A000004D06894B111D9C00895BCD088F09F57F4
:103A100090F0B92F9927B751A0F0D1F0660F771F1A
:103A2000881F991F1AF0BA95C9F712C0B13081F0FA
:103A3000C3D0B1E00895C0C0672F782F8827B85F42
:103A400039F0B93FCCF3869577956795B395D9F75B
:103A50003EF490958095709561957F4F8F4F9F4F65
:103A60000895E89409C097FB3EF490958095709571
:103A700061957F4F8F4F9F4F9923A9F0F92F96E9BA
:103A8000BB279395F695879577956795B795F1112F
:103A9000F8CFFAF4BB0F11F460FF1BC06F5F7F4FCC
:103AA0008F4F9F4F16C0882311F096E911C07723DE
:103AB00021F09EE8872F762F05C0662371F096E8E7
:103AC000862F70E060E02AF09A95660F771F881FB6
:103AD000DAF7880F9695879597F90895990F00085A
:103AE000550FAA0BE0E8FEEF16161706E807F907D0
:103AF000C0F012161306E407F50798F0621B730B6B
:103B0000840B950B39F40A2661F0232B242B252BEB
:103B100021F408950A2609F4A140A6958FEF811D8E
:103B2000811D089597F99F6780E870E060E008952F
:103B30009FEF80EC089500240A94161617061806C5
:103B40000906089500240A941216130614060506A1
:103B50000895092E0394000C11F4882352F0BB0F32
:103B600040F4BF2B11F460FF04C06F5F7F4F8F4F95
:103B70009F4F089557FD9058440F551F59F05F3FD0
:103B800071F04795880F97FB991F61F09F3F79F07F
:103B900087950895121613061406551FF2CF469501
:103BA000F1DF08C0161617061806991FF1CF869583
:103BB0007105610508940895E894BB276627772767
:103BC000CB0197F908958ADF08F48FEF08950BD0A1
:103BD000C0CFB1DF28F0B6DF18F0952309F0A2CFEF
:103BE000A7CF1124EACFC6DFA0F3959FD1F3950F9D
:103BF00050E0551F629FF001729FBB27F00DB11D71
:103C0000639FAA27F00DB11DAA1F649F6627B00D00
:103C1000A11D661F829F2227B00DA11D621F739FE9
:103C2000B00DA11D621F839FA00D611D221F749FF7
:103C30003327A00D611D231F849F600D211D822F3E
:103C4000762F6A2F11249F5750408AF0E1F0882385
:103C50004AF0EE0FFF1FBB1F661F771F881F915092
:103C60005040A9F79E3F510570F05CCFA6CF5F3F53
:103C7000ECF3983EDCF3869577956795B795F795C5
:103C8000E7959F5FC1F7FE2B880F911D969587954D
:103C900097F9089523DF880B990B0895629FD0014F
:103CA000739FF001829FE00DF11D649FE00DF11DF7
:103CB000929FF00D839FF00D749FF00D659FF00DA6
:103CC0009927729FB00DE11DF91F639FB00DE11D93
:103CD000F91FBD01CF0111240895AA1BBB1B51E19F
:103CE00007C0AA1FBB1FA617B70710F0A61BB70B6C
:103CF000881F991F5A95A9F780959095BC01CD0111
:103D0000089597FB092E07260AD077FD04D0E5DF3A
:103D100006D000201AF4709561957F4F0895F6F74C
:103D2000909581959F4F0895A1E21A2EAA1BBB1B67
:103D3000FD010DC0AA1FBB1FEE1FFF1FA217B30777
:103D4000E407F50720F0A21BB30BE40BF50B661F8D
:103D5000771F881F991F1A9469F760957095809551
:103D600090959B01AC01BD01CF010895EE0FFF1F9F
:103D70000590F491E02D09942F923F924F925F921B
:103D80006F927F928F929F92AF92BF92CF92DF926B
:103D9000EF92FF920F931F93CF93DF93CDB7DEB7D0
:103DA000CA1BDB0B0FB6F894DEBF0FBECDBF099464
:103DB0002A88398848885F846E847D848C849B84BB
:103DC000AA84B984C884DF80EE80FD800C811B81C9
:103DD000AA81B981CE0FD11D0FB6F894DEBF0FBEF8
:0A3DE000CDBFED010895F894FFCF68
:103DEA004F7754696D65722064656275672E2E2E51
:103DFA000054696D65206E6F7420736574002A2AF9
:103E0A002A2A2A2052554E4E494E473A2068656C56
:103E1A006C6F5F6E6F64652E696E6F0A00436F6E1A
:103E2A006669673A200020636F6E666967730043AC
:103E3A004F4E4649473A207468652073697A65206F
:103E4A006F662074686520636F6E66696720666FA7
:103E5A00722074686520007468206D6F64756C65E3
:103E6A0020697320746F6F206C6172676520280067
:103E7A002076732E2000206D617829002020736936
:103E8A007A653A2000202043524320646F657320EC
:103E9A006E6F74206D617463682100202043524361
:103EAA00206D6174636865732100436F6E6669678C
:103EBA00204C6F673A20307800436F6E666967203E
:103ECA004C6F673A20696E697420746F207365724B
:103EDA0069616C00436F6E666967204E65743A20AB
:103EEA006E6F64655F69643D002020726564756366
:103EFA00696E6720747820706F77657220616E64CE
:103F0A00207278206761696E0054696D6520696E58
:103F1A00697469616C697A6564003078004F775416
:103F2A00656D702068617320002073656E736F720F
:103F3A00730023003A200046206D696E3A002C0077
:103F4A00206D61783A004E65772073656E736F72E3
:103F5A00733A0020004D697373696E672073656E4A
:103F6A00736F72733A006E616E00696E66006F76E7
:103F7A0066002E002000850500000403E903E20321
:103F8A0033040000022C01000000000000890593A0
:103F9A0011ED04F3040E05F604FCFF0000E904EF3A
:103FAA00040A05F50400000000DC05DE055D06E0F4
:103FBA00050000000048084A084C085108000000A3
:103FCA00006C086E087408750807000300010000F9
:103FDA000000000000EE1093118410B5109510DE59
:043FEA001034025637
:00000001FF
