:100000000C9454020C9423200C9450200C947C02E9
:100010000C947C020C947C020C947C020C947C0268
:100020000C947C020C947C020C947C020C947C0258
:100030000C947C020C947C020C947C020C947C0248
:100040000C9408120C947C020C9423130C947113DE
:100050000C947C020C947C020C947C020C947C0228
:100060000C947C020C947C022A2A2A2A2A205255BB
:100070004E4E494E473A2068656C6C6F5F6E6F64F8
:10008000652E696E6F002A2A2A2A2A205345545564
:10009000503A2068656C6C6F5F6E6F64652E696E98
:1000A0006F00206E6F7420666F756E6420696E201D
:1000B000636F6E6669675F7265616400436F6E6649
:1000C00069673A206D6F64756C652000206E6F74EF
:1000D00020666F756E6420696E20636F6E66696757
:1000E0005F777269746500436F6E6669673A206D69
:1000F0006F64756C6520002020435243206D61744D
:10010000636865732100202043524320646F657348
:10011000206E6F74206D61746368210020627974B1
:10012000657300206D617829002076732E2000749D
:1001300068206D6F64756C6520697320746F6F2023
:100140006C61726765202800434F4E4649473A204C
:100150007468652073697A65206F6620746865200D
:10016000636F6E66696720666F7220746865200031
:1001700020636F6E666967732000436F6E66696700
:100180003A20002074696D65002065746800207253
:1001900066313200206C6364002073657269616CA3
:1001A00000436F6E666967204C6F673A00202072CB
:1001B00065647563696E6720747820706F77657207
:1001C00020616E64207278206761696E0020757509
:1001D00069643D3078002067726F75705F69643DB7
:1001E00000436F6E666967204E65743A206E6F64D7
:1001F000655F69643D00436F6E6669673A20004E33
:1002000065743A207570646174696E67206E6F64FE
:10021000655F696420746F20004E65743A207365D1
:100220006E64696E6720616E6E6F756E63656D6575
:100230006E740054696D6520696E697469616C69DA
:100240007A6564004F57543A20476F6F64206461A9
:10025000746120666F7220004F57543A20426164E7
:10026000206461746120666F7220004F57543A20F9
:1002700042616420435243202020666F7220004375
:100280006F6E666967204F7754656D703A207265AE
:1002900073746F7265642061646472732066726F38
:1002A0006D20454550524F4D00206D61783A0073E6
:1002B0002C206D696E4D6178436F756E743A002025
:1002C00073656E736F72732C206D696E4D61785417
:1002D000696D65723A004F7754656D70206861737F
:1002E00020002073656E736F7273004F7754656DD5
:1002F00070207265616479207769746820004F7797
:1003000054656D70204D697373696E672073656EF7
:10031000736F72733A004F7754656D70204E657736
:100320002073656E736F72733A20202020004F7720
:1003300054656D7020736574757020737461727488
:10034000696E6720776974683A00005EBCE2613FBD
:10035000DD83C29C7E20A3FD1F419DC3217FFCA2A3
:10036000401E5F01E3BD3E6082DC237D9FC1421CD5
:10037000FEA0E1BF5D0380DE3C62BEE0025CDF8187
:10038000633D7C22C09E1D43A1FF4618FAA4277935
:100390009BC584DA3866E5BB5907DB856739BAE463
:1003A00006581947A5FB7826C49A653BD987045A95
:1003B000B8E6A7F91B45C6987A24F8A6441A99C747
:1003C000257B3A6486D85B05E7B98CD2306EEDB3F5
:1003D000510F4E10F2AC2F7193CD114FADF3702E23
:1003E000CC92D38D6F31B2EC0E50AFF1134DCE9055
:1003F000722C6D33D18F0C52B0EE326C8ED0530D07
:10040000EFB1F0AE4C1291CF2D73CA947628ABF5B4
:1004100017490856B4EA6937D58B5709EBB53668E2
:100420008AD495CB2977F4AA4816E9B7550B88D614
:10043000346A2B7597C94A14F6A8742AC896154BC6
:10044000A9F7B6E80A54D7896B35000000002400EC
:1004500027002A0000000000250028002B000000D3
:1004600000002300260029000404040404040404FA
:10047000020202020202030303030303010204084F
:1004800010204080010204081020010204081020FE
:100490000000000700020100000304060000000045
:1004A000000000007603DD1411241FBECFEFD8E05A
:1004B000DEBFCDBF11E0A0E0B1E0ECEAF7E402C09E
:1004C00005900D92A83FB107D9F714E0A8EFB1E06D
:1004D00001C01D92AD3CB107E1F714E0C8EAD4E0D9
:1004E00004C02297FE010E949923C43AD107C9F79C
:1004F0000E9433150C94D4230C940000EF92FF92C9
:100500000F93DF93CF93CDB7DEB760970FB6F89414
:10051000DEBF0FBECDBFA82F002309F461C07E014E
:100520000894E11CF11C88E0F70111928A95E9F723
:1005300029833A834B835C836D837E83AF83988763
:1005400080E2801BE82FFF27E7FDF0954D815E815B
:100550006F817885181684F01D861E861F86188A7E
:10056000882799278E1B9F0B04C076956795579512
:1005700047958A95D2F728C0202F332727FD30953D
:10058000DB01CA01022E04C0B695A7959795879501
:100590000A94D2F78D879E87AF87B88B04C0440F2B
:1005A000551F661F771FEA95D2F789819A81AB8123
:1005B000BC8104C0B695A795979587952A95D2F7E3
:1005C000482B592B6A2B7B2B49875A876B877C8753
:1005D00029853A854B855C856D857E85AF859889B3
:1005E0008A2F60960FB6F894DEBF0FBECDBFCF91B5
:1005F000DF910F91FF90EF9008950F931F93CF938A
:10060000DF93689F8001699F100D789F100D112462
:10061000C8010E94661FEC01009729F060E070E0BD
:10062000A8010E942203CE01DF91CF911F910F916B
:100630000895FB01DC0102C001900D924150504031
:10064000D8F70895DC0101C06D9341505040E0F7A8
:100650000895A0E0B0E0EFE2F3E00C94A7237C0162
:10066000EB018A01690109C0CE012196F6010995C5
:10067000F70181937F010150104001151105A1F789
:10068000CDB7DEB7E8E00C94C323A0E0B0E0EBE424
:10069000F3E00C94A723EC017B018A01690109C0F6
:1006A000CE012196F70161917F01F6010995015074
:1006B000104001151105A1F7CDB7DEB7E8E00C94A5
:1006C000C323DF92EF92FF920F931F93D72E7A01ED
:1006D0008C01FA010995C80101966D2DF701099564
:1006E0001F910F91FF90EF90DF90089588EF91E0B8
:1006F00064ED41E00E9422088BE193E00E948B0AA6
:1007000080E293E00E945F0610926E0310927103E4
:100710001092740385E793E064E042E00E94E111E7
:1007200082E080939D031092A0031092A103109287
:10073000A2031092A3038091990190919A010097CE
:1007400019F480E090E001C0049690939E0180939C
:100750009D0108950F931F9388EF91E00E94220A54
:10076000882391F08DE993E061E00E94A01A0E9435
:1007700083046AE070E080E090E00E9484128DE9DA
:1007800093E061E00E947D1A85E793E064E10E94B6
:10079000B70D82E793E06AE57EE10E94DE1A8823C6
:1007A00009F44EC08091990190919A0160E071E046
:1007B0000E942A170091990110919A0185E793E010
:1007C00060E00E94C70AAB01BC01C80122E030E032
:1007D0000E9411188091990190919A0167E071E04F
:1007E0000E942A170091990110919A0185E793E0E0
:1007F00060E00E94E60ABC01C8014AE050E00E94A5
:100800005A168091990190919A016BE071E00E94D3
:100810002A170091990110919A0185E793E060E011
:100820000E94150BBC01C8014AE050E00E945A1614
:100830008091990190919A016EE071E00E941418E4
:100840000E94391F823081F08CE693E060E67AEEF8
:100850000E94DE1A882341F08091990190919A01BB
:1008600060E171E00E9414181F910F9108950F9399
:100870001F930CE314E0C80140E051EE60E070E02B
:100880000E94AC13C80166E870E00E94B7150DE93C
:1008900013E0C80163E00E94A01A8BE991E00E9476
:1008A00015056091990170919A0185E793E00E9486
:1008B0004B0F8CE693E068EE73E00E94C21A8091C1
:1008C000990190919A0168E670E00E94B715C801FD
:1008D00063E00E947D1A1F910F9108959C01F99980
:1008E000FECF32BD21BDF89A80B508959C01F999DB
:1008F000FECF1FBA32BD21BD60BD0FB6F894FA9A83
:10090000F99A0FBE089580916904882311F13091FE
:100910006A042091A603E091A403F091A50390E05E
:1009200016C0A191B19112968C911297831771F410
:1009300040916904ED91FC91119741500280F3813F
:10094000E02DCD016BE674E0099508959F5F921745
:1009500040F308951F93182F5091A603A091A4036C
:10096000B091A50320E230E090E047C0ED91FD9109
:1009700082814381811709F03DC0C90150E026E71B
:1009800034E00E9445034091A7035091A803FA0167
:10099000329720E030E06FEF7FEF21C0F999FECF72
:1009A000205E3F4F32BD21BDF89A80B56827862F63
:1009B00082958627082E869586958025082E869511
:1009C00080258770062E672F869507948795702D52
:1009D000682706948795702568272F5130402E1779
:1009E0003F0708F4DBCFCA014E9646E754E00E9469
:1009F000610319C0240F311D9F5F951708F4B6CF0E
:100A00008CE394E067EE70E00E946C158CE394E058
:100A1000612F4AE050E00E9488168CE394E06CEC71
:100A200070E00E94B7151F9108958F929F92AF9228
:100A3000BF92DF92EF92FF920F931F93DF93CF93BA
:100A4000CDB7DEB7C054D0400FB6F894DEBF0FBEAE
:100A5000CDBF5C0120E0322F3F5FE22FF0E0EE0FD0
:100A6000FF1FEA0DFB1D80819181892B11F0232F3F
:100A7000F2CF2093A603B092A503A092A4038CE327
:100A800094E06AE771E00E946C158CE394E0609159
:100A9000A6034AE050E00E9488168CE394E060E7E9
:100AA00071E00E946C151092A8031092A703EE2427
:100AB0004EC00E2D10E0F801EE0FFF1FEA0DFB1DDA
:100AC0000190F081E02DF38080E48F15A8F58CE390
:100AD00094E00E9497158CE394E068E471E00E9432
:100AE0006C150F5F1F4F8CE394E0B8014AE050E0B3
:100AF0000E94F8168CE394E06FE271E00E946C159E
:100B00008CE394E06F2D4AE050E00E9488168CE35D
:100B100094E069E271E00E946C158CE394E060E47B
:100B200070E04AE050E00E94F8168CE394E063E243
:100B300071E00E94B7150AC08091A7039091A803A5
:100B40008F0D911D9093A8038093A703E394809148
:100B5000A603E81608F4ADCF6091A7037091A8032F
:100B60006E5F7F4F7093A8036093A7038CE394E0BC
:100B70004AE050E00E945A168CE394E06CE171E088
:100B80000E94B7156091A7037091A80320E030E0A0
:100B90004FEF5FEF21C0F999FECF205E3F4F32BD8E
:100BA00021BDF89A80B54827842F82958427082E86
:100BB000869586958025082E869580258770042E3B
:100BC000452F869507948795502D4827069487953D
:100BD000502548272F5130402617370708F4DBCF20
:100BE000452B01F18CE394E066E071E00E94B715BB
:100BF00010E013C0E12FF0E0EE0FFF1FEA0DFB1D28
:100C0000A081B181ED91FC9111970190F081E02DCF
:100C1000CD0160E070E009951F5F8091A603181771
:100C200048F337C08CE394E067EF70E00E94B7159B
:100C300090E2E92EF12CDD244E010894811C911CD8
:100C400024C00D2D10E0000F111F0A0D1B1DD8012F
:100C5000ED91FC914381C401B70150E02EE634E0F0
:100C60000E942903F801A081B181ED91FC911197B7
:100C70000190F081E02DCD01B4010995D801ED91ED
:100C8000FC918381E80EF11CD3948091A603D816C1
:100C9000C0F2C05CDF4F0FB6F894DEBF0FBECDBF11
:100CA000CF91DF911F910F91FF90EF90DF90BF9058
:100CB000AF909F908F900895089508950895FC0136
:100CC0001382128282EB91E0918380830E9695834A
:100CD0008483E55BFF4F1082EB54F04082E0868313
:100CE00081E0878380E081608087089504970E9477
:100CF0007A060895CF93DF93EC01FB01BC01685F96
:100D00007F4F309719F08081888706C080E085602A
:100D1000888782E00E94AA048CE394E061EA71E093
:100D20000E946C15888580FF06C08CE394E069E919
:100D300071E00E946C15888581FF06C08CE394E009
:100D400064E971E00E946C15888582FF06C08CE31F
:100D500094E06EE871E00E946C15888583FF06C000
:100D60008CE394E069E871E00E946C15888584FF4B
:100D700006C08CE394E063E871E00E946C158CE39C
:100D800094E00E949715DF91CF9108950F931F93E0
:100D9000CF93DF93EC018C01055B1F4FD8018C9141
:100DA000FE01E80FF11D1186888580FF16C0BE0187
:100DB000675F7F4F8CE394E00E942A17F8018081DF
:100DC000882359F0FE01E80FF11D80858A3029F44F
:100DD0008CE394E06DE00E948F15888582FF23C02C
:100DE00004C088EF91E00E94220A88EF91E00E94FF
:100DF00050070097B1F3FC0182E081938E01055BFF
:100E00001F4FD8014C919E01275F3F4FCF01B90181
:100E100050E00E941903F80160816F5F88EF91E054
:100E200041E00E94180A888583FF0EC0E881F9819D
:100E3000BE01675F7F4FDE01A55BBF4F0480F58178
:100E4000E02DCE014C910995C55BDF4F1882DF91F3
:100E5000CF911F910F9108951F93CF93DF93EC01D2
:100E6000162FC55BDF4F8881CB54D040813418F0FA
:100E7000CE010E94C606DE01A55BBF4F8C91FE012C
:100E8000E80FF11D11878F5F8C931A3019F4CE0192
:100E90000E94C60681E090E0DF91CF911F910895F6
:100EA000FC018091A9038823A1F08091AA038E31CF
:100EB00081F0EC5EFE4F9081E451F140943048F4B3
:100EC00084E4989F900111242A5F3F4F2E0F3F1F0B
:100ED00002C020E030E0C9010895EF92FF920F9325
:100EE0001F938C016093AA038CE394E061EE71E0A0
:100EF0000E946C158CE394E06091AA034AE050E0F4
:100F00000E9488168CE394E066ED71E00E946C15F7
:100F100081E2E82E81E0F82EE00EF11E8CE394E0F1
:100F2000F70160814AE050E00E9488168CE394E06B
:100F30006DEC71E00E946C15055E1E4FF80160813A
:100F400071818CE394E040E150E00E946B16809147
:100F5000AA0363E0F70140810E94051F095F1F4F4C
:100F6000F8018081882371F08CE394E06DEA71E0F0
:100F70000E94B71587E598E90E94301B82EB94E93F
:100F80000E94301B1F910F91FF90EF9008950F93D7
:100F90001F93DF93CF9300D000D0CDB7DEB78C0185
:100FA000FB01443009F045C0055E1E4F20813181B0
:100FB000D8018D919C910B51114028173907C9F523
:100FC0008381882319F0813031F403C01092A90382
:100FD00002C08093A90392818091AA03891749F1E5
:100FE00082818093AA038CE394E06FEF71E00E940A
:100FF0006C158CE394E06091AA034AE050E00E94F3
:101000009A16C8016091AA030E946D078091AA03F5
:1010100089838091A9038A83055E1E4FF801808130
:1010200091819C838B8381E0BE016F5F7F4F0E9423
:10103000AA040F900F900F900F90CF91DF911F9106
:101040000F910895CF93DF93EC0188EC91E09983A1
:101050008883CF5DDE4F69934883C252D1400E949E
:101060005012FE01E35EFE4F60837183828393839F
:10107000611571058105910541F481E090E0A0E0E2
:10108000B0E080839183A283B38381E08A8384E08C
:101090008B83DF91CF9108950F931F93DF93CF93AD
:1010A00000D00F92CDB7DEB78C010E94491C882377
:1010B00009F448C0FE01319683E0DF011D928A9554
:1010C000E9F781E08983055E1E4FD8018D919C91DF
:1010D0000B5111409B838A838091AA03BF0143E097
:1010E0000E94491E0E9450129B01AC018091AA03EC
:1010F0008E3129F060E27EE480E090E004C064EF8D
:1011000071E080E090E0DC01CB01820F931FA41F0F
:10111000B51FF801E35EFE4F80839183A283B38302
:101120000097A105B10541F481E090E0A0E0B0E0B6
:1011300080839183A283B3838CE394E069E172E0BE
:101140000E94B7150F900F900F90CF91DF911F91D4
:101150000F910895CF92DF92EF92FF920F931F931A
:10116000DF93CF93CDB7DEB77C01CDB6DEB6FB0102
:101170008B016115710509F180818E31F1F08CE3ED
:1011800094E066EF71E00E946C158CE394E0F80146
:1011900060814AE050E00E9488168CE394E06DE1A3
:1011A00071E00E942A17F80161818CE394E070E0FD
:1011B0004AE050E00E940B1719C000D000D00DB7D4
:1011C0001EB70F5F1F4F8EE1EDB7FEB78183F801A9
:1011D00011820E945E122AEA35E526273727F80198
:1011E0003383228381E0B8010E94AA04F801608160
:1011F0006093AA0381818093A9038BE191E0E80EBB
:10120000F91E82819381F7019183808385EE9EEFA1
:10121000E80EF91EC7010E946D07C7010E944C0825
:101220000FB6F894DEBE0FBECDBECF91DF911F91F9
:101230000F91FF90EF90DF90CF9008951F93CF9381
:10124000DF93EC01CC5EDE4F8881C451D14088230E
:10125000E1F11C81CB5EDE4F8881C551D14090E029
:1012600007970CF01F7DBE016A5F7F4F812F4D8174
:101270000E94491E15FD1BC0CC5EDE4F8881C45103
:10128000D140823050F0DE011496FE01E85BFF4F42
:101290008CEC01900D928150E1F7FE01EC5EFE4F67
:1012A000808181508083CB5EDE4F18820EC0FE01AC
:1012B000EB5EFE4F80818F5F80830E945012CA5E7A
:1012C000DE4F688379838A839B83DF91CF911F915F
:1012D00008950F931F93CF93DF93EC018C01035E6E
:1012E0001E4FF80180819181A281B3810097A105F1
:1012F000B10509F452C00E945012F80120813181D9
:1013000042815381621773078407950708F445C02B
:101310008091AA03813009F440C0CE010E944C089C
:101320004BC00E94491C882309F43FC0F80180810A
:1013300060E070E040E00E94491EF80110823CC06D
:10134000CB5EDE4F8881C551D140882329F40E94AD
:10135000491C882389F11DC00E945012CA5EDE4FCD
:10136000288139814A815B81C651D1402C593F4F38
:101370004F4F5F4F6217730784079507E8F00E948D
:10138000491C8823C9F08CE394E06FE171E00E946E
:101390001418CE010E941E090FC08E01065E1E4F5A
:1013A000F8018081882309F0BCCFCC5EDE4F8881B4
:1013B000C451D140882321F6DF91CF911F910F9125
:1013C0000895CF93DF93EC01DC01AC5EBE4F2C910E
:1013D000243058F530E084E490E0289FF001299F04
:1013E000F00D389FF00D1124EC0FFD1F65838C91DB
:1013F00090E0FC0154E0EE0FFF1F5A95E1F7E80F73
:10140000F91F3196EE0FFF1FEE0FFF1FEC0FFD1FB0
:1014100040838C918F5F8C93813039F40E94491CFA
:10142000882319F0CE010E941E09DF91CF91089503
:101430009C01411140E28091AA03482BC9010E94FE
:10144000E1090895CF93DF93EC010E944C1B8823A0
:1014500009F45AC08091650490916604892B09F0C3
:101460004FC08091680487FD16C08091680485FF95
:101470000FC0909168049F718091AA03981711F48E
:10148000892F02C0892F8064C65EDE4F8068888302
:1014900080916A043DC08091680485FD35C020912B
:1014A000680430E02F7130708091AA0390E0281713
:1014B000390751F5CC5EDE4F9881C451D140992354
:1014C00019F1CB5EDE4F8881C551D1408823E1F010
:1014D000923050F0DE011496FE01E85BFF4F8CEC79
:1014E00001900D928150E1F7FE01EC5EFE4F80818C
:1014F00081508083CB5EDE4F1882C551D14004C03D
:101500008091650490916604CE010E94690980E093
:10151000DF91CF910895FC0180ED91E0918380836C
:10152000148283E0828381E083830895FC01DB01E0
:101530006115710519F08C91848305C0349683E0A0
:10154000BF010E94AA048CE394E066E271E00E946D
:10155000141808951F93CF93DF93EB01443098F054
:101560000E94391F182F688179818A819B810E948E
:101570003C1F112341F48091990190919A0163E3FA
:1015800072E00E94B715DF91CF911F910895FC0181
:101590008289681728F070E060E090EC8FE70FC058
:1015A000862F90E0880F991F880F991F038CF48D68
:1015B000E02DE80FF91F7081618192818381272FCF
:1015C000362F492F582FB901CA010895FC0182898D
:1015D000681718F020E030E826C086E0689FC00158
:1015E000112404A0F5A1E02DE80FF91F908181815D
:1015F00098170CF4892F928198170CF4892F9381F6
:1016000098170CF4892F9481282F98170CF4292F00
:101610009581822F92170CF4892F282F332727FDCD
:101620003095285A3F4FC9010895FC0182896817F7
:1016300018F020E030E826C086E0689FC001112441
:1016400006A0F7A1E02DE80FF91F9081818189178D
:101650000CF4892F928189170CF4892F93818917B3
:101660000CF4892F9481282F89170CF4292F958148
:10167000822F29170CF4892F282F332727FD309527
:10168000285A3F4FC90108950895EF92FF920F9392
:101690001F938C0154E0E52EF12CE80EF91EC701D2
:1016A0000E943E19C7010E941819C70164E441E075
:1016B0000E94D81882E0F801838B1F910F91FF9050
:1016C000EF900895CF92DF92EF920F931F93DF93E5
:1016D000CF93CDB7DEB728970FB6F894DEBF0FBE15
:1016E000CDBF09831A832B833C834D835E836F8335
:1016F00078878C010C5F1F4FC8010E943E196E0154
:101700000894C11CD11CC801B6010E941D19C80152
:101710006EE440E00E94D818C80160E040E00E94FA
:10172000D818C80160E040E00E94D818E294EE0C9E
:1017300060EEE622EA94C8016E2D40E00E94D818BF
:10174000C8010E943E19C801B6010E941D19C801B6
:1017500068E441E00E94D8186AE070E080E090E020
:101760000E948412C8010E94271828960FB6F89488
:10177000DEBF0FBECDBFCF91DF911F910F91EF90D4
:10178000DF90CF900895DC01AB016115710539F14F
:101790005896ED91FC91599780819181892B928186
:1017A000892B9381892B9481892B9581892B968113
:1017B000892B9781892B99F452962C9130E073E014
:1017C000220F331F7A95E1F7CF01BA01A9010E94D8
:1017D00019038CE394E06FE772E00E94B715089557
:1017E000CF92DF92EF92FF920F931F93DF93CF93ED
:1017F000CDB7DEB728970FB6F894DEBF0FBECDBFCA
:101800006B01E982FA820B831C832D833E834F8315
:101810005887CB0169E371E00E942A178E010F5FA0
:101820001F4FF9E0EF2EF12CEC0EFD1EF801608148
:1018300070E0E4E075956795EA95E1F7C60140E14F
:1018400050E00E94F816F80161918F0170E06F700E
:101850007070C60140E150E00E94F8160E151F0599
:1018600029F728960FB6F894DEBF0FBECDBFCF91F3
:10187000DF911F910F91FF90EF90DF90CF9008952F
:101880008F929F92AF92BF92CF92DF92EF92FF9290
:101890000F931F93DF93CF93CDB7DEB76C970FB63F
:1018A000F894DEBF0FBECDBF4C010D8B1E8B2F8B6E
:1018B000388F498F5A8F6B8F7C8F14E0E12EF12C7B
:1018C000E80EF91EC7010E943E19C701BE016B5EFA
:1018D0007F4F0E941D19C7016EEB40E00E94D8188F
:1018E0008E01075F1F4F6801B2E1AB2EB12CAC0E29
:1018F000BD1EC7010E948718F80181938F01EA1568
:10190000FB05B9F7C60168E00E944218998989175A
:10191000E1F08CE394E06BE672E00E946C15ED88D8
:10192000FE880F89188D298D3A8D4B8D5C8DC401F1
:101930006CE374E00E94F00B8CE394E06CE371E0E4
:101940000E942A17F601E08028C08985882319F4AF
:101950008A85882331F08E858F3F19F488898031FC
:1019600079F18CE394E068E572E00E946C15ED88F3
:10197000FE880F89188D298D3A8D4B8D5C8DC401A1
:101980006CE374E00E94F00B8CE394E06CE371E094
:101990000E942A17FE013996E984F18002811381A1
:1019A0002481358146815781C4016CE374E00E9433
:1019B000F00B8CE394E00E94971540E050E84CC097
:1019C0008CE394E064E472E00E946C15ED88FE887C
:1019D0000F89188D298D3A8D4B8D5C8DC4016CE378
:1019E00074E00E94F00B8CE394E06CE371E00E94E1
:1019F0002A17FE013996E984F1800281138124813E
:101A0000358146815781C4016CE374E00E94F00B7C
:101A10008CE394E00E9497159A8580E0298530E058
:101A2000282B392BDE011196ECEDF1E088E00190D6
:101A30000D928150E1F7ED85F0E0E076F070A4E0E2
:101A4000F695E795AA95E1F7EC0FFD1F41815281CC
:101A50004095509542235323CA016C960FB6F894D3
:101A6000DEBF0FBECDBFCF91DF911F910F91FF90D1
:101A7000EF90DF90CF90BF90AF909F908F900895A0
:101A80008F929F92AF92BF92CF92DF92EF92FF928E
:101A90000F931F93CF93DF93EC01D22EC32EB42E5E
:101AA000A52E962E872E0E94400C9C0180E82030A7
:101AB000380779F5CE012D2D3C2D4B2D5A2D692D52
:101AC000782D0E94400C9C0180E82030380709F5F1
:101AD000CE012D2D3C2D4B2D5A2D692D782D0E9498
:101AE000400C9C0180E82030380799F4CE012D2D60
:101AF0003C2D4B2D5A2D692D782D0E94400C9C01B8
:101B000080E82030380729F4E0E070E080EC6FE7EF
:101B10001BC0B901882777FD8095982F0E94142259
:101B200020E030E040E85DE30E94C82226E636E689
:101B300046EE5FE30E94C82220E030E040E052E43D
:101B40000E941121E62F692F2E2F372F482F562F55
:101B5000B901CA01DF91CF911F910F91FF90EF90D2
:101B6000DF90CF90BF90AF909F908F9008952F926D
:101B70003F924F925F926F927F928F929F92AF921D
:101B8000BF92CF92DF92EF92FF920F931F93CF936A
:101B9000DF934C01762E4F9660E67AEE0E94DE1AB5
:101BA000882309F445C0D40192968D919C91939716
:101BB000019693969C938E939297803F9105C0F1E6
:101BC00093961C921E92929760E070E040E050E085
:101BD00026C0E901D4019496ED91FC919597E40F0C
:101BE000F51F9E0121503040DF01AC0FBD1FE20FF9
:101BF000F31F80818C93D4019696ED91FC91979779
:101C0000E40FF51FCE0FDF1FE20FF31F80818883E3
:101C100021153105F1F66F5F7F4F4A5F5F4FF40189
:101C2000828990E0681779071CF4C5E0D0E0D2CF34
:101C30000E9450125B016C01D40153968C9181304B
:101C400021F0823009F013C128C07720D9F0F401C7
:101C500084899589A689B78986017501E81AF90AE8
:101C60000A0B1B0B672D70E080E090E028EE33E05C
:101C700040E050E00E942F236E157F0580079107FA
:101C800008F0F5C0D4015496AD92BD92CD92DC928D
:101C90005797C4010E94450BEAC0F40184899589D5
:101CA000A689B789A81AB90ACA0ADB0AFDEBAF16DA
:101CB000B104C104D10408F4DAC0BB2471E0272EBA
:101CC000312C0F2EF0E04F2EF0E05F2EF0EC6F2E57
:101CD000FFE77F2EF02DC3C0CB2CDD24C60163E0CF
:101CE000880F991F6A95E1F7D4015896ED91FC9100
:101CF0005997E80FF91F00811181228133814481B6
:101D0000558166817781802F812B822B832B842BB9
:101D1000852B862B872B09F4A1C0C4010E94400D9E
:101D20007B018C01E1010B2C02C0CC0FDD1F0A945A
:101D3000E2F7A80197010E942B23F401258D368D2F
:101D40008823D9F0CE0182239323892B81F0CC0CF8
:101D5000DD1CCC0CDD1CD4015B96ED91FC915C97F5
:101D6000EC0DFD1D408251826282738277C02C2B64
:101D70003D2BF401368F258F71C0CE018095909553
:101D800028233923D4015E963C932E935D97C60198
:101D9000880F991F880F991F5B96ED91FC915C97B6
:101DA000E80FF91FE082F18202831383C801B701B3
:101DB00020E030E040E050E00E94C42288234CF054
:101DC000C801B70120E030E040E05FE30E9411214C
:101DD00008C0C801B70120E030E040E05FE30E94A6
:101DE00010210E94E121162F1855E601CC0FDD1FAE
:101DF000CC0DDD1DCC0FDD1FD4019496ED91FC912F
:101E00009597EC0FFD1F8581803859F4212F3327DA
:101E100027FD3095CF01B90146E050E00E94220332
:101E200004C0808118170CF41083D4019696ED91AC
:101E3000FC919797EC0FFD1F8581803859F4212F75
:101E4000332727FD3095CF01B90146E050E00E94CD
:101E5000220304C0808181170CF41083B394F40131
:101E60008289B81608F438CF81E0838B01C080E006
:101E7000DF91CF911F910F91FF90EF90DF90CF9066
:101E8000BF90AF909F908F907F906F905F904F909A
:101E90003F902F9008952F923F924F925F926F92B2
:101EA0007F928F929F92AF92BF92CF92DF92EF92EA
:101EB000FF920F931F93DF93CF93CDB7DEB7649755
:101EC0000FB6F894DEBF0FBECDBF3C012B01CB0196
:101ED0006EE273E00E946C15DD2420C0C20165E54E
:101EE00071E00E942A178D2D90E013E0880F991F52
:101EF0001A95E1F7D3015896ED91FC915997E80FA7
:101F0000F91FE080F18002811381248135814681AF
:101F10005781C301B2010E94F00BD394F30182896F
:101F2000D816E0F2C2010E94971593012C5F3F4F33
:101F30003D872C87C9010E9435181B861A862224EA
:101F400033241986E3C0CE01019667E00E9442184F
:101F500019813A813E879B819F87AC81A88BBD8187
:101F6000B98BEE81EA8BFF81FB8B28852C8B882E29
:101F70009924AA24BB24CC24DD247601212F492FC7
:101F80005A2F6B2F7E2F8F2F9C8908E30E947E0291
:101F9000821609F0BBC0931609F0B8C0A41609F068
:101FA000B5C0B51609F0B2C0C61609F0AFC0D71655
:101FB00009F0ACC0E81609F0A9C0F91609F0A6C0EE
:101FC000D30152960C91DD2420E030E04BC0D301C8
:101FD0005896ED91FC915997E20FF31F8081918102
:101FE0004281538164817581A681E781285F3F4FDB
:101FF0001817B9F5BE85B917A1F5FF85F41789F54E
:102000008889851771F59989961759F5BA89B7178F
:1020100041F5FB89FA1729F58C898E1711F5C20154
:1020200067E571E00E942A17E980FA800B811C8124
:102030002D813E814F815885C301B2010E94F00B72
:10204000C2010E94971581E090E002C0880F991F9D
:10205000DA94E2F7AA85BB85A82BB92BBB87AA87A0
:1020600052C0D394D01608F4B2CFDD2420E030E083
:1020700047C0D3015896ED91FC915997E20FF31F99
:10208000285F3F4F80819181892B9281892B938199
:10209000892B9481892B9581892B9681892B978116
:1020A000892B69F51083BE85B1832F8522833889FA
:1020B0003383898984839A899583AB89A683BC8974
:1020C000B783C20163E671E00E942A17E980FA80B3
:1020D0000B811C812D813E814F815885C301B20146
:1020E0000E94F00BC2010E94971581E090E002C0AF
:1020F000880F991FDA94E2F7282A392A04C0D3946A
:10210000D01608F4B6CFE985EF5FE9878C859D8509
:10211000BE016F5F7F4F0E948919882309F013CF9A
:102120008C859D850E943518FF2420C08F2D90E05E
:10213000B3E0880F991FBA95E1F7D3015896ED9156
:10214000FC915997E80FF91F008111812281338199
:102150004481558166817781023211F0083229F479
:10216000C301AAE0EA2E0E94620BF394F301828974
:10217000F816E0F221143104B9F1C20166E173E00E
:102180000E946C15DD2429C0C1010D2C02C096955A
:1021900087950A94E2F780FF1FC0C20165E571E0F0
:1021A0000E942A178D2D90E0F3E0880F991FFA9571
:1021B000E1F7D3015896ED91FC915997E80FF91F7B
:1021C000E080F1800281138124813581468157812D
:1021D000C301B2010E94F00BD394F3018289D81697
:1021E00098F2C2010E949715CA84DB84C228D328C2
:1021F000C094D09481E090E0D30152960C9002C03C
:10220000880F991F0A94E2F70197C822D922C114B6
:10221000D104B9F1C2016EEF72E00E946C15BB24CB
:1022200029C0C6010B2C02C0969587950A94E2F747
:1022300080FF1FC0C20165E571E00E942A178B2D47
:1022400090E0E3E0880F991FEA95E1F7D3015896F3
:10225000ED91FC915997E80FF91FE080F180028120
:1022600013812481358146815781C301B2010E94C7
:10227000F00BB394F3018289B81698F2C2010E9460
:102280009715C2016BEE72E00E946C15C201D3017A
:1022900052966C914AE050E00E948816C20162EEAC
:1022A00072E00E94B715F301608D718D84E00E9489
:1022B000AA040E945012D30154966D937D938D937E
:1022C0009C935797C3010E94450B898564960FB66E
:1022D000F894DEBF0FBECDBFCF91DF911F910F915C
:1022E000FF90EF90DF90CF90BF90AF909F908F9036
:1022F0007F906F905F904F903F902F9008951F9325
:10230000CF93DF93EC01413108F040E14A8B1B8A07
:102310001E8E1D8E842F90E064E070E00E94FD020E
:102320008B8F9C8F8A8990E066E070E00E94FD02AE
:102330008CA39DA32A8916E0219F9001112460E8B7
:1023400070E0A9010E9422038A8990E066E070E0B3
:102350000E94FD028EA39FA32A89219F9001112430
:1023600060E870E0A9010E94220384E08A838A89E0
:1023700090E023E0880F991F2A95E1F78B838CE387
:1023800094E06FE671E00E942A178CE394E06A897A
:102390004AE050E00E9488168CE394E06EE771E01A
:1023A0000E942A178CE394E06B814AE050E00E947F
:1023B00088168CE394E00E949715DF91CF911F91CE
:1023C0000895EF92FF920F931F938C01F62EE42E47
:1023D00088ED91E0F80191838083C80104960E9402
:1023E0001F1AF80111A2C8016F2D4E2D0E947F11F6
:1023F000F801828990E068E070E00E94FD02F80137
:10240000808F918F128E1F910F91FF90EF90089502
:102410001F920F920FB60F9211242F933F938F9319
:102420009F93AF93BF938091AF039091B003A0911E
:10243000B103B091B2033091B3030196A11DB11D58
:10244000232F2D5F2D3720F02D570196A11DB11D93
:102450002093B3038093AF039093B003A093B10391
:10246000B093B2038091AB039091AC03A091AD0304
:10247000B091AE030196A11DB11D8093AB03909363
:10248000AC03A093AD03B093AE03BF91AF919F9106
:102490008F913F912F910F900FBE0F901F90189525
:1024A0008FB7F8942091AF033091B0034091B103FE
:1024B0005091B2038FBFB901CA0108959FB7F89434
:1024C0002091AB033091AC034091AD035091AE032A
:1024D00086B5A89B06C08F3F21F02F5F3F4F4F4F1F
:1024E0005F4F9FBF542F432F322F2227280F311DBC
:1024F000411D511D82E0220F331F441F551F8A9535
:10250000D1F7B901CA0108959B01AC017FB7F894D6
:102510008091AB039091AC03A091AD03B091AE0359
:1025200066B5A89B05C06F3F19F00196A11DB11DAE
:102530007FBFBA2FA92F982F8827860F911DA11D25
:10254000B11D62E0880F991FAA1FBB1F6A95D1F7C2
:10255000BC012DC0FFB7F8948091AB039091AC0300
:10256000A091AD03B091AE03E6B5A89B05C0EF3FC7
:1025700019F00196A11DB11DFFBFBA2FA92F982FE9
:1025800088278E0F911DA11DB11DE2E0880F991FB4
:10259000AA1FBB1FEA95D1F7861B970B885E934055
:1025A000C8F2215030404040504068517C4F2115C6
:1025B00031054105510571F60895019739F0880FED
:1025C000991F880F991F02970197F1F70895789442
:1025D00084B5826084BD84B5816084BD85B5826028
:1025E00085BD85B5816085BDEEE6F0E080818160C6
:1025F0008083E1E8F0E010828081826080838081C6
:1026000081608083E0E8F0E0808181608083E1EB9D
:10261000F0E0808184608083E0EBF0E08081816085
:102620008083EAE7F0E0808184608083808182603B
:102630008083808181608083808180688083109224
:10264000C100089508951F920F920FB60F921124A2
:102650002F933F934F938F939F93EF93FF9380918B
:10266000C00082FD1DC04091C6002091F40330914E
:10267000F5032F5F3F4F2F7330708091F6039091D9
:10268000F7032817390771F0E091F403F091F5038F
:10269000EC54FC4F40833093F5032093F40302C0C5
:1026A0008091C600FF91EF919F918F914F913F9143
:1026B0002F910F900FBE0F901F901895E091480436
:1026C000F0914904E05CFF4F81919191208131812B
:1026D000821B930B8F739070892B11F00E94221331
:1026E00008951F920F920FB60F9211242F933F93CC
:1026F0008F939F93EF93FF93209138043091390487
:1027000080913A0490913B042817390731F4809165
:10271000C1008F7D8093C10014C0E0913A04F09114
:102720003B04E850FC4F208180913A0490913B0497
:1027300001968F73907090933B0480933A0420939A
:10274000C600FF91EF919F918F913F912F910F9034
:102750000FBE0F901F901895AF92BF92DF92EF922D
:10276000FF920F931F93CF93DF93EC017A018B01BC
:10277000DD24403081EE580780E0680780E078076C
:1027800011F0DD24D39491E0A92EB12CEC89FD89C0
:10279000DD2069F0C50108A002C0880F991F0A94C6
:1027A000E2F7808360E079E08DE390E005C010827D
:1027B00060E874E88EE190E0A80197010E9475231B
:1027C00021503040404050405695479537952795C9
:1027D00080E12030380720F0DD2011F0DD24D6CF55
:1027E000E889F9893083EA89FB89208319A2EE8977
:1027F000FF89408121E030E0C9010C8C02C0880FC4
:10280000991F0A94E2F7482B4083EE89FF894081A3
:10281000C9010D8C02C0880F991F0A94E2F7482B5A
:102820004083EE89FF894081C9010E8C02C0880F68
:10283000991F0A94E2F7482B4083EE89FF89808133
:102840000F8C02C0220F331F0A94E2F72095282331
:102850002083DF91CF911F910F91FF90EF90DF9038
:10286000BF90AF900895DC011C96ED91FC911D97EF
:10287000E05CFF4F2191319180819181281B390BC0
:102880002F733070C9010895DC011C96ED91FC9105
:102890001D97E05CFF4F20813181E054F040DF0163
:1028A000AE5BBF4F8D919C9111972817390719F492
:1028B0002FEF3FEF07C08D919C91E80FF91F8081AA
:1028C000282F30E0C9010895DC011C96ED91FC91A0
:1028D0001D97E05CFF4F20813181E054F040DF0123
:1028E000AE5BBF4F8D919C9111972817390719F452
:1028F0002FEF3FEF10C08D919C911197E80FF91FBA
:1029000020818D919C91119701968F7390701196F3
:102910009C938E9330E0C9010895DC0191968C91CF
:102920009197882339F05496ED91FC9155978081C9
:1029300086FFF9CF91961C920895CF93DF93EC0117
:10294000EE85FF85E05CFF4F20813181E054F0404F
:102950002F5F3F4F2F733070DF01AE5BBF4F8D9104
:102960009C91119728173907D1F3E05CFF4F8081C4
:102970009181E054F040E80FF91F6083EE85FF85F8
:10298000E05CFF4F31832083EE89FF89208181E065
:1029900090E00F8C02C0880F991F0A94E2F7282B51
:1029A000208381E089A3EC89FD8980818064808314
:1029B00081E090E0DF91CF91089510923F04109252
:1029C0003E0488EE93E0A0E0B0E080934004909352
:1029D0004104A0934204B093430488EE91E09093A5
:1029E0003D0480933C0484EB93E0909349048093EE
:1029F000480488EF93E090934B0480934A0485EC5D
:102A000090E090934D0480934C0484EC90E090937C
:102A10004F0480934E0480EC90E090935104809397
:102A2000500481EC90E0909353048093520482EC24
:102A300090E0909355048093540486EC90E090933A
:102A400057048093560484E08093580483E0809375
:102A5000590487E080935A0485E080935B0481E009
:102A600080935C040895CF93DF930E94E7120E9445
:102A70003704CEE5D3E10E94AA032097E1F30E9438
:102A80005E13F9CFCF92DF92EF92FF920F931F93D5
:102A9000CF93DF937C016B018A01C0E0D0E00FC0CF
:102AA000D6016D916D01D701ED91FC910190F081FE
:102AB000E02DC7010995C80FD91F0150104001151D
:102AC000110571F7CE01DF91CF911F910F91FF900A
:102AD000EF90DF90CF900895EF92FF920F931F93A6
:102AE000CF93DF937C018B01C0E0D0E0F8010F5F52
:102AF0001F4F6491662359F0D701ED91FC9101902D
:102B0000F081E02DC7010995C80FD91FEFCFCE0185
:102B1000DF91CF911F910F91FF90EF900895DC010D
:102B2000ED91FC910190F081E02D09950895EF92CF
:102B3000FF920F931F938C01DC01ED91FC910190AA
:102B4000F081E02D6DE009957C01D801ED91FC91BB
:102B50000190F081E02DC8016AE009959C012E0DDD
:102B60003F1DC9011F910F91FF90EF900895EF92C3
:102B7000FF920F931F937C010E946C158C01C7017B
:102B80000E9497159C01200F311FC9011F910F91C1
:102B9000FF90EF900895CF93DF93EC0161157105DD
:102BA00019F420E030E00FC0DB010D900020E9F7C0
:102BB0001197A61BB70BE881F9810280F381E02D04
:102BC000AD0109959C01C901DF91CF9108954F9204
:102BD0005F927F928F929F92AF92BF92CF92DF923D
:102BE000EF92FF920F931F93DF93CF93CDB7DEB792
:102BF000A1970FB6F894DEBF0FBECDBF2C01742E87
:102C0000CB01223008F42AE019A231E2C32ED12CE4
:102C1000CC0EDD1E822E9924AA24BB24672D752F8D
:102C2000A50194010E94752379018A01C801B701A9
:102C3000A50194010E942F23472D461B0894C1082B
:102C4000D1084A3010F4405D01C0495CF601408370
:102C5000E114F1040105110521F07E2C5F2DC8015E
:102C6000DDCFC201B6010E94CB15A1960FB6F89434
:102C7000DEBF0FBECDBFCF91DF911F910F91FF90AF
:102C8000EF90DF90CF90BF90AF909F908F907F900C
:102C90005F904F900895DC012115310541F4ED91CD
:102CA000FC910190F081E02D642F099508950E9418
:102CB000E7150895EF92FF920F931F939A017B01FE
:102CC00000E010E0B801A7010E944B161F910F9180
:102CD000FF90EF900895CF92DF92EF92FF920F93C3
:102CE0001F936C017B019A0100E010E0B801A7017D
:102CF0000E944B168C01C6010E949715080F191FE0
:102D0000C8011F910F91FF90EF90DF90CF90089531
:102D1000EF92FF920F931F939A01E62EFF2400E09B
:102D200010E0B801A7010E944B161F910F91FF9070
:102D3000EF900895CF92DF92EF92FF920F931F933F
:102D40006C01E62E9A01FF2400E010E0B801A70113
:102D50000E944B168C01C6010E949715080F191F7F
:102D6000C8011F910F91FF90EF90DF90CF900895D1
:102D7000CF92DF92EF92FF920F931F93CF93DF9347
:102D8000EC016A017B012115310541F4E881F981EB
:102D90000190F081E02D642F09951FC02A30310584
:102DA000D1F477FF17C0E881F9810190F081E02D1F
:102DB0006DE209958C0144275527BA014C195D092C
:102DC0006E097F09CE012AE00E94E7159801280FBD
:102DD000391F04C02AE00E94E7159C01C901DF9158
:102DE000CF911F910F91FF90EF90DF90CF900895BA
:102DF000EF92FF920F931F937B019A010027F7FC3C
:102E00000095102FB801A7010E94B8161F910F91CD
:102E1000FF90EF900895CF92DF92EF92FF920F9381
:102E20001F936C017B019A010027F7FC0095102F7E
:102E3000B801A7010E94B8168C01C6010E9497151F
:102E4000080F191FC8011F910F91FF90EF90DF909D
:102E5000CF9008950E94CB1508957F928F929F92F4
:102E6000AF92BF92CF92DF92EF92FF920F931F9398
:102E7000CF93DF934C017A018B01722ECB01BA0103
:102E8000A80197010E942B23882321F0C4016BE83D
:102E900071E021C0C0E0D0E057016801E894D7F8A4
:102EA000C601B5012FEF3FEF4FE75FE70E942B23ED
:102EB000882351F4C601B5012FEF3FEF4FE75FE7DD
:102EC0000E947521181614F0C1E0D0E0219739F066
:102ED000C4016FE871E00E94CB15EC0193C0C801FA
:102EE000B7012FEF3FEF4FE75FE40E94C4221816AF
:102EF00054F0C801B7012FEF3FEF4FE75FEC0E949E
:102F00007521882324F4C40163E971E0E4CFC8018A
:102F1000B70120E030E040E050E00E94752187FDDD
:102F200003C0C0E0D0E00EC0D401ED91FC9101904F
:102F3000F081E02DC4016DE20995EC0117FB1095BD
:102F400017F9109520E030E040E05FE3DD240BC08E
:102F5000CA01B90120E030E040E251E40E94792149
:102F60009B01AC01D394D71498F3C801B7010E9418
:102F700011215B016C010E94E6217B018C01C401DF
:102F8000B801A7012AE030E00E944B16C80FD91FF4
:102F9000772039F0C40167E971E00E94CB15C80FB2
:102FA000D91FC801B7010E9412229B01AC01C601C2
:102FB000B5010E94102124C020E030E040E251E43D
:102FC0000E94C8227B018C010E94E1215B016C01FF
:102FD000CC24B7FCC094DC2CC401B601A5012AE0C6
:102FE00030E00E94B816C80FD91FC601B5010E9473
:102FF00014229B01AC01C801B7010E9410217A94F0
:103000007720D1F6CE01DF91CF911F910F91FF90E4
:10301000EF90DF90CF90BF90AF909F908F907F9078
:1030200008950E942D170895EF92FF920F931F931A
:103030007C010E94CB158C01C7010E949715080FD7
:10304000191FC8011F910F91FF90EF900895FC0187
:10305000F894A181B28111969C91119780818095FD
:10306000982311969C9378940895FC0113861586F5
:10307000148687E090E012863197009711F001974F
:10308000FACF0895DC0180E00BC0E82FF0E08D91CD
:1030900090E0E827F927E65BFC4FE49161508E2F22
:1030A000662399F70895DF92EF92FF920F931F9393
:1030B000FC01E08001811281F894F8018281DE2C0C
:1030C000D0948D21828381818E29818383E090E059
:1030D0000E94DD12F80181818D2181838AE090E0D8
:1030E0000E94DD12F8010081789485E390E00E944F
:1030F000DD1280E010E0FF240E211F21012B09F0DA
:1031000081E01F910F91FF90EF90DF900895EF9273
:10311000FF920F931F93CF93DF937C0101E010E0A8
:10312000C0E0D0E0C7010E9453188111102B000F9E
:103130002196C830D105B1F7812FDF91CF911F9132
:103140000F91FF90EF9008951F93CF93DF93FC01B1
:103150001081C181D281912F909560FF12C0F894A7
:103160008A8189238A838981812B89838AE090E0FF
:103170000E94DD128A81812B8A83789487E390E014
:1031800011C0F8948A8189238A838981812B89835C
:1031900081E490E00E94DD128A81812B8A837894F9
:1031A00085E090E00E94DD12DF91CF911F9108959C
:1031B000CF92DF92EF92FF920F931F93CF93DF9303
:1031C0008C01E42EFF24F394C0E0D0E0C62EDD2471
:1031D00060E08F2D90E08C219D21892B09F061E02A
:1031E000C8010E94A418FF0C2196C830D10581F7B0
:1031F000EE20A9F4F894D8011196ED91FC91129764
:1032000091818C918095982391831196ED91FC91F9
:10321000129792818C918095982392837894DF9174
:10322000CF911F910F91FF90EF90DF90CF90089575
:103230006CEC40E00E94D8180895EF92FF920F9333
:103240001F93CF93DF938C017B0165E540E00E94E3
:10325000D818C0E0D0E0F701EC0FFD1FC801608175
:1032600040E00E94D8182196C830D105A1F7DF911F
:10327000CF911F910F91FF90EF900895DF92EF9201
:10328000FF920F931F93CF93DF93FC010081C181C5
:10329000D281F8948981D02ED0948D21898378941D
:1032A0001DE7E02EFF24115059F182E090E00E94CA
:1032B000DD12888190E08E219F21892BA1F3F89463
:1032C0008A818D218A838981802B8983789484EFF8
:1032D00091E00E94DD12F89489818D21898380E537
:1032E00090E00E94DD12888110E090E0E822F9224F
:1032F000EF2809F411E0789484EA91E00E94DD124D
:10330000812FDF91CF911F910F91FF90EF90DF9070
:103310000895AF92BF92DF92EF92FF920F931F93A7
:10332000CF93DF93EC015B018D85882309F061C0A9
:10333000CE010E943E19882329F41B861D861C8617
:1033400090E06BC0CE0160EF40E00E94D818FF24EF
:10335000F39401E0DD24EE24CE010E945318182FCF
:10336000CE010E945318113019F48130E1F439C0B4
:10337000181709F58B85081770F460E0FE01EE0D53
:10338000F11D838190E02F2D30E0822393231816C6
:1033900019064CF003C060E0081729F0093008F066
:1033A0004CC00C874AC0FE01EE0DF11D83818F29B0
:1033B000838361E009C0612FFE01EE0DF11D9F2D99
:1033C0009095838189238383CE010E94A4180F5F87
:1033D000FF0C19F4E394FF24F39487E08E1508F0B2
:1033E000BBCF013430F0DB86DD2011F581E08D8725
:1033F0001FC01B861D861C8690E0DE0120E030E0A9
:10340000F501E20FF31F13968C91139780832F5FC2
:103410003F4F11962830310599F7892FDF91CF91D1
:103420001F910F91FF90EF90DF90BF90AF900895A4
:103430008B818823F1F291E0E0CFD02EBDCFFF92B7
:103440000F931F938C01F62E862F60E00E947D2043
:103450008F2D90E0FC01E458FB4FE491D801EC93F0
:1034600088599B4FFC016491E62FF0E0EE0FFF1F9F
:10347000E25AFB4F8591949112969C938E931197EB
:103480001B961C921B971D961C921D971C961C92B6
:10349000F80187E090E012863197009711F00197CC
:1034A000FACF1F910F91FF900895FC01808188232E
:1034B00011F482E101C08D5F0E947D200895FC011E
:1034C0008081882311F483E101C0835F0E947D2005
:1034D0000895FC018081882311F482E101C08D5F91
:1034E0000E94BC200895FC018081882311F483E1AF
:1034F00001C0835F0E94BC2008950F931F93CF9358
:10350000DF93EC01162F062F60FF07C060E00E94DA
:10351000551ACE0161E00E94691A01FF08C0CE0170
:1035200060E00E945F1ACE0161E00E94731A10955C
:103530008C8181238C83DF91CF911F910F9108950E
:103540000F931F93CF93DF93EC01062F162F60FF8D
:1035500007C060E00E94691ACE0161E00E94551A1E
:1035600011FF08C0CE0160E00E94731ACE0161E035
:103570000E945F1A8C81802B8C83DF91CF911F91E9
:103580000F9108950F931F93CF93DF938C01EB015D
:1035900080E06115710509F081E0F80182838823DC
:1035A00041F00E9450122197C60FD71FF801D18316
:1035B000C083DF91CF911F910F910895EF92FF92F9
:1035C0000F931F93CF93DF93EC017B018A818823B4
:1035D00011F400E00FC0088119810E945012C80147
:1035E000861B970B2AEE8136920710F400E006C086
:1035F000082F0195CE01B7010E94C21A802FDF91DA
:10360000CF911F910F91FF90EF900895782FE89838
:1036100065B121E030E040E050E00090A50104C039
:10362000220F331F441F551F0A94D2F7322F822FC7
:103630008095862385B99EBD0DB407FEFDCF4EB59E
:103640007EBD0DB407FEFDCF2EB5942F80E045B1B1
:10365000342B35B9E89A30E0282B392BC90108956D
:103660000E94061B089580915E0490915F048F7004
:1036700090935F0480935E0480915E0490915F0458
:10368000886090935F0480935E0480915E049091C3
:103690005F040E94061B08958091B504873009F0ED
:1036A00059C09091B904992399F08091B804891771
:1036B00028F48091B804873408F44CC084E08093E7
:1036C000B50481E090E090936604809365049AC00D
:1036D000809169042091B80490E0049630E082174C
:1036E000930724F08091B8048734A0F184E080939C
:1036F000B50480916904833430F081E090E09093C8
:103700006604809365048091680486FF12C08091EE
:10371000B404282F30E0C9018F7190704F9749F0A1
:103720008091680490E0822793278F719070892B95
:1037300089F48091650490916604892B09F056C044
:10374000E091B204F091B304309709F44FC080E0E7
:10375000099558C08091B504843011F080E0089537
:1037600010926904809169048093B8048FEF9FEFF1
:1037700090936604809365042091B6042223D9F0C7
:103780008227282F22952827022E26952695202548
:10379000022E269520252770082E892F269507941E
:1037A0002795902D82270694279590258227909320
:1037B00066048093650487E08093B50481E080937C
:1037C000630483EA94E90E94061B80915E04909151
:1037D0005F04886D90935F0480935E0480915E0423
:1037E00090915F040E94061B80E008958FEF9FEF89
:1037F000AFEFBFEF8093AE049093AF04A093B004FB
:10380000B093B10481E008950F931F93082F10E047
:10381000C801966C0E94061B98012F7730702F5FAD
:103820003F4F442737FD4095542F6BEF72E485E0FE
:1038300090E00E947523CA01B901000F012F001FFB
:10384000110B980143E0220F331F4A95E1F7201B2B
:10385000310B2F5F3F4F442737FD4095542F0E9477
:10386000752393E056954795379527959A95D1F707
:103870002D573C4F4F4F5F4FCA01B90124E833E049
:1038800040E050E00E947523209364041F910F9143
:1038900008958091B504843069F08091B504873033
:1038A00059F48091B804882339F40E94331B84E0D2
:1038B0008093B50481E0089580E00895982F86FDF7
:1038C00005C0907E8091B4048F71980F9093680426
:1038D000E091B204F091B304309711F081E00995C2
:1038E0008FEF9FEF90936604809365048091650449
:1038F000909166042091B6048227282F22952827CC
:10390000022E269526952025022E26952025277005
:10391000082E892F269507942795902D82270694A7
:10392000279590258227909366048093650488E00C
:103930008093B50480915E0490915F0488639093B6
:103940005F0480935E0480915E0490915F040E9406
:10395000061B0895DF92EF92FF920F931F937B0156
:103960008C01DD2405C0D39416950795F794E79450
:103970008FEFE816F1040105110509F0A0F7809119
:103980005E0490915F0481FF0FC080915E0490916E
:103990005F048D7F90935F0480935E0480915E044A
:1039A00090915F040E94061BE114F10401051105CA
:1039B000B9F0C701906E3D2D20E0822B932B0E9421
:1039C000061B80915E0490915F04826090935F0477
:1039D00080935E0480915E0490915F040E94061BB8
:1039E0001F910F91FF90EF90DF900895E89885B1B7
:1039F00021E030E040E050E00090A50104C0220F3B
:103A0000331F441F551F0A94D2F7322F922F9095DF
:103A1000982395B91EBC0DB407FEFDCF6EB51EBC34
:103A20000DB407FEFDCF2EB5962F80E0622F70E01B
:103A3000682B792B77FF0FC08091B504873059F43C
:103A40008CB581608CBD1EBC0DB407FEFDCF2EB5BC
:103A50008CB58E7F8CBD85B1382B35B9E89A7093C3
:103A6000610460936004809160049091610497FF09
:103A7000ECC08091B504873009F082C08091B80411
:103A8000882371F49091B604992351F08091B80481
:103A9000E82FF0E0E959FB4F90838F5F8093B804E3
:103AA0008091B804E82FF0E0E959FB4F20838F5F45
:103AB0008093B80480916504909166048227282F32
:103AC00022952827022E269526952025022E26951A
:103AD00020252770082E892F269507942795902D4D
:103AE00082270694279590258227909366048093D9
:103AF000650420916304233040F58091B80490E080
:103B000060916404029770E00E946223892BE9F4BB
:103B10008091600490916104E22FF0E090FF04C076
:103B2000EC50FE4F808104C0EC50FE4F80818295A6
:103B30008F7080936304833040F490E0880F991F66
:103B40000196806A94690E94061B9091B90499239A
:103B500029F08091B804891780F40AC08091690423
:103B60002091B80490E0049630E0821793072CF07F
:103B70008091B804873408F468C00E94331B65C084
:103B80008091B50487FF2EC0E09169048091B5044F
:103B90008F5F8093B5048150ED5FE80FF0E0E95945
:103BA000FB4FE08180916504909166048E27282F59
:103BB00022952827022E269526952025022E269529
:103BC00020252770082E892F269507942795902D5C
:103BD00082270694279590258227909366048093E8
:103BE00065042EC08091B5048F5F8093B504815029
:103BF000833019F184302CF4882399F08130F9F462
:103C000016C08B3019F08C30D1F402C0EDE218C030
:103C1000E091B604909169048EEF891B8093B504FE
:103C20000FC08091650490916604E82F09C08091CF
:103C3000650490916604E92F03C00E94331BEAEAF1
:103C40008E2F90E0986B0E94061B809160049091EB
:103C5000610496FF03C086E08093B5048091600400
:103C60009091610494FF09C060E070E080E090E012
:103C70000E94AA1C81E0809362048091600490916C
:103C8000610495FF05C00E94331B84E08093B50456
:103C900008951F93182F409369042AE634E0C90160
:103CA00050E00E941903812F0E945E1C1F9108950D
:103CB0008091B40490E08F719070892B41F080E086
:103CC00066EF7CE140E050E00E94ED1F089580E047
:103CD0000E94102008951F938093B4044093B6046B
:103CE0006093B7040E94581E1092B904E89885E0CA
:103CF00092E890935F0480935E0480915E049091BB
:103D00005F040E94061B8091B70490E074E0880F66
:103D1000991F7A95E1F7876C90680E94061B80E4F2
:103D200096EA0E94061B86E00E94041C82EA94E93F
:103D30000E94061B8CEA92EC0E94061B1091B604AE
:103D4000112341F083E89AEC0E94061B812F90E03A
:103D50009E6C06C08BE89AEC0E94061B8DE29EECDE
:103D60000E94061B83E894EC0E94061B80E598E9FC
:103D70000E94061B87E79CEC0E94061B80E090EEE9
:103D80000E94061B80E098EC0E94061B89E490ECE0
:103D90000E94061B84E08093B504E89A1F91089561
:103DA00025B181E090E0A0E0B0E00090A50104C062
:103DB000880F991FAA1FBB1F0A94D2F7282B25B979
:103DC00024B1822B84B98AE061E00E94BC208AE0A1
:103DD00061E00E947D208BE061E00E947D208CE00C
:103DE00060E00E947D208DE061E00E947D2080E502
:103DF0008CBD8DB581608DBD82E060E00E947D202C
:103E000082E061E00E94BC200895FF920F931F930F
:103E1000182F062FF42E8093B4044093B6046093B9
:103E2000B7040E94D01E0E94581E82E89AEC0E949D
:103E3000061B80E09EEF0E94061B85E08093B50480
:103E400083B7817F06C083B7816083BF889583B7BE
:103E50008E7F83BF8091B5048530A9F3812F602FB9
:103E60004F2D0E946B1E8091B4041F910F91FF9003
:103E700008958091C20408956093BA047093BB04BE
:103E80008093BC049093BD042091A6013091A701BA
:103E90004091A8015091A901260F371F481F591FB3
:103EA0002093BE043093BF044093C0045093C104D8
:103EB00082E08093C2040E9450126093C304709306
:103EC000C4048093C5049093C60408950F931F9370
:103ED000CF93DF93BC018230910510F462E070E073
:103EE000E091CB04F091CC04A0E0B0E040E050E0E1
:103EF00024C08081918186179707D0F08617970795
:103F000071F482819381109729F013969C938E937C
:103F100012972CC09093CC048093CB0427C04115FA
:103F2000510519F08417950718F4EF018D01AC01C4
:103F3000DF01828193819C01F9013097D1F641150F
:103F40005105F9F0CA01861B970B8430910580F466
:103F50008A819B810115110521F0F80193838283E9
:103F600004C09093CC048093CB04FE0132962FC002
:103F7000FE01E80FF91F619371930297998388837B
:103F800026C08DB79EB7885790402091AA013091E6
:103F9000AB0128173907C8F4AC01421B530B461775
:103FA000570798F0CB0102964817590770F0820F17
:103FB000931F9093AB018093AA019093AD018093DE
:103FC000AC01F9016193719302C0E0E0F0E0CF0130
:103FD000DF91CF911F910F910895823000F5E82F66
:103FE000F0E0EE0FFF1FE953FB4F718360838823DE
:103FF00019F08130A1F408C0809169008C7F842B76
:1040000080936900E89A089580916900440F551FD4
:10401000440F551F837F842B80936900E99A08958C
:10402000823080F4882319F0813021F402C0E898AE
:1040300001C0E998E82FF0E0EE0FFF1FE953FB4FB6
:104040001182108208951F920F920FB60F921124C1
:104050002F933F934F935F936F937F938F939F9390
:10406000AF93BF93EF93FF938091C7049091C804DF
:10407000892B29F0E091C704F091C8040995FF91BC
:10408000EF91BF91AF919F918F917F916F915F91D0
:104090004F913F912F910F900FBE0F901F90189549
:1040A0001F920F920FB60F9211242F933F934F93AD
:1040B0005F936F937F938F939F93AF93BF93EF9390
:1040C000FF938091C9049091CA04892B29F0E09153
:1040D000C904F091CA040995FF91EF91BF91AF9186
:1040E0009F918F917F916F915F914F913F912F9110
:1040F0000F900FBE0F901F901895CF93DF93482F0E
:1041000050E0CA0184589B4FFC01349148595B4FE1
:10411000FA018491882369F190E0880F991FFC01CE
:10412000E65BFB4FA591B491FC01EC5AFB4FC591A6
:10413000D491662351F42FB7F8948C91932F9095D6
:1041400089238C93888189230BC0623061F42FB757
:10415000F8948C91932F909589238C938881832B4D
:1041600088832FBF06C09FB7F8948C91832B8C93C4
:104170009FBFDF91CF910895482F50E0CA0180572B
:104180009B4FFC012491CA0184589B4FFC019491E0
:1041900048595B4FFA013491332309F440C022237C
:1041A00051F1233071F0243028F42130A1F0223075
:1041B00011F514C02630B1F02730C1F02430D9F405
:1041C00004C0809180008F7703C0809180008F7D34
:1041D0008093800010C084B58F7702C084B58F7D36
:1041E00084BD09C08091B0008F7703C08091B0007A
:1041F0008F7D8093B000E32FF0E0EE0FFF1FEC5AAD
:10420000FB4FA591B4912FB7F894662321F48C91BC
:104210009095892302C08C91892B8C932FBF089590
:104220005058BB27AA270ED075C166D130F06BD18C
:1042300020F031F49F3F11F41EF45BC10EF4E095C1
:10424000E7FB51C1E92F77D180F3BA1762077307F3
:104250008407950718F071F49EF58FC10EF4E09570
:104260000B2EBA2FA02D0B01B90190010C01CA0130
:10427000A0011124FF27591B99F0593F50F4503EDB
:1042800068F11A16F040A22F232F342F4427585FCD
:10429000F3CF469537952795A795F0405395C9F7E5
:1042A0007EF41F16BA0B620B730B840BBAF091509D
:1042B000A1F0FF0FBB1F661F771F881FC2F70EC03C
:1042C000BA0F621F731F841F48F48795779567950F
:1042D000B795F7959E3F08F0B3CF9395880F08F0F8
:1042E0009927EE0F979587950895D9D008F481E026
:1042F00008950CD00FC107D140F0FED030F021F46A
:104300005F3F19F0F0C0511139C1F3C014D198F3D7
:104310009923C9F35523B1F3951B550BBB27AA2746
:1043200062177307840738F09F5F5F4F220F331FB8
:10433000441FAA1FA9F333D00E2E3AF0E0E830D084
:1043400091505040E695001CCAF729D0FE2F27D087
:10435000660F771F881FBB1F261737074807AB0755
:10436000B0E809F0BB0B802DBF01FF2793585F4FCA
:104370002AF09E3F510568F0B6C000C15F3FECF3E4
:10438000983EDCF3869577956795B795F7959F5F8F
:10439000C9F7880F911D9695879597F90895E1E0E3
:1043A000660F771F881FBB1F621773078407BA0742
:1043B00020F0621B730B840BBA0BEE1F88F7E0959D
:1043C000089504D06894B111D9C00895BCD088F084
:1043D0009F5790F0B92F9927B751A0F0D1F0660FF1
:1043E000771F881F991F1AF0BA95C9F712C0B1300C
:1043F00081F0C3D0B1E00895C0C0672F782F88271F
:10440000B85F39F0B93FCCF3869577956795B3954A
:10441000D9F73EF490958095709561957F4F8F4FB9
:104420009F4F0895E89409C097FB3EF490958095BE
:10443000709561957F4F8F4F9F4F9923A9F0F92F6A
:1044400096E9BB279395F695879577956795B795E8
:10445000F111F8CFFAF4BB0F11F460FF1BC06F5FCE
:104460007F4F8F4F9F4F16C0882311F096E911C0E0
:10447000772321F09EE8872F762F05C0662371F001
:1044800096E8862F70E060E02AF09A95660F771F15
:10449000881FDAF7880F9695879597F90895990FF1
:1044A0000008550FAA0BE0E8FEEF16161706E807FE
:1044B000F907C0F012161306E407F50798F0621B1F
:1044C000730B840B950B39F40A2661F0232B242BF4
:1044D000252B21F408950A2609F4A140A6958FEF13
:1044E000811D811D089597F99F6780E870E060E065
:1044F00008959FEF80EC089500240A94161617067D
:1045000018060906089500240A94121613061406C4
:1045100005060895092E0394000C11F4882352F027
:10452000BB0F40F4BF2B11F460FF04C06F5F7F4FDF
:104530008F4F9F4F089557FD9058440F551F59F0C6
:104540005F3F71F04795880F97FB991F61F09F3F80
:1045500079F087950895121613061406551FF2CFA9
:104560004695F1DF08C0161617061806991FF1CFF9
:1045700086957105610508940895E894BB27662720
:104580007727CB0197F908958ADF08F48FEF089514
:104590000BD0C0CFB1DF28F0B6DF18F0952309F0BB
:1045A000A2CFA7CF1124EACFC6DFA0F3959FD1F306
:1045B000950F50E0551F629FF001729FBB27F00DD1
:1045C000B11D639FAA27F00DB11DAA1F649F662726
:1045D000B00DA11D661F829F2227B00DA11D621F75
:1045E000739FB00DA11D621F839FA00D611D221F2F
:1045F000749F3327A00D611D231F849F600D211D13
:10460000822F762F6A2F11249F5750408AF0E1F0B5
:1046100088234AF0EE0FFF1FBB1F661F771F881FFE
:1046200091505040A9F79E3F510570F05CCFA6CF46
:104630005F3FECF3983EDCF3869577956795B795E9
:10464000F795E7959F5FC1F7FE2B880F911D969513
:10465000879597F9089523DF880B990B0895629F3A
:10466000D001739FF001829FE00DF11D649FE00D6A
:10467000F11D929FF00D839FF00D749FF00D659FCB
:10468000F00D9927729FB00DE11DF91F639FB00DCA
:10469000E11DF91FBD01CF0111240895AA1BBB1B09
:1046A00051E107C0AA1FBB1FA617B70710F0A61B32
:1046B000B70B881F991F5A95A9F780959095BC0153
:1046C000CD01089597FB092E07260AD077FD04D067
:1046D000E5DF06D000201AF4709561957F4F0895AC
:1046E000F6F7909581959F4F0895A1E21A2EAA1B87
:1046F000BB1BFD010DC0AA1FBB1FEE1FFF1FA21792
:10470000B307E407F50720F0A21BB30BE40BF50B8E
:10471000661F771F881F991F1A9469F76095709517
:10472000809590959B01AC01BD01CF010895EE0FDE
:10473000FF1F0590F491E02D09942F923F924F9224
:104740005F926F927F928F929F92AF92BF92CF9221
:10475000DF92EF92FF920F931F93CF93DF93CDB72A
:10476000DEB7CA1BDB0B0FB6F894DEBF0FBECDBFA2
:1047700009942A88398848885F846E847D848C8473
:104780009B84AA84B984C884DF80EE80FD800C817C
:104790001B81AA81B981CE0FD11D0FB6F894DEBF5F
:0C47A0000FBECDBFED010895F894FFCFCF
:1047AC0054656D703A200046205B002E2E005D0093
:1047BC0054696D65206E6F7420736574002000520F
:1047CC0065786D6974004E657454696D6520636F0E
:1047DC006E66696775726564003078002D3E002046
:1047EC002023003A2000206E6F773A0046206D6936
:1047FC006E3A002C00200020202020666F756E641D
:10480C002023002020202061646465642023004F55
:10481C007754656D703A20636F756E743D0020633C
:10482C006F6E66696753697A653D006E616E0069EB
:10483C006E66006F7666002E002003F80100001BE8
:10484C000375030000022C010000CD04640000007D
:10485C0000002C0742155C067A065E06FCFF000081
:10486C0076065D0600000000AA08C70700000000DD
:10487C00960AAA0A00000000C30B440B07000300B1
:10488C0001000000000000009D1442153314641454
:08489C0044148D14340256008F
:00000001FF
