:100000000C94DC010C94C9170C94F6170C940402A0
:100010000C9404020C9404020C9404020C94040248
:100020000C9404020C9404020C9404020C94040238
:100030000C9404020C9404020C9404020C94040228
:100040000C94520E0C9404020C946D0F0C94BB0F84
:100050000C9404020C9404020C9404020C94040208
:100060000C9404020C9404022A2A2A2A2A205255AB
:100070004E4E494E473A2068656C6C6F5F6E6F64F8
:10008000652E696E6F002A2A2A2A2A205345545564
:10009000503A2068656C6C6F5F6E6F64652E696E98
:1000A0006F00206E6F7420666F756E6420696E201D
:1000B000636F6E6669675F7265616400436F6E6649
:1000C00069673A206D6F64756C652000206E6F74EF
:1000D00020666F756E6420696E20636F6E66696757
:1000E0005F777269746500436F6E6669673A206D69
:1000F0006F64756C6520002020435243206D61744D
:10010000636865732100202043524320646F657348
:10011000206E6F74206D61746368210020627974B1
:10012000657300206D617829002076732E200020F1
:10013000697320746F6F206C6172676520280043BB
:100140004F4E4649473A2074686520636F6E666972
:100150006720666F72206D6F64756C6520230020C8
:10016000636F6E666967732000436F6E6669673AF6
:10017000200020214E4F4E452120002074696D65DE
:10018000002065746800207266313200206C636460
:10019000002073657269616C00436F6E6669672049
:1001A0004C6F673A00436F6E666967204E65743A1C
:1001B0002052463132422064697361626C6564008A
:1001C000436F6E6669673A200054696D6520696EF9
:1001D000697469616C697A656400206D61783A00C0
:1001E000732C206D696E4D6178436F756E743A00A3
:1001F0002073656E736F72732C206D696E4D61781C
:1002000054696D65723A004F7754656D702068616E
:100210007320002073656E736F7273004F57543AEA
:10022000207265616479207769746820004F5754A3
:100230003A204D697373696E672073656E736F72D0
:10024000733A004F57543A204E65772073656E73AA
:100250006F72733A2020202000005EBCE2613FDD17
:1002600083C29C7E20A3FD1F419DC3217FFCA24031
:100270001E5F01E3BD3E6082DC237D9FC1421CFE08
:10028000A0E1BF5D0380DE3C62BEE0025CDF816313
:100290003D7C22C09E1D43A1FF4618FAA427799BEE
:1002A000C584DA3866E5BB5907DB856739BAE406E9
:1002B000581947A5FB7826C49A653BD987045AB8D4
:1002C000E6A7F91B45C6987A24F8A6441A99C725CB
:1002D0007B3A6486D85B05E7B98CD2306EEDB351BA
:1002E0000F4E10F2AC2F7193CD114FADF3702ECC99
:1002F00092D38D6F31B2EC0E50AFF1134DCE9072A0
:100300002C6D33D18F0C52B0EE326C8ED0530DEF7A
:10031000B1F0AE4C1291CF2D73CA947628ABF5177D
:10032000490856B4EA6937D58B5709EBB536688A60
:10033000D495CB2977F4AA4816E9B7550B88D6345B
:100340006A2B7597C94A14F6A8742AC896154BA942
:10035000F7B6E80A54D7896B35000000002400275F
:10036000002A0000000000250028002B00000000EB
:1003700000230026002900040404040404040402E9
:100380000202020202030303030303010204081032
:1003900020408001020408102001020408102000FF
:1003A0000000070002010000030406000000000036
:1003B00000000000F502271111241FBECFEFD8E086
:1003C000DEBFCDBF11E0A0E0B1E0EAEAF6E302C093
:1003D00005900D92A63BB107D9F713E0A6EBB1E06B
:1003E00001C01D92A23FB107E1F713E0C8EBD3E0D3
:1003F00004C02297FE010E94181BC43BD107C9F715
:100400000E947D110C94531B0C940000EF92FF92FC
:100410000F93DF93CF93CDB7DEB760970FB6F89405
:10042000DEBF0FBECDBFA82F002309F461C07E013F
:100430000894E11CF11C88E0F70111928A95E9F714
:1004400029833A834B835C836D837E83AF83988754
:1004500080E2801BE82FFF27E7FDF0954D815E814C
:100460006F817885181684F01D861E861F86188A6F
:10047000882799278E1B9F0B04C076956795579503
:1004800047958A95D2F728C0202F332727FD30952E
:10049000DB01CA01022E04C0B695A79597958795F2
:1004A0000A94D2F78D879E87AF87B88B04C0440F1C
:1004B000551F661F771FEA95D2F789819A81AB8114
:1004C000BC8104C0B695A795979587952A95D2F7D4
:1004D000482B592B6A2B7B2B49875A876B877C8744
:1004E00029853A854B855C856D857E85AF859889A4
:1004F0008A2F60960FB6F894DEBF0FBECDBFCF91A6
:10050000DF910F91FF90EF9008950F931F93CF937A
:10051000DF93689F8001699F100D789F100D112453
:10052000C8010E944217EC01009729F060E070E0DA
:10053000A8010E94A102CE01DF91CF911F910F91DE
:100540000895DC0101C06D9341505040E0F70895DB
:10055000A0E0B0E0EEEAF2E00C94261B7C01EB0197
:100560008A01690109C0CE012196F6010995F701BA
:1005700081937F010150104001151105A1F7CDB7FE
:10058000DEB7E8E00C94421BA0E0B0E0EAECF2E059
:100590000C94261BEC017B018A01690109C0CE0184
:1005A0002196F70161917F01F601099501501040F4
:1005B00001151105A1F7CDB7DEB7E8E00C94421B99
:1005C000DF92EF92FF920F931F93D72E7A018C0147
:1005D000FA010995C80101966D2DF70109951F9142
:1005E0000F91FF90EF90DF90089586EB91E064ED1E
:1005F00041E00E94470784E592E00E94710789E587
:1006000092E00E94F6051092A8021092AB0210929E
:10061000AE028FEA92E064E042E00E942B0E82E09C
:100620008093D7021092DA021092DB021092DC0261
:100630001092DD0280915B0190915C01009719F4AA
:1006400080E090E001C004969093600180935F0188
:1006500008950F931F9386EB91E00E94CA068823AA
:10066000A9F087ED92E061E00E94AF1680E090E093
:1006700060E00E9405046AE070E080E090E00E9483
:10068000CE0E87ED92E061E00E948C168FEA92E038
:100690006AE00E94440A8CEA92E06AE57EE10E94E8
:1006A000ED16882309F44EC080915B0190915C01A6
:1006B00060E071E00E94391300915B0110915C01D0
:1006C0008FEA92E060E00E94AD07AB01BC01C80177
:1006D00022E030E00E94201480915B0190915C0147
:1006E00067E071E00E94391300915B0110915C0199
:1006F0008FEA92E060E00E94CC07BC01C8014AE0AA
:1007000050E00E94A41280915B0190915C016BE02B
:1007100071E00E94391300915B0110915C018FEA36
:1007200092E060E00E94FB07BC01C8014AE050E093
:100730000E94A41280915B0190915C016EE071E0D7
:100740000E9423140E941517823081F086EA92E0FD
:1007500060E67AEE0E94ED16882341F080915B01FD
:1007600090915C0160E171E00E9423141F910F9150
:1007700008950F931F9306E713E0C80140E051EE80
:1007800060E070E00E94F60FC80166E870E00E9429
:10079000011207ED12E0C80163E00E94AF168DE57B
:1007A00091E00E949E0460915B0170915C018FEA70
:1007B00092E00E94D80B86EA92E068EE73E00E9415
:1007C000D11680915B0190915C0168E670E00E9417
:1007D0000112C80163E00E948C161F910F910895C9
:1007E0009C01F999FECF32BD21BDF89A80B50895DC
:1007F0009C01F999FECF1FBA32BD21BD60BD0FB675
:10080000F894FA9AF99A0FBE0895CF93DF93EC010A
:10081000462F009721F440919A03CBE9D3E044237B
:10082000F9F038812091E002E091DE02F091DF02E0
:1008300090E014C0A191B19112968C9112978317F8
:1008400061F4ED91FC911197219641500280F38162
:10085000E02DCD01BE01099503C09F5F921750F3B3
:10086000DF91CF9108951F93182F5091E002A0912E
:10087000DE02B091DF0220E230E090E047C0ED916F
:10088000FD9182814381811709F03DC0C90150E08B
:1008900028EF33E00E94C4024091E1025091E2024D
:1008A000FA01329720E030E06FEF7FEF21C0F99935
:1008B000FECF205E3F4F32BD21BDF89A80B568273C
:1008C000862F82958627082E869586958025082E68
:1008D000869580258770062E672F869507948795C5
:1008E000702D682706948795702568272F51304012
:1008F0002E173F0708F4DBCFCA014E9648EF53E0AE
:100900000E94E00219C0240F311D9F5F951708F463
:10091000B6CF86E793E067EE70E00E94B61186E7F7
:1009200093E0612F4AE050E00E94B51286E793E021
:100930006CEC70E00E9401121F9108958F929F92BB
:10094000AF92BF92DF92EF92FF920F931F93DF93CC
:10095000CF93CDB7DEB7C054D0400FB6F894DEBF0A
:100960000FBECDBF5C0120E0322F3F5FE22FF0E0F1
:10097000EE0FFF1FEA0DFB1D80819181892B11F085
:10098000232FF2CF2093E002B092DF02A092DE028A
:1009900086E793E069E671E00E94B61186E793E08E
:1009A0006091E0024AE050E00E94B51286E793E0D1
:1009B0006FE571E00E94B6111092E2021092E1021E
:1009C000EE244EC00E2D10E0F801EE0FFF1FEA0DD1
:1009D000FB1D0190F081E02DF38080E48F15A8F5D8
:1009E00086E793E00E94E11186E793E06FE371E010
:1009F0000E94B6110F5F1F4F86E793E0B8014AE0EF
:100A000050E00E94071386E793E06FE271E00E94D6
:100A1000B61186E793E06F2D4AE050E00E94B512D0
:100A200086E793E069E271E00E94B61186E793E001
:100A300060E470E04AE050E00E94071386E793E02C
:100A400063E271E00E9401120AC08091E10290917C
:100A5000E2028F0D911D9093E2028093E102E394F4
:100A60008091E002E81608F4ADCF6091E102709148
:100A7000E2026E5F7F4F7093E2026093E10286E7CD
:100A800093E04AE050E00E94A41286E793E06CE114
:100A900071E00E9401126091E1027091E20220E097
:100AA00030E04FEF5FEF21C0F999FECF205E3F4F5E
:100AB00032BD21BDF89A80B54827842F82958427BE
:100AC000082E869586958025082E86958025877028
:100AD000042E452F869507948795502D4827069418
:100AE0008795502548272F5130402617370708F49F
:100AF000DBCF452B01F186E793E066E071E00E94D1
:100B0000011210E013C0E12FF0E0EE0FFF1FEA0D1D
:100B1000FB1DA081B181ED91FC9111970190F081B5
:100B2000E02DCD0160E070E009951F5F8091E0024B
:100B3000181748F337C086E793E067EF70E00E942C
:100B4000011290E2E92EF12CDD244E010894811C63
:100B5000911C24C00D2D10E0000F111F0A0D1B1D4C
:100B6000D801ED91FC914381C401B70150E020EF21
:100B700033E00E94A802F801A081B181ED91FC91BF
:100B800011970190F081E02DCD01B4010995D801B4
:100B9000ED91FC918381E80EF11CD3948091E002E9
:100BA000D816C0F2C05CDF4F0FB6F894DEBF0FBEA0
:100BB000CDBFCF91DF911F910F91FF90EF90DF900C
:100BC000BF90AF909F908F900895089508950895D5
:100BD000FC01E45BFF4F1082EC54F04082E086831E
:100BE00081E0878380E08160808708950F931F9361
:100BF0008C01FC011382128283E791E09183808350
:100C00000E9695838483C8010E94E805F8018185CA
:100C10008160817E81871F910F91089504970E94C2
:100C200012060895CF93DF93EC01FB01BC01685FCE
:100C30007F4F309719F08081888705C08985888724
:100C400082E00E94330486E793E069E971E00E9444
:100C5000B611888580FF06C086E793E061E971E000
:100C60000E94B611888581FF06C086E793E06CE894
:100C700071E00E94B611888582FF06C086E793E086
:100C800066E871E00E94B611888583FF06C086E79A
:100C900093E061E871E00E94B611888584FF06C088
:100CA00086E793E06BE771E00E94B61188858823A0
:100CB00031F486E793E062E771E00E94B61186E7BF
:100CC00093E00E94E111DF91CF9108950F931F935C
:100CD000CF93DF93EC018C01045B1F4FF8018081FF
:100CE000FE01E80FF11D1286888580FF16C0BE0147
:100CF000665F7F4F86E793E00E943913F801808199
:100D0000882359F0FE01E80FF11D81858A3029F40E
:100D100086E793E06DE00E94D911888583FF0EC0BD
:100D2000E881F981BE01665F7F4FDE01A45BBF4FA2
:100D30000480F581E02DCE014C910995C45BDF4F15
:100D40001882DF91CF911F910F9108951F93CF9338
:100D5000DF93EC01162FC45BDF4F8881CC54D04069
:100D6000813418F0CE010E946606DE01A45BBF4FFD
:100D70008C91FE01E80FF11D12878F5F8C931A3062
:100D800019F4CE010E94660681E090E0DF91CF91D8
:100D90001F91089580E0089508956093E40286E726
:100DA00093E065EA71E00E9401120895CF92DF920C
:100DB000EF92FF920F931F93DF93CF93CDB7DEB7E0
:100DC0007C01CDB6DEB6FB018B016115710509F121
:100DD00080818E31F1F086E793E060EC71E00E9453
:100DE000B61186E793E0F80160814AE050E00E9486
:100DF000B51286E793E06DE171E00E943913F801C6
:100E0000618186E793E070E04AE050E00E941A13A7
:100E100019C000D000D00DB71EB70F5F1F4F8EE175
:100E2000EDB7FEB78183F80111820E94A80E2AEA6D
:100E300035E526273727F8013383228381E0B8017F
:100E40000E943304F80160816093E4028181809301
:100E5000E30284E990E0E80EF91E82819381F701B4
:100E6000918380838CE69FEFE80EF91EC7010E94F4
:100E7000CD060FB6F894DEBE0FBECDBECF91DF918A
:100E80001F910F91FF90EF90DF90CF900895CF9337
:100E9000DF93EC0189E891E099838883C656DF4FA0
:100EA00069934883CB59D0400E949A0EFE01EA56BE
:100EB000FF4F608371838283938361157105810580
:100EC000910541F481E090E0A0E0B0E0808391835F
:100ED000A283B38381E08A8384E08B83DF91CF9107
:100EE0000895FC0181E991E091838083148283E07D
:100EF000828381E083830895FC01DB016115710524
:100F000019F08C91848305C0349683E0BF010E9460
:100F1000330486E793E06FE171E00E9423140895A3
:100F20001F93CF93DF93EB01443098F00E94151785
:100F3000182F688179818A819B810E94181711235B
:100F400041F480915B0190915C0169EC71E00E9439
:100F50000112DF91CF911F910895FC0182896817DA
:100F600028F070E060E090EC8FE70FC0862F90E0F3
:100F7000880F991F880F991F038CF48DE02DE80FBF
:100F8000F91F7081618192818381272F362F492F2C
:100F9000582FB901CA010895FC018289681718F019
:100FA00020E030E826C086E0689FC001112404A03C
:100FB000F5A1E02DE80FF91F9081818198170CF4BD
:100FC000892F928198170CF4892F938198170CF42C
:100FD000892F9481282F98170CF4292F9581822F1F
:100FE00092170CF4892F282F332727FD3095285A84
:100FF0003F4FC9010895FC018289681718F020E06D
:1010000030E826C086E0689FC001112406A0F7A141
:10101000E02DE80FF91F9081818189170CF4892F49
:10102000928189170CF4892F938189170CF4892FE9
:101030009481282F89170CF4292F9581822F291745
:101040000CF4892F282F332727FD3095285A3F4F3E
:10105000C9010895EF92FF921F93CF93DF93EC01A4
:101060007B0161157105B1F1E88DF98D8081918168
:10107000892B9281892B9381892B9481892B95814E
:10108000892B9681892B9781892B21F510E01FC030
:10109000A12FB0E0CD0163E0880F991F6A95E1F7B9
:1010A000E88DF98DE80FF91FAA0FBB1FAA0FBB1F10
:1010B000AE0DBF1D2D913D914D915C9120833183EB
:1010C0004283538314821582168217821F5F8A8996
:1010D0001817F0F2DF91CF911F91FF90EF900895D4
:1010E0000895AF92BF92CF92DF92EF92FF920F934B
:1010F0001F93DF93CF93CDB7DEB76C970FB6F894FD
:10110000DEBF0FBECDBF0D8B1E8B2F8B388F498F4F
:101110005A8F6B8F7C8FF4E0EF2EF12CE80EF91EC6
:10112000C7010E944D15C701BE016B5E7F4F0E9433
:101130002C15C7016EEB40E00E94E7148E01075F9B
:101140001F4FC801B02EA92EE2E1CE2ED12CCC0E1D
:10115000DD1EC7010E949614F80181938F01EC15E2
:10116000FD05B9F78B2D9A2D68E00E9451149989DD
:10117000891769F52985222319F48A85882339F18D
:101180008E858F3F21F58889803109F59A8580E029
:10119000422F50E0482B592BDE011196EDE9F1E08A
:1011A00088E001900D928150E1F7ED85F0E0E07666
:1011B000F07074E0F695E7957A95E1F7EC0FFD1F76
:1011C00021813281209530952423352302C020E0EF
:1011D00030E8C9016C960FB6F894DEBF0FBECDBFE4
:1011E000CF91DF911F910F91FF90EF90DF90CF9003
:1011F000BF90AF9008958F929F92AF92BF92CF927F
:10120000DF92EF92FF920F931F93CF93DF93EC0146
:10121000D22EC32EB42EA52E962E872E0E94710894
:101220009C0180E82030380779F5CE012D2D3C2D2A
:101230004B2D5A2D692D782D0E9471089C0180E854
:101240002030380709F5CE012D2D3C2D4B2D5A2D80
:10125000692D782D0E9471089C0180E820303807A4
:1012600099F4CE012D2D3C2D4B2D5A2D692D782D25
:101270000E9471089C0180E82030380729F4E0E0E2
:1012800070E080EC6FE71BC0B901882777FD80957F
:10129000982F0E94BA1920E030E040E85DE30E94F8
:1012A0006E1A26E636E646EE5FE30E946E1A20E0EE
:1012B00030E040E052E40E94B718E62F692F2E2F4D
:1012C000372F482F562FB901CA01DF91CF911F91B7
:1012D0000F91FF90EF90DF90CF90BF90AF909F90D5
:1012E0008F900895EF92FF920F931F938C01A4E0CB
:1012F000EA2EF12CE80EF91EC7010E944D15C70118
:101300000E942715C70164E441E00E94E71482E0CF
:10131000F801838B1F910F91FF90EF900895CF926A
:10132000DF92EF920F931F93DF93CF93CDB7DEB78A
:1013300028970FB6F894DEBF0FBECDBF09831A837E
:101340002B833C834D835E836F8378878C010C5F96
:101350001F4FC8010E944D156E010894C11CD11C7D
:10136000C801B6010E942C15C8016EE440E00E943D
:10137000E714C80160E040E00E94E714C80160E0A3
:1013800040E00E94E714E294EE0CB0EEEB22EA9407
:10139000C8016E2D40E00E94E714C8010E944D155F
:1013A000C801B6010E942C15C80168E441E00E9402
:1013B000E7146AE070E080E090E00E94CE0EC80181
:1013C0000E94361428960FB6F894DEBF0FBECDBF2C
:1013D000CF91DF911F910F91EF90DF90CF90089503
:1013E000AF92BF92CF92DF92EF92FF920F931F9333
:1013F000DF93CF93CDB7DEB728970FB6F894DEBF53
:101400000FBECDBF6B01E982FA820B831C832D8353
:101410003E834F835887CB0162E371E00E9439130A
:101420007E010894E11CF11C99E0A92EB12CAC0EB0
:10143000BD1EF70101917F0110E0B80184E07595B0
:1014400067958A95E1F7C60140E150E00E940713D5
:101450000F701070C601B80140E150E00E94071300
:10146000EA14FB0431F728960FB6F894DEBF0FBEDE
:10147000CDBFCF91DF911F910F91FF90EF90DF9043
:10148000CF90BF90AF9008952F923F924F925F926E
:101490006F927F928F929F92AF92BF92CF92DF9284
:1014A000EF92FF920F931F93CF93DF934C01762E11
:1014B0004F9660E67AEE0E94ED16882309F445C047
:1014C000D40192968D919C919397019693969C93BB
:1014D0008E939297803F9105C0F193961C921E9235
:1014E000929760E070E040E050E026C0E901D4014E
:1014F0009496ED91FC919597E40FF51F9E01215074
:101500003040DF01AC0FBD1FE20FF31F80818C93D1
:10151000D4019696ED91FC919797E40FF51FCE0FAD
:10152000DF1FE20FF31F8081888321153105F1F65B
:101530006F5F7F4F4A5F5F4FF401828990E06817C9
:1015400079071CF4C5E0D0E0D2CF0E949A0E5B016F
:101550006C01D40153968C91813021F0823009F0D6
:1015600013C128C07720D9F0F40184899589A68910
:10157000B78986017501E81AF90A0A0B1B0B672D5A
:1015800070E080E090E028EE33E040E050E00E9420
:10159000D51A6E157F058007910708F0F5C0D401B4
:1015A0005496AD92BD92CD92DC925797C4010E94A1
:1015B0007209EAC0F40184899589A689B789A81AB5
:1015C000B90ACA0ADB0AFDEBAF16B104C104D104A3
:1015D00008F4DAC0BB2471E0272E312C0F2EF0E086
:1015E0004F2EF0E05F2EF0EC6F2EFFE77F2EF02DF8
:1015F000C3C0CB2CDD24C60163E0880F991F6A9518
:10160000E1F7D4015896ED91FC915997E80FF91F35
:1016100000811181228133814481558166817781E6
:10162000802F812B822B832B842B852B862B872B42
:1016300009F4A1C0C4010E94FB087B018C01E101F7
:101640000B2C02C0CC0FDD1F0A94E2F7A801970112
:101650000E94D11AF401258D368D8823D9F0CE0150
:1016600082239323892B81F0CC0CDD1CCC0CDD1C58
:10167000D4015B96ED91FC915C97EC0DFD1D4082D1
:1016800051826282738277C02C2B3D2BF401368FFE
:10169000258F71C0CE018095909528233923D401E0
:1016A0005E963C932E935D97C601880F991F880F15
:1016B000991F5B96ED91FC915C97E80FF91FE08212
:1016C000F18202831383C801B70120E030E040E0DB
:1016D00050E00E946A1A88234CF0C801B70120E04C
:1016E00030E040E05FE30E94B71808C0C801B701CE
:1016F00020E030E040E05FE30E94B6180E948719C6
:10170000162F1855E601CC0FDD1FCC0DDD1DCC0FBB
:10171000DD1FD4019496ED91FC919597EC0FFD1F80
:101720008581803859F4212F332727FD3095CF014B
:10173000B90146E050E00E94A10204C08081181760
:101740000CF41083D4019696ED91FC919797EC0FD1
:10175000FD1F8581803859F4212F332727FD3095CF
:10176000CF01B90146E050E00E94A10204C080818F
:1017700081170CF41083B394F4018289B81608F42D
:1017800038CF81E0838B01C080E0DF91CF911F9142
:101790000F91FF90EF90DF90CF90BF90AF909F9010
:1017A0008F907F906F905F904F903F902F90089513
:1017B0002F923F924F925F926F927F928F929F9261
:1017C000AF92BF92CF92DF92EF92FF920F931F934F
:1017D000DF93CF93CDB7DEB767970FB6F894DEBF30
:1017E0000FBECDBF3C012B010DB71EB71F8B0E8B5B
:1017F000A4E02A2E312C280E391EC1010E94441467
:101800001D861C861B861A861986AEC0CE010196DF
:1018100067E00E94511489809A80AB80BC80CD80A3
:10182000DE80EF80F88410E020E030E040E050E01F
:1018300060E070E08E871F87288B398B4A8B5B8B2B
:101840006C8B7D8B9401A501B601C70108E30E9452
:1018500006021E85121709F087C02F85231709F08D
:1018600083C03889341709F07FC04989451709F0CA
:101870007BC05A89561709F077C06B89671709F042
:1018800073C07C89781709F06FC08D89891709F0BA
:101890006BC0D30152965C9140E020E030E029C05B
:1018A000D3015896ED91FC915997E20FF31F285FF1
:1018B0003F4F80819181A281B38188159905AA0546
:1018C000BB05B1F480829182A282B382C482D582A8
:1018D000E682F78281E090E002C0880F991F4A9566
:1018E000E2F7EC85FD85E82BF92BFD87EC8739C005
:1018F0004F5F4517A8F240E020E030E030C0D30150
:101900005896ED91FC915997E20FF31F285F3F4FD6
:1019100080819181892B9281892B9381892B94815C
:10192000892B9581892B9681892B9781892BB1F4FD
:1019300080829182A282B382C482D582E682F782BB
:1019400081E090E002C0880F991F4A95E2F7EA858E
:10195000FB85E82BF92BFB87EA8703C04F5F451710
:1019600070F2F985FF5FF987C101BE016F5F7F4F9C
:101970000E949815882309F049CFC1010E944414A0
:10198000FF2420C08F2D90E0F3E0880F991FFA9577
:10199000E1F7D3015896ED91FC915997E80FF91FA3
:1019A0000081118122813381448155816681778153
:1019B000023211F0083229F4C301EAE0EE2E0E944F
:1019C0008F09F394F3018289F816E0F20A851B85EA
:1019D000012BC1F1C20163E472E00E94B611DD2463
:1019E0002AC08A859B850D2C02C0969587950A94FE
:1019F000E2F780FF1FC0C2016BE471E00E9439135F
:101A00008D2D90E013E0880F991F1A95E1F7D3010F
:101A10005896ED91FC915997E80FF91FE080F180FD
:101A2000028113812481358146815781C301B2012E
:101A30000E94F009D394F3018289D81690F2C20172
:101A40000E94E111CA84DB840C851D85C02AD12A3D
:101A5000C094D09481E090E0D30152960C9002C0E3
:101A6000880F991F0A94E2F70197C822D922C1145E
:101A7000D104B9F1C2016DE272E00E94B611BB243B
:101A800029C0C6010B2C02C0969587950A94E2F7EF
:101A900080FF1FC0C2016BE471E00E9439138B2DDF
:101AA00090E0B3E0880F991FBA95E1F7D3015896FB
:101AB000ED91FC915997E80FF91FE080F1800281C8
:101AC00013812481358146815781C301B2010E946F
:101AD000F009B394F3018289B81698F2C2010E940A
:101AE000E111C2016CE172E00E94B611C201D301A2
:101AF00052966C914AE050E00E94B512C20163E137
:101B000072E00E940112F301828990E0880F991F10
:101B1000880F991F0DB71EB7081B190B0FB6F89445
:101B20001EBF0FBE0DBF6DB77EB76F5F7F4F40E02A
:101B30001CC0842F90E0880F991F880F991F9B016C
:101B4000280F391F880F991FD3015896ED91FC91EA
:101B50005997E80FF91F80819181A281B381F90122
:101B600080839183A283B3834F5FD30152968C917C
:101B70004817F8F284E00E9433040E949A0EF301A1
:101B8000648B758B868B978BC3010E947209898544
:101B90000E891F890FB6F8941EBF0FBE0DBF679642
:101BA0000FB6F894DEBF0FBECDBFCF91DF911F916E
:101BB0000F91FF90EF90DF90CF90BF90AF909F90EC
:101BC0008F907F906F905F904F903F902F900895EF
:101BD0001F93CF93DF93EC01413108F040E14A8B32
:101BE0001B8A1E8E1D8E842F90E064E070E00E94A0
:101BF00085028B8F9C8F8A8990E066E070E00E945E
:101C000085028CA39DA32A8916E0219F90011124AF
:101C100060E870E0A9010E94A1028A8990E066E074
:101C200070E00E9485028EA39FA32A89219F9001C4
:101C3000112460E870E0A9010E94A10284E08A8377
:101C40008A8990E0880F991F880F991F8B83DF91F5
:101C5000CF911F910895EF92FF920F931F938C01E4
:101C6000F62EE42E89E991E0F80191838083C80182
:101C700004960E942E16F80111A2C8016F2D4E2D58
:101C80000E94E80DF801828990E068E070E00E940F
:101C90008502F801808F918F128E1F910F91FF9016
:101CA000EF9008951F920F920FB60F9211242F9369
:101CB0003F938F939F93AF93BF938091E90290914D
:101CC000EA02A091EB02B091EC023091ED02019694
:101CD000A11DB11D232F2D5F2D3720F02D5701960B
:101CE000A11DB11D2093ED028093E9029093EA02B9
:101CF000A093EB02B093EC028091E5029091E60292
:101D0000A091E702B091E8020196A11DB11D809358
:101D1000E5029093E602A093E702B093E802BF9138
:101D2000AF919F918F913F912F910F900FBE0F9088
:101D30001F9018958FB7F8942091E9023091EA022C
:101D40004091EB025091EC028FBFB901CA01089596
:101D50009FB7F8942091E5023091E6024091E702A6
:101D60005091E80286B5A89B06C08F3F21F02F5FF7
:101D70003F4F4F4F5F4F9FBF542F432F322F22278C
:101D8000280F311D411D511D82E0220F331F441FBA
:101D9000551F8A95D1F7B901CA0108959B01AC017D
:101DA0007FB7F8948091E5029091E602A091E70256
:101DB000B091E80266B5A89B05C06F3F19F0019687
:101DC000A11DB11D7FBFBA2FA92F982F8827860F7D
:101DD000911DA11DB11D62E0880F991FAA1FBB1F95
:101DE0006A95D1F7BC012DC0FFB7F8948091E50248
:101DF0009091E602A091E702B091E802E6B5A89BB7
:101E000005C0EF3F19F00196A11DB11DFFBFBA2F0C
:101E1000A92F982F88278E0F911DA11DB11DE2E0DB
:101E2000880F991FAA1FBB1FEA95D1F7861B970B36
:101E3000885E9340C8F22150304040405040685185
:101E40007C4F211531054105510571F60895019723
:101E500039F0880F991F880F991F02970197F1F7A2
:101E60000895789484B5826084BD84B5816084BD12
:101E700085B5826085BD85B5816085BDEEE6F0E003
:101E8000808181608083E1E8F0E01082808182605F
:101E90008083808181608083E0E8F0E080818160E0
:101EA0008083E1EBF0E0808184608083E0EBF0E010
:101EB000808181608083EAE7F0E0808184608083B4
:101EC000808182608083808181608083808180685E
:101ED00080831092C100089508951F920F920FB64B
:101EE0000F9211242F933F934F938F939F93EF93D0
:101EF000FF938091C00082FD1DC04091C6002091DB
:101F00002E0330912F032F5F3F4F2F73307080913E
:101F10003003909131032817390771F0E0912E03B7
:101F2000F0912F03E251FD4F408330932F03209314
:101F30002E0302C08091C600FF91EF919F918F9177
:101F40004F913F912F910F900FBE0F901F901895BA
:101F5000E0918203F0918303E05CFF4F81919191C6
:101F600020813181821B930B8F739070892B11F02C
:101F70000E946C0F08951F920F920FB60F921124BA
:101F80002F933F938F939F93EF93FF93209172032F
:101F9000309173038091740390917503281739076A
:101FA00031F48091C1008F7D8093C10014C0E09115
:101FB0007403F0917503EE5CFC4F208180917403F3
:101FC0009091750301968F73907090937503809331
:101FD00074032093C600FF91EF919F918F913F91E1
:101FE0002F910F900FBE0F901F901895AF92BF9238
:101FF000DF92EF92FF920F931F93CF93DF93EC0149
:102000007A018B01DD24403081EE580780E06807BB
:1020100080E0780711F0DD24D39491E0A92EB12C53
:10202000EC89FD89DD2069F0C50108A002C0880F98
:10203000991F0A94E2F7808360E079E08DE390E0F5
:1020400005C0108260E874E88EE190E0A801970175
:102050000E94F41A21503040404050405695479518
:102060003795279580E12030380720F0DD2011F0EA
:10207000DD24D6CFE889F9893083EA89FB8920837A
:1020800019A2EE89FF89408121E030E0C9010C8C62
:1020900002C0880F991F0A94E2F7482B4083EE890B
:1020A000FF894081C9010D8C02C0880F991F0A94D5
:1020B000E2F7482B4083EE89FF894081C9010E8CED
:1020C00002C0880F991F0A94E2F7482B4083EE89DB
:1020D000FF8980810F8C02C0220F331F0A94E2F720
:1020E000209528232083DF91CF911F910F91FF909E
:1020F000EF90DF90BF90AF900895DC011C96ED91BA
:10210000FC911D97E05CFF4F21913191808191817D
:10211000281B390B2F733070C9010895DC011C9600
:10212000ED91FC911D97E05CFF4F20813181E054DF
:10213000F040DF01AE5BBF4F8D919C911197281746
:10214000390719F42FEF3FEF07C08D919C91E80FED
:10215000F91F8081282F30E0C9010895DC011C9609
:10216000ED91FC911D97E05CFF4F20813181E0549F
:10217000F040DF01AE5BBF4F8D919C911197281706
:10218000390719F42FEF3FEF10C08D919C911197F3
:10219000E80FF91F20818D919C91119701968F7303
:1021A000907011969C938E9330E0C9010895DC01E4
:1021B00091968C919197882339F05496ED91FC91EA
:1021C0005597808186FFF9CF91961C920895CF9301
:1021D000DF93EC01EE85FF85E05CFF4F20813181CC
:1021E000E054F0402F5F3F4F2F733070DF01AE5B44
:1021F000BF4F8D919C91119728173907D1F3E05C5F
:10220000FF4F80819181E054F040E80FF91F608317
:10221000EE85FF85E05CFF4F31832083EE89FF89E7
:10222000208181E090E00F8C02C0880F991F0A94F2
:10223000E2F7282B208381E089A3EC89FD89808146
:102240008064808381E090E0DF91CF9108951092C7
:1022500079031092780388EE93E0A0E0B0E08093D9
:102260007A0390937B03A0937C03B0937D0389EA68
:1022700091E090937703809376038EEE92E09093B3
:1022800083038093820382E393E09093850380939A
:10229000840385EC90E0909387038093860384EC1D
:1022A00090E0909389038093880380EC90E0909372
:1022B0008B0380938A0381EC90E090938D0380934D
:1022C0008C0382EC90E090938F0380938E0386ECD6
:1022D00090E0909391038093900384E08093920325
:1022E00083E08093930387E08093940385E0809359
:1022F000950381E0809396030895CF93DF930E9426
:10230000310F0E94B903C8EADFE00E942903209739
:10231000E1F30E94A80FF9CFCF92DF92EF92FF92E4
:102320000F931F93CF93DF937C016B018A01C0E071
:10233000D0E00FC0D6016D916D01D701ED91FC91F8
:102340000190F081E02DC7010995C80FD91F0150F8
:1023500010400115110571F7CE01DF91CF911F914A
:102360000F91FF90EF90DF90CF900895EF92FF9242
:102370000F931F93CF93DF937C018B01C0E0D0E0DC
:10238000F8010F5F1F4F6491662359F0D701ED915B
:10239000FC910190F081E02DC7010995C80FD91F6C
:1023A000EFCFCE01DF91CF911F910F91FF90EF9072
:1023B0000895DC01ED91FC910190F081E02D0995EB
:1023C0000895EF92FF920F931F938C01DC01ED9122
:1023D000FC910190F081E02D6DE009957C01D80120
:1023E000ED91FC910190F081E02DC8016AE0099522
:1023F0009C012E0D3F1DC9011F910F91FF90EF9081
:102400000895EF92FF920F931F937C010E94B611E3
:102410008C01C7010E94E1119C01200F311FC901ED
:102420001F910F91FF90EF900895CF93DF93EC01F0
:102430006115710519F420E030E00FC0DB010D904B
:102440000020E9F71197A61BB70BE881F9810280FC
:10245000F381E02DAD0109959C01C901DF91CF9178
:1024600008954F925F927F928F929F92AF92BF9208
:10247000CF92DF92EF92FF920F931F93DF93CF9350
:10248000CDB7DEB7A1970FB6F894DEBF0FBECDBFB4
:102490002C01742ECB01223008F42AE019A231E27B
:1024A000C32ED12CCC0EDD1E822E9924AA24BB244F
:1024B000672D752FA50194010E94F41A79018A01F4
:1024C000C801B701A50194010E94D51A472D461BEA
:1024D0000894C108D1084A3010F4405D01C0495C3D
:1024E000F6014083E114F1040105110521F07E2C71
:1024F0005F2DC801DDCFC201B6010E941512A19661
:102500000FB6F894DEBF0FBECDBFCF91DF911F9104
:102510000F91FF90EF90DF90CF90BF90AF909F9082
:102520008F907F905F904F900895DC0121153105C9
:1025300041F4ED91FC910190F081E02D642F09951B
:1025400008950E9431120895EF92FF920F931F9306
:102550009A017B0100E010E0B801A7010E949512EA
:102560001F910F91FF90EF900895EF92FF920F93BC
:102570001F939A01E62EFF2400E010E0B801A701A6
:102580000E9495121F910F91FF90EF900895CF92A6
:10259000DF92EF92FF920F931F93CF93DF93EC01A3
:1025A0006A017B012115310541F4E881F98101902F
:1025B000F081E02D642F09951FC02A303105D1F438
:1025C00077FF17C0E881F9810190F081E02D6DE27D
:1025D00009958C0144275527BA014C195D096E09EC
:1025E0007F09CE012AE00E9431129801280F391F7D
:1025F00004C02AE00E9431129C01C901DF91CF91F1
:102600001F910F91FF90EF90DF90CF900895EF9280
:10261000FF920F931F937B019A010027F7FC00950F
:10262000102FB801A7010E94C7121F910F91FF90B0
:10263000EF900895CF92DF92EF92FF920F931F9346
:102640006C017B019A010027F7FC0095102FB8015F
:10265000A7010E94C7128C01C6010E94E111080F58
:10266000191FC8011F910F91FF90EF90DF90CF903D
:1026700008950E94151208957F928F929F92AF92B3
:10268000BF92CF92DF92EF92FF920F931F93CF935F
:10269000DF934C017A018B01722ECB01BA01A801A4
:1026A00097010E94D11A882321F0C4016DE471E0E2
:1026B00021C0C0E0D0E057016801E894D7F8C60116
:1026C000B5012FEF3FEF4FE75FE70E94D11A882354
:1026D00051F4C601B5012FEF3FEF4FE75FE70E94CE
:1026E0001B19181614F0C1E0D0E0219739F0C4018D
:1026F00061E571E00E941512EC0193C0C801B701B9
:102700002FEF3FEF4FE75FE40E946A1A181654F06C
:10271000C801B7012FEF3FEF4FE75FEC0E941B1995
:10272000882324F4C40165E571E0E4CFC801B70152
:1027300020E030E040E050E00E941B1987FD03C01C
:10274000C0E0D0E00EC0D401ED91FC910190F08189
:10275000E02DC4016DE20995EC0117FB109517F906
:10276000109520E030E040E05FE3DD240BC0CA01BB
:10277000B90120E030E040E251E40E941F199B01C2
:10278000AC01D394D71498F3C801B7010E94B718CD
:102790005B016C010E948C197B018C01C401B801A2
:1027A000A7012AE030E00E949512C80FD91F7720B8
:1027B00039F0C40169E571E00E941512C80FD91FF4
:1027C000C801B7010E94B8199B01AC01C601B5014F
:1027D0000E94B61824C020E030E040E251E40E949C
:1027E0006E1A7B018C010E9487195B016C01CC245D
:1027F000B7FCC094DC2CC401B601A5012AE030E08E
:102800000E94C712C80FD91FC601B5010E94BA198C
:102810009B01AC01C801B7010E94B6187A947720D9
:10282000D1F6CE01DF91CF911F910F91FF90EF90E4
:10283000DF90CF90BF90AF909F908F907F90089542
:102840000E943C130895EF92FF920F931F937C0117
:102850000E9415128C01C7010E94E111080F191F77
:10286000C8011F910F91FF90EF900895FC01F8941B
:10287000A181B28111969C911197808180959823B6
:1028800011969C9378940895FC01138615861486FE
:1028900087E090E012863197009711F00197FACF08
:1028A0000895DC0180E00BC0E82FF0E08D9190E00E
:1028B000E827F927E75AFD4FE49161508E2F6623F0
:1028C00099F70895DF92EF92FF920F931F93FC0107
:1028D000E08001811281F894F8018281DE2CD0948D
:1028E0008D21828381818E29818383E090E00E9403
:1028F000270FF80181818D2181838AE090E00E9479
:10290000270FF8010081789485E390E00E94270F5B
:1029100080E010E0FF240E211F21012B09F081E04F
:102920001F910F91FF90EF90DF900895EF92FF922B
:102930000F931F93CF93DF937C0101E010E0C0E081
:10294000D0E0C7010E9462148111102B000F219664
:10295000C830D105B1F7812FDF91CF911F910F9131
:10296000FF90EF9008951F93CF93DF93FC011081A8
:10297000C181D281912F909560FF12C0F8948A8115
:1029800089238A838981812B89838AE090E00E9450
:10299000270F8A81812B8A83789487E390E011C086
:1029A000F8948A8189238A838981812B898381E4B0
:1029B00090E00E94270F8A81812B8A83789485E09A
:1029C00090E00E94270FDF91CF911F910895CF9241
:1029D000DF92EF92FF920F931F93CF93DF938C01BF
:1029E000E42EFF24F394C0E0D0E0C62EDD2460E0A6
:1029F0008F2D90E08C219D21892B09F061E0C80189
:102A00000E94B314FF0C2196C830D10581F7EE2047
:102A1000A9F4F894D8011196ED91FC911297918147
:102A20008C918095982391831196ED91FC9112974A
:102A300092818C918095982392837894DF91CF91A5
:102A40001F910F91FF90EF90DF90CF9008956CEC65
:102A500040E00E94E7140895EF92FF920F931F93B6
:102A6000CF93DF938C017B0165E540E00E94E71482
:102A7000C0E0D0E0F701EC0FFD1FC801608140E02D
:102A80000E94E7142196C830D105A1F7DF91CF91BC
:102A90001F910F91FF90EF900895DF92EF92FF92B8
:102AA0000F931F93CF93DF93FC010081C181D281EB
:102AB000F8948981D02ED0948D21898378941DE754
:102AC000E02EFF24115059F182E090E00E94270F80
:102AD000888190E08E219F21892BA1F3F8948A812F
:102AE0008D218A838981802B8983789484EF91E07A
:102AF0000E94270FF89489818D21898380E590E0D9
:102B00000E94270F888110E090E0E822F922EF2848
:102B100009F411E0789484EA91E00E94270F812F54
:102B2000DF91CF911F910F91FF90EF90DF9008956B
:102B3000AF92BF92DF92EF92FF920F931F93CF93CA
:102B4000DF93EC015B018D85882309F061C0CE0124
:102B50000E944D15882329F41B861D861C8690E053
:102B60006BC0CE0160EF40E00E94E71401E0DD247D
:102B7000EE24FF24F394CE010E946214182FCE019C
:102B80000E946214113019F48130E1F439C0181731
:102B900009F58B85081770F460E0FE01EE0DF11D5C
:102BA000838190E02F2D30E082239323181619069D
:102BB0004CF003C060E0081729F0093008F04CC061
:102BC0000C874AC0FE01EE0DF11D83818F2983839E
:102BD00061E009C0612FFE01EE0DF11D9F2D909562
:102BE000838189238383CE010E94B3140F5FFF0C7E
:102BF00019F4E394FF24F39487E08E1508F0BBCF1B
:102C0000013430F0DB86DD2011F581E08D871FC0B7
:102C10001B861D861C8690E0DE0120E030E0F50179
:102C2000E20FF31F13968C91139780832F5F3F4F12
:102C300011962830310599F7892FDF91CF911F9197
:102C40000F91FF90EF90DF90BF90AF9008958B8130
:102C50008823F1F291E0E0CFD02EBDCFFF920F9309
:102C60001F938C01F62E862F60E00E9423188F2D73
:102C700090E0FC01E557FC4FE491D801EC938958B2
:102C80009C4FFC016491E62FF0E0EE0FFF1FE3592B
:102C9000FC4F8591949112969C938E9311971B965D
:102CA0001C921B971D961C921D971C961C92F80156
:102CB00087E090E012863197009711F00197FACFE4
:102CC0001F910F91FF900895FC018081882311F4DA
:102CD00082E101C08D5F0E9423180895FC0180816C
:102CE000882311F483E101C0835F0E9423180895B3
:102CF000FC018081882311F482E101C08D5F0E9474
:102D000062180895FC018081882311F483E101C0D9
:102D1000835F0E94621808950F931F93CF93DF93F0
:102D2000EC01162F062F60FF07C060E00E946416BA
:102D3000CE0161E00E94781601FF08C0CE0160E07C
:102D40000E946E16CE0161E00E94821610958C8161
:102D500081238C83DF91CF911F910F9108950F9361
:102D60001F93CF93DF93EC01062F162F60FF07C050
:102D700060E00E947816CE0161E00E94641611FFA7
:102D800008C0CE0160E00E948216CE0161E00E9480
:102D90006E168C81802B8C83DF91CF911F910F91C8
:102DA00008950F931F93CF93DF938C01EB0180E085
:102DB0006115710509F081E0F8018283882341F0F3
:102DC0000E949A0E2197C60FD71FF801D183C083A6
:102DD000DF91CF911F910F910895EF92FF920F9382
:102DE0001F93CF93DF93EC017B018A81882311F439
:102DF00000E00FC0088119810E949A0EC801861B4D
:102E0000970B2AEE8136920710F400E006C0082FD7
:102E10000195CE01B7010E94D116802FDF91CF918D
:102E20001F910F91FF90EF9008958091E70308950F
:102E30006093DF037093E0038093E1039093E203D8
:102E400020916701309168014091690150916A01B8
:102E5000260F371F481F591F2093E3033093E403C5
:102E60004093E5035093E60382E08093E7030E94DA
:102E70009A0E6093E8037093E9038093EA039093BA
:102E8000EB0308950F931F93CF93DF93BC01823020
:102E9000910510F462E070E0E091F003F091F1032D
:102EA000A0E0B0E040E050E024C08081918186172E
:102EB0009707D0F08617970771F482819381109756
:102EC00029F013969C938E9312972CC09093F10344
:102ED0008093F00327C04115510519F08417950719
:102EE00018F4EF018D01AC01DF01828193819C0117
:102EF000F9013097D1F641155105F9F0CA01861B49
:102F0000970B8430910580F48A819B81011511050E
:102F100021F0F8019383828304C09093F10380939E
:102F2000F003FE0132962FC0FE01E80FF91F6193F6
:102F3000719302979983888326C08DB79EB788576F
:102F4000904020916B0130916C0128173907C8F42B
:102F5000AC01421B530B4617570798F0CB01029662
:102F60004817590770F0820F931F90936C0180935C
:102F70006B0190936E0180936D01F90161937193E0
:102F800002C0E0E0F0E0CF01DF91CF911F910F91FF
:102F900008951F920F920FB60F9211242F933F9313
:102FA0004F935F936F937F938F939F93AF93BF9351
:102FB000EF93FF938091EC039091ED03892B29F01F
:102FC000E091EC03F091ED030995FF91EF91BF9132
:102FD000AF919F918F917F916F915F914F913F91B1
:102FE0002F910F900FBE0F901F9018951F920F9268
:102FF0000FB60F9211242F933F934F935F936F93CC
:103000007F938F939F93AF93BF93EF93FF938091A1
:10301000EE039091EF03892B29F0E091EE03F091FC
:10302000EF030995FF91EF91BF91AF919F918F9120
:103030007F916F915F914F913F912F910F900FBEB4
:103040000F901F901895CF93DF93482F50E0CA013F
:1030500085579C4FFC01349149585C4FFA0184918B
:10306000882369F190E0880F991FFC01E75AFC4F13
:10307000A591B491FC01ED59FC4FC591D491662303
:1030800051F42FB7F8948C91932F909589238C93BA
:10309000888189230BC0623061F42FB7F8948C913A
:1030A000932F909589238C938881832B88832FBFBE
:1030B00006C09FB7F8948C91832B8C939FBFDF91B0
:1030C000CF910895482F50E0CA0181569C4FFC01D2
:1030D0002491CA0185579C4FFC01949149585C4F3B
:1030E000FA013491332309F440C0222351F12330F3
:1030F00071F0243028F42130A1F0223011F514C0F1
:103100002630B1F02730C1F02430D9F404C08091CA
:1031100080008F7703C0809180008F7D8093800036
:1031200010C084B58F7702C084B58F7D84BD09C07F
:103130008091B0008F7703C08091B0008F7D809325
:10314000B000E32FF0E0EE0FFF1FED59FC4FA5910B
:10315000B4912FB7F894662321F48C91909589232C
:1031600002C08C91892B8C932FBF08955058BB2798
:10317000AA270ED075C166D130F06BD120F031F4A2
:103180009F3F11F41EF45BC10EF4E095E7FB51C1C3
:10319000E92F77D180F3BA17620773078407950781
:1031A00018F071F49EF58FC10EF4E0950B2EBA2F36
:1031B000A02D0B01B90190010C01CA01A00111243D
:1031C000FF27591B99F0593F50F4503E68F11A16E9
:1031D000F040A22F232F342F4427585FF3CF46957A
:1031E00037952795A795F0405395C9F77EF41F169C
:1031F000BA0B620B730B840BBAF09150A1F0FF0F66
:10320000BB1F661F771F881FC2F70EC0BA0F621F51
:10321000731F841F48F4879577956795B795F79541
:103220009E3F08F0B3CF9395880F08F09927EE0FD3
:10323000979587950895D9D008F481E008950CD02A
:103240000FC107D140F0FED030F021F45F3F19F0FC
:10325000F0C0511139C1F3C014D198F39923C9F3C7
:103260005523B1F3951B550BBB27AA27621773078C
:10327000840738F09F5F5F4F220F331F441FAA1F40
:10328000A9F333D00E2E3AF0E0E830D09150504000
:10329000E695001CCAF729D0FE2F27D0660F771FAE
:1032A000881FBB1F261737074807AB07B0E809F090
:1032B000BB0B802DBF01FF2793585F4F2AF09E3F25
:1032C000510568F0B6C000C15F3FECF3983EDCF3F7
:1032D000869577956795B795F7959F5FC9F7880F9E
:1032E000911D9695879597F90895E1E0660F771FF0
:1032F000881FBB1F621773078407BA0720F0621B81
:10330000730B840BBA0BEE1F88F7E095089504D079
:103310006894B111D9C00895BCD088F09F5790F03F
:10332000B92F9927B751A0F0D1F0660F771F881FEA
:10333000991F1AF0BA95C9F712C0B13081F0C3D005
:10334000B1E00895C0C0672F782F8827B85F39F0A3
:10335000B93FCCF3869577956795B395D9F73EF449
:1033600090958095709561957F4F8F4F9F4F0895F1
:10337000E89409C097FB3EF490958095709561950F
:103380007F4F8F4F9F4F9923A9F0F92F96E9BB27C5
:103390009395F695879577956795B795F111F8CF41
:1033A000FAF4BB0F11F460FF1BC06F5F7F4F8F4FAC
:1033B0009F4F16C0882311F096E911C0772321F0A2
:1033C0009EE8872F762F05C0662371F096E8862F3A
:1033D00070E060E02AF09A95660F771F881FDAF791
:1033E000880F9695879597F90895990F0008550FBE
:1033F000AA0BE0E8FEEF16161706E807F907C0F07B
:1034000012161306E407F50798F0621B730B840B82
:10341000950B39F40A2661F0232B242B252B21F45C
:1034200008950A2609F4A140A6958FEF811D811DFC
:10343000089597F99F6780E870E060E008959FEF36
:1034400080EC089500240A9416161706180609063B
:10345000089500240A94121613061406050608950A
:10346000092E0394000C11F4882352F0BB0F40F492
:10347000BF2B11F460FF04C06F5F7F4F8F4F9F4FD2
:10348000089557FD9058440F551F59F05F3F71F054
:103490004795880F97FB991F61F09F3F79F08795BB
:1034A0000895121613061406551FF2CF4695F1DF44
:1034B00008C0161617061806991FF1CF86957105D4
:1034C000610508940895E894BB2766277727CB0108
:1034D00097F908958ADF08F48FEF08950BD0C0CFD5
:1034E000B1DF28F0B6DF18F0952309F0A2CFA7CFFF
:1034F0001124EACFC6DFA0F3959FD1F3950F50E0DA
:10350000551F629FF001729FBB27F00DB11D639F95
:10351000AA27F00DB11DAA1F649F6627B00DA11D3B
:10352000661F829F2227B00DA11D621F739FB00DE1
:10353000A11D621F839FA00D611D221F749F332751
:10354000A00D611D231F849F600D211D822F762FEA
:103550006A2F11249F5750408AF0E1F088234AF0E7
:10356000EE0FFF1FBB1F661F771F881F9150504033
:10357000A9F79E3F510570F05CCFA6CF5F3FECF3FB
:10358000983EDCF3869577956795B795F795E7951F
:103590009F5FC1F7FE2B880F911D9695879597F930
:1035A000089523DF880B990B0895629FD001739FC4
:1035B000F001829FE00DF11D649FE00DF11D929FCF
:1035C000F00D839FF00D749FF00D659FF00D99270E
:1035D000729FB00DE11DF91F639FB00DE11DF91F32
:1035E000BD01CF0111240895A1E21A2EAA1BBB1B15
:1035F000FD010DC0AA1FBB1FEE1FFF1FA217B307BF
:10360000E407F50720F0A21BB30BE40BF50B661FD4
:10361000771F881F991F1A9469F760957095809598
:1036200090959B01AC01BD01CF010895EE0FFF1FE6
:103630000590F491E02D09942F923F924F925F9262
:103640006F927F928F929F92AF92BF92CF92DF92B2
:10365000EF92FF920F931F93CF93DF93CDB7DEB717
:10366000CA1BDB0B0FB6F894DEBF0FBECDBF0994AB
:103670002A88398848885F846E847D848C849B8402
:10368000AA84B984C884DF80EE80FD800C811B8110
:10369000AA81B981CE0FD11D0FB6F894DEBF0FBE3F
:0A36A000CDBFED010895F894FFCFAF
:1036AA0054656D703A200046205B002E2E005D00A6
:1036BA0054696D65206E6F74207365740020004E26
:1036CA00657454696D6520636F6E666967757265A6
:1036DA006400307800202023003A2000206E6F77A3
:1036EA003A0046206D696E3A002C0020006E616E29
:1036FA0000696E66006F7666002E005902B60100F8
:10370A00005402AF0200002C010000F20364000022
:10371A00000000A6068C11E5051206E705FCFF006D
:10372A00000E06E60500000000D606CC06000000E2
:10373A00007C079007000000002A087008070003B1
:10374A00000100000000000000E7108C117D10AE9F
:06375A00108E10D71000D4
:00000001FF
