:100000000C9443020C94A7200C94D4200C946B0203
:100010000C946B020C946B020C946B020C946B02AC
:100020000C946B020C946B020C946B020C946B029C
:100030000C946B020C946B020C946B020C946B028C
:100040000C9433120C946B020C9428130C947613BA
:100050000C946B020C946B020C946B020C946B026C
:100060000C946B020C946B022A2A2A2A2A205255DD
:100070004E4E494E473A2068656C6C6F5F6E6F64F8
:10008000652E696E6F002A2A2A2A2A205345545564
:10009000503A2068656C6C6F5F6E6F64652E696E98
:1000A0006F00206E6F7420666F756E6420696E201D
:1000B000636F6E6669675F7265616400436F6E6649
:1000C00069673A206D6F64756C652000206E6F74EF
:1000D00020666F756E6420696E20636F6E66696757
:1000E0005F777269746500436F6E6669673A206D69
:1000F0006F64756C6520002020435243206D61744D
:10010000636865732100202043524320646F657348
:10011000206E6F74206D61746368210020627974B1
:10012000657300206D617829002076732E2000749D
:1001300068206D6F64756C6520697320746F6F2023
:100140006C61726765202800434F4E4649473A204C
:100150007468652073697A65206F6620746865200D
:10016000636F6E66696720666F7220746865200031
:1001700020636F6E666967732000436F6E66696700
:100180003A20002074696D65002065746800207253
:1001900066313200206C6364002073657269616CA3
:1001A00000436F6E666967204C6F673A00202072CB
:1001B00065647563696E6720747820706F77657207
:1001C00020616E64207278206761696E002067721A
:1001D0006F75705F69643D00436F6E666967204E9E
:1001E00065743A206E6F64655F69643D00436F6EAD
:1001F0006669673A20004E65743A2073656E6469DB
:100200006E6720616E6E6F756E63656D656E7400EE
:1002100054696D6520696E697469616C697A656499
:10022000004F57543A20476F6F6420646174612017
:10023000666F7220004F57543A2042616420646117
:10024000746120666F7220004F57543A20426164F7
:1002500020435243202020666F722000436F6E6659
:100260006967204F7754656D703A20726573746FBB
:100270007265642061646472732066726F6D2045DC
:100280004550524F4D00206D61783A00732C206D1F
:10029000696E4D6178436F756E743A002073656EB8
:1002A000736F72732C206D696E4D617854696D6542
:1002B000723A004F7754656D70206861732000209A
:1002C00073656E736F7273004F7754656D70207233
:1002D00065616479207769746820004F7754656D93
:1002E00070204D697373696E672073656E736F72EA
:1002F000733A004F7754656D70204E6577207365B3
:100300006E736F72733A20202020004F7754656D12
:1003100070207365747570207374617274696E6790
:1003200020776974683A00005EBCE2613FDD83C2F9
:100330009C7E20A3FD1F419DC3217FFCA2401E5F28
:1003400001E3BD3E6082DC237D9FC1421CFEA0E133
:10035000BF5D0380DE3C62BEE0025CDF81633D7C0A
:1003600022C09E1D43A1FF4618FAA427799BC5848D
:10037000DA3866E5BB5907DB856739BAE4065819F0
:1003800047A5FB7826C49A653BD987045AB8E6A7E7
:10039000F91B45C6987A24F8A6441A99C7257B3AD2
:1003A0006486D85B05E7B98CD2306EEDB3510F4E41
:1003B00010F2AC2F7193CD114FADF3702ECC92D3C0
:1003C0008D6F31B2EC0E50AFF1134DCE90722C6D9B
:1003D00033D18F0C52B0EE326C8ED0530DEFB1F0A2
:1003E000AE4C1291CF2D73CA947628ABF5174908FD
:1003F00056B4EA6937D58B5709EBB536688AD49578
:10040000CB2977F4AA4816E9B7550B88D6346A2B5E
:100410007597C94A14F6A8742AC896154BA9F7B659
:10042000E80A54D7896B3500000000240027002A11
:100430000000000000250028002B00000000002321
:100440000026002900040404040404040402020237
:100450000202020303030303030102040810204005
:10046000800102040810200102040810200000008E
:100470000700020100000304060000000000000065
:1004800000006503E21411241FBECFEFD8E0DEBFE9
:10049000CDBF11E0A0E0B1E0E4EBF8E402C00590CC
:1004A0000D92AC3FB107D9F714E0ACEFB1E001C059
:1004B0001D92AB38B107E1F714E0C6E8D4E004C000
:1004C0002297FE010E941D24C238D107C9F70E945D
:1004D00038150C9458240C940000EF92FF920F935F
:1004E000DF93CF93CDB7DEB760970FB6F894DEBF3A
:1004F0000FBECDBFA82F002309F461C07E01089470
:10050000E11CF11C88E0F70111928A95E9F7298333
:100510003A834B835C836D837E83AF83988780E2CD
:10052000801BE82FFF27E7FDF0954D815E816F81ED
:100530007885181684F01D861E861F86188A8827DF
:1005400099278E1B9F0B04C0769567955795479505
:100550008A95D2F728C0202F332727FD3095DB015D
:10056000CA01022E04C0B695A795979587950A945F
:10057000D2F78D879E87AF87B88B04C0440F551F75
:10058000661F771FEA95D2F789819A81AB81BC817A
:1005900004C0B695A795979587952A95D2F7482BCD
:1005A000592B6A2B7B2B49875A876B877C87298538
:1005B0003A854B855C856D857E85AF8598898A2FC8
:1005C00060960FB6F894DEBF0FBECDBFCF91DF911E
:1005D0000F91FF90EF9008950F931F93CF93DF93A8
:1005E000689F8001699F100D789F100D1124C8012C
:1005F0000E94EA1FEC01009729F060E070E0A8017A
:100600000E941103CE01DF91CF911F910F910895A8
:10061000FB01DC0102C001900D9241505040D8F71F
:100620000895DC0101C06D9341505040E0F70895FA
:10063000A0E0B0E0EEE1F3E00C942B247C01EB01B0
:100640008A01690109C0CE012196F6010995F701D9
:1006500081937F010150104001151105A1F7CDB71D
:10066000DEB7E8E00C944724A0E0B0E0EAE3F3E072
:100670000C942B24EC017B018A01690109C0CE0195
:100680002196F70161917F01F60109950150104013
:1006900001151105A1F7CDB7DEB7E8E00C944724AA
:1006A000DF92EF92FF920F931F93D72E7A018C0166
:1006B000FA010995C80101966D2DF70109951F9161
:1006C0000F91FF90EF90DF9008958CEF91E064ED33
:1006D00041E00E941D078CED92E00E94210A81EE0C
:1006E00092E00E94090610922A0310922D031092A4
:1006F000300381E393E064E042E00E940C1282E068
:100700008093590310925C0310925D0310925E0374
:1007100010925F0380919D0190919E01009719F4C2
:1007200080E090E001C004969093A2018093A10123
:1007300008958CEF91E00E942909882391F089E5C2
:1007400093E061E00E94A51A0E942D0464E670E027
:1007500080E090E00E94891289E593E061E00E94C8
:10076000821A81E393E064E10E94B60D8EE293E089
:100770006AEA71EE0E94FA1A882371F080919D0155
:1007800090919E0160E071E00E94191881E393E06E
:100790006DE971E00E94D00C0E94511F823081F0FF
:1007A00088E293E060E67AEE0E94FA1A882341F02C
:1007B00080919D0190919E0161E171E00E94191864
:1007C00008950F931F9308EF13E0C80140E051EE26
:1007D00060E070E00E94B113C80166E870E00E941A
:1007E000BC1509E513E0C80163E00E94A51A8FE972
:1007F00091E00E94BF0460919D0170919E0181E390
:1008000093E00E94840F88E293E068EE73E00E9418
:10081000C71A80919D0190919E0168E670E00E9448
:10082000BC15C80163E00E94821A1F910F910895C0
:100830009C01F999FECF32BD21BDF89A80B508958B
:100840009C01F999FECF1FBA32BD21BD60BD0FB624
:10085000F894FA9AF99A0FBE089580912504882396
:1008600011F13091260420916203E0916003F09130
:10087000610390E016C0A191B19112968C911297EC
:10088000831771F440912504ED91FC91119741502B
:100890000280F381E02DCD0167E274E009950895AF
:1008A0009F5F921740F308951F93182F5091620392
:1008B000A0916003B091610320E230E090E047C076
:1008C000ED91FD9182814381811709F03DC0C901FD
:1008D00050E020E234E00E943403409163035091E1
:1008E0006403FA01329720E030E06FEF7FEF21C020
:1008F000F999FECF205E3F4F32BD21BDF89A80B5F9
:100900006827862F82958627082E869586958025CE
:10091000082E869580258770062E672F869507946A
:100920008795702D682706948795702568272F5125
:1009300030402E173F0708F4DBCFCA014E9640E245
:1009400054E00E94500319C0240F311D9F5F95177A
:1009500008F4B6CF88EF93E067EE70E00E9471155F
:1009600088EF93E0612F4AE050E00E948D1688EFF7
:1009700093E06CEC70E00E94BC151F9108958F927B
:100980009F92AF92BF92DF92EF92FF920F931F93CD
:10099000DF93CF93CDB7DEB7C054D0400FB6F894F5
:1009A000DEBF0FBECDBF5C0120E0322F3F5FE22FE4
:1009B000F0E0EE0FFF1FEA0DFB1D80819181892B76
:1009C00011F0232FF2CF20936203B0926103A09223
:1009D000600388EF93E06AE771E00E94711588EF89
:1009E00093E0609162034AE050E00E948D1688EF28
:1009F00093E060E771E00E94711510926403109219
:100A00006303EE244EC00E2D10E0F801EE0FFF1F21
:100A1000EA0DFB1D0190F081E02DF38080E48F153D
:100A2000A8F588EF93E00E949C1588EF93E068E4B6
:100A300071E00E9471150F5F1F4F88EF93E0B801BE
:100A40004AE050E00E94FD1688EF93E06FE271E00B
:100A50000E94711588EF93E06F2D4AE050E00E94EC
:100A60008D1688EF93E069E271E00E94711588EFBE
:100A700093E060E470E04AE050E00E94FD1688EFE9
:100A800093E063E271E00E94BC150AC080916303A9
:100A9000909164038F0D911D909364038093630381
:100AA000E39480916203E81608F4ADCF609163038C
:100AB000709164036E5F7F4F709364036093630370
:100AC00088EF93E04AE050E00E945F1688EF93E0E1
:100AD0006CE171E00E94BC15609163037091640346
:100AE00020E030E04FEF5FEF21C0F999FECF205EAC
:100AF0003F4F32BD21BDF89A80B54827842F82959B
:100B00008427082E869586958025082E8695802533
:100B10008770042E452F869507948795502D48277A
:100B200006948795502548272F51304026173707C0
:100B300008F4DBCF452B01F188EF93E066E071E02C
:100B40000E94BC1510E013C0E12FF0E0EE0FFF1F74
:100B5000EA0DFB1DA081B181ED91FC9111970190EF
:100B6000F081E02DCD0160E070E009951F5F80917C
:100B70006203181748F337C088EF93E067EF70E01F
:100B80000E94BC1590E2E92EF12CDD244E01089460
:100B9000811C911C24C00D2D10E0000F111F0A0DA7
:100BA0001B1DD801ED91FC914381C401B70150E0B8
:100BB00028E134E00E941803F801A081B181ED9191
:100BC000FC9111970190F081E02DCD01B4010995C0
:100BD000D801ED91FC918381E80EF11CD3948091B2
:100BE0006203D816C0F2C05CDF4F0FB6F894DEBFC8
:100BF0000FBECDBFCF91DF911F910F91FF90EF906E
:100C0000DF90BF90AF909F908F90089508950895C2
:100C10000895FC011382128286EB91E09183808318
:100C20000E9695838483EA5BFF4F1082E654F04072
:100C300081E08683878380E08160808708950497C0
:100C40000E9423060895CF93DF93EC01FB01BC01C2
:100C5000685F7F4F309719F08081888706C080E0F9
:100C60008160888781E00E94540488EF93E061EA04
:100C700071E00E947115888580FF06C088EF93E0BF
:100C800069E971E00E947115888581FF06C088EFCF
:100C900093E064E971E00E947115888582FF06C0C7
:100CA00088EF93E06EE871E00E947115888583FFFC
:100CB00006C088EF93E069E871E00E9471158885AD
:100CC00084FF06C088EF93E063E871E00E9471152D
:100CD00088EF93E00E949C15DF91CF910895EF92E9
:100CE000FF920F931F93CF93DF937C01EC01CA5BBC
:100CF000DF4F8881F701E80FF11D1186D7011896A3
:100D00008C9180FF15C0B701675F7F4F88EF93E03C
:100D10000E942F178881882359F0F701E80FF11DF1
:100D200080858A3029F488EF93E06DE00E94941565
:100D3000F701808582FF27C08CEF91E00E940807B1
:100D4000EC01009701F181E088830E947E1F698396
:100D50007A838B839C83BE016B5F7F4F87010A5B25
:100D60001F4FD8014C919701275F3F4FCB01B9012D
:100D700050E00E940803F80160816B5F8CEF91E006
:100D800041E00E942109D70118968C91189783FFA2
:100D90000EC0ED91FC911197B701675F7F4FAA5B81
:100DA000BF4F0480F581E02DC7014C910995E6E421
:100DB000F0E0EE0EFF1ED7011C92DF91CF911F9144
:100DC0000F91FF90EF9008951F93CF93DF93EC0165
:100DD000162FCA5BDF4F8881C654D0408D3318F080
:100DE000CE010E946F06DE01AA5BBF4F8C91FE010F
:100DF000E80FF11D11878F5F8C931A3019F4CE0123
:100E00000E946F0681E090E0DF91CF911F910895DD
:100E1000FC01E053FF4F9081E05DF040933018F00B
:100E200020E030E008C084E4989F900111242A5FFC
:100E30003F4F2E0F3F1FC9010895FC018CEC91E03C
:100E400091838083E252FF4F61934083389780E81B
:100E5000808333968FEF9FEFAFEFBFEF8083918357
:100E6000A283B383EA5DF040128282E08383089517
:100E70000895EF92FF920F931F938C016093660386
:100E800088EF93E068ED71E00E94711588EF93E0C0
:100E9000609166034AE050E00E948D1688EF93E06F
:100EA0006DEC71E00E9471158EEDE82EF12CE00ED4
:100EB000F11E88EF93E0F70160814AE050E00E9464
:100EC0009F168091660363E0F70140810E941D1F19
:100ED00001521F4FF8018081882371F088EF93E061
:100EE0006DEA71E00E94BC1587E598E90E944C1BF1
:100EF00082EB94E90E944C1B1F910F91FF90EF90A1
:100F00000895AF92BF92CF92DF92EF92FF920F932C
:100F10001F93DF93CF9300D00F92CDB7DEB77C0144
:100F200080916603F701E952FF4F813071F48083AD
:100F30000E947B122AED30E0E20EF31ED7016D9382
:100F40007D938D939C93139763C0808187FF17C017
:100F500081EA8083E8EDF0E0EE0EFF1E85E59AEA77
:100F6000D7018D939D937D010E947B12F7016083D1
:100F700071838283938326E23FEFE20EF31E0E9489
:100F8000651C882309F444C0FE01319683E0DF012B
:100F90001D928A95E9F7870109521F4FD8018C915C
:100FA000898328ED30E0E20EF31ED7018D919C91EC
:100FB00028E23FEFE20EF31E9B838A838EE1BF019E
:100FC00043E00E94611E0E947B125B016C01D8010C
:100FD0008C9187FD05C020E23EE440E050E004C073
:100FE00024EF31E040E050E0EAEDF0E0EE0EFF1ECD
:100FF0002A0D3B1D4C1D5D1DD7012D933D934D9337
:101000005C93139788EF93E066EF71E00E94BC1544
:101010000F900F900F90CF91DF911F910F91FF9044
:10102000EF90DF90CF90BF90AF900895CF92DF9276
:10103000EF92FF920F931F93DF93CF93CDB7DEB75D
:101040007C01CDB6DEB6FB018B016115710569F13E
:1010500080818E3151F188EF93E06DEE71E00E9456
:10106000711588EF93E0F80160814AE050E00E943A
:101070008D1688EF93E06EE171E00E942F17F80162
:10108000618188EF93E070E04AE050E00E94101721
:1010900087ED90E0E80EF91EF8018081F70180836A
:1010A00089E29FEFE80EF91E0FC000D00DB71EB702
:1010B0000F5F1F4F8EE1EDB7FEB78183F8011182FC
:1010C00080E0B8010E945404F801608160936603D7
:1010D000818180936503C7010E943907C7010E947F
:1010E00081070FB6F894DEBE0FBECDBECF91DF9163
:1010F0001F910F91FF90EF90DF90CF9008951F9375
:10110000CF93DF93EC01862F60916603861711F46D
:10111000682F01C06064162F10680E94651C882328
:1011200039F0812F60E070E040E00E94611E03C052
:10113000CA52DF4F1883DF91CF911F9108951F93FB
:10114000CF93DF93EC01C053DF4F8881C05DD04067
:101150008823E1F11C81CF52DF4F8881C15DD040EF
:1011600090E007970CF01F7DBE016A5F7F4F812FD3
:101170004D810E94611E15FD1BC0C053DF4F888149
:10118000C05DD040823050F0DE011496FE01E85B75
:10119000FF4F88E801900D928150E1F7FE01E05386
:1011A000FF4F808181508083CF52DF4F18820EC065
:1011B000FE01EF52FF4F80818F5F80830E947B1280
:1011C000CE52DF4F688379838A839B83DF91CF91EF
:1011D0001F910895CF93DF93EC01DC01A053BF4F23
:1011E0002C91233058F530E084E490E0289FF00102
:1011F000299FF00D389FF00D1124EC0FFD1F658322
:101200008C9190E0FC0154E0EE0FFF1F5A95E1F73E
:10121000E80FF91F3196EE0FFF1FEE0FFF1FEC0FC7
:10122000FD1F40838C918F5F8C93813039F40E9435
:10123000651C882319F0CE010E949F08DF91CF9191
:101240000895442311F441E401C041E60E94EA08F4
:1012500008950F931F93CF93DF93EC010E94681BB7
:10126000882309F490C08091210490912204892B55
:1012700009F085C08091240487FD4CC0809124042E
:1012800085FF06C0609124046F71CE010E947F0823
:10129000809124048F718E31D1F5FE01E952FF4F08
:1012A000908197FF70C080912604891709F06BC068
:1012B00020912704C852DF4F48815981C85DD04032
:1012C00030E0852F99272817390709F05CC08091F5
:1012D000280490E050708417950709F054C080915D
:1012E0002A04808380912B04882319F0813031F403
:1012F00003C01092650302C080936503C652DF4F9E
:10130000188219821A821B82CA5DD0403CC080912B
:10131000260483C08091240485FD35C020912404D7
:1013200030E02F7130708091660390E02817390704
:1013300051F5C053DF4F9881C05DD040992319F11A
:10134000CF52DF4F8881C15DD0408823E1F09230D9
:1013500050F0DE011496FE01E85BFF4F88E8019033
:101360000D928150E1F7FE01E053FF4F80818150E3
:101370008083CF52DF4F1882C15DD04004C080917E
:10138000210490912204C952DF4F8881C75DD0406B
:1013900087FF48C00E947B12C652DF4F28813981E7
:1013A0004A815B81CA5DD040621773078407950745
:1013B000C8F1CE010E9481072FC00E94651C8823BE
:1013C000C1F1F801808160E070E040E00E94611EA0
:1013D000F801108221C0CF52DF4F8881C15DD0401B
:1013E000882399F00E947B12CE52DF4F28813981E9
:1013F0004A815B81C25DD0402C593F4F4F4F5F4FB8
:10140000621773078407950738F00E94651C8823CC
:1014100019F0CE010E949F0880E0DF91CF911F91CB
:101420000F9108958E010A521F4FF8018081882381
:1014300021F6C053DF4F8881C05DD040882361F31F
:10144000CACFFC0184ED91E091838083148282E015
:10145000828381E083830895FC01DB0161157105BE
:1014600019F08C91848305C0349682E0BF010E94FC
:10147000540488EF93E060E271E00E941918089527
:101480001F93CF93DF93EB01443098F00E94511FDC
:10149000182F688179818A819B810E94541F1123B2
:1014A00041F480919D0190919E0160E172E00E9463
:1014B000BC15DF91CF911F9108950895EF92FF928F
:1014C0000F931F938C0154E0E52EF12CE80EF91ECA
:1014D000C7010E944319C7010E941D19C70164E496
:1014E00041E00E94DD1882E0F801838B1F910F918B
:1014F000FF90EF900895CF92DF92EF920F931F939A
:10150000DF93CF93CDB7DEB728970FB6F894DEBF41
:101510000FBECDBF09831A832B833C834D835E832B
:101520006F8378878C010C5F1F4FC8010E9443199D
:101530006E010894C11CD11CC801B6010E94221979
:10154000C8016EE440E00E94DD18C80160E040E0A0
:101550000E94DD18C80160E040E00E94DD18E294BE
:10156000EE0C60EEE622EA94C8016E2D40E00E9487
:10157000DD18C8010E944319C801B6010E94221952
:10158000C80168E441E00E94DD186AE070E080E094
:1015900090E00E948912C8010E942C1828960FB66C
:1015A000F894DEBF0FBECDBFCF91DF911F910F9199
:1015B000EF90DF90CF900895DC01AB0161157105CC
:1015C00039F15896ED91FC91599780819181892B41
:1015D0009281892B9381892B9481892B9581892BE9
:1015E0009681892B9781892B99F452962C9130E022
:1015F00073E0220F331F7A95E1F7CF01BA01A901F9
:101600000E94080388EF93E06CE572E00E94BC152D
:101610000895CF92DF92EF92FF920F931F93DF9383
:10162000CF93CDB7DEB728970FB6F894DEBF0FBEC5
:10163000CDBF6B01E982FA820B831C832D833E832D
:101640004F835887CB0163E371E00E942F178E010F
:101650000F5F1F4FF9E0EF2EF12CEC0EFD1EF8018D
:10166000608170E0E4E075956795EA95E1F7C60161
:1016700040E150E00E94FD16F80161918F0170E099
:101680006F707070C60140E150E00E94FD160E15AB
:101690001F0529F728960FB6F894DEBF0FBECDBF01
:1016A000CF91DF911F910F91FF90EF90DF90CF903E
:1016B00008958F929F92AF92BF92CF92DF92EF9256
:1016C000FF920F931F93DF93CF93CDB7DEB76C9745
:1016D0000FB6F894DEBF0FBECDBF4C010D8B1E8B35
:1016E0002F8B388F498F5A8F6B8F7C8F14E0E12EB0
:1016F000F12CE80EF91EC7010E944319C701BE0173
:101700006B5E7F4F0E942219C7016EEB40E00E9482
:10171000DD188E01075F1F4F6801B2E1AB2EB12CBF
:10172000AC0EBD1EC7010E948C18F80181938F0179
:10173000EA15FB05B9F7C60168E00E9447189989C8
:101740008917E1F088EF93E068E472E00E94711578
:10175000ED88FE880F89188D298D3A8D4B8D5C8D13
:10176000C40168EF73E00E94090B88EF93E066E321
:1017700071E00E942F17F601E08028C08985882338
:1017800019F48A85882331F08E858F3F19F4888972
:10179000803179F188EF93E065E372E00E94711582
:1017A000ED88FE880F89188D298D3A8D4B8D5C8DC3
:1017B000C40168EF73E00E94090B88EF93E066E3D1
:1017C00071E00E942F17FE013996E984F1800281B1
:1017D00013812481358146815781C40168EF73E00C
:1017E0000E94090B88EF93E00E949C1540E050E8AE
:1017F0004CC088EF93E061E272E00E947115ED88C1
:10180000FE880F89188D298D3A8D4B8D5C8DC40112
:1018100068EF73E00E94090B88EF93E066E371E0E4
:101820000E942F17FE013996E984F180028113810D
:101830002481358146815781C40168EF73E00E949D
:10184000090B88EF93E00E949C159A8580E029851A
:1018500030E0282B392BDE011196E0EEF1E088E034
:1018600001900D928150E1F7ED85F0E0E076F070A7
:10187000A4E0F695E795AA95E1F7EC0FFD1F4181ED
:1018800052814095509542235323CA016C960FB65E
:10189000F894DEBF0FBECDBFCF91DF911F910F91A6
:1018A000FF90EF90DF90CF90BF90AF909F908F9080
:1018B00008958F929F92AF92BF92CF92DF92EF9254
:1018C000FF920F931F93CF93DF93EC01D22EC32E81
:1018D000B42EA52E962E872E0E94590B9C0180E8CF
:1018E0002030380779F5CE012D2D3C2D4B2D5A2D6A
:1018F000692D782D0E94590B9C0180E82030380713
:1019000009F5CE012D2D3C2D4B2D5A2D692D782D0D
:101910000E94590B9C0180E82030380799F4CE01D1
:101920002D2D3C2D4B2D5A2D692D782D0E94590BB4
:101930009C0180E82030380729F4E0E070E080EC7A
:101940006FE71BC0B901882777FD8095982F0E940B
:10195000982220E030E040E85DE30E944C2326E638
:1019600036E646EE5FE30E944C2320E030E040E0A4
:1019700052E40E949521E62F692F2E2F372F482FF2
:10198000562FB901CA01DF91CF911F910F91FF909E
:10199000EF90DF90CF90BF90AF909F908F90089581
:1019A0009F92AF92BF92CF92DF92EF92FF920F93EE
:1019B0001F93CF93DF935C01EB01CB0163EB72E0EC
:1019C0000E947115CE01D50152966C914AE050E00B
:1019D0000E948D16CE016CE972E00E947115C5015E
:1019E0004F960E94E31A68EE73E00E94D223CE0164
:1019F0004AE050E00E945F16CE016CE872E00E945F
:101A00007115F50162A173A1CE014AE050E00E9478
:101A1000701699249AC0CE0169E371E00E942F17D5
:101A2000CE01692D4AE050E00E948D16CE016BE395
:101A300071E00E942F17C92CDD24C60133E0880F06
:101A4000991F3A95E1F7D5015896ED91FC91599778
:101A5000E80FF91FE080F180028113812481358134
:101A600046815781C501BE010E94090BCE016EE37C
:101A700071E00E942F17C601880F991F880F991FC8
:101A8000D5015B96ED91FC915C97E80FF91F4081C1
:101A9000518162817381CE0122E030E00E941618EC
:101AA000CE0164E471E00E942F177601EE0CFF1C5A
:101AB000EC0CFD1CEE0CFF1C00E010E0D501949630
:101AC000ED91FC919597EE0DFF1DE00FF11F6081E8
:101AD000772767FD7095685A7F4FCE014AE050E046
:101AE0000E94FD16CE016BE471E00E942F170F5F7C
:101AF0001F4F0630110511F7CE0166E872E00E9413
:101B0000711500E010E0D5019696ED91FC91979744
:101B1000EE0DFF1DE00FF11F6081772767FD7095C7
:101B2000685A7F4FCE014AE050E00E94FD16CE0178
:101B30006BE471E00E942F170F5F1F4F06301105F5
:101B400011F7CE010E949C159394F5018289981695
:101B500008F461CFDF91CF911F910F91FF90EF902B
:101B6000DF90CF90BF90AF909F9008952F923F92BB
:101B70004F925F927F928F929F92AF92BF92CF923D
:101B8000DF92EF92FF920F931F93CF93DF93EC01BD
:101B9000962E4F9660E67AEE0E94FA1A882391F10B
:101BA0008AA19BA101969BA38AA3803F910550F136
:101BB0001BA21AA260E070E040E050E013C0215088
:101BC000304014968C91149715968C9315978481B8
:101BD0008583119731972115310589F76F5F7F4F05
:101BE0004A5F5F4F8A8990E0681779075CF4ACA17F
:101BF000BDA1A40FB51FEEA1FFA1E40FF51F25E0C5
:101C000030E0DDCF0E947B125B016C018B8981305B
:101C100021F0823009F065C124C09920D1F08C896F
:101C20009D89AE89BF8986017501E81AF90A0A0BF8
:101C30001B0B692D70E080E090E028EE33E040E07F
:101C400050E00E94B3236E157F058007910708F0CE
:101C500048C1AC8ABD8ACE8ADF8ACE010E945E0A64
:101C600040C18C899D89AE89BF89A81AB90ACA0A60
:101C7000DB0A8DEBA816B104C104D10408F431C10C
:101C800077240F2EF0E02F2EF0E03F2EF0EC4F2EB9
:101C9000FFE75F2EF02D1EC1A72CBB24C501F3E08A
:101CA000880F991FFA95E1F7E88DF98DE80FF91F74
:101CB0000081118122813381448155816681778140
:101CC000CE010E94590C7B018C01E1E0CE2ED12C7B
:101CD000072C02C0CC0CDD1C0A94E2F7A801970186
:101CE0000E94AF232D8D3E8D8823B9F0C60182233B
:101CF0009323892B69F0AA0CBB1CAA0CBB1CEB8D8F
:101D0000FC8DEA0DFB1D2082318242825382E1C0AC
:101D10002C293D293E8F2D8FDCC0C60180959095E2
:101D2000282339233E8F2D8FC501880F991F880FD7
:101D3000991FEB8DFC8DE80FF91FE082F182028381
:101D40001383C801B70120E030E040E050E00E947A
:101D5000482388234CF0C801B70120E030E040E080
:101D60005FE30E94952108C0C801B70120E030E080
:101D700040E05FE30E9494210E94652258EAF52E1C
:101D8000F60E88EF93E06DE471E00E942F17CF2CE0
:101D9000DD24C7FCD09448E5842E912C8C0C9D1C2E
:101DA00088EF93E0B4014AE050E00E94FD1688EF0E
:101DB00093E063E571E00E942F178501000F111F6A
:101DC0000A0D1B1D000F111FECA1FDA1E00FF11F5B
:101DD0006081772767FD7095685A7F4F88EF93E0A1
:101DE0004AE050E00E94FD1688EF93E063E571E061
:101DF0000E942F1760E070E0ECA1FDA1E00FF11F41
:101E00008081F81614F461E070E088EF93E04AE016
:101E100050E00E941017ECA1FDA1E00FF11F858199
:101E2000803839F4CF01B60146E050E00E9411033A
:101E300004C08081F8160CF4F08288EF93E065E529
:101E400071E00E942F1788EF93E0B4014AE050E060
:101E50000E94FD1688EF93E063E571E00E942F1762
:101E6000EEA1FFA1E00FF11F6081772767FD70955C
:101E7000685A7F4F88EF93E04AE050E00E94FD16D9
:101E800088EF93E063E571E00E942F1760E070E057
:101E9000EEA1FFA1E00FF11F80818F1514F461E026
:101EA00070E088EF93E04AE050E00E941017EEA146
:101EB000FFA1E00FF11F8581803839F4CF01B60111
:101EC00046E050E00E94110304C080818F150CF49D
:101ED000F08273948A89781608F4DECE81E08B8BC9
:101EE00001C080E0DF91CF911F910F91FF90EF90A3
:101EF000DF90CF90BF90AF909F908F907F905F903A
:101F00004F903F902F9008952F923F924F925F9263
:101F10006F927F928F929F92AF92BF92CF92DF92F9
:101F2000EF92FF920F931F93DF93CF93CDB7DEB75E
:101F300065970FB6F894DEBF0FBECDBF3C012B01F5
:101F4000CB016BE073E00E947115DD2420C0C2015B
:101F500063E571E00E942F178D2D90E0A3E0880FBC
:101F6000991FAA95E1F7D3015896ED91FC915997E5
:101F7000E80FF91FE080F18002811381248135810F
:101F800046815781C301B2010E94090BD394F3012A
:101F90008289D816E0F2C2010E949C1593012C5F41
:101FA0003F4F3D872C87C9010E943A181B861A862D
:101FB000222433241986D5C0CE01019667E00E9401
:101FC000471839813E879A819F87AB81A88BBC8156
:101FD000B98BED81EA8BFE81FB8B2F812C8B3885B1
:101FE0003D8B882E9924AA24BB24CC24DD247601A1
:101FF0002E85392FAD01BF018C899D8908E30E9490
:102000006D02821609F0ADC0931609F0AAC0A4169D
:1020100009F0A7C0B51609F0A4C0C61609F0A1C002
:10202000D71609F09EC0E81609F09BC0F91609F012
:1020300098C0D30152960C9110E020E030E044C0EB
:10204000D3015896ED91FC915997E20FF31F8081CF
:1020500091814281538164817581A681E781285FE6
:102060003F4FBE85B81779F5FF85F91761F5888967
:10207000841749F59989951731F5BA89B61719F575
:10208000FB89F71701F58C898A17E9F49D899E175A
:10209000D1F4C2016BE571E00E942F1788EF93E045
:1020A000612F4AE050E00E949F1681E090E002C05C
:1020B000880F991F1A95E2F7AA85BB85A82BB92B23
:1020C000BB87AA874BC01F5F101708F4B9CF10E079
:1020D00020E030E040C0D3015896ED91FC91599733
:1020E000E20FF31F285F3F4F80819181892B9281FE
:1020F000892B9381892B9481892B9581892B9681BA
:10210000892B9781892B31F5BE85B0832F8521835B
:1021100038893283898983839A899483AB89A5839B
:10212000BC89B6832D892783C20167E671E00E94CE
:102130002F1788EF93E0612F4AE050E00E949F162E
:1021400081E090E002C0880F991F1A95E2F7282AD3
:10215000392A04C01F5F101708F4BDCF39853F5FCF
:1021600039878C859D85BE016F5F7F4F0E948E19D8
:10217000882309F021CF8C859D850E943A18FF2481
:1021800020C08F2D90E0F3E0880F991FFA95E1F7BA
:10219000D3015896ED91FC915997E80FF91F0081F2
:1021A0001181228133814481558166817781023298
:1021B00011F0083229F4C301EAE0EE2E0E947B0AF6
:1021C000F394F3018289F816E0F221143104B9F195
:1021D000C20163EF72E00E947115DD2429C0C101C4
:1021E0000D2C02C0969587950A94E2F780FF1FC0D8
:1021F000C20163E571E00E942F178D2D90E0B3E0DE
:10220000880F991FBA95E1F7D3015896ED91FC918B
:102210005997E80FF91FE080F18002811381248132
:10222000358146815781C301B2010E94090BD394C5
:10223000F3018289D81698F2C2010E949C15CA84C3
:10224000DB84C228D328C094D09481E090E0D301ED
:1022500052960C9002C0880F991F0A94E2F70197DA
:10226000C822D922C114D104B9F1C2016BED72E0C8
:102270000E947115BB2429C0C6010B2C02C0969583
:1022800087950A94E2F780FF1FC0C20163E571E001
:102290000E942F178B2D90E0A3E0880F991FAA951D
:1022A000E1F7D3015896ED91FC915997E80FF91F8A
:1022B000E080F1800281138124813581468157813C
:1022C000C301B2010E94090BB394F3018289B816CD
:1022D00098F2C2010E949C15C20168EC72E00E9453
:1022E0007115C201D30152966C914AE050E00E94F0
:1022F0008D16C2016FEB72E00E94BC15F301608D78
:10230000718D83E00E9454040E947B12D301549685
:102310006D937D938D939C935797C3010E945E0AA2
:10232000898565960FB6F894DEBF0FBECDBFCF91FD
:10233000DF911F910F91FF90EF90DF90CF90BF90B2
:10234000AF909F908F907F906F905F904F903F9055
:102350002F9008951F93CF93DF93EC01413108F044
:1023600040E14A8B1B8A1E8E1D8E842F90E064E014
:1023700070E00E94EC028B8F9C8F8A8990E066E06F
:1023800070E00E94EC028CA39DA32A8916E0219F95
:102390009001112460E870E0A9010E9411038A896C
:1023A00090E066E070E00E94EC028EA39FA32A8971
:1023B000219F9001112460E870E0A9010E9411039F
:1023C00083E08A838A8990E0B3E0880F991FBA95E9
:1023D000E1F78B8388EF93E063E771E00E942F17AA
:1023E00088EF93E06A894AE050E00E948D1688EFFA
:1023F00093E062E871E00E942F1788EF93E06B8111
:102400004AE050E00E948D1688EF93E00E949C15F0
:10241000DF91CF911F910895EF92FF920F931F9339
:102420008C01F62EE42E8CED91E0F80191838083EF
:10243000C80104960E94241AF80111A2C8016F2D48
:102440004E2D0E94AA11F801828990E068E070E0A8
:102450000E94EC02F801808F918F128E1F910F91D4
:10246000FF90EF9008951F920F920FB60F921124D4
:102470002F933F938F939F93AF93BF9380916B0361
:1024800090916C03A0916D03B0916E0330916F0336
:102490000196A11DB11D232F2D5F2D3720F02D5743
:1024A0000196A11DB11D20936F0380936B03909340
:1024B0006C03A0936D03B0936E03809167039091BA
:1024C0006803A0916903B0916A030196A11DB11D33
:1024D0008093670390936803A0936903B0936A03A2
:1024E000BF91AF919F918F913F912F910F900FBE10
:1024F0000F901F9018958FB7F89420916B0330912F
:102500006C0340916D0350916E038FBFB901CA01F6
:1025100008959B01AC017FB7F89480916703909177
:102520006803A0916903B0916A0366B5A89B05C0D2
:102530006F3F19F00196A11DB11D7FBFBA2FA92FC2
:10254000982F8827860F911DA11DB11D62E0880F6D
:10255000991FAA1FBB1F6A95D1F7BC012DC0FFB7F9
:10256000F8948091670390916803A0916903B091FA
:102570006A03E6B5A89B05C0EF3F19F00196A11DBF
:10258000B11DFFBFBA2FA92F982F88278E0F911D3D
:10259000A11DB11DE2E0880F991FAA1FBB1FEA957C
:1025A000D1F7861B970B885E9340C8F221503040CC
:1025B0004040504068517C4F21153105410551057F
:1025C00071F60895019739F0880F991F880F991FA8
:1025D00002970197F1F70895789484B5826084BDDD
:1025E00084B5816084BD85B5826085BD85B5816017
:1025F00085BDEEE6F0E0808181608083E1E8F0E077
:102600001082808182608083808181608083E0E8A5
:10261000F0E0808181608083E1EBF0E08081846084
:102620008083E0EBF0E0808181608083EAE7F0E086
:1026300080818460808380818260808380818160EA
:1026400080838081806880831092C10008950895FE
:102650001F920F920FB60F9211242F933F934F9317
:102660008F939F93EF93FF938091C00082FD1DC0D5
:102670004091C6002091B0033091B1032F5F3F4FCE
:102680002F7330708091B2039091B30328173907EC
:1026900071F0E091B003F091B103E059FC4F408339
:1026A0003093B1032093B00302C08091C600FF9124
:1026B000EF919F918F914F913F912F910F900FBE6E
:1026C0000F901F901895E0910404F0910504E05CD0
:1026D000FF4F8191919120813181821B930B8F73E8
:1026E0009070892B11F00E94271308951F920F926A
:1026F0000FB60F9211242F933F938F939F93EF93D5
:10270000FF932091F4033091F5038091F6039091AB
:10271000F7032817390731F48091C1008F7D80932A
:10272000C10014C0E091F603F091F703EC54FC4FA4
:1027300020818091F6039091F70301968F7390703A
:102740009093F7038093F6032093C600FF91EF91D7
:102750009F918F913F912F910F900FBE0F901F90DF
:102760001895AF92BF92DF92EF92FF920F931F9353
:10277000CF93DF93EC017A018B01DD24403081EEB1
:10278000580780E0680780E0780711F0DD24D394D3
:1027900091E0A92EB12CEC89FD89DD2069F0C501FD
:1027A00008A002C0880F991F0A94E2F7808360E0B6
:1027B00079E08DE390E005C0108260E874E88EE176
:1027C00090E0A80197010E94F92321503040404039
:1027D0005040569547953795279580E1203038072A
:1027E00020F0DD2011F0DD24D6CFE889F98930838F
:1027F000EA89FB89208319A2EE89FF89408121E0C3
:1028000030E0C9010C8C02C0880F991F0A94E2F7CE
:10281000482B4083EE89FF894081C9010D8C02C09D
:10282000880F991F0A94E2F7482B4083EE89FF89AD
:102830004081C9010E8C02C0880F991F0A94E2F7EB
:10284000482B4083EE89FF8980810F8C02C0220FC4
:10285000331F0A94E2F7209528232083DF91CF913C
:102860001F910F91FF90EF90DF90BF90AF90089570
:10287000DC011C96ED91FC911D97E05CFF4F2191CE
:10288000319180819181281B390B2F733070C901E0
:102890000895DC011C96ED91FC911D97E05CFF4FC3
:1028A00020813181E054F040DF01AE5BBF4F8D915C
:1028B0009C9111972817390719F42FEF3FEF07C0A4
:1028C0008D919C91E80FF91F8081282F30E0C9017C
:1028D0000895DC011C96ED91FC911D97E05CFF4F83
:1028E00020813181E054F040DF01AE5BBF4F8D911C
:1028F0009C9111972817390719F42FEF3FEF10C05B
:102900008D919C911197E80FF91F20818D919C91D9
:10291000119701968F73907011969C938E9330E06F
:10292000C9010895DC0191968C919197882339F023
:102930005496ED91FC915597808186FFF9CF919641
:102940001C920895CF93DF93EC01EE85FF85E05C48
:10295000FF4F20813181E054F0402F5F3F4F2F73B4
:102960003070DF01AE5BBF4F8D919C91119728179E
:102970003907D1F3E05CFF4F80819181E054F04052
:10298000E80FF91F6083EE85FF85E05CFF4F318320
:102990002083EE89FF89208181E090E00F8C02C0C6
:1029A000880F991F0A94E2F7282B208381E089A3DE
:1029B000EC89FD8980818064808381E090E0DF91F3
:1029C000CF9108951092FB031092FA0388EE93E0E2
:1029D000A0E0B0E08093FC039093FD03A093FE037E
:1029E000B093FF038CEE91E09093F9038093F8038A
:1029F00080E793E0909305048093040484EB93E0D4
:102A0000909307048093060485EC90E0909309046A
:102A10008093080484EC90E090930B0480930A0464
:102A200080EC90E090930D0480930C0481EC90E096
:102A300090930F0480930E0482EC90E09093110425
:102A40008093100486EC90E090931304809312041A
:102A500084E08093140483E08093150487E08093DE
:102A6000160485E08093170481E08093180408958C
:102A7000CF93DF930E94EC120E94E103C3E6D3E1FF
:102A80000E9499032097E1F30E946313F9CFCF923C
:102A9000DF92EF92FF920F931F93CF93DF937C010E
:102AA0006B018A01C0E0D0E00FC0D6016D916D01CD
:102AB000D701ED91FC910190F081E02DC7010995BE
:102AC000C80FD91F015010400115110571F7CE0133
:102AD000DF91CF911F910F91FF90EF90DF90CF90FA
:102AE0000895EF92FF920F931F93CF93DF937C0192
:102AF0008B01C0E0D0E0F8010F5F1F4F64916623A7
:102B000059F0D701ED91FC910190F081E02DC701C2
:102B10000995C80FD91FEFCFCE01DF91CF911F913B
:102B20000F91FF90EF900895DC01ED91FC910190E1
:102B3000F081E02D09950895EF92FF920F931F9376
:102B40008C01DC01ED91FC910190F081E02D6DE0B4
:102B500009957C01D801ED91FC910190F081E02D67
:102B6000C8016AE009959C012E0D3F1DC9011F9106
:102B70000F91FF90EF900895EF92FF920F931F93A4
:102B80007C010E9471158C01C7010E949C159C015B
:102B9000200F311FC9011F910F91FF90EF900895F1
:102BA000CF93DF93EC016115710519F420E030E05B
:102BB0000FC0DB010D900020E9F71197A61BB70BA2
:102BC000E881F9810280F381E02DAD0109959C0136
:102BD000C901DF91CF9108954F925F927F928F92BA
:102BE0009F92AF92BF92CF92DF92EF92FF920F939C
:102BF0001F93DF93CF93CDB7DEB7A1970FB6F894AD
:102C0000DEBF0FBECDBF2C01742ECB01223008F4E5
:102C10002AE019A231E2C32ED12CCC0EDD1E822E69
:102C20009924AA24BB24672D752FA50194010E9425
:102C3000F92379018A01C801B701A50194010E9415
:102C4000B323472D461B0894C108D1084A3010F41D
:102C5000405D01C0495CF6014083E114F1040105C7
:102C6000110521F07E2C5F2DC801DDCFC201B60118
:102C70000E94D015A1960FB6F894DEBF0FBECDBF4F
:102C8000CF91DF911F910F91FF90EF90DF90CF9048
:102C9000BF90AF909F908F907F905F904F900895DE
:102CA000DC012115310541F4ED91FC910190F08199
:102CB000E02D642F099508950E94EC150895EF9278
:102CC000FF920F931F939A017B0100E010E0B8017F
:102CD000A7010E9450161F910F91FF90EF90089549
:102CE000CF92DF92EF92FF920F931F936C017B01C3
:102CF0009A0100E010E0B801A7010E9450168C0173
:102D0000C6010E949C15080F191FC8011F910F9141
:102D1000FF90EF90DF90CF900895EF92FF920F9386
:102D20001F939A01E62EFF2400E010E0B801A701EE
:102D30000E9450161F910F91FF90EF900895CF922F
:102D4000DF92EF92FF920F931F936C01E62E9A0190
:102D5000FF2400E010E0B801A7010E9450168C018A
:102D6000C6010E949C15080F191FC8011F910F91E1
:102D7000FF90EF90DF90CF900895CF92DF92EF9287
:102D8000FF920F931F93CF93DF93EC016A017B01B6
:102D90002115310541F4E881F9810190F081E02DA0
:102DA000642F09951FC02A303105D1F477FF17C071
:102DB000E881F9810190F081E02D6DE209958C01A7
:102DC00044275527BA014C195D096E097F09CE01C8
:102DD0002AE00E94EC159801280F391F04C02AE050
:102DE0000E94EC159C01C901DF91CF911F910F91B9
:102DF000FF90EF90DF90CF900895EF92FF920F93A6
:102E00001F937B019A010027F7FC0095102FB80152
:102E1000A7010E94BD161F910F91FF90EF9008959A
:102E2000CF92DF92EF92FF920F931F936C017B0181
:102E30009A010027F7FC0095102FB801A7010E9406
:102E4000BD168C01C6010E949C15080F191FC801F0
:102E50001F910F91FF90EF90DF90CF9008950E9407
:102E6000D01508957F928F929F92AF92BF92CF928A
:102E7000DF92EF92FF920F931F93CF93DF934C015A
:102E80007A018B01722ECB01BA01A80197010E9431
:102E9000AF23882321F0C4016FE871E021C0C0E0B6
:102EA000D0E057016801E894D7F8C601B5012FEFCB
:102EB0003FEF4FE75FE70E94AF23882351F4C6013D
:102EC000B5012FEF3FEF4FE75FE70E94F92118169A
:102ED00014F0C1E0D0E0219739F0C40163E971E05A
:102EE0000E94D015EC0193C0C801B7012FEF3FEF4E
:102EF0004FE75FE40E944823181654F0C801B70159
:102F00002FEF3FEF4FE75FEC0E94F921882324F475
:102F1000C40167E971E0E4CFC801B70120E030E007
:102F200040E050E00E94F92187FD03C0C0E0D0E0FE
:102F30000EC0D401ED91FC910190F081E02DC4010F
:102F40006DE20995EC0117FB109517F9109520E03B
:102F500030E040E05FE3DD240BC0CA01B90120E0AE
:102F600030E040E251E40E94FD219B01AC01D3948A
:102F7000D71498F3C801B7010E9495215B016C0139
:102F80000E946A227B018C01C401B801A7012AE0DA
:102F900030E00E945016C80FD91F772039F0C401C5
:102FA0006BE971E00E94D015C80FD91FC801B701A5
:102FB0000E9496229B01AC01C601B5010E9494219A
:102FC00024C020E030E040E251E40E944C237B0129
:102FD0008C010E9465225B016C01CC24B7FCC0947B
:102FE000DC2CC401B601A5012AE030E00E94BD1628
:102FF000C80FD91FC601B5010E9498229B01AC01E0
:10300000C801B7010E9494217A947720D1F6CE01AD
:10301000DF91CF911F910F91FF90EF90DF90CF90B4
:10302000BF90AF909F908F907F9008950E9432172D
:103030000895EF92FF920F931F937C010E94D01589
:103040008C01C7010E949C15080F191FC8011F9110
:103050000F91FF90EF900895FC01F894A181B28147
:1030600011969C91119780818095982311969C933D
:1030700078940895FC0113861586148687E090E005
:1030800012863197009711F00197FACF0895DC016D
:1030900080E00BC0E82FF0E08D9190E0E827F92761
:1030A000E95DFC4FE49161508E2F662399F70895F6
:1030B000DF92EF92FF920F931F93FC01E08001815A
:1030C0001281F894F8018281DE2CD0948D218283C4
:1030D00081818E29818383E090E00E94E212F801D1
:1030E00081818D2181838AE090E00E94E212F801C3
:1030F0000081789485E390E00E94E21280E010E085
:10310000FF240E211F21012B09F081E01F910F9157
:10311000FF90EF90DF900895EF92FF920F931F932F
:10312000CF93DF937C0101E010E0C0E0D0E0C70165
:103130000E9458188111102B000F2196C830D1051C
:10314000B1F7812FDF91CF911F910F91FF90EF90F9
:1031500008951F93CF93DF93FC011081C181D28129
:10316000912F909560FF12C0F8948A8189238A83F9
:103170008981812B89838AE090E00E94E2128A8112
:10318000812B8A83789487E390E011C0F8948A8138
:1031900089238A838981812B898381E490E00E943D
:1031A000E2128A81812B8A83789485E090E00E94E4
:1031B000E212DF91CF911F910895CF92DF92EF92AB
:1031C000FF920F931F93CF93DF938C01E42EFF2484
:1031D000F394C0E0D0E0C62EDD2460E08F2D90E0B7
:1031E0008C219D21892B09F061E0C8010E94A9185A
:1031F000FF0C2196C830D10581F7EE20A9F4F89490
:10320000D8011196ED91FC91129791818C91809546
:10321000982391831196ED91FC91129792818C9154
:103220008095982392837894DF91CF911F910F918D
:10323000FF90EF90DF90CF9008956CEC40E00E94FB
:10324000DD180895EF92FF920F931F93CF93DF93B2
:103250008C017B0165E540E00E94DD18C0E0D0E014
:10326000F701EC0FFD1FC801608140E00E94DD18EE
:103270002196C830D105A1F7DF91CF911F910F9111
:10328000FF90EF900895DF92EF92FF920F931F93BC
:10329000CF93DF93FC010081C181D281F8948981B1
:1032A000D02ED0948D21898378941DE7E02EFF24C1
:1032B000115059F182E090E00E94E212888190E082
:1032C0008E219F21892BA1F3F8948A818D218A83F5
:1032D0008981802B8983789484EF91E00E94E212A7
:1032E000F89489818D21898380E590E00E94E21223
:1032F000888110E090E0E822F922EF2809F411E03B
:10330000789484EA91E00E94E212812FDF91CF91BC
:103310001F910F91FF90EF90DF900895AF92BF92B1
:10332000DF92EF92FF920F931F93CF93DF93EC0105
:103330005B018D85882309F061C0CE010E9443198D
:10334000882329F41B861D861C8690E06BC0CE0165
:1033500060EF40E00E94DD18FF24F39401E0DD24DB
:10336000EE24CE010E945818182FCE010E94581842
:10337000113019F48130E1F439C0181709F58B8543
:10338000081770F460E0FE01EE0DF11D838190E0FE
:103390002F2D30E082239323181619064CF003C01A
:1033A00060E0081729F0093008F04CC00C874AC0CB
:1033B000FE01EE0DF11D83818F29838361E009C039
:1033C000612FFE01EE0DF11D9F2D909583818923C4
:1033D0008383CE010E94A9180F5FFF0C19F4E394B8
:1033E000FF24F39487E08E1508F0BBCF013430F052
:1033F000DB86DD2011F581E08D871FC01B861D86D1
:103400001C8690E0DE0120E030E0F501E20FF31FC2
:1034100013968C91139780832F5F3F4F119628301E
:10342000310599F7892FDF91CF911F910F91FF906F
:10343000EF90DF90BF90AF9008958B818823F1F2D9
:1034400091E0E0CFD02EBDCFFF920F931F938C0160
:10345000F62E862F60E00E9401218F2D90E0FC0166
:10346000E75AFB4FE491D801EC938B5B9B4FFC0137
:103470006491E62FF0E0EE0FFF1FE55CFB4F8591B6
:10348000949112969C938E9311971B961C921B9766
:103490001D961C921D971C961C92F80187E090E0E7
:1034A00012863197009711F00197FACF1F910F9173
:1034B000FF900895FC018081882311F482E101C00E
:1034C0008D5F0E9401210895FC018081882311F401
:1034D00083E101C0835F0E9401210895FC01808186
:1034E000882311F482E101C08D5F0E94402108957C
:1034F000FC018081882311F483E101C0835F0E9475
:10350000402108950F931F93CF93DF93EC01162F63
:10351000062F60FF07C060E00E945A1ACE0161E0EA
:103520000E946E1A01FF08C0CE0160E00E94641A7A
:10353000CE0161E00E94781A10958C8181238C83E2
:10354000DF91CF911F910F9108950F931F93CF9308
:10355000DF93EC01062F162F60FF07C060E00E948A
:103560006E1ACE0161E00E945A1A11FF08C0CE0106
:1035700060E00E94781ACE0161E00E94641A8C819A
:10358000802B8C83DF91CF911F910F9108950F9322
:103590001F93CF93DF938C01EB0180E061157105E0
:1035A00009F081E0F8018283882341F00E947B12B8
:1035B0002197C60FD71FF801D183C083DF91CF9128
:1035C0001F910F9108950F931F93FC01828188230F
:1035D00059F0008111810E947B129801261B370B44
:1035E0008AEE2136380710F020E030E0C9011F9143
:1035F0000F910895EF92FF920F931F93CF93DF9354
:10360000EC017B018A81882311F400E00FC008815E
:1036100019810E947B12C801861B970B2AEE813606
:10362000920710F400E006C0082F0195CE01B70103
:103630000E94C71A802FDF91CF911F910F91FF90A9
:10364000EF900895782FE89865B121E030E040E0F0
:1036500050E00090A90104C0220F331F441F551FE2
:103660000A94D2F7322F822F8095862385B99EBD8A
:103670000DB407FEFDCF4EB57EBD0DB407FEFDCFE8
:103680002EB5942F80E045B1342B35B9E89A30E05F
:10369000282B392BC90108950E94221B089580917F
:1036A0001A0490911B048F7090931B0480931A044A
:1036B00080911A0490911B04886090931B0480935E
:1036C0001A0480911A0490911B040E94221B0895F1
:1036D00080917104873009F059C090917504992345
:1036E00099F080917404891728F4809174048734C8
:1036F00008F44CC084E08093710481E090E09093E2
:103700002204809321049AC080912504209174049E
:1037100090E0049630E08217930724F080917404BF
:103720008734A0F184E08093710480912504833470
:1037300030F081E090E09093220480932104809106
:10374000240486FF12C080917004282F30E0C90144
:103750008F7190704F9749F08091240490E08227F8
:1037600093278F719070892B89F480912104909117
:103770002204892B09F056C0E0916E04F0916F0489
:10378000309709F44FC080E0099558C080917104CA
:10379000843011F080E00895109225048091250472
:1037A000809374048FEF9FEF909322048093210401
:1037B000209172042223D9F08227282F22952827CE
:1037C000022E269526952025022E26952025277047
:1037D000082E892F269507942795902D82270694E9
:1037E000279590258227909322048093210487E0D7
:1037F0008093710481E080931F0483EA94E90E941E
:10380000221B80911A0490911B04886D90931B04D5
:1038100080931A0480911A0490911B040E94221B29
:1038200080E008958FEF9FEFAFEFBFEF80936A04C2
:1038300090936B04A0936C04B0936D0481E00895A1
:103840000F931F93082F10E0C801966C0E94221B53
:1038500098012F7730702F5F3F4F442737FD4095F9
:10386000542F6BEF72E485E090E00E94F923CA01C7
:10387000B901000F012F001F110B980143E0220F27
:10388000331F4A95E1F7201B310B2F5F3F4F442731
:1038900037FD4095542F0E94F92393E056954795A4
:1038A000379527959A95D1F72D573C4F4F4F5F4F3E
:1038B000CA01B90124E833E040E050E00E94F92356
:1038C000209320041F910F910895809171048730F7
:1038D00059F480917404882339F40E944F1B84E0CA
:1038E0008093710481E0089580E00895982F86FD0B
:1038F00005C0907E809170048F71980F909324047E
:10390000E0916E04F0916F04309711F081E0099519
:103910008FEF9FEF909322048093210480912104E4
:1039200090912204209172048227282F2295282723
:10393000022E269526952025022E269520252770D5
:10394000082E892F269507942795902D8227069477
:10395000279590258227909322048093210488E064
:103960008093710480911A0490911B048863909352
:103970001B0480931A0480911A0490911B040E94E6
:10398000221B0895DF92EF92FF920F931F937B010A
:103990008C01DD2405C0D39416950795F794E79420
:1039A0008FEFE816F1040105110509F0A0F78091E9
:1039B0001A0490911B0481FF0FC080911A0490910A
:1039C0001B048D7F90931B0480931A0480911A042A
:1039D00090911B040E94221BE114F10401051105C2
:1039E000B9F0C701906E3D2D20E0822B932B0E94F1
:1039F000221B80911A0490911B04826090931B04F7
:103A000080931A0480911A0490911B040E94221B37
:103A10001F910F91FF90EF90DF900895E89885B186
:103A200021E030E040E050E00090A90104C0220F06
:103A3000331F441F551F0A94D2F7322F922F9095AF
:103A4000982395B91EBC0DB407FEFDCF6EB51EBC04
:103A50000DB407FEFDCF2EB5962F80E0622F70E0EB
:103A6000682B792B77FF0FC080917104873059F450
:103A70008CB581608CBD1EBC0DB407FEFDCF2EB58C
:103A80008CB58E7F8CBD85B1382B35B9E89A709393
:103A90001D0460931C0480911C0490911D0497FFE9
:103AA000ECC080917104873009F082C08091740469
:103AB000882371F490917204992351F080917404D9
:103AC000E82FF0E0ED5DFB4F90838F5F80937404EF
:103AD00080917404E82FF0E0ED5DFB4F20838F5F51
:103AE0008093740480912104909122048227282FCE
:103AF00022952827022E269526952025022E2695EA
:103B000020252770082E892F269507942795902D1C
:103B100082270694279590258227909322048093EC
:103B2000210420911F04233040F58091740490E01B
:103B300060912004029770E00E94E623892BE9F44B
:103B400080911C0490911D04E22FF0E090FF04C0CE
:103B5000E850FE4F808104C0E850FE4F808182957E
:103B60008F7080931F04833040F490E0880F991F7A
:103B70000196806A94690E94221B90917504992392
:103B800029F080917404891780F40AC0809125047B
:103B90002091740490E0049630E0821793072CF093
:103BA00080917404873408F468C00E944F1B65C07C
:103BB0008091710487FF2EC0E091250480917104EB
:103BC0008F5F809371048150ED5FE80FF0E0ED5D51
:103BD000FB4FE08180912104909122048E27282FB1
:103BE00022952827022E269526952025022E2695F9
:103BF00020252770082E892F269507942795902D2C
:103C000082270694279590258227909322048093FB
:103C100021042EC0809171048F5F809371048150C4
:103C2000833019F184302CF4882399F08130F9F431
:103C300016C08B3019F08C30D1F402C0EDE218C000
:103C4000E0917204909125048EEF891B809371049A
:103C50000FC08091210490912204E82F09C0809127
:103C6000210490912204E92F03C00E944F1BEAEA2D
:103C70008E2F90E0986B0E94221B80911C049091E3
:103C80001D0496FF03C086E08093710480911C049C
:103C900090911D0494FF09C060E070E080E090E026
:103CA0000E94C21C81E080931E0480911C049091AC
:103CB0001D0495FF05C00E944F1B84E08093710492
:103CC00008951F93182F4093250426E234E0C9017C
:103CD00050E00E940803812F0E94761C1F910895D6
:103CE0008091700490E08F719070892B41F080E09A
:103CF0006EE07DE140E050E00E947120089580E098
:103D00000E94942008951F9380937004409372043E
:103D1000609373040E94701E10927504E89885E009
:103D200092E890931B0480931A0480911A04909156
:103D30001B040E94221B8091730490E074E0880FA2
:103D4000991F7A95E1F7876C90680E94221B80E4A6
:103D500096EA0E94221B86E00E94201C82EA94E9D7
:103D60000E94221B8CEA92EC0E94221B109172048A
:103D7000112341F083E89AEC0E94221B812F90E0EE
:103D80009E6C06C08BE89AEC0E94221B8DE29EEC92
:103D90000E94221B83E894EC0E94221B80E598E994
:103DA0000E94221B87E79CEC0E94221B80E090EE81
:103DB0000E94221B80E098EC0E94221B89E490EC78
:103DC0000E94221B84E080937104E89A1F91089559
:103DD00025B181E090E0A0E0B0E00090A90104C02E
:103DE000880F991FAA1FBB1F0A94D2F7282B25B949
:103DF00024B1822B84B98AE061E00E9440218AE0EC
:103E000061E00E9401218BE061E00E9401218CE0D1
:103E100060E00E9401218DE061E00E94012180E5C7
:103E20008CBD8DB581608DBD82E060E00E94012176
:103E300082E061E00E9440210895FF920F931F935A
:103E4000182F062FF42E8093700440937204609311
:103E500073040E94E81E0E94701E82E89AEC0E9481
:103E6000221B80E09EEF0E94221B85E0809371045C
:103E700083B7817F06C083B7816083BF889583B78E
:103E80008E7F83BF809171048530A9F3812F602FCD
:103E90004F2D0E94831E809170041F910F91FF90FF
:103EA0000895809180040895609378047093790454
:103EB00080937A0490937B042091AA013091AB0106
:103EC0004091AC015091AD01260F371F481F591F7B
:103ED00020937C0430937D0440937E0450937F04B0
:103EE00082E0809380040E947B126093810470932F
:103EF000820480938304909384040895EF92FF9248
:103F00000F931F931CC02F5F3F4F4F4F5F4F209366
:103F100078043093790440937A0450937B0488EEBC
:103F200093E0A0E0B0E0E80EF91E0A1F1B1FE0922C
:103F30008104F092820400938304109384040E940D
:103F40007B12E0908104F090820400918304109130
:103F500084046E197F09800B910B209178043091B5
:103F6000790440917A0450917B04685E73408040EC
:103F7000904048F680917C0490917D04A0917E044D
:103F8000B0917F04281739074A075B07B0F0E0912A
:103F90007604F0917704309781F0099561157105E9
:103FA0008105910519F00E94541F07C090E080918F
:103FB0008004811191E09093800460917804709165
:103FC000790480917A0490917B041F910F91FF9066
:103FD000EF9008950F931F93CF93DF93BC0182302E
:103FE000910510F462E070E0E0918904F0918A0498
:103FF000A0E0B0E040E050E024C0808191818617CD
:104000009707D0F08617970771F4828193811097F4
:1040100029F013969C938E9312972CC090938A0448
:104020008093890427C04115510519F0841795071D
:1040300018F4EF018D01AC01DF01828193819C01B5
:10404000F9013097D1F641155105F9F0CA01861BE7
:10405000970B8430910580F48A819B8101151105AD
:1040600021F0F8019383828304C090938A048093A3
:104070008904FE0132962FC0FE01E80FF91F6193FB
:10408000719302979983888326C08DB79EB788570E
:1040900090402091AE013091AF0128173907C8F444
:1040A000AC01421B530B4617570798F0CB01029601
:1040B0004817590770F0820F931F9093AF018093B8
:1040C000AE019093B1018093B001F90161937193B6
:1040D00002C0E0E0F0E0CF01DF91CF911F910F919E
:1040E0000895823000F5E82FF0E0EE0FFF1FEB5748
:1040F000FB4F71836083882319F08130A1F408C0DD
:10410000809169008C7F842B80936900E89A0895E0
:1041100080916900440F551F440F551F837F842BE6
:1041200080936900E99A0895823080F4882319F019
:10413000813021F402C0E89801C0E998E82FF0E04E
:10414000EE0FFF1FEB57FB4F1182108208951F9255
:104150000F920FB60F9211242F933F934F935F93BB
:104160006F937F938F939F93AF93BF93EF93FF933F
:104170008091850490918604892B29F0E091850433
:10418000F09186040995FF91EF91BF91AF919F91B6
:104190008F917F916F915F914F913F912F910F90F0
:1041A0000FBE0F901F9018951F920F920FB60F928F
:1041B00011242F933F934F935F936F937F938F932C
:1041C0009F93AF93BF93EF93FF9380918704909158
:1041D0008804892B29F0E0918704F09188040995DF
:1041E000FF91EF91BF91AF919F918F917F916F91CF
:1041F0005F914F913F912F910F900FBE0F901F90A5
:104200001895CF93DF93482F50E0CA01875A9B4FF0
:10421000FC0134914B5B5B4FFA018491882369F177
:1042200090E0880F991FFC01E95DFB4FA591B491C7
:10423000FC01EF5CFB4FC591D491662351F42FB77D
:10424000F8948C91932F909589238C93888189235E
:104250000BC0623061F42FB7F8948C91932F909536
:1042600089238C938881832B88832FBF06C09FB7B7
:10427000F8948C91832B8C939FBFDF91CF910895FD
:10428000482F50E0CA0183599B4FFC012491CA0179
:10429000875A9B4FFC0194914B5B5B4FFA01349121
:1042A000332309F440C0222351F1233071F024302C
:1042B00028F42130A1F0223011F514C02630B1F0DD
:1042C0002730C1F02430D9F404C0809180008F776A
:1042D00003C0809180008F7D8093800010C084B5E2
:1042E0008F7702C084B58F7D84BD09C08091B000F6
:1042F0008F7703C08091B0008F7D8093B000E32F53
:10430000F0E0EE0FFF1FEF5CFB4FA591B4912FB7CC
:10431000F894662321F48C919095892302C08C91A6
:10432000892B8C932FBF08955058BB27AA270ED0F6
:1043300075C166D130F06BD120F031F49F3F11F49C
:104340001EF45BC10EF4E095E7FB51C1E92F77D174
:1043500080F3BA17620773078407950718F071F4A2
:104360009EF58FC10EF4E0950B2EBA2FA02D0B01F8
:10437000B90190010C01CA01A0011124FF27591BAA
:1043800099F0593F50F4503E68F11A16F040A22FB0
:10439000232F342F4427585FF3CF46953795279521
:1043A000A795F0405395C9F77EF41F16BA0B620B20
:1043B000730B840BBAF09150A1F0FF0FBB1F661F67
:1043C000771F881FC2F70EC0BA0F621F731F841FAA
:1043D00048F4879577956795B795F7959E3F08F0D0
:1043E000B3CF9395880F08F09927EE0F979587958F
:1043F0000895D9D008F481E008950CD00FC107D1F9
:1044000040F0FED030F021F45F3F19F0F0C05111C0
:1044100039C1F3C014D198F39923C9F35523B1F3EB
:10442000951B550BBB27AA2762177307840738F023
:104430009F5F5F4F220F331F441FAA1FA9F333D082
:104440000E2E3AF0E0E830D091505040E695001C36
:10445000CAF729D0FE2F27D0660F771F881FBB1FF2
:10446000261737074807AB07B0E809F0BB0B802DCC
:10447000BF01FF2793585F4F2AF09E3F510568F018
:10448000B6C000C15F3FECF3983EDCF386957795AC
:104490006795B795F7959F5FC9F7880F911D96951A
:1044A000879597F90895E1E0660F771F881FBB1F76
:1044B000621773078407BA0720F0621B730B840B23
:1044C000BA0BEE1F88F7E095089504D06894B111F7
:1044D000D9C00895BCD088F09F5790F0B92F992784
:1044E000B751A0F0D1F0660F771F881F991F1AF0FF
:1044F000BA95C9F712C0B13081F0C3D0B1E00895C8
:10450000C0C0672F782F8827B85F39F0B93FCCF348
:10451000869577956795B395D9F73EF490958095F4
:10452000709561957F4F8F4F9F4F0895E89409C014
:1045300097FB3EF490958095709561957F4F8F4FD6
:104540009F4F9923A9F0F92F96E9BB279395F695EC
:10455000879577956795B795F111F8CFFAF4BB0F6A
:1045600011F460FF1BC06F5F7F4F8F4F9F4F16C0CE
:10457000882311F096E911C0772321F09EE8872F58
:10458000762F05C0662371F096E8862F70E060E014
:104590002AF09A95660F771F881FDAF7880F96958D
:1045A000879597F90895990F0008550FAA0BE0E831
:1045B000FEEF16161706E807F907C0F012161306E5
:1045C000E407F50798F0621B730B840B950B39F425
:1045D0000A2661F0232B242B252B21F408950A268B
:1045E00009F4A140A6958FEF811D811D089597F9CB
:1045F0009F6780E870E060E008959FEF80EC089589
:1046000000240A94161617061806090608950024B1
:104610000A9412161306140605060895092E03942B
:10462000000C11F4882352F0BB0F40F4BF2B11F49F
:1046300060FF04C06F5F7F4F8F4F9F4F089557FDFE
:104640009058440F551F59F05F3F71F04795880F00
:1046500097FB991F61F09F3F79F087950895121697
:1046600013061406551FF2CF4695F1DF08C0161643
:1046700017061806991FF1CF8695710561050894F4
:104680000895E894BB2766277727CB0197F908950B
:104690008ADF08F48FEF08950BD0C0CFB1DF28F088
:1046A000B6DF18F0952309F0A2CFA7CF1124EACFE7
:1046B000C6DFA0F3959FD1F3950F50E0551F629F81
:1046C000F001729FBB27F00DB11D639FAA27F00D6B
:1046D000B11DAA1F649F6627B00DA11D661F829F92
:1046E0002227B00DA11D621F739FB00DA11D621F77
:1046F000839FA00D611D221F749F3327A00D611D94
:10470000231F849F600D211D822F762F6A2F112475
:104710009F5750408AF0E1F088234AF0EE0FFF1FC8
:10472000BB1F661F771F881F91505040A9F79E3FFF
:10473000510570F05CCFA6CF5F3FECF3983EDCF301
:10474000869577956795B795F795E7959F5FC1F73C
:10475000FE2B880F911D9695879597F9089523DF75
:10476000880B990B0895629FD001739FF001829F7F
:10477000E00DF11D649FE00DF11D929FF00D839FF0
:10478000F00D749FF00D659FF00D9927729FB00D8D
:10479000E11DF91F639FB00DE11DF91FBD01CF01A0
:1047A00011240895AA1BBB1B51E107C0AA1FBB1F00
:1047B000A617B70710F0A61BB70B881F991F5A95AD
:1047C000A9F780959095BC01CD01089597FB092E1E
:1047D00007260AD077FD04D0E5DF06D000201AF4C2
:1047E000709561957F4F0895F6F7909581959F4F4D
:1047F0000895A1E21A2EAA1BBB1BFD010DC0AA1F22
:10480000BB1FEE1FFF1FA217B307E407F50720F039
:10481000A21BB30BE40BF50B661F771F881F991FB4
:104820001A9469F760957095809590959B01AC01FD
:10483000BD01CF010895EE0FFF1F0590F491E02D0B
:1048400009942F923F924F925F926F927F928F9234
:104850009F92AF92BF92CF92DF92EF92FF920F930F
:104860001F93CF93DF93CDB7DEB7CA1BDB0B0FB619
:10487000F894DEBF0FBECDBF09942A8839884888D6
:104880005F846E847D848C849B84AA84B984C8846C
:10489000DF80EE80FD800C811B81AA81B981CE0F63
:1048A000D11D0FB6F894DEBF0FBECDBFED01089548
:0448B000F894FFCFAA
:1048B4004F7754696D65722064656275672E2E2E7C
:1048C4000054696D65206E6F742073657400200058
:1048D4004E657454696D6520636F6E6669677572A1
:1048E4006564003078002D3E0023003A2000206EDD
:1048F4006F773A0046206D696E3A002C004D696E60
:104904003A200020004D61783A20002020202066C3
:104914006F756E6420230020202020616464656428
:104924002023004F7754656D703A20636F756E7461
:104934003D0020636F6E66696753697A653D006E5A
:10494400616E00696E66006F7666002E00E102FCFF
:10495400010000DC0231030000022C0100008B0482
:10496400640000000000E406471506062306080656
:10497400FCFF00001F0607060000000016083807A9
:10498400000000002C0A400A00000000DC0A5D0A56
:10499400070003000100000000000000A2144715F6
:0C49A400381469144914921434025600AF
:00000001FF
