:100000000C94E3000C946E160C949B160C940B014C
:100010000C940B010C940B010C940B010C940B0130
:100020000C940B010C940B010C940B010C940B0120
:100030000C940B010C940B010C940B010C940B0110
:100040000C94B6090C940B010C94AB0A0C94F90AAD
:100050000C940B010C940B010C940B010C940B01F0
:100060000C940B010C940B01005EBCE2613FDD833C
:10007000C29C7E20A3FD1F419DC3217FFCA2401E88
:100080005F01E3BD3E6082DC237D9FC1421CFEA078
:10009000E1BF5D0380DE3C62BEE0025CDF81633D68
:1000A0007C22C09E1D43A1FF4618FAA427799BC558
:1000B00084DA3866E5BB5907DB856739BAE4065848
:1000C0001947A5FB7826C49A653BD987045AB8E638
:1000D000A7F91B45C6987A24F8A6441A99C7257B28
:1000E0003A6486D85B05E7B98CD2306EEDB3510F18
:1000F0004E10F2AC2F7193CD114FADF3702ECC9208
:10010000D38D6F31B2EC0E50AFF1134DCE90722CF7
:100110006D33D18F0C52B0EE326C8ED0530DEFB1E7
:10012000F0AE4C1291CF2D73CA947628ABF51749D7
:100130000856B4EA6937D58B5709EBB536688AD4C7
:1001400095CB2977F4AA4816E9B7550B88D6346AB7
:100150002B7597C94A14F6A8742AC896154BA9F7A7
:10016000B6E80A54D7896B35000000002400270048
:100170002A0000000000250028002B0000000000DD
:1001800023002600290004040404040404040202D9
:100190000202020203030303030301020408102006
:1001A0004080010204081020010204081020000011
:1001B0000007000201000003040600000000000028
:1001C00000009501650C11241FBECFEFD8E0DEBF03
:1001D000CDBF12E0A0E0B1E0E4EDF3E302C0059092
:1001E0000D92A832B107D9F715E0A8E2B2E001C03C
:1001F0001D92A030B107E1F711E0C6ECD1E004C0D8
:100200002297FE010E94E419C23CD107C9F70E945F
:10021000BB0C0C94E8190C940000EF92FF920F9322
:10022000DF93CF93CDB7DEB760970FB6F894DEBFFC
:100230000FBECDBFA82F002309F461C07E01089432
:10024000E11CF11C88E0F70111928A95E9F72983F6
:100250003A834B835C836D837E83AF83988780E290
:10026000801BE82FFF27E7FDF0954D815E816F81B0
:100270007885181684F01D861E861F86188A8827A2
:1002800099278E1B9F0B04C07695679557954795C8
:100290008A95D2F728C0202F332727FD3095DB0120
:1002A000CA01022E04C0B695A795979587950A9422
:1002B000D2F78D879E87AF87B88B04C0440F551F38
:1002C000661F771FEA95D2F789819A81AB81BC813D
:1002D00004C0B695A795979587952A95D2F7482B90
:1002E000592B6A2B7B2B49875A876B877C872985FB
:1002F0003A854B855C856D857E85AF8598898A2F8B
:1003000060960FB6F894DEBF0FBECDBFCF91DF91E0
:100310000F91FF90EF900895FB01DC0102C0019066
:100320000D9241505040D8F7089510922B02109230
:100330002A0288E092E0909329028093280210928A
:10034000690210926C0210926F0281E792E066E0FF
:100350000E94A7091092500308951F93CF93DF9333
:10036000EC01162FCF5BDF4F8881C154D0408D3315
:1003700018F0CE010E94C603DE01AF5BBF4F8C9127
:10038000FE01E80FF11D14838F5F8C931A3019F46E
:10039000CE010E94C60381E090E0DF91CF911F91D2
:1003A0000895EF92FF920F931F93882311F464E155
:1003B00001C060E081E792E00E94C706882309F44B
:1003C000A5C088E292E060E071E00E94260E88E21B
:1003D00092E064EF71E00E94260E88E292E06FE006
:1003E00071E00E94260E0091E4011091E501209138
:1003F000E6013091E7014091E8015091E9016091F7
:10040000EA017091EB0181E792E00E94E3047B0135
:100410008C01A80197010E9476198823B1F0009100
:10042000E4011091E5012091E6013091E70140914E
:10043000E8015091E9016091EA017091EB0181E7D7
:1004400092E00E94E3047B018C01C801B701A8017E
:1004500097010E947619882371F5E092E602F092E6
:10046000E7020093E8021093E902C801B70120E017
:1004700030E040E05FE30E945C170E942C189B0173
:10048000AC01962F8091EE02681714F42093EE02CF
:1004900080911E03891714F490931E0388E292E062
:1004A000B801A70122E030E00E940D0F88E292E03F
:1004B00061E171E004C088E292E063E171E00E94D2
:1004C000260E88E292E00E94F40C8EE493E060E64F
:1004D0007AEE0E946D118823C9F0809151038F5FDD
:1004E000809351038C3391F410925103E4E0F3E0D4
:1004F000A4E3B3E0808181838C9111968C93119752
:100500003197119782E0ED3EF807A1F71F910F9107
:10051000FF90EF9008951F93CF93DF930E943304D1
:10052000EC01009731F10E947C1280937002888167
:10053000813091F40E949F15182F69817A818B81F7
:100540009C810E94A2151123A1F488E292E06AE145
:1005500071E00E94100F0DC088E292E06BE271E042
:100560000E94260E88E292E068814AE050E00E94F4
:10057000B50D0E949F15823079F08AE692E060E620
:100580007AEE0E946D11882351F088E292E061E4D6
:1005900071E00E94100F03C080E00E94D101DF9142
:1005A000CF911F9108950F931F9381E792E061E02F
:1005B00044EE51E00E94B6078093E50200E714E0A4
:1005C000C8016EE471E00E94260EC8016091E50248
:1005D0004AE050E00E94A30DC80165E571E00E9469
:1005E000260EC80161E070E04AE050E00E94130E60
:1005F000C8016AE571E00E94100F1F910F910895E4
:100600000F931F93CF93DF930E94D30281E00E9448
:10061000D10106EE12E0C0E0D0E00CC06D93619312
:10062000019688319105D1F721960C5F1F4FC2309A
:10063000D10501F1F801608171818281938120E00F
:1006400030E040E05FE30E945C170E942C18CE016E
:10065000880F991F8C0F9D1F23E0880F991F2A95E3
:10066000E1F7DC01A251BD4FFC01E25EFC4F80E0EE
:1006700090E0D4CFDF91CF911F910F910895EF9229
:10068000FF920F931F9300E714E0C80140E051EE82
:1006900060E070E00E94340B43E6E42E41E0F42E6B
:1006A000C801B7010E94100F84E061E00E94C904F4
:1006B00088E292E0B7010E94100F0E9400038AE6D0
:1006C00092E068EE73E00E9451111F910F91FF902C
:1006D000EF90089580915203882309F440C08091DF
:1006E0005403813029F08091530390E00797FCF088
:1006F0008091FE0164E573E04091D8030E94CB1421
:1007000090915203923068F0A4E5B3E0E6E9F3E09B
:1007100082E401900D928150E1F78091D90380939A
:10072000D8039150909352031092530308958091EF
:10073000FE01806264E573E04091D8030E94CB140F
:10074000809153038F5F809353030E94FE0960934F
:10075000DB037093DC038093DD039093DE03089545
:10076000982F80915203823080F4E82FF0E0E85215
:10077000FC4F90838F5F80935203813031F40E944D
:10078000D312882311F00E946A030895EF92FF921A
:100790000F931F93CF93DF93EC010091520302302C
:1007A00008F057C0802F90E0FC0126E0EE0FFF1FFD
:1007B0002A95E1F7880F991FE80FF91FEC5AFC4FB3
:1007C00082E080830E94CC15202F30E0F901B6E052
:1007D000EE0FFF1FBA95E1F7220F331FE20FF31F51
:1007E000EC5AFC4F618372838383948364E0E62E2A
:1007F000F12CEC0EFD1E802F90E09C0156E0220FA4
:10080000331F5A95E1F7880F991F280F391F275A70
:100810003C4F8E010F5B1F4FF8014081C901B701AA
:1008200050E00E948C01F80180818B5F0E94B00330
:10083000F8018081FE01E80FF11D148280E794E049
:1008400062E871E00E94260E80E794E0B7010E9402
:10085000260ECF5BDF4F1882DF91CF911F910F9152
:10086000FF90EF9008951F930E94DB11882309F4F5
:1008700057C08091990490919A04892B09F050C037
:1008800080919C0487FD21C080919C0485FF1AC043
:1008900090919C049F718091FE01981711F4892F0B
:1008A00002C0892F8064182F10680E94D3128823F9
:1008B00039F0812F60E070E040E00E94CB1402C06C
:1008C0001093DA032EE934E05CC080919C0485FD2E
:1008D00027C020919C0430E02F7130708091FE0180
:1008E00090E028173907E1F4909152039923C1F061
:1008F000809153038823A1F0923068F0A4E5B3E01F
:10090000E6E9F3E082E401900D928150E1F78091F5
:10091000D9038093D80391509093520310925303BC
:100920008091DA03882381F10E94D312882361F138
:100930008091DA0360E070E040E00E94CB141092F6
:10094000DA031DC080915303882399F00E94FE09A9
:100950002091DB033091DC034091DD035091DE03F5
:100960002C593F4F4F4F5F4F62177307840795070E
:1009700030F00E94D312882311F00E946A0320E015
:1009800030E0C9011F910895809152038823D1F668
:10099000F6CF1F93162F8093FE0163E044ED0E9473
:1009A0000F15112371F080E794E06CE871E00E946C
:1009B000100F87E598E90E94BD1182EB94E90E942F
:1009C000BD111F9108957F928F929F92AF92BF9217
:1009D000CF92DF92EF92FF920F931F93CF93DF930B
:1009E000EC01702E812E922EA32EB42EC52ED62E63
:1009F000E72EC25BDF4FF880CE54D040DE0120E00E
:100A000030E036C0F9018C9111969C9111971296A5
:100A10004C91129713965C91139714966C911497BE
:100A200015967C91159716961C91169717960C9112
:100A300017972F5F3F4F18968715D1F49815C1F47B
:100A40004915B1F45A15A1F46B1591F47C1581F494
:100A50001D1571F40E1561F47596EE0FFF1FEE0F64
:100A6000FF1FEC0FFD1F608191818281E38106C031
:100A70002F1540F260E090E080ECEFE7262F392F51
:100A8000482F5E2FB901CA01DF91CF911F910F91BD
:100A9000FF90EF90DF90CF90BF90AF909F908F909E
:100AA0007F900895AF92BF92CF92DF92EF92FF9224
:100AB0000F931F93DF93CF93CDB7DEB76C970FB62D
:100AC000F894DEBF0FBECDBF0D8B1E8B2F8B388FE2
:100AD000498F5A8F6B8F7C8F30E4E32EF12CE80E18
:100AE000F91EC7010E943A10C701BE016B5E7F4F1D
:100AF0000E941910C7016EEB40E00E94D40F8E01D6
:100B0000075F1F4FC801B02EA92E22E1C22ED12CA3
:100B1000CC0EDD1EC7010E94830FF80181938F0167
:100B2000EC15FD05B9F78B2D9A2D68E00E943E0F5C
:100B30009989891769F52985222319F48A858823DB
:100B400039F18E858F3F21F58889803109F59A85A5
:100B500080E0422F50E0482B592BDE011196ECE04B
:100B6000F2E088E001900D928150E1F7ED85F0E030
:100B7000E076F07094E0F695E7959A95E1F7EC0F42
:100B8000FD1F21813281209530952423352302C019
:100B900020E030E8C9016C960FB6F894DEBF0FBEB6
:100BA000CDBFCF91DF911F910F91FF90EF90DF901C
:100BB000CF90BF90AF9008958F929F92AF92BF92C7
:100BC000CF92DF92EF92FF920F931F93CF93DF9319
:100BD000EC01D22EC32EB42EA52E962E872E0E9467
:100BE00052059C0180E82030380779F5CE012D2D83
:100BF0003C2D4B2D5A2D692D782D0E9452059C01BC
:100C000080E82030380709F5CE012D2D3C2D4B2DE5
:100C10005A2D692D782D0E9452059C0180E82030C4
:100C2000380799F4CE012D2D3C2D4B2D5A2D692DD1
:100C3000782D0E9452059C0180E82030380729F465
:100C4000E0E070E080EC6FE71BC0B901882777FD1A
:100C50008095982F0E945F1820E030E040E85DE327
:100C60000E94131926E636E646EE5FE30E9413194A
:100C700020E030E040E052E40E945C17E62F692F4C
:100C80002E2F372F482F562FB901CA01DF91CF9150
:100C90001F910F91FF90EF90DF90CF90BF90AF909A
:100CA0009F908F9008950F931F938C01005C1F4FAE
:100CB000C8010E943A10C8010E941410C80164E4DF
:100CC00041E00E94D40F1F910F910895CF92DF92BF
:100CD000EF920F931F93DF93CF93CDB7DEB7289793
:100CE0000FB6F894DEBF0FBECDBF09831A832B83E6
:100CF0003C834D835E836F8378878C01005C1F4F3C
:100D0000C8010E943A106E010894C11CD11CC80190
:100D1000B6010E941910C8016EE440E00E94D40F91
:100D2000C80160E040E00E94D40FC80160E040E0EC
:100D30000E94D40FE294EE0C40EEE422EA94C80143
:100D40006E2D40E00E94D40FC8010E943A10C801E5
:100D5000B6010E941910C80168E441E00E94D40F56
:100D60006AE070E080E090E00E940C0AC8010E94F6
:100D7000230F28960FB6F894DEBF0FBECDBFCF91DC
:100D8000DF911F910F91EF90DF90CF9008958F9298
:100D90009F92AF92BF92CF92DF92EF92FF920F930A
:100DA0001F93CF93DF93EC01962E0E94FE095B0107
:100DB0006C01C15BDF4F8881CF54D040813021F07E
:100DC000823009F073C02EC09920F1F0C05BDF4F74
:100DD00088819981AA81BB81C055D0408601750167
:100DE000E81AF90A0A0B1B0B692D70E080E090E00D
:100DF00028EE33E040E050E00E947A196E157F053E
:100E00008007910708F052C0C05BDF4FA882B9820B
:100E1000CA82DB8282E08A93CF54D040CE010E9406
:100E2000530644C0C05BDF4F88819981AA81BB8192
:100E3000C055D040A81AB90ACA0ADB0A89ECA8161C
:100E4000B104C104D10490F17E0164E5A62EB12C59
:100E5000AC0EBD1ECC24DD245EE4852E912C8C0EC0
:100E60009D1E19C0F70100811181228133814481C7
:100E7000558166817781CE010E94DC05F501619381
:100E80007193819391935F010894C11CD11C88E0F8
:100E900090E0E80EF91EF401808190E0C816D906B2
:100EA0000CF3C15BDF4F81E0888301C080E0DF91FC
:100EB000CF911F910F91FF90EF90DF90CF90BF9057
:100EC000AF909F908F900895CF92DF92EF92FF9214
:100ED0000F931F93DF93CF93CDB7DEB728970FB64D
:100EE000F894DEBF0FBECDBF09831A832B833C83EA
:100EF0004D835E836F83788780E794E06FEA71E0CB
:100F00000E94260E7E010894E11CF11CF9E0CF2E10
:100F1000D12CCC0EDD1EF70101917F0110E0B8014C
:100F2000E4E075956795EA95E1F780E794E040E1A4
:100F300050E00E94130E0F70107080E794E0B8012B
:100F400040E150E00E94130EEC14FD0421F72896B6
:100F50000FB6F894DEBF0FBECDBFCF91DF911F91CA
:100F60000F91FF90EF90DF90CF9008952F923F92D6
:100F70004F925F926F927F928F929F92AF92BF92A9
:100F8000CF92DF92EF92FF920F931F93DF93CF9355
:100F9000CDB7DEB764970FB6F894DEBF0FBECDBFF6
:100FA0003C016C872EE430E0620E731EF301608317
:100FB00082EB9FEF680E791EDA0120E030E09C851D
:100FC000492F50E083E0440F551F8A95E1F724C074
:100FD000F301E20FF31F8C91808311968C9111978E
:100FE000818312968C911297828313968C9113971A
:100FF000838314968C911497848315968C911597FE
:10100000858316968C911697868317968C911797E1
:1010100087831896285F3F4F24173507C9F600E4E9
:10102000402E512C460C571CC2010E94310F1B86CA
:101030001A861986F301E25BFF4FFC8BEB8B98C09D
:10104000CE01019667E00E943E0F39802A80FB8125
:10105000FD872C812E873D813F879E81988BEF8174
:10106000E98BF885FA8B882E9924AA24BB24CC24FA
:10107000DD247601232D322D4D855E856F85792FF8
:10108000CF0108E30E940D01821609F071C093168A
:1010900009F06EC0A41609F06BC0B51609F068C05F
:1010A000C61609F065C0D71609F062C0E81609F047
:1010B0005FC0F91609F05CC0EB89FC899081F301EF
:1010C00020E030E033C0022F808141815281638172
:1010D0007481A581B68117812F5F3F4F38963816EE
:1010E00029F5241619F58D85851701F58E85861746
:1010F000E9F48F858717D1F488898A17B9F489892B
:101100008B17A1F48A89811789F49C85091768F5E2
:1011100081E090E002C0880F991F0A95E2F7EA8506
:10112000FB85E82BF92BFB87EA871FC0291758F2AC
:101130009830D8F4E92FF0E013E0EE0FFF1F1A9576
:10114000E1F7E60DF71D308221822D8522833E8551
:1011500033838F85848328892583398936838A89D7
:1011600087839F5FEB89FC899083F985FF5FF9870F
:10117000C201BE016F5F7F4F0E948510882309F076
:101180005FCFC2010E94310FFF24BEE4CB2ED12CD1
:10119000C60CD71C1BC0EF2DF0E0A3E0EE0FFF1F25
:1011A000AA95E1F7E60DF71D0081118122813381B7
:1011B0004481558166817781023211F0083229F429
:1011C000C301EAE0EE2E0E946606F394F6018081E8
:1011D000F81608F3FC85F81780F580E794E062EBD9
:1011E00071E00E94260EFC840EE4C02ED12CC60CA9
:1011F000D71C1BC080E794E063EC71E00E94260ED0
:10120000EF2DF0E013E0EE0FFF1F1A95E1F7E60D6A
:10121000F71D0081118122813381448155816681CE
:101220007781C3010E946407F394F6018081F81668
:1012300008F380E794E00E94F40C81E090E00C84D5
:1012400002C0880F991F0A94E2F701972A853B850F
:1012500028173907D9F180E794E065EC71E00E9426
:10126000260EFF24B1E0CB2ED12C29C00F2D10E08B
:10127000C6010F2C02C0880F991F0A94E2F7EA8575
:10128000FB858E239F23892BC9F480E794E063ECD0
:1012900071E00E94260EF801A3E0EE0FFF1FAA9551
:1012A000E1F7E60DF71D0081118122813381448130
:1012B000558166817781C3010E946407F394FC85A0
:1012C000FF16A0F280E794E00E94F40C2EE430E0D8
:1012D000620E731EF301808122EB3FEF620E731EDC
:1012E0008823D9F00E94FE09E0E5F0E06E0E7F1E33
:1012F000F301608371838283938382E082933F0151
:1013000021EB3FEF620E731EC3010E94530668EC8F
:1013100070E080E090E00E940C0A898564960FB628
:10132000F894DEBF0FBECDBFCF91DF911F910F911B
:10133000FF90EF90DF90CF90BF90AF909F908F90F5
:101340007F906F905F904F903F902F9008950F93F4
:101350001F938C01805C9F4F0E941B11025B1F4FEB
:10136000F801119210821F910F9108951F920F9210
:101370000FB60F9211242F933F938F939F93AF93A8
:10138000BF938091E3039091E403A091E503B091B2
:10139000E6033091E7030196A11DB11D232F2D5FB8
:1013A0002D3720F02D570196A11DB11D2093E70385
:1013B0008093E3039093E403A093E503B093E603E3
:1013C0008091DF039091E003A091E103B091E203EB
:1013D0000196A11DB11D8093DF039093E003A093BC
:1013E000E103B093E203BF91AF919F918F913F9141
:1013F0002F910F900FBE0F901F9018958FB7F894F4
:101400002091E3033091E4034091E5035091E6031A
:101410008FBFB901CA0108959B01AC017FB7F89451
:101420008091DF039091E003A091E103B091E2038A
:1014300066B5A89B05C06F3F19F00196A11DB11DAF
:101440007FBFBA2FA92F982F8827860F911DA11D26
:10145000B11D62E0880F991FAA1FBB1F6A95D1F7C3
:10146000BC012DC0FFB7F8948091DF039091E00399
:10147000A091E103B091E203E6B5A89B05C0EF3F60
:1014800019F00196A11DB11DFFBFBA2FA92F982FEA
:1014900088278E0F911DA11DB11DE2E0880F991FB5
:1014A000AA1FBB1FEA95D1F7861B970B885E934056
:1014B000C8F2215030404040504068517C4F2115C7
:1014C00031054105510571F60895019739F0880FEE
:1014D000991F880F991F02970197F1F70895789443
:1014E00084B5826084BD84B5816084BD85B5826029
:1014F00085BD85B5816085BDEEE6F0E080818160C7
:101500008083E1E8F0E010828081826080838081C6
:1015100081608083E0E8F0E0808181608083E1EB9E
:10152000F0E0808184608083E0EBF0E08081816086
:101530008083EAE7F0E0808184608083808182603C
:101540008083808181608083808180688083109225
:10155000C100089508951F920F920FB60F921124A3
:101560002F933F934F938F939F93EF93FF9380918C
:10157000C00082FD1DC04091C6002091280430911A
:1015800029042F5F3F4F2F73307080912A04909170
:101590002B042817390771F0E0912804F0912904F1
:1015A000E851FC4F4083309329042093280402C063
:1015B0008091C600FF91EF919F918F914F913F9144
:1015C0002F910F900FBE0F901F901895E0917C0403
:1015D000F0917D04E05CFF4F8191919120813181F8
:1015E000821B930B8F739070892B11F00E94AA0AB3
:1015F00008951F920F920FB60F9211242F933F93CD
:101600008F939F93EF93FF9320916C0430916D041F
:1016100080916E0490916F042817390731F48091FE
:10162000C1008F7D8093C10014C0E0916E04F091E1
:101630006F04E45DFB4F208180916E0490916F04F4
:1016400001968F73907090936F0480936E04209333
:10165000C600FF91EF919F918F913F912F910F9035
:101660000FBE0F901F901895AF92BF92DF92EF922E
:10167000FF920F931F93CF93DF93EC017A018B01BD
:10168000DD24403081EE580780E0680780E078076D
:1016900011F0DD24D39491E0A92EB12CEC89FD89C1
:1016A000DD2069F0C50108A002C0880F991F0A94C7
:1016B000E2F7808360E079E08DE390E005C010827E
:1016C00060E874E88EE190E0A80197010E94C019DB
:1016D00021503040404050405695479537952795CA
:1016E00080E12030380720F0DD2011F0DD24D6CF56
:1016F000E889F9893083EA89FB89208319A2EE8978
:10170000FF89408121E030E0C9010C8C02C0880FC4
:10171000991F0A94E2F7482B4083EE89FF894081A4
:10172000C9010D8C02C0880F991F0A94E2F7482B5B
:101730004083EE89FF894081C9010E8C02C0880F69
:10174000991F0A94E2F7482B4083EE89FF89808134
:101750000F8C02C0220F331F0A94E2F72095282332
:101760002083DF91CF911F910F91FF90EF90DF9039
:10177000BF90AF900895DC011C96ED91FC911D97F0
:10178000E05CFF4F2191319180819181281B390BC1
:101790002F733070C9010895DC011C96ED91FC9106
:1017A0001D97E05CFF4F20813181E054F040DF0164
:1017B000AE5BBF4F8D919C9111972817390719F493
:1017C0002FEF3FEF07C08D919C91E80FF91F8081AB
:1017D000282F30E0C9010895DC011C96ED91FC91A1
:1017E0001D97E05CFF4F20813181E054F040DF0124
:1017F000AE5BBF4F8D919C9111972817390719F453
:101800002FEF3FEF10C08D919C911197E80FF91FBA
:1018100020818D919C91119701968F7390701196F4
:101820009C938E9330E0C9010895DC0191968C91D0
:101830009197882339F05496ED91FC9155978081CA
:1018400086FFF9CF91961C920895CF93DF93EC0118
:10185000EE85FF85E05CFF4F20813181E054F04050
:101860002F5F3F4F2F733070DF01AE5BBF4F8D9105
:101870009C91119728173907D1F3E05CFF4F8081C5
:101880009181E054F040E80FF91F6083EE85FF85F9
:10189000E05CFF4F31832083EE89FF89208181E066
:1018A00090E00F8C02C0880F991F0A94E2F7282B52
:1018B000208381E089A3EC89FD8980818064808315
:1018C00081E090E0DF91CF9108951092730410921F
:1018D000720488EE93E0A0E0B0E0809374049093EB
:1018E0007504A0937604B093770488E192E0909316
:1018F00071048093700488EE93E090937D0480934C
:101900007C048CE294E090937F0480937E0485ECC9
:1019100090E0909381048093800484EC90E0909315
:1019200083048093820480EC90E0909385048093FC
:10193000840481EC90E0909387048093860482EC89
:1019400090E0909389048093880486EC90E09093D3
:101950008B0480938A0484E080938C0483E08093DA
:101960008D0487E080938E0485E080938F0481E06E
:10197000809390040895CF93DF930E946F0A0E9492
:101980003F03C6EEDAE00E948B022097E1F30E944B
:10199000E60AF9CFCF92DF92EF92FF920F931F9357
:1019A000CF93DF937C016B018A01C0E0D0E00FC0D0
:1019B000D6016D916D01D701ED91FC910190F081FF
:1019C000E02DC7010995C80FD91F0150104001151E
:1019D000110571F7CE01DF91CF911F910F91FF900B
:1019E000EF90DF90CF900895EF92FF920F931F93A7
:1019F0008C01DC01ED91FC910190F081E02D6DE016
:101A000009957C01D801ED91FC910190F081E02DC8
:101A1000C8016AE009959C012E0D3F1DC9011F9167
:101A20000F91FF90EF900895CF93DF93EC01611534
:101A3000710519F420E030E00FC0DB010D900020AB
:101A4000E9F71197A61BB70BE881F9810280F381B2
:101A5000E02DAD0109959C01C901DF91CF91089559
:101A60004F925F927F928F929F92AF92BF92CF924E
:101A7000DF92EF92FF920F931F93DF93CF93CDB737
:101A8000DEB7A1970FB6F894DEBF0FBECDBF2C0115
:101A9000742ECB01223008F42AE019A231E2C32EC1
:101AA000D12CCC0EDD1E822E9924AA24BB24672DB6
:101AB000752FA50194010E94C01979018A01C801FE
:101AC000B701A50194010E947A19472D461B08947D
:101AD000C108D1084A3010F4405D01C0495CF601EC
:101AE0004083E114F1040105110521F07E2C5F2DE6
:101AF000C801DDCFC201B6010E94140DA1960FB638
:101B0000F894DEBF0FBECDBFCF91DF911F910F9133
:101B1000FF90EF90DF90CF90BF90AF909F908F900D
:101B20007F905F904F900895DC012115310541F4BD
:101B3000ED91FC910190F081E02D642F09950895BD
:101B40000E94300D0895EF92FF920F931F939A0118
:101B5000E62EFF2400E010E0B801A7010E94940DDA
:101B60001F910F91FF90EF900895CF92DF92EF9227
:101B7000FF920F931F936C01E62E9A01FF2400E061
:101B800010E0B801A7010E94940D8C01C6010E94CB
:101B9000F40C080F191FC8011F910F91FF90EF90CF
:101BA000DF90CF900895CF92DF92EF92FF920F9344
:101BB0001F93CF93DF93EC016A017B01211531055F
:101BC00041F4E881F9810190F081E02D642F0995BD
:101BD0001FC02A303105D1F477FF17C0E881F981A1
:101BE0000190F081E02D6DE209958C014427552785
:101BF000BA014C195D096E097F09CE012AE00E94E5
:101C0000300D9801280F391F04C02AE00E94300DC2
:101C10009C01C901DF91CF911F910F91FF90EF902F
:101C2000DF90CF900895EF92FF920F931F937B0167
:101C30009A010027F7FC0095102FB801A7010E9418
:101C4000D30D1F910F91FF90EF9008950E94140DF6
:101C500008957F928F929F92AF92BF92CF92DF9220
:101C6000EF92FF920F931F93CF93DF934C017A0172
:101C70008B01722ECB01BA01A80197010E9476193F
:101C8000882321F0C40166ED71E021C0C0E0D0E0FE
:101C900057016801E894D7F8C601B5012FEF3FEF6F
:101CA0004FE75FE70E947619882351F4C601B5011A
:101CB0002FEF3FEF4FE75FE70E94C017181614F0B1
:101CC000C1E0D0E0219739F0C4016AED71E00E94D3
:101CD000140DEC0193C0C801B7012FEF3FEF4FE7A0
:101CE0005FE40E940F19181654F0C801B7012FEFD6
:101CF0003FEF4FE75FEC0E94C017882324F4C40134
:101D00006EED71E0E4CFC801B70120E030E040E0C3
:101D100050E00E94C01787FD03C0C0E0D0E00EC0B5
:101D2000D401ED91FC910190F081E02DC4016DE2B0
:101D30000995EC0117FB109517F9109520E030E09C
:101D400040E05FE3DD240BC0CA01B90120E030E0D0
:101D500040E251E40E94C4179B01AC01D394D71414
:101D600098F3C801B7010E945C175B016C010E94E7
:101D700031187B018C01C401B801A7012AE030E0D1
:101D80000E94940DC80FD91F772039F0C40162EE6C
:101D900071E00E94140DC80FD91FC801B7010E943D
:101DA0005D189B01AC01C601B5010E945B1724C000
:101DB00020E030E040E251E40E9413197B018C01E5
:101DC0000E942C185B016C01CC24B7FCC094DC2C65
:101DD000C401B601A5012AE030E00E94D30DC80F6E
:101DE000D91FC601B5010E945F189B01AC01C80153
:101DF000B7010E945B177A947720D1F6CE01DF916C
:101E0000CF911F910F91FF90EF90DF90CF90BF90F7
:101E1000AF909F908F907F9008950E94290E089513
:101E2000EF92FF920F931F937C010E94140D8C017F
:101E3000C7010E94F40C080F191FC8011F910F91D0
:101E4000FF90EF900895FC01F894A181B281119662
:101E50009C91119780818095982311969C937894FA
:101E60000895FC0113861586148687E090E012869B
:101E70003197009711F00197FACF0895DC0180E0C7
:101E80000BC0E82FF0E08D9190E0E827F927E859A2
:101E9000FF4FE49161508E2F662399F70895DF92EA
:101EA000EF92FF920F931F93FC01E080018112815A
:101EB000F894F8018281DE2CD0948D218283818177
:101EC0008E29818383E090E00E94650AF801818178
:101ED0008D2181838AE090E00E94650AF8010081EB
:101EE000789485E390E00E94650A80E010E0FF248A
:101EF0000E211F21012B09F081E01F910F91FF900E
:101F0000EF90DF900895EF92FF920F931F93CF937E
:101F1000DF937C0101E010E0C0E0D0E0C7010E9447
:101F20004F0F8111102B000F2196C830D105B1F74A
:101F3000812FDF91CF911F910F91FF90EF90089526
:101F40001F93CF93DF93FC011081C181D281912F28
:101F5000909560FF12C0F8948A8189238A838981D1
:101F6000812B89838AE090E00E94650A8A81812B17
:101F70008A83789487E390E011C0F8948A8189235A
:101F80008A838981812B898381E490E00E94650A9C
:101F90008A81812B8A83789485E090E00E94650A8B
:101FA000DF91CF911F910895CF92DF92EF92FF9230
:101FB0000F931F93CF93DF938C01E42EFF24F394B0
:101FC000C0E0D0E0C62EDD2460E08F2D90E08C21B3
:101FD0009D21892B09F061E0C8010E94A00FFF0C30
:101FE0002196C830D10581F7EE20A9F4F894D801E4
:101FF0001196ED91FC91129791818C918095982387
:1020000091831196ED91FC91129792818C9180951C
:10201000982392837894DF91CF911F910F91FF9035
:10202000EF90DF90CF9008956CEC40E00E94D40FC9
:102030000895EF92FF920F931F93CF93DF938C013C
:102040007B0165E540E00E94D40FC0E0D0E0F701DD
:10205000EC0FFD1FC801608140E00E94D40F219663
:10206000C830D105A1F7DF91CF911F910F91FF905B
:10207000EF900895DF92EF92FF920F931F93CF930B
:10208000DF93FC010081C181D281F8948981D02E37
:10209000D0948D21898378941DE7E02EFF24115080
:1020A00059F182E090E00E94650A888190E08E21DB
:1020B0009F21892BA1F3F8948A818D218A838981BC
:1020C000802B8983789484EF91E00E94650AF894CC
:1020D00089818D21898380E590E00E94650A88814D
:1020E00010E090E0E822F922EF2809F411E078945A
:1020F00084EA91E00E94650A812FDF91CF911F91C0
:102100000F91FF90EF90DF900895AF92BF92DF9212
:10211000EF92FF920F931F93CF93DF93EC015B013C
:102120008D85882309F061C0CE010E943A10882372
:1021300029F41B861D861C8690E06BC0CE0160EFE3
:1021400040E00E94D40F01E0DD24EE24FF24F3944C
:10215000CE010E944F0F182FCE010E944F0F113059
:1021600019F48130E1F439C0181709F58B85081787
:1021700070F460E0FE01EE0DF11D838190E02F2DE3
:1021800030E082239323181619064CF003C060E058
:10219000081729F0093008F04CC00C874AC0FE012E
:1021A000EE0DF11D83818F29838361E009C0612FCA
:1021B000FE01EE0DF11D9F2D909583818923838370
:1021C000CE010E94A00F0F5FFF0C19F4E394FF24CF
:1021D000F39487E08E1508F0BBCF013430F0DB8636
:1021E000DD2011F581E08D871FC01B861D861C86B2
:1021F00090E0DE0120E030E0F501E20FF31F1396DE
:102200008C91139780832F5F3F4F119628303105B3
:1022100099F7892FDF91CF911F910F91FF90EF9048
:10222000DF90BF90AF9008958B818823F1F291E009
:10223000E0CFD02EBDCFFF920F931F938C01F62ECF
:10224000862F60E00E94C8168F2D90E0FC01E656B4
:10225000FE4FE491D801EC938A579E4FFC016491A4
:10226000E62FF0E0EE0FFF1FE458FE4F85919491AA
:1022700012969C938E9311971B961C921B971D96FA
:102280001C921D971C961C92F80187E090E0128624
:102290003197009711F00197FACF1F910F91FF909E
:1022A00008950F931F93CF93DF938C01EB0180E090
:1022B0006115710509F081E0F8018283882341F0FE
:1022C0000E94FE092197C60FD71FF801D183C08352
:1022D000DF91CF911F910F910895EF92FF920F938D
:1022E0001F93CF93DF93EC017B018A81882311F444
:1022F00000E00FC0088119810E94FE09C801861BF9
:10230000970B2AEE8136920710F400E006C0082FE2
:102310000195CE01B7010E945111802FDF91CF911D
:102320001F910F91FF90EF900895782F65B121E0F4
:1023300030E040E050E00090FF0104C0220F331F66
:10234000441F551F0A94D2F7322F822F809586237F
:1023500085B99EBD0DB407FEFDCF4EB57EBD0DB453
:1023600007FEFDCF2EB5942F80E045B1342B35B953
:1023700030E0282B392BC9010895E8980E94951167
:10238000E89A089580919204909193048F709093AD
:1023900093048093920480919204909193048860B6
:1023A000909393048093920480919204909193046B
:1023B0000E94951108958091E904873009F042C088
:1023C00080919D042091EC0490E0049630E0821707
:1023D000930724F08091EC048734A0F184E080938B
:1023E000E90480919D04833430F081E090E0909383
:1023F0009A048093990480919C0486FF12C0809176
:10240000E804282F30E0C9018F7190704F9749F090
:1024100080919C0490E0822793278F719070892B84
:1024200089F48091990490919A04892B09F056C0FF
:10243000E091E604F091E704309709F44FC080E0A2
:10244000099558C08091E904843011F080E0089526
:1024500010929D0480919D048093EC048FEF9FEF78
:1024600090939A04809399042091EA042223D9F04E
:102470008227282F22952827022E2695269520256B
:10248000022E269520252770082E892F2695079441
:102490002795902D82270694279590258227909343
:1024A0009A048093990487E08093E90481E0809303
:1024B000970483EA94E90E94951180919204909187
:1024C0009304886D90939304809392048091920476
:1024D000909193040E94951180E008958FEF9FEFF3
:1024E000AFEFBFEF8093E2049093E304A093E40482
:1024F000B093E50481E0089580919704282F30E09F
:10250000833028F42F5F3F4F822F880F0895235088
:102510003040220F331F822F886008950F931F933E
:10252000082F10E0C801966C0E94951198012F7732
:1025300030702F5F3F4F442737FD4095542F6BEF8E
:1025400072E485E090E00E94C019CA01B901000F51
:10255000012F001F110B980143E0220F331F4A95F2
:10256000E1F7201B310B2F5F3F4F442737FD40958C
:10257000542F0E94C01993E056954795379527959B
:102580009A95D1F72D573C4F4F4F5F4FCA01B90174
:1025900024E833E040E050E00E94C0192093980402
:1025A0001F910F9108958091E904873091F48091F3
:1025B000EC04882371F41EBC0DB407FEFDCF0EB4ED
:1025C00000FC07C00E94C21184E08093E90481E00E
:1025D000089580E00895982F86FD05C0907E809133
:1025E000E8048F71980F90939C04E091E604F091B9
:1025F000E704309711F081E009958FEF9FEF9093FA
:102600009A04809399048091990490919A0420915E
:10261000EA048227282F22952827022E2695269520
:102620002025022E269520252770082E892F2695F5
:1026300007942795902D8227069427959025822729
:1026400090939A048093990488E08093E9048091A0
:1026500092049091930488639093930480939204DE
:1026600080919204909193040E9495110895DF92B5
:10267000EF92FF920F931F937B018C01DD2405C025
:10268000D39416950795F794E7948FEFE816F10425
:102690000105110509F0A0F780919204909193042F
:1026A00081FF0FC080919204909193048D7F90934D
:1026B00093048093920480919204909193040E94D9
:1026C0009511E114F10401051105B9F0C701906EEF
:1026D0003D2D20E0822B932B0E9495118091920436
:1026E00090919304826090939304809392048091DC
:1026F0009204909193040E9495111F910F91FF9065
:10270000EF90DF90089585B121E030E040E050E0A7
:102710000090FF0104C0220F331F441F551F0A946D
:10272000D2F7322F922F9095982395B91EBC0DB4F5
:1027300007FEFDCF6EB51EBC0DB407FEFDCF2EB556
:10274000962F80E0622F70E0682B792B77FF0FC007
:102750008091E904873059F48CB581608CBD1EBC32
:102760000DB407FEFDCF2EB58CB58E7F8CBD85B127
:10277000382B35B970939504609394048091940438
:102780009091950497FFE3C08091E904873009F0A8
:1027900079C08091EC04882371F49091EA04992324
:1027A00051F08091EC04E82FF0E0E556FB4F908368
:1027B0008F5F8093EC048091EC04E82FF0E0E55605
:1027C000FB4F20838F5F8093EC048091990490915C
:1027D0009A048227282F22952827022E26952695AF
:1027E0002025022E269520252770082E892F269534
:1027F00007942795902D8227069427959025822768
:1028000090939A048093990420919704233040F583
:102810008091EC0490E060919804029770E00E942F
:10282000AD19892BE9F48091940490919504E22FDD
:10283000F0E090FF04C0EC5DFD4F808104C0EC5DD2
:10284000FD4F808182958F7080939704833040F490
:1028500090E0880F991F0196806A94690E949511F3
:1028600080919D042091EC0490E0049630E0821762
:1028700093072CF08091EC04873408F468C00E9420
:10288000C21165C08091E90487FF2EC0E0919D04CC
:102890008091E9048F5F8093E9048150ED5FE80F38
:1028A000F0E0E556FB4FE0818091990490919A0405
:1028B0008E27282F22952827022E2695269520251B
:1028C000022E269520252770082E892F26950794FD
:1028D0002795902D822706942795902582279093FF
:1028E0009A04809399042EC08091E9048F5F8093AD
:1028F000E9048150833019F184302CF4882399F055
:102900008130F9F416C08B3019F08C30D1F402C04C
:10291000EDE218C0E091EA0490919D048EEF891BCE
:102920008093E9040FC08091990490919A04E82F54
:1029300009C08091990490919A04E92F03C00E94E4
:10294000C211EAEA8E2F90E0986B0E949511809157
:1029500094049091950496FF03C086E08093E90467
:10296000809194049091950494FF09C060E070E018
:1029700080E090E00E94371381E08093960480917C
:1029800094049091950495FF05C00E94C21184E0C3
:102990008093E90408951F93182F40939D042EE916
:1029A00034E0C90150E00E948C01812F0E94EB129B
:1029B0001F91089525B181E090E0A0E0B0E0009083
:1029C000FF0104C0880F991FAA1FBB1F0A94D2F7EA
:1029D000282B25B924B1822B84B98AE061E00E94BA
:1029E00007178AE061E00E94C8168BE061E00E9450
:1029F000C8168CE060E00E94C8168DE061E00E947D
:102A0000C81680E58CBD8DB581608DBD82E060E02B
:102A10000E94C81682E061E00E94071708951F9384
:102A20008093E8044093EA046093EB040E94DA1474
:102A30008091E80490E08F719070892B41F080E0E4
:102A400063E873E140E050E00E94381603C080E084
:102A50000E945B1682E89AEC0E94951180E09EEF3E
:102A60000E94951185E08093E90483B7817F06C0B9
:102A700083B7816083BF889583B78E7F83BF809142
:102A8000E9048530A9F3F89485E092E890939304E3
:102A90008093920480919204909193040E949511E6
:102AA0008091EB0490E074E0880F991F7A95E1F72C
:102AB000876C90680E94951180E496EA0E949511B7
:102AC00086E00E948E1282EA94E90E9495118CEAB7
:102AD00092EC0E9495111091EA04112341F083E8D1
:102AE0009AEC0E949511812F90E09E6C06C08BE8B5
:102AF0009AEC0E9495118DE29EEC0E94951183E85C
:102B000094EC0E94951180E598E90E94951187E761
:102B10009CEC0E94951180E090EE0E94951180E05F
:102B200098EC0E94951189E490EC0E94951184E044
:102B30008093E90478948091E8041F91089580912E
:102B4000F70408956093EF047093F0048093F10408
:102B50009093F20420910002309101024091020210
:102B600050910302260F371F481F591F2093F3046B
:102B70003093F4044093F5045093F60482E080937C
:102B8000F7040E94FE096093F8047093F90480939F
:102B9000FA049093FB040895EF92FF920F931F9312
:102BA0001CC02F5F3F4F4F4F5F4F2093EF04309378
:102BB000F0044093F1045093F20488EE93E0A0E017
:102BC000B0E0E80EF91E0A1F1B1FE092F804F09215
:102BD000F9040093FA041093FB040E94FE09E090AC
:102BE000F804F090F9040091FA041091FB046E19B6
:102BF0007F09800B910B2091EF043091F0044091FC
:102C0000F1045091F204685E73408040904048F6B1
:102C10008091F3049091F404A091F504B091F6042E
:102C2000281739074A075B07B0F0E091ED04F091EF
:102C3000EE04309781F009956115710581059105C4
:102C400019F00E94A21507C090E08091F70481114D
:102C500091E09093F7046091EF047091F0048091FB
:102C6000F1049091F2041F910F91FF90EF9008955D
:102C7000823000F5E82FF0E0EE0FFF1FE450FB4F2D
:102C800071836083882319F08130A1F408C080919A
:102C900069008C7F842B80936900E89A0895809165
:102CA0006900440F551F440F551F837F842B809369
:102CB0006900E99A0895823080F4882319F0813000
:102CC00021F402C0E89801C0E998E82FF0E0EE0F87
:102CD000FF1FE450FB4F1182108208951F920F9244
:102CE0000FB60F9211242F933F934F935F936F93DF
:102CF0007F938F939F93AF93BF93EF93FF938091B5
:102D0000FC049091FD04892B29F0E091FC04F091E2
:102D1000FD040995FF91EF91BF91AF919F918F9124
:102D20007F916F915F914F913F912F910F900FBEC7
:102D30000F901F9018951F920F920FB60F921124AB
:102D40002F933F934F935F936F937F938F939F93B3
:102D5000AF93BF93EF93FF938091FE049091FF0494
:102D6000892B29F0E091FE04F091FF040995FF9171
:102D7000EF91BF91AF919F918F917F916F915F91F3
:102D80004F913F912F910F900FBE0F901F9018956C
:102D9000CF93DF93482F50E0CA0186569E4FFC0127
:102DA00034914A575E4FFA018491882369F190E08B
:102DB000880F991FFC01E859FE4FA591B491FC01C1
:102DC000EE58FE4FC591D491662351F42FB7F89475
:102DD0008C91932F909589238C93888189230BC0A4
:102DE000623061F42FB7F8948C91932F90958923DA
:102DF0008C938881832B88832FBF06C09FB7F8945C
:102E00008C91832B8C939FBFDF91CF910895482F96
:102E100050E0CA0182559E4FFC012491CA0186569A
:102E20009E4FFC0194914A575E4FFA01349133232F
:102E300009F440C0222351F1233071F0243028F4EA
:102E40002130A1F0223011F514C02630B1F0273026
:102E5000C1F02430D9F404C0809180008F7703C082
:102E6000809180008F7D8093800010C084B58F7723
:102E700002C084B58F7D84BD09C08091B0008F777A
:102E800003C08091B0008F7D8093B000E32FF0E00D
:102E9000EE0FFF1FEE58FE4FA591B4912FB7F89497
:102EA000662321F48C919095892302C08C91892B03
:102EB0008C932FBF08955058BB27AA270ED075C1F9
:102EC00066D130F06BD120F031F49F3F11F41EF445
:102ED0005BC10EF4E095E7FB51C1E92F77D180F398
:102EE000BA17620773078407950718F071F49EF507
:102EF0008FC10EF4E0950B2EBA2FA02D0B01B90156
:102F000090010C01CA01A0011124FF27591B99F05F
:102F1000593F50F4503E68F11A16F040A22F232F6B
:102F2000342F4427585FF3CF469537952795A795BB
:102F3000F0405395C9F77EF41F16BA0B620B730B62
:102F4000840BBAF09150A1F0FF0FBB1F661F771FD3
:102F5000881FC2F70EC0BA0F621F731F841F48F488
:102F6000879577956795B795F7959E3F08F0B3CF0E
:102F70009395880F08F09927EE0F979587950895F8
:102F8000D9D008F481E008950CD00FC107D140F0EA
:102F9000FED030F021F45F3F19F0F0C0511139C17B
:102FA000F3C014D198F39923C9F35523B1F3951BBA
:102FB000550BBB27AA2762177307840738F09F5F5A
:102FC0005F4F220F331F441FAA1FA9F333D00E2EC9
:102FD0003AF0E0E830D091505040E695001CCAF736
:102FE00029D0FE2F27D0660F771F881FBB1F2617FB
:102FF00037074807AB07B0E809F0BB0B802DBF01CE
:10300000FF2793585F4F2AF09E3F510568F0B6C0E6
:1030100000C15F3FECF3983EDCF3869577956795AA
:10302000B795F7959F5FC9F7880F911D969587957E
:1030300097F90895E1E0660F771F881FBB1F62179D
:1030400073078407BA0720F0621B730B840BBA0B5B
:10305000EE1F88F7E095089504D06894B111D9C0A7
:103060000895BCD088F09F5790F0B92F9927B75199
:10307000A0F0D1F0660F771F881F991F1AF0BA953C
:10308000C9F712C0B13081F0C3D0B1E00895C0C01B
:10309000672F782F8827B85F39F0B93FCCF3869532
:1030A00077956795B395D9F73EF49095809570958F
:1030B00061957F4F8F4F9F4F0895E89409C097FB0C
:1030C0003EF490958095709561957F4F8F4F9F4FFF
:1030D0009923A9F0F92F96E9BB279395F695879543
:1030E00077956795B795F111F8CFFAF4BB0F11F406
:1030F00060FF1BC06F5F7F4F8F4F9F4F16C08823AD
:1031000011F096E911C0772321F09EE8872F762FE2
:1031100005C0662371F096E8862F70E060E02AF023
:103120009A95660F771F881FDAF7880F969587950F
:1031300097F90895990F0008550FAA0BE0E8FEEFE4
:1031400016161706E807F907C0F012161306E4076B
:10315000F50798F0621B730B840B950B39F40A2664
:1031600061F0232B242B252B21F408950A2609F442
:10317000A140A6958FEF811D811D089597F99F6746
:1031800080E870E060E008959FEF80EC08950024EF
:103190000A941616170618060906089500240A94BC
:1031A00012161306140605060895092E0394000C42
:1031B00011F4882352F0BB0F40F4BF2B11F460FFD1
:1031C00004C06F5F7F4F8F4F9F4F089557FD9058FA
:1031D000440F551F59F05F3F71F04795880F97FBDB
:1031E000991F61F09F3F79F0879508951216130695
:1031F0001406551FF2CF4695F1DF08C016161706C4
:103200001806991FF1CF86957105610508940895F8
:10321000E894BB2766277727CB0197F908958ADFC3
:1032200008F48FEF08950BD0C0CFB1DF28F0B6DFE0
:1032300018F0952309F0A2CFA7CF1124EACFC6DF5B
:10324000A0F3959FD1F3950F50E0551F629FF001B9
:10325000729FBB27F00DB11D639FAA27F00DB11D12
:10326000AA1F649F6627B00DA11D661F829F22279B
:10327000B00DA11D621F739FB00DA11D621F839F22
:10328000A00D611D221F749F3327A00D611D231FF8
:10329000849F600D211D822F762F6A2F11249F5746
:1032A00050408AF0E1F088234AF0EE0FFF1FBB1F69
:1032B000661F771F881F91505040A9F79E3F510508
:1032C00070F05CCFA6CF5F3FECF3983EDCF38695C1
:1032D00077956795B795F795E7959F5FC1F7FE2BB3
:1032E000880F911D9695879597F9089523DF880B90
:1032F000990B0895629FD001739FF001829FE00DAA
:10330000F11D649FE00DF11D929FF00D839FF00D64
:10331000749FF00D659FF00D9927729FB00DE11D10
:10332000F91F639FB00DE11DF91FBD01CF011124ED
:103330000895AA1BBB1B51E107C0AA1FBB1FA617FC
:10334000B70710F0A61BB70B881F991F5A95A9F74E
:1033500080959095BC01CD01089597FB092E072615
:103360000AD077FD04D0E5DF06D000201AF470956E
:1033700061957F4F0895F6F7909581959F4F089539
:10338000A1E21A2EAA1BBB1BFD010DC0AA1FBB1F69
:10339000EE1FFF1FA217B307E407F50720F0A21BDB
:1033A000B30BE40BF50B661F771F881F991F1A9448
:1033B00069F760957095809590959B01AC01BD0172
:1033C000CF010895EE0FFF1F0590F491E02D0994B1
:0433D000F894FFCF9F
:1033D40054656D7065726174757265733A20003A54
:1033E4000020004E614E2020200054696D65206944
:1033F4006E697469616C697A656400556E6B6E6F91
:10340400776E206D65737361676520747970653DAF
:103414000054696D65206E6F742073657400466F87
:10342400756E642000206F6620002073656E736FD4
:103434007273000A2A2A2A2A2A2052554E4E494ECD
:10344400473A2068656C6C6F5F6E6F64652E696EB9
:103454006F00436F6E736F6C653A20004E65743A6B
:10346400207265647563696E6720747820706F7765
:10347400657220616E64207278206761696E003025
:103484007800556E6B6E6F776E2073656E736F7216
:10349400733A0020004D697373696E672073656E1B
:1034A400736F72733A006E616E00696E66006F76B8
:1034B40066002E00285B94310100000C28000000F7
:1034C4000000000041697220003F00000000FF027C
:1034D4002C01000000000000AD01CA0C070003002D
:1034E4000100000000000000250CCA0CBB0BEC0B13
:0834F400CC0B150C340256004C
:00000001FF
