:100000000C94CA010C94D3150C9400160C94F201B4
:100010000C94F2010C94F2010C94F2010C94F20194
:100020000C94F2010C94F2010C94F2010C94F20184
:100030000C94F2010C94F2010C94F2010C94F20174
:100040000C94A30E0C94F2010C94650F0C94B30F56
:100050000C94F2010C94F2010C94F2010C94F20154
:100060000C94F2010C94F2012A2A2A2A2A205255D1
:100070004E4E494E473A206F7764656275675F6EF2
:100080006F64652E696E6F002A2A2A2A2A2053453A
:100090005455503A206F7764656275675F6E6F6480
:1000A000652E696E6F00206E6F7420666F756E64CA
:1000B00020696E20636F6E6669675F7265616400B8
:1000C000436F6E6669673A206D6F64756C652000DA
:1000D000206E6F7420666F756E6420696E20636F8A
:1000E0006E6669675F777269746500436F6E6669F3
:1000F000673A206D6F64756C652000202043524381
:10010000206D617463686573210020204352432091
:10011000646F6573206E6F74206D61746368210075
:1001200020627974657300206D61782900207673F0
:100130002E200020697320746F6F206C61726765D8
:10014000202800434F4E4649473A20746865206393
:100150006F6E66696720666F72206D6F64756C657F
:1001600020230020636F6E666967732000436F6E03
:100170006669673A200020214E4F4E45212000201D
:1001800074696D6500206574680020726631320004
:10019000206C6364002073657269616C00436F6E4C
:1001A000666967204C6F673A00436F6E6669672027
:1001B0004E65743A2052463132422064697361625E
:1001C0006C656400436F6E6669673A200054696D20
:1001D0006520696E697469616C697A656400206480
:1001E000657669636573004F775363616E2068615C
:1001F000732000206465766963657300206F662054
:10020000004F573A20666F756E6420004F573A20B2
:100210004D697373696E6720646576696365733AC7
:10022000004F573A204E65772064657669636573A1
:100230003A2020202000005EBCE2613FDD83C29CAA
:100240007E20A3FD1F419DC3217FFCA2401E5F01B4
:10025000E3BD3E6082DC237D9FC1421CFEA0E1BF66
:100260005D0380DE3C62BEE0025CDF81633D7C2298
:10027000C09E1D43A1FF4618FAA427799BC584DAC6
:100280003866E5BB5907DB856739BAE40658194774
:10029000A5FB7826C49A653BD987045AB8E6A7F926
:1002A0001B45C6987A24F8A6441A99C7257B3A6458
:1002B00086D85B05E7B98CD2306EEDB3510F4E1086
:1002C000F2AC2F7193CD114FADF3702ECC92D38D34
:1002D0006F31B2EC0E50AFF1134DCE90722C6D33E6
:1002E000D18F0C52B0EE326C8ED0530DEFB1F0AE18
:1002F0004C1291CF2D73CA947628ABF51749085646
:10030000B4EA6937D58B5709EBB536688AD495CBF3
:100310002977F4AA4816E9B7550B88D6346A2B75A5
:1003200097C94A14F6A8742AC896154BA9F7B6E8D7
:100330000A54D7896B3500000000240027002A00EA
:1003400000000000250028002B0000000000230012
:100350002600290004040404040404040202020226
:100360000202030303030303010204081020408078
:1003700001020408102001020408102000000007F8
:10038000000201000003040600000000000000005D
:10039000F2031F1111241FBECFEFD8E0DEBFCDBF87
:1003A00011E0A0E0B1E0E8EDFDE202C005900D92A1
:1003B000A639B107D9F713E0A6E9B1E001C01D9253
:1003C000A43DB107E1F713E0C4E9D3E004C02297EC
:1003D000FE010E94AF16C039D107C9F70E947511FE
:1003E0000C94EA160C940000EF92FF920F93DF93A7
:1003F000CF93CDB7DEB760970FB6F894DEBF0FBED0
:10040000CDBFA82F002309F461C07E010894E11C30
:10041000F11C88E0F70111928A95E9F729833A8364
:100420004B835C836D837E83AF83988780E2801BE0
:10043000E82FFF27E7FDF0954D815E816F8178857C
:10044000181684F01D861E861F86188A882799270D
:100450008E1B9F0B04C076956795579547958A9597
:10046000D2F728C0202F332727FD3095DB01CA01A2
:10047000022E04C0B695A795979587950A94D2F752
:100480008D879E87AF87B88B04C0440F551F661FAA
:10049000771FEA95D2F789819A81AB81BC8104C02C
:1004A000B695A795979587952A95D2F7482B592BFE
:1004B0006A2B7B2B49875A876B877C8729853A85EE
:1004C0004B855C856D857E85AF8598898A2F609682
:1004D0000FB6F894DEBF0FBECDBFCF91DF910F9165
:1004E000FF90EF9008950F931F93CF93DF93689F32
:1004F0008001699F100D789F100D1124C8010E9482
:100500008F02EC01009729F060E070E0A8010E94E2
:100510009103CE01DF91CF911F910F910895CF9359
:10052000DF93BC018230910510F462E070E0A0918D
:10053000D203B091D303ED0140E050E0E0E0F0E001
:1005400021C0888199818617970769F48A819B81E8
:10055000309719F09383828304C09093D3038093E0
:10056000D203FE0134C06817790738F441155105EC
:1005700019F08417950708F4AC01FE018A819B816C
:100580009C01E9012097E9F641155105A9F1CA013D
:10059000861B970B049708F4BA01E0E0F0E02AC04C
:1005A0008D919C91119784179507F9F4641775073D
:1005B00081F412968D919C911397309719F0938343
:1005C000828304C09093D3038093D203FD013296BB
:1005D0004CC0CA01861B970BFD01E80FF91F619300
:1005E000719302978D939C9340C0FD01828193810A
:1005F0009C01D9011097A1F68091D0039091D1036D
:10060000892B41F480914301909144019093D1034F
:100610008093D00340914501509146014115510509
:1006200041F44DB75EB78091410190914201481B62
:10063000590B2091D0033091D103CA01821B930B37
:100640008617970780F0AB014E5F5F4F84179507C1
:1006500050F0420F531F5093D1034093D003F90140
:100660006193719302C0E0E0F0E0CF01DF91CF91A0
:100670000895CF93DF93009709F450C0EC012297BF
:100680001B821A82A091D203B091D303109709F173
:1006900040E050E0AC17BD0708F1BB83AA83FE0120
:1006A00021913191E20FF31FAE17BF0779F48D91BD
:1006B0009C911197280F391F2E5F3F4F3983288354
:1006C00012968D919C9113979B838A8341155105B6
:1006D00071F4D093D303C093D20320C012968D91AE
:1006E0009C911397AD01009711F0DC01D3CFFA0173
:1006F000D383C28321913191E20FF31FCE17DF071D
:1007000069F488819981280F391F2E5F3F4FFA01C4
:10071000318320838A819B8193838283DF91CF9170
:100720000895DC0101C06D9341505040E0F70895F9
:10073000A0E0B0E0EEE9F3E00C94BD167C01EB0123
:100740008A01690109C0CE012196F6010995F701D8
:1007500081937F010150104001151105A1F7CDB71C
:10076000DEB7E8E00C94D916A0E0B0E0EAEBF3E0E5
:100770000C94BD16EC017B018A01690109C0CE0110
:100780002196F70161917F01F60109950150104012
:1007900001151105A1F7CDB7DEB7E8E00C94D91625
:1007A000DF92EF92FF920F931F93D72E7A018C0165
:1007B000FA010995C80101966D2DF70109951F9160
:1007C0000F91FF90EF90DF9008959C01F999FECF73
:1007D0001FBA32BD21BD60BD0FB6F894FA9AF99ADE
:1007E0000FBE089586E991E064ED41E00E94BD08E6
:1007F00084E392E00E94E70889E392E00E946C079C
:100800001092880210928B028CE892E065E042E040
:100810000E94920C85EA92E06CE872E042E00E944D
:100820000B0D8CEB92E06CE872E00E94100D809151
:10083000470190914801009719F480E090E001C0D1
:10084000049690934C0180934B010895AF92BF9210
:10085000CF92DF92EF92FF920F931F9386E991E080
:100860000E944008882329F080E090E060E00E9428
:100870007B0586E892E060E177E20E947E1588239E
:1008800009F4EEC060914701709148018CE892E054
:100890000E94530A60914701709148018CE892E0F0
:1008A0000E94E0098CEB92E061E040E00E94140DB0
:1008B0005B016C01809147019091480160E071E01B
:1008C0000E94311300914701109148018CE892E099
:1008D00061E00E942309FB01DC018CE892E0B80191
:1008E00079018A019F01AD010E948C098091470125
:1008F0009091480169E071E00E94311380914701B5
:10090000909148012FEFA2162FEFB2062FEFC206EB
:100910002FEFD20629F46EE071E00E94311306C079
:10092000B601A5012AE030E00E948D1280914701B6
:10093000909148010E94D9118CEB92E061E041E076
:100940000E94140D5B016C01809147019091480158
:1009500060E071E00E94311300914701109148015D
:100960008CE892E061E00E942309FB01DC018CE845
:1009700092E0B80179018A019F01AD010E948C09C2
:10098000809147019091480166E171E00E94311326
:1009900080914701909148012FEFA2162FEFB206E8
:1009A0002FEFC2062FEFD20629F46EE071E00E940D
:1009B000311306C0B601A5012AE030E00E948D1275
:1009C00080914701909148010E94D9118CEB92E0EF
:1009D00061E042E00E94140D5B016C0180914701CF
:1009E0009091480160E071E00E943113009147014D
:1009F000109148018CE892E061E00E942309FB011C
:100A0000DC018CE892E0B80179018A019F01AD0117
:100A10000E948C0980914701909148016BE171E03F
:100A20000E94311380914701909148012FEFA21647
:100A30002FEFB2062FEFC2062FEFD20629F46EE099
:100A400071E00E94311306C0B601A5012AE030E032
:100A50000E948D1280914701909148010E94D91106
:100A60001F910F91FF90EF90DF90CF90BF90AF90CC
:100A700008950F931F9306E513E0C80140E051EE7F
:100A800060E070E00E94EE0FC80168E870E00E942C
:100A9000F91180E290E06DE070EF45EE53E00E94C6
:100AA000D00389E491E00E94140686E892E068EEA3
:100AB00073E00E946215809147019091480168E6B9
:100AC00070E00E94F9111F910F9108959C01F9990E
:100AD000FECF32BD21BDF89A80B508959C01F999E9
:100AE000FECF1FBA32BD21BD60BD0FB6F894FA9A91
:100AF000F99A0FBE0895CF93DF93EC01462F00972C
:100B000021F440917A03CBE7D3E04423F9F0388114
:100B10002091C002E091BE02F091BF0290E014C0AB
:100B2000A191B19112968C911297831761F4ED9176
:100B3000FC911197219641500280F381E02DCD0167
:100B4000BE01099503C09F5F921750F3DF91CF91CB
:100B500008951F93182F5091C002A091BE02B0912A
:100B6000BF0220E230E090E047C0ED91FD9182812C
:100B70004381811709F03DC0C90150E02EE635E000
:100B80000E94B4034091C1025091C202FA0132970F
:100B900020E030E06FEF7FEF21C0F999FECF205EBB
:100BA0003F4F32BD21BDF89A80B56827862F8295C8
:100BB0008627082E869586958025082E8695802581
:100BC0008770062E672F869507948795702D682766
:100BD00006948795702568272F5130402E173F07C0
:100BE00008F4DBCFCA014E964EE655E00E94D003D2
:100BF00019C0240F311D9F5F951708F4B6CF86E505
:100C000093E06BEE70E00E94AE1186E593E0612FF9
:100C10004AE050E00E94AD1286E593E060ED70E09E
:100C20000E94F9111F9108958F929F92AF92BF92E7
:100C3000DF92EF92FF920F931F93DF93CF93CDB785
:100C4000DEB7C054D0400FB6F894DEBF0FBECDBFA4
:100C50005C0120E0322F3F5FE22FF0E0EE0FFF1F3C
:100C6000EA0DFB1D80819181892B11F0232FF2CF9A
:100C70002093C002B092BF02A092BE0286E593E02C
:100C80006DE671E00E94AE1186E593E06091C002CE
:100C90004AE050E00E94AD1286E593E063E671E021
:100CA0000E94AE111092C2021092C102EE244EC0F8
:100CB0000E2D10E0F801EE0FFF1FEA0DFB1D019055
:100CC000F081E02DF38080E48F15A8F586E593E0B0
:100CD0000E94D91186E593E063E471E00E94AE11B1
:100CE0000F5F1F4F86E593E0B8014AE050E00E9495
:100CF000FF1286E593E063E371E00E94AE1186E5A2
:100D000093E06F2D4AE050E00E94AD1286E593E03B
:100D10006DE271E00E94AE1186E593E060E470E060
:100D20004AE050E00E94FF1286E593E067E271E03E
:100D30000E94F9110AC08091C1029091C2028F0DE8
:100D4000911D9093C2028093C102E3948091C002EE
:100D5000E81608F4ADCF6091C1027091C2026E5FD7
:100D60007F4F7093C2026093C10286E593E04AE030
:100D700050E00E949C1286E593E060E271E00E94E0
:100D8000F9116091C1027091C20220E030E04FEF92
:100D90005FEF21C0F999FECF205E3F4F32BD21BDEC
:100DA000F89A80B54827842F82958427082E869547
:100DB00086958025082E869580258770042E452FE0
:100DC000869507948795502D48270694879550253A
:100DD00048272F5130402617370708F4DBCF452B23
:100DE00001F186E593E06AE071E00E94F91110E0FC
:100DF00013C0E12FF0E0EE0FFF1FEA0DFB1DA081F5
:100E0000B181ED91FC9111970190F081E02DCD0120
:100E100060E070E009951F5F8091C002181748F3E9
:100E200037C086E593E06BEF70E00E94F91190E225
:100E3000E92EF12CDD244E010894811C911C24C064
:100E40000D2D10E0000F111F0A0D1B1DD801ED9193
:100E5000FC914381C401B70150E026E635E00E94D1
:100E60009803F801A081B181ED91FC911197019057
:100E7000F081E02DCD01B4010995D801ED91FC91EF
:100E80008381E80EF11CD3948091C002D816C0F281
:100E9000C05CDF4F0FB6F894DEBF0FBECDBFCF9161
:100EA000DF911F910F91FF90EF90DF90BF90AF9077
:100EB0009F908F900895089508950895FC01E45B34
:100EC000FF4F1082EC54F04082E0868381E08783FC
:100ED00080E08160808708950F931F938C01FC014F
:100EE000138212828BE591E0918380830E96958325
:100EF0008483C8010E945E07F80181858160817E3C
:100F000081871F910F91089504970E948807089583
:100F1000CF93DF93EC01FB01BC01685F7F4F3097FB
:100F200019F08081888705C08985888782E00E94C2
:100F3000A90586E593E06DE971E00E94AE11888510
:100F400080FF06C086E593E065E971E00E94AE117E
:100F5000888581FF06C086E593E060E971E00E9424
:100F6000AE11888582FF06C086E593E06AE871E0ED
:100F70000E94AE11888583FF06C086E593E065E890
:100F800071E00E94AE11888584FF06C086E593E07B
:100F90006FE771E00E94AE118885882331F486E501
:100FA00093E066E771E00E94AE1186E593E00E944F
:100FB000D911DF91CF9108950F931F93CF93DF93B2
:100FC000EC018C01045B1F4FF8018081FE01E80FEA
:100FD000F11D1286888580FF16C0BE01665F7F4FB7
:100FE00086E593E00E943113F8018081882359F04F
:100FF000FE01E80FF11D81858A3029F486E593E032
:101000006DE00E94D111888583FF0EC0E881F981CF
:10101000BE01665F7F4FDE01A45BBF4F0480F58198
:10102000E02DCE014C910995C45BDF4F1882DF9112
:10103000CF911F910F9108951F93CF93DF93EC01F0
:10104000162FC45BDF4F8881CC54D040813418F018
:10105000CE010E94DC07DE01A45BBF4F8C91FE0134
:10106000E80FF11D12878F5F8C931A3019F4CE01AF
:101070000E94DC0781E090E0DF91CF911F910895FD
:1010800080E0089508956093C40286E593E069EADC
:1010900071E00E94F9110895CF92DF92EF92FF92D2
:1010A0000F931F93DF93CF93CDB7DEB77C01CDB6FF
:1010B000DEB6FB018B016115710509F180818E316E
:1010C000F1F086E593E064EC71E00E94AE1186E5F4
:1010D00093E0F80160814AE050E00E94AD1286E59D
:1010E00093E060E271E00E943113F801618186E5CE
:1010F00093E070E04AE050E00E94121319C000D063
:1011000000D00DB71EB70F5F1F4F8EE1EDB7FEB7D2
:101110008183F80111820E94F90E2AEA35E526271B
:101120003727F8013383228381E0B8010E94A905A3
:10113000F80160816093C40281818093C30284E9D5
:1011400090E0E80EF91E82819381F70191838083FC
:101150008CE69FEFE80EF91EC7010E9443080FB608
:10116000F894DEBE0FBECDBECF91DF911F910F91DF
:10117000FF90EF90DF90CF900895CF93DF93EC0135
:1011800081E791E099838883C656DF4F699348834E
:10119000CB59D0400E94EB0EFE01EA56FF4F608310
:1011A000718382839383611571058105910541F4F3
:1011B00081E090E0A0E0B0E080839183A283B383DC
:1011C00081E08A8384E08B83DF91CF910895FC01D5
:1011D00089E791E091838083148283E0828381E0B8
:1011E00083830895FC01DB016115710519F08C9171
:1011F000848305C0349683E0BF010E94A90586E57B
:1012000093E062E271E00E94341308951F93CF933C
:10121000DF93EB01443098F00E94A615182F6881E7
:1012200079818A819B810E94A915112341F48091C3
:101230004701909148016DEC71E00E94F911DF9136
:10124000CF911F910895FC018389681748F020E031
:1012500030E040E050E060E070E080E090E0089531
:10126000862F90E033E0880F991F3A95E1F70488C4
:10127000F589E02DE80FF91F2081318142815381EA
:1012800064817581868197810895EF92FF921F9303
:10129000CF93DF93EC017B0161157105B1F1EC890E
:1012A000FD8980819181892B9281892B9381892B62
:1012B0009481892B9581892B9681892B9781892B04
:1012C00021F510E01FC0A12FB0E0CD0143E0880F51
:1012D000991F4A95E1F7EC89FD89E80FF91FAA0FDC
:1012E000BB1FAA0FBB1FAE0DBF1D2D913D914D9190
:1012F0005C9120833183428353831482158216824A
:1013000017821F5F8A891817F0F2DF91CF911F9122
:10131000FF90EF9008950895AF92BF92CF92DF9221
:10132000EF92FF920F931F93DF93CF93CDB7DEB76A
:1013300028970FB6F894DEBF0FBECDBF6B01E982D0
:10134000FA820B831C832D833E834F835887CB0106
:1013500065E371E00E9431137E010894E11CF11CE9
:1013600065E0A62EB12CAC0EBD1EF70101917F01E8
:1013700010E0B80154E0759567955A95E1F7C601FC
:1013800040E150E00E94FF120F701070C601B801DA
:1013900040E150E00E94FF12EA14FB0431F7289666
:1013A0000FB6F894DEBF0FBECDBFCF91DF911F9176
:1013B0000F91FF90EF90DF90CF90BF90AF90089586
:1013C000BF92CF92DF92EF92FF920F931F93CF9332
:1013D000DF936C01EB01CB0167EE71E00E94AE116F
:1013E000CE01D60153966C914AE050E00E94AD12B6
:1013F000CE016EED71E00E94F911BB2445C00B2DAA
:1014000010E073E0000F111F7A95E1F7D6015496B2
:10141000ED91FC915597E00FF11F80819181892B0F
:101420009281892B9381892B9481892B9581892B9A
:101430009681892B9781892B31F1CE0168E371E088
:101440000E943113CE016B2D4AE050E00E94AD1294
:10145000CE016CE371E00E943113D6015496ED91F8
:10146000FC915597E00FF11FE080F180028113811C
:101470002481358146815781C601BE010E948C09B5
:10148000CE010E94D911B394F6018389B81608F4ED
:10149000B6CFDF91CF911F910F91FF90EF90DF902A
:1014A000CF90BF9008952F923F924F925F926F928C
:1014B0007F928F929F92AF92BF92CF92DF92EF92E4
:1014C000FF920F931F93DF93CF93CDB7DEB767974C
:1014D0000FB6F894DEBF0FBECDBF3C012B010DB798
:1014E0001EB71F8B0E8B9C012C5F3F4F3D872C87B7
:1014F000C9010E9447131B861A86222433241986A9
:10150000AAC0CE01019667E00E94541389809A8098
:10151000AB80BC80CD80DE80EF80F88410E020E0DE
:1015200030E040E050E060E070E08E871F87288B5D
:10153000398B4A8B5B8B6C8B7D8B9401A501B6013B
:10154000C70108E30E94F4011E85121709F083C049
:101550002F85231709F07FC03889341709F07BC025
:101560004989451709F077C05A89561709F073C0A1
:101570006B89671709F06FC07C89781709F06BC019
:101580008D89891709F067C0D30152965C9140E0BC
:1015900020E030E029C0D3015496ED91FC9155979D
:1015A000E20FF31F285F3F4F80819181A281B381B9
:1015B00088159905AA05BB05B1F480829182A282A3
:1015C000B382C482D582E682F78281E090E002C0D5
:1015D000880F991F4A95E2F7EA85FB85E82BF92BDE
:1015E000FB87EA8735C04F5F4517A8F240E020E04F
:1015F00030E02CC0D3015496ED91FC915597E20F49
:10160000F31F285F3F4F80819181892B9281892B25
:101610009381892B9481892B9581892B9681892BA4
:101620009781892B91F480829182A282B382C482B5
:10163000D582E682F78281E090E002C0880F991F90
:101640004A95E2F7282A392A03C04F5F451790F2DE
:10165000B985BF5FB9878C859D85BE016F5F7F4F60
:101660000E949614882309F04CCF8C859D850E949A
:101670004713F3018289838B41E050E004C021507D
:10168000D30153962C93F30123892223F1F0CA014D
:10169000821B910933E0880F991F3A95E1F704887E
:1016A000F589E02DE81BF90B80819181892B9281CE
:1016B000892B9381892B9481892B9581892B968104
:1016C000892B9781892BD9F21FC121143104B9F1DB
:1016D000C20161E272E00E94AE11DD2429C0C101A5
:1016E0000D2C02C0969587950A94E2F780FF1FC0E3
:1016F000C2016FE371E00E9431138D2D90E023E071
:10170000880F991F2A95E1F7D3015496ED91FC912A
:101710005597E80FF91FE080F18002811381248141
:10172000358146815781C301B2010E948C09D3944F
:10173000F3018289D81698F2C2010E94D911CA8495
:10174000DB84C228D328C094D09481E090E0D301F8
:1017500053960C9002C0880F991F0A94E2F70197E4
:10176000C822D922C114D10409F44FC0C2016CE0CF
:1017700072E00E94AE11BB2440C0C6010B2C02C017
:10178000969587950A94E2F780FF36C00B2D10E0FE
:1017900083E0000F111F8A95E1F7D3015496ED9174
:1017A000FC915597E00FF11F80819181892B9281E7
:1017B000892B9381892B9481892B9581892B968103
:1017C000892B9781892BC1F0C2016FE371E00E94E0
:1017D0003113D3015496ED91FC915597E00FF11F11
:1017E000E080F18002811381248135814681578117
:1017F000C301B2010E948C09B394F3018389B81626
:1018000008F4BBCFC2010E94D911EA85FB85D30140
:101810005896FC93EE935797C20161E072E00E94E4
:10182000AE11C20169854AE050E00E94AD12C201CA
:101830006CEF71E00E94AE11C201D30153966C911E
:101840004AE050E00E94AD12C20163EF71E00E94D5
:10185000F911F301828990E0880F991F880F991F71
:101860000DB71EB7081B190B0FB6F8941EBF0FBE9D
:101870000DBF6DB77EB76F5F7F4F40E01CC0842FF8
:1018800090E0880F991F880F991F9B01280F391F1F
:10189000880F991FD3015496ED91FC915597E80F4D
:1018A000F91F80819181A281B381F90180839183A5
:1018B000A283B3834F5FD30152968C914817F8F2FD
:1018C00086E00E94A9058985EE89FF890FB6F89404
:1018D000FEBF0FBEEDBF67960FB6F894DEBF0FBE1A
:1018E000CDBFCF91DF911F910F91FF90EF90DF90CF
:1018F000CF90BF90AF909F908F907F906F905F90B0
:101900004F903F902F9008952A853B8522293329B7
:10191000D30157968D919C9158972817390709F054
:10192000D4CE73CF1F93CF93DF93EC01142F81E8B4
:1019300091E099838883CE0104960E942C15113181
:1019400008F010E11A8B1B8A188E1F8A86E08A83A2
:10195000812F90E0880F991F880F991F8B83812F0B
:1019600090E068E070E00E9473028C8B9D8B1E8A71
:10197000DF91CF911F9108950F931F93CF93DF9322
:10198000EC018B0179836883413108F040E14A839F
:101990001D821D861C86F801828990E061E070E05E
:1019A0000E9473028B839C83F80142896FEF70E081
:1019B00050E00E9491038A8190E064E070E00E9410
:1019C00073028A879B878A8190E066E070E00E94BC
:1019D00073028B8B9C8B2A8116E0219F900111242E
:1019E00060E870E0A9010E9491038A8190E066E0BE
:1019F00070E00E9473028D8B9E8B2A81219F900143
:101A0000112460E870E0A9010E949103DF91CF9159
:101A10001F910F910895FC01108A0E94BC0C08953B
:101A2000FC017183608308957F928F929F92AF92A1
:101A3000BF92CF92DF92EF92FF920F931F93DF93AB
:101A4000CF93CDB7DEB766970FB6F894DEBF0FBE63
:101A5000CDBF9C01F42EDC01ED91FC91DE011996C5
:101A600034968EE001900D928150E1F7F90180816A
:101A700091810E9423092D3121F088249924540159
:101A80004CC129833A834B835C836D837E838F8330
:101A900098878E01075F1F4FC8010E944B14C80131
:101AA000BE016F5F7F4F0E942A14C80165EA40E0C3
:101AB0000E94EA13CC24DD2485EAC8268C2D829569
:101AC0008C25082E869586958025082E869580255E
:101AD00087700C2CCD2C869507948795D02CC82622
:101AE00006948795D024C826F0E4FF228FE9F80EEB
:101AF000C8016F2D40E00E94EA13CF248C2D8295FF
:101B00008C25082E869586958025082E869580251D
:101B100087700C2CCD2C869507948795D02CC826E1
:101B200006948795D024C826C80161E040E00E9451
:101B3000EA1381E0C8268C2D82958C25082E869587
:101B400086958025082E8695802587700C2CCD2CB7
:101B5000869507948795D02CC82606948795D0241F
:101B6000C826C8010E949913C8268C2D82958C2501
:101B7000082E869586958025082E86958025877067
:101B80000C2CCD2C869507948795D02CC8260694CE
:101B90008795D024C826882499245401EE24FF2454
:101BA000712E802F972D0E949913282F30E040E04E
:101BB00050E00E2C04C0220F331F441F551F0A94FF
:101BC000D2F7822A932AA42AB52AC8268C2D829578
:101BD0008C25082E869586958025082E869580254D
:101BE00087700C2CCD2C869507948795D02CC82611
:101BF00006948795D024C826A8E0B0E0EA0EFB1E24
:101C0000B0E2EB16F10409F0CCCF802F972D0E94A3
:101C10009913C8268C2D82958C25082E869586953D
:101C20008025082E8695802587700C2CCD2C8695D6
:101C300007948795D02CC82606948795D024C8266B
:101C4000802F972D0E949913C8268C2D82958C2564
:101C5000082E869586958025082E86958025877086
:101C60000C2CCD2C869507948795D02CC8260694ED
:101C70008795D024C826802F972D0E949913C826B7
:101C80008C2D82958C25082E869586958025082E8C
:101C90008695802587700C2CCD2C8695079487958A
:101CA000D02CC82606948795D024C826802F972D3F
:101CB0000E949913C8268C2D82958C25082E869516
:101CC00086958025082E8695802587700C2CCD2C36
:101CD000869507948795D02CC82606948795D0249E
:101CE000C826802F972D0E949913E82EFF24802F5D
:101CF000972D0E949913182F802F972D0E944B1417
:101D0000912F80E08E299F2980959095C816D9063D
:101D100021F088248A94982C5401B401C501669658
:101D20000FB6F894DEBF0FBECDBFCF91DF911F91EC
:101D30000F91FF90EF90DF90CF90BF90AF909F906A
:101D40008F907F9008951F920F920FB60F921124DB
:101D50002F933F938F939F93AF93BF938091C9022B
:101D60009091CA02A091CB02B091CC023091CD02E9
:101D70000196A11DB11D232F2D5F2D3720F02D576A
:101D80000196A11DB11D2093CD028093C9029093AD
:101D9000CA02A093CB02B093CC028091C50290916D
:101DA000C602A091C702B091C8020196A11DB11D43
:101DB0008093C5029093C602A093C702B093C80255
:101DC000BF91AF919F918F913F912F910F900FBE37
:101DD0000F901F9018958FB7F8942091C9023091F9
:101DE000CA024091CB025091CC028FBFB901CA0107
:101DF00008959FB7F8942091C5023091C602409192
:101E0000C7025091C80286B5A89B06C08F3F21F03B
:101E10002F5F3F4F4F4F5F4F9FBF542F432F322FA6
:101E20002227280F311D411D511D82E0220F331F33
:101E3000441F551F8A95D1F7B901CA01089501972A
:101E400039F0880F991F880F991F02970197F1F7B2
:101E50000895789484B5826084BD84B5816084BD22
:101E600085B5826085BD85B5816085BDEEE6F0E013
:101E7000808181608083E1E8F0E01082808182606F
:101E80008083808181608083E0E8F0E080818160F0
:101E90008083E1EBF0E0808184608083E0EBF0E020
:101EA000808181608083EAE7F0E0808184608083C4
:101EB000808182608083808181608083808180686E
:101EC00080831092C100089508951F920F920FB65B
:101ED0000F9211242F933F934F938F939F93EF93E0
:101EE000FF938091C00082FD1DC04091C6002091EB
:101EF0000E0330910F032F5F3F4F2F73307080918F
:101F00001003909111032817390771F0E0910E0327
:101F1000F0910F03E253FD4F408330930F03209362
:101F20000E0302C08091C600FF91EF919F918F91A7
:101F30004F913F912F910F900FBE0F901F901895CA
:101F4000E0916203F0916303E05CFF4F8191919116
:101F500020813181821B930B8F739070892B11F03C
:101F60000E94640F08951F920F920FB60F921124D2
:101F70002F933F938F939F93EF93FF93209152035F
:101F800030915303809154039091550328173907DA
:101F900031F48091C1008F7D8093C10014C0E09125
:101FA0005403F0915503EE5EFC4F20818091540361
:101FB0009091550301968F73907090935503809381
:101FC00054032093C600FF91EF919F918F913F9111
:101FD0002F910F900FBE0F901F901895AF92BF9248
:101FE000DF92EF92FF920F931F93CF93DF93EC0159
:101FF0007A018B01DD24403081EE580780E06807CC
:1020000080E0780711F0DD24D39491E0A92EB12C63
:10201000EC89FD89DD2069F0C50108A002C0880FA8
:10202000991F0A94E2F7808360E079E08DE390E005
:1020300005C0108260E874E88EE190E0A801970185
:102040000E948B1621503040404050405695479595
:102050003795279580E12030380720F0DD2011F0FA
:10206000DD24D6CFE889F9893083EA89FB8920838A
:1020700019A2EE89FF89408121E030E0C9010C8C72
:1020800002C0880F991F0A94E2F7482B4083EE891B
:10209000FF894081C9010D8C02C0880F991F0A94E5
:1020A000E2F7482B4083EE89FF894081C9010E8CFD
:1020B00002C0880F991F0A94E2F7482B4083EE89EB
:1020C000FF8980810F8C02C0220F331F0A94E2F730
:1020D000209528232083DF91CF911F910F91FF90AE
:1020E000EF90DF90BF90AF900895DC011C96ED91CA
:1020F000FC911D97E05CFF4F21913191808191818E
:10210000281B390B2F733070C9010895DC011C9610
:10211000ED91FC911D97E05CFF4F20813181E054EF
:10212000F040DF01AE5BBF4F8D919C911197281756
:10213000390719F42FEF3FEF07C08D919C91E80FFD
:10214000F91F8081282F30E0C9010895DC011C9619
:10215000ED91FC911D97E05CFF4F20813181E054AF
:10216000F040DF01AE5BBF4F8D919C911197281716
:10217000390719F42FEF3FEF10C08D919C91119703
:10218000E80FF91F20818D919C91119701968F7313
:10219000907011969C938E9330E0C9010895DC01F4
:1021A00091968C919197882339F05496ED91FC91FA
:1021B0005597808186FFF9CF91961C920895CF9311
:1021C000DF93EC01EE85FF85E05CFF4F20813181DC
:1021D000E054F0402F5F3F4F2F733070DF01AE5B54
:1021E000BF4F8D919C91119728173907D1F3E05C6F
:1021F000FF4F80819181E054F040E80FF91F608328
:10220000EE85FF85E05CFF4F31832083EE89FF89F7
:10221000208181E090E00F8C02C0880F991F0A9402
:10222000E2F7282B208381E089A3EC89FD89808156
:102230008064808381E090E0DF91CF9108951092D7
:1022400059031092580388EE93E0A0E0B0E0809329
:102250005A0390935B03A0935C03B0935D0389E8FA
:1022600091E090935703809356038EEC92E0909305
:1022700063038093620382E193E09093650380930C
:10228000640385EC90E0909367038093660384EC8D
:1022900090E0909369038093680380EC90E09093C2
:1022A0006B0380936A0381EC90E090936D038093BD
:1022B0006C0382EC90E090936F0380936E0386EC46
:1022C00090E0909371038093700384E08093720395
:1022D00083E08093730387E08093740385E08093A9
:1022E000750381E0809376030895CF93DF930E9476
:1022F000290F0E943905C0EADFE00E9426042097DA
:10230000E1F30E94A00FF9CFCF92DF92EF92FF92FC
:102310000F931F93CF93DF937C016B018A01C0E081
:10232000D0E00FC0D6016D916D01D701ED91FC9108
:102330000190F081E02DC7010995C80FD91F015008
:1023400010400115110571F7CE01DF91CF911F915A
:102350000F91FF90EF90DF90CF900895EF92FF9252
:102360000F931F93CF93DF937C018B01C0E0D0E0EC
:10237000F8010F5F1F4F6491662359F0D701ED916B
:10238000FC910190F081E02DC7010995C80FD91F7C
:10239000EFCFCE01DF91CF911F910F91FF90EF9082
:1023A0000895DC01ED91FC910190F081E02D0995FB
:1023B0000895EF92FF920F931F938C01DC01ED9132
:1023C000FC910190F081E02D6DE009957C01D80130
:1023D000ED91FC910190F081E02DC8016AE0099532
:1023E0009C012E0D3F1DC9011F910F91FF90EF9091
:1023F0000895EF92FF920F931F937C010E94AE11FC
:102400008C01C7010E94D9119C01200F311FC90105
:102410001F910F91FF90EF900895CF93DF93EC0100
:102420006115710519F420E030E00FC0DB010D905B
:102430000020E9F71197A61BB70BE881F98102800C
:10244000F381E02DAD0109959C01C901DF91CF9188
:1024500008954F925F927F928F929F92AF92BF9218
:10246000CF92DF92EF92FF920F931F93DF93CF9360
:10247000CDB7DEB7A1970FB6F894DEBF0FBECDBFC4
:102480002C01742ECB01223008F42AE019A231E28B
:10249000C32ED12CCC0EDD1E822E9924AA24BB245F
:1024A000672D752FA50194010E948B1679018A0171
:1024B000C801B701A50194010E946C16472D461B67
:1024C0000894C108D1084A3010F4405D01C0495C4D
:1024D000F6014083E114F1040105110521F07E2C81
:1024E0005F2DC801DDCFC201B6010E940D12A19679
:1024F0000FB6F894DEBF0FBECDBFCF91DF911F9115
:102500000F91FF90EF90DF90CF90BF90AF909F9092
:102510008F907F905F904F900895DC0121153105D9
:1025200041F4ED91FC910190F081E02D642F09952B
:1025300008950E9429120895EF92FF920F931F931E
:102540009A017B0100E010E0B801A7010E948D1202
:102550001F910F91FF90EF900895EF92FF920F93CC
:102560001F939A01E62EFF2400E010E0B801A701B6
:102570000E948D121F910F91FF90EF900895CF92BE
:10258000DF92EF92FF920F931F93CF93DF93EC01B3
:102590006A017B012115310541F4E881F98101903F
:1025A000F081E02D642F09951FC02A303105D1F448
:1025B00077FF17C0E881F9810190F081E02D6DE28D
:1025C00009958C0144275527BA014C195D096E09FC
:1025D0007F09CE012AE00E9429129801280F391F95
:1025E00004C02AE00E9429129C01C901DF91CF9109
:1025F0001F910F91FF90EF90DF90CF900895EF9291
:10260000FF920F931F937B019A010027F7FC00951F
:10261000102FB801A7010E94BF121F910F91FF90C8
:10262000EF900895CF92DF92EF92FF920F931F9356
:102630006C017B019A010027F7FC0095102FB8016F
:10264000A7010E94BF128C01C6010E94D911080F78
:10265000191FC8011F910F91FF90EF90DF90CF904D
:1026600008950E940D120895EF92FF920F931F9309
:102670007C010E940D128C01C7010E94D911080F24
:10268000191FC8011F910F91FF90EF900895FC0151
:1026900013861586148687E090E01286319700979E
:1026A00011F00197FACF0895DC0180E00BC0E82F0C
:1026B000F0E08D9190E0E827F927EA5CFD4FE49186
:1026C00061508E2F662399F70895DF92EF92FF9263
:1026D0000F931F93FC01E08001811281F894F801AF
:1026E0008281DE2CD0948D21828381818E29818309
:1026F00083E090E00E941F0FF80181818D2181838A
:102700008AE090E00E941F0FF8010081789485E331
:1027100090E00E941F0F80E010E0FF240E211F2197
:10272000012B09F081E01F910F91FF90EF90DF9056
:102730000895EF92FF920F931F93CF93DF937C0145
:1027400001E010E0C0E0D0E0C7010E9465138111F4
:10275000102B000F2196C830D105B1F7812FDF91E2
:10276000CF911F910F91FF90EF9008951F93CF93FA
:10277000DF93FC011081C181D281912F909560FF80
:1027800012C0F8948A8189238A838981812B898365
:102790008AE090E00E941F0F8A81812B8A837894BF
:1027A00087E390E011C0F8948A8189238A83898124
:1027B000812B898381E490E00E941F0F8A81812B05
:1027C0008A83789485E090E00E941F0FDF91CF917B
:1027D0001F910895CF92DF92EF92FF920F931F9374
:1027E000CF93DF938C01E42EFF24F394C0E0D0E07C
:1027F000C62EDD2460E08F2D90E08C219D21892B59
:1028000009F061E0C8010E94B613FF0C2196C830A0
:10281000D10581F7EE20A9F4F894D8011196ED9135
:10282000FC91129791818C918095982391831196B8
:10283000ED91FC91129792818C91809598239283CF
:102840007894DF91CF911F910F91FF90EF90DF90DF
:10285000CF900895EF92FF920F931F93CF93DF9342
:102860008C017B0165E540E00E94EA13C0E0D0E006
:10287000F701EC0FFD1FC801608140E00E94EA13E0
:102880002196C830D105A1F7DF91CF911F910F910B
:10289000FF90EF900895DF92EF92FF920F931F93B6
:1028A000CF93DF93FC010081C181D281F8948981AB
:1028B000D02ED0948D21898378941DE7E02EFF24BB
:1028C000115059F182E090E00E941F0F888190E042
:1028D0008E219F21892BA1F3F8948A818D218A83EF
:1028E0008981802B8983789484EF91E00E941F0F67
:1028F000F89489818D21898380E590E00E941F0FE3
:10290000888110E090E0E822F922EF2809F411E034
:10291000789484EA91E00E941F0F812FDF91CF917C
:102920001F910F91FF90EF90DF900895AF92BF92AB
:10293000DF92EF92FF920F931F93CF93DF93EC01FF
:102940005B018D85882309F061C0CE010E944B1484
:10295000882329F41B861D861C8690E06BC0CE015F
:1029600060EF40E00E94EA1301E0DD24EE24FF2442
:10297000F394CE010E946513182FCE010E946513B7
:10298000113019F48130E1F439C0181709F58B853D
:10299000081770F460E0FE01EE0DF11D838190E0F8
:1029A0002F2D30E082239323181619064CF003C014
:1029B00060E0081729F0093008F04CC00C874AC0C5
:1029C000FE01EE0DF11D83818F29838361E009C033
:1029D000612FFE01EE0DF11D9F2D909583818923BE
:1029E0008383CE010E94B6130F5FFF0C19F4E394AA
:1029F000FF24F39487E08E1508F0BBCF013430F04C
:102A0000DB86DD2011F581E08D871FC01B861D86CA
:102A10001C8690E0DE0120E030E0F501E20FF31FBC
:102A200013968C91139780832F5F3F4F1196283018
:102A3000310599F7892FDF91CF911F910F91FF9069
:102A4000EF90DF90BF90AF9008958B818823F1F2D3
:102A500091E0E0CFD02EBDCFFF920F931F938C015A
:102A6000F62E862F60E00E942D168F2D90E0FC013F
:102A7000E859FC4FE491D801EC938C5A9C4FFC012F
:102A80006491E62FF0E0EE0FFF1FE65BFC4F8591AF
:102A9000949112969C938E9311971B961C921B9760
:102AA0001D961C921D971C961C92F80187E090E0E1
:102AB00012863197009711F00197FACF1F910F916D
:102AC000FF9008950F931F93CF93DF938C01EB0139
:102AD00080E06115710509F081E0F80182838823A7
:102AE00041F00E94EB0E2197C60FD71FF801D1834A
:102AF000C083DF91CF911F910F910895EF92FF92C4
:102B00000F931F93CF93DF93EC017B018A8188237E
:102B100011F400E00FC0088119810E94EB0EC8017A
:102B2000861B970B2AEE8136920710F400E006C050
:102B3000082F0195CE01B7010E946215802FDF9109
:102B4000CF911F910F91FF90EF9008958091C7034F
:102B500008956093BF037093C0038093C103909363
:102B6000C20320915301309154014091550150917D
:102B70005601260F371F481F591F2093C303309358
:102B8000C4034093C5035093C60382E08093C703F8
:102B90000E94EB0E6093C8037093C9038093CA032D
:102BA0009093CB0308951F920F920FB60F921124AA
:102BB0002F933F934F935F936F937F938F939F9345
:102BC000AF93BF93EF93FF938091CC039091CD038C
:102BD000892B29F0E091CC03F091CD030995FF9169
:102BE000EF91BF91AF919F918F917F916F915F9185
:102BF0004F913F912F910F900FBE0F901F901895FE
:102C00001F920F920FB60F9211242F933F934F9361
:102C10005F936F937F938F939F93AF93BF93EF9344
:102C2000FF938091CE039091CF03892B29F0E091FF
:102C3000CE03F091CF030995FF91EF91BF91AF9132
:102C40009F918F917F916F915F914F913F912F91C4
:102C50000F900FBE0F901F901895CF93DF93482FC2
:102C600050E0CA0188599C4FFC0134914C5A5C4F8A
:102C7000FA018491882369F190E0880F991FFC0183
:102C8000EA5CFC4FA591B491FC01E05CFC4FC5915E
:102C9000D491662351F42FB7F8948C91932F90958B
:102CA00089238C93888189230BC0623061F42FB70C
:102CB000F8948C91932F909589238C938881832B02
:102CC00088832FBF06C09FB7F8948C91832B8C9379
:102CD0009FBFDF91CF910895629FD001739FF00154
:102CE000829FE00DF11D649FE00DF11D929FF00D9C
:102CF000839FF00D749FF00D659FF00D9927729FD3
:102D0000B00DE11DF91F639FB00DE11DF91FBD015D
:102D1000CF0111240895A1E21A2EAA1BBB1BFD01AD
:102D20000DC0AA1FBB1FEE1FFF1FA217B307E407AA
:102D3000F50720F0A21BB30BE40BF50B661F771F02
:102D4000881F991F1A9469F76095709580959095E2
:102D50009B01AC01BD01CF010895EE0FFF1F05904F
:102D6000F491E02D09942F923F924F925F926F92CF
:102D70007F928F929F92AF92BF92CF92DF92EF920B
:102D8000FF920F931F93CF93DF93CDB7DEB7CA1B8C
:102D9000DB0B0FB6F894DEBF0FBECDBF09942A88B7
:102DA000398848885F846E847D848C849B84AA845F
:102DB000B984C884DF80EE80FD800C811B81AA81EC
:102DC000B981CE0FD11D0FB6F894DEBF0FBECDBFB7
:082DD000ED010895F894FFCF16
:102DD800436F756E747220400020412D3E002042E2
:102DE80041444352430020422D3E0020432D3E00E3
:102DF80020004E657454696D6520636F6E6669675F
:102E08007572656400307800202023003A20002085
:102E1800002000D403000039029601000034028C1F
:102E28000200002C010000000000001C0884115B57
:102E38000788075D07FCFF000084075C07000000A7
:102E4800004C08420800000000F2080609000000D3
:102E58000045098B0900000000DF1084117510A6D9
:062E6800108610CF1000DF
:00000001FF
