:100000000C946E020C94211E0C944E1E0C949602BD
:100010000C9496020C9496020C9496020C94960200
:100020000C9496020C9496020C9496020C949602F0
:100030000C9496020C9496020C9496020C949602E0
:100040000C94530E0C9496020C949E0F0C94EC0F8F
:100050000C9496020C9496020C9496020C949602C0
:100060000C9496020C94960254696D65206E6F7420
:100070002073657400084800420188C121A0000077
:100080000000801CC271988FF91C07000000701CD2
:10009000E2718EEF73A28F8B8228721EE771BE28E9
:1000A0008AA2E8E38483000820002080030202097A
:1000B0000C000000000008000000008088400000E4
:1000C0004251BC291010812000008022238A9840D0
:1000D00088A2882030308822258A92208822024AED
:1000E000826D8AA2288A88288AA2082204420110E6
:1000F0002000204000020008080000000000080066
:100100000000004008A1020002F80A240008A22210
:10011000000040320282942780A288208CCF80BACF
:10012000280AA2200822022A826A8AA2280A88288B
:100130008A14052108220200EFF13CE7F11EC349B1
:1001400088A5711EAFF1BE688BA2E84308010100CB
:1001500002501C420008C2F9800F402A026114E8D4
:10016000411C0F00030043BAE809A2E7C93E021A86
:1001700082AA8A9EE8718848A90882200802008025
:10018000280AA24888220229886A8AA26808884820
:10019000A99408210802000002F828A10208A2225E
:1001A0000000202682803E28422208008CCF209A20
:1001B0002F0AA2208822222A82288B82A88088489F
:1001C000A914422010020080280AA24F8822021996
:1001D000882A8AA228708848A988884008010000D7
:1001E00000509E2C011081200880202242889028F7
:1001F0002222842030300082288A92208822224ABB
:1002000082288B8228898888D822222010020080A8
:100210002C0AA240F0220229882A8AA22880888CEF
:10022000A8144F4008010000020008CC02A0000002
:100230000880101CE27338C7211C83200000209C1A
:10024000E8718E2FF0A2CF89BE287202277208872C
:100250008822E2E3A003FC00EBF13C47802207493F
:100260009C28721E2F78308B5022E8838800000073
:10027000000000000000000004001000000000006A
:10028000000000100000000000000000000000005E
:10029000000000000C000000000000002000000032
:1002A000000000007000E0000000000208000000F4
:1002B00000000700000000205F0644727373695F4E
:1002C0006E6F64652E696E6F002A2A2A2A2A2053CF
:1002D000455455503A20727373695F6E6F64652E92
:1002E000696E6F00206E6F7420666F756E64206992
:1002F0006E20636F6E6669675F7265616400436F4D
:100300006E6669673A206D6F64756C652000206EBB
:100310006F7420666F756E6420696E20636F6E6601
:1003200069675F777269746500436F6E6669673AE3
:10033000206D6F64756C6520002020435243206D52
:100340006174636865732100202043524320646F09
:100350006573206E6F74206D617463682100206284
:100360007974657300206D617829002076732E20E2
:10037000007468206D6F64756C6520697320746FFC
:100380006F206C61726765202800434F4E464947D5
:100390003A207468652073697A65206F66207468F6
:1003A0006520636F6E66696720666F72207468658A
:1003B000200020636F6E666967732000436F6E666E
:1003C00069673A20002074696D65002065746800D3
:1003D000207266313200206C63640020736572699C
:1003E000616C00436F6E666967204C6F673A00204E
:1003F0002031396B6270730020206C6F7720545865
:1004000020706F7765720020757569643D307800E3
:100410002067726F75705F69643D00436F6E666937
:1004200067204E65743A206E6F64655F69643D00B5
:10043000436F6E6669673A20004E65743A207570A6
:10044000646174696E67206E6F64655F69642074AF
:100450006F20004E65743A2073656E64696E672084
:10046000616E6E6F756E63656D656E740054696D57
:100470006520696E697469616C697A656400000061
:100480000000240027002A000000000025002800AA
:100490002B000000000023002600290004040404AF
:1004A000040404040202020202020303030303031E
:1004B00001020408102040800102040810200102FB
:1004C00004081020000000070002010000030406D9
:1004D00000000000000000009C05581111241FBE00
:1004E000CFEFD8E0DEBFCDBF11E0A0E0B1E0E4E4A3
:1004F000FEE302C005900D92A439B107D9F717E0C9
:10050000A4E9B1E001C01D92A23DB107E1F714E0FA
:10051000CCEDD4E004C02297FE010E94E51EC83D48
:10052000D107C9F70E94AE110C94201F0C94000053
:10053000FB01DC0102C001900D9241505040D8F700
:100540000895A0E0B0E0E7EAF2E00C94F31E7C012D
:10055000EB018A01690109C0CE012196F6010995D6
:10056000F70181937F010150104001151105A1F79A
:10057000CDB7DEB7E8E00C940F1FA0E0B0E0E3ECED
:10058000F2E00C94F31EEC017B018A01690109C0C1
:10059000CE012196F70161917F01F6010995015085
:1005A000104001151105A1F7CDB7DEB7E8E00C94B6
:1005B0000F1FDF92EF92FF920F931F93D72E7A01B6
:1005C0008C01FA010995C80101966D2DF701099575
:1005D0001F910F91FF90EF90DF900895AEE0B0E093
:1005E000E4EFF2E00C94F71E0D891E898F89988D37
:1005F00097FF02C080E090E801979E838D831A8365
:10060000098386E08C839E01255E3F4FCE010196D3
:10061000698D7A8DA9010E941F034D815E8157FD6E
:100620000AC02F813885421753070CF49A01020F34
:10063000131FF80110822E96E4E00C94131FABE018
:10064000B0E0E5E2F3E00C94E91E3C012B015A0115
:10065000FC0117821682838181FD03C06FEF7FEF5B
:10066000C6C19AE0892E1E010894211C311CF30199
:100670002381F20123FD859123FF81912F0188239E
:1006800009F4B2C1853239F423FD859123FF8191AC
:100690002F01853229F490E0B3010E941205E7CFC3
:1006A000982FFF24EE249924FFE1FF15D0F09B3210
:1006B00069F09C3228F4903259F0933291F40EC0D4
:1006C0009D3249F0903369F441E024C052E0F52AAC
:1006D00084E0F82A28C098E0F92A25C0E0E1FE2A43
:1006E00022C0F7FC29C0892F80538A3070F4F6FEAF
:1006F00005C0989C902C1124980E15C0E89CE02C05
:100700001124E80EF0E2FF2A0EC09E3229F4F6FC16
:100710006BC140E4F42A07C09C3619F450E8F52A6E
:1007200002C0983649F4F20123FD959123FF91917F
:100730002F01992309F0B8CF892F8554833018F001
:100740008052833038F444E050E0A40EB51E5FE3DD
:1007500059830FC0933631F0933779F0933509F010
:1007600056C020C0F5018081898342E050E0A40E8C
:10077000B51E610101E010E012C0F501C080D1801A
:10078000F6FC03C06FEF7FEF02C0692D70E042E01E
:1007900050E0A40EB51EC6010E9407058C015FE75C
:1007A000F52214C0F501C080D180F6FC03C06FEFC4
:1007B0007FEF02C0692D70E042E050E0A40EB51E4C
:1007C000C6010E94FC048C0150E8F52AF3FE07C024
:1007D0001AC080E290E0B3010E941205EA948E2DC7
:1007E00090E008171907A8F30EC0F601F7FC8591F1
:1007F000F7FE81916F0190E0B3010E941205E110B4
:10080000EA94015010400115110579F7EAC09436B9
:1008100011F0993669F5F7FE08C0F50120813181A4
:100820004281538184E090E00AC0F501808191818A
:100830009C01442737FD4095542F82E090E0A80E9C
:10084000B91E9FE6F92257FF09C050954095309593
:1008500021953F4F4F4F5F4FE0E8FE2ACA01B90193
:10086000A1012AE030E00E943E05D82ED21840C0F7
:10087000953729F41F2D1F7E2AE030E01DC01F2D63
:10088000197F9F3661F0903720F4983509F0ACC09D
:100890000FC0903739F0983709F0A6C004C028E09F
:1008A00030E00AC0106114FD146020E130E004C0A3
:1008B00014FD166020E132E017FF08C0F5016081E9
:1008C00071818281938144E050E008C0F50180810C
:1008D0009181BC0180E090E042E050E0A40EB51EA2
:1008E000A1010E943E05D82ED2188FE7F82EF122E2
:1008F000F6FE0BC05EEFF522D91438F4F4FE07C003
:10090000F2FC05C08FEEF82202C01D2D01C0192D8A
:10091000F4FE0DC0FE01ED0DF11D8081803319F450
:1009200099EEF92208C01F5FF2FE05C003C08F2DAB
:10093000867809F01F5F0F2DF3FC14C0F0FE0FC086
:100940001E1510F09D2C0BC09D2C9E0C911A1E2D77
:1009500006C080E290E0B3010E9412051F5F1E15E1
:10096000C0F304C01E1510F4E11A01C0EE2404FF08
:100970000FC080E390E0B3010E94120502FF1DC08A
:1009800001FD03C088E790E00EC088E590E00BC051
:10099000802F867891F001FF02C08BE201C080E2D7
:1009A000F7FC8DE290E0B3010E94120506C080E3DF
:1009B00090E0B3010E9412059A94D914C0F3DA941E
:1009C000F101ED0DF11D808190E0B3010E9412054F
:1009D000DD20A9F706C080E290E0B3010E94120575
:1009E000EA94EE20C1F743CEF30166817781CB0113
:1009F0002B96E2E10C94051FFC01059061507040BC
:100A00000110D8F7809590958E0F9F1F0895FC01D7
:100A10006150704001900110D8F7809590958E0F2D
:100A20009F1F08950F931F93CF93DF938C01EB01CA
:100A30008B8181FF1BC082FF0DC02E813F818C8185
:100A40009D812817390764F4E881F9810193F983BE
:100A5000E88306C0E885F985802F0995892B31F454
:100A60008E819F8101969F838E8302C00FEF1FEFBF
:100A7000C801DF91CF911F910F910895FA01AA2724
:100A8000283051F1203181F1E8946F936E7F6E5FD1
:100A90007F4F8F4F9F4FAF4FB1E03ED0B4E03CD07F
:100AA000670F781F891F9A1FA11D680F791F8A1F62
:100AB000911DA11D6A0F711D811D911DA11D20D0C9
:100AC00009F468943F912AE0269F11243019305D83
:100AD0003193DEF6CF010895462F4770405D419374
:100AE000B3E00FD0C9F7F6CF462F4F70405D4A33C1
:100AF00018F0495D31FD4052419302D0A9F7EACF89
:100B0000B4E0A6959795879577956795BA95C9F7B7
:100B100000976105710508959B01AC010A2E0694AA
:100B20005795479537952795BA95C9F7620F731F63
:100B3000841F951FA01D089584E991E064ED40E0B5
:100B40000E94000B82E392E00E94920D87E392E004
:100B50000E942609109285021092880210928B0240
:100B600010928E0280913E0190913F01009719F4FE
:100B700080E090E001C0049690934301809342018D
:100B800008955F926F927F928F929F92AF92BF92E1
:100B9000CF92DF92EF92FF920F931F93DF93CF9349
:100BA000CDB7DEB764970FB6F894DEBF0FBECDBFEA
:100BB00084E991E00E94100D882329F080E090E004
:100BC00060E00E9443070E947819823091F083E828
:100BD00092E060E67AEE0E94D713882309F4F7C00A
:100BE0000E94801D80E060E048E650E00E94D11B3A
:100BF000ECC089E892E068EC70E00E94D71388238B
:100C000061F084E991E00E94160A892B31F084E9B1
:100C100091E060E041E00E94F30C86E892E068EE2B
:100C200073E00E94D713882309F4D1C06090310289
:100C300090918F02992361F0862D869586958695F1
:100C4000890F969596959695891B80938F0202C081
:100C500060928F0280E060E040E820E100E00E94C6
:100C60006B1C0E94A5197B018C010E94661980FDF6
:100C700003C04DE2542E02C03AE3532E70908F020F
:100C8000C801B7010E945A194C01C801B7010E945E
:100C900060195C01C801B7010E9472196C01C8019A
:100CA000B7010E946C192DB73EB7225130400FB6E4
:100CB000F8943EBF0FBE2DBFEDB7FEB731968E0143
:100CC0000F5F1F4FADB7BEB712961C930E931197CF
:100CD00024E1E22EF12CF382E28220E031E0358340
:100CE00024837682178291868086B386A286D586F3
:100CF000C48656861786918B808B0E94EE022DB794
:100D00003EB72E5E3F4F0FB6F8943EBF0FBE2DBFCD
:100D100080E060E0A8010E94A71B8DB79EB70A97EC
:100D20000FB6F8949EBF0FBE8DBFEDB7FEB73196DC
:100D3000ADB7BEB712961C930E931197F382E28261
:100D400087E191E0958384838091310286831782C5
:100D500080913002808711860E94EE022DB73EB747
:100D6000265F3F4F0FB6F8943EBF0FBE2DBF80E009
:100D700068E0A8010E94A71B109231021092300275
:100D800080E060E14FE72FE300E00E94421DEAECC3
:100D9000F4E0DF0190E011968C9111978D939F5FA5
:100DA0009F37C9F7E158FF4F119237E0EA3CF3074C
:100DB00081F7662051F0669466946FE366198FE7B9
:100DC0004FE72FE301E00E94FB1B0E94BC1C6496CE
:100DD0000FB6F894DEBF0FBECDBFCF91DF911F914C
:100DE0000F91FF90EF90DF90CF90BF90AF909F90CA
:100DF0008F907F906F905F9008950F931F9308E2FC
:100E000013E0C80140E051EE60E070E00E9427105E
:100E1000C80169EC72E00E94321280E491E00E9405
:100E2000DC078AE10E949B1D0E94801D8FEF0E94BB
:100E3000951D85E790E00E94C41A80E060E04BEBCE
:100E400052E00E94D11B0E94BC1C83E892E068EE35
:100E500073E00E94BB131F910F9108959C01F999B3
:100E6000FECF32BD21BDF89A80B508959C01F99955
:100E7000FECF1FBA32BD21BD60BD0FB6F894FA9AFD
:100E8000F99A0FBE0895CF93DF93EC01462F009798
:100E900021F440915503C6E5D3E04423F9F03881AD
:100EA00020919202E0919002F091910290E014C0A2
:100EB000A191B19112968C911297831761F4ED91E3
:100EC000FC911197219641500280F381E02DCD01D4
:100ED000BE01099503C09F5F921750F3DF91CF9138
:100EE00008951F93182F50919202A0919002B091F3
:100EF000910220E230E090E047C0ED91FD918281C7
:100F00004381811709F03DC0C90150E026E337E075
:100F10000E94BD024091930250919402FA013297CF
:100F200020E030E06FEF7FEF21C0F999FECF205E27
:100F30003F4F32BD21BDF89A80B56827862F829534
:100F40008627082E869586958025082E86958025ED
:100F50008770062E672F869507948795702D6827D2
:100F600006948795702568272F5130402E173F072C
:100F700008F4DBCFCA014E9646E357E00E94D9023F
:100F800019C0240F311D9F5F951708F4B6CF88E272
:100F900093E069E273E00E94E71188E293E0612F39
:100FA0004AE050E00E94031388E293E06EE073E0B1
:100FB0000E9432121F9108958F929F92AF92BF921A
:100FC000DF92EF92FF920F931F93DF93CF93CDB7F2
:100FD000DEB7C054D0400FB6F894DEBF0FBECDBF11
:100FE0005C0120E0322F3F5FE22FF0E0EE0FFF1FA9
:100FF000EA0DFB1D80819181892B11F0232FF2CF07
:1010000020939202B0929102A092900288E293E023
:101010006CEB73E00E94E71188E293E0609192022A
:101020004AE050E00E94031388E293E062EB73E031
:101030000E94E7111092940210929302EE244EC087
:101040000E2D10E0F801EE0FFF1FEA0DFB1D0190C1
:10105000F081E02DF38080E48F15A8F588E293E01D
:101060000E94121288E293E06AE873E00E94E7119E
:101070000F5F1F4F88E293E0B8014AE050E00E9402
:10108000731388E293E061E773E00E94E71188E25E
:1010900093E06F2D4AE050E00E94031388E293E052
:1010A0006BE673E00E94E71188E293E060E470E091
:1010B0004AE050E00E94731388E293E065E673E033
:1010C0000E9432120AC080919302909194028F0D77
:1010D000911D9093940280939302E39480919202E5
:1010E000E81608F4ADCF60919302709194026E5FA0
:1010F0007F4F709394026093930288E293E04AE0FA
:1011000050E00E94D51288E293E06EE573E00E9401
:101110003212609193027091940220E030E04FEF20
:101120005FEF21C0F999FECF205E3F4F32BD21BD58
:10113000F89A80B54827842F82958427082E8695B3
:1011400086958025082E869580258770042E452F4C
:10115000869507948795502D4827069487955025A6
:1011600048272F5130402617370708F4DBCF452B8F
:1011700001F188E293E068E473E00E94321210E02B
:1011800013C0E12FF0E0EE0FFF1FEA0DFB1DA08161
:10119000B181ED91FC9111970190F081E02DCD018D
:1011A00060E070E009951F5F80919202181748F384
:1011B00037C088E293E069E373E00E94321290E264
:1011C000E92EF12CDD244E010894811C911C24C0D1
:1011D0000D2D10E0000F111F0A0D1B1DD801ED9100
:1011E000FC914381C401B70150E02EE237E00E9438
:1011F000A102F801A081B181ED91FC9111970190BC
:10120000F081E02DCD01B4010995D801ED91FC915B
:101210008381E80EF11CD39480919202D816C0F21B
:10122000C05CDF4F0FB6F894DEBF0FBECDBFCF91CD
:10123000DF911F910F91FF90EF90DF90BF90AF90E3
:101240009F908F900895089508950895FC0113824A
:10125000128282E591E0918380830E969583848348
:10126000E55BFF4F1082EB54F04082E0868381E023
:10127000878380E081608087089504970E944109F8
:101280000895CF93DF93EC01FB01BC01685F7F4FB2
:10129000309719F08081888706C080E08560888754
:1012A00082E00E94710788E293E063EE73E00E949F
:1012B000E711888580FF06C088E293E06BED73E05C
:1012C0000E94E711888581FF06C088E293E066ED01
:1012D00073E00E94E711888582FF06C088E293E0F0
:1012E00060ED73E00E94E711888583FF06C088E205
:1012F00093E06BEC73E00E94E711888584FF06C0E1
:1013000088E293E065EC73E00E94E71188E293E0E5
:101310000E941212DF91CF9108950F931F93CF93E4
:10132000DF93EC018C01055B1F4FD8018C91FE010E
:10133000E80FF11D1186888580FF16C0BE01675F2A
:101340007F4F88E293E00E94A513F80180818823F3
:1013500059F0FE01E80FF11D80858A3029F488E2FA
:1013600093E06DE00E940A12888582FF22C080917E
:1013700096028130F1F084E991E00E94160A00970C
:10138000C1F0FC0182E081938E01055B1F4FD80103
:101390004C919E01275F3F4FCF01B90150E00E9461
:1013A0009802F80160816F5F84E991E041E00E945A
:1013B000F30C888583FF0EC0E881F981BE01675F69
:1013C0007F4FDE01A55BBF4F0480F581E02DCE018C
:1013D0004C910995C55BDF4F1882DF91CF911F912A
:1013E0000F9108951F93CF93DF93EC01162FC55BE8
:1013F000DF4F8881CB54D040813418F0CE010E9459
:101400008D09DE01A55BBF4F8C91FE01E80FF11D38
:1014100011878F5F8C931A3019F4CE010E948D09C9
:1014200081E090E0DF91CF911F910895FC018091C0
:1014300095028823A1F0809196028E3181F0E457C5
:10144000FF4F9081EC58F040923048F484E4989F2C
:10145000900111242A5F3F4F2E0F3F1F02C020E052
:1014600030E0C9010895EF92FF920F931F938C0112
:101470006093960288E293E06BE174E00E94E711CA
:1014800088E293E0609196024AE050E00E940313E4
:1014900088E293E060E174E00E94E7118AE9E82EB7
:1014A000F12CE00EF11E88E293E0F70160814AE042
:1014B00050E00E94031388E293E067E074E00E942A
:1014C000E7110C561F4FF8016081718188E293E0AB
:1014D00040E150E00E94E6128091960263E0F7013D
:1014E00040810E94FE17095F1F4FF8018081882309
:1014F00071F088E293E068EF73E00E94321287E5B2
:1015000098E90E94291482EB94E90E94291488E248
:1015100093E06FEE73E00E94321281E196EC0E943C
:10152000291481EC94E90E94291480E298E90E9430
:10153000291483E00E94CE0D85E060E00E940A0F2E
:101540001F910F91FF90EF9008950F931F93DF93DA
:10155000CF9300D000D0CDB7DEB78C01FB01443073
:1015600009F045C00C561F4F20813181D8018D9163
:101570009C910459104028173907C9F583818823A5
:1015800019F0813031F403C01092950202C08093AB
:101590009502928180919602891749F18281809308
:1015A000960288E293E069E374E00E94E71188E222
:1015B00093E0609196024AE050E00E941513C80142
:1015C000609196020E94330A8091960289838091ED
:1015D00095028A830C561F4FF801808191819C836C
:1015E0008B8381E0BE016F5F7F4F0E9471070F9078
:1015F0000F900F900F90CF91DF911F910F91089551
:10160000CF93DF93EC0188E691E099838883C656F7
:10161000DF4F69934883CB59D0400E949B0EFE0157
:10162000EA56FF4F6083718382839383611571054E
:101630008105910541F481E090E0A0E0B0E0808375
:101640009183A283B38381E08A8384E08B83DF91DB
:10165000CF9108950F931F93DF93CF9300D00F92F4
:10166000CDB7DEB78C010E944215882309F448C02B
:10167000FE01319683E0DF011D928A95E9F781E052
:1016800089830C561F4FD8018D919C9104591040AD
:101690009B838A8380919602BF0143E00E94421798
:1016A0000E949B0E9B01AC01809196028E3129F025
:1016B00060E27EE480E090E004C064EF71E080E0EE
:1016C00090E0DC01CB01820F931FA41FB51FF8012E
:1016D000EA56FF4F80839183A283B3830097A105CD
:1016E000B10541F481E090E0A0E0B0E08083918317
:1016F000A283B38388E293E063E574E00E94321230
:101700000F900F900F90CF91DF911F910F9108953F
:10171000CF92DF92EF92FF920F931F93DF93CF93BD
:10172000CDB7DEB77C01CDB6DEB6FB018B0161150E
:10173000710509F180818E31F1F088E293E060E378
:1017400074E00E94E71188E293E0F80160814AE0CA
:1017500050E00E94031388E293E069E271E00E9486
:10176000A513F801618188E293E070E04AE050E05F
:101770000E94861319C000D000D00DB71EB70F5FAE
:101780001F4F8EE1EDB7FEB78183F80111820E94F1
:10179000A90E2AEA35E526273727F8013383228365
:1017A00081E0B8010E947107F801608160939602A0
:1017B00081818093950284E990E0E80EF91E828190
:1017C0009381F701918380838CE69FEFE80EF91EE9
:1017D000C7010E94330AC7010E942A0B0FB6F89472
:1017E000DEBE0FBECDBECF91DF911F910F91FF9056
:1017F000EF90DF90CF9008951F93CF93DF93EC018C
:10180000C457DF4F8881CC58D0408823E1F11C8138
:10181000C357DF4F8881CD58D04090E007970CF038
:101820001F7DBE016A5F7F4F812F4D810E9442174D
:1018300015FD1BC0C457DF4F8881CC58D040823083
:1018400050F0DE011496FE01E85BFF4F84E4019046
:101850000D928150E1F7FE01E457FF4F80818150E6
:101860008083C357DF4F18820EC0FE01E357FF4F3E
:1018700080818F5F80830E949B0EC257DF4F6883F9
:1018800079838A839B83DF91CF911F910895EF9293
:10189000FF920F931F93CF93DF93EC0126E9E22E83
:1018A000F12CE80EF91EF70180819181A281B381AC
:1018B0000097A105B10509F448C00E949B0EF701ED
:1018C0002081318142815381621773078407950714
:1018D000E0F1809196028130C1F1CE010E942A0B85
:1018E00044C00E9442158823C9F18E010D561F4F36
:1018F000F7018081B80141E00E944217F701108290
:10190000F801108232C0C357DF4F8881CD58D040D4
:10191000882399F00E949B0EC257DF4F288139819E
:101920004A815B81CE58D0402C593F4F4F4F5F4F7B
:101930006217730784079507C0F00E944215882339
:10194000A1F0CE010E94FC0B10C092E9E92EF12C0F
:10195000EC0EFD1EF7018081882319F6C457DF4F76
:101960008881CC58D040882371F6DF91CF911F91A8
:101970000F91FF90EF900895CF93DF93EC01DC017E
:10198000A457BF4F2C91223058F530E084E490E00A
:10199000289FF001299FF00D389FF00D1124EC0FC6
:1019A000FD1F65838C9190E0FC0164E0EE0FFF1F4A
:1019B0006A95E1F7E80FF91F3196EE0FFF1FEE0F62
:1019C000FF1FEC0FFD1F40838C918F5F8C93813044
:1019D00039F40E944215882319F0CE010E94FC0BB5
:1019E000DF91CF9108959C01411140E280919602D0
:1019F000482BC9010E94BC0C08950F931F938C01C2
:101A000085E00E94D10D03561F4F8C529140959551
:101A1000879595958795F80180831F910F9108957B
:101A2000CF93DF93EC010E944514882309F473C01F
:101A30008091510390915203892B09F068C08091E5
:101A4000540387FD1DC0CE010E94FD0C80915403FC
:101A500085FF13C0909154039F718091960298174F
:101A600011F4892F02C0892F8064CE56DF4F806821
:101A700088832B9688812A978883809156034FC04C
:101A80008091540385FD47C0CE010E94FD0C20913A
:101A9000540330E02F7130708091960290E0281747
:101AA0003907C9F5C457DF4F8881CC58D040882307
:101AB00091F1C357DF4F8881CD58D040882359F129
:101AC00080915503813011F080E002C0809156036F
:101AD000C456DF4F888360978881CC58D0408230CD
:101AE00050F0DE011496FE01E85BFF4F84E40190A4
:101AF0000D928150E1F7FE01E457FF4F8081815044
:101B00008083C357DF4F1882CD58D04004C08091E6
:101B1000510390915203CE010E94470C80E0DF9167
:101B2000CF910895FC0180E791E091838083148236
:101B300083E0828381E083830895FC01DB016115EA
:101B4000710519F08C91848305C0349683E0BF0140
:101B50000E94710788E293E06BE271E00E94A81393
:101B600008951F93CF93DF93EB01443098F00E94C8
:101B70007819182F688179818A819B810E947B194D
:101B8000112341F480913E0190913F016DE674E094
:101B90000E943212DF91CF911F91089580934801E6
:101BA0000895982F8E3008F09E50977080914801CC
:101BB0008295880F880F807C892B80937C00809190
:101BC0007A00806480937A0080917A0086FDFCCF51
:101BD0002091780040917900942F80E030E0282B0C
:101BE000392BC90108951F93CF93DF93182FEB0171
:101BF00061E00E940A0F209709F44AC0CF3FD10547
:101C000009F449C0E12FF0E0EC53FB4F849183309D
:101C1000C1F0843028F4813051F08230B1F50CC02D
:101C2000863019F1873049F1843079F514C084B5D4
:101C3000806884BDC7BD33C084B5806284BDC8BD23
:101C40002EC080918000806880938000D0938900AE
:101C5000C093880024C080918000806280938000BF
:101C6000D0938B00C0938A001AC08091B000806826
:101C70008093B000C093B30012C08091B000806226
:101C80008093B000C093B4000AC0C038D1051CF4E2
:101C9000812F60E002C0812F61E00E94490FDF9137
:101CA000CF911F9108951F920F920FB60F9211249A
:101CB0002F933F938F939F93AF93BF9380919B02FA
:101CC00090919C02A0919D02B0919E0230919F0242
:101CD0000196A11DB11D232F2D5F2D3720F02D570B
:101CE0000196A11DB11D20939F0280939B029093AA
:101CF0009C02A0939D02B0939E02809197029091C6
:101D00009802A0919902B0919A020196A11DB11D6D
:101D10008093970290939802A0939902B0939A02AD
:101D2000BF91AF919F918F913F912F910F900FBED7
:101D30000F901F9018958FB7F89420919B023091C7
:101D40009C0240919D0250919E028FBFB901CA0131
:101D500008959FB7F894209197023091980240918E
:101D6000990250919A0286B5A89B06C08F3F21F038
:101D70002F5F3F4F4F4F5F4F9FBF542F432F322F47
:101D80002227280F311D411D511D82E0220F331FD4
:101D9000441F551F8A95D1F7B901CA010895789457
:101DA00084B5826084BD84B5816084BD85B5826060
:101DB00085BD85B5816085BDEEE6F0E080818160FE
:101DC0008083E1E8F0E010828081826080838081FE
:101DD00081608083E0E8F0E0808181608083E1EBD6
:101DE000F0E0808184608083E0EBF0E080818160BE
:101DF0008083EAE7F0E08081846080838081826074
:101E0000808380818160808380818068808310925C
:101E1000C1000895CF93DF93482F50E0CA01805549
:101E20009B4FFC01349144565B4FFA018491882307
:101E300069F190E0880F991FFC01E258FB4FA591D2
:101E4000B491FC01E857FB4FC591D491662351F43E
:101E50002FB7F8948C91932F909589238C93888138
:101E600089230BC0623061F42FB7F8948C91932FC3
:101E7000909589238C938881832B88832FBF06C0FC
:101E80009FB7F8948C91832B8C939FBFDF91CF9158
:101E90000895482F50E0CA018C539B4FFC012491B8
:101EA000CA0180559B4FFC01949144565B4FFA0147
:101EB0003491332309F440C0222351F1233071F0CF
:101EC000243028F42130A1F0223011F514C026303E
:101ED000B1F02730C1F02430D9F404C080918000E3
:101EE0008F7703C0809180008F7D8093800010C029
:101EF00084B58F7702C084B58F7D84BD09C0809181
:101F0000B0008F7703C08091B0008F7D8093B000C8
:101F1000E32FF0E0EE0FFF1FE857FB4FA591B491C0
:101F20002FB7F894662321F48C919095892302C0F1
:101F30008C91892B8C932FBF089508951F920F9237
:101F40000FB60F9211242F933F934F938F939F932C
:101F5000EF93FF938091C00082FD1DC04091C600A9
:101F60002091E0023091E1022F5F3F4F2F733070DC
:101F70008091E2029091E3022817390771F0E09115
:101F8000E002F091E102E056FD4F40833093E10220
:101F90002093E00202C08091C600FF91EF919F91D3
:101FA0008F914F913F912F910F900FBE0F901F90E7
:101FB0001895E0913403F0913503E05CFF4F819177
:101FC000919120813181821B930B8F739070892BAB
:101FD00011F00E949D0F08951F920F920FB60F925D
:101FE00011242F933F938F939F93EF93FF9320910F
:101FF000240330912503809126039091270328170D
:10200000390731F48091C1008F7D8093C10014C0E5
:10201000E0912603F0912703EC51FD4F2081809140
:1020200026039091270301968F7390709093270356
:10203000809326032093C600FF91EF919F918F918B
:102040003F912F910F900FBE0F901F901895AF9258
:10205000BF92DF92EF92FF920F931F93CF93DF9384
:10206000EC017A018B01DD24403081EE580780E0DD
:10207000680780E0780711F0DD24D39491E0A92E61
:10208000B12CEC89FD89DD2069F0C50108A002C0F2
:10209000880F991F0A94E2F7808360E079E08DE36E
:1020A00090E005C0108260E874E88EE190E0A8013D
:1020B00097010E94C11E215030404040504056952B
:1020C00047953795279580E12030380720F0DD20AF
:1020D00011F0DD24D6CFE889F9893083EA89FB89BC
:1020E000208319A2EE89FF89408121E030E0C901F7
:1020F0000C8C02C0880F991F0A94E2F7482B40838A
:10210000EE89FF894081C9010D8C02C0880F991F9B
:102110000A94E2F7482B4083EE89FF894081C90188
:102120000E8C02C0880F991F0A94E2F7482B408357
:10213000EE89FF8980810F8C02C0220F331F0A9421
:10214000E2F7209528232083DF91CF911F910F91F3
:10215000FF90EF90DF90BF90AF900895DC011C9648
:10216000ED91FC911D97E05CFF4F219131918081B1
:102170009181281B390B2F733070C9010895DC0140
:102180001C96ED91FC911D97E05CFF4F2081318101
:10219000E054F040DF01AE5BBF4F8D919C911197F1
:1021A0002817390719F42FEF3FEF07C08D919C9145
:1021B000E80FF91F8081282F30E0C9010895DC0164
:1021C0001C96ED91FC911D97E05CFF4F20813181C1
:1021D000E054F040DF01AE5BBF4F8D919C911197B1
:1021E0002817390719F42FEF3FEF10C08D919C91FC
:1021F0001197E80FF91F20818D919C9111970196FD
:102200008F73907011969C938E9330E0C90108955E
:10221000DC0191968C919197882339F05496ED9139
:10222000FC915597808186FFF9CF91961C92089575
:10223000CF93DF93EC01EE85FF85E05CFF4F2081BB
:102240003181E054F0402F5F3F4F2F733070DF013A
:10225000AE5BBF4F8D919C91119728173907D1F331
:10226000E05CFF4F80819181E054F040E80FF91F5E
:102270006083EE85FF85E05CFF4F31832083EE892C
:10228000FF89208181E090E00F8C02C0880F991FA8
:102290000A94E2F7282B208381E089A3EC89FD8949
:1022A00080818064808381E090E0DF91CF91089508
:1022B00010922B0310922A0388EE93E0A0E0B0E086
:1022C00080932C0390932D03A0932E03B0932F03A0
:1022D00088E791E0909329038093280380EA92E0B5
:1022E000909335038093340384EE92E09093370308
:1022F0008093360385EC90E0909339038093380304
:1023000084EC90E090933B0380933A0380EC90E060
:1023100090933D0380933C0381EC90E090933F03C6
:1023200080933E0382EC90E09093410380934003BE
:1023300086EC90E0909343038093420384E0809383
:10234000440383E08093450387E08093460385E060
:102350008093470381E0809348030895CF93DF93F0
:102360000E94CF0E0E94FD06C9EDDFE00E94C1056C
:102370002097E1F30E94D90FF9CFCF92DF92EF922D
:10238000FF920F931F93CF93DF937C016B018A0120
:10239000C0E0D0E00FC0D6016D916D01D701ED9185
:1023A000FC910190F081E02DC7010995C80FD91F5C
:1023B000015010400115110571F7CE01DF91CF9149
:1023C0001F910F91FF90EF90DF90CF900895EF92C3
:1023D000FF920F931F93CF93DF937C018B01C0E09B
:1023E000D0E0F8010F5F1F4F6491662359F0D701C9
:1023F000ED91FC910190F081E02DC7010995C80F86
:10240000D91FEFCFCE01DF91CF911F910F91FF9098
:10241000EF900895DC01ED91FC910190F081E02DA9
:1024200009950895EF92FF920F931F938C01DC01A1
:10243000ED91FC910190F081E02D6DE009957C011A
:10244000D801ED91FC910190F081E02DC8016AE086
:1024500009959C012E0D3F1DC9011F910F91FF9001
:10246000EF900895EF92FF920F931F937C010E94CB
:10247000E7118C01C7010E9412129C01200F311F2D
:10248000C9011F910F91FF90EF900895CF93DF93B3
:10249000EC016115710519F420E030E00FC0DB019B
:1024A0000D900020E9F71197A61BB70BE881F98181
:1024B0000280F381E02DAD0109959C01C901DF91F6
:1024C000CF9108954F925F927F928F929F92AF9299
:1024D000BF92CF92DF92EF92FF920F931F93DF9301
:1024E000CF93CDB7DEB7A1970FB6F894DEBF0FBE7E
:1024F000CDBF2C01742ECB01223008F42AE019A2A2
:1025000031E2C32ED12CCC0EDD1E822E9924AA24BA
:10251000BB24672D752FA50194010E94C11E79016E
:102520008A01C801B701A50194010E947B1E472DB5
:10253000461B0894C108D1084A3010F4405D01C020
:10254000495CF6014083E114F1040105110521F015
:102550007E2C5F2DC801DDCFC201B6010E9446125C
:10256000A1960FB6F894DEBF0FBECDBFCF91DF911D
:102570001F910F91FF90EF90DF90CF90BF90AF90A1
:102580009F908F907F905F904F900895DC01211570
:10259000310541F4ED91FC910190F081E02D642F23
:1025A000099508950E9462120895EF92FF920F9389
:1025B0001F939A017B0100E010E0B801A7010E947F
:1025C000C6121F910F91FF90EF900895CF92DF9266
:1025D000EF92FF920F931F936C017B019A0100E031
:1025E00010E0B801A7010E94C6128C01C6010E942A
:1025F0001212080F191FC8011F910F91FF90EF9041
:10260000DF90CF900895EF92FF920F931F939A015E
:10261000E62EFF2400E010E0B801A7010E94C612D8
:102620001F910F91FF90EF900895CF92DF92EF925C
:10263000FF920F931F936C01E62E9A01FF2400E096
:1026400010E0B801A7010E94C6128C01C6010E94C9
:102650001212080F191FC8011F910F91FF90EF90E0
:10266000DF90CF900895CF92DF92EF92FF920F9379
:102670001F93CF93DF93EC016A017B012115310594
:1026800041F4E881F9810190F081E02D642F0995F2
:102690001FC02A303105D1F477FF17C0E881F981D6
:1026A0000190F081E02D6DE209958C0144275527BA
:1026B000BA014C195D096E097F09CE012AE00E941A
:1026C00062129801280F391F04C02AE00E9462128A
:1026D0009C01C901DF91CF911F910F91FF90EF9065
:1026E000DF90CF900895EF92FF920F931F937B019D
:1026F0009A010027F7FC0095102FB801A7010E944E
:1027000033131F910F91FF90EF900895CF92DF92B6
:10271000EF92FF920F931F936C017B019A010027A8
:10272000F7FC0095102FB801A7010E9433138C010C
:10273000C6010E941212080F191FC8011F910F91A4
:10274000FF90EF90DF90CF9008950E944612089579
:10275000EF92FF920F931F937C010E9446128C010F
:10276000C7010E941212080F191FC8011F910F9173
:10277000FF90EF9008950F931F93CF93DF938C01F9
:10278000EB0180E06115710509F081E0F8018283B9
:10279000882341F00E949B0E2197C60FD71FF80196
:1027A000D183C083DF91CF911F910F910895EF9254
:1027B000FF920F931F93CF93DF93EC017B018A81EC
:1027C000882311F400E00FC0088119810E949B0E3C
:1027D000C801861B970B2AEE8136920710F400E0A1
:1027E00006C0082F0195CE01B7010E94BB13802FB0
:1027F000DF91CF911F910F91FF90EF900895782F67
:10280000E89865B121E030E040E050E000904901F7
:1028100004C0220F331F441F551F0A94D2F7322FD2
:10282000822F8095862385B99EBD0DB407FEFDCF0E
:102830004EB57EBD0DB407FEFDCF2EB5942F80E0C2
:1028400045B1342B35B9E89A30E0282B392BC90132
:1028500008950E94FF13089580914A0390914B03BD
:102860008F7090934B0380934A0380914A03909119
:102870004B03886090934B0380934A0380914A03F3
:1028800090914B030E94FF1308958091A10387301C
:1028900009F059C09091A503992399F08091A40360
:1028A000891728F48091A403873408F44CC084E08D
:1028B0008093A10381E090E09093520380935103B1
:1028C0009AC0809155032091A40390E0049630E0D3
:1028D0008217930724F08091A4038734A0F184E049
:1028E0008093A10380915503833430F081E090E020
:1028F00090935203809351038091540386FF12C03A
:102900008091A003282F30E0C9018F7190704F97FC
:1029100049F08091540390E0822793278F71907043
:10292000892B89F48091510390915203892B09F0EE
:1029300056C0E0919E03F0919F03309709F44FC079
:1029400080E0099558C08091A103843011F080E0A7
:10295000089510925503809155038093A4038FEF3F
:102960009FEF90935203809351032091A20322235F
:10297000D9F08227282F22952827022E26952695E2
:102980002025022E269520252770082E892F269592
:1029900007942795902D82270694279590258227C6
:1029A000909352038093510387E08093A10381E0C9
:1029B00080934F0383EA94E90E94FF1380914A03B6
:1029C00090914B03886D90934B0380934A038091C1
:1029D0004A0390914B030E94FF1380E008958FEF0C
:1029E0009FEFAFEFBFEF80939A0390939B03A09369
:1029F0009C03B0939D0381E008950F931F93082FCC
:102A000010E0C801966C0E94FF1398012F77307078
:102A10002F5F3F4F442737FD4095542F6BEF72E4F3
:102A200085E090E00E94C11ECA01B901000F012F8C
:102A3000001F110B980143E0220F331F4A95E1F765
:102A4000201B310B2F5F3F4F442737FD4095542FFC
:102A50000E94C11E93E056954795379527959A9504
:102A6000D1F72D573C4F4F4F5F4FCA01B90124E8B2
:102A700033E040E050E00E94C11E209350031F91BC
:102A80000F9108958091A103843069F08091A10392
:102A9000873059F48091A403882339F40E942C14C0
:102AA00084E08093A10381E0089580E00895982F49
:102AB00086FD05C0907E8091A0038F71980F909342
:102AC0005403E0919E03F0919F03309711F081E051
:102AD00009958FEF9FEF909352038093510380915C
:102AE0005103909152032091A2038227282F22950F
:102AF0002827022E269526952025022E269520256C
:102B00002770082E892F269507942795902D8227C8
:102B10000694279590258227909352038093510322
:102B200088E08093A10380914A0390914B038863CE
:102B300090934B0380934A0380914A0390914B03F7
:102B40000E94FF130895DF92EF92FF920F931F935D
:102B50007B018C01DD2405C0D39416950795F7946D
:102B6000E7948FEFE816F1040105110509F0A0F7CD
:102B700080914A0390914B0381FF0FC080914A03DB
:102B800090914B038D7F90934B0380934A038091E8
:102B90004A0390914B030E94FF13E114F1040105D5
:102BA0001105B9F0C701906E3D2D20E0822B932BCB
:102BB0000E94FF1380914A0390914B03826090938F
:102BC0004B0380934A0380914A0390914B030E94E8
:102BD000FF131F910F91FF90EF90DF900895E898F9
:102BE00085B121E030E040E050E00090490104C0B0
:102BF000220F331F441F551F0A94D2F7322F922FF2
:102C00009095982395B91EBC0DB407FEFDCF6EB507
:102C10001EBC0DB407FEFDCF2EB5962F80E0622FAF
:102C200070E0682B792B77FF0FC08091A10387306C
:102C300059F48CB581608CBD1EBC0DB407FEFDCF70
:102C40002EB58CB58E7F8CBD85B1382B35B9E89A01
:102C500070934D0360934C0380914C0390914D030E
:102C600097FFECC08091A103873009F082C080916A
:102C7000A403882371F49091A203992351F08091C9
:102C8000A403E82FF0E0ED5AFC4F90838F5F809310
:102C9000A4038091A403E82FF0E0ED5AFC4F2083B9
:102CA0008F5F8093A40380915103909152038227F8
:102CB000282F22952827022E269526952025022E9C
:102CC000269520252770082E892F2695079427956D
:102CD000902D822706942795902582279093520362
:102CE0008093510320914F03233040F58091A4033A
:102CF00090E060915003029770E00E94AE1E892B15
:102D0000E9F480914C0390914D03E22FF0E090FFA5
:102D100004C0EC57FE4F808104C0EC57FE4F808109
:102D200082958F7080934F03833040F490E0880F3A
:102D3000991F0196806A94690E94FF139091A503E0
:102D4000992329F08091A403891780F40AC0809107
:102D500055032091A40390E0049630E08217930776
:102D60002CF08091A403873408F468C00E942C14CE
:102D700065C08091A10387FF2EC0E091550380912B
:102D8000A1038F5F8093A1038150ED5FE80FF0E016
:102D9000ED5AFC4FE08180915103909152038E27B0
:102DA000282F22952827022E269526952025022EAB
:102DB000269520252770082E892F2695079427957C
:102DC000902D822706942795902582279093520371
:102DD000809351032EC08091A1038F5F8093A10344
:102DE0008150833019F184302CF4882399F081309C
:102DF000F9F416C08B3019F08C30D1F402C0EDE23A
:102E000018C0E091A203909155038EEF891B809327
:102E1000A1030FC08091510390915203E82F09C084
:102E20008091510390915203E92F03C00E942C140A
:102E3000EAEA8E2F90E0986B0E94FF1380914C037A
:102E400090914D0396FF03C086E08093A10380918B
:102E50004C0390914D0394FF09C060E070E080E066
:102E600090E00E94A31581E080934E0380914C0373
:102E700090914D0395FF05C00E942C1484E080932F
:102E8000A10308951F93182F4093550326E533E0BF
:102E9000C90150E00E949802812F0E9457151F918E
:102EA00008958091A00390E08F719070892B41F07C
:102EB00080E06FEE75E140E050E00E94EB1D089568
:102EC00080E00E940E1E08951F938093A0034093FC
:102ED000A2036093A3030E9451171092A503E898E0
:102EE00085E092E890934B0380934A0380914A03D4
:102EF00090914B030E94FF138091A30390E074E034
:102F0000880F991F7A95E1F7876C90680E94FF13EC
:102F100080E496EA0E94FF1386E00E94FD1482EA94
:102F200094E90E94FF138CEA92EC0E94FF13109127
:102F3000A203112341F083E89AEC0E94FF13812F32
:102F400090E09E6C06C08BE89AEC0E94FF138DE225
:102F50009EEC0E94FF1383E894EC0E94FF1380E52F
:102F600098E90E94FF1387E79CEC0E94FF1380E022
:102F700090EE0E94FF1380E098EC0E94FF1389E41A
:102F800090EC0E94FF1384E08093A103E89A1F91C4
:102F9000089525B181E090E0A0E0B0E00090490103
:102FA00004C0880F991FAA1FBB1F0A94D2F7282BB1
:102FB00025B924B1822B84B98AE061E00E94490FCF
:102FC0008AE061E00E940A0F8BE061E00E940A0F34
:102FD0008CE060E00E940A0F8DE061E00E940A0F21
:102FE00080E58CBD8DB581608DBD82E060E00E9482
:102FF0000A0F82E061E00E94490F0895FF920F934B
:103000001F93182F062FF42E8093A0034093A20342
:103010006093A3030E94C9170E94511782E89AEC9B
:103020000E94FF1380E09EEF0E94FF1385E08093D3
:10303000A10383B7817F06C083B7816083BF889572
:1030400083B78E7F83BF8091A1038530A9F3812F41
:10305000602F4F2D0E9464178091A0031F910F9144
:10306000FF9008958F929F92AF92BF92CF92DF927E
:10307000EF92FF920F931F93CF93DF937B018C010D
:10308000EA012CE330E040E050E00E94C11E68837A
:10309000C801B7012CE330E040E050E00E94C11EBF
:1030A000122F032FF42EE52E622F732F842F952FCE
:1030B0002CE330E040E050E00E94C11E6983612FA4
:1030C000702F8F2D9E2D2CE330E040E050E00E94C9
:1030D000C11E122F032FF42EE52E622F732F842F83
:1030E000952F28E130E040E050E00E94C11E6A8345
:1030F000612F702F8F2D9E2D28E130E040E050E0B1
:103100000E94C11E79018A01C801B7016C5F7F4F1F
:103110008F4F9F4F27E030E040E050E00E94C11EFB
:103120006F5F6B8320E0AA24BB24650101C02F5F81
:10313000822E9924F401EE54F84FCF0183709070E1
:10314000892B99F4CF0164E670E00E94AE1E892BB2
:1031500039F4CF0160E971E00E94AE1E892B29F499
:103160008EE691E0A0E0B0E004C08DE691E0A0E042
:10317000B0E0A80EB91ECA1EDB1EC501A0E0B0E07B
:10318000E816F9060A071B0790F62E83F401EE54A1
:10319000F84F83E0882E912C8E229F228114910477
:1031A00099F4CF0164E670E00E94AE1E892B39F4D9
:1031B000CF0160E971E00E94AE1E892B29F48EE6F2
:1031C00091E0A0E0B0E004C08DE691E0A0E0B0E0C6
:1031D000A81AB90ACA0ADB0A980187010A191B0949
:1031E0002C093D09CF0164E670E00E94AE1E7C010F
:1031F000CF0160E971E00E94AE1EAC01E7E8F1E0AA
:1032000060E0613051F48114910449F4E114F10457
:1032100041F44115510529F002C0808103C08CE1C1
:1032200001C08DE190E0A0E0B0E0081719072A077F
:103230003B0740F0081B190B2A0B3B0B6F5F3196C5
:103240006C30F9F66F5F6D83802F8F5F8C83DF9119
:10325000CF911F910F91FF90EF90DF90CF90BF9093
:10326000AF909F908F900895EF92FF920F931F93CE
:103270007B018C018091BC039091BD03A091BE03A2
:10328000B091BF03E816F9060A071B0771F0C801E1
:10329000B70141EB53E00E943218E092BC03F09278
:1032A000BD030093BE031093BF031F910F91FF90C6
:1032B000EF9008950E9434198091B60390E008952C
:1032C0000E9434198091B50390E008950E9434194A
:1032D0008091B10390E008950E9434198091B20367
:1032E00090E008950E9434198091B30390E008950E
:1032F0008091B00308956093A8037093A90380930D
:10330000AA039093AB0320914A0130914B01409165
:103310004C0150914D01260F371F481F591F209314
:10332000AC033093AD034093AE035093AF0382E000
:103330008093B0030E949B0E6093B8037093B9030F
:103340008093BA039093BB030895EF92FF920F937B
:103350001F931CC02F5F3F4F4F4F5F4F2093A80319
:103360003093A9034093AA035093AB0388EE93E0F4
:10337000A0E0B0E0E80EF91E0A1F1B1FE092B803A0
:10338000F092B9030093BA031093BB030E949B0E03
:10339000E090B803F090B9030091BA031091BB0319
:1033A0006E197F09800B910B2091A8033091A9031E
:1033B0004091AA035091AB03685E734080409040F7
:1033C00048F68091AC039091AD03A091AE03B0910B
:1033D000AF03281739074A075B07B0F0E091A6034F
:1033E000F091A703309781F009956115710581056A
:1033F000910519F00E947B1907C090E08091B003FD
:10340000811191E09093B0036091A8037091A9039A
:103410008091AA039091AB031F910F91FF90EF90C1
:103420000895439840E820E030E0682F70E0842F52
:1034300090E086239723892B11F0409A01C0409891
:103440005C9A5C9A5C985C9846952F5F3F4F283059
:10345000310569F70895582F87FD56C0603408F08C
:1034600053C0E62FE695E695E69590E0262F30E0EE
:103470004423C9F0F0E0F695FE2FEE27F795E79587
:10348000E80FF91FE653FC4F2095309527703070F8
:1034900081E090E002C0880F991F2A95E2F7208111
:1034A000282B208319C0F0E0F695FE2FEE27F79524
:1034B000E795E80FF91FE653FC4F209530952770EC
:1034C000307081E090E002C0880F991F2A95E2F7E2
:1034D00080952081822380838091CA07581710F439
:1034E0005093CA078091CC07851710F45093CC07EE
:1034F0008091CB07681710F46093CB078091CD07BC
:10350000861710F46093CD07089587FD3CC06034A2
:10351000D0F5E62FE695E695E69590E070E0442339
:10352000C9F0F0E0F695FE2FEE27F795E795E80F46
:10353000F91FE653FC4F609570956770707081E0DD
:1035400090E002C0880F991F6A95E2F72081282B2E
:1035500020830895F0E0F695FE2FEE27F795E79586
:10356000E80FF91FE653FC4F609570956770707017
:1035700081E090E002C0880F991F6A95E2F780957C
:103580002081822380830895FC01019654915093F9
:10359000C0039C012F5F3F4FFC0144914093C10346
:1035A0003093C5032093C403459FF0011124E20F1B
:1035B000F31FCF010196E491E093C2039C012F5FBA
:1035C0003F4FFC0194919093C3033093C703209322
:1035D000C603F9018491882361F4892F90E0880F54
:1035E000991F0196280F391F3093C9032093C803F0
:1035F00004C01092C9031092C803842F08957F92CB
:103600008F929F92AF92BF92CF92DF92EF92FF92F2
:103610000F931F93CF93DF93582F762EE42F409173
:10362000C203E41708F484C0E41B4E2F8091C30347
:10363000E81708F07DC06091C6037091C703FB01D5
:1036400094916F5F7F4FFB012491615070409923EB
:1036500021F52091C8033091C903A0E0B0E080E0DB
:10366000F901E80FF11DE491E41720F4A050BF4FD9
:103670008F5FF6CFE42FF0E0EE0FFF1FE60FF71F8E
:10368000CF0101964491FC0124910196FC01E49044
:103690004D01840E911CE41A04C0949F4001112432
:1036A000E92EB22E7CEFC72EC50E822F8F70C80E6A
:1036B0002091C4033091C503C9018C01DD2428C0C9
:1036C000FE0163E0F695E7956A95E1F7E00FF11FDB
:1036D000E4918E2F90E0A0E0B0E09E012770307062
:1036E00004C0B695A795979587952A95D2F780FF40
:1036F00006C08F2D8C0D6A2D41E00E942B1AF39489
:103700002196FE14E8F28091C103080F111DD39495
:103710008091C003D81628F4E401FF24AD2CA70C37
:10372000F0CFFCEFEF0E8B2D82958F708E0D01C0C8
:1037300080E0DF91CF911F910F91FF90EF90DF908C
:10374000CF90BF90AF909F908F907F9008950F93F0
:103750001F93CF93DF93182F062FEA0119C0812FF3
:10376000602F0E94FF1A180F90E0810F911D803882
:1037700091056CF02091C003822F90E0800F911D85
:103780008034910514F010E006C0020F10E021967D
:103790004881442321F7812FDF91CF911F910F9111
:1037A00008950F931F93CF93DF93182F062FEA01ED
:1037B000FE01219644914423C1F0812F602F0E9485
:1037C000FF1A180F90E0810F911D8038910584F346
:1037D0002091C003822F90E0800F911D80349105CD
:1037E0001CF4020F10E0E4CF10E0812FDF91CF91A5
:1037F0001F910F910895DF92EF92FF920F931F9305
:10380000182FE62EF42ED02E8091CC07811710F4BD
:103810001093CC078091CA07181710F41093CA07A9
:103820008091CC078F1510F4F092CC078091CA07D5
:10383000F81610F4F092CA078091CD078E1510F497
:10384000E092CD078091CB07E81610F4E092CB0709
:103850008091CD07821710F42093CD078091CB077C
:10386000281710F42093CB0700E0422F50E04E19A8
:10387000510957FF03C0509541955F4F8F2D90E040
:10388000811B910997FF03C0909581959F4F8417E5
:1038900095073CF401E08E2DE12E182F822F2F2D5D
:1038A000F82EF11680F4E22E8F2DF12E182F0BC07A
:1038B000002319F08E2D612F02C0812F6E2D4D2D0A
:1038C0000E94851A1F5FF11698F71F910F91FF90C4
:1038D000EF90DF900895CF92DF92EF92FF920F93D7
:1038E0001F93CF93DF93982FD62EC02E9150392F50
:1038F000340F9F5FDA945D2D520FD3948091CA07E5
:10390000981710F49093CA078091CB07D81610F43B
:10391000D092CB078091CC07831710F43093CC075B
:103920008091CD07851710F45093CD07092FE92E0C
:10393000FF24E40EF11CCD2DD0E0C20FD11D0CC030
:10394000802F612F4C2D0E94851A1F5F812F90E0E0
:103950008C179D07ACF30F5F802F90E08E159F05AD
:1039600014F41D2DF3CFDF91CF911F910F91FF9094
:10397000EF90DF90CF900895AF92BF92CF92DF92F9
:10398000EF92FF920F931F93CF93DF931091CA078B
:10399000C090CC07C11608F46AC00091CB07069509
:1039A000069506958091CD07E82EFF2453E0F59407
:1039B000E7945A95E1F7812F90E0049644E09595BD
:1039C00087954A95E1F73FE0D32ED82280E1D82AA7
:1039D00027E0A22E1C5F9FE0B92EB122145038C000
:1039E000802F8A25806B0E94111A8D2D0E94111A3A
:1039F0008B2D0E94111A80EE0E94111AAE0156956D
:103A0000542F442757954795712F46535C4FFA0121
:103A1000E70FF11D8081439A60E820E030E0E82F55
:103A2000F0E0862F90E08E239F23892B11F0409A9F
:103A300001C040985C9A5C9A5C985C9866952F5F90
:103A40003F4F2830310569F77F5FC71600F70F5FDA
:103A5000C02FD0E0EC16FD061CF61092CC07109299
:103A6000CD078FE78093CA078FE38093CB07DF9161
:103A7000CF911F910F91FF90EF90DF90CF90BF906B
:103A8000AF9008950F93982F8F3F69F4002359F05A
:103A90001092CC071092CD078FE78093CA078FE36F
:103AA0008093CB072BC0491718F4842F492F982FE8
:103AB000261718F4822F262F682F002339F09093B1
:103AC000CA074093CC076093CB0716C08091CA0702
:103AD000981710F49093CA078091CC07841710F4BC
:103AE0004093CC078091CB07681710F46093CB0705
:103AF0008091CD07821710F42093CD070F91089580
:103B000080E094E0EAECF3E0DF019C011D9221509B
:103B10003040E1F71092CA071092CB078FE78093ED
:103B2000CC078FE38093CD070895682F83E070E082
:103B30000E94F30D08951F93182F8EE061E00E94FC
:103B40000A0F84E061E00E940A0F81E161E00E94B7
:103B50000A0F87E061E00E940A0F87E060E00E94A0
:103B6000490F88E893E120E931E0F9013197F1F755
:103B70000197D9F787E061E00E94490F83EA0E942C
:103B8000111A80EA0E94111A80EC0E94111A80E436
:103B90000E94111A8FE20E94111A84E20E94111AE7
:103BA0001092CC071092CD078FE78093CA078FE35E
:103BB0008093CB078FEA0E94111A84EA0E94111A9F
:103BC00081E80E94111A812F8F730E94111A0E949E
:103BD000801D1F910895823000F5E82FF0E0EE0F70
:103BE000FF1FE253F84F71836083882319F08130FF
:103BF000A1F408C0809169008C7F842B80936900B8
:103C0000E89A089580916900440F551F440F551F8D
:103C1000837F842B80936900E99A0895823080F431
:103C2000882319F0813021F402C0E89801C0E99896
:103C3000E82FF0E0EE0FFF1FE253F84F11821082E1
:103C400008951F920F920FB60F9211242F933F9356
:103C50004F935F936F937F938F939F93AF93BF9394
:103C6000EF93FF938091CE079091CF07892B29F096
:103C7000E091CE07F091CF070995FF91EF91BF91A9
:103C8000AF919F918F917F916F915F914F913F91F4
:103C90002F910F900FBE0F901F9018951F920F92AB
:103CA0000FB60F9211242F933F934F935F936F930F
:103CB0007F938F939F93AF93BF93EF93FF938091E5
:103CC000D0079091D107892B29F0E091D007F0918E
:103CD000D1070995FF91EF91BF91AF919F918F917E
:103CE0007F916F915F914F913F912F910F900FBEF8
:103CF0000F901F901895629FD001739FF001829FD3
:103D0000E00DF11D649FE00DF11D929FF00D839F6A
:103D1000F00D749FF00D659FF00D9927729FB00D07
:103D2000E11DF91F639FB00DE11DF91FBD01CF011A
:103D300011240895AA1BBB1B51E107C0AA1FBB1F7A
:103D4000A617B70710F0A61BB70B881F991F5A9527
:103D5000A9F780959095BC01CD01089597FB092E98
:103D600007260AD077FD04D0E5DF06D000201AF43C
:103D7000709561957F4F0895F6F7909581959F4FC7
:103D80000895A1E21A2EAA1BBB1BFD010DC0AA1F9C
:103D9000BB1FEE1FFF1FA217B307E407F50720F0B4
:103DA000A21BB30BE40BF50B661F771F881F991F2F
:103DB0001A9469F760957095809590959B01AC0178
:103DC000BD01CF010895EE0FFF1F0590F491E02D86
:103DD00009942F923F924F925F926F927F928F92AF
:103DE0009F92AF92BF92CF92DF92EF92FF920F938A
:103DF0001F93CF93DF93CDB7DEB7CA1BDB0B0FB694
:103E0000F894DEBF0FBECDBF09942A883988488850
:103E10005F846E847D848C849B84AA84B984C884E6
:103E2000DF80EE80FD800C811B81AA81B981CE0FDD
:103E3000D11D0FB6F894DEBF0FBECDBFED010895C2
:043E4000F894FFCF24
:103E440025303364202532642F25326420253264E2
:103E5400256325303264007263763A25303364205A
:103E6400736E643A253033640020004E65745469DF
:103E74006D6520636F6E66696775726564003702ED
:103E8400940100003202000001022C010000000035
:103E94000000F209BD11230941092509FCFF0000B6
:103EA4003D09240900000000880BA50A0000000059
:103EB4009D0DB10D000000001811BD11AE10DF10F2
:103EC400BF1008113402561F1C1F1E1F1E1F1F1E69
:043ED4001F1E1F008E
:00000001FF
