:100000000C9404020C948D290C94BA290C942C02A3
:100010000C9403100C94A90F0C942C020C942C0239
:100020000C942C020C942C020C942C020C942C0298
:100030000C942C020C942C020C942C020C942C0288
:100040000C94AB1F0C942C020C94AC210C94FA2150
:100050000C942C020C942C020C942C020C942C0268
:100060000C942C020C942C0252656164696E67201A
:1000700073656E736F72732040002A2A2A2A2A2021
:1000800052554E4E494E473A207765617468657205
:100090005F6E6F64652E696E6F002A2A2A2A2A20F5
:1000A00053455455503A20776561746865725F6EA8
:1000B0006F64652E696E6F004150545730312C5477
:1000C000435049502A3A403030303030307A33345F
:1000D00032392E39354E2F31313934392E303757A8
:1000E00000206E6F7420666F756E6420696E2063E9
:1000F0006F6E6669675F7265616400436F6E666903
:10010000673A206D6F64756C652000206E6F7420F7
:10011000666F756E6420696E20636F6E6669675FD7
:10012000777269746500436F6E6669673A206D6F18
:1001300064756C6520002020435243206D61746318
:100140006865732100202043524320646F6573204B
:100150006E6F74206D61746368210020627974652C
:100160007300206D617829002076732E20002069AD
:100170007320746F6F206C61726765202800434F95
:100180004E4649473A2074686520636F6E6669671A
:1001900020666F72206D6F64756C6520230020638C
:1001A0006F6E666967732000436F6E6669673A20F9
:1001B0000020214E4F4E452120002074696D6500BE
:1001C0002065746800207266313200206C63640020
:1001D0002073657269616C00436F6E666967204CBD
:1001E0006F673A00436F6E666967204E65743A2008
:1001F00052463132422064697361626C6564004327
:100200006F6E6669673A200054696D6520696E6992
:100210007469616C697A65640020646576696365F8
:1002200073004F775363616E206861732000206410
:1002300065766963657300206F6620004F573A202A
:10024000666F756E6420004F573A204D697373696D
:100250006E6720646576696365733A004F573A208C
:100260004E657720646576696365733A20202020A7
:1002700000206D61783A00732C206D696E4D6178B5
:10028000436F756E743A002073656E736F72732CD2
:10029000206D696E4D617854696D65723A004F77D3
:1002A00054656D7020686173200000000000240018
:1002B00027002A0000000000250028002B00000075
:1002C000000023002600290004040404040404049C
:1002D00002020202020203030303030301020408F1
:1002E00010204080010204081020010204081020A0
:1002F00000000007000201000003040600000000E7
:1003000000000000005EBCE2613FDD83C29C7E20F5
:10031000A3FD1F419DC3217FFCA2401E5F01E3BDE1
:100320003E6082DC237D9FC1421CFEA0E1BF5D03D5
:1003300080DE3C62BEE0025CDF81633D7C22C09EC9
:100340001D43A1FF4618FAA427799BC584DA3866B5
:10035000E5BB5907DB856739BAE406581947A5FBA1
:100360007826C49A653BD987045AB8E6A7F91B4595
:10037000C6987A24F8A6441A99C7257B3A6486D889
:100380005B05E7B98CD2306EEDB3510F4E10F2AC75
:100390002F7193CD114FADF3702ECC92D38D6F3161
:1003A000B2EC0E50AFF1134DCE90722C6D33D18F55
:1003B0000C52B0EE326C8ED0530DEFB1F0AE4C1249
:1003C00091CF2D73CA947628ABF517490856B4EA35
:1003D0006937D58B5709EBB536688AD495CB297721
:1003E000F4AA4816E9B7550B88D6346A2B7597C915
:1003F0004A14F6A8742AC896154BA9F7B6E80A5409
:10040000D7896B35CD06662311241FBECFEFD8E008
:10041000DEBFCDBF12E0A0E0B1E0EAE5F9E502C041
:1004200005900D92A23BB107D9F715E0A2EBB2E01F
:1004300001C01D92A034B107E1F714E0C8E0D4E098
:1004400004C02297FE010E94702CC430D107C9F766
:100450000E94BC230C94AB2C0C940000EF92FF92F2
:100460000F93DF93CF93CDB7DEB760970FB6F894B5
:10047000DEBF0FBECDBFA82F002309F461C07E01EF
:100480000894E11CF11C88E0F70111928A95E9F7C4
:1004900029833A834B835C836D837E83AF83988704
:1004A00080E2801BE82FFF27E7FDF0954D815E81FC
:1004B0006F817885181684F01D861E861F86188A1F
:1004C000882799278E1B9F0B04C0769567955795B3
:1004D00047958A95D2F728C0202F332727FD3095DE
:1004E000DB01CA01022E04C0B695A79597958795A2
:1004F0000A94D2F78D879E87AF87B88B04C0440FCC
:10050000551F661F771FEA95D2F789819A81AB81C3
:10051000BC8104C0B695A795979587952A95D2F783
:10052000482B592B6A2B7B2B49875A876B877C87F3
:1005300029853A854B855C856D857E85AF85988953
:100540008A2F60960FB6F894DEBF0FBECDBFCF9155
:10055000DF910F91FF90EF9008950F931F93CF932A
:10056000DF93689F8001699F100D789F100D112403
:10057000C8010E94C902EC01009729F060E070E018
:10058000A8010E94CB03CE01DF91CF911F910F9163
:100590000895CF93DF93BC018230910510F462E09F
:1005A00070E0A0913E05B0913F05ED0140E050E0C4
:1005B000E0E0F0E021C0888199818617970769F40F
:1005C0008A819B81309719F09383828304C0909332
:1005D0003F0580933E05FE0134C06817790738F463
:1005E0004115510519F08417950708F4AC01FE0177
:1005F0008A819B819C01E9012097E9F6411551050B
:10060000A9F1CA01861B970B049708F4BA01E0E030
:10061000F0E02AC08D919C91119784179507F9F409
:100620006417750781F412968D919C9113973097FA
:1006300019F09383828304C090933F0580933E0515
:10064000FD0132964CC0CA01861B970BFD01E80FD5
:10065000F91F6193719302978D939C9340C0FD01A4
:10066000828193819C01D9011097A1F680913C056C
:1006700090913D05892B41F480914C0290914D025F
:1006800090933D0580933C0540914E0250914F025E
:100690004115510541F44DB75EB780914A029091E2
:1006A0004B02481B590B20913C0530913D05CA0176
:1006B000821B930B8617970780F0AB014E5F5F4F4D
:1006C0008417950750F0420F531F50933D054093F8
:1006D0003C05F9016193719302C0E0E0F0E0CF01C5
:1006E000DF91CF910895CF93DF93009709F450C025
:1006F000EC0122971B821A82A0913E05B0913F0522
:10070000109709F140E050E0AC17BD0708F1BB833A
:10071000AA83FE0121913191E20FF31FAE17BF07AB
:1007200079F48D919C911197280F391F2E5F3F4FBF
:100730003983288312968D919C9113979B838A838A
:100740004115510571F4D0933F05C0933E0520C07B
:1007500012968D919C911397AD01009711F0DC01D9
:10076000D3CFFA01D383C28321913191E20FF31FDA
:10077000CE17DF0769F488819981280F391F2E5F12
:100780003F4FFA01318320838A819B819383828347
:10079000DF91CF910895DC0101C06D93415050402D
:1007A000E0F70895A0E0B0E0E8EDF3E00C947E2CD3
:1007B0007C01EB018A01690109C0CE012196F60195
:1007C0000995F70181937F01015010400115110532
:1007D000A1F7CDB7DEB7E8E00C949A2CA0E0B0E02A
:1007E000E4EFF3E00C947E2CEC017B018A016901BB
:1007F00009C0CE012196F70161917F01F6010995AB
:100800000150104001151105A1F7CDB7DEB7E8E0A2
:100810000C949A2CDF92EF92FF920F931F93D72E96
:100820007A018C01FA010995C80101966D2DF70135
:1008300009951F910F91FF90EF90DF900895AEE022
:10084000B0E0E5E2F4E00C94822C0D891E898F89DA
:10085000988D97FF02C080E090E801979E838D837A
:100860001A83098386E08C839E01255E3F4FCE016B
:100870000196698D7A8DA9010E9450044D815E8197
:1008800057FD0AC02F813885421753070CF49A018F
:10089000020F131FF80110822E96E4E00C949E2C98
:1008A000ABE0B0E0E6E5F4E00C94742C3C012B01E5
:1008B0005A01FC0117821682838181FD03C06FEF0C
:1008C0007FEFC6C19AE0892E1E010894211C311CBD
:1008D000F3012381F20123FD859123FF81912F01F3
:1008E000882309F4B2C1853239F423FD859123FFB1
:1008F00081912F01853229F490E0B3010E944306D3
:10090000E7CF982FFF24EE249924FFE1FF15D0F0C4
:100910009B3269F09C3228F4903259F0933291F472
:100920000EC09D3249F0903369F441E024C052E09A
:10093000F52A84E0F82A28C098E0F92A25C0E0E1E9
:10094000FE2A22C0F7FC29C0892F80538A3070F418
:10095000F6FE05C0989C902C1124980E15C0E89CBA
:10096000E02C1124E80EF0E2FF2A0EC09E3229F49A
:10097000F6FC6BC140E4F42A07C09C3619F450E839
:10098000F52A02C0983649F4F20123FD959123FF20
:1009900091912F01992309F0B8CF892F8554833085
:1009A00018F08052833038F444E050E0A40EB51EB5
:1009B0005FE359830FC0933631F0933779F0933565
:1009C00009F056C020C0F5018081898342E050E0E3
:1009D000A40EB51E610101E010E012C0F501C08057
:1009E000D180F6FC03C06FEF7FEF02C0692D70E08D
:1009F00042E050E0A40EB51EC6010E9438068C01EC
:100A00005FE7F52214C0F501C080D180F6FC03C079
:100A10006FEF7FEF02C0692D70E042E050E0A40E5E
:100A2000B51EC6010E942D068C0150E8F52AF3FE82
:100A300007C01AC080E290E0B3010E944306EA9426
:100A40008E2D90E008171907A8F30EC0F601F7FCE9
:100A50008591F7FE81916F0190E0B3010E944306FA
:100A6000E110EA94015010400115110579F7EAC030
:100A7000943611F0993669F5F7FE08C0F50120812A
:100A800031814281538184E090E00AC0F501808188
:100A900091819C01442737FD4095542F82E090E0DE
:100AA000A80EB91E9FE6F92257FF09C05095409540
:100AB000309521953F4F4F4F5F4FE0E8FE2ACA0126
:100AC000B901A1012AE030E00E946F06D82ED218A9
:100AD00040C0953729F41F2D1F7E2AE030E01DC04D
:100AE0001F2D197F9F3661F0903720F4983509F05B
:100AF000ACC00FC0903739F0983709F0A6C004C0D9
:100B000028E030E00AC0106114FD146020E130E0FC
:100B100004C014FD166020E132E017FF08C0F501A3
:100B2000608171818281938144E050E008C0F501C9
:100B300080819181BC0180E090E042E050E0A40E11
:100B4000B51EA1010E946F06D82ED2188FE7F82E8D
:100B5000F122F6FE0BC05EEFF522D91438F4F4FE54
:100B600007C0F2FC05C08FEEF82202C01D2D01C0A7
:100B7000192DF4FE0DC0FE01ED0DF11D80818033B5
:100B800019F499EEF92208C01F5FF2FE05C003C0F8
:100B90008F2D867809F01F5F0F2DF3FC14C0F0FE37
:100BA0000FC01E1510F09D2C0BC09D2C9E0C911A91
:100BB0001E2D06C080E290E0B3010E9443061F5F35
:100BC0001E15C0F304C01E1510F4E11A01C0EE2476
:100BD00004FF0FC080E390E0B3010E94430602FFD0
:100BE0001DC001FD03C088E790E00EC088E590E0DD
:100BF0000BC0802F867891F001FF02C08BE201C00C
:100C000080E2F7FC8DE290E0B3010E94430606C04B
:100C100080E390E0B3010E9443069A94D914C0F394
:100C2000DA94F101ED0DF11D808190E0B3010E9495
:100C30004306DD20A9F706C080E290E0B3010E94E0
:100C40004306EA94EE20C1F743CEF3016681778133
:100C5000CB012B96E2E10C94902CFC0105906150A5
:100C600070400110D8F7809590958E0F9F1F0895C2
:100C7000FC016150704001900110D8F7809590956B
:100C80008E0F9F1F08950F931F93CF93DF938C01B7
:100C9000EB018B8181FF1BC082FF0DC02E813F8144
:100CA0008C819D812817390764F4E881F9810193CB
:100CB000F983E88306C0E885F985802F0995892B9B
:100CC00031F48E819F8101969F838E8302C00FEF46
:100CD0001FEFC801DF91CF911F910F910895FA0185
:100CE000AA27283051F1203181F1E8946F936E7F6B
:100CF0006E5F7F4F8F4F9F4FAF4FB1E03ED0B4E05C
:100D00003CD0670F781F891F9A1FA11D680F791F9C
:100D10008A1F911DA11D6A0F711D811D911DA11DAD
:100D200020D009F468943F912AE0269F11243019BD
:100D3000305D3193DEF6CF010895462F4770405D58
:100D40004193B3E00FD0C9F7F6CF462F4F70405D07
:100D50004A3318F0495D31FD4052419302D0A9F762
:100D6000EACFB4E0A6959795879577956795BA955C
:100D7000C9F700976105710508959B01AC010A2E22
:100D800006945795479537952795BA95C9F7620FF9
:100D9000731F841F951FA01D08958AEC92E060E0E8
:100DA00040E00E94AD1388E693E00E94D7138DE6E1
:100DB00093E0609150020E945C121092BC0310926A
:100DC000BF031092C20383EC93E065E040E10E9410
:100DD00082178CED93E063EC73E044E00E94D21C38
:100DE00083EF93E063EC73E00E94D71C1092F7034B
:100DF0001092FA03109203048091510290915202D2
:100E0000009719F480E090E001C00496909360028E
:100E100080935F020895AF92BF92CF92DF92EF92DC
:100E2000FF920F931F93F89490910404A0900604EE
:100E3000B0900704C0900804D09009047894809181
:100E40002104292F281B30E040E050E0909321043A
:100E50008091280490912904820F931F9093290474
:100E600080932804211531054105510561F40E9444
:100E7000F31F60931D0470931E0480931F049093CE
:100E8000200420E022C080911D0490911E04A091B6
:100E90001F04B091200486017501E81AF90A0A0BB3
:100EA0001B0BA0921D04B0921E04C0921F04D0928E
:100EB0002004CA01B90124EC39E040E050E00E946E
:100EC000062CA80197010E944C2C822F1F910F9194
:100ED000FF90EF90DF90CF90BF90AF9008956F920A
:100EE0007F928F929F92AF92BF92CF92DF92EF92BA
:100EF000FF920F931F935B016C0120E030E040E80C
:100F00005FE30E944C2A87FD50C0C601B50120E076
:100F100030E048E051E40E949B2B18160CF445C0C9
:100F2000C601B5012EEA36EB42E35FE30E949F2B38
:100F300025E934ED44ED51E40E94E82924EA30E744
:100F400047E052E40E949F2B7B018C013B0148014A
:100F5000809151029091520260E071E00E94C72599
:100F60008091510290915202B601A50122E030E039
:100F70000E94AE2680915102909152026CE071E085
:100F80000E94C7258091510290915202A701B80199
:100F900022E030E00E94AE268091510290915202F0
:100FA0006FE071E00E94C42606C06624772490ECAE
:100FB000892E8FE7982EB301C4011F910F91FF90E6
:100FC000EF90DF90CF90BF90AF909F908F907F90E9
:100FD0006F9008956F927F928F929F92AF92BF927F
:100FE000CF92DF92EF92FF920F931F933B014C0140
:100FF00079018A012CE538EC47E55FE30E94E72997
:1010000020E03FE641E05DE30E94502A5B016C0175
:10101000C801B70122E539E44DE95AEB0E949F2B44
:101020002DE637EE4BE85FE30E94E8299B01AC0117
:10103000C601B5010E94502A7B018C0120E030E0FE
:1010400048EC52E40E949B2B181614F414E611C0CD
:10105000C801B70120E030E040E050E00E944C2A97
:10106000882314F410E005C0C801B7010E94BD2A0E
:10107000162F809151029091520264E171E00E941A
:10108000C7258091510290915202B401A30122E040
:1010900030E00E94AE2680915102909152026CE0A5
:1010A00071E00E94C7258091510290915202612FF8
:1010B0004AE050E00E942525809151029091520211
:1010C0006FE171E00E94C426812F1F910F91FF9064
:1010D000EF90DF90CF90BF90AF909F908F907F90D8
:1010E0006F90089583E060E00E94C52083E061E096
:1010F0000E9404218FE060E00E94C5208FE061E043
:101100000E94042185E061E00E94C52085E061E045
:101110000E940421F89486E08093680082E0809326
:101120006C0088E080936D00789408950F931F936E
:1011300002EC14E0C80140E051EE60E070E00E9473
:101140003522C8016AE970E00E944024809157026C
:1011500061E00E94C5208091570260E00E94042156
:101160008DE592E00E94041103EC13E060915102BE
:1011700070915202C8010E94431560915102709112
:101180005202C8010E94D0148091D60390E0880FCB
:10119000991F809358020E94720885EF93E068EED1
:1011A00073E00E94052981E094E064E670E00E940B
:1011B000052964E670E080E090E00E94272080919D
:1011C000570261E00E9404218091510290915202E5
:1011D0006AE770E00E9440241F910F910895CF921A
:1011E000DF92EF92FF920F931F937B018C012AE015
:1011F00037ED43E25CE30E94E7292DEC34EC46EE48
:1012000054E40E949F2B20E030E044EB51E40E9424
:10121000E7290E94B82ADC01CB0168E671E00E9450
:10122000392CD82EC92E809151029091520263E23E
:1012300071E00E94C7258091510290915202B8013D
:10124000A70122E030E00E94AE26809151029091E9
:1012500052026CE071E00E94C7258091510290918A
:1012600052026D2D7C2D4AE050E00E949525809120
:101270005102909152026FE271E00E94C4268D2DBE
:101280009C2D1F910F91FF90EF90DF90CF900895CC
:10129000AF92BF92CF92DF92EF92FF920F931F9384
:1012A00020912804309129048091260490912704EC
:1012B0007901E81AF90A00E010E03093270420933E
:1012C00026040E94F31F20912204309123044091B0
:1012D0002404509125045B016C01A21AB30AC40ACC
:1012E000D50A60932204709323048093240490937E
:1012F0002504809151029091520268E371E00E94AE
:10130000C7258091510290915202B801A7012AE0AD
:1013100030E00E94D424809151029091520268E4FE
:1013200071E00E94C7258091510290915202B6014E
:10133000A5012AE030E00E94D424809151029091CE
:1013400052026DE471E00E94C725C801B70124EC88
:1013500039E040E050E00E94062CA60195010E9471
:101360004C2C122F8091510290915202622F4AE030
:1013700050E00E943725812F1F910F91FF90EF9031
:10138000DF90CF90BF90AF9008956F927F928F9231
:101390009F92AF92BF92CF92DF92EF92FF920F9304
:1013A0001F93F89490910504E0900A04F0900B04C8
:1013B00000910C0410910D047894E114F1040105DE
:1013C000110529F441E0E42EF12C012D112D80911D
:1013D0001204981709F07AC00E94F31F7B018C0158
:1013E000611571058105910529F481E090E0A0E087
:1013F000B0E002C0DC01CB018093590290935A0205
:10140000A0935B02B0935C0280911304909114044A
:10141000A0911504B09116040097A105B10509F13A
:101420008091170490911804A0911904B0911A04A6
:10143000A8019701281B390B4A0B5B0BDA01C90184
:1014400081509749A944B14060F010921304109262
:101450001404109215041092160410921C04109299
:101460001B0420910E0430910F0440911004509100
:101470001104211531054105510529F137014801B4
:10148000621A730A840A950A41EA64164BEB7406E1
:101490004DE0840640E0940630F431E0A32EB12CF8
:1014A000C12CD12C78C010920E0410920F0410920F
:1014B000100410921104809151029091520263E540
:1014C00071E00E94C72500E010E0A7C0592F581B0B
:1014D000A52EBB24CC24DD249093120420910E046D
:1014E00030910F04409110045091110421153105E1
:1014F0004105510579F48091590290915A02A091C9
:101500005B02B0915C0237014801681A790A8A0AC5
:101510009B0A06C037014801621A730A840A950AB9
:10152000E0920E04F0920F04009310041093110443
:101530008091130490911404A0911504B0911604A5
:101540000097A105B105A9F48091590290915A0222
:10155000A0915B02B0915C028093130490931404F9
:10156000A0931504B0931604B0921C04A0921B041F
:101570000AC080911B0490911C048A0D9B1D9093BE
:101580001C0480931B04E0921704F092180400934B
:10159000190410931A04809151029091520260E64E
:1015A00071E00E94C7258091510290915202B601CC
:1015B000A5012AE030E00E94D4248091510290914C
:1015C000520268E471E00E94C72580915102909117
:1015D0005202B401A3012AE030E00E94D424809199
:1015E00051029091520261E771E00E94C725C60145
:1015F000B50120E83EEE46E350E00E94062CA4012F
:1016000093010E944C2C89018091510290915202C9
:10161000B9014AE050E00E940825C8011F910F91CE
:10162000FF90EF90DF90CF90BF90AF909F908F9002
:101630007F906F9008952F923F924F925F926F929A
:101640007F928F929F92AF92BF92CF92DF92EF9252
:10165000FF920F931F93DF93CF93CDB7DEB72A97F7
:101660000FB6F894DEBF0FBECDBF6091B20270918D
:10167000B3028091B4029091B50220E030E040E0E6
:101680005FE30E94E8290E94B82A3B01E090BA0279
:10169000F090BB020091BC021091BD02B3018827FB
:1016A00077FD8095982F0E94EB2A9B01AC01C80121
:1016B000B7010E94EA07482E55246091C20270913A
:1016C000C3028091C4029091C5020E946F075B0122
:1016D0006C016091C6027091C7028091C80290911E
:1016E000C9020E94EF087C010E94C509382E292EEC
:1016F00020911B04298780911C048A870E94480935
:10170000982E8090FF031092FF03809151029091D8
:1017100052026DE771E00E94C725809151029091BD
:101720005202B601A50122E030E00E94B12680916C
:1017300051029091520268EB70E00E94F5239920CB
:1017400089F198E6E91691E0F90660F5ADB7BEB704
:1017500018970FB6F894BEBF0FBEADBFEDB7FEB77A
:1017600031968E010F5F1F4F12961C930E931197A7
:1017700088E090E09383828383E891E0958384837B
:10178000F782E6820E941F04EDB7FEB738960FB6C7
:10179000F894FEBF0FBEEDBF8091510290915202AE
:1017A000B80106C0809151029091520269E871E03F
:1017B0000E94C7258DB79EB708970FB6F8949EBFB5
:1017C0000FBE8DBFEDB7FEB731968E010F5F1F4F75
:1017D000ADB7BEB712961C930E93119758E0E52E45
:1017E000F12CF382E2828EE891E0958384839682E5
:1017F00017820E941F04EDB7FEB738960FB6F89413
:10180000FEBF0FBEEDBF8091510290915202B80110
:101810000E94C7258DB79EB708970FB6F8949EBF54
:101820000FBE8DBFEDB7FEB73196ADB7BEB71296FE
:101830001C930E931197F382E28284E991E09583E1
:101840008483868217820E941F04EDB7FEB7389604
:101850000FB6F894FEBF0FBEEDBF8091510290917C
:101860005202B8010E94C7258DB79EB708970FB6E0
:10187000F8949EBF0FBE8DBFEDB7FEB73196ADB7E2
:10188000BEB712961C930E931197F382E2828AE9F7
:1018900091E095838483778266820E941F04EDB76E
:1018A000FEB738960FB6F894FEBF0FBEEDBF80911D
:1018B000510290915202B8010E94C7258DB79EB780
:1018C00008970FB6F8949EBF0FBE8DBFEDB7FEB759
:1018D0003196ADB7BEB712961C930E931197F38253
:1018E000E28280EA91E095838483232D322DC90121
:1018F000B3E0883E9B0710F087EE93E097838683E2
:101900000E941F04EDB7FEB738960FB6F894FEBFDD
:101910000FBEEDBF80915102909152028E010F5F78
:101920001F4FB8010E94C7258DB79EB708970FB605
:10193000F8949EBF0FBE8DBFEDB7FEB73196ADB721
:10194000BEB712961C930E93119788E090E0938394
:10195000828386EA91E09583848329853A85C9014B
:10196000B3E0883E9B0710F087EE93E09783868371
:101970000E941F04EDB7FEB738960FB6F894FEBF6D
:101980000FBEEDBF80915102909152027E010894EA
:10199000E11CF11CB7010E94C725C601B50120E07A
:1019A00030E040E050E00E949B2B18160CF041C044
:1019B0008DB79EB708970FB6F8949EBF0FBE8DBF28
:1019C0000DB71EB70F5F1F4FADB7BEB71296FC9293
:1019D000EE92119788E090E0F801938382838CEA7D
:1019E00091E095838483C601B50120E030E040E2B8
:1019F00051E40E949F2B20E030E040E05FE30E9432
:101A0000E8290E94BD2AD80117967C936E931697F9
:101A10000E941F04EDB7FEB738960FB6F894FEBFCC
:101A20000FBEEDBF8091510290915202B7010E940A
:101A3000C725C201019784369105A0F58DB79EB7E1
:101A400008970FB6F8949EBF0FBE8DBFEDB7FEB7D7
:101A500031968E010F5F1F4FADB7BEB712961C9324
:101A60000E93119788E090E09383828382EB91E05C
:101A700095838483C20164E670E00E94252C9783DD
:101A800086830E941F04EDB7FEB738960FB6F89410
:101A9000FEBF0FBEEDBF8091510290915202B8017E
:101AA0000E94C725809151029091520268EB71E02B
:101AB0000E94C72580915102909152020E942024D9
:101AC0002A960FB6F894DEBF0FBECDBFCF91DF913F
:101AD0001F910F91FF90EF90DF90CF90BF90AF904C
:101AE0009F908F907F906F905F904F903F902F903E
:101AF0000895AF92BF92CF92DF92EF92FF920F9331
:101B00001F93CF93DF938AEC92E00E9430138823D7
:101B100029F080E090E060E00E946B1088EF93E095
:101B200068EB7BE00E9438298823A1F10E940B0713
:101B3000182F8091FF03811768F51093FF038091A0
:101B40005102909152026CEB71E00E94C725809186
:101B5000510290915202612F4AE050E00E942525E7
:101B6000809151029091520264EC71E00E94C7256D
:101B700080915102909152026091FF034AE050E03F
:101B80000E94252580915102909152026EEC71E0E5
:101B90000E94C4268091D603882309F45DC185EF95
:101BA00093E060E177E20E943829882309F454C168
:101BB0000E94F31F5B016C018091FB039091FC0379
:101BC000A091FD03B091FE03A6019501281B390BDE
:101BD0004A0B5B0BCA01B901683E3BEE730733E069
:101BE000830730E0930798F186017501E61AF70A3A
:101BF000080B190B615070408040904028EE3BEE7E
:101C000043E050E00E944C2CCA01B90128E134E1C4
:101C10004CEF5FEF0E94062CE61AF70A080B190B2F
:101C2000E092FB03F092FC030093FD031093FE038C
:101C3000609151027091520283EC93E00E9443152F
:101C40008091D60390E0880F991F8093580280916D
:101C500051029091520268E670E00E94F523809153
:101C6000510290915202B601A5012AE030E00E9493
:101C7000E32406C061E070E080E090E00E9427204D
:101C80008CED93E060E00E94651A882399F36091DF
:101C90005102709152028CED93E00E947B198CED01
:101CA00093E060E00E94AC176093B2027093B302BD
:101CB0008093B4029093B5028CED93E061E00E94B2
:101CC000AC176093B6027093B7028093B8029093FA
:101CD000B902CAEBD2E062E0D62E83EF93E06D2D1D
:101CE0000E947A1EAA2797FDA095BA2FBC01CD01AC
:101CF0000E94EB2A20E030E04AE754E40E94502A98
:101D0000688379838A839B838091510290915202E8
:101D100062ED71E00E94C7250091510210915202BC
:101D200083EC93E06D2D0E941314FB01DC0183EC26
:101D300093E0B80179018A019F01AD010E947C14F2
:101D400080915102909152026BED71E00E94C72583
:101D5000488159816A817B81809151029091520220
:101D600022E030E00E94AE26809151029091520212
:101D700061EE71E00E94C72580915102909152025C
:101D80000E94202483EF93E06D2D0E94B71DAA27A7
:101D900097FDA095BA2FBC01CD010E94EB2A2AE540
:101DA00035EF49E75EE30E949F2B20E030E04AE7F1
:101DB00054E40E94502A6C837D838E839F8380919C
:101DC00051029091520263EE71E00E94C72500918A
:101DD00051021091520283EC93E06D2D0E94131476
:101DE000FB01DC0183EC93E0B80179018A019F01DA
:101DF000AD010E947C1480915102909152026CEED0
:101E000071E00E94C72500915102109152026C812D
:101E10007D818E819F8120E030E04AE754E40E947A
:101E20009F2BAB01BC01C80122E030E00E94AE262E
:101E3000809151029091520265EF71E00E94C72596
:101E400080915102909152020E942024D3942896AE
:101E500044E0D41609F041CF0E94F31F7B018C01AE
:101E60008091530290915402A0915502B091560274
:101E7000A8019701281B390B4A0B5B0BCA01B9015A
:101E800060363AEE730730E0830730E09307C0F026
:101E900060567A4E8040904020E63AEE40E050E0B6
:101EA0000E944C2CE61AF70A080B190BE092530219
:101EB000F092540200935502109356020E941B0B9D
:101EC0000E946029823081F08AEB93E068E377EC2E
:101ED0000E943829882341F080915102909152024A
:101EE00068EF71E00E94C42681E094E068EC70E045
:101EF0000E9438298823E1F09091000490FF09C0E6
:101F000060E080915802891708F461E080915702DF
:101F100003C08091570261E00E9404218091000477
:101F200090E0019664E170E00E94392C80930004F7
:101F300061E070E080E090E00E942720DF91CF9187
:101F40001F910F91FF90EF90DF90CF90BF90AF90D7
:101F500008951F920F920FB60F921124EF92FF92E5
:101F60000F931F932F933F934F935F936F937F93A1
:101F70008F939F93AF93BF93EF93FF9383E00E9460
:101F80005821682F85E00E9404210E94F31F7B01E5
:101F90008C0180910A0490910B04A0910C04B091E3
:101FA0000D04A8019701281B390B4A0B5B0B283045
:101FB00031054105510590F083E00E9458218823A6
:101FC00029F4809105048F5F80930504E0920A0450
:101FD000F0920B0400930C0410930D04FF91EF9109
:101FE000BF91AF919F918F917F916F915F914F9131
:101FF0003F912F911F910F91FF90EF900F900FBE87
:102000000F901F9018951F920F920FB60F921124E8
:10201000EF92FF920F931F932F933F934F935F93F2
:102020006F937F938F939F93AF93BF93EF93FF93A0
:102030000E94F31F7B018C0180910604909107049C
:10204000A0910804B0910904A8019701281B390B3D
:102050004A0B5B0B283031054105510590F08FE0AC
:102060000E945821882329F4809104048F5F809373
:102070000404E0920604F09207040093080410930D
:102080000904FF91EF91BF91AF919F918F917F9143
:102090006F915F914F913F912F911F910F91FF9001
:1020A000EF900F900FBE0F901F9018959C01F9991B
:1020B000FECF32BD21BDF89A80B508959C01F999F3
:1020C000FECF1FBA32BD21BD60BD0FB6F894FA9A9B
:1020D000F99A0FBE0895CF93DF93EC01462F009736
:1020E00021F44091E604C7EED4E04423F9F03881AE
:1020F00020912C04E0912A04F0912B0490E014C06C
:10210000A191B19112968C911297831761F4ED9180
:10211000FC911197219641500280F381E02DCD0171
:10212000BE01099503C09F5F921750F3DF91CF91D5
:1021300008951F93182F50912C04A0912A04B09158
:102140002B0420E230E090E047C0ED91FD918281C8
:102150004381811709F03DC0C90150E02EE530E10F
:102160000E94EE0340912D0450912E04FA01329703
:1021700020E030E06FEF7FEF21C0F999FECF205EC5
:102180003F4F32BD21BDF89A80B56827862F8295D2
:102190008627082E869586958025082E869580258B
:1021A0008770062E672F869507948795702D682770
:1021B00006948795702568272F5130402E173F07CA
:1021C00008F4DBCFCA014E964EE550E10E940A04A6
:1021D00019C0240F311D9F5F951708F4B6CF82EC0C
:1021E00094E066E271E00E94F52382EC94E0612FB6
:1021F0004AE050E00E94252582EC94E06BE071E01B
:102200000E9440241F9108958F929F92AF92BF9297
:10221000DF92EF92FF920F931F93DF93CF93CDB78F
:10222000DEB7C054D0400FB6F894DEBF0FBECDBFAE
:102230005C0120E0322F3F5FE22FF0E0EE0FFF1F46
:10224000EA0DFB1D80819181892B11F0232FF2CFA4
:1022500020932C04B0922B04A0922A0482EC94E0E8
:1022600068EA71E00E94F52382EC94E060912C040E
:102270004AE050E00E94252582EC94E06EE971E08E
:102280000E94F52310922E0410922D04EE244EC0CD
:102290000E2D10E0F801EE0FFF1FEA0DFB1D01905F
:1022A000F081E02DF38080E48F15A8F582EC94E0B6
:1022B0000E94202482EC94E06EE771E00E94F523F6
:1022C0000F5F1F4F82EC94E0B8014AE050E00E949B
:1022D000952582EC94E06EE671E00E94F52382EC95
:1022E00094E06F2D4AE050E00E94252582EC94E0B6
:1022F00068E671E00E94F52382EC94E060E470E00F
:102300004AE050E00E94952582EC94E062E671E09C
:102310000E9440240AC080912D0490912E048F0DBC
:10232000911D90932E0480932D04E39480912C04AE
:10233000E81608F4ADCF60912D0470912E046E5F05
:102340007F4F70932E0460932D0482EC94E04AE05A
:1023500050E00E94F72482EC94E06BE571E00E946B
:10236000402460912D0470912E0420E030E04FEF66
:102370005FEF21C0F999FECF205E3F4F32BD21BDF6
:10238000F89A80B54827842F82958427082E869551
:1023900086958025082E869580258770042E452FEA
:1023A000869507948795502D482706948795502544
:1023B00048272F5130402617370708F4DBCF452B2D
:1023C00001F182EC94E065E471E00E94402410E0A9
:1023D00013C0E12FF0E0EE0FFF1FEA0DFB1DA081FF
:1023E000B181ED91FC9111970190F081E02DCD012B
:1023F00060E070E009951F5F80912C04181748F386
:1024000037C082EC94E066E371E00E94402490E2E1
:10241000E92EF12CDD244E010894811C911C24C06E
:102420000D2D10E0000F111F0A0D1B1DD801ED919D
:10243000FC914381C401B70150E026E530E10E94E0
:10244000D203F801A081B181ED91FC911197019027
:10245000F081E02DCD01B4010995D801ED91FC91F9
:102460008381E80EF11CD39480912C04D816C0F21D
:10247000C05CDF4F0FB6F894DEBF0FBECDBFCF916B
:10248000DF911F910F91FF90EF90DF90BF90AF9081
:102490009F908F900895089508950895FC01E45B3E
:1024A000FF4F1082EC54F04082E0868381E0878306
:1024B00080E0816080870895FF920F931F938C01C5
:1024C000F62EFC01138212828FE692E091838083C4
:1024D0000E9695838483C8010E944E12F801F186FE
:1024E0001F910F91FF90089504970E94781208950C
:1024F000CF93DF93EC01FB01BC01685F7F4F309706
:1025000019F08081888705C08985888782E00E94CC
:10251000991082EC94E068ED71E00E94F5238885C3
:1025200080FF06C082EC94E060ED71E00E94F5232C
:10253000888581FF06C082EC94E06BEC71E00E941C
:10254000F523888582FF06C082EC94E065EC71E09B
:102550000E94F523888583FF06C082EC94E060EC3E
:1025600071E00E94F523888584FF06C082EC94E028
:102570006AEB71E00E94F5238885882331F482ECB0
:1025800094E061EB71E00E94F52382EC94E00E94FC
:102590002024DF91CF9108950F931F93CF93DF9362
:1025A000EC018C01045B1F4FF8018081FE01E80FF4
:1025B000F11D1286888580FF16C0BE01665F7F4FC1
:1025C00082EC94E00E94C725F8018081882359F0AD
:1025D000FE01E80FF11D81858A3029F482EC94E038
:1025E0006DE00E941824888583FF0EC0E881F98180
:1025F000BE01665F7F4FDE01A45BBF4F0480F581A3
:10260000E02DCE014C910995C45BDF4F1882DF911C
:10261000CF911F910F9108951F93CF93DF93EC01FA
:10262000162FC45BDF4F8881CC54D040813418F022
:10263000CE010E94CC12DE01A45BBF4F8C91FE0143
:10264000E80FF11D12878F5F8C931A3019F4CE01B9
:102650000E94CC1281E090E0DF91CF911F9108950C
:1026600080E0089508956093300482EC94E064EE75
:1026700071E00E9440240895CF92DF92EF92FF9282
:102680000F931F93DF93CF93CDB7DEB77C01CDB609
:10269000DEB6FB018B016115710509F180818E3178
:1026A000F1F082EC94E06FEF71E00E94F52382EC90
:1026B00094E0F80160814AE050E00E94252582EC18
:1026C00094E065E072E00E94C725F801618182EC28
:1026D00094E070E04AE050E00E94A82519C000D0C4
:1026E00000D00DB71EB70F5F1F4F8EE1EDB7FEB7DD
:1026F0008183F80111820E9401202AEA35E526270C
:102700003727F8013383228381E0B8010E949910B2
:10271000F801608160933004818180932F0484E903
:1027200090E0E80EF91E82819381F7019183808306
:102730008CE69FEFE80EF91EC7010E9433130FB617
:10274000F894DEBE0FBECDBECF91DF911F910F91E9
:10275000FF90EF90DF90CF900895CF93DF93EC013F
:1027600085E892E099838883C656DF4F6993488352
:10277000CB59D0400E94F31FFE01EA56FF4F608301
:10278000718382839383611571058105910541F4FD
:1027900081E090E0A0E0B0E080839183A283B383E6
:1027A00081E08A8384E08B83DF91CF910895FC01DF
:1027B0008DE892E091838083148283E0828381E0BC
:1027C00083830895FC01DB016115710519F08C917B
:1027D000848305C0349683E0BF010E94991082EC87
:1027E00094E067E072E00E94C42608951F93CF939F
:1027F000DF93EB01443098F00E946029182F688124
:1028000079818A819B810E946329112341F48091FF
:1028100051029091520268E072E00E944024DF91E0
:10282000CF911F910895FC018389681748F020E03B
:1028300030E040E050E060E070E080E090E008953B
:10284000862F90E033E0880F991F3A95E1F70488CE
:10285000F589E02DE80FF91F2081318142815381F4
:1028600064817581868197810895EF92FF921F930D
:10287000CF93DF93EC017B0161157105B1F1EC8918
:10288000FD8980819181892B9281892B9381892B6C
:102890009481892B9581892B9681892B9781892B0E
:1028A00021F510E01FC0A12FB0E0CD0143E0880F5B
:1028B000991F4A95E1F7EC89FD89E80FF91FAA0FE6
:1028C000BB1FAA0FBB1FAE0DBF1D2D913D914D919A
:1028D0005C91208331834283538314821582168254
:1028E00017821F5F8A891817F0F2DF91CF911F912D
:1028F000FF90EF9008950895AF92BF92CF92DF922C
:10290000EF92FF920F931F93DF93CF93CDB7DEB774
:1029100028970FB6F894DEBF0FBECDBF6B01E982DA
:10292000FA820B831C832D833E834F835887CB0110
:102930006AE172E00E94C7257E010894E11CF11C47
:1029400065E0A62EB12CAC0EBD1EF70101917F01F2
:1029500010E0B80154E0759567955A95E1F7C60106
:1029600040E150E00E9495250F701070C601B8013B
:1029700040E150E00E949525EA14FB0431F72896C7
:102980000FB6F894DEBF0FBECDBFCF91DF911F9180
:102990000F91FF90EF90DF90CF90BF90AF90089590
:1029A000BF92CF92DF92EF92FF920F931F93CF933C
:1029B000DF936C01EB01CB0162E272E00E94F52330
:1029C000CE01D60153966C914AE050E00E94252535
:1029D000CE0169E172E00E944024BB2445C00B2D6A
:1029E00010E073E0000F111F7A95E1F7D6015496BD
:1029F000ED91FC915597E00FF11F80819181892B1A
:102A00009281892B9381892B9481892B9581892BA4
:102A10009681892B9781892B31F1CE016DE172E08E
:102A20000E94C725CE016B2D4AE050E00E9425256B
:102A3000CE0161E272E00E94C725D6015496ED9165
:102A4000FC915597E00FF11FE080F1800281138126
:102A50002481358146815781C601BE010E947C14C4
:102A6000CE010E942024B394F6018389B81608F49D
:102A7000B6CFDF91CF911F910F91FF90EF90DF9034
:102A8000CF90BF9008952F923F924F925F926F9296
:102A90007F928F929F92AF92BF92CF92DF92EF92EE
:102AA000FF920F931F93DF93CF93CDB7DEB7679756
:102AB0000FB6F894DEBF0FBECDBF3C012B010DB7A2
:102AC0001EB71F8B0E8B9C012C5F3F4F3D872C87C1
:102AD000C9010E94E5261B861A8622243324198602
:102AE000AAC0CE01019667E00E94F22689809A80F2
:102AF000AB80BC80CD80DE80EF80F88410E020E0E9
:102B000030E040E050E060E070E08E871F87288B67
:102B1000398B4A8B5B8B6C8B7D8B9401A501B60145
:102B2000C70108E30E942E021E85121709F083C018
:102B30002F85231709F07FC03889341709F07BC02F
:102B40004989451709F077C05A89561709F073C0AB
:102B50006B89671709F06FC07C89781709F06BC023
:102B60008D89891709F067C0D30152965C9140E0C6
:102B700020E030E029C0D3015496ED91FC915597A7
:102B8000E20FF31F285F3F4F80819181A281B381C3
:102B900088159905AA05BB05B1F480829182A282AD
:102BA000B382C482D582E682F78281E090E002C0DF
:102BB000880F991F4A95E2F7EA85FB85E82BF92BE8
:102BC000FB87EA8735C04F5F4517A8F240E020E059
:102BD00030E02CC0D3015496ED91FC915597E20F53
:102BE000F31F285F3F4F80819181892B9281892B30
:102BF0009381892B9481892B9581892B9681892BAF
:102C00009781892B91F480829182A282B382C482BF
:102C1000D582E682F78281E090E002C0880F991F9A
:102C20004A95E2F7282A392A03C04F5F451790F2E8
:102C3000B985BF5FB9878C859D85BE016F5F7F4F6A
:102C40000E943928882309F04CCF8C859D850E94ED
:102C5000E526F3018289838B41E050E004C02150D6
:102C6000D30153962C93F30123892223F1F0CA0157
:102C7000821B910933E0880F991F3A95E1F7048888
:102C8000F589E02DE81BF90B80819181892B9281D8
:102C9000892B9381892B9481892B9581892B96810E
:102CA000892B9781892BD9F21FC121143104B9F1E5
:102CB000C2016CE572E00E94F523DD2429C0C10148
:102CC0000D2C02C0969587950A94E2F780FF1FC0ED
:102CD000C20164E272E00E94C7258D2D90E023E0DE
:102CE000880F991F2A95E1F7D3015496ED91FC9135
:102CF0005597E80FF91FE080F1800281138124814C
:102D0000358146815781C301B2010E947C14D3945E
:102D1000F3018289D81698F2C2010E942024CA8445
:102D2000DB84C228D328C094D09481E090E0D30102
:102D300053960C9002C0880F991F0A94E2F70197EE
:102D4000C822D922C114D10409F44FC0C20167E4DA
:102D500072E00E94F523BB2440C0C6010B2C02C0C8
:102D6000969587950A94E2F780FF36C00B2D10E008
:102D700083E0000F111F8A95E1F7D3015496ED917E
:102D8000FC915597E00FF11F80819181892B9281F1
:102D9000892B9381892B9481892B9581892B96810D
:102DA000892B9781892BC1F0C20164E272E00E94F5
:102DB000C725D3015496ED91FC915597E00FF11F73
:102DC000E080F18002811381248135814681578121
:102DD000C301B2010E947C14B394F3018389B81635
:102DE00008F4BBCFC2010E942024EA85FB85D301F1
:102DF0005896FC93EE935797C2016CE372E00E94E1
:102E0000F523C20169854AE050E00E942525C201F0
:102E100067E372E00E94F523C201D30153966C91DF
:102E20004AE050E00E942525C2016EE272E00E9455
:102E30004024F301828990E0880F991F880F991F21
:102E40000DB71EB7081B190B0FB6F8941EBF0FBEA7
:102E50000DBF6DB77EB76F5F7F4F40E01CC0842F02
:102E600090E0880F991F880F991F9B01280F391F29
:102E7000880F991FD3015496ED91FC915597E80F57
:102E8000F91F80819181A281B381F90180839183AF
:102E9000A283B3834F5FD30152968C914817F8F207
:102EA00086E00E9499108985EE89FF890FB6F89413
:102EB000FEBF0FBEEDBF67960FB6F894DEBF0FBE24
:102EC000CDBFCF91DF911F910F91FF90EF90DF90D9
:102ED000CF90BF90AF909F908F907F906F905F90BA
:102EE0004F903F902F9008952A853B8522293329C2
:102EF000D30157968D919C9158972817390709F05F
:102F0000D4CE73CF1F93CF93DF93EC01142F85E9B9
:102F100092E099838883CE0104960E94CF281131D4
:102F200008F010E11A8B1B8A188E1F8A86E08A83AC
:102F3000812F90E0880F991F880F991F8B83812F15
:102F400090E068E070E00E94AD028C8B9D8B1E8A41
:102F5000DF91CF911F910895FC018281681728F0BD
:102F600070E060E090EC8FE70FC0862F90E0880F54
:102F7000991F880F991F0284F385E02DE80FF91F30
:102F80007081618192818381272F362F492F582F9D
:102F9000B901CA010895AF92BF92CF92DF92EF922A
:102FA000FF920F931F93DF93CF93CDB7DEB7AA970E
:102FB0000FB6F894DEBF0FBECDBFFC010BA31CA360
:102FC0002DA33EA34FA358A769A77AA70190F0812C
:102FD000E02DDE01559634968EE001900D928150E1
:102FE000E1F78E010B5E1F4FC8010E94EE27C8015A
:102FF000BE016D5D7F4F0E94CD27C8016EEB40E0A2
:103000000E94882749E0E42EF12CEC0EFD1E5801A9
:10301000C701DE2CC92E8E010E5E1F4FC5010E9416
:103020003727F70181937F01E017F107B9F78D2D5D
:103030009C2D68E00E94F2269989891769F52985F7
:10304000222319F48A85882339F18E858F3F21F553
:103050008889803109F59A8580E0422F50E0482B1D
:10306000592BDE011196E9E9F2E088E001900D921A
:103070008150E1F7ED85F0E0E076F07034E0F69510
:10308000E7953A95E1F7EC0FFD1F218132812095FC
:1030900030952423352302C020E030E8C901AA96E8
:1030A0000FB6F894DEBF0FBECDBFCF91DF911F9159
:1030B0000F91FF90EF90DF90CF90BF90AF90089569
:1030C0008F929F92AF92BF92CF92DF92EF92FF9238
:1030D0000F931F93CF93DF93EC01D22EC32EB42E08
:1030E000A52E962E872E0E94CB179C0180E82030BB
:1030F000380751F5CE012D2D3C2D4B2D5A2D692D24
:10310000782D0E94CB179C0180E820303807E1F42D
:10311000CE012D2D3C2D4B2D5A2D692D782D0E9441
:10312000CB179C0180E82030380771F4CE012D2D9B
:103130003C2D4B2D5A2D692D782D0E94CB179C01CB
:1031400080E82030380701F185E020353807E1F0CC
:10315000B901882777FD8095982F0E94EB2A20E0FF
:1031600030E040E85DE30E949F2B26E636E646EE1F
:103170005FE30E949F2B20E030E040E052E40E9499
:10318000E829E62F692F04C0E0E070E080EC6FE7EB
:103190002E2F372F482F562FB901CA01DF91CF911B
:1031A0001F910F91FF90EF90DF90CF90BF90AF9065
:1031B0009F908F9008950F931F93DF93CF93CDB778
:1031C000DEB72E970FB6F894DEBF0FBECDBFFC0161
:1031D0000190F081E02DDE01119634968EE0019091
:1031E0000D928150E1F78E010F5F1F4FC8010E94C1
:1031F000EE27C8010E94C827C80164E441E00E948C
:1032000088272E960FB6F894DEBF0FBECDBFCF91A4
:10321000DF911F910F910895DF92EF92FF920F932C
:103220001F93DF93CF93CDB7DEB766970FB6F894B1
:10323000DEBF0FBECDBFFC010F87188B298B3A8BE9
:103240004B8B5C8B6D8B7E8BDE2C0190F081E02DA7
:10325000DE01119634968EE001900D928150E1F7D7
:103260008E010F5F1F4FC8010E94EE276FE0E62E10
:10327000F12CEC0EFD1EC801B7010E94CD27C8013C
:103280006EE440E00E948827C80160E040E00E94B0
:103290008827C80160E040E00E948827D294DD0CB6
:1032A00050EED522DA94C8016D2D40E00E948827A7
:1032B000C8010E94EE27C801B7010E94CD27C801AE
:1032C00068E441E00E9488276AE070E080E090E0D6
:1032D0000E942720C8010E94D72666960FB6F89450
:1032E000DEBF0FBECDBFCF91DF911F910F91FF9039
:1032F000EF90DF900895AF92BF92CF92DF92EF925E
:10330000FF920F931F93CF93DF936C01EB01CB01DF
:103310006EE972E00E94F523CE01D60112966C91FF
:103320004AE050E00E942525CE0167E872E00E9445
:10333000F523C6010E960E94212968EE73E00E94D3
:10334000252CCE014AE050E00E94F724CE0167E729
:1033500072E00E94F523F60161897289CE014AE08C
:1033600050E00E940825AA249EC0D6011396ED9134
:10337000FC911497EA0DF11DB080BFEFBB1609F464
:1033800091C0CE0166E272E00E94C725CE016B2D8E
:103390004AE050E00E942525CE016AE272E00E94D8
:1033A000C725F60100811181C8016A2D0E941314FE
:1033B000FB01DC01C801BE0179018A019F01AD0159
:1033C0000E947C14CE016DE272E00E94C7250B2D95
:1033D00010E0C801880F991F880F991FD6011A960F
:1033E000ED91FC911B97E80FF91F4081518162819B
:1033F0007381CE0122E030E00E94AE26CE0163E36D
:1034000072E00E94C7257801EE0CFF1CE00EF11E51
:10341000EE0CFF1C00E010E0D6015396ED91FC91FC
:103420005497EE0DFF1DE00FF11F6081772767FDB8
:103430007095685A7F4FCE014AE050E00E94952572
:10344000CE016AE372E00E94C7250F5F1F4F06306E
:10345000110511F7CE0161E772E00E94F52300E04B
:1034600010E0D6015596ED91FC915697EE0DFF1D9B
:10347000E00FF11F6081772767FD7095685A7F4FD5
:10348000CE014AE050E00E949525CE016AE372E049
:103490000E94C7250F5F1F4F0630110511F7CE019F
:1034A0000E942024A394D601ED91FC918389A81653
:1034B00008F45BCFDF91CF911F910F91FF90EF90B8
:1034C000DF90CF90BF90AF9008952F923F924F9290
:1034D0005F926F927F928F929F92AF92BF92CF92A4
:1034E000DF92EF92FF920F931F93CF93DF936C01C4
:1034F000762E0E9660E67AEE0E943829882309F42B
:1035000055C0D60151968D919C9152970196529635
:103510009C938E935197803F910508F447C0529633
:103520001C921E92519760E070E040E050E010E87D
:1035300034C0E901D6015396ED91FC915497E40F04
:10354000F51F9E0121503040DF01AC0FBD1FE20F7F
:10355000F31F80818C93D6015596ED91FC9156977F
:10356000E40FF51FCE0FDF1FE20FF31F808188836A
:1035700021153105F1F65396ED91FC915497E40F26
:10358000F51F10835596ED91FC915697E40FF51FAA
:1035900010836F5F7F4F4A5F5F4FE6018A8190E043
:1035A000681779071CF4C5E0D0E0C4CF0E94F31F70
:1035B0004B015C01F6018581882309F0A7C07720C3
:1035C00009F481C086819781A085B1850097A10506
:1035D000B10509F478C085017401E81AF90A0A0BEB
:1035E0001B0B672D70E080E090E028EE33E040E0B8
:1035F00050E00E94062C6E157F058007910708F4A5
:1036000062C06DC1CF016F2D0E941314223219F0D8
:10361000283209F04EC0D6011396ED91FC91149713
:10362000EF0DF11D8081871509F441C07082872D4F
:1036300090E09C01220F331F220F331F1A96ED9149
:10364000FC911B97E20FF31F20823182428253824A
:103650008C01000F111F080F191F000F111F539627
:103660002D913C915497200F311FC90160E870E003
:1036700046E050E00E94CB03E6012D893E89200FF1
:10368000311FC90160E870E046E050E00E94CB03C2
:10369000888199816F2D0E941314FC01C601890154
:1036A0009A01AB01BF01EAE0EE2E0E940C1973945F
:1036B00008C0D6011396ED91FC911497EF0DF11D02
:1036C0006082F3940EC07724FF240F2EF0E02F2E9B
:1036D000F0E03F2EF0EC4F2EFFE75F2EF02D66243A
:1036E0006A94E601E881F9818389F81608F48ACFA3
:1036F000772009F4F4C0C6010E94DB18F601868227
:103700009782A086B18681E08583E9C0813009F087
:10371000E6C0E6018E819F81A885B985881A990A3D
:10372000AA0ABB0AEDEB8E169104A104B10408F4B9
:10373000D6C0992441E0642E712C0F2EF0E02F2E7C
:10374000F0E03F2EF0EC4F2EFFE75F2EF02DBBC0D8
:10375000E601EB81FC81E90DF11DB080EFEFBE16B3
:1037600009F4B0C0CD01692D0E941314FC01C601FB
:1037700089019A01AB01BF010E9460187B018C0195
:10378000E301092C02C0CC0FDD1F0A94E2F7A80167
:1037900097010E94022CD6011C962D913C911D97F9
:1037A0008823D9F0CE0182239323892B81F08B2D9E
:1037B00090E0880F991F880F991FE601EA85FB8525
:1037C000E80FF91F20823182428253827BC02C2B6A
:1037D0003D2BF6013587248775C0CE0180959095E5
:1037E00028233923D6011D963C932E931C97AB2C8E
:1037F000BB24C501880F991F880F991F1A96ED9158
:10380000FC911B97E80FF91FE082F182028313837A
:10381000C801B70120E030E040E050E00E949B2B5F
:1038200088234CF0C801B70120E030E040E05FE3BE
:103830000E94E82908C0C801B70120E030E040E05C
:103840005FE30E94E7290E94B82A162F1855E50168
:10385000CC0FDD1FCA0DDB1DCC0FDD1FD60153962B
:10386000ED91FC915497EC0FFD1F8581803859F440
:10387000212F332727FD3095CF01B90146E050E0D5
:103880000E94CB0306C08081803811F018170CF419
:103890001083D6015596ED91FC915697EC0FFD1FC4
:1038A0008581803859F4212F332727FD3095CF01AA
:1038B000B90146E050E00E94CB0304C0808181172B
:1038C0000CF410839394E601A881B98153968C91EE
:1038D0005397981608F43CCF1D8281E001C080E028
:1038E000DF91CF911F910F91FF90EF90DF90CF90DC
:1038F000BF90AF909F908F907F906F905F904F9010
:103900003F902F9008950F931F93CF93DF93EC0177
:103910008B0179836883413108F040E14A831D823D
:103920001D861C86F801828990E061E070E00E94AB
:10393000AD028B839C83F80142896FEF70E050E009
:103940000E94CB038A8190E064E070E00E94AD02A7
:103950008A879B878A8190E066E070E00E94AD02D2
:103960008B8B9C8B2A8116E0219F9001112460E8AB
:1039700070E0A9010E94CB038A8190E066E070E0CC
:103980000E94AD028D8B9E8B2A81219F9001112474
:1039900060E870E0A9010E94CB03DF91CF911F91F5
:1039A0000F910895FC01108A0E94831C0895FC0168
:1039B000718360830895AF92BF92CF92DF92EF92AE
:1039C000FF920F931F93DF93CF93CDB7DEB72E9760
:1039D0000FB6F894DEBF0FBECDBFA982BA82CB82EC
:1039E000DC82ED82FE820F83188729873A874B8716
:1039F0005C876D877E878E010F5F1F4FC8010E9415
:103A0000EE27C801BE01655E7F4F0E94CD27C80129
:103A10006EE440E00E948827C80160E040E00E9418
:103A20008827C80161E040E00E948827C8010E9401
:103A3000EE27C801BE01655E7F4F0E94CD27C801F9
:103A400068E440E00E948827C80160E040E00E94EE
:103A50008827C8010E94EE272E960FB6F894DEBF85
:103A60000FBECDBFCF91DF911F910F91FF90EF90CF
:103A7000DF90CF90BF90AF900895AF92BF92CF925A
:103A8000DF92EF92FF920F931F93DF93CF93CDB707
:103A9000DEB72E970FB6F894DEBF0FBECDBFA9825A
:103AA000BA82CB82DC82ED82FE820F83188729875F
:103AB0003A874B875C876D877E87CCA0DDA08E011F
:103AC0000F5F1F4FC8010E94EE27C801BE01655E4F
:103AD0007F4F0E94CD27C80168EB40E00E948827F5
:103AE000C80160E040E00E948827C8010E94EE27DC
:103AF000C801BE01655E7F4F0E94CD27C8016EEBF5
:103B000040E00E948827C8016BA140E00E948827FE
:103B1000EE24FF24C8010E943727F601EE0DFF1D99
:103B200080830894E11CF11C89E0E816F10491F708
:103B3000C8010E94EE27C60168E00E94F22620E03C
:103B4000F6019085891709F421E0822F2E960FB691
:103B5000F894DEBF0FBECDBFCF91DF911F910F91C3
:103B6000FF90EF90DF90CF90BF90AF9008952F928D
:103B70003F924F925F926F927F928F929F92AF92FD
:103B8000BF92CF92DF92EF92FF920F931F93DF933A
:103B9000CF93CDB7DEB769970FB6F894DEBF0FBEEF
:103BA000CDBF4C01DC018D919C91DE011A96FC0188
:103BB00034962EE001900D922150E1F70E941314EB
:103BC000722E632E542E452E362E272E888F998FD7
:103BD000B6E22B17B1F5EDB7FEB73B970FB6F894E9
:103BE000FEBF0FBEEDBF3196ADB7BEB711962C9399
:103BF00031834283538364837583B88DB683298D63
:103C000027831086CE01019692878187C401AA84FA
:103C1000BB84CC84DD84EE84FF84088919892A89D9
:103C20003B894C895D896E897F890E943D1DADB7B6
:103C3000BEB71B960FB6F894BEBF0FBEADBF8823AC
:103C400019F42FEF3FEF3CC089818F70813091F1E3
:103C5000EDB7FEB738970FB6F894FEBF0FBEEDBFB5
:103C60003196ADB7BEB711967C9261825282438283
:103C700034822582B88DB683298D2783C401AA8416
:103C8000BB84CC84DD84EE84FF84088919892A8969
:103C90003B894C895D896E897F890E94DB1C2FEFEF
:103CA0003FEF8DB79EB708960FB6F8949EBF0FBE34
:103CB0008DBF06C09F8180E02E8130E0282B392BFC
:103CC000C90169960FB6F894DEBF0FBECDBFCF9184
:103CD000DF911F910F91FF90EF90DF90CF90BF90F9
:103CE000AF909F908F907F906F905F904F903F909C
:103CF0002F9008958F929F92AF92BF92CF92DF92B2
:103D0000EF92FF920F931F93DF93CF93CDB7DEB760
:103D10006F970FB6F894DEBF0FBECDBF4C01DC012C
:103D2000ED91FC91DE01529634968EE001900D9259
:103D30008150E1F7F401808191810E9413142632B1
:103D400009F006C129833A834B835C836D837E83AC
:103D50008F839887ADB7BEB71B970FB6F894BEBFD9
:103D60000FBEADBFEDB7FEB7319611962C933183E0
:103D70004283538364837583868397831086CE0141
:103D8000099692878187C401AA88BB88CC88DD8880
:103D9000EE88FF88088D198D2A8D3B8D4C8D5D8DA9
:103DA0006E8D7F8D0E943D1DEDB7FEB73B960FB621
:103DB000F894FEBF0FBEEDBF882309F4C9C0898502
:103DC0008F708130C1F12DB73EB7285030400FB60B
:103DD000F8943EBF0FBE2DBFEDB7FEB73196898177
:103DE000ADB7BEB711968C938A8181838B81828314
:103DF0008C8183838D8184838E8185838F8186836B
:103E000088858783C401AA88BB88CC88DD88EE8832
:103E1000FF88088D198D2A8D3B8D4C8D5D8D6E8DA3
:103E20007F8D0E94DB1CEDB7FEB738960FB6F89475
:103E3000FEBF0FBEEDBF8E010E5E1F4FC8010E9478
:103E4000EE27C801BE016F5F7F4F0E94CD27C801DA
:103E500064EB40E00E948827FF24E02E012FFA94B3
:103E600009F46FC08E2D902F0E9437278F3F09F4E1
:103E700068C084E690E00E948020F1CF2DB73EB765
:103E80002B5030400FB6F8943EBF0FBE2DBFEDB79C
:103E9000FEB731968981ADB7BEB711968C938A81F2
:103EA00081838B8182838C8183838D8184838E81C6
:103EB00085838F818683888587831086CE010996C6
:103EC00092878187C401AA88BB88CC88DD88EE8868
:103ED000FF88088D198D2A8D3B8D4C8D5D8D6E8DE3
:103EE0007F8D0E943D1DEDB7FEB73B960FB6F8944F
:103EF000FEBF0FBEEDBF882359F13D8520E08C85C4
:103F000090E0822B932B9C0153E0220F331F5A9594
:103F1000E1F7880F991F280F391FC9016F960FB657
:103F2000F894DEBF0FBECDBFCF91DF911F910F91EF
:103F3000FF90EF90DF90CF90BF90AF909F908F90C9
:103F40000895CE0142960E94EE27FF2009F096CFF9
:103F50002FEF3FEFE2CF1F920F920FB60F92112477
:103F60002F933F938F939F93AF93BF93809135048B
:103F700090913604A0913704B091380430913904FF
:103F80000196A11DB11D232F2D5F2D3720F02D5738
:103F90000196A11DB11D209339048093350490939F
:103FA0003604A0933704B093380480913104909183
:103FB0003204A0913304B09134040196A11DB11DC7
:103FC0008093310490933204A0933304B09334046B
:103FD000BF91AF919F918F913F912F910F900FBE05
:103FE0000F901F9018958FB7F89420913504309159
:103FF000360440913704509138048FBFB901CA018B
:1040000008959FB7F8942091310430913204409183
:1040100033045091340486B5A89B06C08F3F21F02D
:104020002F5F3F4F4F4F5F4F9FBF542F432F322F74
:104030002227280F311D411D511D82E0220F331F01
:10404000441F551F8A95D1F7B901CA0108959B01F4
:10405000AC017FB7F8948091310490913204A09123
:104060003304B091340466B5A89B05C06F3F19F0C6
:104070000196A11DB11D7FBFBA2FA92F982F8827A8
:10408000860F911DA11DB11D62E0880F991FAA1F07
:10409000BB1F6A95D1F7BC012DC0FFB7F894809182
:1040A000310490913204A0913304B0913404E6B508
:1040B000A89B05C0EF3F19F00196A11DB11DFFBFE0
:1040C000BA2FA92F982F88278E0F911DA11DB11DE2
:1040D000E2E0880F991FAA1FBB1FEA95D1F7861B44
:1040E000970B885E9340C8F22150304040405040CA
:1040F00068517C4F211531054105510571F6089530
:10410000019739F0880F991F880F991F029701971F
:10411000F1F70895789484B5826084BD84B5816098
:1041200084BD85B5826085BD85B5816085BDEEE6BF
:10413000F0E0808181608083E1E8F0E0108280819E
:1041400082608083808181608083E0E8F0E080810C
:1041500081608083E1EBF0E0808184608083E0EB2C
:10416000F0E0808181608083EAE7F0E08081846014
:104170008083808182608083808181608083808170
:10418000806880831092C1000895CF93DF93482FF9
:1041900050E0CA0184529D4FFC01349148535D4F59
:1041A000FA018491882369F190E0880F991FFC013E
:1041B000E655FD4FA591B491FC01EC54FD4FC5911E
:1041C000D491662351F42FB7F8948C91932F909546
:1041D00089238C93888189230BC0623061F42FB7C7
:1041E000F8948C91932F909589238C938881832BBD
:1041F00088832FBF06C09FB7F8948C91832B8C9334
:104200009FBFDF91CF910895482F50E0CA018051A0
:104210009D4FFC012491CA0184529D4FFC01949151
:1042200048535D4FFA013491332309F440C02223EF
:1042300051F1233071F0243028F42130A1F02230E4
:1042400011F514C02630B1F02730C1F02430D9F474
:1042500004C0809180008F7703C0809180008F7DA3
:104260008093800010C084B58F7702C084B58F7DA5
:1042700084BD09C08091B0008F7703C08091B000E9
:104280008F7D8093B000E32FF0E0EE0FFF1FEC5422
:10429000FD4FA591B4912FB7F894662321F48C912A
:1042A0009095892302C08C91892B8C932FBF089500
:1042B000682F70E0CB0180519D4FFC012491CB0110
:1042C00084529D4FFC01449168537D4FFB019491B2
:1042D000992319F420E030E03CC0222351F123302F
:1042E00071F0243028F42130A1F0223011F514C0EF
:1042F0002630B1F02730C1F02430D9F404C08091C9
:1043000080008F7703C0809180008F7D8093800034
:1043100010C084B58F7702C084B58F7D84BD09C07D
:104320008091B0008F7703C08091B0008F7D809323
:10433000B000892F90E0880F991F82549D4FFC0197
:10434000A591B4918C9120E030E0842311F021E01C
:1043500030E0C901089508951F920F920FB60F9291
:1043600011242F933F934F938F939F93EF93FF933A
:104370008091C00082FD1DC04091C60020917A044A
:1043800030917B042F5F3F4F2F73307080917C04FE
:1043900090917D042817390771F0E0917A04F0912B
:1043A0007B04E65CFB4F408330937B0420937A04CC
:1043B00002C08091C600FF91EF919F918F914F9124
:1043C0003F912F910F900FBE0F901F901895E09185
:1043D000CE04F091CF04E05CFF4F81919191208158
:1043E0003181821B930B8F739070892B11F00E9487
:1043F000AB2108951F920F920FB60F9211242F93A5
:104400003F938F939F93EF93FF932091BE0430913E
:10441000BF048091C0049091C1042817390731F47A
:104420008091C1008F7D8093C10014C0E091C004D1
:10443000F091C104E258FB4F20818091C00490911B
:10444000C10401968F7390709093C1048093C0044F
:104450002093C600FF91EF919F918F913F912F91F3
:104460000F900FBE0F901F901895AF92BF92DF92E2
:10447000EF92FF920F931F93CF93DF93EC017A019A
:104480008B01DD24403081EE580780E0680780E032
:10449000780711F0DD24D39491E0A92EB12CEC899A
:1044A000FD89DD2069F0C50108A002C0880F991FB1
:1044B0000A94E2F7808360E079E08DE390E005C044
:1044C000108260E874E88EE190E0A80197010E94F4
:1044D0004C2C2150304040405040569547953795E0
:1044E000279580E12030380720F0DD2011F0DD2411
:1044F000D6CFE889F9893083EA89FB89208319A21C
:10450000EE89FF89408121E030E0C9010C8C02C0B6
:10451000880F991F0A94E2F7482B4083EE89FF89A0
:104520004081C9010D8C02C0880F991F0A94E2F7DF
:10453000482B4083EE89FF894081C9010E8C02C05F
:10454000880F991F0A94E2F7482B4083EE89FF8970
:1045500080810F8C02C0220F331F0A94E2F720954E
:1045600028232083DF91CF911F910F91FF90EF902F
:10457000DF90BF90AF900895DC011C96ED91FC9107
:104580001D97E05CFF4F2191319180819181281B23
:10459000390B2F733070C9010895DC011C96ED9121
:1045A000FC911D97E05CFF4F20813181E054F04089
:1045B000DF01AE5BBF4F8D919C9111972817390792
:1045C00019F42FEF3FEF07C08D919C91E80FF91F71
:1045D0008081282F30E0C9010895DC011C96ED91FF
:1045E000FC911D97E05CFF4F20813181E054F04049
:1045F000DF01AE5BBF4F8D919C9111972817390752
:1046000019F42FEF3FEF10C08D919C911197E80F97
:10461000F91F20818D919C91119701968F73907055
:1046200011969C938E9330E0C9010895DC01919618
:104630008C919197882339F05496ED91FC91559780
:10464000808186FFF9CF91961C920895CF93DF93D6
:10465000EC01EE85FF85E05CFF4F20813181E05465
:10466000F0402F5F3F4F2F733070DF01AE5BBF4FC5
:104670008D919C91119728173907D1F3E05CFF4F7A
:1046800080819181E054F040E80FF91F6083EE854E
:10469000FF85E05CFF4F31832083EE89FF89208115
:1046A00081E090E00F8C02C0880F991F0A94E2F716
:1046B000282B208381E089A3EC89FD898081806497
:1046C000808381E090E0DF91CF9108951092C5043E
:1046D0001092C40488EE93E0A0E0B0E08093C6049A
:1046E0009093C704A093C804B093C90485EA92E0EC
:1046F0009093C3048093C2048AE394E09093CF0420
:104700008093CE048EE794E09093D1048093D004FC
:1047100085EC90E09093D3048093D20484EC90E0F5
:104720009093D5048093D40480EC90E09093D704C8
:104730008093D60481EC90E09093D9048093D804C0
:1047400082EC90E09093DB048093DA0486EC90E0B6
:104750009093DD048093DC0484E08093DE0483E0A6
:104760008093DF0487E08093E00485E08093E10498
:1047700081E08093E2040895CF93DF930E948A2022
:104780000E949608C7EED1E20E94790D2097E1F3CE
:104790000E94E721F9CFCF92DF92EF92FF920F9321
:1047A0001F93CF93DF937C016B018A01C0E0D0E0BF
:1047B0000FC0D6016D916D01D701ED91FC91019073
:1047C000F081E02DC7010995C80FD91F0150104095
:1047D0000115110571F7CE01DF91CF911F910F9156
:1047E000FF90EF90DF90CF900895EF92FF920F939C
:1047F0001F93CF93DF937C018B01C0E0D0E0F801E1
:104800000F5F1F4F6491662359F0D701ED91FC9122
:104810000190F081E02DC7010995C80FD91FEFCF96
:10482000CE01DF91CF911F910F91FF90EF900895EE
:10483000DC01ED91FC910190F081E02D0995089546
:10484000EF92FF920F931F938C01DC01ED91FC918D
:104850000190F081E02D6DE009957C01D801ED918A
:10486000FC910190F081E02DC8016AE009959C015E
:104870002E0D3F1DC9011F910F91FF90EF900895DC
:10488000EF92FF920F931F937C010E94F5238C01FE
:10489000C7010E9420249C01200F311FC9011F91D4
:1048A0000F91FF90EF900895CF93DF93EC01611586
:1048B000710519F420E030E00FC0DB010D900020FD
:1048C000E9F71197A61BB70BE881F9810280F38104
:1048D000E02DAD0109959C01C901DF91CF910895AB
:1048E0004F925F927F928F929F92AF92BF92CF92A0
:1048F000DF92EF92FF920F931F93DF93CF93CDB789
:10490000DEB7A1970FB6F894DEBF0FBECDBF2C0166
:10491000742ECB01223008F42AE019A231E2C32E12
:10492000D12CCC0EDD1E822E9924AA24BB24672D07
:10493000752FA50194010E944C2C79018A01C801B0
:10494000B701A50194010E94062C472D461B08942F
:10495000C108D1084A3010F4405D01C0495CF6013D
:104960004083E114F1040105110521F07E2C5F2D37
:10497000C801DDCFC201B6010E945424A1960FB632
:10498000F894DEBF0FBECDBFCF91DF911F910F9185
:10499000FF90EF90DF90CF90BF90AF909F908F905F
:1049A0007F905F904F900895DC012115310541F40F
:1049B000ED91FC910190F081E02D642F099508950F
:1049C0000E9470240895EF92FF920F931F937C0131
:1049D0000E94D4248C01C7010E9420249C01200F36
:1049E000311FC9011F910F91FF90EF900895EF9231
:1049F000FF920F931F939A017B0100E010E0B80132
:104A0000A7010E94D4241F910F91FF90EF90089569
:104A1000CF92DF92EF92FF920F931F936C017B0175
:104A20009A0100E010E0B801A7010E94D4248C0193
:104A3000C6010E942024080F191FC8011F910F9161
:104A4000FF90EF90DF90CF900895EF92FF920F9339
:104A50001F939A01E62EFF2400E010E0B801A701A1
:104A60000E94D4241F910F91FF90EF900895CF9250
:104A7000DF92EF92FF920F931F936C01E62E9A0143
:104A8000FF2400E010E0B801A7010E94D4248C01AB
:104A9000C6010E942024080F191FC8011F910F9101
:104AA000FF90EF90DF90CF900895CF92DF92EF923A
:104AB000FF920F931F93CF93DF93EC016A017B0169
:104AC0002115310541F4E881F9810190F081E02D53
:104AD000642F09951FC02A303105D1F477FF17C024
:104AE000E881F9810190F081E02D6DE209958C015A
:104AF00044275527BA014C195D096E097F09CE017B
:104B00002AE00E9470249801280F391F04C02AE06F
:104B10000E9470249C01C901DF91CF911F910F91D8
:104B2000FF90EF90DF90CF900895EF92FF920F9358
:104B30001F937B019A010027F7FC0095102FB80105
:104B4000A7010E9455251F910F91FF90EF900895A6
:104B5000CF92DF92EF92FF920F931F936C017B0134
:104B60009A010027F7FC0095102FB801A7010E94B9
:104B700055258C01C6010E942024080F191FC80169
:104B80001F910F91FF90EF90DF90CF9008950E94BA
:104B9000542408957F928F929F92AF92BF92CF92AA
:104BA000DF92EF92FF920F931F93CF93DF934C010D
:104BB0007A018B01722ECB01BA01A80197010E94E4
:104BC000022C882321F0C4016CE372E021C0C0E014
:104BD000D0E057016801E894D7F8C601B5012FEF7E
:104BE0003FEF4FE75FE70E94022C882351F4C60194
:104BF000B5012FEF3FEF4FE75FE70E944C2A1816F1
:104C000014F0C1E0D0E0219739F0C40160E472E013
:104C10000E945424EC0193C0C801B7012FEF3FEF6D
:104C20004FE75FE40E949B2B181654F0C801B701B0
:104C30002FEF3FEF4FE75FEC0E944C2A882324F4CC
:104C4000C40164E472E0E4CFC801B70120E030E0C1
:104C500040E050E00E944C2A87FD03C0C0E0D0E055
:104C60000EC0D401ED91FC910190F081E02DC401C2
:104C70006DE20995EC0117FB109517F9109520E0EE
:104C800030E040E05FE3DD240BC0CA01B90120E061
:104C900030E040E251E40E94502A9B01AC01D394E1
:104CA000D71498F3C801B7010E94E8295B016C0191
:104CB0000E94BD2A7B018C01C401B801A7012AE032
:104CC00030E00E94D424C80FD91F772039F0C401E6
:104CD00068E472E00E945424C80FD91FC801B701CC
:104CE0000E94E92A9B01AC01C601B5010E94E72997
:104CF00024C020E030E040E251E40E949F2B7B0181
:104D00008C010E94B82A5B016C01CC24B7FCC094D2
:104D1000DC2CC401B601A5012AE030E00E94552533
:104D2000C80FD91FC601B5010E94EB2A9B01AC0137
:104D3000C801B7010E94E7297A947720D1F6CE0105
:104D4000DF91CF911F910F91FF90EF90DF90CF9067
:104D5000BF90AF909F908F907F9008950E94CA253A
:104D60000895EF92FF920F931F937C010E94CA2532
:104D70008C01C7010E942024080F191FC8011F9130
:104D80000F91FF90EF900895EF92FF920F931F9372
:104D90007C010E9454248C01C7010E942024080F2A
:104DA000191FC8011F910F91FF90EF900895FC010A
:104DB000F894A181B28111969C9111978081809580
:104DC000982311969C9378940895FC011386158678
:104DD000148687E090E012863197009711F00197D2
:104DE000FACF0895DC0180E00BC0E82FF0E08D9150
:104DF00090E0E827F927EC5FFC4FE49161508E2F9B
:104E0000662399F70895DF92EF92FF920F931F9315
:104E1000FC01E08001811281F894F8018281DE2C8E
:104E2000D0948D21828381818E29818383E090E0DB
:104E30000E948020F80181818D2181838AE090E0A9
:104E40000E948020F8010081789485E390E00E9420
:104E5000802080E010E0FF240E211F21012B09F0AB
:104E600081E01F910F91FF90EF90DF900895EF92F6
:104E7000FF920F931F93CF93DF937C0101E010E02B
:104E8000C0E0D0E0C7010E9403278111102B000F62
:104E90002196C830D105B1F7812FDF91CF911F91B5
:104EA0000F91FF90EF9008951F93CF93DF93FC0134
:104EB0001081C181D281912F909560FF12C0F8942A
:104EC0008A8189238A838981812B89838AE090E082
:104ED0000E9480208A81812B8A83789487E390E0E6
:104EE00011C0F8948A8189238A838981812B8983DF
:104EF00081E490E00E9480208A81812B8A837894CB
:104F000085E090E00E948020DF91CF911F9108956D
:104F1000CF92DF92EF92FF920F931F93CF93DF9385
:104F20008C01E42EFF24F394C0E0D0E0C62EDD24F3
:104F300060E08F2D90E08C219D21892B09F061E0AC
:104F4000C8010E945427FF0C2196C830D10581F773
:104F5000EE20A9F4F894D8011196ED91FC911297E6
:104F600091818C918095982391831196ED91FC917C
:104F7000129792818C918095982392837894DF91F7
:104F8000CF911F910F91FF90EF90DF90CF900895F8
:104F90006CEC40E00E9488270895EF92FF920F93F7
:104FA0001F93CF93DF938C017B0165E540E00E9466
:104FB0008827C0E0D0E0F701EC0FFD1FC801608139
:104FC00040E00E9488272196C830D105A1F7DF91E3
:104FD000CF911F910F91FF90EF900895DF92EF9284
:104FE000FF920F931F93CF93DF93FC010081C18148
:104FF000D281F8948981D02ED0948D2189837894A0
:105000001DE7E02EFF24115059F182E090E00E944C
:105010008020888190E08E219F21892BA1F3F89434
:105020008A818D218A838981802B8983789484EF7A
:1050300091E00E948020F89489818D21898380E508
:1050400090E00E948020888110E090E0E822F92220
:10505000EF2809F411E0789484EA91E00E9480201E
:10506000812FDF91CF911F910F91FF90EF90DF90F3
:105070000895AF92BF92DF92EF92FF920F931F932A
:10508000CF93DF93EC015B018D85882309F061C02C
:10509000CE010E94EE27882329F41B861D861C86DC
:1050A00090E06BC0CE0160EF40E00E94882701E0F5
:1050B000DD24EE24FF24F394CE010E940327182F51
:1050C000CE010E940327113019F48130E1F439C078
:1050D000181709F58B85081770F460E0FE01EE0DD6
:1050E000F11D838190E02F2D30E082239323181649
:1050F00019064CF003C060E0081729F0093008F0E9
:105100004CC00C874AC0FE01EE0DF11D83818F2932
:10511000838361E009C0612FFE01EE0DF11D9F2D1B
:105120009095838189238383CE010E9454270F5F4A
:10513000FF0C19F4E394FF24F39487E08E1508F034
:10514000BBCF013430F0DB86DD2011F581E08D87A7
:105150001FC01B861D861C8690E0DE0120E030E02B
:10516000F501E20FF31F13968C91139780832F5F45
:105170003F4F11962830310599F7892FDF91CF9154
:105180001F910F91FF90EF90DF90BF90AF90089527
:105190008B818823F1F291E0E0CFD02EBDCFFF923A
:1051A0000F931F938C01F62E862F60E00E94C5207E
:1051B0008F2D90E0FC01E452FD4FE491D801EC9377
:1051C00088539D4FFC016491E62FF0E0EE0FFF1F26
:1051D000E254FD4F8591949112969C938E93119772
:1051E0001B961C921B971D961C921D971C961C9239
:1051F000F80187E090E012863197009711F001974F
:10520000FACF1F910F91FF9008950F931F93CF93A3
:10521000DF938C01EB0180E06115710509F081E0FD
:10522000F8018283882341F00E94F31F2197C60F63
:10523000D71FF801D183C083DF91CF911F910F91C8
:1052400008950F931F93FC018281882359F00081F8
:1052500011810E94F31F9801261B370B8AEE21361D
:10526000380710F020E030E0C9011F910F91089538
:10527000EF92FF920F931F93CF93DF93EC017B018B
:105280008A81882311F400E00FC0088119810E94EF
:10529000F31FC801861B970B2AEE8136920710F484
:1052A00000E006C0082F0195CE01B7010E94052934
:1052B000802FDF91CF911F910F91FF90EF90089574
:1052C00080913305089560932B0570932C0580938E
:1052D0002D0590932E052091670230916802409130
:1052E000690250916A02260F371F481F591F2093E9
:1052F0002F0530933005409331055093320582E0FD
:10530000809333050E94F31F609334057093350535
:10531000809336059093370508951F920F920FB62C
:105320000F9211242F933F934F935F936F937F932B
:105330008F939F93AF93BF93EF93FF938091380523
:1053400090913905892B29F0E0913805F0913905C4
:105350000995FF91EF91BF91AF919F918F917F91AF
:105360006F915F914F913F912F910F900FBE0F90D2
:105370001F9018951F920F920FB60F9211242F9322
:105380003F934F935F936F937F938F939F93AF93CD
:10539000BF93EF93FF9380913A0590913B05892B42
:1053A00029F0E0913A05F0913B050995FF91EF91C5
:1053B000BF91AF919F918F917F916F915F914F912D
:1053C0003F912F910F900FBE0F901F90189550583E
:1053D000BB27AA270ED075C166D130F06BD120F063
:1053E00031F49F3F11F41EF45BC10EF4E095E7FB2E
:1053F00051C1E92F77D180F3BA1762077307840789
:10540000950718F071F49EF58FC10EF4E0950B2E00
:10541000BA2FA02D0B01B90190010C01CA01A00106
:105420001124FF27591B99F0593F50F4503E68F161
:105430001A16F040A22F232F342F4427585FF3CFA2
:10544000469537952795A795F0405395C9F77EF473
:105450001F16BA0B620B730B840BBAF09150A1F0BC
:10546000FF0FBB1F661F771F881FC2F70EC0BA0F42
:10547000621F731F841F48F4879577956795B795CA
:10548000F7959E3F08F0B3CF9395880F08F09927C2
:10549000EE0F979587950895D9D008F481E0089587
:1054A0000CD00FC107D140F0FED030F021F45F3FA7
:1054B00019F0F0C0511139C1F3C014D198F39923F8
:1054C000C9F35523B1F3951B550BBB27AA276217C8
:1054D0007307840738F09F5F5F4F220F331F441F0D
:1054E000AA1FA9F333D00E2E3AF0E0E830D0915045
:1054F0005040E695001CCAF729D0FE2F27D0660F32
:10550000771F881FBB1F261737074807AB07B0E870
:1055100009F0BB0B802DBF01FF2793585F4F2AF086
:105520009E3F510568F0B6C000C15F3FECF3983E66
:10553000DCF3869577956795B795F7959F5FC9F7E3
:10554000880F911D9695879597F90895E1E0660F6C
:10555000771F881FBB1F621773078407BA0720F0E5
:10556000621B730B840BBA0BEE1F88F7E09508954E
:1055700004D06894B111D9C00895BCD088F09F5769
:1055800090F0B92F9927B751A0F0D1F0660F771F8F
:10559000881F991F1AF0BA95C9F712C0B13081F06F
:1055A000C3D0B1E00895C0C0672F782F8827B85FB7
:1055B00039F0B93FCCF3869577956795B395D9F7D0
:1055C0003EF490958095709561957F4F8F4F9F4FDA
:1055D0000895E89409C097FB3EF4909580957095E6
:1055E00061957F4F8F4F9F4F9923A9F0F92F96E92F
:1055F000BB279395F695879577956795B795F111A4
:10560000F8CFFAF4BB0F11F460FF1BC06F5F7F4F40
:105610008F4F9F4F16C0882311F096E911C0772352
:1056200021F09EE8872F762F05C0662371F096E85B
:10563000862F70E060E02AF09A95660F771F881F2A
:10564000DAF7880F9695879597F90895990F0008CE
:10565000550FAA0BE0E8FEEF16161706E807F90744
:10566000C0F012161306E407F50798F0621B730BDF
:10567000840B950B39F40A2661F0232B242B252B60
:1056800021F408950A2609F4A140A6958FEF811D03
:10569000811D089597F99F6780E870E060E00895A4
:1056A0009FEF80EC089500240A941616170618063A
:1056B0000906089500240A94121613061406050616
:1056C0000895092E0394000C11F4882352F0BB0FA7
:1056D00040F4BF2B11F460FF04C06F5F7F4F8F4F0A
:1056E0009F4F089557FD9058440F551F59F05F3F45
:1056F00071F04795880F97FB991F61F09F3F79F0F4
:1057000087950895121613061406551FF2CF469575
:10571000F1DF08C0161617061806991FF1CF8695F7
:105720007105610508940895E894BB2766277727DB
:10573000CB0197F908958ADF08F48FEF08950BD015
:10574000C0CFB1DF28F0B6DF18F0952309F0A2CF63
:10575000A7CF1124EACFC6DFA0F3959FD1F3950F11
:1057600050E0551F629FF001729FBB27F00DB11DE5
:10577000639FAA27F00DB11DAA1F649F6627B00D75
:10578000A11D661F829F2227B00DA11D621F739F5E
:10579000B00DA11D621F839FA00D611D221F749F6C
:1057A0003327A00D611D231F849F600D211D822FB3
:1057B000762F6A2F11249F5750408AF0E1F08823FA
:1057C0004AF0EE0FFF1FBB1F661F771F881F915007
:1057D0005040A9F79E3F510570F05CCFA6CF5F3FC8
:1057E000ECF3983EDCF3869577956795B795F7953A
:1057F000E7959F5FC1F7FE2B880F911D96958795C2
:1058000097F9089523DF880B990B0895629FD001C3
:10581000739FF001829FE00DF11D649FE00DF11D6B
:10582000929FF00D839FF00D749FF00D659FF00D1A
:105830009927729FB00DE11DF91F639FB00DE11D07
:10584000F91FBD01CF0111240895AA1BBB1B51E113
:1058500007C0AA1FBB1FA617B70710F0A61BB70BE0
:10586000881F991F5A95A9F780959095BC01CD0185
:10587000089597FB092E07260AD077FD04D0E5DFAF
:1058800006D000201AF4709561957F4F0895F6F7C1
:10589000909581959F4F0895A1E21A2EAA1BBB1BDC
:1058A000FD010DC0AA1FBB1FEE1FFF1FA217B307EC
:1058B000E407F50720F0A21BB30BE40BF50B661F02
:1058C000771F881F991F1A9469F7609570958095C6
:1058D00090959B01AC01BD01CF010895EE0FFF1F14
:1058E0000590F491E02D09942F923F924F925F9290
:1058F0006F927F928F929F92AF92BF92CF92DF92E0
:10590000EF92FF920F931F93CF93DF93CDB7DEB744
:10591000CA1BDB0B0FB6F894DEBF0FBECDBF0994D8
:105920002A88398848885F846E847D848C849B842F
:10593000AA84B984C884DF80EE80FD800C811B813D
:10594000AA81B981CE0FD11D0FB6F894DEBF0FBE6C
:0A595000CDBFED010895F894FFCFDC
:10595A004261726F6D657465723A20005620006D5F
:10596A006261720048756D69646974793A2000252C
:10597A0072680057696E642056616E653A2000208D
:10598A00646567726565730057696E64206176673E
:10599A003A2064636E743D002064743D00206D708B
:1059AA00683D005261696E20726174653A20300068
:1059BA005261696E20726174653A2064636E743D47
:1059CA0000203130302A696E2F68723D00426172C0
:1059DA006F3A005F25303364005F2E2E2E002F258C
:1059EA003033640067253033640074253033640033
:1059FA0072253033640070253033640062253035F7
:105A0A00640068253032640058317700416E656D54
:105A1A006F3A20006D7068206D61783A20006D70D1
:105A2A006800445332343338204000205661643DC4
:105A3A000056004453323433382D3E0020567365E5
:105A4A006E73653D006D560054696D65206E6F7406
:105A5A00207365740020004E657454696D65206377
:105A6A006F6E66696775726564003078002020235E
:105A7A00003A20002000202023003A2000206E6FE8
:105A8A00773A0046206D696E3A002C006E616E000E
:105A9A00696E66006F7666002E00200040050000E1
:105AAA00016D03B03CFFFF0F1401000000CA0200A1
:105ABA00006803C30300002C010000000000000C72
:105ACA0013CB234B1278124D12FCFF000074124CB8
