:100000000C9453020C948B270C94B8270C947B020D
:100010000C947B020C947B020C947B020C947B026C
:100020000C947B020C947B020C947B020C947B025C
:100030000C947B020C947B020C947B020C947B024C
:100040000C94D8150C947B020C94D9170C94271897
:100050000C947B020C947B020C947B020C947B022C
:100060000C947B020C947B022A2A2A2A2A205255BD
:100070004E4E494E473A20736565645F6E6F646506
:100080002E696E6F002A2A2A2A2A20534554555079
:100090003A20736565645F6E6F64652E696E6F00EC
:1000A000206E6F7420666F756E6420696E20636FBA
:1000B0006E6669675F7265616400436F6E6669674B
:1000C0003A206D6F64756C652000206E6F74206639
:1000D0006F756E6420696E20636F6E6669675F7707
:1000E0007269746500436F6E6669673A206D6F646C
:1000F000756C6520002020435243206D6174636855
:1001000065732100202043524320646F6573206E85
:100110006F74206D61746368210020627974657367
:1001200000206D617829002076732E2000746820ED
:100130006D6F64756C6520697320746F6F206C61DE
:10014000726765202800434F4E4649473A2074683D
:10015000652073697A65206F662074686520636F17
:100160006E66696720666F72207468652000206380
:100170006F6E666967732000436F6E6669673A2029
:10018000002074696D650020657468002072663116
:100190003200206C6364002073657269616C0043F7
:1001A0006F6E666967204C6F673A00202072656445
:1001B0007563696E6720747820706F77657220614F
:1001C0006E64207278206761696E002075756964BD
:1001D0003D3078002067726F75705F69643D004341
:1001E0006F6E666967204E65743A206E6F64655F56
:1001F00069643D00436F6E6669673A20004E65741E
:100200003A207570646174696E67206E6F64655F13
:10021000696420746F20004E65743A2073656E64C3
:10022000696E6720616E6E6F756E63656D656E7465
:100230000054696D6520696E697469616C697A65DD
:1002400064004F57543A20476F6F642064617461B3
:1002500020666F7220004F57543A20426164206438
:1002600061746120666F7220004F57543A204261DA
:100270006420435243202020666F722000436F6E3B
:10028000666967204F7754656D703A2072657374A4
:100290006F7265642061646472732066726F6D2092
:1002A000454550524F4D00206D61783A00732C2027
:1002B0006D696E4D6178436F756E743A0020736599
:1002C0006E736F72732C206D696E4D617854696D19
:1002D00065723A004F7754656D7020686173200035
:1002E0002073656E736F7273004F7754656D702065
:1002F0007265616479207769746820004F7754656E
:100300006D70204D697373696E672073656E736FCE
:1003100072733A004F7754656D70204E6577207385
:10032000656E736F72733A20202020004F775465FA
:100330006D70207365747570207374617274696E6A
:100340006720776974683A000000000024002700E5
:100350002A0000000000250028002B0000000000FB
:1003600023002600290004040404040404040202F7
:100370000202020203030303030301020408102024
:10038000408001020408102001020408102000002F
:100390000007000201000003040600000000000046
:1003A0000000005EBCE2613FDD83C29C7E20A3FDB5
:1003B0001F419DC3217FFCA2401E5F01E3BD3E6043
:1003C00082DC237D9FC1421CFEA0E1BF5D0380DE75
:1003D0003C62BEE0025CDF81633D7C22C09E1D4327
:1003E000A1FF4618FAA427799BC584DA3866E5BBD5
:1003F0005907DB856739BAE406581947A5FB782603
:10040000C49A653BD987045AB8E6A7F91B45C69834
:100410007A24F8A6441A99C7257B3A6486D85B05E6
:10042000E7B98CD2306EEDB3510F4E10F2AC2F7194
:1004300093CD114FADF3702ECC92D38D6F31B2ECC2
:100440000E50AFF1134DCE90722C6D33D18F0C52F4
:10045000B0EE326C8ED0530DEFB1F0AE4C1291CFA6
:100460002D73CA947628ABF517490856B4EA693754
:10047000D58B5709EBB536688AD495CB2977F4AA82
:100480004816E9B7550B88D6346A2B7597C94A14B4
:10049000F6A8742AC896154BA9F7B6E80A54D78966
:1004A0006B352306931911241FBECFEFD8E0DEBFB2
:1004B000CDBF12E0A0E0B1E0EEE7F4E502C00590A8
:1004C0000D92AA35B107D9F715E0AAE5B2E001C04F
:1004D0001D92A834B107E1F714E0C6EAD4E004C0E5
:1004E0002297FE010E94022AC23AD107C9F70E9450
:1004F000E9190C943D2A0C940000EF92FF920F939F
:10050000DF93CF93CDB7DEB760970FB6F894DEBF19
:100510000FBECDBFA82F002309F461C07E0108944F
:10052000E11CF11C88E0F70111928A95E9F7298313
:100530003A834B835C836D837E83AF83988780E2AD
:10054000801BE82FFF27E7FDF0954D815E816F81CD
:100550007885181684F01D861E861F86188A8827BF
:1005600099278E1B9F0B04C07695679557954795E5
:100570008A95D2F728C0202F332727FD3095DB013D
:10058000CA01022E04C0B695A795979587950A943F
:10059000D2F78D879E87AF87B88B04C0440F551F55
:1005A000661F771FEA95D2F789819A81AB81BC815A
:1005B00004C0B695A795979587952A95D2F7482BAD
:1005C000592B6A2B7B2B49875A876B877C87298518
:1005D0003A854B855C856D857E85AF8598898A2FA8
:1005E00060960FB6F894DEBF0FBECDBFCF91DF91FE
:1005F0000F91FF90EF9008950F931F93CF93DF9388
:10060000689F8001699F100D789F100D1124C8010B
:100610000E94CE26EC01009729F060E070E0A8016E
:100620000E942103CE01DF91CF911F910F91089578
:10063000FB01DC0102C001900D9241505040D8F7FF
:100640000895DC0101C06D9341505040E0F70895DA
:10065000A0E0B0E0EEE2F3E00C94102A7C01EB01A4
:100660008A01690109C0CE012196F6010995F701B9
:1006700081937F010150104001151105A1F7CDB7FD
:10068000DEB7E8E00C942C2AA0E0B0E0EAE4F3E066
:100690000C94102AEC017B018A01690109C0CE018A
:1006A0002196F70161917F01F601099501501040F3
:1006B00001151105A1F7CDB7DEB7E8E00C942C2A9F
:1006C000DF92EF92FF920F931F93D72E7A018C0146
:1006D000FA010995C80101966D2DF70109951F9141
:1006E0000F91FF90EF90DF900895AEE0B0E0EBE760
:1006F000F3E00C94142A0D891E898F89988D97FF39
:1007000002C080E090E801979E838D831A8309835D
:1007100086E08C839E01255E3F4FCE010196698D58
:100720007A8DA9010E94A6034D815E8157FD0AC002
:100730002F813885421753070CF49A01020F131FBB
:10074000F80110822E96E4E00C94302AABE0B0E081
:10075000ECEAF3E00C94062A3C012B015A01FC015F
:1007600017821682838181FD03C06FEF7FEFC6C1C0
:100770009AE0892E1E010894211C311CF30123816B
:10078000F20123FD859123FF81912F01882309F434
:10079000B2C1853239F423FD859123FF81912F0168
:1007A000853229F490E0B3010E949905E7CF982F94
:1007B000FF24EE249924FFE1FF15D0F09B3269F06D
:1007C0009C3228F4903259F0933291F40EC09D324D
:1007D00049F0903369F441E024C052E0F52A84E006
:1007E000F82A28C098E0F92A25C0E0E1FE2A22C0B4
:1007F000F7FC29C0892F80538A3070F4F6FE05C0BB
:10080000989C902C1124980E15C0E89CE02C112483
:10081000E80EF0E2FF2A0EC09E3229F4F6FC6BC10E
:1008200040E4F42A07C09C3619F450E8F52A02C0C7
:10083000983649F4F20123FD959123FF91912F0100
:10084000992309F0B8CF892F8554833018F080524E
:10085000833038F444E050E0A40EB51E5FE35983C2
:100860000FC0933631F0933779F0933509F056C0C5
:1008700020C0F5018081898342E050E0A40EB51EBE
:10088000610101E010E012C0F501C080D180F6FCEA
:1008900003C06FEF7FEF02C0692D70E042E050E0CF
:1008A000A40EB51EC6010E948E058C015FE7F522DD
:1008B00014C0F501C080D180F6FC03C06FEF7FEF5C
:1008C00002C0692D70E042E050E0A40EB51EC601E2
:1008D0000E9483058C0150E8F52AF3FE07C01AC078
:1008E00080E290E0B3010E949905EA948E2D90E099
:1008F00008171907A8F30EC0F601F7FC8591F7FE5B
:1009000081916F0190E0B3010E949905E110EA9492
:10091000015010400115110579F7EAC0943611F025
:10092000993669F5F7FE08C0F501208131814281D1
:10093000538184E090E00AC0F501808191819C019F
:10094000442737FD4095542F82E090E0A80EB91E51
:100950009FE6F92257FF09C05095409530952195A3
:100960003F4F4F4F5F4FE0E8FE2ACA01B901A10196
:100970002AE030E00E94C505D82ED21840C0953735
:1009800029F41F2D1F7E2AE030E01DC01F2D197F86
:100990009F3661F0903720F4983509F0ACC00FC055
:1009A000903739F0983709F0A6C004C028E030E04D
:1009B0000AC0106114FD146020E130E004C014FD91
:1009C000166020E132E017FF08C0F50160817181F7
:1009D0008281938144E050E008C0F50180819181DB
:1009E000BC0180E090E042E050E0A40EB51EA10101
:1009F0000E94C505D82ED2188FE7F82EF122F6FEF8
:100A00000BC05EEFF522D91438F4F4FE07C0F2FCF7
:100A100005C08FEEF82202C01D2D01C0192DF4FE75
:100A20000DC0FE01ED0DF11D8081803319F499EEAA
:100A3000F92208C01F5FF2FE05C003C08F2D867823
:100A400009F01F5F0F2DF3FC14C0F0FE0FC01E1540
:100A500010F09D2C0BC09D2C9E0C911A1E2D06C0D3
:100A600080E290E0B3010E9499051F5F1E15C0F35C
:100A700004C01E1510F4E11A01C0EE2404FF0FC0DB
:100A800080E390E0B3010E94990502FF1DC001FDC3
:100A900003C088E790E00EC088E590E00BC0802F8F
:100AA000867891F001FF02C08BE201C080E2F7FC82
:100AB0008DE290E0B3010E94990506C080E390E0CA
:100AC000B3010E9499059A94D914C0F3DA94F10104
:100AD000ED0DF11D808190E0B3010E949905DD20AC
:100AE000A9F706C080E290E0B3010E949905EA945C
:100AF000EE20C1F743CEF30166817781CB012B96BF
:100B0000E2E10C94222AFC01059061507040011032
:100B1000D8F7809590958E0F9F1F0895FC01615026
:100B2000704001900110D8F7809590958E0F9F1F0F
:100B300008950F931F93CF93DF938C01EB018B816B
:100B400081FF1BC082FF0DC02E813F818C819D8162
:100B50002817390764F4E881F9810193F983E88360
:100B600006C0E885F985802F0995892B31F48E819F
:100B70009F8101969F838E8302C00FEF1FEFC801F4
:100B8000DF91CF911F910F910895FA01AA27283084
:100B900051F1203181F1E8946F936E7F6E5F7F4F4A
:100BA0008F4F9F4FAF4FB1E03ED0B4E03CD0670FC6
:100BB000781F891F9A1FA11D680F791F8A1F911D19
:100BC000A11D6A0F711D811D911DA11D20D009F469
:100BD00068943F912AE0269F11243019305D3193AB
:100BE000DEF6CF010895462F4770405D4193B3E094
:100BF0000FD0C9F7F6CF462F4F70405D4A3318F03B
:100C0000495D31FD4052419302D0A9F7EACFB4E0EB
:100C1000A6959795879577956795BA95C9F70097A3
:100C20006105710508959B01AC010A2E0694579544
:100C3000479537952795BA95C9F7620F731F841F9B
:100C4000951FA01D08958AE592E062E041E00E94B0
:100C500061208CE592E06AE572E044E20E9476222F
:100C600089E692E064ED41E00E94500C8CE893E04C
:100C70000E94B90E81E993E00E94920A8DED93E003
:100C800066E042E00E94B1151092070410920A0437
:100C900081E0809311048091D5019091D601009755
:100CA00019F480E090E001C004969093DF018093F6
:100CB000DE0108954F925F926F927F928F929F9282
:100CC000AF92BF92CF92DF92EF92FF920F931F935A
:100CD000DF93CF9300D000D0CDB7DEB78DED93E09A
:100CE00060E00E94F50E4B015C01A50194010E9499
:100CF0009429882309F084C00E946A1F823009F079
:100D00007FC00E94971F0091D7011091D8012091B8
:100D1000D9013091DA01200F311F6901EE24FF243F
:100D2000C982DA82EB82FC82A70196010E94DE2949
:100D30006B017C0128016624772410E0C414D504DB
:100D4000E604F70408F411E000910C040023B1F468
:100D50001123C9F010E06091DB0170E0882777FD76
:100D60008095982F0E947D289B01AC01C501B4019C
:100D70000E942D2918163CF411E002C0112319F02D
:100D8000A301920104C029813A814B815C812C1915
:100D90003D094E095F0920930D0430930E044093E2
:100DA0000F0450931004101759F1809111048823F7
:100DB00011F482E101C08D5F612F0E943117809193
:100DC0001104882311F482E101C08D5F61E00E946B
:100DD000F2168091D5019091D60160E071E00E94F9
:100DE000E01B8091D5019091D601112319F461E1A6
:100DF00071E002C065E171E00E94E31B10930C04F6
:100E00000F900F900F900F90CF91DF911F910F9146
:100E1000FF90EF90DF90CF90BF90AF909F908F901A
:100E20007F906F905F904F9008954F925F926F9276
:100E30007F928F929F92AF92BF92CF92DF92EF926A
:100E4000FF920F931F93DF93CF93CDB7DEB76197D8
:100E50000FB6F894DEBF0FBECDBF89E692E00E94C8
:100E6000500E8823B9F00E94872380930B0480E002
:100E700090E060E00E94AF088AEA94E068E171E0E7
:100E80000E94E01B8AEA94E060910B044AE050E083
:100E90000E94501B8DED93E064E10E9487110E9437
:100EA0006A1F8230E1F085E094E060E67AEE0E940D
:100EB000F220882309F4C2C08091D5019091D60117
:100EC00062E271E00E94E31B8CE592E060E041E0A9
:100ED0000E942D218CE592E062E271E0ADC00E949B
:100EE0005A0688E094E068EE73E00E94F2208823BE
:100EF00009F4A4C08CE592E00E94F6218CE592E012
:100F00006FE271E00E94E01B8DED93E060E00E94D3
:100F1000F50E0E944A289B01AC018CE592E0B901D4
:100F20004AE050E00E94AE1B8CE592E062E371E083
:100F30000E94E01B80910C04882329F08CE592E04C
:100F400064E371E004C08CE592E069E371E00E9423
:100F5000E01B40910D0450910E0460910F047091BC
:100F600010048CE592E02AE030E00E94011B0E9410
:100F7000971F2B013C010E94581F80FD03C095EA7A
:100F8000892E02C08AE3882E90900B04C301B2011F
:100F90000E944C1F5C01C301B2010E94521F6C01F0
:100FA000C301B2010E94641F7C01C301B2010E940F
:100FB0005E1F2DB73EB7225130400FB6F8943EBFAA
:100FC0000FBE2DBFEDB7FEB731968E010F5F1F4FDD
:100FD000ADB7BEB712961C930E93119721E130E086
:100FE000338322832EE331E0358324839682178274
:100FF000B186A086D386C286F586E4868686178665
:10100000918B808B0E947503F80101900020E9F715
:101010002DB73EB72E5E3F4F0FB6F8943EBF0FBEC2
:101020002DBF602F6E1B6F5E8CE592E041E00E9449
:101030002D218CE592E0B8010E94E01B61960FB66D
:10104000F894DEBF0FBECDBFCF91DF911F910F91FE
:10105000FF90EF90DF90CF90BF90AF909F908F90D8
:101060007F906F905F904F90089580911104882336
:1010700011F482E101C08D5F60E00E943117809120
:101080001104882311F482E101C08D5F61E00E94A8
:10109000F21680911104882311F483E101C0835F6B
:1010A00060E00E94311780911104882311F483E1DC
:1010B00001C0835F61E00E94F21608950F931F93B1
:1010C0000AEA14E0C80140E051EE60E070E00E94DE
:1010D0006218C80165E870E00E946D1A8CED91E01D
:1010E0000E9448090CE512E0C80160E142E020E0FE
:1010F0000E94FE21C80167E571E00E94E01B60913B
:10110000D5017091D6018DED93E00E941B130E94D2
:10111000350885E094E068EE73E00E94D620809167
:10112000D5019091D60168E670E00E946D1A1F917A
:101130000F9108959C01F999FECF32BD21BDF89A17
:1011400080B508959C01F999FECF1FBA32BD21BD2B
:1011500060BD0FB6F894FA9AF99A0FBE0895CF932E
:10116000DF93EC01462F009721F44091F104C2EF88
:10117000D4E04423F9F0388120911404E091120462
:10118000F091130490E014C0A191B19112968C914A
:101190001297831761F4ED91FC91119721964150BC
:1011A0000280F381E02DCD01BE01099503C09F5F50
:1011B000921750F3DF91CF9108951F93182F5091FC
:1011C0001404A0911204B091130420E230E090E0E6
:1011D00047C0ED91FD9182814381811709F03DC0A7
:1011E000C90150E022EA38E00E944403409115040E
:1011F00050911604FA01329720E030E06FEF7FEF54
:1012000021C0F999FECF205E3F4F32BD21BDF89A33
:1012100080B56827862F82958627082E8695869525
:101220008025082E869580258770062E672F869547
:1012300007948795702D68270694879570256827F1
:101240002F5130402E173F0708F4DBCFCA014E96CE
:1012500042EA58E00E94600319C0240F311D9F5FCD
:10126000951708F4B6CF8AEA94E065EE70E00E9424
:10127000221A8AEA94E0612F4AE050E00E943E1B65
:101280008AEA94E06AEC70E00E946D1A1F9108955A
:101290008F929F92AF92BF92DF92EF92FF920F9345
:1012A0001F93DF93CF93CDB7DEB7C054D0400FB6B6
:1012B000F894DEBF0FBECDBF5C0120E0322F3F5F50
:1012C000E22FF0E0EE0FFF1FEA0DFB1D8081918100
:1012D000892B11F0232FF2CF20931404B092130422
:1012E000A09212048AEA94E068E771E00E94221A50
:1012F0008AEA94E0609114044AE050E00E943E1BA8
:101300008AEA94E06EE671E00E94221A10921604B6
:1013100010921504EE244EC00E2D10E0F801EE0FD1
:10132000FF1FEA0DFB1D0190F081E02DF38080E4AA
:101330008F15A8F58AEA94E00E944D1A8AEA94E093
:1013400066E471E00E94221A0F5F1F4F8AEA94E060
:10135000B8014AE050E00E94AE1B8AEA94E06DE2D8
:1013600071E00E94221A8AEA94E06F2D4AE050E070
:101370000E943E1B8AEA94E067E271E00E94221A12
:101380008AEA94E060E470E04AE050E00E94AE1B1C
:101390008AEA94E061E271E00E946D1A0AC08091CD
:1013A0001504909116048F0D911D9093160480934F
:1013B0001504E39480911404E81608F4ADCF60910D
:1013C0001504709116046E5F7F4F7093160460933E
:1013D00015048AEA94E04AE050E00E94101B8AEA71
:1013E00094E06AE171E00E946D1A609115047091B9
:1013F000160420E030E04FEF5FEF21C0F999FECFF7
:10140000205E3F4F32BD21BDF89A80B54827842F1A
:1014100082958427082E869586958025082E8695A8
:1014200080258770042E452F869507948795502D2B
:10143000482706948795502548272F513040261776
:10144000370708F4DBCF452B01F18AEA94E064E02A
:1014500071E00E946D1A10E013C0E12FF0E0EE0F72
:10146000FF1FEA0DFB1DA081B181ED91FC91119749
:101470000190F081E02DCD0160E070E009951F5FE3
:1014800080911404181748F337C08AEA94E065EF96
:1014900070E00E946D1A90E2E92EF12CDD244E01DD
:1014A0000894811C911C24C00D2D10E0000F111F09
:1014B0000A0D1B1DD801ED91FC914381C401B701B8
:1014C00050E02AE938E00E942803F801A081B181A8
:1014D000ED91FC9111970190F081E02DCD01B401C7
:1014E0000995D801ED91FC918381E80EF11CD3940C
:1014F00080911404D816C0F2C05CDF4F0FB6F89488
:10150000DEBF0FBECDBFCF91DF911F910F91FF9036
:10151000EF90DF90BF90AF909F908F9008950895C7
:1015200008950895FC011382128283EF91E0918364
:1015300080830E9695838483E55BFF4F1082EB5486
:10154000F04082E0868381E0878380E0816080874D
:10155000089504970E94AD0A0895CF93DF93EC019C
:10156000FB01BC01685F7F4F309719F0808188874D
:1015700006C080E08560888782E00E94DD088AEAF4
:1015800094E06FE971E00E94221A888580FF06C00E
:101590008AEA94E067E971E00E94221A888581FF57
:1015A00006C08AEA94E062E971E00E94221A888506
:1015B00082FF06C08AEA94E06CE871E00E94221A79
:1015C000888583FF06C08AEA94E067E871E00E949C
:1015D000221A888584FF06C08AEA94E061E871E0F7
:1015E0000E94221A8AEA94E00E944D1ADF91CF915C
:1015F00008950F931F93CF93DF93EC018C01055B4C
:101600001F4FD8018C91FE01E80FF11D11868885CE
:1016100080FF16C0BE01675F7F4F8AEA94E00E9498
:10162000E01BF8018081882359F0FE01E80FF11DCD
:1016300080858A3029F48AEA94E06DE00E94451A98
:10164000888582FF1EC089E692E00E947E0B00978B
:10165000C1F0FC0182E081938E01055B1F4FD80130
:101660004C919E01275F3F4FCF01B90150E00E948E
:101670001803F80160816F5F89E692E041E00E9403
:10168000460E888583FF0EC0E881F981BE01675F41
:101690007F4FDE01A55BBF4F0480F581E02DCE01B9
:1016A0004C910995C55BDF4F1882DF91CF911F9157
:1016B0000F9108951F93CF93DF93EC01162FC55B15
:1016C000DF4F8881CB54D040813418F0CE010E9486
:1016D000F90ADE01A55BBF4F8C91FE01E80FF11DF9
:1016E00011878F5F8C931A3019F4CE010E94F90A8A
:1016F00081E090E0DF91CF911F910895FC018091EE
:1017000017048823A1F0809118048E3181F0EC5EDB
:10171000FE4F9081E451F140943048F484E4989F66
:10172000900111242A5F3F4F2E0F3F1F02C020E07F
:1017300030E0C9010895EF92FF920F931F938C013F
:10174000609318048AEA94E06FED71E00E94221A17
:101750008AEA94E0609118044AE050E00E943E1B3F
:101760008AEA94E064ED71E00E94221A81E2E82E98
:1017700081E0F82EE00EF11E8AEA94E0F701608124
:101780004AE050E00E943E1B8AEA94E06BEC71E074
:101790000E94221A055E1E4FF801608171818AEA5B
:1017A00094E040E150E00E94211B8091180463E026
:1017B000F70140810E949A26095F1F4FF80180813E
:1017C000882371F08AEA94E06BEA71E00E946D1A56
:1017D00087E598E90E94B32282EB94E90E94B32244
:1017E0001F910F91FF90EF9008950F931F93DF9338
:1017F000CF9300D000D0CDB7DEB78C01FB014430D1
:1018000009F045C0055E1E4F20813181D8018D91C0
:101810009C910B51114028173907C9F58381882302
:1018200019F0813031F403C01092170402C0809384
:101830001704928180911804891749F1828180935D
:1018400018048AEA94E06DEF71E00E94221A8AEA95
:1018500094E0609118044AE050E00E94501BC801D7
:10186000609118040E949B0B8091180489838091D9
:1018700017048A83055E1E4FF801808191819C8345
:101880008B8381E0BE016F5F7F4F0E94DD080F9068
:101890000F900F900F90CF91DF911F910F910895AE
:1018A000CF93DF93EC0189E092E099838883CF5D49
:1018B000DE4F69934883C252D1400E942016FE0138
:1018C000E35EFE4F608371838283938361157105AC
:1018D0008105910541F481E090E0A0E0B0E08083D3
:1018E0009183A283B38381E08A8384E08B83DF9139
:1018F000CF9108950F931F93DF93CF9300D00F9252
:10190000CDB7DEB78C010E94DE23882309F448C0DE
:10191000FE01319683E0DF011D928A95E9F781E0AF
:101920008983055E1E4FD8018D919C910B5111400A
:101930009B838A8380911804BF0143E00E94DE25C7
:101940000E9420169B01AC01809118048E3129F071
:1019500060E27EE480E090E004C064EF71E080E04B
:1019600090E0DC01CB01820F931FA41FB51FF8018B
:10197000E35EFE4F80839183A283B3830097A1052A
:10198000B10541F481E090E0A0E0B0E08083918374
:10199000A283B3838AEA94E067E172E00E946D1A41
:1019A0000F900F900F90CF91DF911F910F9108959D
:1019B000CF92DF92EF92FF920F931F93DF93CF931B
:1019C000CDB7DEB77C01CDB6DEB6FB018B0161156C
:1019D000710509F180818E31F1F08AEA94E064EFBB
:1019E00071E00E94221A8AEA94E0F80160814AE0DC
:1019F00050E00E943E1B8AEA94E067E671E00E9494
:101A0000E01BF80161818AEA94E070E04AE050E06E
:101A10000E94C11B19C000D000D00DB71EB70F5FC8
:101A20001F4F8EE1EDB7FEB78183F80111820E944E
:101A30002E162AEA35E526273727F8013383228335
:101A400081E0B8010E94DD08F8016081609318040C
:101A50008181809317048BE191E0E80EF91E828169
:101A60009381F7019183808385EE9EEFE80EF91E46
:101A7000C7010E949B0BC7010E947A0C0FB6F89415
:101A8000DEBE0FBECDBECF91DF911F910F91FF90B3
:101A9000EF90DF90CF9008951F93CF93DF93EC01E9
:101AA000CC5EDE4F8881C451D1408823E1F11C8196
:101AB000CB5EDE4F8881C551D14090E007970CF096
:101AC0001F7DBE016A5F7F4F812F4D810E94DE2501
:101AD00015FD1BC0CC5EDE4F8881C451D1408230E1
:101AE00050F0DE011496FE01E85BFF4F8CEC019094
:101AF0000D928150E1F7FE01EC5EFE4F8081815036
:101B00008083CB5EDE4F18820EC0FE01EB5EFE4F7F
:101B100080818F5F80830E942016CA5EDE4F6883BB
:101B200079838A839B83DF91CF911F9108950F93CF
:101B30001F93CF93DF93EC018C01035E1E4FF801DE
:101B400080819181A281B3810097A105B10509F43B
:101B500052C00E942016F8012081318142815381B8
:101B6000621773078407950708F445C0809118042D
:101B7000813009F440C0CE010E947A0C4BC00E9413
:101B8000DE23882309F43FC0F801808160E070E023
:101B900040E00E94DE25F80110823CC0CB5EDE4FA3
:101BA0008881C551D140882329F40E94DE238823EF
:101BB00089F11DC00E942016CA5EDE4F288139813E
:101BC0004A815B81C651D1402C593F4F4F4F5F4FE7
:101BD0006217730784079507E8F00E94DE238823C5
:101BE000C9F08AEA94E069E671E00E94E31BCE0145
:101BF0000E944C0D0FC08E01065E1E4FF8018081C1
:101C0000882309F0BCCFCC5EDE4F8881C451D1401F
:101C1000882321F6DF91CF911F910F910895CF93E3
:101C2000DF93EC01DC01AC5EBE4F2C91243058F503
:101C300030E084E490E0289FF001299FF00D389F68
:101C4000F00D1124EC0FFD1F65838C9190E0FC01D9
:101C500054E0EE0FFF1F5A95E1F7E80FF91F319698
:101C6000EE0FFF1FEE0FFF1FEC0FFD1F40838C9147
:101C70008F5F8C93813039F40E94DE23882319F022
:101C8000CE010E944C0DDF91CF9108959C0141112E
:101C900040E280911804482BC9010E940F0E08955C
:101CA000CF93DF93EC010E94CF22882309F45AC01E
:101CB0008091ED049091EE04892B09F04FC0809142
:101CC000F00487FD16C08091F00485FF0FC090914D
:101CD000F0049F7180911804981711F4892F02C0A5
:101CE000892F8064C65EDE4F806888838091F2040D
:101CF0003DC08091F00485FD35C02091F00430E0B6
:101D00002F7130708091180490E02817390751F531
:101D1000CC5EDE4F9881C451D140992319F1CB5E3E
:101D2000DE4F8881C551D1408823E1F0923050F0D8
:101D3000DE011496FE01E85BFF4F8CEC01900D92E2
:101D40008150E1F7FE01EC5EFE4F8081815080837F
:101D5000CB5EDE4F1882C551D14004C08091ED04A6
:101D60009091EE04CE010E94970D80E0DF91CF911B
:101D70000895FC0181E192E091838083148283E0E5
:101D8000828381E083830895FC01DB016115710585
:101D900019F08C91848305C0349683E0BF010E94C2
:101DA000DD088AEA94E060E771E00E94E31B089591
:101DB0001F93CF93DF93EB01443098F00E946A1F8A
:101DC000182F688179818A819B810E946D1F112360
:101DD00041F48091D5019091D60161E372E00E94B7
:101DE0006D1ADF91CF911F910895FC0182896817C8
:101DF00028F070E060E090EC8FE70FC0862F90E055
:101E0000880F991F880F991F038CF48DE02DE80F20
:101E1000F91F7081618192818381272F362F492F8D
:101E2000582FB901CA0108950895EF92FF920F93B8
:101E30001F938C0154E0E52EF12CE80EF91EC7012A
:101E40000E940D1DC7010E94E71CC70164E441E028
:101E50000E94A71C82E0F801838B1F910F91FF90D5
:101E6000EF900895CF92DF92EF920F931F93DF933D
:101E7000CF93CDB7DEB728970FB6F894DEBF0FBE6D
:101E8000CDBF09831A832B833C834D835E836F838D
:101E900078878C010C5F1F4FC8010E940D1D6E01D9
:101EA0000894C11CD11CC801B6010E94EC1CC801D9
:101EB0006EE440E00E94A71CC80160E040E00E9480
:101EC000A71CC80160E040E00E94A71CE294EE0C51
:101ED00060EEE622EA94C8016E2D40E00E94A71C45
:101EE000C8010E940D1DC801B6010E94EC1CC8016A
:101EF00068E441E00E94A71C6AE070E080E090E0A6
:101F00000E945416C8010E94F61B28960FB6F8943A
:101F1000DEBF0FBECDBFCF91DF911F910F91EF902C
:101F2000DF90CF900895DC01AB016115710539F1A7
:101F30005896ED91FC91599780819181892B9281DE
:101F4000892B9381892B9481892B9581892B96816B
:101F5000892B9781892B99F452962C9130E073E06C
:101F6000220F331F7A95E1F7CF01BA01A9010E9430
:101F700018038AEA94E06DE772E00E946D1A0895F2
:101F8000CF92DF92EF92FF920F931F93DF93CF9345
:101F9000CDB7DEB728970FB6F894DEBF0FBECDBF22
:101FA0006B01E982FA820B831C832D833E834F836E
:101FB0005887CB0163E871E00E94E01B8E010F5F40
:101FC0001F4FF9E0EF2EF12CEC0EFD1EF8016081A1
:101FD00070E0E4E075956795EA95E1F7C60140E1A8
:101FE00050E00E94AE1BF80161918F0170E06F70AC
:101FF0007070C60140E150E00E94AE1B0E151F0537
:1020000029F728960FB6F894DEBF0FBECDBFCF914B
:10201000DF911F910F91FF90EF90DF90CF90089587
:102020008F929F92AF92BF92CF92DF92EF92FF92E8
:102030000F931F93DF93CF93CDB7DEB76C970FB697
:10204000F894DEBF0FBECDBF4C010D8B1E8B2F8BC6
:10205000388F498F5A8F6B8F7C8F14E0E12EF12CD3
:10206000E80EF91EC7010E940D1DC701BE016B5E7F
:102070007F4F0E94EC1CC7016EEB40E00E94A71C42
:102080008E01075F1F4F6801B2E1AB2EB12CAC0E81
:10209000BD1EC7010E94561CF80181938F01EA15ED
:1020A000FB05B9F7C60168E00E94111C99898917E0
:1020B000E1F08AEA94E069E672E00E94221AED8873
:1020C000FE880F89188D298D3A8D4B8D5C8DC4014A
:1020D0006AEA74E00E94C00F8AEA94E066E871E060
:1020E0000E94E01BF601E08028C08985882319F44E
:1020F0008A85882331F08E858F3F19F48889803155
:1021000079F18AEA94E066E572E00E94221AED888D
:10211000FE880F89188D298D3A8D4B8D5C8DC401F9
:102120006AEA74E00E94C00F8AEA94E066E871E00F
:102130000E94E01BFE013996E984F180028113813F
:102140002481358146815781C4016AEA74E00E9486
:10215000C00F8AEA94E00E944D1A40E050E84CC05B
:102160008AEA94E062E472E00E94221AED88FE8816
:102170000F89188D298D3A8D4B8D5C8DC4016AEACB
:1021800074E00E94C00F8AEA94E066E871E00E9461
:10219000E01BFE013996E984F180028113812481DC
:1021A000358146815781C4016AEA74E00E94C00FFC
:1021B0008AEA94E00E944D1A9A8580E0298530E0F1
:1021C000282B392BDE011196EDE1F2E088E0019039
:1021D0000D928150E1F7ED85F0E0E076F070A4E03B
:1021E000F695E795AA95E1F7EC0FFD1F4181528125
:1021F0004095509542235323CA016C960FB6F8942C
:10220000DEBF0FBECDBFCF91DF911F910F91FF9029
:10221000EF90DF90CF90BF90AF909F908F900895F8
:102220008F929F92AF92BF92CF92DF92EF92FF92E6
:102230000F931F93CF93DF93EC01D22EC32EB42EB6
:10224000A52E962E872E0E9410109C0180E820302B
:10225000380779F5CE012D2D3C2D4B2D5A2D692DAA
:10226000782D0E9410109C0180E82030380709F575
:10227000CE012D2D3C2D4B2D5A2D692D782D0E94F0
:1022800010109C0180E82030380799F4CE012D2DE4
:102290003C2D4B2D5A2D692D782D0E9410109C013C
:1022A00080E82030380729F4E0E070E080EC6FE748
:1022B0001BC0B901882777FD8095982F0E947D2843
:1022C00020E030E040E85DE30E94312926E636E672
:1022D00046EE5FE30E94312920E030E040E052E426
:1022E0000E94E627E62F692F2E2F372F482F562FD3
:1022F000B901CA01DF91CF911F910F91FF90EF902B
:10230000DF90CF90BF90AF909F908F9008952F92C5
:102310003F924F925F926F927F928F929F92AF9275
:10232000BF92CF92DF92EF92FF920F931F93CF93C2
:10233000DF934C01762E4F9660E67AEE0E94F220F3
:10234000882309F445C0D40192968D919C9193976E
:10235000019693969C938E939297803F9105C0F13E
:1023600093961C921E92929760E070E040E050E0DD
:1023700026C0E901D4019496ED91FC919597E40F64
:10238000F51F9E0121503040DF01AC0FBD1FE20F51
:10239000F31F80818C93D4019696ED91FC919797D1
:1023A000E40FF51FCE0FDF1FE20FF31F808188833C
:1023B00021153105F1F66F5F7F4F4A5F5F4FF401E2
:1023C000828990E0681779071CF4C5E0D0E0D2CF8D
:1023D0000E9420165B016C01D40153968C918130D0
:1023E00021F0823009F013C128C07720D9F0F40120
:1023F00084899589A689B78986017501E81AF90A41
:102400000A0B1B0B672D70E080E090E028EE33E0B4
:1024100040E050E00E9498296E157F0580079107E3
:1024200008F0F5C0D4015496AD92BD92CD92DC92E5
:102430005797C4010E94150FEAC0F4018489958959
:10244000A689B789A81AB90ACA0ADB0AFDEBAF1632
:10245000B104C104D10408F4DAC0BB2471E0272E12
:10246000312C0F2EF0E04F2EF0E05F2EF0EC6F2EAF
:10247000FFE77F2EF02DC3C0CB2CDD24C60163E027
:10248000880F991F6A95E1F7D4015896ED91FC9158
:102490005997E80FF91F008111812281338144810E
:1024A000558166817781802F812B822B832B842B12
:1024B000852B862B872B09F4A1C0C4010E94101123
:1024C0007B018C01E1010B2C02C0CC0FDD1F0A94B3
:1024D000E2F7A80197010E949429F401258D368D19
:1024E0008823D9F0CE0182239323892B81F0CC0C51
:1024F000DD1CCC0CDD1CD4015B96ED91FC915C974E
:10250000EC0DFD1D408251826282738277C02C2BBC
:102510003D2BF401368F258F71C0CE0180959095AB
:1025200028233923D4015E963C932E935D97C601F0
:10253000880F991F880F991F5B96ED91FC915C970E
:10254000E80FF91FE082F18202831383C801B7010B
:1025500020E030E040E050E00E942D2988234CF03C
:10256000C801B70120E030E040E05FE30E94E627C9
:1025700008C0C801B70120E030E040E05FE30E94FE
:10258000E5270E944A28162F1855E601CC0FDD1FBB
:10259000CC0DDD1DCC0FDD1FD4019496ED91FC9187
:1025A0009597EC0FFD1F8581803859F4212F332733
:1025B00027FD3095CF01B90146E050E00E9421038C
:1025C00004C0808118170CF41083D4019696ED9105
:1025D000FC919797EC0FFD1F8581803859F4212FCE
:1025E000332727FD3095CF01B90146E050E00E9426
:1025F000210304C0808181170CF41083B394F4018B
:102600008289B81608F438CF81E0838B01C080E05E
:10261000DF91CF911F910F91FF90EF90DF90CF90BE
:10262000BF90AF909F908F907F906F905F904F90F2
:102630003F902F9008952F923F924F925F926F920A
:102640007F928F929F92AF92BF92CF92DF92EF9242
:10265000FF920F931F93DF93CF93CDB7DEB76497AD
:102660000FB6F894DEBF0FBECDBF3C012B01CB01EE
:102670006CE273E00E94221ADD2420C0C2016FE9DF
:1026800071E00E94E01B8D2D90E013E0880F991FF0
:102690001A95E1F7D3015896ED91FC915997E80FFF
:1026A000F91FE080F1800281138124813581468108
:1026B0005781C301B2010E94C00FD394F3018289F4
:1026C000D816E0F2C2010E944D1A93012C5F3F4FD1
:1026D0003D872C87C9010E94041C1B861A86222470
:1026E00033241986E3C0CE01019667E00E94111CD5
:1026F00019813A813E879B819F87AC81A88BBD81E0
:10270000B98BEE81EA8BFF81FB8B28852C8B882E81
:102710009924AA24BB24CC24DD247601212F492F1F
:102720005A2F6B2F7E2F8F2F9C8908E30E947D02EA
:10273000821609F0BBC0931609F0B8C0A41609F0C0
:10274000B5C0B51609F0B2C0C61609F0AFC0D716AD
:1027500009F0ACC0E81609F0A9C0F91609F0A6C046
:10276000D30152960C91DD2420E030E04BC0D30120
:102770005896ED91FC915997E20FF31F808191815A
:102780004281538164817581A681E781285F3F4F33
:102790001817B9F5BE85B917A1F5FF85F41789F5A6
:1027A0008889851771F59989961759F5BA89B717E8
:1027B00041F5FB89FA1729F58C898E1711F5C201AD
:1027C00061EA71E00E94E01BE980FA800B811C81C4
:1027D0002D813E814F815885C301B2010E94C00FF7
:1027E000C2010E944D1A81E090E002C0880F991F3B
:1027F000DA94E2F7AA85BB85A82BB92BBB87AA87F9
:1028000052C0D394D01608F4B2CFDD2420E030E0DB
:1028100047C0D3015896ED91FC915997E20FF31FF1
:10282000285F3F4F80819181892B9281892B9381F1
:10283000892B9481892B9581892B9681892B97816E
:10284000892B69F51083BE85B1832F852283388952
:102850003383898984839A899583AB89A683BC89CC
:10286000B783C2016DEA71E00E94E01BE980FA8043
:102870000B811C812D813E814F815885C301B2019E
:102880000E94C00FC2010E944D1A81E090E002C078
:10289000880F991FDA94E2F7282A392A04C0D394C2
:1028A000D01608F4B6CFE985EF5FE9878C859D8562
:1028B000BE016F5F7F4F0E94581D882309F013CF20
:1028C0008C859D850E94041CFF2420C08F2D90E0E4
:1028D000B3E0880F991FBA95E1F7D3015896ED91AF
:1028E000FC915997E80FF91F0081118122813381F2
:1028F0004481558166817781023211F0083229F4D2
:10290000C301AAE0EA2E0E94320FF394F3018289F8
:10291000F816E0F221143104B9F1C20164E173E068
:102920000E94221ADD2429C0C1010D2C02C09695F7
:1029300087950A94E2F780FF1FC0C2016FE971E03A
:102940000E94E01B8D2D90E0F3E0880F991FFA950F
:10295000E1F7D3015896ED91FC915997E80FF91FD3
:10296000E080F18002811381248135814681578185
:10297000C301B2010E94C00FD394F3018289D8161B
:1029800098F2C2010E944D1ACA84DB84C228D3285F
:10299000C094D09481E090E0D30152960C9002C094
:1029A000880F991F0A94E2F70197C822D922C1140F
:1029B000D104B9F1C2016CEF72E00E94221ABB246B
:1029C00029C0C6010B2C02C0969587950A94E2F7A0
:1029D00080FF1FC0C2016FE971E00E94E01B8B2DD8
:1029E00090E0E3E0880F991FEA95E1F7D30158964C
:1029F000ED91FC915997E80FF91FE080F180028179
:102A000013812481358146815781C301B2010E941F
:102A1000C00FB394F3018289B81698F2C2010E94E4
:102A20004D1AC20169EE72E00E94221AC201D3015E
:102A300052966C914AE050E00E943E1BC20160EE4B
:102A400072E00E946D1AF301608D718D84E00E9426
:102A5000DD080E942016D30154966D937D938D93CB
:102A60009C935797C3010E94150F898564960FB6F2
:102A7000F894DEBF0FBECDBFCF91DF911F910F91B4
:102A8000FF90EF90DF90CF90BF90AF909F908F908E
:102A90007F906F905F904F903F902F9008951F937D
:102AA000CF93DF93EC01413108F040E14A8B1B8A60
:102AB0001E8E1D8E842F90E064E070E00E94FC0268
:102AC0008B8F9C8F8A8990E066E070E00E94FC0208
:102AD0008CA39DA32A8916E0219F9001112460E810
:102AE00070E0A9010E9421038A8990E066E070E00D
:102AF0000E94FC028EA39FA32A89219F900111248A
:102B000060E870E0A9010E94210384E08A838A8939
:102B100090E023E0880F991F2A95E1F78B838AEADA
:102B200094E069EB71E00E94E01B8AEA94E06A8914
:102B30004AE050E00E943E1B8AEA94E068EC71E0B3
:102B40000E94E01B8AEA94E06B814AE050E00E9418
:102B50003E1B8AEA94E00E944D1ADF91CF911F91AB
:102B60000895EF92FF920F931F938C01F62EE42E9F
:102B700089E192E0F80191838083C80104960E9464
:102B8000EE1DF80111A2C8016F2D4E2D0E944F15A8
:102B9000F801828990E068E070E00E94FC02F80190
:102BA000808F918F128E1F910F91FF90EF9008955B
:102BB0001F920F920FB60F9211242F933F938F9372
:102BC0009F93AF93BF9380911D0490911E04A09199
:102BD0001F04B0912004309121040196A11DB11D64
:102BE000232F2D5F2D3720F02D570196A11DB11DEC
:102BF0002093210480931D0490931E04A0931F042E
:102C0000B09320048091190490911A04A0911B04A0
:102C1000B0911C040196A11DB11D809319049093DD
:102C20001A04A0931B04B0931C04BF91AF919F9111
:102C30008F913F912F910F900FBE0F901F9018957D
:102C40008FB7F89420911D0430911E0440911F0409
:102C5000509120048FBFB901CA0108959FB7F8941D
:102C60002091190430911A0440911B0450911C04C6
:102C700086B5A89B06C08F3F21F02F5F3F4F4F4F77
:102C80005F4F9FBF542F432F322F2227280F311D14
:102C9000411D511D82E0220F331F441F551F8A958D
:102CA000D1F7B901CA0108959B01AC017FB7F8942F
:102CB0008091190490911A04A0911B04B0911C04F6
:102CC00066B5A89B05C06F3F19F00196A11DB11D07
:102CD0007FBFBA2FA92F982F8827860F911DA11D7E
:102CE000B11D62E0880F991FAA1FBB1F6A95D1F71B
:102CF000BC012DC0FFB7F8948091190490911A047B
:102D0000A0911B04B0911C04E6B5A89B05C0EF3F41
:102D100019F00196A11DB11DFFBFBA2FA92F982F41
:102D200088278E0F911DA11DB11DE2E0880F991F0C
:102D3000AA1FBB1FEA95D1F7861B970B885E9340AD
:102D4000C8F2215030404040504068517C4F21151E
:102D500031054105510571F60895019739F0880F45
:102D6000991F880F991F02970197F1F7089578949A
:102D700084B5826084BD84B5816084BD85B5826080
:102D800085BD85B5816085BDEEE6F0E0808181601E
:102D90008083E1E8F0E0108280818260808380811E
:102DA00081608083E0E8F0E0808181608083E1EBF6
:102DB000F0E0808184608083E0EBF0E080818160DE
:102DC0008083EAE7F0E08081846080838081826094
:102DD000808380818160808380818068808310927D
:102DE000C1000895CF93DF93482F50E0CA01865861
:102DF0009C4FFC0134914A595C4FFA01849188231D
:102E000069F190E0880F991FFC01E85BFC4FA591E8
:102E1000B491FC01EE5AFC4FC591D491662351F454
:102E20002FB7F8948C91932F909589238C93888158
:102E300089230BC0623061F42FB7F8948C91932FE3
:102E4000909589238C938881832B88832FBF06C01C
:102E50009FB7F8948C91832B8C939FBFDF91CF9178
:102E60000895482F50E0CA0182579C4FFC012491DD
:102E7000CA0186589C4FFC0194914A595C4FFA0153
:102E80003491332309F440C0222351F1233071F0EF
:102E9000243028F42130A1F0223011F514C026305E
:102EA000B1F02730C1F02430D9F404C08091800003
:102EB0008F7703C0809180008F7D8093800010C049
:102EC00084B58F7702C084B58F7D84BD09C08091A1
:102ED000B0008F7703C08091B0008F7D8093B000E9
:102EE000E32FF0E0EE0FFF1FEE5AFC4FA591B491D7
:102EF0002FB7F894662321F48C919095892302C012
:102F00008C91892B8C932FBF0895682F70E0CB0193
:102F100082579C4FFC012491CB0186589C4FFC01A9
:102F200044916A597C4FFB019491992319F420E054
:102F300030E03CC0222351F1233071F0243028F4DA
:102F40002130A1F0223011F514C02630B1F0273025
:102F5000C1F02430D9F404C0809180008F7703C081
:102F6000809180008F7D8093800010C084B58F7722
:102F700002C084B58F7D84BD09C08091B0008F7779
:102F800003C08091B0008F7D8093B000892F90E0C6
:102F9000880F991F845A9C4FFC01A591B4918C9184
:102FA00020E030E0842311F021E030E0C9010895F1
:102FB00008951F920F920FB60F9211242F933F93F3
:102FC0004F938F939F93EF93FF938091C00082FD67
:102FD0001DC04091C60020916204309163042F5FB0
:102FE0003F4F2F73307080916404909165042817CF
:102FF000390771F0E0916204F0916304EE5DFB4FDC
:103000004083309363042093620402C08091C60021
:10301000FF91EF919F918F914F913F912F910F9041
:103020000FBE0F901F901895E091B604F091B70471
:10303000E05CFF4F8191919120813181821B930B44
:103040008F739070892B11F00E94D81708951F92EA
:103050000F920FB60F9211242F933F938F939F934C
:10306000EF93FF932091A6043091A7048091A804C8
:103070009091A9042817390731F48091C1008F7D00
:103080008093C10014C0E091A804F091A904EA590A
:10309000FB4F20818091A8049091A90401968F7321
:1030A00090709093A9048093A8042093C600FF9188
:1030B000EF919F918F913F912F910F900FBE0F90A5
:1030C0001F901895AF92BF92DF92EF92FF920F93ED
:1030D0001F93CF93DF93EC017A018B01DD24403005
:1030E00081EE580780E0680780E0780711F0DD2462
:1030F000D39491E0A92EB12CEC89FD89DD2069F0F3
:10310000C50108A002C0880F991F0A94E2F78083C6
:1031100060E079E08DE390E005C0108260E874E83B
:103120008EE190E0A80197010E94DE2921503040F5
:1031300040405040569547953795279580E120307F
:10314000380720F0DD2011F0DD24D6CFE889F98999
:103150003083EA89FB89208319A2EE89FF894081A7
:1031600021E030E0C9010C8C02C0880F991F0A943D
:10317000E2F7482B4083EE89FF894081C9010D8C1D
:1031800002C0880F991F0A94E2F7482B4083EE890A
:10319000FF894081C9010E8C02C0880F991F0A94D3
:1031A000E2F7482B4083EE89FF8980810F8C02C0B3
:1031B000220F331F0A94E2F7209528232083DF9102
:1031C000CF911F910F91FF90EF90DF90BF90AF9044
:1031D0000895DC011C96ED91FC911D97E05CFF4F7A
:1031E0002191319180819181281B390B2F7330708F
:1031F000C9010895DC011C96ED91FC911D97E05CDE
:10320000FF4F20813181E054F040DF01AE5BBF4FC2
:103210008D919C9111972817390719F42FEF3FEFE3
:1032200007C08D919C91E80FF91F8081282F30E015
:10323000C9010895DC011C96ED91FC911D97E05C9D
:10324000FF4F20813181E054F040DF01AE5BBF4F82
:103250008D919C9111972817390719F42FEF3FEFA3
:1032600010C08D919C911197E80FF91F20818D91CD
:103270009C91119701968F73907011969C938E93E9
:1032800030E0C9010895DC0191968C9191978823D3
:1032900039F05496ED91FC915597808186FFF9CFD6
:1032A00091961C920895CF93DF93EC01EE85FF85F4
:1032B000E05CFF4F20813181E054F0402F5F3F4FB1
:1032C0002F733070DF01AE5BBF4F8D919C911197D2
:1032D00028173907D1F3E05CFF4F80819181E054DA
:1032E000F040E80FF91F6083EE85FF85E05CFF4F3B
:1032F00031832083EE89FF89208181E090E00F8C6B
:1033000002C0880F991F0A94E2F7282B208381E0DE
:1033100089A3EC89FD8980818064808381E090E0CD
:10332000DF91CF9108951092AD041092AC0488EE15
:1033300093E0A0E0B0E08093AE049093AF04A0933C
:10334000B004B093B10489E292E09093AB0480930F
:10335000AA0482E294E09093B7048093B60486E6D0
:1033600094E09093B9048093B80485EC90E0909336
:10337000BB048093BA0484EC90E09093BD048093E6
:10338000BC0480EC90E09093BF048093BE0481EC79
:1033900090E09093C1048093C00482EC90E09093FD
:1033A000C3048093C20486EC90E09093C50480939C
:1033B000C40484E08093C60483E08093C70487E05C
:1033C0008093C80485E08093C90481E08093CA0497
:1033D0000895CF93DF930E94B7160E945E08C4E160
:1033E000D8E10E9415072097E1F30E941418F9CF45
:1033F000CF92DF92EF92FF920F931F93CF93DF93C1
:103400007C016B018A01C0E0D0E00FC0D6016D9154
:103410006D01D701ED91FC910190F081E02DC70184
:103420000995C80FD91F015010400115110571F7FA
:10343000CE01DF91CF911F910F91FF90EF90DF9020
:10344000CF900895EF92FF920F931F93CF93DF9346
:103450007C018B01C0E0D0E0F8010F5F1F4F649149
:10346000662359F0D701ED91FC910190F081E02D98
:10347000C7010995C80FD91FEFCFCE01DF91CF91BA
:103480001F910F91FF90EF900895DC01ED91FC9159
:103490000190F081E02D09950895EF92FF920F932E
:1034A0001F938C01DC01ED91FC910190F081E02DE6
:1034B0006DE009957C01D801ED91FC910190F081BE
:1034C000E02DC8016AE009959C012E0D3F1DC90140
:1034D0001F910F91FF90EF900895EF92FF920F933D
:1034E0001F937C010E94221A8C01C7010E944D1A71
:1034F0009C01200F311FC9011F910F91FF90EF9088
:103500000895CF93DF93EC016115710519F420E064
:1035100030E00FC0DB010D900020E9F71197A61BEA
:10352000B70BE881F9810280F381E02DAD010995A7
:103530009C01C901DF91CF9108954F925F927F92D4
:103540008F929F92AF92BF92CF92DF92EF92FF92B3
:103550000F931F93DF93CF93CDB7DEB7A1970FB62D
:10356000F894DEBF0FBECDBF2C01742ECB012230EC
:1035700008F42AE019A231E2C32ED12CCC0EDD1EB4
:10358000822E9924AA24BB24672D752FA5019401AE
:103590000E94DE2979018A01C801B701A5019401C1
:1035A0000E949829472D461B0894C108D1084A302B
:1035B00010F4405D01C0495CF6014083E114F10460
:1035C0000105110521F07E2C5F2DC801DDCFC20160
:1035D000B6010E94811AA1960FB6F894DEBF0FBE05
:1035E000CDBFCF91DF911F910F91FF90EF90DF90B2
:1035F000CF90BF90AF909F908F907F905F904F90B3
:103600000895DC012115310541F4ED91FC91019003
:10361000F081E02D642F099508950E949D1A089568
:10362000EF92FF920F931F939A017B0100E010E04D
:10363000B801A7010E94011B1F910F91FF90EF900D
:103640000895CF92DF92EF92FF920F931F936C0138
:103650007B019A0100E010E0B801A7010E94011B64
:103660008C01C6010E944D1A080F191FC8011F9135
:103670000F91FF90EF90DF90CF900895EF92FF921F
:103680000F931F939A01E62EFF2400E010E0B8018B
:10369000A7010E94011B1F910F91FF90EF900895C9
:1036A000CF92DF92EF92FF920F931F936C01E62E61
:1036B0009A01FF2400E010E0B801A7010E94011B5D
:1036C0008C01C6010E944D1A080F191FC8011F91D5
:1036D0000F91FF90EF90DF90CF900895CF92DF92FF
:1036E000EF92FF920F931F93CF93DF93EC016A0148
:1036F0007B012115310541F4E881F9810190F081C8
:10370000E02D642F09951FC02A303105D1F477FFD1
:1037100017C0E881F9810190F081E02D6DE20995F3
:103720008C0144275527BA014C195D096E097F09A0
:10373000CE012AE00E949D1A9801280F391F04C06B
:103740002AE00E949D1A9C01C901DF91CF911F912F
:103750000F91FF90EF90DF90CF900895EF92FF923E
:103760000F931F937B019A010027F7FC0095102F00
:10377000B801A7010E946E1B1F910F91FF90EF905F
:103780000895CF92DF92EF92FF920F931F936C01F7
:103790007B019A010027F7FC0095102FB801A701C3
:1037A0000E946E1B8C01C6010E944D1A080F191F42
:1037B000C8011F910F91FF90EF90DF90CF90089577
:1037C0000E94811A0895EF92FF920F931F937C013C
:1037D0000E94811A8C01C7010E944D1A080F191FFF
:1037E000C8011F910F91FF90EF900895FC01F8948C
:1037F000A181B28111969C91119780818095982327
:1038000011969C9378940895FC011386158614866E
:1038100087E090E012863197009711F00197FACF78
:103820000895DC0180E00BC0E82FF0E08D9190E07E
:10383000E827F927EE55FC4FE49161508E2F66235F
:1038400099F70895DF92EF92FF920F931F93FC0177
:10385000E08001811281F894F8018281DE2CD094FD
:103860008D21828381818E29818383E090E00E9473
:10387000AD16F80181818D2181838AE090E00E945C
:10388000AD16F8010081789485E390E00E94AD16B2
:1038900080E010E0FF240E211F21012B09F081E0C0
:1038A0001F910F91FF90EF90DF900895EF92FF929C
:1038B0000F931F93CF93DF937C0101E010E0C0E0F2
:1038C000D0E0C7010E94221C8111102B000F21960D
:1038D000C830D105B1F7812FDF91CF911F910F91A2
:1038E000FF90EF9008951F93CF93DF93FC01108119
:1038F000C181D281912F909560FF12C0F8948A8186
:1039000089238A838981812B89838AE090E00E94C0
:10391000AD168A81812B8A83789487E390E011C069
:10392000F8948A8189238A838981812B898381E420
:1039300090E00E94AD168A81812B8A83789485E07D
:1039400090E00E94AD16DF91CF911F910895CF9224
:10395000DF92EF92FF920F931F93CF93DF938C012F
:10396000E42EFF24F394C0E0D0E0C62EDD2460E016
:103970008F2D90E08C219D21892B09F061E0C801F9
:103980000E94731CFF0C2196C830D10581F7EE20F0
:10399000A9F4F894D8011196ED91FC9112979181B8
:1039A0008C918095982391831196ED91FC911297BB
:1039B00092818C918095982392837894DF91CF9116
:1039C0001F910F91FF90EF90DF90CF9008956CECD6
:1039D00040E00E94A71C0895EF92FF920F931F935F
:1039E000CF93DF938C017B0165E540E00E94A71C2B
:1039F000C0E0D0E0F701EC0FFD1FC801608140E09E
:103A00000E94A71C2196C830D105A1F7DF91CF9164
:103A10001F910F91FF90EF900895DF92EF92FF9228
:103A20000F931F93CF93DF93FC010081C181D2815B
:103A3000F8948981D02ED0948D21898378941DE7C4
:103A4000E02EFF24115059F182E090E00E94AD1663
:103A5000888190E08E219F21892BA1F3F8948A819F
:103A60008D218A838981802B8983789484EF91E0EA
:103A70000E94AD16F89489818D21898380E590E0BC
:103A80000E94AD16888110E090E0E822F922EF282C
:103A900009F411E0789484EA91E00E94AD16812F38
:103AA000DF91CF911F910F91FF90EF90DF900895DC
:103AB000AF92BF92DF92EF92FF920F931F93CF933B
:103AC000DF93EC015B018D85882309F061C0CE0195
:103AD0000E940D1D882329F41B861D861C8690E0FC
:103AE0006BC0CE0160EF40E00E94A71CFF24F3945E
:103AF00001E0DD24EE24CE010E94221C182FCE010D
:103B00000E94221C113019F48130E1F439C01817D9
:103B100009F58B85081770F460E0FE01EE0DF11DCC
:103B2000838190E02F2D30E082239323181619060D
:103B30004CF003C060E0081729F0093008F04CC0D1
:103B40000C874AC0FE01EE0DF11D83818F2983830E
:103B500061E009C0612FFE01EE0DF11D9F2D9095D2
:103B6000838189238383CE010E94731C0F5FFF0C26
:103B700019F4E394FF24F39487E08E1508F0BBCF8B
:103B8000013430F0DB86DD2011F581E08D871FC028
:103B90001B861D861C8690E0DE0120E030E0F501EA
:103BA000E20FF31F13968C91139780832F5F3F4F83
:103BB00011962830310599F7892FDF91CF911F9108
:103BC0000F91FF90EF90DF90BF90AF9008958B81A1
:103BD0008823F1F291E0E0CFD02EBDCFFF920F937A
:103BE0001F938C01F62E862F60E00E94F2168F2D17
:103BF00090E0FC01E658FC4FE491D801EC938A591F
:103C00009C4FFC016491E62FF0E0EE0FFF1FE45A99
:103C1000FC4F8591949112969C938E9311971B96CD
:103C20001C921B971D961C921D971C961C92F801C6
:103C300087E090E012863197009711F00197FACF54
:103C40001F910F91FF9008958F929F92AF92BF9214
:103C5000CF92DF92EF92FF920F931F93CF93DF9358
:103C60007B018C01EA012CE330E040E050E00E944F
:103C7000DE296883C801B7012CE330E040E050E062
:103C80000E94DE29122F032FF42EE52E622F732FB0
:103C9000842F952F2CE330E040E050E00E94DE2995
:103CA0006983612F702F8F2D9E2D2CE330E040E033
:103CB00050E00E94DE29122F032FF42EE52E622FF2
:103CC000732F842F952F28E130E040E050E00E94D0
:103CD000DE296A83612F702F8F2D9E2D28E130E021
:103CE00040E050E00E94DE2979018A01C801B70155
:103CF0006C5F7F4F8F4F9F4F27E030E040E050E0F8
:103D00000E94DE296F5F6B8320E0AA24BB2465013B
:103D100001C02F5F822E9924F401EE54F84FCF0199
:103D200083709070892B99F4CF0164E670E00E9453
:103D3000CB29892B39F4CF0160E971E00E94CB29AE
:103D4000892B29F48EE691E0A0E0B0E004C08DE676
:103D500091E0A0E0B0E0A80EB91ECA1EDB1EC501AE
:103D6000A0E0B0E0E816F9060A071B0790F62E83DC
:103D7000F401EE54F84F83E0882E912C8E229F227E
:103D80008114910499F4CF0164E670E00E94CB297C
:103D9000892B39F4CF0160E971E00E94CB29892B8E
:103DA00029F48EE691E0A0E0B0E004C08DE691E059
:103DB000A0E0B0E0A81AB90ACA0ADB0A9801870194
:103DC0000A191B092C093D09CF0164E670E00E9425
:103DD000CB297C01CF0160E971E00E94CB29AC01C5
:103DE000E5E3F2E060E0613051F48114910449F4BC
:103DF000E114F10441F44115510529F002C080811C
:103E000003C08CE101C08DE190E0A0E0B0E00817B4
:103E100019072A073B0740F0081B190B2A0B3B0B1D
:103E20006F5F31966C30F9F66F5F6D83802F8F5F17
:103E30008C83DF91CF911F910F91FF90EF90DF90D6
:103E4000CF90BF90AF909F908F900895EF92FF9288
:103E50000F931F937B018C018091E2049091E30406
:103E6000A091E404B091E504E816F9060A071B07DF
:103E700071F0C801B70147ED54E00E94241EE092A2
:103E8000E204F092E3040093E4041093E5041F912C
:103E90000F91FF90EF9008950E94261F8091DC04FF
:103EA00090E008950E94261F8091DB0490E0089521
:103EB0000E94261F8091D70490E008950E94261F3B
:103EC0008091D80490E008950E94261F8091D90423
:103ED00090E008958091D60408956093CE04709385
:103EE000CF048093D0049093D1042091E6013091C7
:103EF000E7014091E8015091E901260F371F481F63
:103F0000591F2093D2043093D3044093D404509388
:103F1000D50482E08093D6040E9420166093DE04CC
:103F20007093DF048093E0049093E1040895EF928E
:103F3000FF920F931F931CC02F5F3F4F4F4F5F4F58
:103F40002093CE043093CF044093D0045093D104F7
:103F500088EE93E0A0E0B0E0E80EF91E0A1F1B1FF8
:103F6000E092DE04F092DF040093E0041093E10499
:103F70000E942016E090DE04F090DF040091E0043F
:103F80001091E1046E197F09800B910B2091CE04F2
:103F90003091CF044091D0045091D104685E7340B9
:103FA0008040904048F68091D2049091D304A09133
:103FB000D404B091D504281739074A075B07B0F03D
:103FC000E091CC04F091CD04309781F00995611512
:103FD00071058105910519F00E946D1F07C090E0E1
:103FE0008091D604811191E09093D6046091CE0423
:103FF0007091CF048091D0049091D1041F910F91C2
:10400000FF90EF900895FC018081882311F482E1F4
:1040100001C08D5F0E94F2160895FC018081882303
:1040200011F483E101C0835F0E94F2160895FC0140
:104030008081882311F482E101C08D5F0E943117D5
:104040000895FF920F931F93082FF92E162F60E00B
:10405000112309F461E0802F9F2D0E940320802FFF
:104060009F2D612F0E9417201F910F91FF9008959F
:10407000FC018081882311F483E101C0835F0E94E9
:10408000311708950F931F938C01FC01818190E0FB
:104090000E94AD16C80161E00E9438201F910F9167
:1040A00008950F931F938C0160E00E942120C801A6
:1040B0000E944220C80161E00E9421201F910F91BF
:1040C00008950F931F938C01FC016083418361E08D
:1040D0000E942120C80161E00E940D20C8010E94B9
:1040E00042201F910F9108950F931F938C01FC01A3
:1040F000818190E00E94AD16C80160E00E943820E6
:104100001F910F910895EF92FF920F931F93CF93FA
:10411000DF93EC01E62E0E94742030E8F32E00E0DD
:1041200010E06F2D6E21CE010E942120CE010E9451
:104130004220CE010E947420F6940F5F1F4F08307A
:10414000110579F7CE0161E00E942120CE010E9485
:1041500042208881882311F482E101C08D5F0E9492
:104160008517182FCE010E94742080E0112309F4D6
:1041700081E0DF91CF911F910F91FF90EF90089513
:10418000FF920F931F938C01F62E0E947420C8019A
:104190000E944220C80160E00E942120C8016F2DCA
:1041A0000E9483201F910F91FF9008950F931F93FA
:1041B000CF93DF938C01EB0180E06115710509F06D
:1041C00081E0F8018283882341F00E942016219724
:1041D000C60FD71FF801D183C083DF91CF911F9104
:1041E0000F910895EF92FF920F931F93CF93DF9358
:1041F000EC017B018A81882311F400E00FC0088163
:1042000019810E942016C801861B970B2AEE813661
:10421000920710F400E006C0082F0195CE01B70107
:104220000E94D620802FDF91CF911F910F91FF9098
:10423000EF900895DC01ED91FC910680F781E02D6F
:1042400040E009950895FC016581862F846085838F
:104250006C60CF010E941A210895DF93CF93CDB7F0
:10426000DEB728970FB6F894DEBF0FBECDBF9C0116
:10427000FE013196AFE4B2E088E00D9001928150EA
:10428000E1F7F9018085841710F4482F4150E42F9D
:10429000F0E0EE0FFF1FEC0FFD1F8181680F6068DB
:1042A000C9010E941A2128960FB6F894DEBF0FBEEE
:1042B000CDBFCF91DF910895DC01ED91FC91068097
:1042C000F781E02D41E0099581E090E008950F939A
:1042D0001F93CF93DF93EC01062F142F411110E1B0
:1042E000E881F981602F62956F70612B0084F18500
:1042F000E02DCE010995E881F9810F70102B008423
:10430000F185E02DCE01612F0995DF91CF911F91AD
:104310000F910895FF920F931F938C01F62E80EC5E
:10432000F82AF8018285938564850E94C020F801EF
:104330008285938569E00E948320F80182859385B8
:104340006F2D0E94832060E46F25F801828593859C
:104350000E948320F801828593856F2D0E9483201F
:10436000F801828593850E9451201F910F91FF9043
:1043700008950F931F938C01FC01828593856485BA
:104380000E94C020F8018285938560E00E9483200E
:10439000F8018285938560E00E948320F801828580
:1043A00093850E9451201F910F9108950F931F93A1
:1043B0008C01FC018285938564850E94C020F801F0
:1043C0008285938565E00E948320F801828593852C
:1043D00064E20E948320F801828593850E94512027
:1043E000C8010E94B9211F910F91089561E00E94B8
:1043F0001A2180ED97E00E94AD160895CF93DF93C8
:10440000EC01423018F08C8188608C8348871986D3
:10441000222329F0413019F48C8184608C8380E55B
:1044200093EC0E94AD16E881F9810480F581E02DBE
:10443000CE0109956C8164FD2DC0E881F98100846D
:10444000F185E02DCE0163E0099584E991E10E94B8
:10445000AD16E881F9810084F185E02DCE0163E09D
:10446000099584E991E10E94AD16E881F981008403
:10447000F185E02DCE0163E0099586E990E00E9488
:10448000AD16E881F9810084F185E02DCE0162E06E
:10449000099516C06062CE010E941A2184E991E15B
:1044A0000E94AD166C816062CE010E941A2186E9DD
:1044B00090E00E94AD166C816062CE010E941A21CC
:1044C0006C816062CE010E941A2184E08D83CE014E
:1044D0000E942321CE010E94F62182E08E83CE012C
:1044E00066E00E941A21DF91CF910895FC011382AA
:1044F000128285E492E09183808373876287440F00
:1045000044871482CF0160E142E020E00E94FE2156
:104510000895782FE89865B121E030E040E050E060
:104520000090EA0104C0220F331F441F551F0A9454
:10453000D2F7322F822F8095862385B99EBD0DB488
:1045400007FEFDCF4EB57EBD0DB407FEFDCF2EB5E7
:10455000942F80E045B1342B35B9E89A30E0282B10
:10456000392BC90108950E94892208958091E6049B
:104570009091E7048F709093E7048093E604809114
:10458000E6049091E70488609093E7048093E60442
:104590008091E6049091E7040E9489220895809119
:1045A0003D05873009F059C090914105992399F054
:1045B00080914005891728F480914005873408F4DC
:1045C0004CC084E080933D0581E090E09093EE0440
:1045D0008093ED049AC08091F1042091400590E011
:1045E000049630E08217930724F0809140058734C9
:1045F000A0F184E080933D058091F104833430F094
:1046000081E090E09093EE048093ED048091F004BB
:1046100086FF12C080913C05282F30E0C9018F71C0
:1046200090704F9749F08091F00490E08227932793
:104630008F719070892B89F48091ED049091EE0434
:10464000892B09F056C0E0913A05F0913B0530976F
:1046500009F44FC080E0099558C080913D05843031
:1046600011F080E008951092F1048091F10480939C
:1046700040058FEF9FEF9093EE048093ED0420911F
:104680003E052223D9F08227282F22952827022EA3
:10469000269526952025022E269520252770082E62
:1046A000892F269507942795902D82270694279584
:1046B000902582279093EE048093ED0487E0809309
:1046C0003D0581E08093EB0483EA94E90E9489220E
:1046D0008091E6049091E704886D9093E7048093BD
:1046E000E6048091E6049091E7040E94892280E02C
:1046F00008958FEF9FEFAFEFBFEF80933605909354
:104700003705A0933805B093390581E0089580916D
:10471000EB04282F30E0833028F42F5F3F4F822FA7
:10472000880F089523503040220F331F822F886056
:1047300008950F931F93082F10E0C801966C0E94F4
:10474000892298012F7730702F5F3F4F442737FD24
:104750004095542F6BEF72E485E090E00E94DE29D3
:10476000CA01B901000F012F001F110B980143E08E
:10477000220F331F4A95E1F7201B310B2F5F3F4F6C
:10478000442737FD4095542F0E94DE2993E056952B
:104790004795379527959A95D1F72D573C4F4F4F11
:1047A0005F4FCA01B90124E833E040E050E00E94C5
:1047B000DE292093EC041F910F91089580913D050F
:1047C000843069F080913D05873059F4809140052F
:1047D000882339F40E94B62284E080933D0581E06D
:1047E000089580E00895982F86FD05C0907E809101
:1047F0003C058F71980F9093F004E0913A05F09189
:104800003B05309711F081E009958FEF9FEF909372
:10481000EE048093ED048091ED049091EE042091DC
:104820003E058227282F22952827022E2695269599
:104830002025022E269520252770082E892F2695C3
:1048400007942795902D82270694279590258227F7
:104850009093EE048093ED0488E080933D05809171
:10486000E6049091E70488639093E7048093E6045C
:104870008091E6049091E7040E9489220895DF92D6
:10488000EF92FF920F931F937B018C01DD2405C0F3
:10489000D39416950795F794E7948FEFE816F104F3
:1048A0000105110509F0A0F78091E6049091E70455
:1048B00081FF0FC08091E6049091E7048D7F909373
:1048C000E7048093E6048091E6049091E7040E9457
:1048D0008922E114F10401051105B9F0C701906EB8
:1048E0003D2D20E0822B932B0E9489228091E604AB
:1048F0009091E70482609093E7048093E6048091AE
:10490000E6049091E7040E9489221F910F91FF9085
:10491000EF90DF900895E89885B121E030E040E025
:1049200050E00090EA0104C0220F331F441F551FBE
:104930000A94D2F7322F922F9095982395B91EBCE6
:104940000DB407FEFDCF6EB51EBC0DB407FEFDCF46
:104950002EB5962F80E0622F70E0682B792B77FFC1
:104960000FC080913D05873059F48CB581608CBDB6
:104970001EBC0DB407FEFDCF2EB58CB58E7F8CBD51
:1049800085B1382B35B9E89A7093E9046093E8044F
:104990008091E8049091E90497FFECC080913D0577
:1049A000873009F082C080914005882371F490918E
:1049B0003E05992351F080914005E82FF0E0E15148
:1049C000FB4F90838F5F8093400580914005E82FD7
:1049D000F0E0E151FB4F20838F5F80934005809191
:1049E000ED049091EE048227282F22952827022E8D
:1049F000269526952025022E269520252770082EFF
:104A0000892F269507942795902D82270694279520
:104A1000902582279093EE048093ED042091EB047F
:104A2000233040F58091400590E06091EC040297BE
:104A300070E00E94CB29892BE9F48091E8049091E1
:104A4000E904E22FF0E090FF04C0E95AFD4F8081B5
:104A500004C0E95AFD4F808182958F708093EB04EA
:104A6000833040F490E0880F991F0196806A946922
:104A70000E94892290914105992329F08091400557
:104A8000891780F40AC08091F1042091400590E0DC
:104A9000049630E0821793072CF08091400587340C
:104AA00008F468C00E94B62265C080913D0587FF6A
:104AB0002EC0E091F10480913D058F5F80933D050C
:104AC0008150ED5FE80FF0E0E151FB4FE081809114
:104AD000ED049091EE048E27282F22952827022E90
:104AE000269526952025022E269520252770082E0E
:104AF000892F269507942795902D82270694279530
:104B0000902582279093EE048093ED042EC080912F
:104B10003D058F5F80933D058150833019F18430CE
:104B20002CF4882399F08130F9F416C08B3019F0F9
:104B30008C30D1F402C0EDE218C0E0913E059091B6
:104B4000F1048EEF891B80933D050FC08091ED0429
:104B50009091EE04E82F09C08091ED049091EE044D
:104B6000E92F03C00E94B622EAEA8E2F90E0986BEC
:104B70000E9489228091E8049091E90496FF03C085
:104B800086E080933D058091E8049091E90494FFCC
:104B900009C060E070E080E090E00E943F2481E086
:104BA0008093EA048091E8049091E90495FF05C0A0
:104BB0000E94B62284E080933D0508951F93182F2C
:104BC0004093F10422EF34E0C90150E00E94180341
:104BD000812F0E94F3231F91089580913C0590E05E
:104BE0008F719070892B41F080E06BE874E240E0B7
:104BF00050E00E945527089580E00E94782708958C
:104C00001F9380933C0540933E0560933F050E94AF
:104C1000ED2510924105E89885E092E89093E7042D
:104C20008093E6048091E6049091E7040E94892233
:104C300080913F0590E074E0880F991F7A95E1F725
:104C4000876C90680E94892280E496EA0E948922FB
:104C500086E00E94992382EA94E90E9489228CEAE4
:104C600092EC0E94892210913E05112341F083E8C5
:104C70009AEC0E948922812F90E09E6C06C08BE8FE
:104C80009AEC0E9489228DE29EEC0E94892283E8A0
:104C900094EC0E94892280E598E90E94892287E7A6
:104CA0009CEC0E94892280E090EE0E94892280E0A4
:104CB00098EC0E94892289E490EC0E94892284E089
:104CC00080933D05E89A1F91089525B181E090E019
:104CD000A0E0B0E00090EA0104C0880F991FAA1F6D
:104CE000BB1F0A94D2F7282B25B924B1822B84B993
:104CF0008AE061E00E9431178AE061E00E94F216CA
:104D00008BE061E00E94F2168CE060E00E94F216F7
:104D10008DE061E00E94F21680E58CBD8DB581606A
:104D20008DBD82E060E00E94F21682E061E00E94A8
:104D300031170895FF920F931F93182F062FF42E0B
:104D400080933C0540933E0560933F050E94652695
:104D50000E94ED2582E89AEC0E94892280E09EEF75
:104D60000E94892285E080933D0583B7817F06C03C
:104D700083B7816083BF889583B78E7F83BF80911F
:104D80003D058530A9F3812F602F4F2D0E9400260D
:104D900080913C051F910F91FF9008950F931F93F1
:104DA000CF93DF93BC018230910510F462E070E094
:104DB000E0914605F0914705A0E0B0E040E050E00A
:104DC00024C08081918186179707D0F086179707B6
:104DD00071F482819381109729F013969C938E939E
:104DE00012972CC0909347058093460527C0411524
:104DF000510519F08417950718F4EF018D01AC01E6
:104E0000DF01828193819C01F9013097D1F6411530
:104E10005105F9F0CA01861B970B8430910580F487
:104E20008A819B810115110521F0F801938382830A
:104E300004C09093470580934605FE0132962FC02B
:104E4000FE01E80FF91F619371930297998388839C
:104E500026C08DB79EB7885790402091EB013091C6
:104E6000EC0128173907C8F4AC01421B530B461755
:104E7000570798F0CB0102964817590770F0820F38
:104E8000931F9093EC018093EB019093EE0180933C
:104E9000ED01F9016193719302C0E0E0F0E0CF0110
:104EA000DF91CF911F910F910895823000F5E82F87
:104EB000F0E0EE0FFF1FEE5BFA4F718360838823F3
:104EC00019F08130A1F408C0809169008C7F842B97
:104ED00080936900E89A089580916900440F551FF6
:104EE000440F551F837F842B80936900E99A0895AE
:104EF000823080F4882319F0813021F402C0E898D0
:104F000001C0E998E82FF0E0EE0FFF1FEE5BFA4FCB
:104F10001182108208951F920F920FB60F921124E2
:104F20002F933F934F935F936F937F938F939F93B1
:104F3000AF93BF93EF93FF93809142059091430508
:104F4000892B29F0E0914205F09143050995FF91E5
:104F5000EF91BF91AF919F918F917F916F915F91F1
:104F60004F913F912F910F900FBE0F901F9018956A
:104F70001F920F920FB60F9211242F933F934F93CE
:104F80005F936F937F938F939F93AF93BF93EF93B1
:104F9000FF938091440590914505892B29F0E0917C
:104FA0004405F09145050995FF91EF91BF91AF91AF
:104FB0009F918F917F916F915F914F913F912F9131
:104FC0000F900FBE0F901F9018955058BB27AA271F
:104FD0000ED009C1FAD030F0FFD020F031F49F3F5D
:104FE00011F41EF4EFC00EF4E095E7FBE5C0E92FE5
:104FF0000BD180F3BA17620773078407950718F07F
:1050000071F49EF523C10EF4E0950B2EBA2FA02D5E
:105010000B01B90190010C01CA01A0011124FF2765
:10502000591B99F0593F50F4503E68F11A16F04060
:10503000A22F232F342F4427585FF3CF469537955F
:105040002795A795F0405395C9F77EF41F16BA0B24
:10505000620B730B840BBAF09150A1F0FF0FBB1FD2
:10506000661F771F881FC2F70EC0BA0F621F731F1B
:10507000841F48F4879577956795B795F7959E3F78
:1050800008F0B3CF9395880F08F09927EE0F979506
:105090008795089504D06894B111D9C00895BCD003
:1050A00088F09F5790F0B92F9927B751A0F0D1F011
:1050B000660F771F881F991F1AF0BA95C9F712C09B
:1050C000B13081F0C3D0B1E00895C0C0672F782F10
:1050D0008827B85F39F0B93FCCF386957795679507
:1050E000B395D9F73EF490958095709561957F4F73
:1050F0008F4F9F4F0895E89409C097FB3EF4909519
:105100008095709561957F4F8F4F9F4F9923A9F0A0
:10511000F92F96E9BB279395F6958795779567952F
:10512000B795F111F8CFFAF4BB0F11F460FF1BC073
:105130006F5F7F4F8F4F9F4F16C0882311F096E906
:1051400011C0772321F09EE8872F762F05C06623B4
:1051500071F096E8862F70E060E02AF09A95660F6D
:10516000771F881FDAF7880F9695879597F9089526
:10517000990F0008550FAA0BE0E8FEEF1616170668
:10518000E807F907C0F012161306E407F50798F0D0
:10519000621B730B840B950B39F40A2661F0232BE9
:1051A000242B252B21F408950A2609F4A140A69565
:1051B0008FEF811D811D089597F99F6780E870E04A
:1051C00060E008959FEF80EC089500240A9416167D
:1051D000170618060906089500240A9412161306E5
:1051E000140605060895092E0394000C11F4882373
:1051F00052F0BB0F40F4BF2B11F460FF04C06F5F8F
:105200007F4F8F4F9F4F089557FD9058440F551F64
:1052100059F05F3F71F04795880F97FB991F61F038
:105220009F3F79F087950895121613061406551FAF
:10523000F2CF4695F1DF08C0161617061806991F1B
:10524000F1CF86957105610508940895E894BB2710
:1052500066277727CB0197F908958ADF08F48FEF47
:1052600008950BD0C0CFB1DF28F0B6DF18F095233A
:1052700009F0A2CFA7CF1124EACFC6DFA0F3959FF4
:10528000D1F3950F50E0551F629FF001729FBB272D
:10529000F00DB11D639FAA27F00DB11DAA1F649FD9
:1052A0006627B00DA11D661F829F2227B00DA11D8C
:1052B000621F739FB00DA11D621F839FA00D611D12
:1052C000221F749F3327A00D611D231F849F600D33
:1052D000211D822F762F6A2F11249F5750408AF06C
:1052E000E1F088234AF0EE0FFF1FBB1F661F771FF8
:1052F000881F91505040A9F79E3F510570F05CCF38
:10530000A6CF5F3FECF3983EDCF3869577956795E3
:10531000B795F795E7959F5FC1F7FE2B880F911D15
:105320009695879597F9089523DF880B990B089533
:10533000629FD001739FF001829FE00DF11D649F79
:10534000E00DF11D929FF00D839FF00D749FF00D05
:10535000659FF00D9927729FB00DE11DF91F639FA6
:10536000B00DE11DF91FBD01CF0111240895AA1B45
:10537000BB1B51E107C0AA1FBB1FA617B70710F040
:10538000A61BB70B881F991F5A95A9F78095909572
:10539000BC01CD01089597FB092E07260AD077FDA1
:1053A00004D0E5DF06D000201AF4709561957F4F98
:1053B0000895F6F7909581959F4F0895A1E21A2ED2
:1053C000AA1BBB1BFD010DC0AA1FBB1FEE1FFF1FA9
:1053D000A217B307E407F50720F0A21BB30BE40BF9
:1053E000F50B661F771F881F991F1A9469F7609540
:1053F0007095809590959B01AC01BD01CF010895FA
:10540000EE0FFF1F0590F491E02D09942F923F922B
:105410004F925F926F927F928F929F92AF92BF92C4
:10542000CF92DF92EF92FF920F931F93CF93DF9370
:10543000CDB7DEB7CA1BDB0B0FB6F894DEBF0FBECD
:10544000CDBF09942A88398848885F846E847D841A
:105450008C849B84AA84B984C884DF80EE80FD801C
:105460000C811B81AA81B981CE0FD11D0FB6F89492
:0E547000DEBF0FBECDBFED010895F894FFCF53
:10547E005475726E696E67206D697374696E6720FC
:10548E00006F6666006F6E0052435620727373692A
:10549E003D0054696D65206E6F7420736574005401
:1054AE003D0020004F4E2020004F46462000B725DD
:1054BE0030326420202532642F2532642025326458
:1054CE00256325303264003D3E736565645F6E6F03
:1054DE0064652E696E6F0020005265786D697400E8
:1054EE004E657454696D6520636F6E66696775727B
:1054FE006564003078002D3E00202023003A200005
:10550E00206E6F773A0046206D696E3A002C0020AF
:10551E000020202020666F756E642023002020203E
:10552E002061646465642023004F7754656D703A82
:10553E0020636F756E743D0020636F6E66696753EE
:10554E00697A653D0091030A00580246690200001F
:10555E008C03DD0300002C010000024805640000EE
:10556E000000005A0BF8198F0AAD0A910AFCFF00D1
:10557E0000A90A900A00000000D80CF50B000000EC
:10558E0000C40ED80E00000000930F140F07000386
:10559E000001000000000000005319F819E9181A64
:1055AE0019FA1843191F1C1F1E1F1E1F1F1E1F1E18
:1055BE001F000000005C21F819D62167218A210006
:0A55CE00004000140054003402569F
:00000001FF
