:100000000C94E3000C940D1B0C943A1B0C940B0104
:100010000C940B010C940B010C940B010C940B0130
:100020000C940B010C940B010C940B010C94AB176A
:100030000C940B010C940B010C940B010C940B0110
:100040000C940F0E0C940B010C94EA0F0C943810C6
:100050000C940B010C940B010C940B010C940B01F0
:100060000C940B010C940B010000000024002700ED
:100070002A0000000000250028002B0000000000DE
:1000800023002600290004040404040404040202DA
:100090000202020203030303030301020408102007
:1000A0004080010204081020010204081020000012
:1000B0000007000201000003040600000000000029
:1000C0000000005EBCE2613FDD83C29C7E20A3FD98
:1000D0001F419DC3217FFCA2401E5F01E3BD3E6026
:1000E00082DC237D9FC1421CFEA0E1BF5D0380DE58
:1000F0003C62BEE0025CDF81633D7C22C09E1D430A
:10010000A1FF4618FAA427799BC584DA3866E5BBB7
:100110005907DB856739BAE406581947A5FB7826E5
:10012000C49A653BD987045AB8E6A7F91B45C69817
:100130007A24F8A6441A99C7257B3A6486D85B05C9
:10014000E7B98CD2306EEDB3510F4E10F2AC2F7177
:1001500093CD114FADF3702ECC92D38D6F31B2ECA5
:100160000E50AFF1134DCE90722C6D33D18F0C52D7
:10017000B0EE326C8ED0530DEFB1F0AE4C1291CF89
:100180002D73CA947628ABF517490856B4EA693737
:10019000D58B5709EBB536688AD495CB2977F4AA65
:1001A0004816E9B7550B88D6346A2B7597C94A1497
:1001B000F6A8742AC896154BA9F7B6E80A54D78949
:1001C0006B359301A41111241FBECFEFD8E0DEBF21
:1001D000CDBF12E0A0E0B1E0E4E5FCE302C0059091
:1001E0000D92AA3EB107D9F715E0AAEEB2E001C020
:1001F0001D92A43BB107E1F711E0C6ECD1E004C0C9
:100200002297FE010E94241EC23CD107C9F70E941A
:10021000FA110C94281E0C940000EF92FF920F9399
:10022000DF93CF93CDB7DEB760970FB6F894DEBFFC
:100230000FBECDBFA82F002309F461C07E01089432
:10024000E11CF11C88E0F70111928A95E9F72983F6
:100250003A834B835C836D837E83AF83988780E290
:10026000801BE82FFF27E7FDF0954D815E816F81B0
:100270007885181684F01D861E861F86188A8827A2
:1002800099278E1B9F0B04C07695679557954795C8
:100290008A95D2F728C0202F332727FD3095DB0120
:1002A000CA01022E04C0B695A795979587950A9422
:1002B000D2F78D879E87AF87B88B04C0440F551F38
:1002C000661F771FEA95D2F789819A81AB81BC813D
:1002D00004C0B695A795979587952A95D2F7482B90
:1002E000592B6A2B7B2B49875A876B877C872985FB
:1002F0003A854B855C856D857E85AF8598898A2F8B
:1003000060960FB6F894DEBF0FBECDBFCF91DF91E0
:100310000F91FF90EF900895FB01DC0101900D9289
:100320000020E1F708950F931F930AEE12E0C80131
:1003300064E041E00E94BD188CEE92E0B80144E216
:100340000E94FA1A89EF92E065E042EC51E028E061
:1003500037E00E94CB0D81E080930A0310920D03D9
:1003600082E0809310031092130384E193E064E031
:100370000E94F10C1092C3041092C7041092CD0495
:1003800083E08093CE041092D3041092D6041F9180
:100390000F910895FC018081882311F483E101C04D
:1003A000835F0E94030F089580910903823039F022
:1003B000882311F060E004C060910803611161E0DE
:1003C0008AE093E00E94CA0108951F938091CE04B1
:1003D00081500E94ED0D21E08C32920714F411E05F
:1003E00006C08D5B924014F410E001C012E08091D1
:1003F000CE04882311F482E101C08D5F0E94960F24
:10040000882311F080E001C084E0812B1F910895C2
:100410001F938091CD04882341F08BEC94E060E041
:1004200070E00E944E19882391F10E94E501182F77
:100430008091CF04181759F18BEC94E064E670E0DA
:100440000E943219412F50E08091CF04282F30E0D4
:100450002427352720FF07C010FF05C08091D00456
:1004600082608093D00421FF07C011FF05C08091F6
:10047000D00484608093D00422FF07C012FF05C01F
:100480008091D00488608093D0041093CF04509161
:10049000D004552309F151FF04C021E030E041E0D0
:1004A0000BC052FF04C022E030E042E005C053FF21
:1004B00013C023E030E043E081E090E0A0E0B0E052
:1004C00004C0880F991FAA1FBB1F2A95D2F78095D9
:1004D00085238093D00401C040E0842F1F910895AC
:1004E0001F93FC01162F009741F08081882329F08B
:1004F0008CEE92E0BF010E944F13612F772767FDBA
:100500007095872F972F0E946B1C9B01AC010E9456
:10051000821D882339F08CEE92E060E071E00E9449
:100520004F1329C0812F6AE00E94B11D682F8A30C5
:1005300034F06A508CEE92E00E94331209C07727A3
:1005400067FD70958CEE92E04AE050E00E943C130B
:10055000812F6AE00E94B11D692F772767FD709592
:100560008CEE92E04AE050E00E943C138CEE92E068
:1005700066E00E9433121F9108958CEE92E068E0CD
:1005800040E00E94B1198CEE92E064E071E00E94BC
:100590004F138091C904813001F1823034F48F3FD0
:1005A00009F43FC0882339F004C08230A9F18330B8
:1005B000D9F11092C9048CEE92E066E071E00E94DD
:1005C0004F138091CA04813019F4E091090311C0DE
:1005D00080E090E0609137021CC08CEE92E06BE00E
:1005E00071E00E944F138091CA04813071F4E09150
:1005F0000F03FF27E7FDF095EE0FFF1FEB54FD4FB4
:10060000608171818CEE92E013C080E090E0609197
:1006100039020E9470020EC08CEE92E060E171E03F
:1006200007C083E08093C9048CEE92E068E171E03A
:100630000E944F138CEE92E068E041E00E94B119F5
:100640008CEE92E064E071E00E944F138091CA0446
:10065000813059F0823071F0882311F01092CA0471
:100660008CEE92E060E271E009C08CEE92E068E20C
:1006700071E004C08CEE92E060E371E00E944F13E1
:1006800008958F929F92AF92BF92CF92DF92EF9296
:10069000FF920F931F934C016A017B01122F9CEE76
:1006A000A92E92E0B92EC50160E040E00E94B11988
:1006B000C701B60120E030E040E05FE30E94681B24
:1006C0000E94381C9B01AC01C401622F0E94700281
:1006D000C50160E041E00E94B11980E090E0612F27
:1006E0000E94700288E391E0602F0E9470021F91C7
:1006F0000F91FF90EF90DF90CF90BF90AF909F90C1
:100700008F9008950F93DF93CF9300D000D000D047
:10071000CDB7DEB785EC94E060E476E00E944E1938
:10072000882309F45FC06091C80485E0689FB00128
:10073000112461597D4FCE0101960E948C01809158
:10074000C804A82FB0E0FD01EE0FFF1FEE0FFF1F42
:10075000E757FC4F4081518162817381CD01880F41
:10076000991F8A0F9B1FF3E0880F991FFA95E1F7F5
:10077000FC01EF55FC4F2081FC01EE55FC4F81E060
:10078000908192170CF4292F8F5F31968831C1F731
:10079000CD01880F991F8A0F9B1F33E0880F991F87
:1007A0003A95E1F7FC01EF5CFB4F0081DC01AE5CA8
:1007B000BB4F81E09C9109170CF4092F8F5F1196B4
:1007C0008831C1F78AE38D831E82CE0101960E9493
:1007D00041038091C8048F5F8093C804853011F471
:1007E0001092C80426960FB6F894DEBF0FBECDBF98
:1007F000CF91DF910F9108950F931F930CEE12E0AC
:10080000C80160E142E020E00E94821AC8016BE367
:1008100071E00E944F13C80160E04DE852E00E9471
:100820007F19C80161E045E952E00E947F19C801C3
:1008300062E04DE952E00E947F19C80166E045EA96
:1008400052E00E947F19C80167E04DEA52E00E9421
:100850007F1985EC94E06AE070E00E9432191F91E4
:100860000F9108956F927F928F929F92AF92BF9255
:10087000CF92DF92EF92FF920F931F93CF93DF936C
:10088000882311F464E101C060E084E193E00E94F8
:10089000100A882309F4D3C088E695E067E471E084
:1008A0000E944F13CFE3D2E071E3872E74E0972EBE
:1008B00069E8662E63E0762E51EAA52E53E0B52E48
:1008C000CC24DD24B601660F771F660F771F6C0DF1
:1008D0007D1D61597D4F88E695E00E944F1388E6A3
:1008E00095E066E571E00E944F13088119812A8125
:1008F0003B814C815D816E817F8184E193E00E9428
:100900002C087B018C01A80197010E94821D88237D
:1009100071F0088119812A813B814C815D816E8152
:100920007F8184E193E00E942C087B018C01C80147
:10093000B701A80197010E94821D882349F5F301A0
:10094000E082F18202831383C801B70120E030E026
:1009500040E05FE30E94681B0E94381C9B01AC01D1
:10096000962FF501808168170CF42083F4018081B3
:1009700089170CF4908388E695E0B801A70122E07E
:1009800030E00E94361488E695E064E071E004C02F
:1009900088E695E068E571E00E944F130894C11C59
:1009A000D11C289688E190E0880E991EE4E0F0E0E2
:1009B0006E0E7F1EA80EB91EF5E0CF16D10409F009
:1009C00081CF88E695E00E943B1281EC94E060E6DE
:1009D0007AEE0E944E19882391F18091C4048F5FB2
:1009E0008093C4048C3359F51092C40440E050E065
:1009F00012C0215030408C9111968C9311978081B8
:100A00008183119731972115310599F74F5F5F4F1A
:100A100045305105A1F0CA01880F991F840F951F19
:100A200023E0880F991F2A95E1F74696DC01AF5520
:100A3000BC4FFC01EF5CFB4F27E130E0DACFDF91E8
:100A4000CF911F910F91FF90EF90DF90CF90BF90CB
:100A5000AF909F908F907F906F900895CF92DF928C
:100A6000EF92FF920F931F9384E193E065E04FE3D1
:100A700052E00E94FF0A809388030CEE12E0C80146
:100A800060E041E00E94B119FFE5CF2EF1E0DF2EDA
:100A9000C801B6010E944F13C801609188034AE063
:100AA00050E00E94EA12C80166E671E00E944F130E
:100AB000C80165E070E04AE050E00E943C13C801C4
:100AC00068E671E00E944C14E8E6EE2EE5E0FE2EAA
:100AD000C701B6010E944F13C701609188034AE025
:100AE00050E00E94EA12C80160E771E00E944F13D3
:100AF000C80165E070E04AE050E00E943C13C70185
:100B000065E771E00E944C141F910F91FF90EF90E8
:100B1000DF90CF9008950F931F93CF93DF930E94A0
:100B20002E0581E00E94320409E813E0C0E0D0E025
:100B30000CC06D936193019688319105D1F7219690
:100B40000C5F1F4FC630D10501F1F8016081718142
:100B50008281938120E030E040E05FE30E94681BE7
:100B60000E94381CCE01880F991F8C0F9D1FA3E097
:100B7000880F991FAA95E1F7DC01AF55BC4FFC0126
:100B8000EF5CFB4F80E090E0D4CFDF91CF911F91DD
:100B90000F9108951F9380910F03823011F461E04B
:100BA00009C0882311F060E005C080910E03811117
:100BB00081E0682F162F611111E080E193E0612F31
:100BC0000E94CA01112311F464EB01C060E089EFB7
:100BD00092E00E944A0D1F910895CF92DF92EF920A
:100BE000FF920F931F930E940802982F815082302A
:100BF00008F0B9C0923011F09FEF01C091E08091F0
:100C0000CA04813069F0823009F450C0882311F0A1
:100C10001092CA048091C904891B8093C904AEC094
:100C20008091C9048130B1F0833029F1882309F023
:100C3000A5C080910903890F80930903833014F0C4
:100C4000109209038091090387FF98C082E0809386
:100C5000090394C080910F03890F80930F038330A1
:100C600014F010920F0380910F0387FF87C082E07A
:100C700080930F0383C0913029F080E090E0A0ECD6
:100C8000BFE704C080E090E0A0EAB2E480933B02BA
:100C900090933C02A0933D02B0933E0281E00E94FB
:100CA000320488E695E06EE771E04CC08091C9049B
:100CB0008130A1F0833009F1882309F05FC025E07D
:100CC0009202900111248091370290913802820F94
:100CD000931F909338028093370250C025E0920210
:100CE000900111248091390290913A02820F931F52
:100CF00090933A028093390241C065E09602B001B8
:100D00001124882777FD8095982F0E946B1C9B01EA
:100D1000AC0160913B0270913C0280913D02909148
:100D20003E020E94681B60933B0270933C028093DA
:100D30003D0290933E0281E00E94320488E695E0F5
:100D40006CE871E00E944F1340913B0250913C02CD
:100D500060913D0270913E0288E695E022E030E02D
:100D60000E9439140BC0933059F48091CA048F5FEC
:100D70008093CA04833014F01092CA040E94BD020A
:100D800080E00E943204E0903B02F0903C0200912F
:100D90003D0210913E02C801B701A80197010E94CF
:100DA000821D882341F4E0928D03F0928E0300931C
:100DB0008F03109390030E948203C0900E03CC20F7
:100DC000C1F0E0908D03F0908E0300918F0310919D
:100DD0009003C801B701A80197010E94821D8823D2
:100DE000C1F4DD246091390270913A026150704083
:100DF00019C0E0908D03F0908E0300918F03109145
:100E00009003C801B701A80197010E94821D8823A1
:100E100011F0DD2417C0DD246091390270913A028F
:100E20006F5F7F4F882777FD8095982F0E946B1CFE
:100E30009B01AC01C801B7010E941B1D181614F4D8
:100E4000DD24D394D0920E0340910E0320E030E0D5
:100E5000CC2011F021E030E0842F992787FD909578
:100E60002817390759F0442319F469E971E002C0E1
:100E700065EA71E088E695E00E944C14C090080392
:100E8000CC20C1F0E0908D03F0908E0300918F0391
:100E900010919003C801B701A80197010E94821D1B
:100EA0008823C1F4DD2460913702709138026F5FAE
:100EB0007F4F19C0E0908D03F0908E0300918F0357
:100EC00010919003C801B701A80197010E94821DEB
:100ED000882311F0DD2417C0DD2460913702709162
:100EE000380261507040882777FD8095982F0E94C6
:100EF0006B1C9B01AC01C801B7010E94CC1B88236D
:100F000014F4DD24D394D09208034091080320E028
:100F100030E0CC2011F021E030E0842F992787FDCC
:100F200090952817390759F0442319F461EB71E0C3
:100F300002C060EC71E088E695E00E944C140E94CB
:100F4000D4010E94CA0589EF92E00E94360D1F91DC
:100F50000F91FF90EF90DF90CF90089580E193E0A4
:100F600060E00E94CA0180911003882311F483E19C
:100F700001C0835F60E00E94420F80E193E061E086
:100F80000E94CA016CE271E080E090E00E94650E70
:100F900080E193E060E00E94CA0108958AE093E056
:100FA00060E00E94CA0180910A03882311F483E162
:100FB00001C0835F60E00E94420F8AE093E061E03D
:100FC0000E94CA016CE271E080E090E00E94650E30
:100FD0008AE093E060E00E94CA01089589EF92E000
:100FE0006CED75E00E94A10D08950E94FC0388E657
:100FF00095E040E051EE60E070E00E94731088E6FA
:1010000095E06FEC71E00E944F1388E695E06BE38A
:1010100071E00E944C148091CE04882311F482E187
:1010200001C08D5F62E00E94030F64EF71E080E019
:1010300090E00E94650E0E948B050E94CE070E94E0
:10104000AE070E94EE0768EE73E080E090E00E9439
:10105000650E0E94BD0208957F928F929F92AF927B
:10106000BF92CF92DF92EF92FF920F931F93CF9395
:10107000DF93EC01702E812E922EA32EB42EC52E5E
:10108000D62EE72EC25BDF4FF880CE54D040DE0173
:1010900020E030E036C0F9018C9111969C911197B7
:1010A00012964C91129713965C91139714966C912B
:1010B000149715967C91159716961C91169717966E
:1010C0000C9117972F5F3F4F18968715D1F49815FD
:1010D000C1F44915B1F45A15A1F46B1591F47C15BE
:1010E00081F41D1571F40E1561F47596EE0FFF1F56
:1010F000EE0FFF1FEC0FFD1F608191818281E38164
:1011000006C02F1540F260E090E080ECEFE7262F5C
:10111000392F482F5E2FB901CA01DF91CF911F915E
:101120000F91FF90EF90DF90CF90BF90AF909F9086
:101130008F907F900895AF92BF92CF92DF92EF92FF
:10114000FF920F931F93DF93CF93CDB7DEB76C97CA
:101150000FB6F894DEBF0FBECDBF0D8B1E8B2F8B4D
:10116000388F498F5A8F6B8F7C8F30E4E32EF12CB0
:10117000E80EF91EC7010E94BF15C701BE016B5ED4
:101180007F4F0E949E15C7016EEB40E00E945915EB
:101190008E01075F1F4FC801B02EA92E22E1C22E7B
:1011A000D12CCC0EDD1EC7010E940815F8018193D9
:1011B0008F01EC15FD05B9F78B2D9A2D68E00E9483
:1011C000C3149989891769F52985222319F48A8519
:1011D000882339F18E858F3F21F58889803109F583
:1011E0009A8580E0422F50E0482B592BDE01119662
:1011F000ECEBF2E088E001900D928150E1F7ED8593
:10120000F0E0E076F07094E0F695E7959A95E1F7D6
:10121000EC0FFD1F21813281209530952423352349
:1012200002C020E030E8C9016C960FB6F894DEBF2A
:101230000FBECDBFCF91DF911F910F91FF90EF9027
:10124000DF90CF90BF90AF9008958F929F92AF9212
:10125000BF92CF92DF92EF92FF920F931F93CF93A3
:10126000DF93EC01D22EC32EB42EA52E962E872E00
:101270000E949B089C0180E82030380779F5CE0158
:101280002D2D3C2D4B2D5A2D692D782D0E949B081C
:101290009C0180E82030380709F5CE012D2D3C2D2A
:1012A0004B2D5A2D692D782D0E949B089C0180E8BA
:1012B0002030380799F4CE012D2D3C2D4B2D5A2D81
:1012C000692D782D0E949B089C0180E8203038070A
:1012D00029F4E0E070E080EC6FE71BC0B9018827DB
:1012E00077FD8095982F0E946B1C20E030E040E84D
:1012F0005DE30E941F1D26E636E646EE5FE30E9490
:101300001F1D20E030E040E052E40E94681BE62F01
:10131000692F2E2F372F482F562FB901CA01DF9181
:10132000CF911F910F91FF90EF90DF90CF90BF90E2
:10133000AF909F908F9008950F931F938C01005C46
:101340001F4FC8010E94BF15C8010E949915C8010E
:1013500064E441E00E9459151F910F910895CF92C6
:10136000DF92EF920F931F93DF93CF93CDB7DEB74A
:1013700028970FB6F894DEBF0FBECDBF09831A833E
:101380002B833C834D835E836F8378878C01005C65
:101390001F4FC8010E94BF156E010894C11CD11CCB
:1013A000C801B6010E949E15C8016EE440E00E948B
:1013B0005915C80160E040E00E945915C80160E07D
:1013C00040E00E945915E294EE0C40EEE422EA94CB
:1013D000C8016E2D40E00E945915C8010E94BF153A
:1013E000C801B6010E949E15C80168E441E00E9450
:1013F00059156AE070E080E090E00E94650EC80137
:101400000E94A81428960FB6F894DEBF0FBECDBF79
:10141000CF91DF911F910F91EF90DF90CF900895C2
:101420008F929F92AF92BF92CF92DF92EF92FF92F4
:101430000F931F93CF93DF93EC01962E0E94570ECC
:101440005B016C01C15BDF4F8881CF54D04081309C
:1014500021F0823009F073C02EC09920F1F0C05BFA
:10146000DF4F88819981AA81BB81C055D040860118
:101470007501E81AF90A0A0B1B0B692D70E080E070
:1014800090E028EE33E040E050E00E94861D6E15AB
:101490007F058007910708F052C0C05BDF4FA8822C
:1014A000B982CA82DB8282E08A93CF54D040CE01D7
:1014B0000E949C0944C0C05BDF4F88819981AA814A
:1014C000BB81C055D040A81AB90ACA0ADB0A89EC08
:1014D000A816B104C104D10490F17E0164E5A62EE2
:1014E000B12CAC0EBD1ECC24DD245EE4852E912CE7
:1014F0008C0E9D1E19C0F70100811181228133815C
:101500004481558166817781CE010E942509F501CC
:1015100061937193819391935F010894C11CD11CD5
:1015200088E090E0E80EF91EF401808190E0C81692
:10153000D9060CF3C15BDF4F81E0888301C080E0F6
:10154000DF91CF911F910F91FF90EF90DF90CF909F
:10155000BF90AF909F908F900895CF92DF92EF92BF
:10156000FF920F931F93DF93CF93CDB7DEB72897EA
:101570000FB6F894DEBF0FBECDBF09831A832B834D
:101580003C834D835E836F83788788E695E06CEEBD
:1015900071E00E944F137E010894E11CF11CF9E0F8
:1015A000CF2ED12CCC0EDD1EF70101917F0110E072
:1015B000B801E4E075956795EA95E1F788E695E06E
:1015C00040E150E00E943C130F70107088E695E0F7
:1015D000B80140E150E00E943C13EC14FD0421F7F7
:1015E00028960FB6F894DEBF0FBECDBFCF91DF9126
:1015F0001F910F91FF90EF90DF90CF9008952F9261
:101600003F924F925F926F927F928F929F92AF9292
:10161000BF92CF92DF92EF92FF920F931F93DF93CF
:10162000CF93CDB7DEB764970FB6F894DEBF0FBE89
:10163000CDBF3C016C872EE430E0620E731EF301D7
:10164000608382EB9FEF680E791EDA0120E030E0C4
:101650009C85492F50E083E0440F551F8A95E1F7A0
:1016600024C0F301E20FF31F8C91808311968C91BB
:101670001197818312968C911297828313968C9185
:101680001397838314968C911497848315968C9169
:101690001597858316968C911697868317968C914D
:1016A000179787831896285F3F4F24173507C9F689
:1016B00000E4402E512C460C571CC2010E94B61467
:1016C0001B861A861986F301E25BFF4FFC8BEB8BBE
:1016D00099C0CE01019667E00E94C31439802A8028
:1016E000FB81FD872C812E873D813F879E81988BD2
:1016F000EF81E98BF885FA8B882E9924AA24BB24E4
:10170000CC24DD247601232D322D4D855E856F8519
:10171000792FCF0108E30E940D01821609F072C0F3
:10172000931609F06FC0A41609F06CC0B51609F045
:1017300069C0C61609F066C0D71609F063C0E8167E
:1017400009F060C0F91609F05DC0EB89FC894081A1
:10175000F30120E030E033C0F22E808151816281BC
:101760007381A481B581168107812F5F3F4F389621
:10177000381629F5251619F58D85861701F58E85FC
:101780008717E9F48F858A17D1F488898B17B9F404
:1017900089898117A1F48A89801789F4EC859E17BD
:1017A00070F5892F90E002C0880F991FFA94E2F734
:1017B0002A853B85282B392B3B872A8720C0922FEF
:1017C000241750F24830D8F4E42FF0E013E0EE0F85
:1017D000FF1F1A95E1F7E60DF71D308221823D8546
:1017E00032838E8583839F859483288925833989D5
:1017F00036838A8987834F5FEB89FC894083F9852B
:10180000FF5FF987C201BE016F5F7F4F0E940A161A
:10181000882309F05ECFC2010E94B614FF24BEE403
:10182000CB2ED12CC60CD71C1BC0EF2DF0E0A3E0B3
:10183000EE0FFF1FAA95E1F7E60DF71D008111815C
:10184000228133814481558166817781023211F092
:10185000083229F4C301EAE0EE2E0E94AF09F394A6
:10186000F6018081F81608F3FC85F81780F588E604
:1018700095E06FEE71E00E944F13FC840EE4C02EE1
:10188000D12CC60CD71C1BC088E695E060E072E046
:101890000E944F13EF2DF0E013E0EE0FFF1F1A959B
:1018A000E1F7E60DF71D008111812281338144812A
:1018B000558166817781C3010E94AD0AF394F601D8
:1018C0008081F81608F388E695E00E943B1281E0DB
:1018D00090E00C8402C0880F991F0A94E2F70197E8
:1018E0002A853B8528173907D9F188E695E062E01B
:1018F00072E00E944F13FF24B1E0CB2ED12C29C0FF
:101900000F2D10E0C6010F2C02C0880F991F0A94FA
:10191000E2F7EA85FB858E239F23892BC9F488E6AD
:1019200095E060E072E00E944F13F801A3E0EE0F33
:10193000FF1FAA95E1F7E60DF71D008111812281B5
:1019400033814481558166817781C3010E94AD0A4C
:10195000F394FC85FF16A0F288E695E00E943B1206
:101960002EE430E0620E731EF301808122EB3FEF24
:10197000620E731E8823D9F00E94570EE0E5F0E056
:101980006E0E7F1EF301608371838283938382E0F6
:1019900082933F0121EB3FEF620E731EC3010E9451
:1019A0009C0968EC70E080E090E00E94650E8985FB
:1019B00064960FB6F894DEBF0FBECDBFCF91DF9116
:1019C0001F910F91FF90EF90DF90CF90BF90AF905D
:1019D0009F908F907F906F905F904F903F902F904F
:1019E00008950F931F938C01805C9F4F0E94A01657
:1019F000025B1F4FF801119210821F910F91089501
:101A0000CF93DF93EC012B853C854D855E85CA0124
:101A100002962817390718F0225030400AC04217A2
:101A2000530768F0CA0102978217930728F02E5FC8
:101A30003F4F3C872B8705C02417350710F45C8780
:101A40004B876B857C85CE010E94F0162B853C85EB
:101A50008D859E852817390731F4CE01039660E005
:101A600070E00E943219DF91CF910895CF93DF93F8
:101A7000EC018D81882359F0CE01039662E070E07D
:101A80000E944E19882319F0CE010E94000DDF91AB
:101A9000CF910895AF92BF92CF92DF92EF92FF92D3
:101AA0000F931F93CF93DF93EC0100D000D0EDB7DD
:101AB000FEB73196653B08F064EB70E080E090E0A3
:101AC000AF80B884CC24DD2429853A8540E050E0FD
:101AD000208331834283538320E030E040E050E0B4
:101AE000F4EBEF2EF12C012D112D0E945F147E8757
:101AF0006D870F900F900F900F908B859C858F5F57
:101B00009F4F31F488E695E063E172E00E944C1447
:101B10008B859C858F5F9F4F49F0CE01039662E0D5
:101B200070E00E943219CE010E94000DDF91CF912A
:101B30001F910F91FF90EF90DF90CF90BF90AF90EB
:101B40000895CF93DF93EC017C876B872F813885D5
:101B50006217730710F43C872B8729853A858B859C
:101B60009C852817390710F43C872B878B859C852B
:101B70009E878D876E814F81588529853A85CE0154
:101B800070E00E942C176B857C85CE010E94F016B8
:101B9000DF91CF910895BF92CF92DF92EF92FF92A3
:101BA0000F931F938C01B62E7A0169010E94D616FD
:101BB000F8011582B682F086E782D286C1868FEF61
:101BC0009FEF94878387168615861F910F91FF904C
:101BD000EF90DF90CF90BF900895982F8E3008F04F
:101BE0009E5097708091BB028295880F880F807CF1
:101BF000892B80937C0080917A00806480937A00A6
:101C000080917A0086FDFCCF209178004091790088
:101C1000942F80E030E0282B392BC90108951F92C2
:101C20000F920FB60F9211242F933F938F939F9390
:101C3000AF93BF938091DB049091DC04A091DD040D
:101C4000B091DE043091DF040196A11DB11D232F58
:101C50002D5F2D3720F02D570196A11DB11D20932A
:101C6000DF048093DB049093DC04A093DD04B09345
:101C7000DE048091D7049091D804A091D904B0914A
:101C8000DA040196A11DB11D8093D7049093D80466
:101C9000A093D904B093DA04BF91AF919F918F9133
:101CA0003F912F910F900FBE0F901F9018958FB7F7
:101CB000F8942091DB043091DC044091DD045091D4
:101CC000DE048FBFB901CA0108959B01AC017FB743
:101CD000F8948091D7049091D804A091D904B09140
:101CE000DA0466B5A89B05C06F3F19F00196A11DE7
:101CF000B11D7FBFBA2FA92F982F8827860F911D5E
:101D0000A11DB11D62E0880F991FAA1FBB1F6A9514
:101D1000D1F7BC012DC0FFB7F8948091D704909102
:101D2000D804A091D904B091DA04E6B5A89B05C007
:101D3000EF3F19F00196A11DB11DFFBFBA2FA92FCA
:101D4000982F88278E0F911DA11DB11DE2E0880FED
:101D5000991FAA1FBB1FEA95D1F7861B970B885EB8
:101D60009340C8F2215030404040504068517C4F71
:101D7000211531054105510571F60895019739F096
:101D8000880F991F880F991F02970197F1F70895FF
:101D9000789484B5826084BD84B5816084BD85B546
:101DA000826085BD85B5816085BDEEE6F0E080810D
:101DB00081608083E1E8F0E010828081826080832E
:101DC000808181608083E0E8F0E0808181608083B1
:101DD000E1EBF0E0808184608083E0EBF0E08081E3
:101DE00081608083EAE7F0E0808184608083808185
:101DF000826080838081816080838081806880832D
:101E00001092C1000895CF93DF93482F50E0CA018C
:101E100086569F4FFC0134914A575F4FFA018491D7
:101E2000882369F190E0880F991FFC01E859FF4F62
:101E3000A591B491FC01EE58FF4FC591D491662352
:101E400051F42FB7F8948C91932F909589238C930C
:101E5000888189230BC0623061F42FB7F8948C918C
:101E6000932F909589238C938881832B88832FBF10
:101E700006C09FB7F8948C91832B8C939FBFDF9102
:101E8000CF910895482F50E0CA0182559F4FFC0121
:101E90002491CA0186569F4FFC0194914A575F4F87
:101EA000FA013491332309F440C0222351F1233045
:101EB00071F0243028F42130A1F0223011F514C043
:101EC0002630B1F02730C1F02430D9F404C080911D
:101ED00080008F7703C0809180008F7D8093800089
:101EE00010C084B58F7702C084B58F7D84BD09C0D2
:101EF0008091B0008F7703C08091B0008F7D809378
:101F0000B000E32FF0E0EE0FFF1FEE58FF4FA5915A
:101F1000B4912FB7F894662321F48C91909589237E
:101F200002C08C91892B8C932FBF0895682F70E08D
:101F3000CB0182559F4FFC012491CB0186569F4FC8
:101F4000FC0144916A577F4FFB019491992319F446
:101F500020E030E03CC0222351F1233071F02430E6
:101F600028F42130A1F0223011F514C02630B1F050
:101F70002730C1F02430D9F404C0809180008F77DD
:101F800003C0809180008F7D8093800010C084B555
:101F90008F7702C084B58F7D84BD09C08091B00069
:101FA0008F7703C08091B0008F7D8093B000892F20
:101FB00090E0880F991F84589F4FFC01A591B49120
:101FC0008C9120E030E0842311F021E030E0C90161
:101FD000089508951F920F920FB60F9211242F9318
:101FE0003F934F938F939F93EF93FF938091C00004
:101FF00082FD1DC04091C600209120053091210531
:102000002F5F3F4F2F7330708091220590912305F1
:102010002817390771F0E0912005F0912105E05271
:10202000FB4F4083309321052093200502C080910F
:10203000C600FF91EF919F918F914F913F912F910A
:102040000F900FBE0F901F901895E0917405F091BE
:102050007505E05CFF4F8191919120813181821B58
:10206000930B8F739070892B11F00E94E90F0895E4
:102070001F920F920FB60F9211242F933F938F93BD
:102080009F93EF93FF9320916405309165058091B4
:102090006605909167052817390731F48091C100D2
:1020A0008F7D8093C10014C0E0916605F0916705B3
:1020B000EC5DFA4F2081809166059091670501964D
:1020C0008F73907090936705809366052093C60088
:1020D000FF91EF919F918F913F912F910F900FBEA4
:1020E0000F901F901895AF92BF92DF92EF92FF92E0
:1020F0000F931F93CF93DF93EC017A018B01DD24C3
:10210000403081EE580780E0680780E0780711F0E2
:10211000DD24D39491E0A92EB12CEC89FD89DD203A
:1021200069F0C50108A002C0880F991F0A94E2F760
:10213000808360E079E08DE390E005C0108260E884
:1021400074E88EE190E0A80197010E94E51D2150FE
:10215000304040405040569547953795279580E14F
:102160002030380720F0DD2011F0DD24D6CFE889BB
:10217000F9893083EA89FB89208319A2EE89FF89D6
:10218000408121E030E0C9010C8C02C0880F991F0A
:102190000A94E2F7482B4083EE89FF894081C90108
:1021A0000D8C02C0880F991F0A94E2F7482B4083D8
:1021B000EE89FF894081C9010E8C02C0880F991FEA
:1021C0000A94E2F7482B4083EE89FF8980810F8CC7
:1021D00002C0220F331F0A94E2F7209528232083A0
:1021E000DF91CF911F910F91FF90EF90DF90BF9003
:1021F000AF900895DC011C96ED91FC911D97E05C79
:10220000FF4F2191319180819181281B390B2F73D0
:102210003070C9010895DC011C96ED91FC911D9769
:10222000E05CFF4F20813181E054F040DF01AE5B84
:10223000BF4F8D919C9111972817390719F42FEFF3
:102240003FEF07C08D919C91E80FF91F8081282FE7
:1022500030E0C9010895DC011C96ED91FC911D97B9
:10226000E05CFF4F20813181E054F040DF01AE5B44
:10227000BF4F8D919C9111972817390719F42FEFB3
:102280003FEF10C08D919C911197E80FF91F2081AD
:102290008D919C91119701968F73907011969C93DC
:1022A0008E9330E0C9010895DC0191968C9191974D
:1022B000882339F05496ED91FC915597808186FFE3
:1022C000F9CF91961C920895CF93DF93EC01EE85A0
:1022D000FF85E05CFF4F20813181E054F0402F5FAB
:1022E0003F4F2F733070DF01AE5BBF4F8D919C91DC
:1022F000119728173907D1F3E05CFF4F8081918156
:10230000E054F040E80FF91F6083EE85FF85E05C44
:10231000FF4F31832083EE89FF89208181E090E0A7
:102320000F8C02C0880F991F0A94E2F7282B208394
:1023300081E089A3EC89FD8980818064808381E0CC
:1023400090E0DF91CF91089510926B0510926A058D
:1023500088EE93E0A0E0B0E080936C0590936D056B
:10236000A0936E05B0936F0588EC92E09093690599
:102370008093680580EE94E09093750580937405D2
:1023800084E295E0909377058093760585EC90E064
:10239000909379058093780584EC90E090937B0589
:1023A00080937A0580EC90E090937D0580937C0586
:1023B00081EC90E090937F0580937E0582EC90E025
:1023C000909381058093800586EC90E0909383053F
:1023D0008093820584E08093840583E08093850563
:1023E00087E08093860585E08093870581E0809370
:1023F00088050895CF93DF930E94C80E0E94F507C9
:10240000C5E2D0E10E94ED052097E1F30E9425107E
:10241000F9CFCF92DF92EF92FF920F931F93CF935A
:10242000DF937C016B018A01C0E0D0E00FC0D601D0
:102430006D916D01D701ED91FC910190F081E02D3E
:10244000C7010995C80FD91F01501040011511058A
:1024500071F7CE01DF91CF911F910F91FF90EF9017
:10246000DF90CF900895DC01ED91FC910190F08117
:10247000E02D09950895EF92FF920F931F938C0121
:10248000DC01ED91FC910190F081E02D6DE009956A
:102490007C01D801ED91FC910190F081E02DC80103
:1024A0006AE009959C012E0D3F1DC9011F910F91F6
:1024B000FF90EF900895CF93DF93EC0161157105C4
:1024C00019F420E030E00FC0DB010D900020E9F7A7
:1024D0001197A61BB70BE881F9810280F381E02DEB
:1024E000AD0109959C01C901DF91CF9108954F92EB
:1024F0005F927F928F929F92AF92BF92CF92DF9224
:10250000EF92FF920F931F93DF93CF93CDB7DEB778
:10251000A1970FB6F894DEBF0FBECDBF2C01742E6D
:10252000CB01223008F42AE019A231E2C32ED12CCB
:10253000CC0EDD1E822E9924AA24BB24672D752F74
:10254000A50194010E94E51D79018A01C801B70126
:10255000A50194010E94861D472D461B0894C108C1
:10256000D1084A3010F4405D01C0495CF601408357
:10257000E114F1040105110521F07E2C5F2DC80145
:10258000DDCFC201B6010E945B12A1960FB6F8948E
:10259000DEBF0FBECDBFCF91DF911F910F91FF9096
:1025A000EF90DF90CF90BF90AF909F908F907F90F3
:1025B0005F904F900895DC012115310541F4ED91B4
:1025C000FC910190F081E02D642F099508950E94FF
:1025D00077120895EF92FF920F931F939A01E62EC0
:1025E000FF2400E010E0B801A7010E94DB121F9158
:1025F0000F91FF90EF900895CF92DF92EF92FF92AC
:102600000F931F93CF93DF93EC016A017B01211598
:10261000310541F4E881F9810190F081E02D642FCA
:1026200009951FC02A303105D1F477FF17C0E88122
:10263000F9810190F081E02D6DE209958C0144272C
:102640005527BA014C195D096E097F09CE012AE0B0
:102650000E9477129801280F391F04C02AE00E94B7
:1026600077129C01C901DF91CF911F910F91FF90CB
:10267000EF90DF90CF900895EF92FF920F931F930A
:102680007B019A010027F7FC0095102FB801A701E4
:102690000E94FC121F910F91FF90EF9008950E94ED
:1026A0005B1208957F928F929F92AF92BF92CF92CA
:1026B000DF92EF92FF920F931F93CF93DF934C0122
:1026C0007A018B01722ECB01BA01A80197010E94F9
:1026D000821D882321F0C40169E272E021C0C0E0BC
:1026E000D0E057016801E894D7F8C601B5012FEF93
:1026F0003FEF4FE75FE70E94821D882351F4C60138
:10270000B5012FEF3FEF4FE75FE70E94CC1B181694
:1027100014F0C1E0D0E0219739F0C4016DE272E01D
:102720000E945B12EC0193C0C801B7012FEF3FEF8D
:102730004FE75FE40E941B1D181654F0C801B70153
:102740002FEF3FEF4FE75FEC0E94CC1B882324F470
:10275000C40161E372E0E4CFC801B70120E030E0DA
:1027600040E050E00E94CC1B87FD03C0C0E0D0E0F9
:102770000EC0D401ED91FC910190F081E02DC401D7
:102780006DE20995EC0117FB109517F9109520E003
:1027900030E040E05FE3DD240BC0CA01B90120E076
:1027A00030E040E251E40E94D01B9B01AC01D39485
:1027B000D71498F3C801B7010E94681B5B016C0134
:1027C0000E943D1C7B018C01C401B801A7012AE0D5
:1027D00030E00E94DB12C80FD91F772039F0C40106
:1027E00065E372E00E945B12C80FD91FC801B701F0
:1027F0000E94691C9B01AC01C601B5010E94671BC8
:1028000024C020E030E040E251E40E941F1D7B0123
:102810008C010E94381C5B016C01CC24B7FCC09475
:10282000DC2CC401B601A5012AE030E00E94FC12B4
:10283000C80FD91FC601B5010E946B1C9B01AC01DA
:10284000C801B7010E94671B7A947720D1F6CE01A8
:10285000DF91CF911F910F91FF90EF90DF90CF907C
:10286000BF90AF909F908F907F9008950E945213D9
:102870000895EF92FF920F931F937C010E945213D1
:102880008C01C7010E943B12080F191FC8011F913C
:102890000F91FF90EF900895EF92FF920F931F9387
:1028A0007C010E945B128C01C7010E943B12080F41
:1028B000191FC8011F910F91FF90EF9008952F925B
:1028C0003F924F925F926F927F928F929F92AF92C0
:1028D000BF92CF92DF92EF92FF920F931F93DF93FD
:1028E000CF93CDB7DEB73B014C0119012A016D89A9
:1028F0007E898F89988D6A197B098C099D09621AD6
:10290000730A840A950AA40193010E94861DE218A5
:10291000F30804091509A80197010E94071E2A0D52
:102920003B1D4C1D5D1DB901CA01CF91DF911F9167
:102930000F91FF90EF90DF90CF90BF90AF909F905E
:102940008F907F906F905F904F903F902F90089561
:10295000FC01F894A181B28111969C91119780811C
:102960008095982311969C9378940895FC01138682
:102970001586148687E090E012863197009711F053
:102980000197FACF0895DC0180E00BC0E82FF0E05A
:102990008D9190E0E827F927EE53FF4FE4916150C5
:1029A0008E2F662399F70895DF92EF92FF920F938F
:1029B0001F93FC01E08001811281F894F80182816B
:1029C000DE2CD0948D21828381818E29818383E0C6
:1029D00090E00E94BE0EF80181818D2181838AE002
:1029E00090E00E94BE0EF8010081789485E390E0AB
:1029F0000E94BE0E80E010E0FF240E211F21012B5B
:102A000009F081E01F910F91FF90EF90DF90089502
:102A1000EF92FF920F931F93CF93DF937C0101E01E
:102A200010E0C0E0D0E0C7010E94D4148111102B47
:102A3000000F2196C830D105B1F7812FDF91CF91DA
:102A40001F910F91FF90EF9008951F93CF93DF9305
:102A5000FC011081C181D281912F909560FF12C03D
:102A6000F8948A8189238A838981812B89838AE0EA
:102A700090E00E94BE0E8A81812B8A83789487E33E
:102A800090E011C0F8948A8189238A838981812BFF
:102A9000898381E490E00E94BE0E8A81812B8A8323
:102AA000789485E090E00E94BE0EDF91CF911F9157
:102AB0000895CF92DF92EF92FF920F931F93CF93DF
:102AC000DF938C01E42EFF24F394C0E0D0E0C62E07
:102AD000DD2460E08F2D90E08C219D21892B09F071
:102AE00061E0C8010E942515FF0C2196C830D10570
:102AF00081F7EE20A9F4F894D8011196ED91FC919C
:102B0000129791818C918095982391831196ED91E4
:102B1000FC91129792818C9180959823928378945E
:102B2000DF91CF911F910F91FF90EF90DF90CF90A9
:102B300008956CEC40E00E9459150895EF92FF92C1
:102B40000F931F93CF93DF938C017B0165E540E0EA
:102B50000E945915C0E0D0E0F701EC0FFD1FC8013D
:102B6000608140E00E9459152196C830D105A1F737
:102B7000DF91CF911F910F91FF90EF900895DF9219
:102B8000EF92FF920F931F93CF93DF93FC0100818D
:102B9000C181D281F8948981D02ED0948D218983EE
:102BA00078941DE7E02EFF24115059F182E090E067
:102BB0000E94BE0E888190E08E219F21892BA1F377
:102BC000F8948A818D218A838981802B89837894E6
:102BD00084EF91E00E94BE0EF89489818D21898353
:102BE00080E590E00E94BE0E888110E090E0E8222F
:102BF000F922EF2809F411E0789484EA91E00E9428
:102C0000BE0E812FDF91CF911F910F91FF90EF901A
:102C1000DF900895AF92BF92DF92EF92FF920F93F1
:102C20001F93CF93DF93EC015B018D85882309F01F
:102C300061C0CE010E94BF15882329F41B861D8622
:102C40001C8690E06BC0CE0160EF40E00E945915F9
:102C500001E0DD24EE24FF24F394CE010E94D4147D
:102C6000182FCE010E94D414113019F48130E1F4F0
:102C700039C0181709F58B85081770F460E0FE015C
:102C8000EE0DF11D838190E02F2D30E08223932300
:102C9000181619064CF003C060E0081729F0093037
:102CA00008F04CC00C874AC0FE01EE0DF11D838177
:102CB0008F29838361E009C0612FFE01EE0DF11DB4
:102CC0009F2D9095838189238383CE010E942515B2
:102CD0000F5FFF0C19F4E394FF24F39487E08E1543
:102CE00008F0BBCF013430F0DB86DD2011F581E048
:102CF0008D871FC01B861D861C8690E0DE0120E0AC
:102D000030E0F501E20FF31F13968C911397808347
:102D10002F5F3F4F11962830310599F7892FDF91AA
:102D2000CF911F910F91FF90EF90DF90BF90AF90E8
:102D300008958B818823F1F291E0E0CFD02EBDCFB2
:102D4000FF920F931F938C01F62E862F60E00E9456
:102D5000030F8F2D90E0FC01E656FF4FE491D80160
:102D6000EC938A579F4FFC016491E62FF0E0EE0F41
:102D7000FF1FE458FF4F8591949112969C938E9378
:102D800011971B961C921B971D961C921D971C96C3
:102D90001C92F80187E090E012863197009711F0BD
:102DA0000197FACF1F910F91FF900895FC01809138
:102DB0008A058C3090F480838F5F80938A058150E0
:102DC00090E0FC01EE0FFF1FE80FF91FE557FA4FE7
:102DD00088EB9BE09283818308958FEF8083089531
:102DE000FC0120812C30B8F58181992787FD9095D1
:102DF00048E850E0481B590B440F551F440F551F1E
:102E00006417750784F08281992787FD909548E5BE
:102E100052E0481B590B440F551F440F551F6417B0
:102E200075070CF4AB0142505040CA01AA2797FD28
:102E3000A095BA2F880F991FAA1FBB1F4FB7F894F0
:102E400030E0F901EE0FFF1FE20FF31FE557FA4FD5
:102E5000928381834FBF0895CF92DF92EF92FF92CA
:102E60001F93CF93DF93EC01162F7A0169018881BC
:102E70008C3008F064C0862F61E00E94030F8881C7
:102E800090E0FC01EE0FFF1FE80FF91FE557FA4F26
:102E90001F738081807C812B808380E292E08E1979
:102EA0009F0964E070E00E94D21D698380E699E08A
:102EB0008C199D0964E070E00E94D21D6A83A8818C
:102EC0008A2F6CE00E94A51D682F90E0AC01440F92
:102ED000551F480F591F440F551F440F551F20E021
:102EE00030E0C901840F951FFC01EE0FFF1FE80FB2
:102EF000F91FE557FA4F808186FD15C02F5F3F4FC0
:102F00002C30310571F724C01092800082E080934C
:102F100081001092850010928400B19A80916F0018
:102F2000826080936F008A2F90E0FC01EE0FFF1FFC
:102F3000E80FF91FE557FA4F80818064808388810C
:102F4000DF91CF911F91FF90EF90DF90CF90089588
:102F50006623D1F2E8CF1F920F920FB60F92112481
:102F60002F933F934F935F936F937F938F939F9391
:102F7000AF93BF93EF93FF938091AF0587FF05C099
:102F800010928500109284002BC02091AF0533274A
:102F900027FD309580918A0590E02817390704F5C0
:102FA0008091AF05992787FD9095FC01EE0FFF1FDB
:102FB000E80FF91FE557FA4F808186FF11C0809115
:102FC000AF05992787FD9095FC01EE0FFF1FE80FD5
:102FD000F91FE557FA4F80818F7360E00E94420F1E
:102FE0008091AF058F5F8093AF052091AF053327A8
:102FF00027FD309580918A0590E0281739070CF05D
:103000004EC08091AF058C300CF049C020918400F7
:10301000309185008091AF05992787FD9095FC013F
:10302000EE0FFF1FE80FF91FE557FA4F81819281DC
:10303000280F391F30938900209388008091AF05B5
:10304000992787FD9095FC01EE0FFF1FE80FF91FF0
:10305000E557FA4F808186FF2BC08091AF059927F5
:1030600087FD9095FC01EE0FFF1FE80FF91FE55754
:10307000FA4F80818F7361E00E94420F19C080E493
:103080009CE905C0809184009091850004969093FE
:103090008900809388008FEF8093AF0509C08091ED
:1030A000840090918500049680549C4940F3EACFB7
:1030B000FF91EF91BF91AF919F918F917F916F9110
:1030C0005F914F913F912F910F900FBE0F901F90E6
:1030D0001895FC018081882311F482E101C08D5F85
:1030E0000E94030F0895FC018081882311F482E17E
:1030F00001C08D5F0E94420F0895FF920F931F93AE
:10310000082FF92E162F60E0112309F461E0802FBB
:103110009F2D0E946918802F9F2D612F0E94731888
:103120001F910F91FF900895FC018081882311F475
:1031300083E101C0835F0E94420F08950F931F93A4
:103140008C01FC01818190E00E94BE0EC80161E00B
:103150000E9494181F910F9108950F931F938C0153
:1031600060E00E947D18C8010E949E18C80161E0BD
:103170000E947D181F910F9108950F931F938C014A
:10318000FC016083418361E00E947D18C80161E019
:103190000E94CA01C8010E949E181F910F910895B4
:1031A0000F931F938C01FC01818190E00E94BE0E61
:1031B000C80160E00E9494181F910F910895EF924A
:1031C000FF920F931F93CF93DF93EC01E62E0E94A3
:1031D000D01830E8F32E00E010E06F2D6E21CE0104
:1031E0000E947D18CE010E949E18CE010E94D01828
:1031F000F6940F5F1F4F0830110579F7CE0161E09B
:103200000E947D18CE010E949E188881882311F4A7
:1032100082E101C08D5F0E94960F182FCE010E949F
:10322000D01880E0112309F481E0DF91CF911F9144
:103230000F91FF90EF900895FF920F931F938C01D1
:10324000F62E0E94D018C8010E949E18C80160E0A6
:103250000E947D18C8016F2D0E94DF181F910F91E9
:10326000FF9008950F931F93CF93DF938C01EB0191
:1032700080E06115710509F081E0F80182838823FF
:1032800041F00E94570E2197C60FD71FF801D18336
:10329000C083DF91CF911F910F910895EF92FF921C
:1032A0000F931F93CF93DF93EC017B018A818823D7
:1032B00011F400E00FC0088119810E94570EC80167
:1032C000861B970B2AEE8136920710F400E006C0A9
:1032D000082F0195CE01B7010E943219802FDF918E
:1032E000CF911F910F91FF90EF900895DC01ED9128
:1032F000FC910680F781E02D40E009950895EF925A
:10330000FF920F931F93CF93DF938C017A01677025
:10331000660F660F660F60640E947619C0E0D0E009
:10332000D801ED91FC91D701AC0FBD1F0190F08148
:10333000E02DC8016C9109952196C830D10581F71F
:10334000DF91CF911F910F91FF90EF900895FC01B5
:103350006581862F846085836C60CF010E94761919
:103360000895DF93CF93CDB7DEB728970FB6F894C3
:10337000DEBF0FBECDBF9C01FE013196A2EEB2E0D2
:1033800088E00D9001928150E1F7F9018085841762
:1033900010F4482F4150E42FF0E0EE0FFF1FEC0F28
:1033A000FD1F8181680F6068C9010E947619289607
:1033B0000FB6F894DEBF0FBECDBFCF91DF91089559
:1033C000DC01ED91FC910680F781E02D41E009954B
:1033D00081E090E008950F931F93CF93DF93EC016A
:1033E000062F142F411110E1E881F981602F6295B9
:1033F0006F70612B0084F185E02DCE010995E88185
:10340000F9810F70102B0084F185E02DCE01612F22
:103410000995DF91CF911F910F910895FF920F931E
:103420001F938C01F62E80ECF82AF8018285938593
:1034300064850E941C19F8018285938569E00E94C9
:10344000DF18F801828593856F2D0E94DF1860E4F4
:103450006F25F801828593850E94DF18F801828527
:1034600093856F2D0E94DF18F801828593850E9455
:10347000AD181F910F91FF9008950F931F938C012A
:10348000FC018285938564850E941C19F801828560
:10349000938560E00E94DF18F8018285938560E0E3
:1034A0000E94DF18F801828593850E94AD181F9154
:1034B0000F9108950F931F938C01FC0182859385D2
:1034C00064850E941C19F8018285938565E00E943D
:1034D000DF18F8018285938564E20E94DF18F80105
:1034E000828593850E94AD18C8010E943D1A1F91E4
:1034F0000F91089561E00E94761980ED97E00E9497
:10350000BE0E0895CF93DF93EC01423018F08C810A
:1035100088608C8348871986222329F0413019F46A
:103520008C8184608C8380E593EC0E94BE0EE881E0
:10353000F9810480F581E02DCE0109956C8164FD4F
:103540002DC0E881F9810084F185E02DCE0163E092
:10355000099584E991E10E94BE0EE881F981008419
:10356000F185E02DCE0163E0099584E991E10E94A7
:10357000BE0EE881F9810084F185E02DCE0163E083
:10358000099586E990E00E94BE0EE881F9810084E9
:10359000F185E02DCE0162E0099516C06062CE0192
:1035A0000E94761984E991E10E94BE0E6C816062EE
:1035B000CE010E94761986E990E00E94BE0E6C81D1
:1035C0006062CE010E9476196C816062CE010E9419
:1035D000761984E08D83CE010E94A719CE010E9446
:1035E0007A1A82E08E83CE0166E00E947619DF911E
:1035F000CF910895FC011382128288ED92E09183AD
:10360000808373876287440F44871482CF0160E10F
:1036100042E020E00E94821A08951F920F920FB696
:103620000F9211242F933F934F935F936F937F9348
:103630008F939F93AF93BF93EF93FF938091B005C8
:103640009091B105892B29F0E091B005F091B10579
:103650000995FF91EF91BF91AF919F918F917F91CC
:103660006F915F914F913F912F910F900FBE0F90EF
:103670001F9018951F920F920FB60F9211242F933F
:103680003F934F935F936F937F938F939F93AF93EA
:10369000BF93EF93FF938091B2059091B305892B6F
:1036A00029F0E091B205F091B3050995FF91EF91F2
:1036B000BF91AF919F918F917F916F915F914F914A
:1036C0003F912F910F900FBE0F901F90189550585B
:1036D000BB27AA270ED075C166D130F06BD120F080
:1036E00031F49F3F11F41EF45BC10EF4E095E7FB4B
:1036F00051C1E92F77D180F3BA17620773078407A6
:10370000950718F071F49EF58FC10EF4E0950B2E1D
:10371000BA2FA02D0B01B90190010C01CA01A00123
:103720001124FF27591B99F0593F50F4503E68F17E
:103730001A16F040A22F232F342F4427585FF3CFBF
:10374000469537952795A795F0405395C9F77EF490
:103750001F16BA0B620B730B840BBAF09150A1F0D9
:10376000FF0FBB1F661F771F881FC2F70EC0BA0F5F
:10377000621F731F841F48F4879577956795B795E7
:10378000F7959E3F08F0B3CF9395880F08F09927DF
:10379000EE0F979587950895D9D008F481E00895A4
:1037A0000CD00FC107D140F0FED030F021F45F3FC4
:1037B00019F0F0C0511139C1F3C014D198F3992315
:1037C000C9F35523B1F3951B550BBB27AA276217E5
:1037D0007307840738F09F5F5F4F220F331F441F2A
:1037E000AA1FA9F333D00E2E3AF0E0E830D0915062
:1037F0005040E695001CCAF729D0FE2F27D0660F4F
:10380000771F881FBB1F261737074807AB07B0E88D
:1038100009F0BB0B802DBF01FF2793585F4F2AF0A3
:103820009E3F510568F0B6C000C15F3FECF3983E83
:10383000DCF3869577956795B795F7959F5FC9F700
:10384000880F911D9695879597F90895E1E0660F89
:10385000771F881FBB1F621773078407BA0720F002
:10386000621B730B840BBA0BEE1F88F7E09508956B
:1038700004D06894B111D9C00895BCD088F09F5786
:1038800090F0B92F9927B751A0F0D1F0660F771FAC
:10389000881F991F1AF0BA95C9F712C0B13081F08C
:1038A000C3D0B1E00895C0C0672F782F8827B85FD4
:1038B00039F0B93FCCF3869577956795B395D9F7ED
:1038C0003EF490958095709561957F4F8F4F9F4FF7
:1038D0000895E89409C097FB3EF490958095709503
:1038E00061957F4F8F4F9F4F9923A9F0F92F96E94C
:1038F000BB279395F695879577956795B795F111C1
:10390000F8CFFAF4BB0F11F460FF1BC06F5F7F4F5D
:103910008F4F9F4F16C0882311F096E911C077236F
:1039200021F09EE8872F762F05C0662371F096E878
:10393000862F70E060E02AF09A95660F771F881F47
:10394000DAF7880F9695879597F90895990F0008EB
:10395000550FAA0BE0E8FEEF16161706E807F90761
:10396000C0F012161306E407F50798F0621B730BFC
:10397000840B950B39F40A2661F0232B242B252B7D
:1039800021F408950A2609F4A140A6958FEF811D20
:10399000811D089597F99F6780E870E060E00895C1
:1039A0009FEF80EC089500240A9416161706180657
:1039B0000906089500240A94121613061406050633
:1039C0000895092E0394000C11F4882352F0BB0FC4
:1039D00040F4BF2B11F460FF04C06F5F7F4F8F4F27
:1039E0009F4F089557FD9058440F551F59F05F3F62
:1039F00071F04795880F97FB991F61F09F3F79F011
:103A000087950895121613061406551FF2CF469592
:103A1000F1DF08C0161617061806991FF1CF869514
:103A20007105610508940895E894BB2766277727F8
:103A3000CB0197F908958ADF08F48FEF08950BD032
:103A4000C0CFB1DF28F0B6DF18F0952309F0A2CF80
:103A5000A7CF1124EACFC6DFA0F3959FD1F3950F2E
:103A600050E0551F629FF001729FBB27F00DB11D02
:103A7000639FAA27F00DB11DAA1F649F6627B00D92
:103A8000A11D661F829F2227B00DA11D621F739F7B
:103A9000B00DA11D621F839FA00D611D221F749F89
:103AA0003327A00D611D231F849F600D211D822FD0
:103AB000762F6A2F11249F5750408AF0E1F0882317
:103AC0004AF0EE0FFF1FBB1F661F771F881F915024
:103AD0005040A9F79E3F510570F05CCFA6CF5F3FE5
:103AE000ECF3983EDCF3869577956795B795F79557
:103AF000E7959F5FC1F7FE2B880F911D96958795DF
:103B000097F9089523DF880B990B0895629FD001E0
:103B1000739FF001829FE00DF11D649FE00DF11D88
:103B2000929FF00D839FF00D749FF00D659FF00D37
:103B30009927729FB00DE11DF91F639FB00DE11D24
:103B4000F91FBD01CF0111240895991B79E004C02C
:103B5000991F961708F0961B881F7A95C9F78095CC
:103B6000089587FB082E062687FD819567FD6195E0
:103B7000ECDF0EF4919507FC81950895AA1BBB1B01
:103B800051E107C0AA1FBB1FA617B70710F0A61B5D
:103B9000B70B881F991F5A95A9F780959095BC017E
:103BA000CD01089597FB092E07260AD077FD04D092
:103BB000E5DF06D000201AF4709561957F4F0895D7
:103BC000F6F7909581959F4F0895A1E21A2EAA1BB2
:103BD000BB1BFD010DC0AA1FBB1FEE1FFF1FA217BD
:103BE000B307E407F50720F0A21BB30BE40BF50BBA
:103BF000661F771F881F991F1A9469F76095709543
:103C0000809590959B01AC01BD01CF01089597FB74
:103C1000092E05260ED057FD04D0D7DF0AD0001C90
:103C200038F450954095309521953F4F4F4F5F4F59
:103C30000895F6F790958095709561957F4F8F4F19
:103C40009F4F0895EE0FFF1F0590F491E02D09940A
:043C5000F894FFCF16
:103C54002D2D2D0020004874723A0046616E3A0002
:103C6400416C61726D3A2000546573743A202000EF
:103C740020200753454C0700204F6E2F4F666600E7
:103C840055702F446F776E002E2E0067685F6E6F3D
:103C940064652E696E6F0054656D7065726174752C
:103CA4007265733A20003A004E614E20202000468F
:103CB4006F756E6420002F002074656D7073200092
:103CC400206F6620002073656E736F727300544515
:103CD4005354204F4E2F4F46463A200054455354D8
:103CE4002055502F444E3A200046616E206F6E2DB1
:103CF4003E4F46460046616E206F66662D3E4F4E2F
:103D040000486561746572206F6E2D3E4F46460013
:103D1400486561746572206F66662D3E4F4E000AD9
:103D24002A2A2A2A2A2052554E4E494E473A200022
:103D34007E7E7E004F464600204F4E003078005570
:103D44006E6B6E6F776E2073656E736F72733A006D
:103D540020004D697373696E672073656E736F72AB
:103D6400733A00736572766F206E6F7420696E69A2
:103D74007469616C697A6564006E616E00696E666F
:103D8400006F7666002E003C0050000000C07F28C3
:103D9400268031010000BD280185310100005C2826
:103DA400D78031010000F8285A8E31010000FA282A
:103DB400778A31010000192800000000000000503B
:103DC4006C7567004169722000536F696C0043652C
:103DD400696C00496E6C74003F000000000A1D0D00
:103DE4000D0D0D1A00091B0909090909000A1D090D
:103DF4000A0C0C1F001E101C1010000000040E1FE3
:103E040004041F0E04E001E401E8010107000300BB
:103E1400010000000000000064110912FA102B11C7
:103E24000B11541100000000E01909125A1AEB1981
:0A3E34000E1A0000400014005400B4
:00000001FF
