:100000000C94E3000C94781B0C94A51B0C940B012E
:100010000C940B010C940B010C940B010C940B0130
:100020000C940B010C940B010C940B010C941618FE
:100030000C940B010C940B010C940B010C940B0110
:100040000C947A0E0C940B010C9455100C94A31084
:100050000C940B010C940B010C940B010C940B01F0
:100060000C940B010C940B010000000024002700ED
:100070002A0000000000250028002B0000000000DE
:1000800023002600290004040404040404040202DA
:100090000202020203030303030301020408102007
:1000A0004080010204081020010204081020000012
:1000B0000007000201000003040600000000000029
:1000C0000000005EBCE2613FDD83C29C7E20A3FD98
:1000D0001F419DC3217FFCA2401E5F01E3BD3E6026
:1000E00082DC237D9FC1421CFEA0E1BF5D0380DE58
:1000F0003C62BEE0025CDF81633D7C22C09E1D430A
:10010000A1FF4618FAA427799BC584DA3866E5BBB7
:100110005907DB856739BAE406581947A5FB7826E5
:10012000C49A653BD987045AB8E6A7F91B45C69817
:100130007A24F8A6441A99C7257B3A6486D85B05C9
:10014000E7B98CD2306EEDB3510F4E10F2AC2F7177
:1001500093CD114FADF3702ECC92D38D6F31B2ECA5
:100160000E50AFF1134DCE90722C6D33D18F0C52D7
:10017000B0EE326C8ED0530DEFB1F0AE4C1291CF89
:100180002D73CA947628ABF517490856B4EA693737
:10019000D58B5709EBB536688AD495CB2977F4AA65
:1001A0004816E9B7550B88D6346A2B7597C94A1497
:1001B000F6A8742AC896154BA9F7B6E80A54D78949
:1001C0006B3593010F1211241FBECFEFD8E0DEBFB5
:1001D000CDBF13E0A0E0B1E0EAE2FDE302C005908C
:1001E0000D92A630B107D9F715E0A6E0B3E001C043
:1001F0001D92A13DB107E1F711E0C6ECD1E004C0CA
:100200002297FE010E948F1EC23CD107C9F70E94AF
:1002100065120C94931E0C940000EF92FF920F93C2
:10022000DF93CF93CDB7DEB760970FB6F894DEBFFC
:100230000FBECDBFA82F002309F461C07E01089432
:10024000E11CF11C88E0F70111928A95E9F72983F6
:100250003A834B835C836D837E83AF83988780E290
:10026000801BE82FFF27E7FDF0954D815E816F81B0
:100270007885181684F01D861E861F86188A8827A2
:1002800099278E1B9F0B04C07695679557954795C8
:100290008A95D2F728C0202F332727FD3095DB0120
:1002A000CA01022E04C0B695A795979587950A9422
:1002B000D2F78D879E87AF87B88B04C0440F551F38
:1002C000661F771FEA95D2F789819A81AB81BC813D
:1002D00004C0B695A795979587952A95D2F7482B90
:1002E000592B6A2B7B2B49875A876B877C872985FB
:1002F0003A854B855C856D857E85AF8598898A2F8B
:1003000060960FB6F894DEBF0FBECDBFCF91DF91E0
:100310000F91FF90EF900895FB01DC0101900D9289
:100320000020E1F708950F931F9306E013E0C80142
:1003300064E041E00E94281988E093E0B80144E2BB
:100340000E94651B81E08093170310921A0382E0DC
:1003500080931D031092200382E293E065E042EC5B
:1003600051E028E037E00E94360E81E393E064E03C
:100370000E945C0D1092E0041092E4041092EA04D2
:1003800083E08093EB041092F0041092F3041F9129
:100390000F910895FC018081882311F483E101C04D
:1003A000835F0E946E0F089580911C03823039F0A4
:1003B000882311F060E004C060911B03611161E0CB
:1003C0008DE193E00E94CA01089580911603823066
:1003D00039F0882311F060E004C0609115036111C9
:1003E00061E087E193E00E94CA0108951F93809124
:1003F000EB0481500E94580E21E08C32920714F4D5
:1004000011E006C08D5B924014F410E001C012E0D0
:100410008091EB04882311F482E101C08D5F0E947A
:100420000110882311F080E001C084E0812B1F912E
:1004300008951F938091EA04882341F088EE94E0A8
:1004400060E070E00E94B919882391F10E94F601E2
:10045000182F8091EC04181759F188EE94E064E6A7
:1004600070E00E949D19412F50E08091EC04282FEC
:1004700030E02427352720FF07C010FF05C08091FA
:10048000ED0482608093ED0421FF07C011FF05C0D9
:100490008091ED0484608093ED0422FF07C012FF79
:1004A00005C08091ED0488608093ED041093EC0406
:1004B0005091ED04552309F151FF04C021E030E0D3
:1004C00041E00BC052FF04C022E030E042E005C032
:1004D00053FF13C023E030E043E081E090E0A0E070
:1004E000B0E004C0880F991FAA1FBB1F2A95D2F73E
:1004F000809585238093ED0401C040E0842F1F91F7
:1005000008951F93FC01162F009741F080818823E6
:1005100029F088E093E0BF010E94BA13612F77278A
:1005200067FD7095872F972F0E94D61C9B01AC0109
:100530000E94ED1D882339F088E093E060E071E0CF
:100540000E94BA1329C0812F6AE00E941C1E682FE6
:100550008A3034F06A5088E093E00E949E1209C00D
:10056000772767FD709588E093E04AE050E00E94AD
:10057000A713812F6AE00E941C1E692F772767FD51
:10058000709588E093E04AE050E00E94A71388E06D
:1005900093E066E00E949E121F91089588E093E028
:1005A00068E040E00E941C1A88E093E064E071E09B
:1005B0000E94BA138091E604813001F1823034F454
:1005C0008F3F09F43FC0882339F004C08230A9F17D
:1005D0008330D9F11092E60488E093E066E071E0A0
:1005E0000E94BA138091E704813019F4E091160358
:1005F00011C080E090E0609153021CC088E093E05D
:100600006BE071E00E94BA138091E704813071F4CD
:10061000E0911C03FF27E7FDF095EE0FFF1FEF525F
:10062000FD4F6081718188E093E013C080E090E02D
:10063000609155020E9481020EC088E093E060E163
:1006400071E007C083E08093E60488E093E068E10E
:1006500071E00E94BA1388E093E068E041E00E94F4
:100660001C1A88E093E064E071E00E94BA13809164
:10067000E704813059F0823071F0882311F0109234
:10068000E70488E093E060E271E009C088E093E06D
:1006900068E271E004C088E093E060E371E00E94EA
:1006A000BA1308958F929F92AF92BF92CF92DF922A
:1006B000EF92FF920F931F934C016A017B01122F5F
:1006C00098E0A92E93E0B92EC50160E040E00E94B9
:1006D0001C1AC701B60120E030E040E05FE30E9451
:1006E000D31B0E94A31C9B01AC01C401622F0E947A
:1006F0008102C50160E041E00E941C1A80E090E0A8
:10070000612F0E94810288E391E0602F0E948102A4
:100710001F910F91FF90EF90DF90CF90BF90AF901F
:100720009F908F9008950F93DF93CF9300D000D0C8
:1007300000D0CDB7DEB782EE94E060E476E00E94B0
:10074000B919882309F45FC06091E50485E0689FCA
:10075000B001112465577D4FCE0101960E948C0196
:100760008091E504A82FB0E0FD01EE0FFF1FEE0F12
:10077000FF1FEA55FC4F4081518162817381CD0199
:10078000880F991F8A0F9B1FF3E0880F991FFA9516
:10079000E1F7FC01E254FC4F2081FC01E154FC4FE5
:1007A00081E0908192170CF4292F8F5F3196883168
:1007B000C1F7CD01880F991F8A0F9B1F33E0880F67
:1007C000991F3A95E1F7FC01E25BFB4F0081DC01E8
:1007D000A15BBB4F81E09C9109170CF4092F8F5F3F
:1007E00011968831C1F78AE38D831E82CE0101966E
:1007F0000E9452038091E5048F5F8093E504853069
:1008000011F41092E50426960FB6F894DEBF0FBEE1
:10081000CDBFCF91DF910F9108950F931F9308E003
:1008200013E0C80160E142E020E00E94ED1AC80137
:100830006BE371E00E94BA13C80160E049EA52E03C
:100840000E94EA19C80161E041EB52E00E94EA19F6
:10085000C80162E049EB52E00E94EA19C80166E073
:1008600041EC52E00E94EA19C80167E049EC52E00D
:100870000E94EA1982EE94E06AE070E00E949D19FD
:100880001F910F9108956F927F928F929F92AF92D6
:10089000BF92CF92DF92EF92FF920F931F93CF936D
:1008A000DF93882311F464E101C060E081E393E009
:1008B0000E947B0A882309F4D3C085E895E067E4A9
:1008C00071E00E94BA13CBE5D2E07EE4872E74E09B
:1008D000972E66EA662E63E0762E5EEBA52E53E039
:1008E000B52ECC24DD24B601660F771F660F771F67
:1008F0006C0D7D1D65577D4F85E895E00E94BA130C
:1009000085E895E066E571E00E94BA1308811981D7
:100910002A813B814C815D816E817F8181E393E0FF
:100920000E9497087B018C01A80197010E94ED1D90
:10093000882371F0088119812A813B814C815D8176
:100940006E817F8181E393E00E9497087B018C0197
:10095000C801B701A80197010E94ED1D882349F540
:10096000F301E082F18202831383C801B70120E022
:1009700030E040E05FE30E94D31B0E94A31C9B0178
:10098000AC01962FF501808168170CF42083F401E7
:10099000808189170CF4908385E895E0B801A70160
:1009A00022E030E00E94A11485E895E064E071E067
:1009B00004C085E895E068E571E00E94BA130894E8
:1009C000C11CD11C289688E190E0880E991EE4E0B5
:1009D000F0E06E0E7F1EA80EB91EF5E0CF16D10412
:1009E00009F081CF85E895E00E94A6128EED94E093
:1009F00060E67AEE0E94B919882391F18091E104B2
:100A00008F5F8093E1048C3359F51092E10440E04C
:100A100050E012C0215030408C9111968C93119768
:100A200080818183119731972115310599F74F5FA7
:100A30005F4F45305105A1F0CA01880F991F840FFF
:100A4000951F23E0880F991F2A95E1F74696DC0150
:100A5000A254BC4FFC01E25BFB4F27E130E0DACF50
:100A6000DF91CF911F910F91FF90EF90DF90CF908A
:100A7000BF90AF909F908F907F906F900895CF928E
:100A8000DF92EF92FF920F931F9381E393E065E073
:100A90004BE552E00E946A0B8093A50308E013E047
:100AA000C80160E041E00E941C1AFFE5CF2EF1E092
:100AB000DF2EC801B6010E94BA13C8016091A503D8
:100AC0004AE050E00E945513C80166E671E00E94BA
:100AD000BA13C80165E070E04AE050E00E94A71335
:100AE000C80168E671E00E94B714E5E8EE2EE5E083
:100AF000FE2EC701B6010E94BA13C7016091A5037B
:100B00004AE050E00E945513C80160E771E00E947E
:100B1000BA13C80165E070E04AE050E00E94A713F4
:100B2000C70165E771E00E94B7141F910F91FF9014
:100B3000EF90DF90CF9008950F931F93CF93DF93A3
:100B40000E943F0581E00E94430406EA13E0C0E0F2
:100B5000D0E00CC06D936193019688319105D1F777
:100B600021960C5F1F4FC630D10501F1F80160815D
:100B700071818281938120E030E040E05FE30E9458
:100B8000D31B0E94A31CCE01880F991F8C0F9D1FA1
:100B9000A3E0880F991FAA95E1F7DC01A254BC4F8E
:100BA000FC01E25BFB4F80E090E0D4CFDF91CF917E
:100BB0001F910F91089580911C03823031F088239A
:100BC00031F480912103882311F060E001C064EBCF
:100BD00082E293E00E94B50D0895CF92DF92EF92EA
:100BE000FF920F931F930E941902982F8150823019
:100BF00008F0B9C0923011F09FEF01C091E08091F0
:100C0000E704813069F0823009F450C0882311F084
:100C10001092E7048091E604891B8093E604AEC03D
:100C20008091E6048130B1F0833029F1882309F006
:100C3000A5C080911603890F80931603833014F0AA
:100C4000109216038091160387FF98C082E080936C
:100C5000160394C080911C03890F80931C0383307A
:100C600014F010921C0380911C0387FF87C082E060
:100C700080931C0383C0913029F080E090E0A0ECC9
:100C8000BFE704C080E090E0A0EAB2E4809357029E
:100C900090935802A0935902B0935A0281E00E94A7
:100CA000430485E895E06EE771E04CC08091E6046E
:100CB0008130A1F0833009F1882309F05FC025E07D
:100CC0009202900111248091530290915402820F5C
:100CD000931F909354028093530250C025E09202D8
:100CE000900111248091550290915602820F931F1A
:100CF000909356028093550241C065E09602B00180
:100D00001124882777FD8095982F0E94D61C9B017F
:100D1000AC016091570270915802809159029091F4
:100D20005A020E94D31B609357027093580280931B
:100D3000590290935A0281E00E94430485E895E0AD
:100D40006CE871E00E94BA1340915702509158022A
:100D50006091590270915A0285E895E022E030E0F6
:100D60000E94A4140BC0933059F48091E7048F5F64
:100D70008093E704833014F01092E7040E94CE02BF
:100D800080E00E944304E0905702F09058020091E6
:100D9000590210915A02C801B701A80197010E9497
:100DA000ED1D882341F4E092AA03F092AB03009377
:100DB000AC031093AD030E949303C0901B03CC209F
:100DC000C1F0E090AA03F090AB030091AC03109146
:100DD000AD03C801B701A80197010E94ED1D88234A
:100DE000C1F4DD246091550270915602615070404B
:100DF00019C0E090AA03F090AB030091AC031091EE
:100E0000AD03C801B701A80197010E94ED1D882319
:100E100011F0DD2417C0DD24609155027091560257
:100E20006F5F7F4F882777FD8095982F0E94D61C93
:100E30009B01AC01C801B7010E94861D181614F46D
:100E4000DD24D394D0921B0340911B0320E030E0BB
:100E5000CC2011F021E030E0842F992787FD909578
:100E60002817390759F0442319F469E971E002C0E1
:100E700065EA71E085E895E00E94B714C09021030F
:100E800080911B03882321F081E08093210345C0DA
:100E9000CC20C1F0E090AA03F090AB030091AC032A
:100EA0001091AD03C801B701A80197010E94ED1D83
:100EB0008823C1F4DD24609155027091560263507D
:100EC000704019C0E090AA03F090AB030091AC030E
:100ED0001091AD03C801B701A80197010E94ED1D53
:100EE000882311F0DD2417C0DD2460915502709134
:100EF00056026F5F7F4F882777FD8095982F0E945D
:100F0000D61C9B01AC01C801B7010E94861D1816B2
:100F100014F4DD24D394D09221034091210320E0E6
:100F200030E0CC2011F021E030E0842F992787FDBC
:100F300090952817390759F0442319F461EB71E0B3
:100F400002C06FEB71E085E895E00E94B714C09095
:100F50001503CC20C1F0E090AA03F090AB03009100
:100F6000AC031091AD03C801B701A80197010E941D
:100F7000ED1D8823C1F4DD24609153027091540269
:100F80006F5F7F4F19C0E090AA03F090AB03009110
:100F9000AC031091AD03C801B701A80197010E94ED
:100FA000ED1D882311F0DD2417C0DD24609153026C
:100FB0007091540261507040882777FD8095982F7A
:100FC0000E94D61C9B01AC01C801B7010E94371CCE
:100FD000882314F4DD24D394D09215034091150393
:100FE00020E030E0CC2011F021E030E0842F992780
:100FF00087FD90952817390759F0442319F46DECB3
:1010000071E002C06CED71E085E895E00E94B714D4
:101010000E94E5010E94D4010E94DB0582E293E078
:101020000E94A10D1F910F91FF90EF90DF90CF9044
:10103000089582E293E06CED75E00E940C0E089535
:101040008DE193E060E00E94CA0180911D03882336
:1010500011F483E101C0835F60E00E94AD0F8DE178
:1010600093E061E00E94CA016CE271E080E090E0F0
:101070000E94D00E8DE193E060E00E94CA010895C5
:1010800087E193E060E00E94CA0180911703882302
:1010900011F483E101C0835F60E00E94AD0F87E13E
:1010A00093E061E00E94CA016CE271E080E090E0B0
:1010B0000E94D00E87E193E060E00E94CA0108958B
:1010C0000E940D0485E895E040E051EE60E070E09C
:1010D0000E94DE1085E895E06BEE71E00E94BA1385
:1010E00085E895E06BE371E00E94B7148091EB0412
:1010F000882311F482E101C08D5F62E00E946E0FCF
:1011000064EF71E080E090E00E94D00E0E949C05A8
:101110000E9440080E9420080E94190868EE73E0AF
:1011200080E090E00E94D00E0E94CE0208957F924F
:101130008F929F92AF92BF92CF92DF92EF92FF92E7
:101140000F931F93CF93DF93EC01702E812E922E7D
:10115000A32EB42EC52ED62EE72EC25BDF4FF8800D
:10116000CE54D040DE0120E030E036C0F9018C9151
:1011700011969C91119712964C91129713965C912F
:10118000139714966C91149715967C911597169653
:101190001C91169717960C9117972F5F3F4F189633
:1011A0008715D1F49815C1F44915B1F45A15A1F475
:1011B0006B1591F47C1581F41D1571F40E1561F415
:1011C0007596EE0FFF1FEE0FFF1FEC0FFD1F6081E6
:1011D00091818281E38106C02F1540F260E090E0AA
:1011E00080ECEFE7262F392F482F5E2FB901CA0177
:1011F000DF91CF911F910F91FF90EF90DF90CF90F3
:10120000BF90AF909F908F907F900895AF92BF92C4
:10121000CF92DF92EF92FF920F931F93DF93CF93C2
:10122000CDB7DEB76C970FB6F894DEBF0FBECDBF5B
:101230000D8B1E8B2F8B388F498F5A8F6B8F7C8F26
:1012400030E4E32EF12CE80EF91EC7010E942A16A5
:10125000C701BE016B5E7F4F0E940916C7016EEB8E
:1012600040E00E94C4158E01075F1F4FC801B02ED9
:10127000A92E22E1C22ED12CCC0EDD1EC7010E9468
:101280007315F80181938F01EC15FD05B9F78B2DCE
:101290009A2D68E00E942E159989891769F529858C
:1012A000222319F48A85882339F18E858F3F21F511
:1012B0008889803109F59A8580E0422F50E0482BDB
:1012C000592BDE011196E8EDF2E088E001900D92D5
:1012D0008150E1F7ED85F0E0E076F07094E0F6956E
:1012E000E7959A95E1F7EC0FFD1F2181328120955A
:1012F00030952423352302C020E030E8C9016C96E4
:101300000FB6F894DEBF0FBECDBFCF91DF911F9116
:101310000F91FF90EF90DF90CF90BF90AF90089526
:101320008F929F92AF92BF92CF92DF92EF92FF92F5
:101330000F931F93CF93DF93EC01D22EC32EB42EC5
:10134000A52E962E872E0E9406099C0180E820304B
:10135000380779F5CE012D2D3C2D4B2D5A2D692DB9
:10136000782D0E9406099C0180E82030380709F595
:10137000CE012D2D3C2D4B2D5A2D692D782D0E94FF
:1013800006099C0180E82030380799F4CE012D2D04
:101390003C2D4B2D5A2D692D782D0E9406099C015C
:1013A00080E82030380729F4E0E070E080EC6FE757
:1013B0001BC0B901882777FD8095982F0E94D61C05
:1013C00020E030E040E85DE30E948A1D26E636E634
:1013D00046EE5FE30E948A1D20E030E040E052E4E8
:1013E0000E94D31BE62F692F2E2F372F482F562F01
:1013F000B901CA01DF91CF911F910F91FF90EF903A
:10140000DF90CF90BF90AF909F908F9008950F93F3
:101410001F938C01005C1F4FC8010E942A16C8014F
:101420000E940416C80164E441E00E94C4151F91A3
:101430000F910895CF92DF92EF920F931F93DF9356
:10144000CF93CDB7DEB728970FB6F894DEBF0FBEA7
:10145000CDBF09831A832B833C834D835E836F83C7
:1014600078878C01005C1F4FC8010E942A166E010C
:101470000894C11CD11CC801B6010E940916C801FC
:101480006EE440E00E94C415C80160E040E00E94A4
:10149000C415C80160E040E00E94C415E294EE0C5F
:1014A00040EEE422EA94C8016E2D40E00E94C4158B
:1014B000C8010E942A16C801B6010E940916C80177
:1014C00068E441E00E94C4156AE070E080E090E0CA
:1014D0000E94D00EC8010E94131528960FB6F894EA
:1014E000DEBF0FBECDBFCF91DF911F910F91EF9067
:1014F000DF90CF9008958F929F92AF92BF92CF923C
:10150000DF92EF92FF920F931F93CF93DF93EC0143
:10151000962E0E94C20E5B016C01C15BDF4F888179
:10152000CF54D040813021F0823009F073C02EC0FA
:101530009920F1F0C05BDF4F88819981AA81BB813E
:10154000C055D04086017501E81AF90A0A0B1B0B39
:10155000692D70E080E090E028EE33E040E050E05C
:101560000E94F11D6E157F058007910708F052C09B
:10157000C05BDF4FA882B982CA82DB8282E08A9395
:10158000CF54D040CE010E94070A44C0C05BDF4F59
:1015900088819981AA81BB81C055D040A81AB90A17
:1015A000CA0ADB0A89ECA816B104C104D10490F17F
:1015B0007E0164E5A62EB12CAC0EBD1ECC24DD242C
:1015C0005EE4852E912C8C0E9D1E19C0F7010081C2
:1015D0001181228133814481558166817781CE01D9
:1015E0000E949009F50161937193819391935F013A
:1015F0000894C11CD11C88E090E0E80EF91EF401AB
:10160000808190E0C816D9060CF3C15BDF4F81E002
:10161000888301C080E0DF91CF911F910F91FF90EF
:10162000EF90DF90CF90BF90AF909F908F900895F4
:10163000CF92DF92EF92FF920F931F93DF93CF939E
:10164000CDB7DEB728970FB6F894DEBF0FBECDBF7B
:1016500009831A832B833C834D835E836F83788752
:1016600085E895E068E072E00E94BA137E01089474
:10167000E11CF11CF9E0CF2ED12CCC0EDD1EF701C0
:1016800001917F0110E0B801E4E075956795EA9556
:10169000E1F785E895E040E150E00E94A7130F7064
:1016A000107085E895E0B80140E150E00E94A71372
:1016B000EC14FD0421F728960FB6F894DEBF0FBE98
:1016C000CDBFCF91DF911F910F91FF90EF90DF90F1
:1016D000CF9008952F923F924F925F926F927F9298
:1016E0008F929F92AF92BF92CF92DF92EF92FF9232
:1016F0000F931F93DF93CF93CDB7DEB764970FB6E9
:10170000F894DEBF0FBECDBF3C016C872EE430E005
:10171000620E731EF301608382EB9FEF680E791EE9
:10172000DA0120E030E09C85492F50E083E0440F4F
:10173000551F8A95E1F724C0F301E20FF31F8C9146
:10174000808311968C911197818312968C911297B8
:10175000828313968C911397838314968C9114979C
:10176000848315968C911597858316968C91169780
:10177000868317968C91179787831896285F3F4F1B
:1017800024173507C9F600E4402E512C460C571C8F
:10179000C2010E9421151B861A861986F301E25B9D
:1017A000FF4FFC8BEB8B99C0CE01019667E00E9446
:1017B0002E1539802A80FB81FD872C812E873D8163
:1017C0003F879E81988BEF81E98BF885FA8B882E75
:1017D0009924AA24BB24CC24DD247601232D322D88
:1017E0004D855E856F85792FCF0108E30E940D013D
:1017F000821609F072C0931609F06FC0A41609F0A2
:101800006CC0B51609F069C0C61609F066C0D716D7
:1018100009F063C0E81609F060C0F91609F05DC070
:10182000EB89FC894081F30120E030E033C0F22EE7
:101830008081518162817381A481B5811681078184
:101840002F5F3F4F3896381629F5251619F58D85E7
:10185000861701F58E858717E9F48F858A17D1F4ED
:1018600088898B17B9F489898117A1F48A8980172F
:1018700089F4EC859E1770F5892F90E002C0880FDF
:10188000991FFA94E2F72A853B85282B392B3B8751
:101890002A8720C0922F241750F24830D8F4E42F22
:1018A000F0E013E0EE0FFF1F1A95E1F7E60DF71DCC
:1018B000308221823D8532838E8583839F85948308
:1018C00028892583398936838A8987834F5FEB8905
:1018D000FC894083F985FF5FF987C201BE016F5F14
:1018E0007F4F0E947516882309F05ECFC2010E94C7
:1018F0002115FF24BEE4CB2ED12CC60CD71C1BC057
:10190000EF2DF0E0A3E0EE0FFF1FAA95E1F7E60D43
:10191000F71D0081118122813381448155816681C7
:101920007781023211F0083229F4C301EAE0EE2E89
:101930000E941A0AF394F6018081F81608F3FC85D8
:10194000F81780F585E895E06BE072E00E94BA1325
:10195000FC840EE4C02ED12CC60CD71C1BC085E81D
:1019600095E06CE172E00E94BA13EF2DF0E013E015
:10197000EE0FFF1F1A95E1F7E60DF71D00811181AB
:10198000228133814481558166817781C3010E9420
:10199000180BF394F6018081F81608F385E895E0BA
:1019A0000E94A61281E090E00C8402C0880F991F6B
:1019B0000A94E2F701972A853B8528173907D9F160
:1019C00085E895E06EE172E00E94BA13FF24B1E071
:1019D000CB2ED12C29C00F2D10E0C6010F2C02C038
:1019E000880F991F0A94E2F7EA85FB858E239F23CF
:1019F000892BC9F485E895E06CE172E00E94BA1386
:101A0000F801A3E0EE0FFF1FAA95E1F7E60DF71D21
:101A100000811181228133814481558166817781E2
:101A2000C3010E94180BF394FC85FF16A0F285E811
:101A300095E00E94A6122EE430E0620E731EF301C0
:101A4000808122EB3FEF620E731E8823D9F00E9443
:101A5000C20EE0E5F0E06E0E7F1EF301608371833D
:101A60008283938382E082933F0121EB3FEF620EFA
:101A7000731EC3010E94070A68EC70E080E090E0EA
:101A80000E94D00E898564960FB6F894DEBF0FBE13
:101A9000CDBFCF91DF911F910F91FF90EF90DF901D
:101AA000CF90BF90AF909F908F907F906F905F90FE
:101AB0004F903F902F9008950F931F938C01805C5F
:101AC0009F4F0E940B17025B1F4FF801119210826B
:101AD0001F910F910895CF93DF93EC012B853C85E7
:101AE0004D855E85CA0102962817390718F02250E5
:101AF00030400AC04217530768F0CA0102978217A4
:101B0000930728F02E5F3F4F3C872B8705C0241793
:101B1000350710F45C874B876B857C85CE010E946E
:101B20005B172B853C858D859E852817390731F4F9
:101B3000CE01039660E070E00E949D19DF91CF9185
:101B40000895CF93DF93EC018D81882359F0CE0166
:101B5000039662E070E00E94B919882319F0CE0163
:101B60000E946B0DDF91CF910895AF92BF92CF92FB
:101B7000DF92EF92FF920F931F93CF93DF93EC01CD
:101B800000D000D0EDB7FEB73196653B08F064EBAE
:101B900070E080E090E0AF80B884CC24DD2429851B
:101BA0003A8540E050E0208331834283538320E034
:101BB00030E040E050E0F4EBEF2EF12C012D112D40
:101BC0000E94CA147E876D870F900F900F900F9020
:101BD0008B859C858F5F9F4F31F485E895E06FE2A0
:101BE00072E00E94B7148B859C858F5F9F4F49F0F0
:101BF000CE01039662E070E00E949D19CE010E9422
:101C00006B0DDF91CF911F910F91FF90EF90DF90BF
:101C1000CF90BF90AF900895CF93DF93EC017C8776
:101C20006B872F8138856217730710F43C872B87E9
:101C300029853A858B859C852817390710F43C87C0
:101C40002B878B859C859E878D876E814F815885DC
:101C500029853A85CE0170E00E9497176B857C85B7
:101C6000CE010E945B17DF91CF910895BF92CF9272
:101C7000DF92EF92FF920F931F938C01B62E7A01A1
:101C800069010E944117F8011582B682F086E78249
:101C9000D286C1868FEF9FEF94878387168615863D
:101CA0001F910F91FF90EF90DF90CF90BF9008951C
:101CB000982F8E3008F09E5097708091D7028295B1
:101CC000880F880F807C892B80937C0080917A001C
:101CD000806480937A0080917A0086FDFCCF209109
:101CE000780040917900942F80E030E0282B392B48
:101CF000C90108951F920F920FB60F9211242F93CE
:101D00003F938F939F93AF93BF938091F8049091EB
:101D1000F904A091FA04B091FB043091FC040196FF
:101D2000A11DB11D232F2D5F2D3720F02D570196BA
:101D3000A11DB11D2093FC048093F8049093F90435
:101D4000A093FA04B093FB048091F4049091F504FD
:101D5000A091F604B091F7040196A11DB11D8093E6
:101D6000F4049093F504A093F604B093F704BF91A4
:101D7000AF919F918F913F912F910F900FBE0F9038
:101D80001F9018958FB7F8942091F8043091F904BA
:101D90004091FA045091FB048FBFB901CA01089524
:101DA0009B01AC017FB7F8948091F4049091F50405
:101DB000A091F604B091F70466B5A89B05C06F3FEB
:101DC00019F00196A11DB11D7FBFBA2FA92F982F21
:101DD0008827860F911DA11DB11D62E0880F991FF4
:101DE000AA1FBB1F6A95D1F7BC012DC0FFB7F8949D
:101DF0008091F4049091F504A091F604B091F70459
:101E0000E6B5A89B05C0EF3F19F00196A11DB11DD5
:101E1000FFBFBA2FA92F982F88278E0F911DA11DC4
:101E2000B11DE2E0880F991FAA1FBB1FEA95D1F7E9
:101E3000861B970B885E9340C8F22150304040408B
:101E4000504068517C4F211531054105510571F60F
:101E50000895019739F0880F991F880F991F0297ED
:101E60000197F1F70895789484B5826084BD84B5B4
:101E7000816084BD85B5826085BD85B5816085BD85
:101E8000EEE6F0E0808181608083E1E8F0E010829E
:101E9000808182608083808181608083E0E8F0E0DF
:101EA000808181608083E1EBF0E0808184608083C9
:101EB000E0EBF0E0808181608083EAE7F0E0808100
:101EC0008460808380818260808380818160808360
:101ED0008081806880831092C1000895CF93DF9342
:101EE000482F50E0CA0186569F4FFC0134914A5753
:101EF0005F4FFA018491882369F190E0880F991F60
:101F0000FC01E859FF4FA591B491FC01EE58FF4F39
:101F1000C591D491662351F42FB7F8948C91932FE7
:101F2000909589238C93888189230BC0623061F45A
:101F30002FB7F8948C91932F909589238C93888157
:101F4000832B88832FBF06C09FB7F8948C91832B77
:101F50008C939FBFDF91CF910895482F50E0CA0125
:101F600082559F4FFC012491CA0186569F4FFC0168
:101F700094914A575F4FFA013491332309F440C0DA
:101F8000222351F1233071F0243028F42130A1F0C4
:101F9000223011F514C02630B1F02730C1F02430C2
:101FA000D9F404C0809180008F7703C080918000B5
:101FB0008F7D8093800010C084B58F7702C084B578
:101FC0008F7D84BD09C08091B0008F7703C0809160
:101FD000B0008F7D8093B000E32FF0E0EE0FFF1F85
:101FE000EE58FF4FA591B4912FB7F894662321F4D2
:101FF0008C919095892302C08C91892B8C932FBF53
:102000000895682F70E0CB0182559F4FFC01249109
:10201000CB0186569F4FFC0144916A577F4FFB01CD
:102020009491992319F420E030E03CC0222351F12F
:10203000233071F0243028F42130A1F0223011F542
:1020400014C02630B1F02730C1F02430D9F404C0D8
:10205000809180008F7703C0809180008F7D809376
:10206000800010C084B58F7702C084B58F7D84BD99
:1020700009C08091B0008F7703C08091B0008F7D40
:102080008093B000892F90E0880F991F84589F4F4C
:10209000FC01A591B4918C9120E030E0842311F0F3
:1020A00021E030E0C901089508951F920F920FB604
:1020B0000F9211242F933F934F938F939F93EF93FE
:1020C000FF938091C00082FD1DC04091C600209109
:1020D0003D0530913E052F5F3F4F2F73307080914B
:1020E0003F05909140052817390771F0E0913D05B3
:1020F000F0913E05E350FB4F408330933E05209323
:102100003D0502C08091C600FF91EF919F918F9194
:102110004F913F912F910F900FBE0F901F901895E8
:10212000E0919105F0919205E05CFF4F81919191D2
:1021300020813181821B930B8F739070892B11F05A
:102140000E94541008951F920F920FB60F921124FF
:102150002F933F938F939F93EF93FF93209181054C
:102160003091820580918305909184052817390765
:1021700031F48091C1008F7D8093C10014C0E09143
:102180008305F0918405EF5BFA4F208180918305F0
:102190009091840501968F7390709093840580933D
:1021A00083052093C600FF91EF919F918F913F91FE
:1021B0002F910F900FBE0F901F901895AF92BF9266
:1021C000DF92EF92FF920F931F93CF93DF93EC0177
:1021D0007A018B01DD24403081EE580780E06807EA
:1021E00080E0780711F0DD24D39491E0A92EB12C82
:1021F000EC89FD89DD2069F0C50108A002C0880FC7
:10220000991F0A94E2F7808360E079E08DE390E023
:1022100005C0108260E874E88EE190E0A8019701A3
:102220000E94501E215030404040504056954795E6
:102230003795279580E12030380720F0DD2011F018
:10224000DD24D6CFE889F9893083EA89FB892083A8
:1022500019A2EE89FF89408121E030E0C9010C8C90
:1022600002C0880F991F0A94E2F7482B4083EE8939
:10227000FF894081C9010D8C02C0880F991F0A9403
:10228000E2F7482B4083EE89FF894081C9010E8C1B
:1022900002C0880F991F0A94E2F7482B4083EE8909
:1022A000FF8980810F8C02C0220F331F0A94E2F74E
:1022B000209528232083DF91CF911F910F91FF90CC
:1022C000EF90DF90BF90AF900895DC011C96ED91E8
:1022D000FC911D97E05CFF4F2191319180819181AC
:1022E000281B390B2F733070C9010895DC011C962F
:1022F000ED91FC911D97E05CFF4F20813181E0540E
:10230000F040DF01AE5BBF4F8D919C911197281774
:10231000390719F42FEF3FEF07C08D919C91E80F1B
:10232000F91F8081282F30E0C9010895DC011C9637
:10233000ED91FC911D97E05CFF4F20813181E054CD
:10234000F040DF01AE5BBF4F8D919C911197281734
:10235000390719F42FEF3FEF10C08D919C91119721
:10236000E80FF91F20818D919C91119701968F7331
:10237000907011969C938E9330E0C9010895DC0112
:1023800091968C919197882339F05496ED91FC9118
:102390005597808186FFF9CF91961C920895CF932F
:1023A000DF93EC01EE85FF85E05CFF4F20813181FA
:1023B000E054F0402F5F3F4F2F733070DF01AE5B72
:1023C000BF4F8D919C91119728173907D1F3E05C8D
:1023D000FF4F80819181E054F040E80FF91F608346
:1023E000EE85FF85E05CFF4F31832083EE89FF8916
:1023F000208181E090E00F8C02C0880F991F0A9421
:10240000E2F7282B208381E089A3EC89FD89808174
:102410008064808381E090E0DF91CF9108951092F5
:1024200088051092870588EE93E0A0E0B0E08093E5
:10243000890590938A05A0938B05B0938C0584EE53
:1024400092E090938605809385058DEF94E09093BC
:1024500092058093910581E495E090939405809393
:10246000930585EC90E0909396058093950584EC18
:1024700090E0909398058093970580EC90E090937E
:102480009A058093990581EC90E090939C05809348
:102490009B0582EC90E090939E0580939D0586ECD1
:1024A00090E09093A00580939F0584E08093A10520
:1024B00083E08093A20587E08093A30585E0809365
:1024C000A40581E08093A5050895CF93DF930E9432
:1024D000330F0E946008C0E9D0E10E94ED0520970B
:1024E000E1F30E949010F9CFCF92DF92EF92FF922A
:1024F0000F931F93CF93DF937C016B018A01C0E0A0
:10250000D0E00FC0D6016D916D01D701ED91FC9126
:102510000190F081E02DC7010995C80FD91F015026
:1025200010400115110571F7CE01DF91CF911F9178
:102530000F91FF90EF90DF90CF900895DC01ED9127
:10254000FC910190F081E02D09950895EF92FF92A2
:102550000F931F938C01DC01ED91FC910190F081B0
:10256000E02D6DE009957C01D801ED91FC91019081
:10257000F081E02DC8016AE009959C012E0D3F1DF8
:10258000C9011F910F91FF90EF900895CF93DF93B2
:10259000EC016115710519F420E030E00FC0DB019A
:1025A0000D900020E9F71197A61BB70BE881F98180
:1025B0000280F381E02DAD0109959C01C901DF91F5
:1025C000CF9108954F925F927F928F929F92AF9298
:1025D000BF92CF92DF92EF92FF920F931F93DF9300
:1025E000CF93CDB7DEB7A1970FB6F894DEBF0FBE7D
:1025F000CDBF2C01742ECB01223008F42AE019A2A1
:1026000031E2C32ED12CCC0EDD1E822E9924AA24B9
:10261000BB24672D752FA50194010E94501E7901DE
:102620008A01C801B701A50194010E94F11D472D3F
:10263000461B0894C108D1084A3010F4405D01C01F
:10264000495CF6014083E114F1040105110521F014
:102650007E2C5F2DC801DDCFC201B6010E94C612DB
:10266000A1960FB6F894DEBF0FBECDBFCF91DF911C
:102670001F910F91FF90EF90DF90CF90BF90AF90A0
:102680009F908F907F905F904F900895DC0121156F
:10269000310541F4ED91FC910190F081E02D642F22
:1026A000099508950E94E2120895EF92FF920F9308
:1026B0001F939A01E62EFF2400E010E0B801A70165
:1026C0000E9446131F910F91FF90EF900895CF92B3
:1026D000DF92EF92FF920F931F93CF93DF93EC0162
:1026E0006A017B012115310541F4E881F9810190EE
:1026F000F081E02D642F09951FC02A303105D1F4F7
:1027000077FF17C0E881F9810190F081E02D6DE23B
:1027100009958C0144275527BA014C195D096E09AA
:102720007F09CE012AE00E94E2129801280F391F8A
:1027300004C02AE00E94E2129C01C901DF91CF91FE
:102740001F910F91FF90EF90DF90CF900895EF923F
:10275000FF920F931F937B019A010027F7FC0095CE
:10276000102FB801A7010E9467131F910F91FF90CE
:10277000EF9008950E94C61208957F928F929F92C3
:10278000AF92BF92CF92DF92EF92FF920F931F937F
:10279000CF93DF934C017A018B01722ECB01BA01EA
:1027A000A80197010E94ED1D882321F0C40165E472
:1027B00072E021C0C0E0D0E057016801E894D7F88A
:1027C000C601B5012FEF3FEF4FE75FE70E94ED1D18
:1027D000882351F4C601B5012FEF3FEF4FE75FE7C4
:1027E0000E94371C181614F0C1E0D0E0219739F090
:1027F000C40169E472E00E94C612EC0193C0C801F2
:10280000B7012FEF3FEF4FE75FE40E94861D1816D8
:1028100054F0C801B7012FEF3FEF4FE75FEC0E9484
:10282000371C882324F4C4016DE472E0E4CFC801AE
:10283000B70120E030E040E050E00E94371C87FD07
:1028400003C0C0E0D0E00EC0D401ED91FC91019036
:10285000F081E02DC4016DE20995EC0117FB1095A4
:1028600017F9109520E030E040E05FE3DD240BC075
:10287000CA01B90120E030E040E251E40E943B1C73
:102880009B01AC01D394D71498F3C801B7010E94FF
:10289000D31B5B016C010E94A81C7B018C01C4014D
:1028A000B801A7012AE030E00E944613C80FD91FE3
:1028B000772039F0C40161E572E00E94C612C80FAA
:1028C000D91FC801B7010E94D41C9B01AC01C601ED
:1028D000B5010E94D21B24C020E030E040E251E468
:1028E0000E948A1D7B018C010E94A31C5B016C016C
:1028F000CC24B7FCC094DC2CC401B601A5012AE0AD
:1029000030E00E946713C80FD91FC601B5010E94AD
:10291000D61C9B01AC01C801B7010E94D21B7A945E
:102920007720D1F6CE01DF91CF911F910F91FF90CB
:10293000EF90DF90CF90BF90AF909F908F907F905F
:1029400008950E94BD130895EF92FF920F931F9375
:102950007C010E94BD138C01C7010E94A612080FC2
:10296000191FC8011F910F91FF90EF900895EF92EA
:10297000FF920F931F937C010E94C6128C01C70126
:102980000E94A612080F191FC8011F910F91FF90F6
:10299000EF9008952F923F924F925F926F927F92A5
:1029A0008F929F92AF92BF92CF92DF92EF92FF925F
:1029B0000F931F93DF93CF93CDB7DEB73B014C014D
:1029C00019012A016D897E898F89988D6A197B0981
:1029D0008C099D09621A730A840A950AA40193015D
:1029E0000E94F11DE218F30804091509A8019701D6
:1029F0000E94721E2A0D3B1D4C1D5D1DB901CA01AE
:102A0000CF91DF911F910F91FF90EF90DF90CF90CA
:102A1000BF90AF909F908F907F906F905F904F90FE
:102A20003F902F900895FC01F894A181B2811196F6
:102A30009C91119780818095982311969C9378940E
:102A40000895FC0113861586148687E090E01286AF
:102A50003197009711F00197FACF0895DC0180E0DB
:102A60000BC0E82FF0E08D9190E0E827F927EE53B6
:102A7000FF4FE49161508E2F662399F70895DF92FE
:102A8000EF92FF920F931F93FC01E080018112816E
:102A9000F894F8018281DE2CD0948D21828381818B
:102AA0008E29818383E090E00E94290FF8018181C3
:102AB0008D2181838AE090E00E94290FF801008136
:102AC000789485E390E00E94290F80E010E0FF24D5
:102AD0000E211F21012B09F081E01F910F91FF9022
:102AE000EF90DF900895EF92FF920F931F93CF9393
:102AF000DF937C0101E010E0C0E0D0E0C7010E945C
:102B00003F158111102B000F2196C830D105B1F768
:102B1000812FDF91CF911F910F91FF90EF9008953A
:102B20001F93CF93DF93FC011081C181D281912F3C
:102B3000909560FF12C0F8948A8189238A838981E5
:102B4000812B89838AE090E00E94290F8A81812B62
:102B50008A83789487E390E011C0F8948A8189236E
:102B60008A838981812B898381E490E00E94290FE7
:102B70008A81812B8A83789485E090E00E94290FD6
:102B8000DF91CF911F910895CF92DF92EF92FF9244
:102B90000F931F93CF93DF938C01E42EFF24F394C4
:102BA000C0E0D0E0C62EDD2460E08F2D90E08C21C7
:102BB0009D21892B09F061E0C8010E949015FF0C4E
:102BC0002196C830D10581F7EE20A9F4F894D801F8
:102BD0001196ED91FC91129791818C91809598239B
:102BE00091831196ED91FC91129792818C91809531
:102BF000982392837894DF91CF911F910F91FF904A
:102C0000EF90DF90CF9008956CEC40E00E94C415E7
:102C10000895EF92FF920F931F93CF93DF938C0150
:102C20007B0165E540E00E94C415C0E0D0E0F701FB
:102C3000EC0FFD1FC801608140E00E94C415219681
:102C4000C830D105A1F7DF91CF911F910F91FF906F
:102C5000EF900895DF92EF92FF920F931F93CF931F
:102C6000DF93FC010081C181D281F8948981D02E4B
:102C7000D0948D21898378941DE7E02EFF24115094
:102C800059F182E090E00E94290F888190E08E2126
:102C90009F21892BA1F3F8948A818D218A838981D0
:102CA000802B8983789484EF91E00E94290FF89417
:102CB00089818D21898380E590E00E94290F888198
:102CC00010E090E0E822F922EF2809F411E078946E
:102CD00084EA91E00E94290F812FDF91CF911F910B
:102CE0000F91FF90EF90DF900895AF92BF92DF9227
:102CF000EF92FF920F931F93CF93DF93EC015B0151
:102D00008D85882309F061C0CE010E942A16882390
:102D100029F41B861D861C8690E06BC0CE0160EFF7
:102D200040E00E94C41501E0DD24EE24FF24F3946A
:102D3000CE010E943F15182FCE010E943F15113081
:102D400019F48130E1F439C0181709F58B8508179B
:102D500070F460E0FE01EE0DF11D838190E02F2DF7
:102D600030E082239323181619064CF003C060E06C
:102D7000081729F0093008F04CC00C874AC0FE0142
:102D8000EE0DF11D83818F29838361E009C0612FDE
:102D9000FE01EE0DF11D9F2D909583818923838384
:102DA000CE010E9490150F5FFF0C19F4E394FF24ED
:102DB000F39487E08E1508F0BBCF013430F0DB864A
:102DC000DD2011F581E08D871FC01B861D861C86C6
:102DD00090E0DE0120E030E0F501E20FF31F1396F2
:102DE0008C91139780832F5F3F4F119628303105C8
:102DF00099F7892FDF91CF911F910F91FF90EF905D
:102E0000DF90BF90AF9008958B818823F1F291E01D
:102E1000E0CFD02EBDCFFF920F931F938C01F62EE3
:102E2000862F60E00E946E0F8F2D90E0FC01E65629
:102E3000FF4FE491D801EC938A579F4FFC016491B6
:102E4000E62FF0E0EE0FFF1FE458FF4F85919491BD
:102E500012969C938E9311971B961C921B971D960E
:102E60001C921D971C961C92F80187E090E0128638
:102E70003197009711F00197FACF1F910F91FF90B2
:102E80000895FC018091A7058C3090F480838F5FBA
:102E90008093A705815090E0FC01EE0FFF1FE80F23
:102EA000F91FE855FA4F88EB9BE0928381830895E0
:102EB0008FEF80830895FC0120812C30B8F581814B
:102EC000992787FD909548E850E0481B590B440F1F
:102ED000551F440F551F6417750784F08281992789
:102EE00087FD909548E552E0481B590B440F551F4C
:102EF000440F551F641775070CF4AB014250504046
:102F0000CA01AA2797FDA095BA2F880F991FAA1F5B
:102F1000BB1F4FB7F89430E0F901EE0FFF1FE20F2F
:102F2000F31FE855FA4F928381834FBF0895CF92E4
:102F3000DF92EF92FF921F93CF93DF93EC01162F56
:102F40007A01690188818C3008F064C0862F61E0C5
:102F50000E946E0F888190E0FC01EE0FFF1FE80FCA
:102F6000F91FE855FA4F1F738081807C812B808385
:102F700080E292E08E199F0964E070E00E943D1E9D
:102F8000698380E699E08C199D0964E070E00E94F5
:102F90003D1E6A83A8818A2F6CE00E94101E682F54
:102FA00090E0AC01440F551F480F591F440F551FA7
:102FB000440F551F20E030E0C901840F951FFC012C
:102FC000EE0FFF1FE80FF91FE855FA4F808186FDCD
:102FD00015C02F5F3F4F2C30310571F724C0109280
:102FE000800082E08093810010928500109284001E
:102FF000B19A80916F00826080936F008A2F90E079
:10300000FC01EE0FFF1FE80FF91FE855FA4F808112
:10301000806480838881DF91CF911F91FF90EF9032
:10302000DF90CF9008956623D1F2E8CF1F920F92E0
:103030000FB60F9211242F933F934F935F936F938B
:103040007F938F939F93AF93BF93EF93FF93809161
:10305000CC0587FF05C010928500109284002BC01C
:103060002091CC05332727FD30958091A70590E06E
:103070002817390704F58091CC05992787FD90958D
:10308000FC01EE0FFF1FE80FF91FE855FA4F808192
:1030900086FF11C08091CC05992787FD9095FC0192
:1030A000EE0FFF1FE80FF91FE855FA4F80818F736D
:1030B00060E00E94AD0F8091CC058F5F8093CC05BE
:1030C0002091CC05332727FD30958091A70590E00E
:1030D000281739070CF04EC08091CC058C300CF0CD
:1030E00049C020918400309185008091CC059927BA
:1030F00087FD9095FC01EE0FFF1FE80FF91FE855C3
:10310000FA4F81819281280F391F309389002093D3
:1031100088008091CC05992787FD9095FC01EE0FE2
:10312000FF1FE80FF91FE855FA4F808186FF2BC07B
:103130008091CC05992787FD9095FC01EE0FFF1F2C
:10314000E80FF91FE855FA4F80818F7361E00E9404
:10315000AD0F19C080E49CE905C080918400909176
:103160008500049690938900809388008FEF809368
:10317000CC0509C08091840090918500049680540C
:103180009C4940F3EACFFF91EF91BF91AF919F919E
:103190008F917F916F915F914F913F912F910F9000
:1031A0000FBE0F901F901895FC018081882311F4A9
:1031B00082E101C08D5F0E946E0F0895FC01808145
:1031C000882311F482E101C08D5F0E94AD0F089544
:1031D000FF920F931F93082FF92E162F60E01123F3
:1031E00009F461E0802F9F2D0E94D418802F9F2D1D
:1031F000612F0E94DE181F910F91FF900895FC012E
:103200008081882311F483E101C0835F0E94AD0FA8
:1032100008950F931F938C01FC01818190E00E941F
:10322000290FC80161E00E94FF181F910F910895B6
:103230000F931F938C0160E00E94E818C8010E9460
:103240000919C80161E00E94E8181F910F910895C3
:103250000F931F938C01FC016083418361E00E9406
:10326000E818C80161E00E94CA01C8010E9409195A
:103270001F910F9108950F931F938C01FC01818181
:1032800090E00E94290FC80160E00E94FF181F9182
:103290000F910895EF92FF920F931F93CF93DF93B7
:1032A000EC01E62E0E943B1930E8F32E00E010E01E
:1032B0006F2D6E21CE010E94E818CE010E940919DF
:1032C000CE010E943B19F6940F5F1F4F0830110585
:1032D00079F7CE0161E00E94E818CE010E94091939
:1032E0008881882311F482E101C08D5F0E94011062
:1032F000182FCE010E943B1980E0112309F481E0D0
:10330000DF91CF911F910F91FF90EF900895FF9261
:103310000F931F938C01F62E0E943B19C8010E9447
:103320000919C80160E00E94E818C8016F2D0E94C9
:103330004A191F910F91FF9008950F931F93CF93F8
:10334000DF938C01EB0180E06115710509F081E0EC
:10335000F8018283882341F00E94C20E2197C60F94
:10336000D71FF801D183C083DF91CF911F910F91B7
:103370000895EF92FF920F931F93CF93DF93EC0189
:103380007B018A81882311F400E00FC00881198134
:103390000E94C20EC801861B970B2AEE8136920747
:1033A00010F400E006C0082F0195CE01B7010E947D
:1033B0009D19802FDF91CF911F910F91FF90EF907A
:1033C0000895DC01ED91FC910680F781E02D40E04D
:1033D00009950895EF92FF920F931F93CF93DF9378
:1033E0008C017A016770660F660F660F60640E9439
:1033F000E119C0E0D0E0D801ED91FC91D701AC0F0C
:10340000BD1F0190F081E02DC8016C9109952196B6
:10341000C830D10581F7DF91CF911F910F91FF90B7
:10342000EF900895FC016581862F846085836C6030
:10343000CF010E94E1190895DF93CF93CDB7DEB796
:1034400028970FB6F894DEBF0FBECDBF9C01FE01DA
:103450003196AEEFB2E088E00D9001928150E1F735
:10346000F9018085841710F4482F4150E42FF0E0D3
:10347000EE0FFF1FEC0FFD1F8181680F6068C9010F
:103480000E94E11928960FB6F894DEBF0FBECDBF9B
:10349000CF91DF910895DC01ED91FC910680F781D9
:1034A000E02D41E0099581E090E008950F931F938E
:1034B000CF93DF93EC01062F142F411110E1E88127
:1034C000F981602F62956F70612B0084F185E02D8A
:1034D000CE010995E881F9810F70102B0084F185E8
:1034E000E02DCE01612F0995DF91CF911F910F91B2
:1034F0000895FF920F931F938C01F62E80ECF82A0B
:10350000F8018285938564850E948719F801828578
:10351000938569E00E944A19F801828593856F2D91
:103520000E944A1960E46F25F801828593850E9404
:103530004A19F801828593856F2D0E944A19F80176
:10354000828593850E9418191F910F91FF9008950D
:103550000F931F938C01FC018285938564850E94E3
:103560008719F8018285938560E00E944A19F80165
:103570008285938560E00E944A19F80182859385CF
:103580000E9418191F910F9108950F931F938C019A
:10359000FC018285938564850E948719F8018285E4
:1035A000938565E00E944A19F8018285938564E25B
:1035B0000E944A19F801828593850E941819C80152
:1035C0000E94A81A1F910F91089561E00E94E119CD
:1035D00080ED97E00E94290F0895CF93DF93EC01CF
:1035E000423018F08C8188608C83488719862223AA
:1035F00029F0413019F48C8184608C8380E593EC50
:103600000E94290FE881F9810480F581E02DCE0127
:1036100009956C8164FD2DC0E881F9810084F185F4
:10362000E02DCE0163E0099584E991E10E94290F24
:10363000E881F9810084F185E02DCE0163E00995F0
:1036400084E991E10E94290FE881F9810084F185E4
:10365000E02DCE0163E0099586E990E00E94290FF4
:10366000E881F9810084F185E02DCE0162E00995C1
:1036700016C06062CE010E94E11984E991E10E94C6
:10368000290F6C816062CE010E94E11986E990E009
:103690000E94290F6C816062CE010E94E1196C8149
:1036A0006062CE010E94E11984E08D83CE010E9408
:1036B000121ACE010E94E51A82E08E83CE0166E0E6
:1036C0000E94E119DF91CF910895FC0113821282CB
:1036D00084EF92E09183808373876287440F4487ED
:1036E0001482CF0160E142E020E00E94ED1A0895CB
:1036F0001F920F920FB60F9211242F933F934F9367
:103700005F936F937F938F939F93AF93BF93EF9349
:10371000FF938091CD059091CE05892B29F0E09102
:10372000CD05F091CE050995FF91EF91BF91AF9135
:103730009F918F917F916F915F914F913F912F91C9
:103740000F900FBE0F901F9018951F920F920FB6FB
:103750000F9211242F933F934F935F936F937F9317
:103760008F939F93AF93BF93EF93FF938091CF0578
:103770009091D005892B29F0E091CF05F091D005EB
:103780000995FF91EF91BF91AF919F918F917F919B
:103790006F915F914F913F912F910F900FBE0F90BE
:1037A0001F9018955058BB27AA270ED075C166D117
:1037B00030F06BD120F031F49F3F11F41EF45BC167
:1037C0000EF4E095E7FB51C1E92F77D180F3BA17EA
:1037D000620773078407950718F071F49EF58FC18F
:1037E0000EF4E0950B2EBA2FA02D0B01B90190011C
:1037F0000C01CA01A0011124FF27591B99F0593F60
:1038000050F4503E68F11A16F040A22F232F342FA7
:103810004427585FF3CF469537952795A795F040F5
:103820005395C9F77EF41F16BA0B620B730B840B0A
:10383000BAF09150A1F0FF0FBB1F661F771F881FC2
:10384000C2F70EC0BA0F621F731F841F48F487951A
:1038500077956795B795F7959E3F08F0B3CF939509
:10386000880F08F09927EE0F979587950895D9D07E
:1038700008F481E008950CD00FC107D140F0FED0CC
:1038800030F021F45F3F19F0F0C0511139C1F3C09D
:1038900014D198F39923C9F35523B1F3951B550B14
:1038A000BB27AA2762177307840738F09F5F5F4F13
:1038B000220F331F441FAA1FA9F333D00E2E3AF054
:1038C000E0E830D091505040E695001CCAF729D06E
:1038D000FE2F27D0660F771F881FBB1F26173707BD
:1038E0004807AB07B0E809F0BB0B802DBF01FF27ED
:1038F00093585F4F2AF09E3F510568F0B6C000C153
:103900005F3FECF3983EDCF3869577956795B79526
:10391000F7959F5FC9F7880F911D9695879597F941
:103920000895E1E0660F771F881FBB1F62177307BA
:103930008407BA0720F0621B730B840BBA0BEE1FCF
:1039400088F7E095089504D06894B111D9C008951E
:10395000BCD088F09F5790F0B92F9927B751A0F0AD
:10396000D1F0660F771F881F991F1AF0BA95C9F713
:1039700012C0B13081F0C3D0B1E00895C0C0672F4C
:10398000782F8827B85F39F0B93FCCF386957795C3
:103990006795B395D9F73EF49095809570956195AC
:1039A0007F4F8F4F9F4F0895E89409C097FB3EF4D7
:1039B00090958095709561957F4F8F4F9F4F99237C
:1039C000A9F0F92F96E9BB279395F69587957795FA
:1039D0006795B795F111F8CFFAF4BB0F11F460FFBA
:1039E0001BC06F5F7F4F8F4F9F4F16C0882311F012
:1039F00096E911C0772321F09EE8872F762F05C026
:103A0000662371F096E8862F70E060E02AF09A95C0
:103A1000660F771F881FDAF7880F9695879597F9B5
:103A20000895990F0008550FAA0BE0E8FEEF16164F
:103A30001706E807F907C0F012161306E407F507A2
:103A400098F0621B730B840B950B39F40A2661F016
:103A5000232B242B252B21F408950A2609F4A140B9
:103A6000A6958FEF811D811D089597F99F6780E8C6
:103A700070E060E008959FEF80EC089500240A94C0
:103A80001616170618060906089500240A94121639
:103A90001306140605060895092E0394000C11F46C
:103AA000882352F0BB0F40F4BF2B11F460FF04C019
:103AB0006F5F7F4F8F4F9F4F089557FD9058440F72
:103AC000551F59F05F3F71F04795880F97FB991F7D
:103AD00061F09F3F79F0879508951216130614063A
:103AE000551FF2CF4695F1DF08C0161617061806C7
:103AF000991FF1CF86957105610508940895E894A2
:103B0000BB2766277727CB0197F908958ADF08F44A
:103B10008FEF08950BD0C0CFB1DF28F0B6DF18F0DB
:103B2000952309F0A2CFA7CF1124EACFC6DFA0F3D7
:103B3000959FD1F3950F50E0551F629FF001729F42
:103B4000BB27F00DB11D639FAA27F00DB11DAA1F61
:103B5000649F6627B00DA11D661F829F2227B00DAE
:103B6000A11D621F739FB00DA11D621F839FA00D39
:103B7000611D221F749F3327A00D611D231F849F89
:103B8000600D211D822F762F6A2F11249F575040E0
:103B90008AF0E1F088234AF0EE0FFF1FBB1F661F7B
:103BA000771F881F91505040A9F79E3F510570F034
:103BB0005CCFA6CF5F3FECF3983EDCF3869577951C
:103BC0006795B795F795E7959F5FC1F7FE2B880F2F
:103BD000911D9695879597F9089523DF880B990B8A
:103BE0000895629FD001739FF001829FE00DF11D47
:103BF000649FE00DF11D929FF00D839FF00D749F67
:103C0000F00D659FF00D9927729FB00DE11DF91F12
:103C1000639FB00DE11DF91FBD01CF01112408956F
:103C2000991B79E004C0991F961708F0961B881F0E
:103C30007A95C9F78095089587FB082E062687FD9B
:103C4000819567FD6195ECDF0EF4919507FC8195F8
:103C50000895AA1BBB1B51E107C0AA1FBB1FA617D3
:103C6000B70710F0A61BB70B881F991F5A95A9F725
:103C700080959095BC01CD01089597FB092E0726EC
:103C80000AD077FD04D0E5DF06D000201AF4709545
:103C900061957F4F0895F6F7909581959F4F089510
:103CA000A1E21A2EAA1BBB1BFD010DC0AA1FBB1F40
:103CB000EE1FFF1FA217B307E407F50720F0A21BB2
:103CC000B30BE40BF50B661F771F881F991F1A941F
:103CD00069F760957095809590959B01AC01BD0149
:103CE000CF01089597FB092E05260ED057FD04D06D
:103CF000D7DF0AD0001C38F45095409530952195B7
:103D00003F4F4F4F5F4F0895F6F790958095709510
:103D100061957F4F8F4F9F4F0895EE0FFF1F0590C6
:0A3D2000F491E02D0994F894FFCF10
:103D2A002D2D2D0020004874723A0046616E3A002B
:103D3A00416C61726D3A2000546573743A20200018
:103D4A0020200753454C0700204F6E2F4F66660010
:103D5A0055702F446F776E002E2E0067685F6E6F66
:103D6A0064652E696E6F0054656D70657261747555
:103D7A007265733A20003A004E614E2020200046B8
:103D8A006F756E6420002F002074656D70732000BB
:103D9A00206F6620002073656E736F72730054453E
:103DAA005354204F4E2F4F46463A20005445535401
:103DBA002055502F444E3A200046616E206F6E2DDA
:103DCA003E4F46460046616E206F66662D3E4F4E58
:103DDA0000536572766F206F6E2D3E4F4646005334
:103DEA006572766F206F66662D3E4F4E004865619C
:103DFA00746572206F6E2D3E4F46460048656174A9
:103E0A006572206F66662D3E4F4E000A2A2A2A2ABC
:103E1A002A2052554E4E494E473A20007E7E7E0059
:103E2A004F464600204F4E00307800556E6B6E6F3D
:103E3A00776E2073656E736F72733A0020004D6956
:103E4A007373696E672073656E736F72733A00736A
:103E5A006572766F206E6F7420696E697469616C21
:103E6A00697A6564006E616E00696E66006F7666D7
:103E7A00002E003C0050000000C07F28268031013F
:103E8A000000BD280185310100005C28D78031017E
:103E9A000000F8285A8E31010000FA28778A310189
:103EAA000000192800000000000000506C7567002F
:103EBA004169722000536F696C004365696C00495F
:103ECA006E6C74003F000000000A1D0D0D0D0D1AE6
:103EDA0000091B0909090909000A1D090A0C0C1F16
:103EEA00001E101C1010000000040E1F04041F0EF8
:103EFA0004FC0100020402010700030001000000A3
:103F0A0000000000CF117412651196117611BF11CD
:103F1A00000000004B1A7412C51A561A791A0000CA
:063F2A00400014005400E9
:00000001FF
