:100000000C9445020C943C240C9469240C946D02CD
:100010000C946D020C946D020C946D020C946D02A4
:100020000C946D020C946D020C946D020C946D0294
:100030000C946D020C946D020C946D020C946D0284
:100040000C9482160C946D020C9430180C947E184B
:100050000C946D020C946D020C946D020C946D0264
:100060000C946D020C946D022A2A2A2A2A205255D9
:100070004E4E494E473A2068656174696E675F6EFF
:100080006F64652E696E6F002A2A2A2A2A2053453A
:100090005455503A2068656174696E675F6E6F648D
:1000A000652E696E6F00206E6F7420666F756E64CA
:1000B00020696E20636F6E6669675F7265616400B8
:1000C000436F6E6669673A206D6F64756C652000DA
:1000D000206E6F7420666F756E6420696E20636F8A
:1000E0006E6669675F777269746500436F6E6669F3
:1000F000673A206D6F64756C652000202043524381
:10010000206D617463686573210020204352432091
:10011000646F6573206E6F74206D61746368210075
:1001200020627974657300206D61782900207673F0
:100130002E20007468206D6F64756C6520697320D3
:10014000746F6F206C61726765202800434F4E46C4
:1001500049473A207468652073697A65206F662084
:1001600074686520636F6E66696720666F722074BD
:100170006865200020636F6E666967732000436FB7
:100180006E6669673A20002074696D6500206574A9
:100190006800207266313200206C63640020736551
:1001A0007269616C00436F6E666967204C6F673AD5
:1001B00000202031396B6270730020206C6F772033
:1001C000545820706F7765720020757569643D30F2
:1001D00078002067726F75705F69643D00436F6ED1
:1001E000666967204E65743A206E6F64655F696466
:1001F0003D00436F6E6669673A20004E65743A2091
:100200007570646174696E67206E6F64655F6964A0
:1002100020746F20004E65743A2073656E64696EB9
:100220006720616E6E6F756E63656D656E740054E8
:10023000696D6520696E697469616C697A656400CD
:10024000206D61783A00732C206D696E4D617843A2
:100250006F756E743A002073656E736F72732C2025
:100260006D696E4D617854696D65723A004F7754CF
:10027000656D702068617320002073656E736F7206
:1002800073004F57543A207265616479207769741E
:100290006820004F57543A204D697373696E672088
:1002A00073656E736F72733A004F57543A204E6500
:1002B000772073656E736F72733A202020200020C0
:1002C0007377697463686573004F7752656C617901
:1002D0002068617320002073776974636865730018
:1002E0004F57523A207265616479207769746820AB
:1002F000004F57523A204D697373696E67207377C8
:100300006974636865733A004F57523A204E6577B7
:100310002073776974636865733A20202020004F4A
:1003200057523A20666F756E64202300000000006B
:10033000240027002A0000000000250028002B00D0
:100340000000000023002600290004040404040423
:100350000404020202020202030303030303010274
:100360000408102040800102040810200102040843
:100370001020000000070002010000030406000036
:10038000000000000000005EBCE2613FDD83C29C13
:100390007E20A3FD1F419DC3217FFCA2401E5F0163
:1003A000E3BD3E6082DC237D9FC1421CFEA0E1BF15
:1003B0005D0380DE3C62BEE0025CDF81633D7C2247
:1003C000C09E1D43A1FF4618FAA427799BC584DA75
:1003D0003866E5BB5907DB856739BAE40658194723
:1003E000A5FB7826C49A653BD987045AB8E6A7F9D5
:1003F0001B45C6987A24F8A6441A99C7257B3A6407
:1004000086D85B05E7B98CD2306EEDB3510F4E1034
:10041000F2AC2F7193CD114FADF3702ECC92D38DE2
:100420006F31B2EC0E50AFF1134DCE90722C6D3394
:10043000D18F0C52B0EE326C8ED0530DEFB1F0AEC6
:100440004C1291CF2D73CA947628ABF517490856F4
:10045000B4EA6937D58B5709EBB536688AD495CBA2
:100460002977F4AA4816E9B7550B88D6346A2B7554
:1004700097C94A14F6A8742AC896154BA9F7B6E886
:100480000A54D7896B356904EA1911241FBECFEFCE
:10049000D8E0DEBFCDBF11E0A0E0B1E0E8EBFEE4C4
:1004A00002C005900D92A83DB107D9F714E0A8ED60
:1004B000B1E001C01D92A234B107E1F714E0CAE82F
:1004C000D4E004C02297FE010E941F27C638D1073E
:1004D000C9F70E94401A0C945A270C940000EF921E
:1004E000FF920F93DF93CF93CDB7DEB760970FB630
:1004F000F894DEBF0FBECDBFA82F002309F461C062
:100500007E010894E11CF11C88E0F70111928A95A4
:10051000E9F729833A834B835C836D837E83AF83C2
:10052000988780E2801BE82FFF27E7FDF0954D813B
:100530005E816F817885181684F01D861E861F8661
:10054000188A882799278E1B9F0B04C0769567957C
:10055000579547958A95D2F728C0202F332727FD36
:100560003095DB01CA01022E04C0B695A795979578
:1005700087950A94D2F78D879E87AF87B88B04C082
:10058000440F551F661F771FEA95D2F789819A811C
:10059000AB81BC8104C0B695A795979587952A95A0
:1005A000D2F7482B592B6A2B7B2B49875A876B87AD
:1005B0007C8729853A854B855C856D857E85AF85F1
:1005C00098898A2F60960FB6F894DEBF0FBECDBF14
:1005D000CF91DF910F91FF90EF9008950F931F93AC
:1005E000CF93DF93689F8001699F100D789F100D56
:1005F0001124C8010E940A03EC01009729F060E071
:1006000070E0A8010E941504CE01DF91CF911F91E7
:100610000F910895CF93DF93BC018230910510F4C0
:1006200062E070E0A0914004B0914104ED0140E02F
:1006300050E0E0E0F0E021C08881998186179707BB
:1006400069F48A819B81309719F09383828304C077
:100650009093410480934004FE0134C068177907E9
:1006600038F44115510519F08417950708F4AC01C9
:10067000FE018A819B819C01E9012097E9F64115E1
:100680005105A9F1CA01861B970B049708F4BA011A
:10069000E0E0F0E02AC08D919C91119784179507B6
:1006A000F9F46417750781F412968D919C91139754
:1006B000309719F09383828304C090934104809310
:1006C0004004FD0132964CC0CA01861B970BFD0108
:1006D000E80FF91F6193719302978D939C9340C02B
:1006E000FD01828193819C01D9011097A1F680912F
:1006F0003E0490913F04892B41F480916F019091C9
:10070000700190933F0480933E0440917101509199
:1007100072014115510541F44DB75EB780916D01ED
:1007200090916E01481B590B20913E0430913F047B
:10073000CA01821B930B8617970780F0AB014E5FAF
:100740005F4F8417950750F0420F531F50933F049B
:1007500040933E04F9016193719302C0E0E0F0E040
:10076000CF01DF91CF910895CF93DF93009709F4E4
:1007700050C0EC0122971B821A82A0914004B091D4
:100780004104109709F140E050E0AC17BD0708F1B3
:10079000BB83AA83FE0121913191E20FF31FAE17B3
:1007A000BF0779F48D919C911197280F391F2E5F07
:1007B0003F4F3983288312968D919C9113979B8389
:1007C0008A834115510571F4D0934104C0934004CC
:1007D00020C012968D919C911397AD01009711F056
:1007E000DC01D3CFFA01D383C28321913191E20F8F
:1007F000F31FCE17DF0769F488819981280F391F0D
:100800002E5F3F4FFA01318320838A819B8193833E
:100810008283DF91CF910895FB01DC0102C001903A
:100820000D9241505040D8F70895DC0101C06D93FE
:1008300041505040E0F70895A0E0B0E0E2E2F4E07B
:100840000C942D277C01EB018A01690109C0CE01BE
:100850002196F6010995F70181937F01015010401F
:1008600001151105A1F7CDB7DEB7E8E00C944927D3
:10087000A0E0B0E0EEE3F4E00C942D27EC017B0166
:100880008A01690109C0CE012196F70161917F01BA
:10089000F60109950150104001151105A1F7CDB7DA
:1008A000DEB7E8E00C944927DF92EF92FF920F93B6
:1008B0001F93D72E7A018C01FA010995C801019680
:1008C0006D2DF70109951F910F91FF90EF90DF902B
:1008D000089588ED91E064ED40E00E94240986E7E8
:1008E00092E00E94B60B8BE792E00E944A071092BA
:1008F000C9021092CC021092CF0280ED92E064E027
:1009000040E10E946C1288EF92E065E045E00E94B1
:1009100038168091730190917401009719F480E06A
:1009200090E001C004969093780180937701089538
:100930000F931F9388ED91E00E94340B882329F0D8
:1009400080E090E060E00E94670580ED92E06AE060
:100950000E94850E88EF92E068E70E94D4138DEC28
:1009600092E06AE57EE10E947E1F882309F44EC072
:10097000809173019091740160E071E00E94371CD6
:10098000009173011091740180ED92E060E00E948B
:10099000F20BAB01BC01C80122E030E00E941E1D39
:1009A000809173019091740167E071E00E94371C9F
:1009B000009173011091740180ED92E060E00E945B
:1009C000110CBC01C8014AE050E00E94671B8091F5
:1009D0007301909174016BE071E00E94371C0091EB
:1009E00073011091740180ED92E060E00E94400C70
:1009F000BC01C8014AE050E00E94671B809173016E
:100A0000909174016EE071E00E94211D0E94D92333
:100A1000823081F087EC92E060E67AEE0E947E1FE1
:100A2000882341F0809173019091740160E171E03D
:100A30000E94211D1F910F9108950F931F930FEA9C
:100A400013E0C80140E051EE60E070E00E94B91888
:100A5000C80168E870E00E94C41A85E791E00E942E
:100A60000006609173017091740180ED92E00E9424
:100A7000191008EF12E06091730170917401C801C0
:100A80000E945314C80160E041E00E9493128091DB
:100A900073019091740168E670E00E94C41A1F917E
:100AA0000F9108959C01F999FECF32BD21BDF89AAE
:100AB00080B508959C01F999FECF1FBA32BD21BDC2
:100AC00060BD0FB6F894FA9AF99A0FBE0895CF93C5
:100AD000DF93EC01462F009721F44091DC03CDED2C
:100AE000D3E04423F9F0388120911903E0911703F2
:100AF000F091180390E014C0A191B19112968C91DD
:100B00001297831761F4ED91FC9111972196415052
:100B10000280F381E02DCD01BE01099503C09F5FE6
:100B2000921750F3DF91CF9108951F93182F509192
:100B30001903A0911703B091180320E230E090E070
:100B400047C0ED91FD9182814381811709F03DC03D
:100B5000C90150E02AE535E00E94380440911A03AB
:100B600050911B03FA01329720E030E06FEF7FEFE6
:100B700021C0F999FECF205E3F4F32BD21BDF89ACA
:100B800080B56827862F82958627082E86958695BC
:100B90008025082E869580258770062E672F8695DE
:100BA00007948795702D6827069487957025682788
:100BB0002F5130402E173F0708F4DBCFCA014E9665
:100BC0004AE555E00E94540419C0240F311D9F5F6F
:100BD000951708F4B6CF8FEA93E06BEE70E00E94B1
:100BE000791A8FEA93E0612F4AE050E00E94951B4A
:100BF0008FEA93E060ED70E00E94C41A1F9108959F
:100C00008F929F92AF92BF92DF92EF92FF920F93DB
:100C10001F93DF93CF93CDB7DEB7C054D0400FB64C
:100C2000F894DEBF0FBECDBF5C0120E0322F3F5FE6
:100C3000E22FF0E0EE0FFF1FEA0DFB1D8081918196
:100C4000892B11F0232FF2CF20931903B0921803B0
:100C5000A09217038FEA93E06EE771E00E94791A81
:100C60008FEA93E0609119034AE050E00E94951BDF
:100C70008FEA93E064E771E00E94791A10921B03F7
:100C800010921A03EE244EC00E2D10E0F801EE0F64
:100C9000FF1FEA0DFB1D0190F081E02DF38080E441
:100CA0008F15A8F58FEA93E00E94A41A8FEA93E0CB
:100CB0006CE471E00E94791A0F5F1F4F8FEA93E096
:100CC000B8014AE050E00E94051C8FEA93E063E31C
:100CD00071E00E94791A8FEA93E06F2D4AE050E0AC
:100CE0000E94951B8FEA93E06DE271E00E94791AF1
:100CF0008FEA93E060E470E04AE050E00E94051C57
:100D00008FEA93E067E271E00E94C41A0AC0809102
:100D10001A0390911B038F0D911D90931B038093D9
:100D20001A03E39480911903E81608F4ADCF60919B
:100D30001A0370911B036E5F7F4F70931B036093C8
:100D40001A038FEA93E04AE050E00E94671B8FEAA3
:100D500093E060E271E00E94C41A60911A037091FE
:100D60001B0320E030E04FEF5FEF21C0F999FECF89
:100D7000205E3F4F32BD21BDF89A80B54827842FB1
:100D800082958427082E869586958025082E86953F
:100D900080258770042E452F869507948795502DC2
:100DA000482706948795502548272F51304026170D
:100DB000370708F4DBCF452B01F18FEA93E06AE0B7
:100DC00071E00E94C41A10E013C0E12FF0E0EE0FB2
:100DD000FF1FEA0DFB1DA081B181ED91FC911197E0
:100DE0000190F081E02DCD0160E070E009951F5F7A
:100DF00080911903181748F337C08FEA93E06BEF1F
:100E000070E00E94C41A90E2E92EF12CDD244E011C
:100E10000894811C911C24C00D2D10E0000F111F9F
:100E20000A0D1B1DD801ED91FC914381C401B7014E
:100E300050E022E535E00E941C04F801A081B18158
:100E4000ED91FC9111970190F081E02DCD01B4015D
:100E50000995D801ED91FC918381E80EF11CD394A2
:100E600080911903D816C0F2C05CDF4F0FB6F8941A
:100E7000DEBF0FBECDBFCF91DF911F910F91FF90CD
:100E8000EF90DF90BF90AF909F908F90089508955E
:100E900008950895FC01138212828BE891E09183FA
:100EA00080830E9695838483E55BFF4F1082EB541D
:100EB000F04082E0868381E0878380E081608087E4
:100EC000089504970E9465070895CF93DF93EC017E
:100ED000FB01BC01685F7F4F309719F080818887E4
:100EE00006C080E08560888782E00E9495058FEAD1
:100EF00093E065EA71E00E94791A888580FF06C058
:100F00008FEA93E06DE971E00E94791A888581FF8C
:100F100006C08FEA93E068E971E00E94791A88853B
:100F200082FF06C08FEA93E062E971E00E94791ABD
:100F3000888583FF06C08FEA93E06DE871E00E9428
:100F4000791A888584FF06C08FEA93E067E871E02C
:100F50000E94791A8FEA93E00E94A41ADF91CF9140
:100F600008950F931F93CF93DF93EC018C01055BE2
:100F70001F4FD8018C91FE01E80FF11D1186888565
:100F800080FF16C0BE01675F7F4F8FEA93E00E942B
:100F9000371CF8018081882359F0FE01E80FF11D0C
:100FA00080858A3029F48FEA93E06DE00E949C1AD4
:100FB000888582FF22C080911D038130F1F088ED89
:100FC00091E00E943A080097C1F0FC0182E0819311
:100FD0008E01055B1F4FD8014C919E01275F3F4F4B
:100FE000CF01B90150E00E940C04F80160816F5FED
:100FF00088ED91E041E00E94170B888583FF0EC0C9
:10100000E881F981BE01675F7F4FDE01A55BBF4FBD
:101010000480F581E02DCE014C910995C55BDF4F31
:101020001882DF91CF911F910F9108951F93CF9355
:10103000DF93EC01162FC55BDF4F8881CB54D04086
:10104000813418F0CE010E94B107DE01A55BBF4FCD
:101050008C91FE01E80FF11D11878F5F8C931A3080
:1010600019F4CE010E94B10781E090E0DF91CF91A9
:101070001F910895FC0180911C038823A1F08091A9
:101080001D038E3181F0E457FF4F9081EC58F04002
:10109000923048F484E4989F900111242A5F3F4FD6
:1010A0002E0F3F1F02C020E030E0C9010895EF92EB
:1010B000FF920F931F938C0160931D038FEA93E0BF
:1010C0006DED71E00E94791A8FEA93E060911D0343
:1010D0004AE050E00E94951B8FEA93E062ED71E0D8
:1010E0000E94791A8AE9E82EF12CE00EF11E8FEAAF
:1010F00093E0F70160814AE050E00E94951B8FEA7F
:1011000093E069EC71E00E94791A0C561F4FF801C8
:10111000608171818FEA93E040E150E00E94781B8A
:1011200080911D0363E0F70140810E94A523095FC0
:101130001F4FF8018081882371F08FEA93E06AEBFA
:1011400071E00E94C41A87E598E90E94D01F82EBE3
:1011500094E90E94D01F8FEA93E061EB71E00E9456
:10116000C41A81E196EC0E94D01F81EC94E90E94A0
:10117000D01F80E298E90E94D01F83E00E945D1694
:1011800085E060E00E949C171F910F91FF90EF9007
:1011900008950F931F93DF93CF9300D000D0CDB766
:1011A000DEB78C01FB01443009F045C00C561F4FDF
:1011B00020813181D8018D919C91045910402817CC
:1011C0003907C9F58381882319F0813031F403C0D0
:1011D00010921C0302C080931C03928180911D0316
:1011E000891749F1828180931D038FEA93E06BEFA9
:1011F00071E00E94791A8FEA93E060911D034AE042
:1012000050E00E94A71BC80160911D030E9457086F
:1012100080911D03898380911C038A830C561F4F84
:10122000F801808191819C838B8381E0BE016F5F97
:101230007F4F0E9495050F900F900F900F90CF91C8
:10124000DF911F910F910895CF93DF93EC0181EA15
:1012500091E099838883C656DF4F69934883CB59C1
:10126000D0400E94CA16FE01EA56FF4F6083718388
:1012700082839383611571058105910541F481E0B5
:1012800090E0A0E0B0E080839183A283B38381E00B
:101290008A8384E08B83DF91CF9108950F931F930E
:1012A000DF93CF9300D00F92CDB7DEB78C010E94B1
:1012B000E920882309F448C0FE01319683E0DF016C
:1012C0001D928A95E9F781E089830C561F4FD8015A
:1012D0008D919C91045910409B838A8380911D03BA
:1012E000BF0143E00E94E9220E94CA169B01AC01A3
:1012F00080911D038E3129F060E27EE480E090E071
:1013000004C064EF71E080E090E0DC01CB01820F6B
:10131000931FA41FB51FF801EA56FF4F80839183E6
:10132000A283B3830097A105B10541F481E090E069
:10133000A0E0B0E080839183A283B3838FEA93E03F
:1013400065E172E00E94C41A0F900F900F90CF9148
:10135000DF911F910F910895CF92DF92EF92FF924C
:101360000F931F93DF93CF93CDB7DEB77C01CDB63C
:10137000DEB6FB018B016115710509F180818E31AB
:10138000F1F08FEA93E062EF71E00E94791A8FEA40
:1013900093E0F80160814AE050E00E94951B8FEADB
:1013A00093E06DE171E00E94371CF80161818FEAE2
:1013B00093E070E04AE050E00E94181C19C000D091
:1013C00000D00DB71EB70F5F1F4F8EE1EDB7FEB710
:1013D0008183F80111820E94D8162AEA35E5262772
:1013E0003727F8013383228381E0B8010E949505F5
:1013F000F801608160931D03818180931C0384E95F
:1014000090E0E80EF91E82819381F7019183808339
:101410008CE69FEFE80EF91EC7010E945708C7012E
:101420000E944E090FB6F894DEBE0FBECDBECF911E
:10143000DF911F910F91FF90EF90DF90CF90089573
:101440001F93CF93DF93EC01C457DF4F8881CC58B3
:10145000D0408823E1F11C81C357DF4F8881CD58EC
:10146000D04090E007970CF01F7DBE016A5F7F4F70
:10147000812F4D810E94E92215FD1BC0C457DF4F0B
:101480008881CC58D040823050F0DE011496FE01A5
:10149000E85BFF4F84E401900D928150E1F7FE017B
:1014A000E457FF4F808181508083C357DF4F1882FC
:1014B0000EC0FE01E357FF4F80818F5F80830E9443
:1014C000CA16C257DF4F688379838A839B83DF9173
:1014D000CF911F910895EF92FF920F931F93CF9397
:1014E000DF93EC0126E9E22EF12CE80EF91EF7015C
:1014F00080819181A281B3810097A105B10509F492
:1015000048C00E94CA16F70120813181428153816F
:101510006217730784079507E0F180911D038130FE
:10152000C1F1CE010E944E0944C00E94E9208823E7
:10153000C9F18E010D561F4FF7018081B80141E0BE
:101540000E94E922F7011082F801108232C0C357CD
:10155000DF4F8881CD58D040882399F00E94CA1669
:10156000C257DF4F288139814A815B81CE58D040F4
:101570002C593F4F4F4F5F4F6217730784079507F2
:10158000C0F00E94E9208823A1F0CE010E94200A29
:1015900010C092E9E92EF12CEC0EFD1EF7018081BE
:1015A000882319F6C457DF4F8881CC58D040882350
:1015B00071F6DF91CF911F910F91FF90EF900895F9
:1015C000CF93DF93EC01DC01A457BF4F2C91223065
:1015D00058F530E084E490E0289FF001299FF00D59
:1015E000389FF00D1124EC0FFD1F65838C9190E066
:1015F000FC0164E0EE0FFF1F6A95E1F7E80FF91FA9
:101600003196EE0FFF1FEE0FFF1FEC0FFD1F408303
:101610008C918F5F8C93813039F40E94E92088236C
:1016200019F0CE010E94200ADF91CF9108959C010C
:10163000411140E280911D03482BC9010E94E00A3C
:1016400008950F931F938C0185E00E946016035646
:101650001F4F8C5291409595879595958795F801E8
:1016600080831F910F910895CF93DF93EC010E9427
:10167000EC1F882309F473C08091D8039091D9039B
:10168000892B09F068C08091DB0387FD1DC0CE0166
:101690000E94210B8091DB0385FF13C09091DB0337
:1016A0009F7180911D03981711F4892F02C0892F13
:1016B0008064CE56DF4F806888832B9688812A9776
:1016C00088838091DD034FC08091DB0385FD47C097
:1016D000CE010E94210B2091DB0330E02F7130708E
:1016E00080911D0390E028173907C9F5C457DF4FD3
:1016F0008881CC58D040882391F1C357DF4F88812F
:10170000CD58D040882359F18091DC03813011F00D
:1017100080E002C08091DD03C456DF4F888360976C
:101720008881CC58D040823050F0DE011496FE0102
:10173000E85BFF4F84E401900D928150E1F7FE01D8
:10174000E457FF4F808181508083C357DF4F188259
:10175000CD58D04004C08091D8039091D903CE01D8
:101760000E946B0A80E0DF91CF910895FC0189EA25
:1017700091E091838083148283E0828381E083837C
:101780000895FC01DB016115710519F08C918483CA
:1017900005C0349683E0BF010E9495058FEA93E06F
:1017A0006FE171E00E94211D08951F93CF93DF9395
:1017B000EB01443098F00E94D923182F6881798179
:1017C0008A819B810E94DC23112341F48091730163
:1017D000909174016FE272E00E94C41ADF91CF9180
:1017E0001F910895FC018289681728F070E060E07D
:1017F00090EC8FE70FC0862F90E0880F991F880F1D
:10180000991F038CF48DE02DE80FF91F7081618121
:1018100092818381272F362F492F582FB901CA0172
:101820000895FC018289681718F020E030E826C08E
:1018300086E0689FC001112404A0F5A1E02DE80F07
:10184000F91F9081818198170CF4892F9281981744
:101850000CF4892F938198170CF4892F9481282FE9
:1018600098170CF4292F9581822F92170CF4892F49
:10187000282F332727FD3095285A3F4FC901089557
:10188000FC018289681718F020E030E826C086E065
:10189000689FC001112406A0F7A1E02DE80FF91FF1
:1018A0009081818189170CF4892F928189170CF41A
:1018B000892F938189170CF4892F9481282F8917F8
:1018C0000CF4292F9581822F29170CF4892F282FAA
:1018D000332727FD3095285A3F4FC9010895EF92CD
:1018E000FF921F93CF93DF93EC017B01611571058C
:1018F000B1F1E88DF98D80819181892B9281892BBD
:101900009381892B9481892B9581892B9681892BB1
:101910009781892B21F510E01FC0A12FB0E0CD01E8
:1019200063E0880F991F6A95E1F7E88DF98DE80F5C
:10193000F91FAA0FBB1FAA0FBB1FAE0DBF1D2D9114
:101940003D914D915C912083318342835383148276
:101950001582168217821F5F8A891817F0F2DF91AD
:10196000CF911F91FF90EF9008950895AF92BF928D
:10197000CF92DF92EF92FF920F931F93DF93CF935B
:10198000CDB7DEB76C970FB6F894DEBF0FBECDBFF4
:101990000D8B1E8B2F8B388F498F5A8F6B8F7C8FBF
:1019A000F4E0EF2EF12CE80EF91EC7010E944B1E49
:1019B000C701BE016B5E7F4F0E942A1EC7016EEBFE
:1019C00040E00E94E51D8E01075F1F4FC801B02E49
:1019D000A92EE2E1CE2ED12CCC0EDD1EC7010E9435
:1019E000941DF80181938F01EC15FD05B9F78B2D3E
:1019F0009A2D68E00E944F1D9989891769F52985FC
:101A0000222319F48A85882339F18E858F3F21F5A9
:101A10008889803109F59A8580E0422F50E0482B73
:101A2000592BDE011196E5EBF1E088E001900D9273
:101A30008150E1F7ED85F0E0E076F07074E0F69526
:101A4000E7957A95E1F7EC0FFD1F21813281209512
:101A500030952423352302C020E030E8C9016C967C
:101A60000FB6F894DEBF0FBECDBFCF91DF911F91AF
:101A70000F91FF90EF90DF90CF90BF90AF900895BF
:101A80008F929F92AF92BF92CF92DF92EF92FF928E
:101A90000F931F93CF93DF93EC01D22EC32EB42E5E
:101AA000A52E962E872E0E94B60C9C0180E8203031
:101AB000380779F5CE012D2D3C2D4B2D5A2D692D52
:101AC000782D0E94B60C9C0180E82030380709F57B
:101AD000CE012D2D3C2D4B2D5A2D692D782D0E9498
:101AE000B60C9C0180E82030380799F4CE012D2DEA
:101AF0003C2D4B2D5A2D692D782D0E94B60C9C0142
:101B000080E82030380729F4E0E070E080EC6FE7EF
:101B10001BC0B901882777FD8095982F0E949A25D0
:101B200020E030E040E85DE30E944E2626E636E6FF
:101B300046EE5FE30E944E2620E030E040E052E4B3
:101B40000E949724E62F692F2E2F372F482F562FCC
:101B5000B901CA01DF91CF911F910F91FF90EF90D2
:101B6000DF90CF90BF90AF909F908F900895EF92AD
:101B7000FF920F931F938C01A4E0EA2EF12CE80E44
:101B8000F91EC7010E944B1EC7010E94251EC701F6
:101B900064E441E00E94E51D82E0F801838B1F911F
:101BA0000F91FF90EF900895CF92DF92EF920F93F5
:101BB0001F93DF93CF93CDB7DEB728970FB6F89476
:101BC000DEBF0FBECDBF09831A832B833C834D83B9
:101BD0005E836F8378878C010C5F1F4FC8010E9462
:101BE0004B1E6E010894C11CD11CC801B6010E9495
:101BF0002A1EC8016EE440E00E94E51DC80160E0B5
:101C000040E00E94E51DC80160E040E00E94E51D43
:101C1000E294EE0CB0EEEB22EA94C8016E2D40E0A7
:101C20000E94E51DC8010E944B1EC801B6010E941A
:101C30002A1EC80168E441E00E94E51D6AE070E0E8
:101C400080E090E00E94FE16C8010E94341D289694
:101C50000FB6F894DEBF0FBECDBFCF91DF911F91BD
:101C60000F91EF90DF90CF900895CF92DF92EF9297
:101C7000FF920F931F93DF93CF93CDB7DEB72897D3
:101C80000FB6F894DEBF0FBECDBF6B01E982FA82BA
:101C90000B831C832D833E834F835887CB0162E3E4
:101CA00071E00E94371C8E010F5F1F4F99E0E92EF3
:101CB000F12CEC0EFD1EF801608170E084E075955A
:101CC00067958A95E1F7C60140E150E00E94051C46
:101CD000F80161918F0170E06F707070C60140E192
:101CE00050E00E94051C0E151F0529F728960FB617
:101CF000F894DEBF0FBECDBFCF91DF911F910F9142
:101D0000FF90EF90DF90CF9008952F923F924F92E7
:101D10005F926F927F928F929F92AF92BF92CF927B
:101D2000DF92EF92FF920F931F93CF93DF934C01BB
:101D3000762E4F9660E67AEE0E947E1F882309F485
:101D400045C0D40192968D919C919397019693965C
:101D50009C938E939297803F9105C0F193961C922D
:101D60001E92929760E070E040E050E026C0E901EA
:101D7000D4019496ED91FC919597E40FF51F9E0187
:101D800021503040DF01AC0FBD1FE20FF31F8081F7
:101D90008C93D4019696ED91FC919797E40FF51FE3
:101DA000CE0FDF1FE20FF31F8081888321153105DD
:101DB000F1F66F5F7F4F4A5F5F4FF401828990E0D9
:101DC000681779071CF4C5E0D0E0D2CF0E94CA168C
:101DD0005B016C01D40153968C91813021F08230EB
:101DE00009F013C128C07720D9F0F40184899589BE
:101DF000A689B78986017501E81AF90A0A0B1B0B37
:101E0000672D70E080E090E028EE33E040E050E0A5
:101E10000E94B5266E157F058007910708F0F5C072
:101E2000D4015496AD92BD92CD92DC925797C401E5
:101E30000E94B70DEAC0F40184899589A689B78903
:101E4000A81AB90ACA0ADB0AFDEBAF16B104C1042D
:101E5000D10408F4DAC0BB2471E0272E312C0F2EF8
:101E6000F0E04F2EF0E05F2EF0EC6F2EFFE77F2EBC
:101E7000F02DC3C0CB2CDD24C60163E0880F991F71
:101E80006A95E1F7D4015896ED91FC915997E80FC6
:101E9000F91F00811181228133814481558166813E
:101EA0007781802F812B822B832B842B852B862B74
:101EB000872B09F4A1C0C4010E94400D7B018C0155
:101EC000E1010B2C02C0CC0FDD1F0A94E2F7A80140
:101ED00097010E94B126F401258D368D8823D9F013
:101EE000CE0182239323892B81F0CC0CDD1CCC0CFA
:101EF000DD1CD4015B96ED91FC915C97EC0DFD1D12
:101F0000408251826282738277C02C2B3D2BF40178
:101F1000368F258F71C0CE01809590952823392367
:101F2000D4015E963C932E935D97C601880F991F4E
:101F3000880F991F5B96ED91FC915C97E80FF91F54
:101F4000E082F18202831383C801B70120E030E010
:101F500040E050E00E944A2688234CF0C801B701B7
:101F600020E030E040E05FE30E94972408C0C80111
:101F7000B70120E030E040E05FE30E9496240E9439
:101F80006725162F1855E601CC0FDD1FCC0DDD1D82
:101F9000CC0FDD1FD4019496ED91FC919597EC0F39
:101FA000FD1F8581803859F4212F332727FD309577
:101FB000CF01B90146E050E00E94150404C08081C1
:101FC00018170CF41083D4019696ED91FC91979715
:101FD000EC0FFD1F8581803859F4212F332727FD11
:101FE0003095CF01B90146E050E00E94150404C0CD
:101FF000808181170CF41083B394F4018289B816A0
:1020000008F438CF81E0838B01C080E0DF91CF916D
:102010001F910F91FF90EF90DF90CF90BF90AF9006
:102020009F908F907F906F905F904F903F902F90F8
:1020300008952F923F924F925F926F927F928F926C
:102040009F92AF92BF92CF92DF92EF92FF920F9347
:102050001F93DF93CF93CDB7DEB767970FB6F89492
:10206000DEBF0FBECDBF3C012B010DB71EB71F8BCE
:102070000E8BA4E02A2E312C280E391EC1010E949D
:10208000421D1D861C861B861A861986AEC0CE018F
:10209000019667E00E944F1D89809A80AB80BC80CA
:1020A000CD80DE80EF80F88410E020E030E040E07A
:1020B00050E060E070E08E871F87288B398B4A8B59
:1020C0005B8B6C8B7D8B9401A501B601C70108E386
:1020D0000E946F021E85121709F087C02F852317F3
:1020E00009F083C03889341709F07FC04989451742
:1020F00009F07BC05A89561709F077C06B896717BA
:1021000009F073C07C89781709F06FC08D89891731
:1021100009F06BC0D30152965C9140E020E030E0C2
:1021200029C0D3015896ED91FC915997E20FF31F06
:10213000285F3F4F80819181A281B38188159905E5
:10214000AA05BB05B1F480829182A282B382C482C7
:10215000D582E682F78281E090E002C0880F991F65
:102160004A95E2F7EC85FD85E82BF92BFD87EC8796
:1021700039C04F5F4517A8F240E020E030E030C0A2
:10218000D3015896ED91FC915997E20FF31F285F08
:102190003F4F80819181892B9281892B9381892B5B
:1021A0009481892B9581892B9681892B9781892B05
:1021B000B1F480829182A282B382C482D582E68207
:1021C000F78281E090E002C0880F991F4A95E2F7FC
:1021D000EA85FB85E82BF92BFB87EA8703C04F5F75
:1021E000451770F2F985FF5FF987C101BE016F5F86
:1021F0007F4F0E94961E882309F049CFC1010E949B
:10220000421DFF2420C08F2D90E0F3E0880F991F1E
:10221000FA95E1F7D3015896ED91FC915997E80FA3
:10222000F91F0081118122813381448155816681AA
:102230007781023211F0083229F4C301EAE0EE2E70
:102240000E94D40DF394F3018289F816E0F20A8516
:102250001B85012BC1F1C20169EA72E00E94791A63
:10226000DD242AC08A859B850D2C02C09695879512
:102270000A94E2F780FF1FC0C2016BE471E00E9484
:10228000371C8D2D90E013E0880F991F1A95E1F708
:10229000D3015896ED91FC915997E80FF91FE08012
:1022A000F180028113812481358146815781C301E8
:1022B000B2010E94350ED394F3018289D81690F2B0
:1022C000C2010E94A41ACA84DB840C851D85C02A21
:1022D000D12AC094D09481E090E0D30152960C9022
:1022E00002C0880F991F0A94E2F70197C822D922E9
:1022F000C114D104B9F1C20163E972E00E94791AF4
:10230000BB2429C0C6010B2C02C0969587950A9460
:10231000E2F780FF1FC0C2016BE471E00E94371C2E
:102320008B2D90E0B3E0880F991FBA95E1F7D301A8
:102330005896ED91FC915997E80FF91FE080F180D4
:10234000028113812481358146815781C301B20105
:102350000E94350EB394F3018289B81698F2C20137
:102360000E94A41AC20162E872E00E94791AC201B6
:10237000D30152966C914AE050E00E94951BC20135
:1023800069E772E00E94C41AF301828990E0880F25
:10239000991F880F991F0DB71EB7081B190B0FB691
:1023A000F8941EBF0FBE0DBF6DB77EB76F5F7F4F36
:1023B00040E01CC0842F90E0880F991F880F991F60
:1023C0009B01280F391F880F991FD3015896ED9153
:1023D000FC915997E80FF91F80819181A281B38107
:1023E000F90180839183A283B3834F5FD301529617
:1023F0008C914817F8F284E00E9495050E94CA1655
:10240000F301648B758B868B978BC3010E94B70D8C
:1024100089850E891F890FB6F8941EBF0FBE0DBFA8
:1024200067960FB6F894DEBF0FBECDBFCF91DF9198
:102430001F910F91FF90EF90DF90CF90BF90AF90E2
:102440009F908F907F906F905F904F903F902F90D4
:1024500008951F93CF93DF93EC01413108F040E1E1
:102460004A8B1B8A1E8E1D8E842F90E064E070E0E4
:102470000E94EE028B8F9C8F8A8990E066E070E06C
:102480000E94EE028CA39DA32A8916E0219F900151
:10249000112460E870E0A9010E9415048A8990E087
:1024A00066E070E00E94EE028EA39FA32A89219F1E
:1024B0009001112460E870E0A9010E94150484E0F5
:1024C0008A838A8990E0880F991F880F991F8B83D0
:1024D000DF91CF911F910895EF92FF920F931F9379
:1024E0008C01F62EE42E81EB91E0F801918380833C
:1024F000C80104960E942C1FF80111A2C8016F2D7B
:102500004E2D0E942912F801828990E068E070E067
:102510000E94EE02F801808F918F128E1F910F9111
:10252000FF90EF9008950F931F93CF93DF93EC01EB
:10253000A42F8A89681708F061C0481708F05EC0A8
:102540008B8D9C8D70E0AC01460F571FFA013081D6
:10255000B0E08A0F9B1FFC012081FA012083FC015F
:102560003083888D998DFB0123E0EE0FFF1F2A95A4
:10257000E1F7E80FF91F20813181428153816481A5
:10258000758116810781AA0FBB1FAA0FBB1FAA0F57
:10259000BB1FA80FB91F8C91808311968C91119746
:1025A000818312968C911297828313968C91139744
:1025B000838314968C911497848315968C91159728
:1025C000858316968C911697868317968C9117970C
:1025D00087832C9311963C93119712964C931297E4
:1025E00013965C93139714966C93149715967C939B
:1025F000159716961C93169717960C93DF91CF910B
:102600001F910F91089508956F927F928F929F92DC
:10261000AF92BF92CF92DF92EF92FF920F931F93F0
:10262000CF93DF93380149015A016B01EC012496E5
:10263000CE010E944B1ECE0160EF40E00E94E51DDE
:10264000EE24FF24CE010E94601D182FCE010E94AF
:10265000601D112339F0882329F0CE010E944B1E02
:102660008FEF1CC09301A401B501C6010E2D0E947D
:102670006F022170CE01622F0E94B11D0894E11CEF
:10268000F11C80E4E816F104E9F6CE010E94601D19
:10269000182FCE010E944B1E81E08127DF91CF9140
:1026A0001F910F91FF90EF90DF90CF90BF90AF9070
:1026B0009F908F907F906F900895DC01AB01611522
:1026C000710509F15896ED91FC915997808191819E
:1026D000892B9281892B9381892B9481892B9581D8
:1026E000892B9681892B9781892B69F452962C919D
:1026F00030E063E0220F331F6A95E1F7CF01BA01A2
:10270000A9010E940C040895CF92DF92EF92FF92EC
:102710000F931F93DF93CF93CDB7DEB728970FB6F4
:10272000F894DEBF0FBECDBF6B01E982FA820B8346
:102730001C832D833E834F835887CB016DE471E06A
:102740000E94371C8E010F5F1F4FF4E0EF2EF12C1B
:10275000EC0EFD1EF801608170E0E4E07595679570
:10276000EA95E1F7C60140E150E00E94051CF8013E
:1027700061918F0170E06F707070C60140E150E0B0
:102780000E94051C0E151F0529F728960FB6F89410
:10279000DEBF0FBECDBFCF91DF911F910F91FF9094
:1027A000EF90DF90CF9008959F92AF92BF92CF921B
:1027B000DF92EF92FF920F931F93CF93DF93EC0181
:1027C000962E0E94CA165B016C019920D9F08C8963
:1027D0009D89AE89BF8986017501E81AF90A0A0B3D
:1027E0001B0B692D70E080E090E028EE33E040E0C4
:1027F00050E00E94B5266E157F058007910710F006
:1028000080E045C0AC8ABD8ACE8ADF8AEE2481E0B2
:10281000A82EB12C38C0CE2CDD24C60103E0880FD1
:10282000991F0A95E1F7E88DF98DE80FF91F0081EE
:102830001181228133814481558166817781802F86
:10284000812B822B832B842B852B862B872BD1F0FE
:10285000CE010E940413A5010E2C02C0440F551F87
:102860000A94E2F7409550952D8D3E8D2423352313
:102870003E8F2D8FEB8DFC8DEC0DFD1D90E081705A
:1028800090708083E3948A89E81628F281E0DF91D2
:10289000CF911F910F91FF90EF90DF90CF90BF905D
:1028A000AF909F9008952F923F924F925F926F92B8
:1028B0007F928F929F92AF92BF92CF92DF92EF92D0
:1028C000FF920F931F93DF93CF93CDB7DEB764973B
:1028D0000FB6F894DEBF0FBECDBF3C012B019C01AB
:1028E0002C5F3F4F3D872C87C9010E94421D222447
:1028F000332419861B861A86D1C0CE01019667E063
:102900000E944F1D19813A813E879B819F87AC8130
:10291000A88BBD81B98BEE81EA8BFF81FB8B28856B
:102920002C8B882E9924AA24BB24CC24DD24760168
:10293000212F492F5A2F6B2F7E2F8F2F9C8908E331
:102940000E946F02821609F0A9C0931609F0A6C072
:10295000A41609F0A3C0B51609F0A0C0C61609F068
:102960009DC0D71609F09AC0E81609F097C0F9166D
:1029700009F094C0153009F091C039853F5F39875F
:10298000D30152960C91DD2420E030E04BC0D301FE
:102990005896ED91FC915997E20FF31F8081918138
:1029A0004281538164817581A681E781285F3F4F11
:1029B0001817B9F5BE85B917A1F5FF85F41789F584
:1029C0008889851771F59989961759F5BA89B717C6
:1029D00041F5FB89FA1729F58C898E1711F5C2018B
:1029E0006FE173E00E94791AE980FA800B811C8103
:1029F0002D813E814F815885C301B2010E9484130D
:102A0000C2010E94A41A81E090E002C0880F991FC1
:102A1000DA94E2F7AA85BB85A82BB92BBB87AA87D6
:102A20003DC0D394D01608F4B2CF40E020E030E0AF
:102A300033C0D3015896ED91FC915997E20FF31FE3
:102A4000285F3F4F80819181892B9281892B9381CF
:102A5000892B9481892B9581892B9681892B97814C
:102A6000892BC9F41083BE85B1832F8522833889D1
:102A70003383898984839A899583AB89A683BC89AA
:102A8000B78381E090E002C0880F991F4A95E2F772
:102A9000282A392A03C04F5F401758F28C859D853C
:102AA000BE016F5F7F4F0E94961E882309F025CFDD
:102AB0008C859D850E94421D21143104B9F1C2010B
:102AC00068E073E00E94791ADD2429C0C1010D2C51
:102AD00002C0969587950A94E2F780FF1FC0C20155
:102AE0006DE571E00E94371C8D2D90E033E0880F7A
:102AF000991F3A95E1F7D3015896ED91FC915997BA
:102B0000E80FF91FE080F180028113812481358173
:102B100046815781C301B2010E948413D394F3010B
:102B20008289D81698F2C2010E94A41ACA84DB8452
:102B3000C228D328C094D09481E090E0D30152966B
:102B40000C9002C0880F991F0A94E2F70197C822DF
:102B5000D922C114D104B9F1C20161EF72E00E941F
:102B6000791ABB2429C0C6010B2C02C09695879503
:102B70000A94E2F780FF1FC0C2016DE571E00E9478
:102B8000371C8B2D90E023E0880F991F2A95E1F7E1
:102B9000D3015896ED91FC915997E80FF91FE08009
:102BA000F180028113812481358146815781C301DF
:102BB000B2010E948413B394F3018289B81698F28B
:102BC000C2010E94A41AC20160EE72E00E94791A4A
:102BD000C201D30152966C914AE050E00E94951BCD
:102BE000C20166ED72E00E94C41AF301608D718D1E
:102BF00085E00E949505C30160E00E94D413898599
:102C000064960FB6F894DEBF0FBECDBFCF91DF91B3
:102C10001F910F91FF90EF90DF90CF90BF90AF90FA
:102C20009F908F907F906F905F904F903F902F90EC
:102C30000895CF93DF93EC01413108F040E14A8BD6
:102C40001B8A1E8E1D8E842F90E061E070E00E9432
:102C5000EE028B8F9C8F85E08A838A8990E043E027
:102C6000880F991F4A95E1F78B83DF91CF910895E3
:102C7000EF92FF920F931F938C01F62EE42E81ECBE
:102C800091E0F80191838083C80104960E942C1F73
:102C9000C8016F2D4E2D0E941916F801828990E00F
:102CA00068E070E00E94EE02F801808F918F128E32
:102CB0001F910F91FF90EF900895809381010895E7
:102CC000982F8E3008F09E509770809181018295E8
:102CD000880F880F807C892B80937C0080917A00FC
:102CE000806480937A0080917A0086FDFCCF2091E9
:102CF000780040917900942F80E030E0282B392B28
:102D0000C90108951F920F920FB60F9211242F93AD
:102D10003F938F939F93AF93BF93809122039091A2
:102D20002303A0912403B09125033091260301963B
:102D3000A11DB11D232F2D5F2D3720F02D5701969A
:102D4000A11DB11D2093260380932203909323039A
:102D5000A0932403B093250380911E0390911F0339
:102D6000A0912003B09121030196A11DB11D809374
:102D70001E0390931F03A0932003B0932103BF91E0
:102D8000AF919F918F913F912F910F900FBE0F9018
:102D90001F9018958FB7F894209122033091230348
:102DA00040912403509125038FBFB901CA010895B2
:102DB0009FB7F89420911E0330911F034091200388
:102DC0005091210386B5A89B06C08F3F21F02F5F4D
:102DD0003F4F4F4F5F4F9FBF542F432F322F22271C
:102DE000280F311D411D511D82E0220F331F441F4A
:102DF000551F8A95D1F7B901CA0108959B01AC010D
:102E00007FB7F89480911E0390911F03A091200337
:102E1000B091210366B5A89B05C06F3F19F00196DC
:102E2000A11DB11D7FBFBA2FA92F982F8827860F0C
:102E3000911DA11DB11D62E0880F991FAA1FBB1F24
:102E40006A95D1F7BC012DC0FFB7F89480911E039D
:102E500090911F03A0912003B0912103E6B5A89B98
:102E600005C0EF3F19F00196A11DB11DFFBFBA2F9C
:102E7000A92F982F88278E0F911DA11DB11DE2E06B
:102E8000880F991FAA1FBB1FEA95D1F7861B970BC6
:102E9000885E9340C8F22150304040405040685115
:102EA0007C4F211531054105510571F608950197B3
:102EB00039F0880F991F880F991F02970197F1F732
:102EC0000895789484B5826084BD84B5816084BDA2
:102ED00085B5826085BD85B5816085BDEEE6F0E093
:102EE000808181608083E1E8F0E0108280818260EF
:102EF0008083808181608083E0E8F0E08081816070
:102F00008083E1EBF0E0808184608083E0EBF0E09F
:102F1000808181608083EAE7F0E080818460808343
:102F200080818260808380818160808380818068ED
:102F300080831092C1000895CF93DF93482F50E013
:102F4000CA01825A9C4FFC013491465B5C4FFA01E6
:102F50008491882369F190E0880F991FFC01E45D5A
:102F6000FC4FA591B491FC01EA5CFC4FC591D49152
:102F7000662351F42FB7F8948C91932F9095892361
:102F80008C93888189230BC0623061F42FB7F89449
:102F90008C91932F909589238C938881832B8883A0
:102FA0002FBF06C09FB7F8948C91832B8C939FBF43
:102FB000DF91CF910895482F50E0CA018E589C4F61
:102FC000FC012491CA01825A9C4FFC019491465BFA
:102FD0005C4FFA013491332309F440C0222351F1AC
:102FE000233071F0243028F42130A1F0223011F583
:102FF00014C02630B1F02730C1F02430D9F404C019
:10300000809180008F7703C0809180008F7D8093B6
:10301000800010C084B58F7702C084B58F7D84BDD9
:1030200009C08091B0008F7703C08091B0008F7D80
:103030008093B000E32FF0E0EE0FFF1FEA5CFC4F3F
:10304000A591B4912FB7F894662321F48C919095B3
:10305000892302C08C91892B8C932FBF08950895EA
:103060001F920F920FB60F9211242F933F934F93FD
:103070008F939F93EF93FF938091C00082FD1DC0BB
:103080004091C60020916703309168032F5F3F4F46
:103090002F7330708091690390916A032817390764
:1030A00071F0E0916703F0916803E95DFC4F4083A4
:1030B000309368032093670302C08091C600FF919C
:1030C000EF919F918F914F913F912F910F900FBE54
:1030D0000F901F901895E091BB03F091BC03E05C4A
:1030E000FF4F8191919120813181821B930B8F73CE
:1030F0009070892B11F00E942F1808951F920F9243
:103100000FB60F9211242F933F938F939F93EF93BA
:10311000FF932091AB033091AC038091AD0390916C
:10312000AE032817390731F48091C1008F7D809359
:10313000C10014C0E091AD03F091AE03E559FC4F1E
:1031400020818091AD039091AE0301968F739070B2
:103150009093AE038093AD032093C600FF91EF914F
:103160009F918F913F912F910F900FBE0F901F90C5
:103170001895AF92BF92DF92EF92FF920F931F9339
:10318000CF93DF93EC017A018B01DD24403081EE97
:10319000580780E0680780E0780711F0DD24D394B9
:1031A00091E0A92EB12CEC89FD89DD2069F0C501E3
:1031B00008A002C0880F991F0A94E2F7808360E09C
:1031C00079E08DE390E005C0108260E874E88EE15C
:1031D00090E0A80197010E94FB262150304040401A
:1031E0005040569547953795279580E12030380710
:1031F00020F0DD2011F0DD24D6CFE889F989308375
:10320000EA89FB89208319A2EE89FF89408121E0A8
:1032100030E0C9010C8C02C0880F991F0A94E2F7B4
:10322000482B4083EE89FF894081C9010D8C02C083
:10323000880F991F0A94E2F7482B4083EE89FF8993
:103240004081C9010E8C02C0880F991F0A94E2F7D1
:10325000482B4083EE89FF8980810F8C02C0220FAA
:10326000331F0A94E2F7209528232083DF91CF9122
:103270001F910F91FF90EF90DF90BF90AF90089556
:10328000DC011C96ED91FC911D97E05CFF4F2191B4
:10329000319180819181281B390B2F733070C901C6
:1032A0000895DC011C96ED91FC911D97E05CFF4FA9
:1032B00020813181E054F040DF01AE5BBF4F8D9142
:1032C0009C9111972817390719F42FEF3FEF07C08A
:1032D0008D919C91E80FF91F8081282F30E0C90162
:1032E0000895DC011C96ED91FC911D97E05CFF4F69
:1032F00020813181E054F040DF01AE5BBF4F8D9102
:103300009C9111972817390719F42FEF3FEF10C040
:103310008D919C911197E80FF91F20818D919C91BF
:10332000119701968F73907011969C938E9330E055
:10333000C9010895DC0191968C919197882339F009
:103340005496ED91FC915597808186FFF9CF919627
:103350001C920895CF93DF93EC01EE85FF85E05C2E
:10336000FF4F20813181E054F0402F5F3F4F2F739A
:103370003070DF01AE5BBF4F8D919C911197281784
:103380003907D1F3E05CFF4F80819181E054F04038
:10339000E80FF91F6083EE85FF85E05CFF4F318306
:1033A0002083EE89FF89208181E090E00F8C02C0AC
:1033B000880F991F0A94E2F7282B208381E089A3C4
:1033C000EC89FD8980818064808381E090E0DF91D9
:1033D000CF9108951092B2031092B10388EE93E05A
:1033E000A0E0B0E08093B3039093B403A093B5033F
:1033F000B093B60389EC91E09093B0038093AF0350
:1034000087E293E09093BC038093BB038BE693E049
:103410009093BE038093BD0385EC90E09093C0032E
:103420008093BF0384EC90E09093C2038093C10328
:1034300080EC90E09093C4038093C30381EC90E010
:103440009093C6038093C50382EC90E09093C803E9
:103450008093C70386EC90E09093CA038093C903DE
:1034600084E08093CB0383E08093CC0387E0809358
:10347000CD0385E08093CE0381E08093CF03089550
:10348000CF93DF930E9461170E941D05CBE6D8E120
:103490000E9498042097E1F30E946B18F9CFCF9215
:1034A000DF92EF92FF920F931F93CF93DF937C01F4
:1034B0006B018A01C0E0D0E00FC0D6016D916D01B3
:1034C000D701ED91FC910190F081E02DC7010995A4
:1034D000C80FD91F015010400115110571F7CE0119
:1034E000DF91CF911F910F91FF90EF90DF90CF90E0
:1034F0000895EF92FF920F931F93CF93DF937C0178
:103500008B01C0E0D0E0F8010F5F1F4F649166238C
:1035100059F0D701ED91FC910190F081E02DC701A8
:103520000995C80FD91FEFCFCE01DF91CF911F9121
:103530000F91FF90EF900895DC01ED91FC910190C7
:10354000F081E02D09950895EF92FF920F931F935C
:103550008C01DC01ED91FC910190F081E02D6DE09A
:1035600009957C01D801ED91FC910190F081E02D4D
:10357000C8016AE009959C012E0D3F1DC9011F91EC
:103580000F91FF90EF900895EF92FF920F931F938A
:103590007C010E94791A8C01C7010E94A41A9C0127
:1035A000200F311FC9011F910F91FF90EF900895D7
:1035B000CF93DF93EC016115710519F420E030E041
:1035C0000FC0DB010D900020E9F71197A61BB70B88
:1035D000E881F9810280F381E02DAD0109959C011C
:1035E000C901DF91CF9108954F925F927F928F92A0
:1035F0009F92AF92BF92CF92DF92EF92FF920F9382
:103600001F93DF93CF93CDB7DEB7A1970FB6F89492
:10361000DEBF0FBECDBF2C01742ECB01223008F4CB
:103620002AE019A231E2C32ED12CCC0EDD1E822E4F
:103630009924AA24BB24672D752FA50194010E940B
:10364000FB2679018A01C801B701A50194010E94F6
:10365000B526472D461B0894C108D1084A3010F4FE
:10366000405D01C0495CF6014083E114F1040105AD
:10367000110521F07E2C5F2DC801DDCFC201B601FE
:103680000E94D81AA1960FB6F894DEBF0FBECDBF28
:10369000CF91DF911F910F91FF90EF90DF90CF902E
:1036A000BF90AF909F908F907F905F904F900895C4
:1036B000DC012115310541F4ED91FC910190F0817F
:1036C000E02D642F099508950E94F41A0895EF9251
:1036D000FF920F931F939A017B0100E010E0B80165
:1036E000A7010E94581B1F910F91FF90EF90089522
:1036F000CF92DF92EF92FF920F931F936C017B01A9
:103700009A0100E010E0B801A7010E94581B8C014B
:10371000C6010E94A41A080F191FC8011F910F911A
:10372000FF90EF90DF90CF900895EF92FF920F936C
:103730001F939A01E62EFF2400E010E0B801A701D4
:103740000E94581B1F910F91FF90EF900895CF9208
:10375000DF92EF92FF920F931F936C01E62E9A0176
:10376000FF2400E010E0B801A7010E94581B8C0163
:10377000C6010E94A41A080F191FC8011F910F91BA
:10378000FF90EF90DF90CF900895CF92DF92EF926D
:10379000FF920F931F93CF93DF93EC016A017B019C
:1037A0002115310541F4E881F9810190F081E02D86
:1037B000642F09951FC02A303105D1F477FF17C057
:1037C000E881F9810190F081E02D6DE209958C018D
:1037D00044275527BA014C195D096E097F09CE01AE
:1037E0002AE00E94F41A9801280F391F04C02AE029
:1037F0000E94F41A9C01C901DF91CF911F910F9192
:10380000FF90EF90DF90CF900895EF92FF920F938B
:103810001F937B019A010027F7FC0095102FB80138
:10382000A7010E94C51B1F910F91FF90EF90089573
:10383000CF92DF92EF92FF920F931F936C017B0167
:103840009A010027F7FC0095102FB801A7010E94EC
:10385000C51B8C01C6010E94A41A080F191FC801BC
:103860001F910F91FF90EF90DF90CF9008950E94ED
:10387000D81A08957F928F929F92AF92BF92CF9263
:10388000DF92EF92FF920F931F93CF93DF934C0140
:103890007A018B01722ECB01BA01A80197010E9417
:1038A000B126882321F0C4016FE571E021C0C0E09A
:1038B000D0E057016801E894D7F8C601B5012FEFB1
:1038C0003FEF4FE75FE70E94B126882351F4C6011E
:1038D000B5012FEF3FEF4FE75FE70E94FB2418167B
:1038E00014F0C1E0D0E0219739F0C40163E671E043
:1038F0000E94D81AEC0193C0C801B7012FEF3FEF27
:103900004FE75FE40E944A26181654F0C801B70139
:103910002FEF3FEF4FE75FEC0E94FB24882324F456
:10392000C40167E671E0E4CFC801B70120E030E0F0
:1039300040E050E00E94FB2487FD03C0C0E0D0E0DF
:103940000EC0D401ED91FC910190F081E02DC401F5
:103950006DE20995EC0117FB109517F9109520E021
:1039600030E040E05FE3DD240BC0CA01B90120E094
:1039700030E040E251E40E94FF249B01AC01D3946B
:10398000D71498F3C801B7010E9497245B016C011A
:103990000E946C257B018C01C401B801A7012AE0BB
:1039A00030E00E94581BC80FD91F772039F0C4019E
:1039B0006BE671E00E94D81AC80FD91FC801B70181
:1039C0000E9498259B01AC01C601B5010E94962476
:1039D00024C020E030E040E251E40E944E267B010A
:1039E0008C010E9467255B016C01CC24B7FCC0945C
:1039F000DC2CC401B601A5012AE030E00E94C51B01
:103A0000C80FD91FC601B5010E949A259B01AC01C0
:103A1000C801B7010E9496247A947720D1F6CE018E
:103A2000DF91CF911F910F91FF90EF90DF90CF909A
:103A3000BF90AF909F908F907F9008950E943A1C06
:103A40000895EF92FF920F931F937C010E94D81A62
:103A50008C01C7010E94A41A080F191FC8011F91E9
:103A60000F91FF90EF900895FC01F894A181B2812D
:103A700011969C91119780818095982311969C9323
:103A800078940895FC0113861586148687E090E0EB
:103A900012863197009711F00197FACF0895DC0153
:103AA00080E00BC0E82FF0E08D9190E0E827F92747
:103AB000EA57FC4FE49161508E2F662399F70895E1
:103AC000DF92EF92FF920F931F93FC01E080018140
:103AD0001281F894F8018281DE2CD0948D218283AA
:103AE00081818E29818383E090E00E945717F8013D
:103AF00081818D2181838AE090E00E945717F8012F
:103B00000081789485E390E00E94571780E010E0F0
:103B1000FF240E211F21012B09F081E01F910F913D
:103B2000FF90EF90DF900895EF92FF920F931F9315
:103B3000CF93DF937C0101E010E0C0E0D0E0C7014B
:103B40000E94601D8111102B000F2196C830D105F5
:103B5000B1F7812FDF91CF911F910F91FF90EF90DF
:103B600008951F93CF93DF93FC011081C181D2810F
:103B7000912F909560FF12C0F8948A8189238A83DF
:103B80008981812B89838AE090E00E9457178A817E
:103B9000812B8A83789487E390E011C0F8948A811E
:103BA00089238A838981812B898381E490E00E9423
:103BB00057178A81812B8A83789485E090E00E9450
:103BC0005717DF91CF911F910895CF92DF92EF9217
:103BD000FF920F931F93CF93DF938C01E42EFF246A
:103BE000F394C0E0D0E0C62EDD2460E08F2D90E09D
:103BF0008C219D21892B09F061E0C8010E94B11D33
:103C0000FF0C2196C830D10581F7EE20A9F4F89475
:103C1000D8011196ED91FC91129791818C9180952C
:103C2000982391831196ED91FC91129792818C913A
:103C30008095982392837894DF91CF911F910F9173
:103C4000FF90EF90DF90CF9008956CEC40E00E94E1
:103C5000E51D0895EF92FF920F931F93CF93DF938B
:103C60008C017B0165E540E00E94E51DC0E0D0E0ED
:103C7000F701EC0FFD1FC801608140E00E94E51DC7
:103C80002196C830D105A1F7DF91CF911F910F91F7
:103C9000FF90EF900895DF92EF92FF920F931F93A2
:103CA000CF93DF93FC010081C181D281F894898197
:103CB000D02ED0948D21898378941DE7E02EFF24A7
:103CC000115059F182E090E00E945717888190E0EE
:103CD0008E219F21892BA1F3F8948A818D218A83DB
:103CE0008981802B8983789484EF91E00E94571713
:103CF000F89489818D21898380E590E00E9457178F
:103D0000888110E090E0E822F922EF2809F411E020
:103D1000789484EA91E00E945717812FDF91CF9128
:103D20001F910F91FF90EF90DF900895AF92BF9297
:103D3000DF92EF92FF920F931F93CF93DF93EC01EB
:103D40005B018D85882309F061C0CE010E944B1E66
:103D5000882329F41B861D861C8690E06BC0CE014B
:103D600060EF40E00E94E51D01E0DD24EE24FF2429
:103D7000F394CE010E94601D182FCE010E94601D99
:103D8000113019F48130E1F439C0181709F58B8529
:103D9000081770F460E0FE01EE0DF11D838190E0E4
:103DA0002F2D30E082239323181619064CF003C000
:103DB00060E0081729F0093008F04CC00C874AC0B1
:103DC000FE01EE0DF11D83818F29838361E009C01F
:103DD000612FFE01EE0DF11D9F2D909583818923AA
:103DE0008383CE010E94B11D0F5FFF0C19F4E39491
:103DF000FF24F39487E08E1508F0BBCF013430F038
:103E0000DB86DD2011F581E08D871FC01B861D86B6
:103E10001C8690E0DE0120E030E0F501E20FF31FA8
:103E200013968C91139780832F5F3F4F1196283004
:103E3000310599F7892FDF91CF911F910F91FF9055
:103E4000EF90DF90BF90AF9008958B818823F1F2BF
:103E500091E0E0CFD02EBDCFFF920F931F938C0146
:103E6000F62E862F60E00E949C178F2D90E0FC01BB
:103E7000E25AFC4FE491D801EC93865B9C4FFC0125
:103E80006491E62FF0E0EE0FFF1FE05CFC4F8591A0
:103E9000949112969C938E9311971B961C921B974C
:103EA0001D961C921D971C961C92F80187E090E0CD
:103EB00012863197009711F00197FACF1F910F9159
:103EC000FF9008950F931F93CF93DF938C01EB0125
:103ED00080E06115710509F081E0F8018283882393
:103EE00041F00E94CA162197C60FD71FF801D1834F
:103EF000C083DF91CF911F910F910895EF92FF92B0
:103F00000F931F93CF93DF93EC017B018A8188236A
:103F100011F400E00FC0088119810E94CA16C8017F
:103F2000861B970B2AEE8136920710F400E006C03C
:103F3000082F0195CE01B7010E94621F802FDF91EB
:103F4000CF911F910F91FF90EF900895782FE898EF
:103F500065B121E030E040E050E00090820104C013
:103F6000220F331F441F551F0A94D2F7322F822F7E
:103F70008095862385B99EBD0DB407FEFDCF4EB555
:103F80007EBD0DB407FEFDCF2EB5942F80E045B168
:103F9000342B35B9E89A30E0282B392BC901089524
:103FA0000E94A61F08958091D1039091D2038F7033
:103FB0009093D2038093D1038091D1039091D20347
:103FC00088609093D2038093D1038091D103909124
:103FD000D2030E94A61F089580912804873009F01B
:103FE00059C090912C04992399F080912B04891742
:103FF00028F480912B04873408F44CC084E080932B
:10400000280481E090E09093D9038093D8039AC06C
:104010008091DC0320912B0490E0049630E082171D
:10402000930724F080912B048734A0F184E08093DF
:1040300028048091DC03833430F081E090E0909399
:10404000D9038093D8038091DB0386FF12C080914F
:104050002704282F30E0C9018F7190704F9749F0E5
:104060008091DB0390E0822793278F719070892BDA
:1040700089F48091D8039091D903892B09F056C017
:10408000E0912504F0912604309709F44FC080E0B8
:10409000099558C080912804843011F080E008957B
:1040A0001092DC038091DC0380932B048FEF9FEF51
:1040B0009093D9038093D803209129042223D9F027
:1040C0008227282F22952827022E269526952025FF
:1040D000022E269520252770082E892F26950794D5
:1040E0002795902D822706942795902582279093D7
:1040F000D9038093D80387E08093280481E08093DC
:10410000D60383EA94E90E94A61F8091D10390917F
:10411000D203886D9093D2038093D1038091D10311
:104120009091D2030E94A61F80E008958FEF9FEF29
:10413000AFEFBFEF8093210490932204A093230458
:10414000B093240481E008950F931F93082F10E08B
:10415000C801966C0E94A61F98012F7730702F5FC0
:104160003F4F442737FD4095542F6BEF72E485E0B5
:1041700090E00E94FB26CA01B901000F012F001F29
:10418000110B980143E0220F331F4A95E1F7201BE2
:10419000310B2F5F3F4F442737FD4095542F0E942E
:1041A000FB2693E056954795379527959A95D1F735
:1041B0002D573C4F4F4F5F4FCA01B90124E833E000
:1041C00040E050E00E94FB262093D7031F910F91FF
:1041D000089580912804843069F080912804873004
:1041E00059F480912B04882339F40E94D31F84E072
:1041F0008093280481E0089580E00895982F86FD3B
:1042000005C0907E809127048F71980F9093DB03F7
:10421000E0912504F0912604309711F081E0099592
:104220008FEF9FEF9093D9038093D8038091D803A9
:104230009091D903209129048227282F229528279D
:10424000022E269526952025022E269520252770BC
:10425000082E892F269507942795902D822706945E
:104260002795902582279093D9038093D80388E0DF
:10427000809328048091D1039091D2038863909316
:10428000D2038093D1038091D1039091D2030E94F5
:10429000A61F0895DF92EF92FF920F931F937B0169
:1042A0008C01DD2405C0D39416950795F794E79407
:1042B0008FEFE816F1040105110509F0A0F78091D0
:1042C000D1039091D20381FF0FC08091D1039091CF
:1042D000D2038D7F9093D2038093D1038091D10339
:1042E0009091D2030E94A61FE114F104010511056B
:1042F000B9F0C701906E3D2D20E0822B932B0E94D8
:10430000A61F8091D1039091D20382609093D20333
:104310008093D1038091D1039091D2030E94A61F74
:104320001F910F91FF90EF90DF900895E89885B16D
:1043300021E030E040E050E00090820104C0220F14
:10434000331F441F551F0A94D2F7322F922F909596
:10435000982395B91EBC0DB407FEFDCF6EB51EBCEB
:104360000DB407FEFDCF2EB5962F80E0622F70E0D2
:10437000682B792B77FF0FC080912804873059F480
:104380008CB581608CBD1EBC0DB407FEFDCF2EB573
:104390008CB58E7F8CBD85B1382B35B9E89A70937A
:1043A000D4036093D3038091D3039091D40397FFF8
:1043B000ECC080912804873009F082C080912B04E2
:1043C000882371F490912904992351F080912B0452
:1043D000E82FF0E0E652FC4F90838F5F80932B0430
:1043E00080912B04E82FF0E0E652FC4F20838F5F92
:1043F00080932B048091D8039091D9038227282F92
:1044000022952827022E269526952025022E2695D0
:1044100020252770082E892F269507942795902D03
:10442000822706942795902582279093D90380931D
:10443000D8032091D603233040F580912B0490E0DF
:104440006091D703029770E00E94E826892BE9F477
:104450008091D3039091D403E22FF0E090FF04C049
:10446000EB52FE4F808104C0EB52FE4F808182955B
:104470008F708093D603833040F490E0880F991FAB
:104480000196806A94690E94A61F90912C0499233A
:1044900029F080912B04891780F40AC08091DC03F5
:1044A00020912B0490E0049630E0821793072CF0C3
:1044B00080912B04873408F468C00E94D31F65C024
:1044C0008091280487FF2EC0E091DC0380912804AE
:1044D0008F5F809328048150ED5FE80FF0E0E65293
:1044E000FC4FE0818091D8039091D9038E27282F2B
:1044F00022952827022E269526952025022E2695E0
:1045000020252770082E892F269507942795902D12
:10451000822706942795902582279093D90380932C
:10452000D8032EC0809128048F5F80932804815087
:10453000833019F184302CF4882399F08130F9F418
:1045400016C08B3019F08C30D1F402C0EDE218C0E7
:10455000E09129049091DC038EEF891B809328045D
:104560000FC08091D8039091D903E82F09C08091A2
:10457000D8039091D903E92F03C00E94D31FEAEA20
:104580008E2F90E0986B0E94A61F8091D30390918C
:10459000D40396FF03C086E0809328048091D30360
:1045A0009091D40394FF09C060E070E080E090E057
:1045B0000E944A2181E08093D5038091D30390919A
:1045C000D40395FF05C00E94D31F84E08093280484
:1045D00008951F93182F4093DC032DED33E0C9019C
:1045E00050E00E940C04812F0E94FE201F9108952C
:1045F0008091270490E08F719070892B41F080E0CA
:1046000066E971E240E050E00E940624089580E0EF
:104610000E94292408951F9380932704409329041E
:1046200060932A040E94F82210922C04E89885E0F6
:1046300092E89093D2038093D1038091D10390911B
:10464000D2030E94A61F80912A0490E074E0880F94
:10465000991F7A95E1F7876C90680E94A61F80E405
:1046600096EA0E94A61F86E00E94A42082EA94E9AE
:104670000E94A61F8CEA92EC0E94A61F10912904AA
:10468000112341F083E89AEC0E94A61F812F90E04D
:104690009E6C06C08BE89AEC0E94A61F8DE29EECF1
:1046A0000E94A61F83E894EC0E94A61F80E598E96B
:1046B0000E94A61F87E79CEC0E94A61F80E090EE58
:1046C0000E94A61F80E098EC0E94A61F89E490EC4F
:1046D0000E94A61F84E080932804E89A1F91089501
:1046E00025B181E090E0A0E0B0E00090820104C03C
:1046F000880F991FAA1FBB1F0A94D2F7282B25B930
:1047000024B1822B84B98AE061E00E94DB178AE041
:1047100061E00E949C178BE061E00E949C178CE096
:1047200060E00E949C178DE061E00E949C1780E58C
:104730008CBD8DB581608DBD82E060E00E949C17CC
:1047400082E061E00E94DB170895FF920F931F93B0
:10475000182F062FF42E809327044093290460938A
:104760002A040E9470230E94F82282E89AEC0E9498
:10477000A61F80E09EEF0E94A61F85E0809328047C
:1047800083B7817F06C083B7816083BF889583B775
:104790008E7F83BF809128048530A9F3812F602FFD
:1047A0004F2D0E940B23809127041F910F91FF90A2
:1047B000089580913504089560932D0470932E041C
:1047C00080932F04909330042091830130918401D1
:1047D0004091850150918601260F371F481F591FB0
:1047E00020933104309332044093330450933404C3
:1047F00082E0809335040E94CA1660933604709359
:10480000370480933804909339040895823000F57A
:10481000E82FF0E0EE0FFF1FE65CFB4F7183608333
:10482000882319F08130A1F408C0809169008C7F41
:10483000842B80936900E89A089580916900440F61
:10484000551F440F551F837F842B80936900E99A7D
:104850000895823080F4882319F0813021F402C059
:10486000E89801C0E998E82FF0E0EE0FFF1FE65C42
:10487000FB4F1182108208951F920F920FB60F9274
:1048800011242F933F934F935F936F937F938F9355
:104890009F93AF93BF93EF93FF9380913A049091CE
:1048A0003B04892B29F0E0913A04F0913B040995EF
:1048B000FF91EF91BF91AF919F918F917F916F91F8
:1048C0005F914F913F912F910F900FBE0F901F90CE
:1048D00018951F920F920FB60F9211242F933F93AA
:1048E0004F935F936F937F938F939F93AF93BF93F8
:1048F000EF93FF9380913C0490913D04892B29F024
:10490000E0913C04F0913D040995FF91EF91BF9136
:10491000AF919F918F917F916F915F914F913F9157
:104920002F910F900FBE0F901F9018955058BB27D6
:10493000AA270ED075C166D130F06BD120F031F4CA
:104940009F3F11F41EF45BC10EF4E095E7FB51C1EB
:10495000E92F77D180F3BA176207730784079507A9
:1049600018F071F49EF58FC10EF4E0950B2EBA2F5E
:10497000A02D0B01B90190010C01CA01A001112465
:10498000FF27591B99F0593F50F4503E68F11A1611
:10499000F040A22F232F342F4427585FF3CF4695A2
:1049A00037952795A795F0405395C9F77EF41F16C4
:1049B000BA0B620B730B840BBAF09150A1F0FF0F8E
:1049C000BB1F661F771F881FC2F70EC0BA0F621F7A
:1049D000731F841F48F4879577956795B795F7956A
:1049E0009E3F08F0B3CF9395880F08F09927EE0FFC
:1049F000979587950895D9D008F481E008950CD053
:104A00000FC107D140F0FED030F021F45F3F19F024
:104A1000F0C0511139C1F3C014D198F39923C9F3EF
:104A20005523B1F3951B550BBB27AA2762177307B4
:104A3000840738F09F5F5F4F220F331F441FAA1F68
:104A4000A9F333D00E2E3AF0E0E830D09150504028
:104A5000E695001CCAF729D0FE2F27D0660F771FD6
:104A6000881FBB1F261737074807AB07B0E809F0B8
:104A7000BB0B802DBF01FF2793585F4F2AF09E3F4D
:104A8000510568F0B6C000C15F3FECF3983EDCF31F
:104A9000869577956795B795F7959F5FC9F7880FC6
:104AA000911D9695879597F90895E1E0660F771F18
:104AB000881FBB1F621773078407BA0720F0621BA9
:104AC000730B840BBA0BEE1F88F7E095089504D0A2
:104AD0006894B111D9C00895BCD088F09F5790F068
:104AE000B92F9927B751A0F0D1F0660F771F881F13
:104AF000991F1AF0BA95C9F712C0B13081F0C3D02E
:104B0000B1E00895C0C0672F782F8827B85F39F0CB
:104B1000B93FCCF3869577956795B395D9F73EF471
:104B200090958095709561957F4F8F4F9F4F089519
:104B3000E89409C097FB3EF4909580957095619537
:104B40007F4F8F4F9F4F9923A9F0F92F96E9BB27ED
:104B50009395F695879577956795B795F111F8CF69
:104B6000FAF4BB0F11F460FF1BC06F5F7F4F8F4FD4
:104B70009F4F16C0882311F096E911C0772321F0CA
:104B80009EE8872F762F05C0662371F096E8862F62
:104B900070E060E02AF09A95660F771F881FDAF7B9
:104BA000880F9695879597F90895990F0008550FE6
:104BB000AA0BE0E8FEEF16161706E807F907C0F0A3
:104BC00012161306E407F50798F0621B730B840BAB
:104BD000950B39F40A2661F0232B242B252B21F485
:104BE00008950A2609F4A140A6958FEF811D811D25
:104BF000089597F99F6780E870E060E008959FEF5F
:104C000080EC089500240A94161617061806090663
:104C1000089500240A941216130614060506089532
:104C2000092E0394000C11F4882352F0BB0F40F4BA
:104C3000BF2B11F460FF04C06F5F7F4F8F4F9F4FFA
:104C4000089557FD9058440F551F59F05F3F71F07C
:104C50004795880F97FB991F61F09F3F79F08795E3
:104C60000895121613061406551FF2CF4695F1DF6C
:104C700008C0161617061806991FF1CF86957105FC
:104C8000610508940895E894BB2766277727CB0130
:104C900097F908958ADF08F48FEF08950BD0C0CFFD
:104CA000B1DF28F0B6DF18F0952309F0A2CFA7CF27
:104CB0001124EACFC6DFA0F3959FD1F3950F50E002
:104CC000551F629FF001729FBB27F00DB11D639FBE
:104CD000AA27F00DB11DAA1F649F6627B00DA11D64
:104CE000661F829F2227B00DA11D621F739FB00D0A
:104CF000A11D621F839FA00D611D221F749F33277A
:104D0000A00D611D231F849F600D211D822F762F12
:104D10006A2F11249F5750408AF0E1F088234AF00F
:104D2000EE0FFF1FBB1F661F771F881F915050405B
:104D3000A9F79E3F510570F05CCFA6CF5F3FECF323
:104D4000983EDCF3869577956795B795F795E79547
:104D50009F5FC1F7FE2B880F911D9695879597F958
:104D6000089523DF880B990B0895629FD001739FEC
:104D7000F001829FE00DF11D649FE00DF11D929FF7
:104D8000F00D839FF00D749FF00D659FF00D992736
:104D9000729FB00DE11DF91F639FB00DE11DF91F5A
:104DA000BD01CF0111240895AA1BBB1B51E107C00F
:104DB000AA1FBB1FA617B70710F0A61BB70B881FAB
:104DC000991F5A95A9F780959095BC01CD0108953A
:104DD00097FB092E07260AD077FD04D0E5DF06D021
:104DE00000201AF4709561957F4F0895F6F790951D
:104DF00081959F4F0895A1E21A2EAA1BBB1BFD01AE
:104E00000DC0AA1FBB1FEE1FFF1FA217B307E407A9
:104E1000F50720F0A21BB30BE40BF50B661F771F01
:104E2000881F991F1A9469F76095709580959095E1
:104E30009B01AC01BD01CF010895EE0FFF1F05904E
:104E4000F491E02D09942F923F924F925F926F92CE
:104E50007F928F929F92AF92BF92CF92DF92EF920A
:104E6000FF920F931F93CF93DF93CDB7DEB7CA1B8B
:104E7000DB0B0FB6F894DEBF0FBECDBF09942A88B6
:104E8000398848885F846E847D848C849B84AA845E
:104E9000B984C884DF80EE80FD800C811B81AA81EB
:104EA000B981CE0FD11D0FB6F894DEBF0FBECDBFB6
:084EB000ED010895F894FFCF15
:104EB80054656D703A200046205B002E2E005D0080
:104EC80054696D65206E6F74207365740020004E00
:104ED800657454696D6520636F6E66696775726580
:104EE8006400307800202023003A2000206E6F777D
:104EF8003A0046206D696E3A002C00200030780098
:104F0800202023003A2000206E6F773A0020006EA0
:104F1800616E00696E66006F7666002E00200042A2
:104F28000400007B02D80100007602D002F80200DB
:104F38000001022C0100000000000016084F1A476B
:104F48000765074907FCFF000061074807000000E4
:104F580000AC09C90800000000C10BD50B00000017
:104F6800006F0CB50C0700030001000000000000F2
:104F7800005D13031300000000AA194F1A401971AD
:084F88001951199A193402565F
:00000001FF
